{
  "address": "0xC32c9cE03c097bbcb1e97d85524a7ad234f732fE",
  "abi": [
    {
      "inputs": [
        {
          "internalType": "contract ITAS",
          "name": "tas",
          "type": "address"
        },
        {
          "internalType": "address",
          "name": "_splitterFactory",
          "type": "address"
        },
        {
          "internalType": "contract ISchemaRegistry",
          "name": "_schemaRegistry",
          "type": "address"
        }
      ],
      "stateMutability": "nonpayable",
      "type": "constructor"
    },
    {
      "inputs": [],
      "name": "AccessDenied",
      "type": "error"
    },
    {
      "inputs": [
        {
          "internalType": "uint256",
          "name": "chainid",
          "type": "uint256"
        }
      ],
      "name": "ChainNotSupported",
      "type": "error"
    },
    {
      "inputs": [],
      "name": "InsufficientValue",
      "type": "error"
    },
    {
      "inputs": [],
      "name": "InvalidLength",
      "type": "error"
    },
    {
      "inputs": [],
      "name": "InvalidTAS",
      "type": "error"
    },
    {
      "inputs": [],
      "name": "NotPayable",
      "type": "error"
    },
    {
      "anonymous": false,
      "inputs": [
        {
          "indexed": true,
          "internalType": "bytes32",
          "name": "role",
          "type": "bytes32"
        },
        {
          "indexed": true,
          "internalType": "bytes32",
          "name": "previousAdminRole",
          "type": "bytes32"
        },
        {
          "indexed": true,
          "internalType": "bytes32",
          "name": "newAdminRole",
          "type": "bytes32"
        }
      ],
      "name": "RoleAdminChanged",
      "type": "event"
    },
    {
      "anonymous": false,
      "inputs": [
        {
          "indexed": true,
          "internalType": "bytes32",
          "name": "role",
          "type": "bytes32"
        },
        {
          "indexed": true,
          "internalType": "address",
          "name": "account",
          "type": "address"
        },
        {
          "indexed": true,
          "internalType": "address",
          "name": "sender",
          "type": "address"
        }
      ],
      "name": "RoleGranted",
      "type": "event"
    },
    {
      "anonymous": false,
      "inputs": [
        {
          "indexed": true,
          "internalType": "bytes32",
          "name": "role",
          "type": "bytes32"
        },
        {
          "indexed": true,
          "internalType": "address",
          "name": "account",
          "type": "address"
        },
        {
          "indexed": true,
          "internalType": "address",
          "name": "sender",
          "type": "address"
        }
      ],
      "name": "RoleRevoked",
      "type": "event"
    },
    {
      "inputs": [
        {
          "internalType": "address[]",
          "name": "attesters",
          "type": "address[]"
        },
        {
          "internalType": "address[]",
          "name": "revokers",
          "type": "address[]"
        },
        {
          "internalType": "string",
          "name": "schema",
          "type": "string"
        },
        {
          "internalType": "string",
          "name": "schemaName",
          "type": "string"
        },
        {
          "internalType": "string",
          "name": "schemaDescription",
          "type": "string"
        }
      ],
      "name": "ACSchemaRegistered",
      "outputs": [],
      "stateMutability": "nonpayable",
      "type": "function"
    },
    {
      "inputs": [],
      "name": "DEFAULT_ADMIN_ROLE",
      "outputs": [
        {
          "internalType": "bytes32",
          "name": "",
          "type": "bytes32"
        }
      ],
      "stateMutability": "view",
      "type": "function"
    },
    {
      "inputs": [
        {
          "components": [
            {
              "internalType": "bytes32",
              "name": "uid",
              "type": "bytes32"
            },
            {
              "internalType": "bytes32",
              "name": "schema",
              "type": "bytes32"
            },
            {
              "internalType": "uint64",
              "name": "time",
              "type": "uint64"
            },
            {
              "internalType": "uint64",
              "name": "expirationTime",
              "type": "uint64"
            },
            {
              "internalType": "uint64",
              "name": "revocationTime",
              "type": "uint64"
            },
            {
              "internalType": "bytes32",
              "name": "refUID",
              "type": "bytes32"
            },
            {
              "internalType": "address",
              "name": "recipient",
              "type": "address"
            },
            {
              "internalType": "address",
              "name": "attester",
              "type": "address"
            },
            {
              "internalType": "bool",
              "name": "revocable",
              "type": "bool"
            },
            {
              "internalType": "bytes",
              "name": "data",
              "type": "bytes"
            }
          ],
          "internalType": "struct Attestation",
          "name": "attestation",
          "type": "tuple"
        }
      ],
      "name": "attest",
      "outputs": [
        {
          "internalType": "bool",
          "name": "",
          "type": "bool"
        }
      ],
      "stateMutability": "payable",
      "type": "function"
    },
    {
      "inputs": [
        {
          "internalType": "bytes32",
          "name": "data",
          "type": "bytes32"
        }
      ],
      "name": "bytes32ToString",
      "outputs": [
        {
          "internalType": "string",
          "name": "",
          "type": "string"
        }
      ],
      "stateMutability": "pure",
      "type": "function"
    },
    {
      "inputs": [
        {
          "internalType": "bytes32",
          "name": "role",
          "type": "bytes32"
        }
      ],
      "name": "getRoleAdmin",
      "outputs": [
        {
          "internalType": "bytes32",
          "name": "",
          "type": "bytes32"
        }
      ],
      "stateMutability": "view",
      "type": "function"
    },
    {
      "inputs": [
        {
          "internalType": "bytes32",
          "name": "role",
          "type": "bytes32"
        },
        {
          "internalType": "address",
          "name": "account",
          "type": "address"
        }
      ],
      "name": "grantRole",
      "outputs": [],
      "stateMutability": "nonpayable",
      "type": "function"
    },
    {
      "inputs": [
        {
          "internalType": "bytes32",
          "name": "role",
          "type": "bytes32"
        },
        {
          "internalType": "address",
          "name": "account",
          "type": "address"
        }
      ],
      "name": "hasRole",
      "outputs": [
        {
          "internalType": "bool",
          "name": "",
          "type": "bool"
        }
      ],
      "stateMutability": "view",
      "type": "function"
    },
    {
      "inputs": [],
      "name": "isPayable",
      "outputs": [
        {
          "internalType": "bool",
          "name": "",
          "type": "bool"
        }
      ],
      "stateMutability": "pure",
      "type": "function"
    },
    {
      "inputs": [
        {
          "components": [
            {
              "internalType": "bytes32",
              "name": "uid",
              "type": "bytes32"
            },
            {
              "internalType": "bytes32",
              "name": "schema",
              "type": "bytes32"
            },
            {
              "internalType": "uint64",
              "name": "time",
              "type": "uint64"
            },
            {
              "internalType": "uint64",
              "name": "expirationTime",
              "type": "uint64"
            },
            {
              "internalType": "uint64",
              "name": "revocationTime",
              "type": "uint64"
            },
            {
              "internalType": "bytes32",
              "name": "refUID",
              "type": "bytes32"
            },
            {
              "internalType": "address",
              "name": "recipient",
              "type": "address"
            },
            {
              "internalType": "address",
              "name": "attester",
              "type": "address"
            },
            {
              "internalType": "bool",
              "name": "revocable",
              "type": "bool"
            },
            {
              "internalType": "bytes",
              "name": "data",
              "type": "bytes"
            }
          ],
          "internalType": "struct Attestation[]",
          "name": "attestations",
          "type": "tuple[]"
        },
        {
          "internalType": "uint256[]",
          "name": "values",
          "type": "uint256[]"
        }
      ],
      "name": "multiAttest",
      "outputs": [
        {
          "internalType": "bool",
          "name": "",
          "type": "bool"
        }
      ],
      "stateMutability": "payable",
      "type": "function"
    },
    {
      "inputs": [
        {
          "components": [
            {
              "internalType": "bytes32",
              "name": "uid",
              "type": "bytes32"
            },
            {
              "internalType": "bytes32",
              "name": "schema",
              "type": "bytes32"
            },
            {
              "internalType": "uint64",
              "name": "time",
              "type": "uint64"
            },
            {
              "internalType": "uint64",
              "name": "expirationTime",
              "type": "uint64"
            },
            {
              "internalType": "uint64",
              "name": "revocationTime",
              "type": "uint64"
            },
            {
              "internalType": "bytes32",
              "name": "refUID",
              "type": "bytes32"
            },
            {
              "internalType": "address",
              "name": "recipient",
              "type": "address"
            },
            {
              "internalType": "address",
              "name": "attester",
              "type": "address"
            },
            {
              "internalType": "bool",
              "name": "revocable",
              "type": "bool"
            },
            {
              "internalType": "bytes",
              "name": "data",
              "type": "bytes"
            }
          ],
          "internalType": "struct Attestation[]",
          "name": "attestations",
          "type": "tuple[]"
        },
        {
          "internalType": "uint256[]",
          "name": "values",
          "type": "uint256[]"
        }
      ],
      "name": "multiRevoke",
      "outputs": [
        {
          "internalType": "bool",
          "name": "",
          "type": "bool"
        }
      ],
      "stateMutability": "payable",
      "type": "function"
    },
    {
      "inputs": [
        {
          "internalType": "bytes32",
          "name": "role",
          "type": "bytes32"
        },
        {
          "internalType": "address",
          "name": "account",
          "type": "address"
        }
      ],
      "name": "renounceRole",
      "outputs": [],
      "stateMutability": "nonpayable",
      "type": "function"
    },
    {
      "inputs": [
        {
          "components": [
            {
              "internalType": "bytes32",
              "name": "uid",
              "type": "bytes32"
            },
            {
              "internalType": "bytes32",
              "name": "schema",
              "type": "bytes32"
            },
            {
              "internalType": "uint64",
              "name": "time",
              "type": "uint64"
            },
            {
              "internalType": "uint64",
              "name": "expirationTime",
              "type": "uint64"
            },
            {
              "internalType": "uint64",
              "name": "revocationTime",
              "type": "uint64"
            },
            {
              "internalType": "bytes32",
              "name": "refUID",
              "type": "bytes32"
            },
            {
              "internalType": "address",
              "name": "recipient",
              "type": "address"
            },
            {
              "internalType": "address",
              "name": "attester",
              "type": "address"
            },
            {
              "internalType": "bool",
              "name": "revocable",
              "type": "bool"
            },
            {
              "internalType": "bytes",
              "name": "data",
              "type": "bytes"
            }
          ],
          "internalType": "struct Attestation",
          "name": "attestation",
          "type": "tuple"
        }
      ],
      "name": "revoke",
      "outputs": [
        {
          "internalType": "bool",
          "name": "",
          "type": "bool"
        }
      ],
      "stateMutability": "payable",
      "type": "function"
    },
    {
      "inputs": [
        {
          "internalType": "bytes32",
          "name": "role",
          "type": "bytes32"
        },
        {
          "internalType": "address",
          "name": "account",
          "type": "address"
        }
      ],
      "name": "revokeRole",
      "outputs": [],
      "stateMutability": "nonpayable",
      "type": "function"
    },
    {
      "inputs": [],
      "name": "splitterFactory",
      "outputs": [
        {
          "internalType": "address",
          "name": "",
          "type": "address"
        }
      ],
      "stateMutability": "view",
      "type": "function"
    },
    {
      "inputs": [
        {
          "internalType": "bytes4",
          "name": "interfaceId",
          "type": "bytes4"
        }
      ],
      "name": "supportsInterface",
      "outputs": [
        {
          "internalType": "bool",
          "name": "",
          "type": "bool"
        }
      ],
      "stateMutability": "view",
      "type": "function"
    },
    {
      "inputs": [
        {
          "internalType": "uint256",
          "name": "",
          "type": "uint256"
        }
      ],
      "name": "tables",
      "outputs": [
        {
          "internalType": "string",
          "name": "",
          "type": "string"
        }
      ],
      "stateMutability": "view",
      "type": "function"
    },
    {
      "inputs": [],
      "name": "version",
      "outputs": [
        {
          "internalType": "string",
          "name": "",
          "type": "string"
        }
      ],
      "stateMutability": "view",
      "type": "function"
    },
    {
      "stateMutability": "payable",
      "type": "receive"
    }
  ],
  "transactionHash": "0xd72b1042e769f10266d3348894b4d5f9473d5711dd83077c6e409f72c5337453",
  "args": [
    "0x5E0FFE0950231EfaD5972afce26f1a91F9B7a74b",
    "0x0EA67bE9F10DDfEC17ce67fC802ecE32cf5C4f29",
    "0x38Db6ff229c7d357ed34126fBd7F9200553eb245"
  ],
  "numDeployments": 1,
  "solcInputHash": "49ec6d5a7c331538ab42d44533de0f70",
  "bytecode": "0x6101006040523480156200001257600080fd5b5060405162002cd938038062002cd98339810160408190526200003591620007ac565b6000608081905260a052600160c052826001600160a01b0381166200006d5760405163120d8e6b60e21b815260040160405180910390fd5b6001600160a01b0390811660e052600180546001600160a01b03199081168484161790915560028054909116918416919091179055620000ac6200037f565b600460006101000a8154816001600160a01b0302191690836001600160a01b031602179055506005620001436040518060400160405280601d81526020017f736368656d6155494420746578742c20617474657374657220746578740000008152506040518060400160405280601081526020016f736368656d615f61747465737465727360801b8152506200054260201b60201c565b81546001810183556000928352602090922090910190620001659082620008a5565b506005620001d66040518060400160405280601c81526020017f736368656d6155494420746578742c207265766f6b65722074657874000000008152506040518060400160405280600f81526020016e736368656d615f7265766f6b65727360881b8152506200054260201b60201c565b81546001810183556000928352602090922090910190620001f89082620008a5565b50600480546040516361a23d0f60e01b81526001600160a01b03909116916361a23d0f916200022d9130916005910162000971565b6000604051808303816000875af11580156200024d573d6000803e3d6000fd5b505050506040513d6000823e601f3d908101601f1916820160405262000277919081019062000a59565b80516200028d916007916020909101906200072c565b506006620002eb6040518060400160405280601081526020016f736368656d615f61747465737465727360801b8152506007600081548110620002d457620002d462000b22565b90600052602060002001546200057c60201b60201c565b815460018101835560009283526020909220909101906200030d9082620008a5565b506006620003536040518060400160405280600f81526020016e736368656d615f7265766f6b65727360881b8152506007600181548110620002d457620002d462000b22565b81546001810183556000928352602090922090910190620003759082620008a5565b5050505062000c13565b600046600103620003a3575073012969f7e3439a9b04025b5a049eb9bad82a8c1290565b46600a03620003c5575073fad44bf5b843de943a09d4f3e84949a11d3aa3e690565b4661a4b103620003e85750739abd75e8640871a5a20d3b4ee6330a04c962affd90565b4661a4ba036200040b5750731a22854c5b1642760a827f20137a67930ae108d290565b466089036200042d5750735c4e6a9e5c1e1bf445a062006faf19ea6c49afea90565b4661013a036200045057507359ef8bf2d6c102b4c42aef9189e1a9f0abfd652d90565b4660050362000472575073da8ea22d092307874f30a1f277d1388dca0ba97a90565b466101a40362000495575073c72e8a7be04f2469f8c2db3f1bdf69a7d516abba90565b4662066eed03620004b9575073033f69e8d119205089ab15d340f5b797732f646b90565b466201388103620004dd5750734b48841d4b32c4650e4abc117a03fe8b51f38f6890565b46610c4503620005005750730b9737ab4b3e5303cb67db031b509697e31c02d390565b46617a690362000523575073e7f1725e7734ce288f8367e1bb143e90bb3f051290565b60405163264e42cf60e01b815246600482015260240160405180910390fd5b6060816200055046620005a9565b84604051602001620005659392919062000b6a565b604051602081830303815290604052905092915050565b6060826200058a46620005a9565b6200059584620005a9565b604051602001620005659392919062000bd0565b60606000620005b88362000642565b60010190506000816001600160401b03811115620005da57620005da62000800565b6040519080825280601f01601f19166020018201604052801562000605576020820181803683370190505b5090508181016020015b600019016f181899199a1a9b1b9c1cb0b131b232b360811b600a86061a8153600a85049450846200060f57509392505050565b6000807a184f03e93ff9f4daa797ed6e38ed64bf6a1f01000000000000000083106200068c577a184f03e93ff9f4daa797ed6e38ed64bf6a1f010000000000000000830492506040015b6d04ee2d6d415b85acef81000000008310620006b9576d04ee2d6d415b85acef8100000000830492506020015b662386f26fc100008310620006d857662386f26fc10000830492506010015b6305f5e1008310620006f1576305f5e100830492506008015b61271083106200070657612710830492506004015b6064831062000719576064830492506002015b600a831062000726576001015b92915050565b8280548282559060005260206000209081019282156200076a579160200282015b828111156200076a5782518255916020019190600101906200074d565b50620007789291506200077c565b5090565b5b808211156200077857600081556001016200077d565b6001600160a01b0381168114620007a957600080fd5b50565b600080600060608486031215620007c257600080fd5b8351620007cf8162000793565b6020850151909350620007e28162000793565b6040850151909250620007f58162000793565b809150509250925092565b634e487b7160e01b600052604160045260246000fd5b600181811c908216806200082b57607f821691505b6020821081036200084c57634e487b7160e01b600052602260045260246000fd5b50919050565b601f821115620008a057600081815260208120601f850160051c810160208610156200087b5750805b601f850160051c820191505b818110156200089c5782815560010162000887565b5050505b505050565b81516001600160401b03811115620008c157620008c162000800565b620008d981620008d2845462000816565b8462000852565b602080601f831160018114620009115760008415620008f85750858301515b600019600386901b1c1916600185901b1785556200089c565b600085815260208120601f198616915b82811015620009425788860151825594840194600190910190840162000921565b5085821015620009615787850151600019600388901b60f8161c191681555b5050505050600190811b01905550565b60006040820160018060a01b0385168352602060408185015281855480845260608601915060059350606081851b8701016000888152848120815b8481101562000a4957605f198a8503018652828254620009cc8162000816565b80875260018281168015620009ea576001811462000a045762000a31565b60ff198416898d01528215158d1b89018c01945062000a31565b8688528b8820885b8481101562000a295781548b82018f0152908301908d0162000a0c565b8a018d019550505b50988a019892965050509190910190600101620009ac565b50919a9950505050505050505050565b6000602080838503121562000a6d57600080fd5b82516001600160401b038082111562000a8557600080fd5b818501915085601f83011262000a9a57600080fd5b81518181111562000aaf5762000aaf62000800565b8060051b604051601f19603f8301168101818110858211171562000ad75762000ad762000800565b60405291825284820192508381018501918883111562000af657600080fd5b938501935b8285101562000b165784518452938501939285019262000afb565b98975050505050505050565b634e487b7160e01b600052603260045260246000fd5b6000815160005b8181101562000b5b576020818501810151868301520162000b3f565b50600093019283525090919050565b6c021a922a0aa22902a20a126229609d1b8152600062000b8e600d83018662000b38565b605f60f81b815262000ba4600182018662000b38565b9050600560fb1b815262000bbc600182018562000b38565b602960f81b81526001019695505050505050565b600062000bde828662000b38565b605f60f81b80825262000bf5600183018762000b38565b908152905062000c09600182018562000b38565b9695505050505050565b60805160a05160c05160e05161208c62000c4d6000396000610bbd015260006104860152600061045d01526000610434015261208c6000f3fe6080604052600436106101025760003560e01c806391d1485411610095578063ce46e04611610064578063ce46e046146102cf578063d547741f146102e3578063e49617e114610303578063e60c350514610316578063f66633881461032957600080fd5b806391d148541461026757806391db0b7e146102875780639201de551461029a578063a217fddf146102ba57600080fd5b806354fd4d50116100d157806354fd4d50146101da5780635608d9e5146101fc57806371671bf21461023457806388e5b2d91461025457600080fd5b806301ffc9a714610127578063248a9ca31461015c5780632f2ff15d1461019a57806336568abe146101ba57600080fd5b3661012257604051631574f9f360e01b815260040160405180910390fd5b005b600080fd5b34801561013357600080fd5b5061014761014236600461163c565b610349565b60405190151581526020015b60405180910390f35b34801561016857600080fd5b5061018c610177366004611666565b60009081526020819052604090206001015490565b604051908152602001610153565b3480156101a657600080fd5b506101206101b5366004611696565b610380565b3480156101c657600080fd5b506101206101d5366004611696565b6103aa565b3480156101e657600080fd5b506101ef61042d565b6040516101539190611712565b34801561020857600080fd5b5060025461021c906001600160a01b031681565b6040516001600160a01b039091168152602001610153565b34801561024057600080fd5b506101ef61024f366004611666565b6104d0565b610147610262366004611771565b61057c565b34801561027357600080fd5b50610147610282366004611696565b61064b565b610147610295366004611771565b610674565b3480156102a657600080fd5b506101ef6102b5366004611666565b610733565b3480156102c657600080fd5b5061018c600081565b3480156102db57600080fd5b506000610147565b3480156102ef57600080fd5b506101206102fe366004611696565b6108ec565b6101476103113660046117dd565b610911565b6101476103243660046117dd565b61092a565b34801561033557600080fd5b5061012061034436600461185b565b61093e565b60006001600160e01b03198216637965db0b60e01b148061037a57506301ffc9a760e01b6001600160e01b03198316145b92915050565b60008281526020819052604090206001015461039b81610a29565b6103a58383610a36565b505050565b6001600160a01b038116331461041f5760405162461bcd60e51b815260206004820152602f60248201527f416363657373436f6e74726f6c3a2063616e206f6e6c792072656e6f756e636560448201526e103937b632b9903337b91039b2b63360891b60648201526084015b60405180910390fd5b6104298282610aba565b5050565b60606104587f0000000000000000000000000000000000000000000000000000000000000000610b1f565b6104817f0000000000000000000000000000000000000000000000000000000000000000610b1f565b6104aa7f0000000000000000000000000000000000000000000000000000000000000000610b1f565b6040516020016104bc9392919061194c565b604051602081830303815290604052905090565b600681815481106104e057600080fd5b9060005260206000200160009150905080546104fb906119a6565b80601f0160208091040260200160405190810160405280929190818152602001828054610527906119a6565b80156105745780601f1061054957610100808354040283529160200191610574565b820191906000526020600020905b81548152906001019060200180831161055757829003601f168201915b505050505081565b6000610586610bb2565b838281146105a75760405163251f56a160e21b815260040160405180910390fd5b3460005b8281101561063b5760008686838181106105c7576105c76119e0565b905060200201359050828111156105f15760405163044044a560e21b815260040160405180910390fd5b61061e898984818110610606576106066119e0565b905060200281019061061891906119f6565b82610bfd565b61062f576000945050505050610643565b909103906001016105ab565b506001925050505b949350505050565b6000918252602082815260408084206001600160a01b0393909316845291905290205460ff1690565b600061067e610bb2565b8382811461069f5760405163251f56a160e21b815260040160405180910390fd5b3460005b8281101561063b5760008686838181106106bf576106bf6119e0565b905060200201359050828111156106e95760405163044044a560e21b815260040160405180910390fd5b6107168989848181106106fe576106fe6119e0565b905060200281019061071091906119f6565b82610c93565b610727576000945050505050610643565b909103906001016106a3565b6060600061074360206002611a2d565b60ff1667ffffffffffffffff81111561075e5761075e611a50565b6040519080825280601f01601f191660200182016040528015610788576020820181803683370190505b5060408051808201909152601081526f181899199a1a9b1b9c1cb0b131b232b360811b602082015290915060005b60208110156108c2578182518683602081106107d4576107d46119e0565b6107e09291901a611a7c565b815181106107f0576107f06119e0565b01602001516001600160f81b0319168361080b836002611a90565b8151811061081b5761081b6119e0565b60200101906001600160f81b031916908160001a905350818251868360208110610847576108476119e0565b6108539291901a611aa7565b81518110610863576108636119e0565b01602001516001600160f81b0319168361087e836002611a90565b610889906001611abb565b81518110610899576108996119e0565b60200101906001600160f81b031916908160001a905350806108ba81611ace565b9150506107b6565b50816040516020016108d49190611ae7565b60405160208183030381529060405292505050919050565b60008281526020819052604090206001015461090781610a29565b6103a58383610aba565b600061091b610bb2565b61037a8234610bfd565b919050565b6000610934610bb2565b61037a8234610c93565b600180546040516364ccc13760e01b81526000926001600160a01b03909216916364ccc1379161097e918b918b918b918b918b918b913091600401611b3a565b6020604051808303816000875af115801561099d573d6000803e3d6000fd5b505050506040513d601f19601f820116820180604052508101906109c19190611b9c565b90508960008190036109e7576000828152600360205260409020805460ff191660011790555b886000819003610a0d576000838152600360205260409020805461ff0019166101001790555b610a1a838e8e8e8e610d41565b50505050505050505050505050565b610a338133611064565b50565b610a40828261064b565b610429576000828152602081815260408083206001600160a01b03851684529091529020805460ff19166001179055610a763390565b6001600160a01b0316816001600160a01b0316837f2f8788117e7eff1d82e926ec794901d17c78024a50270940304540a733656f0d60405160405180910390a45050565b610ac4828261064b565b15610429576000828152602081815260408083206001600160a01b0385168085529252808320805460ff1916905551339285917ff6391f5c32d9c69d2a47ea670b442974b53935d1edc7fd64eb21e047a839171b9190a45050565b60606000610b2c836110bd565b600101905060008167ffffffffffffffff811115610b4c57610b4c611a50565b6040519080825280601f01601f191660200182016040528015610b76576020820181803683370190505b5090508181016020015b600019016f181899199a1a9b1b9c1cb0b131b232b360811b600a86061a8153600a8504945084610b8057509392505050565b336001600160a01b037f00000000000000000000000000000000000000000000000000000000000000001614610bfb57604051634ca8886760e01b815260040160405180910390fd5b565b602082810135600081815260039092526040822054610100900460ff1615610c2957600191505061037a565b610c7a81604051602001610c5e918152604060208201819052600790820152662922ab27a5a2a960c91b606082015260800190565b604051602081830303815290604052805190602001203261064b565b15610c8957600191505061037a565b5060009392505050565b600080610ca7610100850160e08601611bb5565b602080860135600081815260039092526040909120549192509060ff1615610cd45760019250505061037a565b610d2681604051602001610d0a9181526040602082018190526008908201526720aa2a22a9aa22a960c11b606082015260800190565b604051602081830303815290604052805190602001208361064b565b15610d365760019250505061037a565b506000949350505050565b6000818411610d505781610d52565b835b9050620186a081600954610d669190611abb565b10610d7357610d73611195565b60005b84811015610f0e57610e846007600081548110610d9557610d956119e0565b9060005260206000200154610e7f6040518060400160405280601081526020016f736368656d615f61747465737465727360801b8152506007600081548110610de057610de06119e0565b90600052602060002001546040518060400160405280601381526020017239b1b432b6b0aaa4a2161030ba3a32b9ba32b960691b815250610e28610e238e610733565b611314565b610e5a610e238e8e8b818110610e4057610e406119e0565b9050602002016020810190610e559190611bb5565b61133d565b604051602001610e6b929190611bd0565b604051602081830303815290604052611353565b611392565b610efc87604051602001610eba9181526040602082018190526008908201526720aa2a22a9aa22a960c11b606082015260800190565b60405160208183030381529060405280519060200120878784818110610ee257610ee26119e0565b9050602002016020810190610ef79190611bb5565b610a36565b80610f0681611ace565b915050610d76565b5060005b8281101561104457610fd56007600181548110610f3157610f316119e0565b9060005260206000200154610e7f6040518060400160405280600f81526020016e736368656d615f7265766f6b65727360881b8152506007600181548110610f7b57610f7b6119e0565b90600052602060002001546040518060400160405280601281526020017139b1b432b6b0aaa4a216103932bb37b5b2b960711b815250610fbd610e238e610733565b610e5a610e238c8c8b818110610e4057610e406119e0565b6110328760405160200161100a918152604060208201819052600790820152662922ab27a5a2a960c91b606082015260800190565b60405160208183030381529060405280519060200120858584818110610ee257610ee26119e0565b8061103c81611ace565b915050610f12565b5080600960008282546110579190611abb565b9091555050505050505050565b61106e828261064b565b6104295761107b8161133d565b6110868360206113fb565b604051602001611097929190611c0c565b60408051601f198184030181529082905262461bcd60e51b825261041691600401611712565b60008072184f03e93ff9f4daa797ed6e38ed64bf6a1f0160401b83106110fc5772184f03e93ff9f4daa797ed6e38ed64bf6a1f0160401b830492506040015b6d04ee2d6d415b85acef81000000008310611128576d04ee2d6d415b85acef8100000000830492506020015b662386f26fc10000831061114657662386f26fc10000830492506010015b6305f5e100831061115e576305f5e100830492506008015b612710831061117257612710830492506004015b60648310611184576064830492506002015b600a831061037a5760010192915050565b600480546040516361a23d0f60e01b81526001600160a01b03909116916361a23d0f916111c791309160059101611c81565b6000604051808303816000875af11580156111e6573d6000803e3d6000fd5b505050506040513d6000823e601f3d908101601f1916820160405261120e9190810190611d5f565b8051611222916007916020909101906115dc565b5060066112756040518060400160405280601081526020016f736368656d615f61747465737465727360801b8152506007600081548110611265576112656119e0565b906000526020600020015461159e565b815460018101835560009283526020909220909101906112959082611e63565b5060066112d76040518060400160405280600f81526020016e736368656d615f7265766f6b65727360881b8152506007600181548110611265576112656119e0565b815460018101835560009283526020909220909101906112f79082611e63565b5060006009819055600880549161130d83611ace565b9190505550565b6060816040516020016113279190611f23565b6040516020818303038152906040529050919050565b606061037a6001600160a01b03831660146113fb565b60606000611361868661159e565b905080848460405160200161137893929190611f51565b604051602081830303815290604052915050949350505050565b60048054604051631bbd786d60e11b81526001600160a01b039091169163377af0da916113c59130918791879101611fdd565b600060405180830381600087803b1580156113df57600080fd5b505af11580156113f3573d6000803e3d6000fd5b505050505050565b6060600061140a836002611a90565b611415906002611abb565b67ffffffffffffffff81111561142d5761142d611a50565b6040519080825280601f01601f191660200182016040528015611457576020820181803683370190505b509050600360fc1b81600081518110611472576114726119e0565b60200101906001600160f81b031916908160001a905350600f60fb1b816001815181106114a1576114a16119e0565b60200101906001600160f81b031916908160001a90535060006114c5846002611a90565b6114d0906001611abb565b90505b6001811115611548576f181899199a1a9b1b9c1cb0b131b232b360811b85600f1660108110611504576115046119e0565b1a60f81b82828151811061151a5761151a6119e0565b60200101906001600160f81b031916908160001a90535060049490941c936115418161200d565b90506114d3565b5083156115975760405162461bcd60e51b815260206004820181905260248201527f537472696e67733a20686578206c656e67746820696e73756666696369656e746044820152606401610416565b9392505050565b6060826115aa46610b1f565b6115b384610b1f565b6040516020016115c593929190612024565b604051602081830303815290604052905092915050565b828054828255906000526020600020908101928215611617579160200282015b828111156116175782518255916020019190600101906115fc565b50611623929150611627565b5090565b5b808211156116235760008155600101611628565b60006020828403121561164e57600080fd5b81356001600160e01b03198116811461159757600080fd5b60006020828403121561167857600080fd5b5035919050565b80356001600160a01b038116811461092557600080fd5b600080604083850312156116a957600080fd5b823591506116b96020840161167f565b90509250929050565b60005b838110156116dd5781810151838201526020016116c5565b50506000910152565b600081518084526116fe8160208601602086016116c2565b601f01601f19169290920160200192915050565b60208152600061159760208301846116e6565b60008083601f84011261173757600080fd5b50813567ffffffffffffffff81111561174f57600080fd5b6020830191508360208260051b850101111561176a57600080fd5b9250929050565b6000806000806040858703121561178757600080fd5b843567ffffffffffffffff8082111561179f57600080fd5b6117ab88838901611725565b909650945060208701359150808211156117c457600080fd5b506117d187828801611725565b95989497509550505050565b6000602082840312156117ef57600080fd5b813567ffffffffffffffff81111561180657600080fd5b8201610140818503121561159757600080fd5b60008083601f84011261182b57600080fd5b50813567ffffffffffffffff81111561184357600080fd5b60208301915083602082850101111561176a57600080fd5b60008060008060008060008060008060a08b8d03121561187a57600080fd5b8a3567ffffffffffffffff8082111561189257600080fd5b61189e8e838f01611725565b909c509a5060208d01359150808211156118b757600080fd5b6118c38e838f01611725565b909a50985060408d01359150808211156118dc57600080fd5b6118e88e838f01611819565b909850965060608d013591508082111561190157600080fd5b61190d8e838f01611819565b909650945060808d013591508082111561192657600080fd5b506119338d828e01611819565b915080935050809150509295989b9194979a5092959850565b6000845161195e8184602089016116c2565b8083019050601760f91b808252855161197e816001850160208a016116c2565b600192019182015283516119998160028401602088016116c2565b0160020195945050505050565b600181811c908216806119ba57607f821691505b6020821081036119da57634e487b7160e01b600052602260045260246000fd5b50919050565b634e487b7160e01b600052603260045260246000fd5b6000823561013e19833603018112611a0d57600080fd5b9190910192915050565b634e487b7160e01b600052601160045260246000fd5b60ff8181168382160290811690818114611a4957611a49611a17565b5092915050565b634e487b7160e01b600052604160045260246000fd5b634e487b7160e01b600052601260045260246000fd5b600082611a8b57611a8b611a66565b500490565b808202811582820484141761037a5761037a611a17565b600082611ab657611ab6611a66565b500690565b8082018082111561037a5761037a611a17565b600060018201611ae057611ae0611a17565b5060010190565b61060f60f31b815260008251611b048160028501602087016116c2565b9190910160020192915050565b81835281816020850137506000828201602090810191909152601f909101601f19169091010190565b60a081526000611b4e60a083018a8c611b11565b8281036020840152611b6181898b611b11565b90508281036040840152611b76818789611b11565b6001600160a01b0395909516606084015250509015156080909101529695505050505050565b600060208284031215611bae57600080fd5b5051919050565b600060208284031215611bc757600080fd5b6115978261167f565b60008351611be28184602088016116c2565b600b60fa1b9083019081528351611c008160018401602088016116c2565b01600101949350505050565b7f416363657373436f6e74726f6c3a206163636f756e7420000000000000000000815260008351611c448160178501602088016116c2565b7001034b99036b4b9b9b4b733903937b6329607d1b6017918401918201528351611c758160288401602088016116c2565b01602801949350505050565b60006040820160018060a01b0385168352602060408185015281855480845260608601915060059350606081851b8701016000888152848120815b84811015611d4f57605f198a8503018652828254611cd9816119a6565b80875260018281168015611cf45760018114611d0d57611d38565b60ff198416898d01528215158d1b89018c019450611d38565b8688528b8820885b84811015611d305781548b82018f0152908301908d01611d15565b8a018d019550505b50988a019892965050509190910190600101611cbc565b50919a9950505050505050505050565b60006020808385031215611d7257600080fd5b825167ffffffffffffffff80821115611d8a57600080fd5b818501915085601f830112611d9e57600080fd5b815181811115611db057611db0611a50565b8060051b604051601f19603f83011681018181108582111715611dd557611dd5611a50565b604052918252848201925083810185019188831115611df357600080fd5b938501935b82851015611e1157845184529385019392850192611df8565b98975050505050505050565b601f8211156103a557600081815260208120601f850160051c81016020861015611e445750805b601f850160051c820191505b818110156113f357828155600101611e50565b815167ffffffffffffffff811115611e7d57611e7d611a50565b611e9181611e8b84546119a6565b84611e1d565b602080601f831160018114611ec65760008415611eae5750858301515b600019600386901b1c1916600185901b1785556113f3565b600085815260208120601f198616915b82811015611ef557888601518255948401946001909101908401611ed6565b5085821015611f135787850151600019600388901b60f8161c191681555b5050505050600190811b01905550565b6000602760f81b8083528351611f408160018601602088016116c2565b600193019283015250600201919050565b6b024a729a2a92a1024a72a27960a51b815260008451611f7881600c8501602089016116c2565b600560fb1b600c918401918201528451611f9981600d8401602089016116c2565b67052ac8298aa8aa6560c31b600d92909101918201528351611fc28160158401602088016116c2565b602960f81b6015929091019182015260160195945050505050565b60018060a01b038416815282602082015260606040820152600061200460608301846116e6565b95945050505050565b60008161201c5761201c611a17565b506000190190565b600084516120368184602089016116c2565b8083019050605f60f81b808252855161197e816001850160208a016116c256fea26469706673582212205979261f410359ccff434ba123d605372fc82affd120ab9989f20867ff075f1964736f6c63430008130033",
  "devdoc": {
    "events": {
      "RoleAdminChanged(bytes32,bytes32,bytes32)": {
        "details": "Emitted when `newAdminRole` is set as ``role``'s admin role, replacing `previousAdminRole` `DEFAULT_ADMIN_ROLE` is the starting admin for all roles, despite {RoleAdminChanged} not being emitted signaling this. _Available since v3.1._"
      },
      "RoleGranted(bytes32,address,address)": {
        "details": "Emitted when `account` is granted `role`. `sender` is the account that originated the contract call, an admin role bearer except when using {AccessControl-_setupRole}."
      },
      "RoleRevoked(bytes32,address,address)": {
        "details": "Emitted when `account` is revoked `role`. `sender` is the account that originated the contract call:   - if using `revokeRole`, it is the admin role bearer   - if using `renounceRole`, it is the role bearer (i.e. `account`)"
      }
    },
    "kind": "dev",
    "methods": {
      "attest((bytes32,bytes32,uint64,uint64,uint64,bytes32,address,address,bool,bytes))": {
        "params": {
          "attestation": "The new attestation."
        },
        "returns": {
          "_0": "Whether the attestation is valid."
        }
      },
      "getRoleAdmin(bytes32)": {
        "details": "Returns the admin role that controls `role`. See {grantRole} and {revokeRole}. To change a role's admin, use {_setRoleAdmin}."
      },
      "grantRole(bytes32,address)": {
        "details": "Grants `role` to `account`. If `account` had not been already granted `role`, emits a {RoleGranted} event. Requirements: - the caller must have ``role``'s admin role. May emit a {RoleGranted} event."
      },
      "hasRole(bytes32,address)": {
        "details": "Returns `true` if `account` has been granted `role`."
      },
      "isPayable()": {
        "returns": {
          "_0": "True, indicating that the contract can accept payments."
        }
      },
      "multiAttest((bytes32,bytes32,uint64,uint64,uint64,bytes32,address,address,bool,bytes)[],uint256[])": {
        "params": {
          "attestations": "The new attestations.",
          "values": "Explicit ETH amounts which were sent with each attestation."
        },
        "returns": {
          "_0": "Whether all the attestations are valid."
        }
      },
      "multiRevoke((bytes32,bytes32,uint64,uint64,uint64,bytes32,address,address,bool,bytes)[],uint256[])": {
        "params": {
          "attestations": "The existing attestations to be revoked.",
          "values": "Explicit ETH amounts which were sent with each revocation."
        },
        "returns": {
          "_0": "Whether the attestations can be revoked."
        }
      },
      "renounceRole(bytes32,address)": {
        "details": "Revokes `role` from the calling account. Roles are often managed via {grantRole} and {revokeRole}: this function's purpose is to provide a mechanism for accounts to lose their privileges if they are compromised (such as when a trusted device is misplaced). If the calling account had been revoked `role`, emits a {RoleRevoked} event. Requirements: - the caller must be `account`. May emit a {RoleRevoked} event."
      },
      "revoke((bytes32,bytes32,uint64,uint64,uint64,bytes32,address,address,bool,bytes))": {
        "params": {
          "attestation": "The existing attestation to be revoked."
        },
        "returns": {
          "_0": "Whether the attestation can be revoked."
        }
      },
      "revokeRole(bytes32,address)": {
        "details": "Revokes `role` from `account`. If `account` had been granted `role`, emits a {RoleRevoked} event. Requirements: - the caller must have ``role``'s admin role. May emit a {RoleRevoked} event."
      },
      "supportsInterface(bytes4)": {
        "details": "See {IERC165-supportsInterface}."
      },
      "version()": {
        "returns": {
          "_0": "Semver contract version as a string."
        }
      }
    },
    "title": "ContentSubscriptionResolver",
    "version": 1
  },
  "userdoc": {
    "errors": {
      "ChainNotSupported(uint256)": [
        {
          "notice": "Current chain does not have a TablelandTables deployment."
        }
      ]
    },
    "kind": "user",
    "methods": {
      "attest((bytes32,bytes32,uint64,uint64,uint64,bytes32,address,address,bool,bytes))": {
        "notice": "Processes an attestation and verifies whether it's valid."
      },
      "isPayable()": {
        "notice": "Indicates whether the contract is designed to handle incoming payments."
      },
      "multiAttest((bytes32,bytes32,uint64,uint64,uint64,bytes32,address,address,bool,bytes)[],uint256[])": {
        "notice": "Processes multiple attestations and verifies whether they are valid."
      },
      "multiRevoke((bytes32,bytes32,uint64,uint64,uint64,bytes32,address,address,bool,bytes)[],uint256[])": {
        "notice": "Processes revocation of multiple attestation and verifies they can be revoked."
      },
      "revoke((bytes32,bytes32,uint64,uint64,uint64,bytes32,address,address,bool,bytes))": {
        "notice": "Processes an attestation revocation and verifies if it can be revoked."
      },
      "version()": {
        "notice": "Returns the full semver contract version."
      }
    },
    "notice": "A schema resolver subcription to content example",
    "version": 1
  },
  "storageLayout": {
    "storage": [
      {
        "astId": 24,
        "contract": "contracts/resolver/examples/ACResolver.sol:ACResolver",
        "label": "_roles",
        "offset": 0,
        "slot": "0",
        "type": "t_mapping(t_bytes32,t_struct(RoleData)19_storage)"
      },
      {
        "astId": 8910,
        "contract": "contracts/resolver/examples/ACResolver.sol:ACResolver",
        "label": "schemaRegistry",
        "offset": 0,
        "slot": "1",
        "type": "t_contract(ISchemaRegistry)4698"
      },
      {
        "astId": 8912,
        "contract": "contracts/resolver/examples/ACResolver.sol:ACResolver",
        "label": "splitterFactory",
        "offset": 0,
        "slot": "2",
        "type": "t_address"
      },
      {
        "astId": 8922,
        "contract": "contracts/resolver/examples/ACResolver.sol:ACResolver",
        "label": "schemas",
        "offset": 0,
        "slot": "3",
        "type": "t_mapping(t_bytes32,t_struct(SchemaInfo)8917_storage)"
      },
      {
        "astId": 8925,
        "contract": "contracts/resolver/examples/ACResolver.sol:ACResolver",
        "label": "tablelandContract",
        "offset": 0,
        "slot": "4",
        "type": "t_contract(ITablelandTables)4111"
      },
      {
        "astId": 8928,
        "contract": "contracts/resolver/examples/ACResolver.sol:ACResolver",
        "label": "createTableStatements",
        "offset": 0,
        "slot": "5",
        "type": "t_array(t_string_storage)dyn_storage"
      },
      {
        "astId": 8931,
        "contract": "contracts/resolver/examples/ACResolver.sol:ACResolver",
        "label": "tables",
        "offset": 0,
        "slot": "6",
        "type": "t_array(t_string_storage)dyn_storage"
      },
      {
        "astId": 8934,
        "contract": "contracts/resolver/examples/ACResolver.sol:ACResolver",
        "label": "tableIDs",
        "offset": 0,
        "slot": "7",
        "type": "t_array(t_uint256)dyn_storage"
      },
      {
        "astId": 8936,
        "contract": "contracts/resolver/examples/ACResolver.sol:ACResolver",
        "label": "tablesUpdates",
        "offset": 0,
        "slot": "8",
        "type": "t_uint256"
      },
      {
        "astId": 8938,
        "contract": "contracts/resolver/examples/ACResolver.sol:ACResolver",
        "label": "tablesRowsCounter",
        "offset": 0,
        "slot": "9",
        "type": "t_uint256"
      }
    ],
    "types": {
      "t_address": {
        "encoding": "inplace",
        "label": "address",
        "numberOfBytes": "20"
      },
      "t_array(t_string_storage)dyn_storage": {
        "base": "t_string_storage",
        "encoding": "dynamic_array",
        "label": "string[]",
        "numberOfBytes": "32"
      },
      "t_array(t_uint256)dyn_storage": {
        "base": "t_uint256",
        "encoding": "dynamic_array",
        "label": "uint256[]",
        "numberOfBytes": "32"
      },
      "t_bool": {
        "encoding": "inplace",
        "label": "bool",
        "numberOfBytes": "1"
      },
      "t_bytes32": {
        "encoding": "inplace",
        "label": "bytes32",
        "numberOfBytes": "32"
      },
      "t_contract(ISchemaRegistry)4698": {
        "encoding": "inplace",
        "label": "contract ISchemaRegistry",
        "numberOfBytes": "20"
      },
      "t_contract(ITablelandTables)4111": {
        "encoding": "inplace",
        "label": "contract ITablelandTables",
        "numberOfBytes": "20"
      },
      "t_mapping(t_address,t_bool)": {
        "encoding": "mapping",
        "key": "t_address",
        "label": "mapping(address => bool)",
        "numberOfBytes": "32",
        "value": "t_bool"
      },
      "t_mapping(t_bytes32,t_struct(RoleData)19_storage)": {
        "encoding": "mapping",
        "key": "t_bytes32",
        "label": "mapping(bytes32 => struct AccessControl.RoleData)",
        "numberOfBytes": "32",
        "value": "t_struct(RoleData)19_storage"
      },
      "t_mapping(t_bytes32,t_struct(SchemaInfo)8917_storage)": {
        "encoding": "mapping",
        "key": "t_bytes32",
        "label": "mapping(bytes32 => struct ACResolver.SchemaInfo)",
        "numberOfBytes": "32",
        "value": "t_struct(SchemaInfo)8917_storage"
      },
      "t_string_storage": {
        "encoding": "bytes",
        "label": "string",
        "numberOfBytes": "32"
      },
      "t_struct(RoleData)19_storage": {
        "encoding": "inplace",
        "label": "struct AccessControl.RoleData",
        "members": [
          {
            "astId": 16,
            "contract": "contracts/resolver/examples/ACResolver.sol:ACResolver",
            "label": "members",
            "offset": 0,
            "slot": "0",
            "type": "t_mapping(t_address,t_bool)"
          },
          {
            "astId": 18,
            "contract": "contracts/resolver/examples/ACResolver.sol:ACResolver",
            "label": "adminRole",
            "offset": 0,
            "slot": "1",
            "type": "t_bytes32"
          }
        ],
        "numberOfBytes": "64"
      },
      "t_struct(SchemaInfo)8917_storage": {
        "encoding": "inplace",
        "label": "struct ACResolver.SchemaInfo",
        "members": [
          {
            "astId": 8914,
            "contract": "contracts/resolver/examples/ACResolver.sol:ACResolver",
            "label": "AllowAllToAttest",
            "offset": 0,
            "slot": "0",
            "type": "t_bool"
          },
          {
            "astId": 8916,
            "contract": "contracts/resolver/examples/ACResolver.sol:ACResolver",
            "label": "AllowAllToRevoke",
            "offset": 1,
            "slot": "0",
            "type": "t_bool"
          }
        ],
        "numberOfBytes": "32"
      },
      "t_uint256": {
        "encoding": "inplace",
        "label": "uint256",
        "numberOfBytes": "32"
      }
    }
  }
}