{
  "address": "0x6D586fcDd18dA8F39783daa09551682dF2EB76Cc",
  "abi": [
    {
      "inputs": [
        {
          "internalType": "contract ITAS",
          "name": "tas",
          "type": "address"
        },
        {
          "internalType": "address",
          "name": "_splitterFactory",
          "type": "address"
        },
        {
          "internalType": "contract ISchemaRegistry",
          "name": "_schemaRegistry",
          "type": "address"
        }
      ],
      "stateMutability": "nonpayable",
      "type": "constructor"
    },
    {
      "inputs": [],
      "name": "AccessDenied",
      "type": "error"
    },
    {
      "inputs": [
        {
          "internalType": "uint256",
          "name": "chainid",
          "type": "uint256"
        }
      ],
      "name": "ChainNotSupported",
      "type": "error"
    },
    {
      "inputs": [],
      "name": "InsufficientValue",
      "type": "error"
    },
    {
      "inputs": [],
      "name": "InvalidLength",
      "type": "error"
    },
    {
      "inputs": [],
      "name": "InvalidTAS",
      "type": "error"
    },
    {
      "inputs": [],
      "name": "NotPayable",
      "type": "error"
    },
    {
      "inputs": [
        {
          "components": [
            {
              "internalType": "bytes32",
              "name": "uid",
              "type": "bytes32"
            },
            {
              "internalType": "bytes32",
              "name": "schema",
              "type": "bytes32"
            },
            {
              "internalType": "uint64",
              "name": "time",
              "type": "uint64"
            },
            {
              "internalType": "uint64",
              "name": "expirationTime",
              "type": "uint64"
            },
            {
              "internalType": "uint64",
              "name": "revocationTime",
              "type": "uint64"
            },
            {
              "internalType": "bytes32",
              "name": "refUID",
              "type": "bytes32"
            },
            {
              "internalType": "address",
              "name": "recipient",
              "type": "address"
            },
            {
              "internalType": "address",
              "name": "attester",
              "type": "address"
            },
            {
              "internalType": "bool",
              "name": "revocable",
              "type": "bool"
            },
            {
              "internalType": "bytes",
              "name": "data",
              "type": "bytes"
            }
          ],
          "internalType": "struct Attestation",
          "name": "attestation",
          "type": "tuple"
        }
      ],
      "name": "attest",
      "outputs": [
        {
          "internalType": "bool",
          "name": "",
          "type": "bool"
        }
      ],
      "stateMutability": "payable",
      "type": "function"
    },
    {
      "inputs": [
        {
          "internalType": "bytes32",
          "name": "data",
          "type": "bytes32"
        }
      ],
      "name": "bytes32ToString",
      "outputs": [
        {
          "internalType": "string",
          "name": "",
          "type": "string"
        }
      ],
      "stateMutability": "pure",
      "type": "function"
    },
    {
      "inputs": [
        {
          "internalType": "address",
          "name": "sender",
          "type": "address"
        },
        {
          "internalType": "bytes32",
          "name": "schemaUID",
          "type": "bytes32"
        }
      ],
      "name": "hasAccess",
      "outputs": [
        {
          "internalType": "bool",
          "name": "",
          "type": "bool"
        }
      ],
      "stateMutability": "view",
      "type": "function"
    },
    {
      "inputs": [],
      "name": "isPayable",
      "outputs": [
        {
          "internalType": "bool",
          "name": "",
          "type": "bool"
        }
      ],
      "stateMutability": "pure",
      "type": "function"
    },
    {
      "inputs": [
        {
          "components": [
            {
              "internalType": "bytes32",
              "name": "uid",
              "type": "bytes32"
            },
            {
              "internalType": "bytes32",
              "name": "schema",
              "type": "bytes32"
            },
            {
              "internalType": "uint64",
              "name": "time",
              "type": "uint64"
            },
            {
              "internalType": "uint64",
              "name": "expirationTime",
              "type": "uint64"
            },
            {
              "internalType": "uint64",
              "name": "revocationTime",
              "type": "uint64"
            },
            {
              "internalType": "bytes32",
              "name": "refUID",
              "type": "bytes32"
            },
            {
              "internalType": "address",
              "name": "recipient",
              "type": "address"
            },
            {
              "internalType": "address",
              "name": "attester",
              "type": "address"
            },
            {
              "internalType": "bool",
              "name": "revocable",
              "type": "bool"
            },
            {
              "internalType": "bytes",
              "name": "data",
              "type": "bytes"
            }
          ],
          "internalType": "struct Attestation[]",
          "name": "attestations",
          "type": "tuple[]"
        },
        {
          "internalType": "uint256[]",
          "name": "values",
          "type": "uint256[]"
        }
      ],
      "name": "multiAttest",
      "outputs": [
        {
          "internalType": "bool",
          "name": "",
          "type": "bool"
        }
      ],
      "stateMutability": "payable",
      "type": "function"
    },
    {
      "inputs": [
        {
          "components": [
            {
              "internalType": "bytes32",
              "name": "uid",
              "type": "bytes32"
            },
            {
              "internalType": "bytes32",
              "name": "schema",
              "type": "bytes32"
            },
            {
              "internalType": "uint64",
              "name": "time",
              "type": "uint64"
            },
            {
              "internalType": "uint64",
              "name": "expirationTime",
              "type": "uint64"
            },
            {
              "internalType": "uint64",
              "name": "revocationTime",
              "type": "uint64"
            },
            {
              "internalType": "bytes32",
              "name": "refUID",
              "type": "bytes32"
            },
            {
              "internalType": "address",
              "name": "recipient",
              "type": "address"
            },
            {
              "internalType": "address",
              "name": "attester",
              "type": "address"
            },
            {
              "internalType": "bool",
              "name": "revocable",
              "type": "bool"
            },
            {
              "internalType": "bytes",
              "name": "data",
              "type": "bytes"
            }
          ],
          "internalType": "struct Attestation[]",
          "name": "attestations",
          "type": "tuple[]"
        },
        {
          "internalType": "uint256[]",
          "name": "values",
          "type": "uint256[]"
        }
      ],
      "name": "multiRevoke",
      "outputs": [
        {
          "internalType": "bool",
          "name": "",
          "type": "bool"
        }
      ],
      "stateMutability": "payable",
      "type": "function"
    },
    {
      "inputs": [
        {
          "internalType": "address[]",
          "name": "contentCreators",
          "type": "address[]"
        },
        {
          "internalType": "uint256[]",
          "name": "creatorsShares",
          "type": "uint256[]"
        },
        {
          "internalType": "uint256",
          "name": "monthlySubscriptionPrice",
          "type": "uint256"
        },
        {
          "internalType": "string",
          "name": "schemaName",
          "type": "string"
        },
        {
          "internalType": "string",
          "name": "schemaDescription",
          "type": "string"
        }
      ],
      "name": "registerSubscriptionSchema",
      "outputs": [],
      "stateMutability": "nonpayable",
      "type": "function"
    },
    {
      "inputs": [
        {
          "components": [
            {
              "internalType": "bytes32",
              "name": "uid",
              "type": "bytes32"
            },
            {
              "internalType": "bytes32",
              "name": "schema",
              "type": "bytes32"
            },
            {
              "internalType": "uint64",
              "name": "time",
              "type": "uint64"
            },
            {
              "internalType": "uint64",
              "name": "expirationTime",
              "type": "uint64"
            },
            {
              "internalType": "uint64",
              "name": "revocationTime",
              "type": "uint64"
            },
            {
              "internalType": "bytes32",
              "name": "refUID",
              "type": "bytes32"
            },
            {
              "internalType": "address",
              "name": "recipient",
              "type": "address"
            },
            {
              "internalType": "address",
              "name": "attester",
              "type": "address"
            },
            {
              "internalType": "bool",
              "name": "revocable",
              "type": "bool"
            },
            {
              "internalType": "bytes",
              "name": "data",
              "type": "bytes"
            }
          ],
          "internalType": "struct Attestation",
          "name": "attestation",
          "type": "tuple"
        }
      ],
      "name": "revoke",
      "outputs": [
        {
          "internalType": "bool",
          "name": "",
          "type": "bool"
        }
      ],
      "stateMutability": "payable",
      "type": "function"
    },
    {
      "inputs": [
        {
          "internalType": "bytes32",
          "name": "schemaUID",
          "type": "bytes32"
        }
      ],
      "name": "splitSubscriptions",
      "outputs": [],
      "stateMutability": "nonpayable",
      "type": "function"
    },
    {
      "inputs": [],
      "name": "splitterFactory",
      "outputs": [
        {
          "internalType": "address",
          "name": "",
          "type": "address"
        }
      ],
      "stateMutability": "view",
      "type": "function"
    },
    {
      "inputs": [
        {
          "internalType": "bytes32",
          "name": "schemaUID",
          "type": "bytes32"
        },
        {
          "internalType": "uint256",
          "name": "months",
          "type": "uint256"
        }
      ],
      "name": "subscribe",
      "outputs": [],
      "stateMutability": "payable",
      "type": "function"
    },
    {
      "inputs": [
        {
          "internalType": "uint256",
          "name": "",
          "type": "uint256"
        }
      ],
      "name": "tables",
      "outputs": [
        {
          "internalType": "string",
          "name": "",
          "type": "string"
        }
      ],
      "stateMutability": "view",
      "type": "function"
    },
    {
      "inputs": [
        {
          "internalType": "address",
          "name": "",
          "type": "address"
        },
        {
          "internalType": "bytes32",
          "name": "",
          "type": "bytes32"
        }
      ],
      "name": "userSubscriptions",
      "outputs": [
        {
          "internalType": "uint256",
          "name": "",
          "type": "uint256"
        }
      ],
      "stateMutability": "view",
      "type": "function"
    },
    {
      "inputs": [],
      "name": "version",
      "outputs": [
        {
          "internalType": "string",
          "name": "",
          "type": "string"
        }
      ],
      "stateMutability": "view",
      "type": "function"
    },
    {
      "stateMutability": "payable",
      "type": "receive"
    }
  ],
  "transactionHash": "0x556b5fab6ebab5029a55d96712ae53c897b07fec8fe0d5d2bb77f1760d67c598",
  "args": [
    "0x5E0FFE0950231EfaD5972afce26f1a91F9B7a74b",
    "0x0EA67bE9F10DDfEC17ce67fC802ecE32cf5C4f29",
    "0x38Db6ff229c7d357ed34126fBd7F9200553eb245"
  ],
  "numDeployments": 1,
  "solcInputHash": "49ec6d5a7c331538ab42d44533de0f70",
  "bytecode": "0x62278d00600055610160604052600e6101209081526d1cdd1c9a5b99c81a9cdbdb90d25160921b610140526001906200003990826200098e565b503480156200004757600080fd5b5060405162003895380380620038958339810160408190526200006a9162000a73565b6000608081905260a052600160c052826001600160a01b038116620000a25760405163120d8e6b60e21b815260040160405180910390fd5b6001600160a01b0390811660e05281811661010052600a80546001600160a01b031916918416919091179055620000d8620004d5565b600460006101000a8154816001600160a01b0302191690836001600160a01b031602179055506005620001406040518060800160405280605081526020016200380d60509139604080518082019091526005815264067726f75760dc1b602082015262000698565b815460018101835560009283526020909220909101906200016290826200098e565b506005620001a7604051806060016040528060368152602001620037d76036913960408051808201909152600781526631b932b0ba37b960c91b602082015262000698565b81546001810183556000928352602090922090910190620001c990826200098e565b506005620002136040518060600160405280603881526020016200385d6038913960408051808201909152600c81526b39bab139b1b934b83a34b7b760a11b602082015262000698565b815460018101835560009283526020909220909101906200023590826200098e565b5060056200027a6040518060800160405280604281526020016200379560429139604080518082019091526007815266726576656e756560c81b602082015262000698565b815460018101835560009283526020909220909101906200029c90826200098e565b50600480546040516361a23d0f60e01b81526001600160a01b03909116916361a23d0f91620002d19130916005910162000ac7565b6000604051808303816000875af1158015620002f1573d6000803e3d6000fd5b505050506040513d6000823e601f3d908101601f191682016040526200031b919081019062000baf565b8051620003319160079160209091019062000882565b5060066200038460405180604001604052806005815260200164067726f75760dc1b81525060076000815481106200036d576200036d62000c78565b9060005260206000200154620006d260201b60201c565b81546001810183556000928352602090922090910190620003a690826200098e565b506006620003e46040518060400160405280600781526020016631b932b0ba37b960c91b81525060076001815481106200036d576200036d62000c78565b815460018101835560009283526020909220909101906200040690826200098e565b506006620004496040518060400160405280600c81526020016b39bab139b1b934b83a34b7b760a11b81525060076002815481106200036d576200036d62000c78565b815460018101835560009283526020909220909101906200046b90826200098e565b506006620004a960405180604001604052806007815260200166726576656e756560c81b81525060076003815481106200036d576200036d62000c78565b81546001810183556000928352602090922090910190620004cb90826200098e565b5050505062000d69565b600046600103620004f9575073012969f7e3439a9b04025b5a049eb9bad82a8c1290565b46600a036200051b575073fad44bf5b843de943a09d4f3e84949a11d3aa3e690565b4661a4b1036200053e5750739abd75e8640871a5a20d3b4ee6330a04c962affd90565b4661a4ba03620005615750731a22854c5b1642760a827f20137a67930ae108d290565b46608903620005835750735c4e6a9e5c1e1bf445a062006faf19ea6c49afea90565b4661013a03620005a657507359ef8bf2d6c102b4c42aef9189e1a9f0abfd652d90565b46600503620005c8575073da8ea22d092307874f30a1f277d1388dca0ba97a90565b466101a403620005eb575073c72e8a7be04f2469f8c2db3f1bdf69a7d516abba90565b4662066eed036200060f575073033f69e8d119205089ab15d340f5b797732f646b90565b466201388103620006335750734b48841d4b32c4650e4abc117a03fe8b51f38f6890565b46610c4503620006565750730b9737ab4b3e5303cb67db031b509697e31c02d390565b46617a690362000679575073e7f1725e7734ce288f8367e1bb143e90bb3f051290565b60405163264e42cf60e01b815246600482015260240160405180910390fd5b606081620006a646620006ff565b84604051602001620006bb9392919062000cc0565b604051602081830303815290604052905092915050565b606082620006e046620006ff565b620006eb84620006ff565b604051602001620006bb9392919062000d26565b606060006200070e8362000798565b60010190506000816001600160401b03811115620007305762000730620008e9565b6040519080825280601f01601f1916602001820160405280156200075b576020820181803683370190505b5090508181016020015b600019016f181899199a1a9b1b9c1cb0b131b232b360811b600a86061a8153600a85049450846200076557509392505050565b6000807a184f03e93ff9f4daa797ed6e38ed64bf6a1f0100000000000000008310620007e2577a184f03e93ff9f4daa797ed6e38ed64bf6a1f010000000000000000830492506040015b6d04ee2d6d415b85acef810000000083106200080f576d04ee2d6d415b85acef8100000000830492506020015b662386f26fc1000083106200082e57662386f26fc10000830492506010015b6305f5e100831062000847576305f5e100830492506008015b61271083106200085c57612710830492506004015b606483106200086f576064830492506002015b600a83106200087c576001015b92915050565b828054828255906000526020600020908101928215620008c0579160200282015b82811115620008c0578251825591602001919060010190620008a3565b50620008ce929150620008d2565b5090565b5b80821115620008ce5760008155600101620008d3565b634e487b7160e01b600052604160045260246000fd5b600181811c908216806200091457607f821691505b6020821081036200093557634e487b7160e01b600052602260045260246000fd5b50919050565b601f8211156200098957600081815260208120601f850160051c81016020861015620009645750805b601f850160051c820191505b81811015620009855782815560010162000970565b5050505b505050565b81516001600160401b03811115620009aa57620009aa620008e9565b620009c281620009bb8454620008ff565b846200093b565b602080601f831160018114620009fa5760008415620009e15750858301515b600019600386901b1c1916600185901b17855562000985565b600085815260208120601f198616915b8281101562000a2b5788860151825594840194600190910190840162000a0a565b508582101562000a4a5787850151600019600388901b60f8161c191681555b5050505050600190811b01905550565b6001600160a01b038116811462000a7057600080fd5b50565b60008060006060848603121562000a8957600080fd5b835162000a968162000a5a565b602085015190935062000aa98162000a5a565b604085015190925062000abc8162000a5a565b809150509250925092565b60006040820160018060a01b0385168352602060408185015281855480845260608601915060059350606081851b8701016000888152848120815b8481101562000b9f57605f198a850301865282825462000b2281620008ff565b8087526001828116801562000b40576001811462000b5a5762000b87565b60ff198416898d01528215158d1b89018c01945062000b87565b8688528b8820885b8481101562000b7f5781548b82018f0152908301908d0162000b62565b8a018d019550505b50988a01989296505050919091019060010162000b02565b50919a9950505050505050505050565b6000602080838503121562000bc357600080fd5b82516001600160401b038082111562000bdb57600080fd5b818501915085601f83011262000bf057600080fd5b81518181111562000c055762000c05620008e9565b8060051b604051601f19603f8301168101818110858211171562000c2d5762000c2d620008e9565b60405291825284820192508381018501918883111562000c4c57600080fd5b938501935b8285101562000c6c5784518452938501939285019262000c51565b98975050505050505050565b634e487b7160e01b600052603260045260246000fd5b6000815160005b8181101562000cb1576020818501810151868301520162000c95565b50600093019283525090919050565b6c021a922a0aa22902a20a126229609d1b8152600062000ce4600d83018662000c8e565b605f60f81b815262000cfa600182018662000c8e565b9050600560fb1b815262000d12600182018562000c8e565b602960f81b81526001019695505050505050565b600062000d34828662000c8e565b605f60f81b80825262000d4b600183018762000c8e565b908152905062000d5f600182018562000c8e565b9695505050505050565b60805160a05160c05160e051610100516129e762000dae6000396000610aaa01526000610f8d015260006105530152600061052a0152600061050101526129e76000f3fe6080604052600436106100e15760003560e01c806391db0b7e1161007f578063c6eb196b11610059578063c6eb196b14610261578063ce46e04614610281578063e49617e114610295578063e60c3505146102a857600080fd5b806391db0b7e1461020e5780639201de5514610221578063a2d338861461024157600080fd5b806371671bf2116100bb57806371671bf214610165578063773a6c3b146101855780637d294e62146101cb57806388e5b2d9146101fb57600080fd5b80630778f0ac146100ef57806354fd4d50146101025780635608d9e51461012d57600080fd5b366100ea57005b005b600080fd5b6100e86100fd366004611d28565b6102bb565b34801561010e57600080fd5b506101176104fa565b6040516101249190611d9a565b60405180910390f35b34801561013957600080fd5b50600a5461014d906001600160a01b031681565b6040516001600160a01b039091168152602001610124565b34801561017157600080fd5b50610117610180366004611dad565b61059d565b34801561019157600080fd5b506101bd6101a0366004611ddb565b600360209081526000928352604080842090915290825290205481565b604051908152602001610124565b3480156101d757600080fd5b506101eb6101e6366004611ddb565b610649565b6040519015158152602001610124565b6101eb610209366004611e53565b610676565b6101eb61021c366004611e53565b610745565b34801561022d57600080fd5b5061011761023c366004611dad565b610804565b34801561024d57600080fd5b506100e861025c366004611dad565b6109bd565b34801561026d57600080fd5b506100e861027c366004611f01565b610a90565b34801561028d57600080fd5b5060016101eb565b6101eb6102a3366004611fd1565b610c61565b6101eb6102b6366004611fd1565b610c72565b600081116103105760405162461bcd60e51b815260206004820152601860248201527f6d696e2031206d6f6e746820737562736372697074696f6e000000000000000060448201526064015b60405180910390fd5b600082815260026020819052604090912001543490610330908390612023565b1461036f5760405162461bcd60e51b815260206004820152600f60248201526e496e636f72726563742076616c756560881b6044820152606401610307565b6000828152600260205260409020600501546001600160a01b03166103c45760405162461bcd60e51b815260206004820152600b60248201526a1b9bdb88195e1a5cdd195960aa1b6044820152606401610307565b33600090815260036020908152604080832085845290915281205481549091906103ef908490612023565b90508160000361043257610403428261203a565b9050610410843383610c86565b33600090815260036020908152604080832087845290915290208190556104aa565b4282111561047557610444818361203a565b336000818152600360209081526040808320898452909152902082905590925061047090859084610d61565b6104aa565b61047f428261203a565b905061048c843383610d61565b33600090815260036020908152604080832087845290915290208190555b600084815260026020526040812060030180543492906104cb90849061203a565b9091555050600084815260026020526040902060038101546004909101546104f4918691610e32565b50505050565b60606105257f0000000000000000000000000000000000000000000000000000000000000000610eef565b61054e7f0000000000000000000000000000000000000000000000000000000000000000610eef565b6105777f0000000000000000000000000000000000000000000000000000000000000000610eef565b6040516020016105899392919061204d565b604051602081830303815290604052905090565b600681815481106105ad57600080fd5b9060005260206000200160009150905080546105c8906120a7565b80601f01602080910402602001604051908101604052809291908181526020018280546105f4906120a7565b80156106415780601f1061061657610100808354040283529160200191610641565b820191906000526020600020905b81548152906001019060200180831161062457829003601f168201915b505050505081565b6001600160a01b038216600090815260036020908152604080832084845290915290205442105b92915050565b6000610680610f82565b838281146106a15760405163251f56a160e21b815260040160405180910390fd5b3460005b828110156107355760008686838181106106c1576106c16120e1565b905060200201359050828111156106eb5760405163044044a560e21b815260040160405180910390fd5b610718898984818110610700576107006120e1565b905060200281019061071291906120f7565b50600090565b61072957600094505050505061073d565b909103906001016106a5565b506001925050505b949350505050565b600061074f610f82565b838281146107705760405163251f56a160e21b815260040160405180910390fd5b3460005b82811015610735576000868683818110610790576107906120e1565b905060200201359050828111156107ba5760405163044044a560e21b815260040160405180910390fd5b6107e78989848181106107cf576107cf6120e1565b90506020028101906107e191906120f7565b82610fcd565b6107f857600094505050505061073d565b90910390600101610774565b6060600061081460206002612118565b60ff1667ffffffffffffffff81111561082f5761082f61213b565b6040519080825280601f01601f191660200182016040528015610859576020820181803683370190505b5060408051808201909152601081526f181899199a1a9b1b9c1cb0b131b232b360811b602082015290915060005b6020811015610993578182518683602081106108a5576108a56120e1565b6108b19291901a612167565b815181106108c1576108c16120e1565b01602001516001600160f81b031916836108dc836002612023565b815181106108ec576108ec6120e1565b60200101906001600160f81b031916908160001a905350818251868360208110610918576109186120e1565b6109249291901a61217b565b81518110610934576109346120e1565b01602001516001600160f81b0319168361094f836002612023565b61095a90600161203a565b8151811061096a5761096a6120e1565b60200101906001600160f81b031916908160001a9053508061098b8161218f565b915050610887565b50816040516020016109a591906121a8565b60405160208183030381529060405292505050919050565b600081815260026020526040902060058101546003909101546109e9916001600160a01b03169061101e565b600081815260026020908152604091829020600501548251600481526024810190935290820180516001600160e01b031663e4fc6b6d60e01b179052610a3a916001600160a01b0390911690611137565b50600081815260026020526040812060038101546004909101805491929091610a6490849061203a565b909155505060008181526002602052604081206003810182905560040154610a8d918391610e32565b50565b6040516364ccc13760e01b81526000906001600160a01b037f000000000000000000000000000000000000000000000000000000000000000016906364ccc13790610aec90600190899089908990899030908a90600401612278565b6020604051808303816000875af1158015610b0b573d6000803e3d6000fd5b505050506040513d601f19601f82011682018060405250810190610b2f91906122d8565b90506000600260008381526020019081526020016000209050610bb58b8b8080602002602001604051908101604052809392919081815260200183836020028082843760009201919091525050604080516020808f0282810182019093528e82529093508e92508d91829185019084908082843760009201919091525061118292505050565b6005820180546001600160a01b0319166001600160a01b03929092169190911790556002810187905560005b8a811015610c2d57610c1a8c8c83818110610bfe57610bfe6120e1565b9050602002016020810190610c1391906122f1565b83906111f0565b5080610c258161218f565b915050610be1565b50610c54828c8c8c8c8c8760050160009054906101000a90046001600160a01b0316611205565b5050505050505050505050565b6000610c6b610f82565b6000610670565b6000610c7c610f82565b6106708234610fcd565b610d5c6007600281548110610c9d57610c9d6120e1565b9060005260206000200154610d576040518060400160405280600c81526020016b39bab139b1b934b83a34b7b760a11b8152506007600281548110610ce457610ce46120e1565b906000526020600020015460405180606001604052806029815260200161292d60299139610d19610d148a610804565b6112ec565b610d25610d148a611315565b610d31610d148a610eef565b604051602001610d439392919061230e565b60405160208183030381529060405261132b565b61136a565b505050565b610d5c6007600281548110610d7857610d786120e1565b9060005260206000200154610d576040518060400160405280600c81526020016b39bab139b1b934b83a34b7b760a11b8152506007600281548110610dbf57610dbf6120e1565b9060005260206000200154610dd6610d1487610eef565b604051602001610de69190612340565b604051602081830303815290604052610e01610d1489611315565b610e0d610d148b610804565b604051602001610e1e92919061237b565b6040516020818303038152906040526113d3565b610d5c6007600381548110610e4957610e496120e1565b9060005260206000200154610d576040518060400160405280600c81526020016b39bab139b1b934b83a34b7b760a11b8152506007600381548110610e9057610e906120e1565b9060005260206000200154610ea7610d1488610eef565b610eb3610d1488610eef565b604051602001610ec49291906123db565b604051602081830303815290604052610edf610d148a610804565b604051602001610e1e9190612441565b60606000610efc8361144e565b600101905060008167ffffffffffffffff811115610f1c57610f1c61213b565b6040519080825280601f01601f191660200182016040528015610f46576020820181803683370190505b5090508181016020015b600019016f181899199a1a9b1b9c1cb0b131b232b360811b600a86061a8153600a8504945084610f5057509392505050565b336001600160a01b037f00000000000000000000000000000000000000000000000000000000000000001614610fcb57604051634ca8886760e01b815260040160405180910390fd5b565b600080610fe1610100850160e086016122f1565b602080860135600081815260029092526040909120919250906110049083611526565b61101357600092505050610670565b506001949350505050565b8047101561106e5760405162461bcd60e51b815260206004820152601d60248201527f416464726573733a20696e73756666696369656e742062616c616e63650000006044820152606401610307565b6000826001600160a01b03168260405160006040518083038185875af1925050503d80600081146110bb576040519150601f19603f3d011682016040523d82523d6000602084013e6110c0565b606091505b5050905080610d5c5760405162461bcd60e51b815260206004820152603a60248201527f416464726573733a20756e61626c6520746f2073656e642076616c75652c207260448201527f6563697069656e74206d617920686176652072657665727465640000000000006064820152608401610307565b606061117b838360006040518060400160405280601e81526020017f416464726573733a206c6f772d6c6576656c2063616c6c206661696c65640000815250611548565b9392505050565b600a5460405160009182916111da916001600160a01b0316906111ab9087908790602401612473565b60408051601f198184030181529190526020810180516001600160e01b0316637be12ff160e11b179052611137565b90508080602001905181019061073d91906124f7565b600061117b836001600160a01b038416611623565b600954620186a00361121957611219611672565b6112b86007600081548110611230576112306120e1565b9060005260206000200154610d5760405180604001604052806005815260200164067726f75760dc1b8152506007600081548110611270576112706120e1565b9060005260206000200154604051806060016040528060358152602001612956603591396112a0610d148e610804565b6112ac610d148a610eef565b610d31610d148a611315565b600980549060006112c88361218f565b91905055506112da8787878787611897565b6112e3876119b0565b50505050505050565b6060816040516020016112ff9190612514565b6040516020818303038152906040529050919050565b60606106706001600160a01b0383166014611a50565b606060006113398686611bec565b905080848460405160200161135093929190612542565b604051602081830303815290604052915050949350505050565b60048054604051631bbd786d60e11b81526001600160a01b039091169163377af0da9161139d91309187918791016125ce565b600060405180830381600087803b1580156113b757600080fd5b505af11580156113cb573d6000803e3d6000fd5b505050505050565b606060006113e18686611bec565b6040805160208101909152600081528451919250901561141e578360405160200161140c91906125fe565b60405160208183030381529060405290505b8185826040516020016114339392919061262d565b60405160208183030381529060405292505050949350505050565b60008072184f03e93ff9f4daa797ed6e38ed64bf6a1f0160401b831061148d5772184f03e93ff9f4daa797ed6e38ed64bf6a1f0160401b830492506040015b6d04ee2d6d415b85acef810000000083106114b9576d04ee2d6d415b85acef8100000000830492506020015b662386f26fc1000083106114d757662386f26fc10000830492506010015b6305f5e10083106114ef576305f5e100830492506008015b612710831061150357612710830492506004015b60648310611515576064830492506002015b600a83106106705760010192915050565b6001600160a01b0381166000908152600183016020526040812054151561117b565b6060824710156115a95760405162461bcd60e51b815260206004820152602660248201527f416464726573733a20696e73756666696369656e742062616c616e636520666f6044820152651c8818d85b1b60d21b6064820152608401610307565b600080866001600160a01b031685876040516115c59190612697565b60006040518083038185875af1925050503d8060008114611602576040519150601f19603f3d011682016040523d82523d6000602084013e611607565b606091505b509150915061161887838387611c2a565b979650505050505050565b600081815260018301602052604081205461166a57508154600181810184556000848152602080822090930184905584548482528286019093526040902091909155610670565b506000610670565b600480546040516361a23d0f60e01b81526001600160a01b03909116916361a23d0f916116a4913091600591016126a9565b6000604051808303816000875af11580156116c3573d6000803e3d6000fd5b505050506040513d6000823e601f3d908101601f191682016040526116eb919081019061271f565b80516116ff91600791602090910190611cc8565b50600661174760405180604001604052806005815260200164067726f75760dc1b8152506007600081548110611737576117376120e1565b9060005260206000200154611bec565b815460018101835560009283526020909220909101906117679082612823565b5060066117a16040518060400160405280600781526020016631b932b0ba37b960c91b8152506007600181548110611737576117376120e1565b815460018101835560009283526020909220909101906117c19082612823565b5060066118006040518060400160405280600c81526020016b39bab139b1b934b83a34b7b760a11b8152506007600281548110611737576117376120e1565b815460018101835560009283526020909220909101906118209082612823565b50600661185a60405180604001604052806007815260200166726576656e756560c81b8152506007600381548110611737576117376120e1565b8154600181018355600092835260209092209091019061187a9082612823565b506000600981905560088054916118908361218f565b9190505550565b60005b838110156113cb5761199e60076001815481106118b9576118b96120e1565b9060005260206000200154610d576040518060400160405280600781526020016631b932b0ba37b960c91b81525060076001815481106118fb576118fb6120e1565b90600052602060002001546040518060400160405280601b81526020017f736368656d615549442c2061747465737465722c207368617265730000000000815250611948610d148d610804565b61197a610d148d8d8b818110611960576119606120e1565b905060200201602081019061197591906122f1565b611315565b610d31610d148c8c8c818110611992576119926120e1565b90506020020135610eef565b806119a88161218f565b91505061189a565b6000611a4c60076003815481106119c9576119c96120e1565b9060005260206000200154610d576040518060400160405280600c81526020016b39bab139b1b934b83a34b7b760a11b8152506007600381548110611a1057611a106120e1565b906000526020600020015460405180606001604052806027815260200161298b60279139611a40610d1489610804565b610d25610d1489610eef565b5050565b60606000611a5f836002612023565b611a6a90600261203a565b67ffffffffffffffff811115611a8257611a8261213b565b6040519080825280601f01601f191660200182016040528015611aac576020820181803683370190505b509050600360fc1b81600081518110611ac757611ac76120e1565b60200101906001600160f81b031916908160001a905350600f60fb1b81600181518110611af657611af66120e1565b60200101906001600160f81b031916908160001a9053506000611b1a846002612023565b611b2590600161203a565b90505b6001811115611b9d576f181899199a1a9b1b9c1cb0b131b232b360811b85600f1660108110611b5957611b596120e1565b1a60f81b828281518110611b6f57611b6f6120e1565b60200101906001600160f81b031916908160001a90535060049490941c93611b96816128e3565b9050611b28565b50831561117b5760405162461bcd60e51b815260206004820181905260248201527f537472696e67733a20686578206c656e67746820696e73756666696369656e746044820152606401610307565b606082611bf846610eef565b611c0184610eef565b604051602001611c13939291906128fa565b604051602081830303815290604052905092915050565b60608315611c99578251600003611c92576001600160a01b0385163b611c925760405162461bcd60e51b815260206004820152601d60248201527f416464726573733a2063616c6c20746f206e6f6e2d636f6e74726163740000006044820152606401610307565b508161073d565b61073d8383815115611cae5781518083602001fd5b8060405162461bcd60e51b81526004016103079190611d9a565b828054828255906000526020600020908101928215611d03579160200282015b82811115611d03578251825591602001919060010190611ce8565b50611d0f929150611d13565b5090565b5b80821115611d0f5760008155600101611d14565b60008060408385031215611d3b57600080fd5b50508035926020909101359150565b60005b83811015611d65578181015183820152602001611d4d565b50506000910152565b60008151808452611d86816020860160208601611d4a565b601f01601f19169290920160200192915050565b60208152600061117b6020830184611d6e565b600060208284031215611dbf57600080fd5b5035919050565b6001600160a01b0381168114610a8d57600080fd5b60008060408385031215611dee57600080fd5b8235611df981611dc6565b946020939093013593505050565b60008083601f840112611e1957600080fd5b50813567ffffffffffffffff811115611e3157600080fd5b6020830191508360208260051b8501011115611e4c57600080fd5b9250929050565b60008060008060408587031215611e6957600080fd5b843567ffffffffffffffff80821115611e8157600080fd5b611e8d88838901611e07565b90965094506020870135915080821115611ea657600080fd5b50611eb387828801611e07565b95989497509550505050565b60008083601f840112611ed157600080fd5b50813567ffffffffffffffff811115611ee957600080fd5b602083019150836020828501011115611e4c57600080fd5b600080600080600080600080600060a08a8c031215611f1f57600080fd5b893567ffffffffffffffff80821115611f3757600080fd5b611f438d838e01611e07565b909b50995060208c0135915080821115611f5c57600080fd5b611f688d838e01611e07565b909950975060408c0135965060608c0135915080821115611f8857600080fd5b611f948d838e01611ebf565b909650945060808c0135915080821115611fad57600080fd5b50611fba8c828d01611ebf565b915080935050809150509295985092959850929598565b600060208284031215611fe357600080fd5b813567ffffffffffffffff811115611ffa57600080fd5b8201610140818503121561117b57600080fd5b634e487b7160e01b600052601160045260246000fd5b80820281158282048414176106705761067061200d565b808201808211156106705761067061200d565b6000845161205f818460208901611d4a565b8083019050601760f91b808252855161207f816001850160208a01611d4a565b6001920191820152835161209a816002840160208801611d4a565b0160020195945050505050565b600181811c908216806120bb57607f821691505b6020821081036120db57634e487b7160e01b600052602260045260246000fd5b50919050565b634e487b7160e01b600052603260045260246000fd5b6000823561013e1983360301811261210e57600080fd5b9190910192915050565b60ff81811683821602908116908181146121345761213461200d565b5092915050565b634e487b7160e01b600052604160045260246000fd5b634e487b7160e01b600052601260045260246000fd5b60008261217657612176612151565b500490565b60008261218a5761218a612151565b500690565b6000600182016121a1576121a161200d565b5060010190565b61060f60f31b8152600082516121c5816002850160208701611d4a565b9190910160020192915050565b600081546121df816120a7565b8085526020600183811680156121fc576001811461221657612244565b60ff1985168884015283151560051b880183019550612244565b866000528260002060005b8581101561223c5781548a8201860152908301908401612221565b890184019650505b505050505092915050565b81835281816020850137506000828201602090810191909152601f909101601f19169091010190565b60a08152600061228b60a083018a6121d2565b828103602084015261229e81898b61224f565b905082810360408401526122b381878961224f565b6001600160a01b03959095166060840152505090151560809091015295945050505050565b6000602082840312156122ea57600080fd5b5051919050565b60006020828403121561230357600080fd5b813561117b81611dc6565b60008451612320818460208901611d4a565b8083019050600b60fa1b808252855161207f816001850160208a01611d4a565b72737562736372697074696f6e456e647341743d60681b81526000825161236e816013850160208701611d4a565b9190910160130192915050565b6a737562736372696265723d60a81b8152600083516123a181600b850160208801611d4a565b6d616e6420736368656d615549443d60901b600b9184019182015283516123cf816019840160208801611d4a565b01601901949350505050565b6e746f74616c556e636c61696d65643d60881b81526000835161240581600f850160208801611d4a565b6f202c20746f74616c436c61696d65643d60801b600f91840191820152835161243581601f840160208801611d4a565b01601f01949350505050565b69736368656d615549443d60b01b81526000825161246681600a850160208701611d4a565b91909101600a0192915050565b604080825283519082018190526000906020906060840190828701845b828110156124b55781516001600160a01b031684529284019290840190600101612490565b5050508381038285015284518082528583019183019060005b818110156124ea578351835292840192918401916001016124ce565b5090979650505050505050565b60006020828403121561250957600080fd5b815161117b81611dc6565b6000602760f81b8083528351612531816001860160208801611d4a565b600193019283015250600201919050565b6b024a729a2a92a1024a72a27960a51b81526000845161256981600c850160208901611d4a565b600560fb1b600c91840191820152845161258a81600d840160208901611d4a565b67052ac8298aa8aa6560c31b600d929091019182015283516125b3816015840160208801611d4a565b602960f81b6015929091019182015260160195945050505050565b60018060a01b03841681528260208201526060604082015260006125f56060830184611d6e565b95945050505050565b660102ba422a922960cd1b815260008251612620816007850160208701611d4a565b9190910160070192915050565b6602aa82220aa22960cd1b81526000845161264f816007850160208901611d4a565b6401029a2aa160dd1b600791840191820152845161267481600c840160208901611d4a565b845191019061268a81600c840160208801611d4a565b01600c0195945050505050565b6000825161210e818460208701611d4a565b60006040820160018060a01b0385168352602060408185015281855480845260608601915060608160051b8701019350866000528260002060005b8281101561271157878603605f190184526126ff86836121d2565b955092840192600191820191016126e4565b509398975050505050505050565b6000602080838503121561273257600080fd5b825167ffffffffffffffff8082111561274a57600080fd5b818501915085601f83011261275e57600080fd5b8151818111156127705761277061213b565b8060051b604051601f19603f830116810181811085821117156127955761279561213b565b6040529182528482019250838101850191888311156127b357600080fd5b938501935b828510156127d1578451845293850193928501926127b8565b98975050505050505050565b601f821115610d5c57600081815260208120601f850160051c810160208610156128045750805b601f850160051c820191505b818110156113cb57828155600101612810565b815167ffffffffffffffff81111561283d5761283d61213b565b6128518161284b84546120a7565b846127dd565b602080601f831160018114612886576000841561286e5750858301515b600019600386901b1c1916600185901b1785556113cb565b600085815260208120601f198616915b828110156128b557888601518255948401946001909101908401612896565b50858210156128d35787850151600019600388901b60f8161c191681555b5050505050600190811b01905550565b6000816128f2576128f261200d565b506000190190565b6000845161290c818460208901611d4a565b8083019050605f60f81b808252855161207f816001850160208a01611d4a56fe736368656d615549442c20737562736372696265722c20737562736372697074696f6e456e64734174736368656d615549442c206d6f6e74686c79537562736372697074696f6e50726963652c2073706c6974746572436f6e7472616374736368656d615549442c20746f74616c556e636c61696d65642c20746f74616c436c61696d6564a26469706673582212203085c03e5a14c881395c8070c57b9d6603192f6820a45eb8cf8caac2463665bb64736f6c63430008130033736368656d615549442074657874207072696d617279206b65792c20746f74616c556e636c61696d656420746578742c20746f74616c436c61696d65642074657874736368656d615549442074657874207072696d617279206b65792c20617474657374657220746578742c207368617265732074657874736368656d615549442074657874207072696d617279206b65792c206d6f6e74686c79537562736372697074696f6e507269636520746578742c2073706c6974746572436f6e74726163742074657874736368656d6155494420746578742c207375627363726962657220746578742c20737562736372697074696f6e456e647341742074657874",
  "devdoc": {
    "kind": "dev",
    "methods": {
      "attest((bytes32,bytes32,uint64,uint64,uint64,bytes32,address,address,bool,bytes))": {
        "params": {
          "attestation": "The new attestation."
        },
        "returns": {
          "_0": "Whether the attestation is valid."
        }
      },
      "isPayable()": {
        "returns": {
          "_0": "True, indicating that the contract can accept payments."
        }
      },
      "multiAttest((bytes32,bytes32,uint64,uint64,uint64,bytes32,address,address,bool,bytes)[],uint256[])": {
        "params": {
          "attestations": "The new attestations.",
          "values": "Explicit ETH amounts which were sent with each attestation."
        },
        "returns": {
          "_0": "Whether all the attestations are valid."
        }
      },
      "multiRevoke((bytes32,bytes32,uint64,uint64,uint64,bytes32,address,address,bool,bytes)[],uint256[])": {
        "params": {
          "attestations": "The existing attestations to be revoked.",
          "values": "Explicit ETH amounts which were sent with each revocation."
        },
        "returns": {
          "_0": "Whether the attestations can be revoked."
        }
      },
      "revoke((bytes32,bytes32,uint64,uint64,uint64,bytes32,address,address,bool,bytes))": {
        "params": {
          "attestation": "The existing attestation to be revoked."
        },
        "returns": {
          "_0": "Whether the attestation can be revoked."
        }
      },
      "splitSubscriptions(bytes32)": {
        "details": "Distributes minting funds among attesters using a splitter contract. This function calculates the distribution of funds based on attestation counts and shares, deploys a splitter contract, and sends the funds to it for distribution."
      },
      "subscribe(bytes32,uint256)": {
        "details": "Mint tokens for encrypted attestations.",
        "params": {
          "schemaUID": "The UID of the schema for which tokens are being minted."
        }
      },
      "version()": {
        "returns": {
          "_0": "Semver contract version as a string."
        }
      }
    },
    "title": "ContentSubscriptionResolver",
    "version": 1
  },
  "userdoc": {
    "errors": {
      "ChainNotSupported(uint256)": [
        {
          "notice": "Current chain does not have a TablelandTables deployment."
        }
      ]
    },
    "kind": "user",
    "methods": {
      "attest((bytes32,bytes32,uint64,uint64,uint64,bytes32,address,address,bool,bytes))": {
        "notice": "Processes an attestation and verifies whether it's valid."
      },
      "isPayable()": {
        "notice": "Indicates whether the contract is designed to handle incoming payments."
      },
      "multiAttest((bytes32,bytes32,uint64,uint64,uint64,bytes32,address,address,bool,bytes)[],uint256[])": {
        "notice": "Processes multiple attestations and verifies whether they are valid."
      },
      "multiRevoke((bytes32,bytes32,uint64,uint64,uint64,bytes32,address,address,bool,bytes)[],uint256[])": {
        "notice": "Processes revocation of multiple attestation and verifies they can be revoked."
      },
      "revoke((bytes32,bytes32,uint64,uint64,uint64,bytes32,address,address,bool,bytes))": {
        "notice": "Processes an attestation revocation and verifies if it can be revoked."
      },
      "version()": {
        "notice": "Returns the full semver contract version."
      }
    },
    "notice": "A schema resolver subcription to content example",
    "version": 1
  },
  "storageLayout": {
    "storage": [
      {
        "astId": 9551,
        "contract": "contracts/resolver/examples/ContentSubscriptionResolver.sol:ContentSubscriptionResolver",
        "label": "ONE_MONTH",
        "offset": 0,
        "slot": "0",
        "type": "t_uint256"
      },
      {
        "astId": 9566,
        "contract": "contracts/resolver/examples/ContentSubscriptionResolver.sol:ContentSubscriptionResolver",
        "label": "schema",
        "offset": 0,
        "slot": "1",
        "type": "t_string_storage"
      },
      {
        "astId": 9571,
        "contract": "contracts/resolver/examples/ContentSubscriptionResolver.sol:ContentSubscriptionResolver",
        "label": "schemas",
        "offset": 0,
        "slot": "2",
        "type": "t_mapping(t_bytes32,t_struct(SchemaInfo)9563_storage)"
      },
      {
        "astId": 9577,
        "contract": "contracts/resolver/examples/ContentSubscriptionResolver.sol:ContentSubscriptionResolver",
        "label": "userSubscriptions",
        "offset": 0,
        "slot": "3",
        "type": "t_mapping(t_address,t_mapping(t_bytes32,t_uint256))"
      },
      {
        "astId": 9583,
        "contract": "contracts/resolver/examples/ContentSubscriptionResolver.sol:ContentSubscriptionResolver",
        "label": "tablelandContract",
        "offset": 0,
        "slot": "4",
        "type": "t_contract(ITablelandTables)4111"
      },
      {
        "astId": 9586,
        "contract": "contracts/resolver/examples/ContentSubscriptionResolver.sol:ContentSubscriptionResolver",
        "label": "createTableStatements",
        "offset": 0,
        "slot": "5",
        "type": "t_array(t_string_storage)dyn_storage"
      },
      {
        "astId": 9589,
        "contract": "contracts/resolver/examples/ContentSubscriptionResolver.sol:ContentSubscriptionResolver",
        "label": "tables",
        "offset": 0,
        "slot": "6",
        "type": "t_array(t_string_storage)dyn_storage"
      },
      {
        "astId": 9592,
        "contract": "contracts/resolver/examples/ContentSubscriptionResolver.sol:ContentSubscriptionResolver",
        "label": "tableIDs",
        "offset": 0,
        "slot": "7",
        "type": "t_array(t_uint256)dyn_storage"
      },
      {
        "astId": 9594,
        "contract": "contracts/resolver/examples/ContentSubscriptionResolver.sol:ContentSubscriptionResolver",
        "label": "tablesUpdates",
        "offset": 0,
        "slot": "8",
        "type": "t_uint256"
      },
      {
        "astId": 9596,
        "contract": "contracts/resolver/examples/ContentSubscriptionResolver.sol:ContentSubscriptionResolver",
        "label": "tablesRowsCounter",
        "offset": 0,
        "slot": "9",
        "type": "t_uint256"
      },
      {
        "astId": 9622,
        "contract": "contracts/resolver/examples/ContentSubscriptionResolver.sol:ContentSubscriptionResolver",
        "label": "splitterFactory",
        "offset": 0,
        "slot": "10",
        "type": "t_address"
      }
    ],
    "types": {
      "t_address": {
        "encoding": "inplace",
        "label": "address",
        "numberOfBytes": "20"
      },
      "t_array(t_bytes32)dyn_storage": {
        "base": "t_bytes32",
        "encoding": "dynamic_array",
        "label": "bytes32[]",
        "numberOfBytes": "32"
      },
      "t_array(t_string_storage)dyn_storage": {
        "base": "t_string_storage",
        "encoding": "dynamic_array",
        "label": "string[]",
        "numberOfBytes": "32"
      },
      "t_array(t_uint256)dyn_storage": {
        "base": "t_uint256",
        "encoding": "dynamic_array",
        "label": "uint256[]",
        "numberOfBytes": "32"
      },
      "t_bytes32": {
        "encoding": "inplace",
        "label": "bytes32",
        "numberOfBytes": "32"
      },
      "t_contract(ITablelandTables)4111": {
        "encoding": "inplace",
        "label": "contract ITablelandTables",
        "numberOfBytes": "20"
      },
      "t_mapping(t_address,t_mapping(t_bytes32,t_uint256))": {
        "encoding": "mapping",
        "key": "t_address",
        "label": "mapping(address => mapping(bytes32 => uint256))",
        "numberOfBytes": "32",
        "value": "t_mapping(t_bytes32,t_uint256)"
      },
      "t_mapping(t_bytes32,t_struct(SchemaInfo)9563_storage)": {
        "encoding": "mapping",
        "key": "t_bytes32",
        "label": "mapping(bytes32 => struct ContentSubscriptionResolver.SchemaInfo)",
        "numberOfBytes": "32",
        "value": "t_struct(SchemaInfo)9563_storage"
      },
      "t_mapping(t_bytes32,t_uint256)": {
        "encoding": "mapping",
        "key": "t_bytes32",
        "label": "mapping(bytes32 => uint256)",
        "numberOfBytes": "32",
        "value": "t_uint256"
      },
      "t_string_storage": {
        "encoding": "bytes",
        "label": "string",
        "numberOfBytes": "32"
      },
      "t_struct(AddressSet)3666_storage": {
        "encoding": "inplace",
        "label": "struct EnumerableSet.AddressSet",
        "members": [
          {
            "astId": 3665,
            "contract": "contracts/resolver/examples/ContentSubscriptionResolver.sol:ContentSubscriptionResolver",
            "label": "_inner",
            "offset": 0,
            "slot": "0",
            "type": "t_struct(Set)3351_storage"
          }
        ],
        "numberOfBytes": "64"
      },
      "t_struct(SchemaInfo)9563_storage": {
        "encoding": "inplace",
        "label": "struct ContentSubscriptionResolver.SchemaInfo",
        "members": [
          {
            "astId": 9554,
            "contract": "contracts/resolver/examples/ContentSubscriptionResolver.sol:ContentSubscriptionResolver",
            "label": "contentCreators",
            "offset": 0,
            "slot": "0",
            "type": "t_struct(AddressSet)3666_storage"
          },
          {
            "astId": 9556,
            "contract": "contracts/resolver/examples/ContentSubscriptionResolver.sol:ContentSubscriptionResolver",
            "label": "subscriptionPrice",
            "offset": 0,
            "slot": "2",
            "type": "t_uint256"
          },
          {
            "astId": 9558,
            "contract": "contracts/resolver/examples/ContentSubscriptionResolver.sol:ContentSubscriptionResolver",
            "label": "subscriptionsPool",
            "offset": 0,
            "slot": "3",
            "type": "t_uint256"
          },
          {
            "astId": 9560,
            "contract": "contracts/resolver/examples/ContentSubscriptionResolver.sol:ContentSubscriptionResolver",
            "label": "totalRevenue",
            "offset": 0,
            "slot": "4",
            "type": "t_uint256"
          },
          {
            "astId": 9562,
            "contract": "contracts/resolver/examples/ContentSubscriptionResolver.sol:ContentSubscriptionResolver",
            "label": "splitterContract",
            "offset": 0,
            "slot": "5",
            "type": "t_address"
          }
        ],
        "numberOfBytes": "192"
      },
      "t_struct(Set)3351_storage": {
        "encoding": "inplace",
        "label": "struct EnumerableSet.Set",
        "members": [
          {
            "astId": 3346,
            "contract": "contracts/resolver/examples/ContentSubscriptionResolver.sol:ContentSubscriptionResolver",
            "label": "_values",
            "offset": 0,
            "slot": "0",
            "type": "t_array(t_bytes32)dyn_storage"
          },
          {
            "astId": 3350,
            "contract": "contracts/resolver/examples/ContentSubscriptionResolver.sol:ContentSubscriptionResolver",
            "label": "_indexes",
            "offset": 0,
            "slot": "1",
            "type": "t_mapping(t_bytes32,t_uint256)"
          }
        ],
        "numberOfBytes": "64"
      },
      "t_uint256": {
        "encoding": "inplace",
        "label": "uint256",
        "numberOfBytes": "32"
      }
    }
  }
}