{
  "address": "0xa5575A144fb6C7455CB776CE3b8e5F00A4a797d8",
  "abi": [
    {
      "inputs": [
        {
          "internalType": "contract ITAS",
          "name": "tas",
          "type": "address"
        },
        {
          "internalType": "address",
          "name": "_splitterFactory",
          "type": "address"
        },
        {
          "internalType": "contract ISchemaRegistry",
          "name": "_schemaRegistry",
          "type": "address"
        },
        {
          "internalType": "contract ITablelandSubscriptionsIndexer",
          "name": "_tableland",
          "type": "address"
        }
      ],
      "stateMutability": "nonpayable",
      "type": "constructor"
    },
    {
      "inputs": [],
      "name": "AccessDenied",
      "type": "error"
    },
    {
      "inputs": [],
      "name": "InsufficientValue",
      "type": "error"
    },
    {
      "inputs": [],
      "name": "InvalidLength",
      "type": "error"
    },
    {
      "inputs": [],
      "name": "InvalidTAS",
      "type": "error"
    },
    {
      "inputs": [],
      "name": "NotPayable",
      "type": "error"
    },
    {
      "inputs": [
        {
          "components": [
            {
              "internalType": "bytes32",
              "name": "uid",
              "type": "bytes32"
            },
            {
              "internalType": "bytes32",
              "name": "schema",
              "type": "bytes32"
            },
            {
              "internalType": "uint64",
              "name": "time",
              "type": "uint64"
            },
            {
              "internalType": "uint64",
              "name": "expirationTime",
              "type": "uint64"
            },
            {
              "internalType": "uint64",
              "name": "revocationTime",
              "type": "uint64"
            },
            {
              "internalType": "bytes32",
              "name": "refUID",
              "type": "bytes32"
            },
            {
              "internalType": "address",
              "name": "recipient",
              "type": "address"
            },
            {
              "internalType": "address",
              "name": "attester",
              "type": "address"
            },
            {
              "internalType": "bool",
              "name": "revocable",
              "type": "bool"
            },
            {
              "internalType": "bytes",
              "name": "data",
              "type": "bytes"
            }
          ],
          "internalType": "struct Attestation",
          "name": "attestation",
          "type": "tuple"
        }
      ],
      "name": "attest",
      "outputs": [
        {
          "internalType": "bool",
          "name": "",
          "type": "bool"
        }
      ],
      "stateMutability": "payable",
      "type": "function"
    },
    {
      "inputs": [
        {
          "internalType": "bytes32",
          "name": "data",
          "type": "bytes32"
        }
      ],
      "name": "bytes32ToString",
      "outputs": [
        {
          "internalType": "string",
          "name": "",
          "type": "string"
        }
      ],
      "stateMutability": "pure",
      "type": "function"
    },
    {
      "inputs": [
        {
          "internalType": "address",
          "name": "sender",
          "type": "address"
        },
        {
          "internalType": "bytes32",
          "name": "schemaUID",
          "type": "bytes32"
        }
      ],
      "name": "hasAccess",
      "outputs": [
        {
          "internalType": "uint256",
          "name": "",
          "type": "uint256"
        }
      ],
      "stateMutability": "view",
      "type": "function"
    },
    {
      "inputs": [],
      "name": "isPayable",
      "outputs": [
        {
          "internalType": "bool",
          "name": "",
          "type": "bool"
        }
      ],
      "stateMutability": "pure",
      "type": "function"
    },
    {
      "inputs": [
        {
          "components": [
            {
              "internalType": "bytes32",
              "name": "uid",
              "type": "bytes32"
            },
            {
              "internalType": "bytes32",
              "name": "schema",
              "type": "bytes32"
            },
            {
              "internalType": "uint64",
              "name": "time",
              "type": "uint64"
            },
            {
              "internalType": "uint64",
              "name": "expirationTime",
              "type": "uint64"
            },
            {
              "internalType": "uint64",
              "name": "revocationTime",
              "type": "uint64"
            },
            {
              "internalType": "bytes32",
              "name": "refUID",
              "type": "bytes32"
            },
            {
              "internalType": "address",
              "name": "recipient",
              "type": "address"
            },
            {
              "internalType": "address",
              "name": "attester",
              "type": "address"
            },
            {
              "internalType": "bool",
              "name": "revocable",
              "type": "bool"
            },
            {
              "internalType": "bytes",
              "name": "data",
              "type": "bytes"
            }
          ],
          "internalType": "struct Attestation[]",
          "name": "attestations",
          "type": "tuple[]"
        },
        {
          "internalType": "uint256[]",
          "name": "values",
          "type": "uint256[]"
        }
      ],
      "name": "multiAttest",
      "outputs": [
        {
          "internalType": "bool",
          "name": "",
          "type": "bool"
        }
      ],
      "stateMutability": "payable",
      "type": "function"
    },
    {
      "inputs": [
        {
          "components": [
            {
              "internalType": "bytes32",
              "name": "uid",
              "type": "bytes32"
            },
            {
              "internalType": "bytes32",
              "name": "schema",
              "type": "bytes32"
            },
            {
              "internalType": "uint64",
              "name": "time",
              "type": "uint64"
            },
            {
              "internalType": "uint64",
              "name": "expirationTime",
              "type": "uint64"
            },
            {
              "internalType": "uint64",
              "name": "revocationTime",
              "type": "uint64"
            },
            {
              "internalType": "bytes32",
              "name": "refUID",
              "type": "bytes32"
            },
            {
              "internalType": "address",
              "name": "recipient",
              "type": "address"
            },
            {
              "internalType": "address",
              "name": "attester",
              "type": "address"
            },
            {
              "internalType": "bool",
              "name": "revocable",
              "type": "bool"
            },
            {
              "internalType": "bytes",
              "name": "data",
              "type": "bytes"
            }
          ],
          "internalType": "struct Attestation[]",
          "name": "attestations",
          "type": "tuple[]"
        },
        {
          "internalType": "uint256[]",
          "name": "values",
          "type": "uint256[]"
        }
      ],
      "name": "multiRevoke",
      "outputs": [
        {
          "internalType": "bool",
          "name": "",
          "type": "bool"
        }
      ],
      "stateMutability": "payable",
      "type": "function"
    },
    {
      "inputs": [
        {
          "internalType": "address[]",
          "name": "contentCreators",
          "type": "address[]"
        },
        {
          "internalType": "uint256[]",
          "name": "creatorsShares",
          "type": "uint256[]"
        },
        {
          "internalType": "uint256",
          "name": "monthlySubscriptionPrice",
          "type": "uint256"
        },
        {
          "internalType": "string",
          "name": "schemaName",
          "type": "string"
        },
        {
          "internalType": "string",
          "name": "schemaDescription",
          "type": "string"
        }
      ],
      "name": "registerSubscriptionSchema",
      "outputs": [],
      "stateMutability": "nonpayable",
      "type": "function"
    },
    {
      "inputs": [
        {
          "components": [
            {
              "internalType": "bytes32",
              "name": "uid",
              "type": "bytes32"
            },
            {
              "internalType": "bytes32",
              "name": "schema",
              "type": "bytes32"
            },
            {
              "internalType": "uint64",
              "name": "time",
              "type": "uint64"
            },
            {
              "internalType": "uint64",
              "name": "expirationTime",
              "type": "uint64"
            },
            {
              "internalType": "uint64",
              "name": "revocationTime",
              "type": "uint64"
            },
            {
              "internalType": "bytes32",
              "name": "refUID",
              "type": "bytes32"
            },
            {
              "internalType": "address",
              "name": "recipient",
              "type": "address"
            },
            {
              "internalType": "address",
              "name": "attester",
              "type": "address"
            },
            {
              "internalType": "bool",
              "name": "revocable",
              "type": "bool"
            },
            {
              "internalType": "bytes",
              "name": "data",
              "type": "bytes"
            }
          ],
          "internalType": "struct Attestation",
          "name": "attestation",
          "type": "tuple"
        }
      ],
      "name": "revoke",
      "outputs": [
        {
          "internalType": "bool",
          "name": "",
          "type": "bool"
        }
      ],
      "stateMutability": "payable",
      "type": "function"
    },
    {
      "inputs": [],
      "name": "splitterFactory",
      "outputs": [
        {
          "internalType": "address",
          "name": "",
          "type": "address"
        }
      ],
      "stateMutability": "view",
      "type": "function"
    },
    {
      "inputs": [
        {
          "internalType": "bytes32",
          "name": "schemaUID",
          "type": "bytes32"
        },
        {
          "internalType": "uint256",
          "name": "months",
          "type": "uint256"
        }
      ],
      "name": "subscribe",
      "outputs": [],
      "stateMutability": "payable",
      "type": "function"
    },
    {
      "inputs": [
        {
          "internalType": "address",
          "name": "",
          "type": "address"
        },
        {
          "internalType": "bytes32",
          "name": "",
          "type": "bytes32"
        }
      ],
      "name": "userSubscriptions",
      "outputs": [
        {
          "internalType": "uint256",
          "name": "",
          "type": "uint256"
        }
      ],
      "stateMutability": "view",
      "type": "function"
    },
    {
      "inputs": [],
      "name": "version",
      "outputs": [
        {
          "internalType": "string",
          "name": "",
          "type": "string"
        }
      ],
      "stateMutability": "view",
      "type": "function"
    },
    {
      "stateMutability": "payable",
      "type": "receive"
    }
  ],
  "transactionHash": "0x9f9888830ebd7abedcd364c961f5e4ffbc150e4e73e6c561281332e8051d2bac",
  "args": [
    "0x39F4484D73C169690311e0cA6743Fc41266ff610",
    "0x4dd3AE0c4A032fc36206Ec8B71d19581c0478d86",
    "0xe9eF4381f0c61491E502e721bD1AE6b40d43Dfd3",
    "0x14868A496a775e1D83E135a06310EC3a277572DC"
  ],
  "numDeployments": 1,
  "solcInputHash": "53e9c95838ef4fc431170f19d48664b6",
  "bytecode": "0x62278d00600055610140604052600e6101009081526d1cdd1c9a5b99c81a9cdbdb90d25160921b61012052600190620000399082620001a0565b503480156200004757600080fd5b50604051620024e0380380620024e08339810160408190526200006a9162000285565b6000608081905260a052600160c052836001600160a01b038116620000a25760405163120d8e6b60e21b815260040160405180910390fd5b6001600160a01b0390811660e052600580546001600160a01b03199081163017909155600480549483169482169490941790935560078054948216948416949094179093556006805491909316911617905550620002ed565b634e487b7160e01b600052604160045260246000fd5b600181811c908216806200012657607f821691505b6020821081036200014757634e487b7160e01b600052602260045260246000fd5b50919050565b601f8211156200019b57600081815260208120601f850160051c81016020861015620001765750805b601f850160051c820191505b81811015620001975782815560010162000182565b5050505b505050565b81516001600160401b03811115620001bc57620001bc620000fb565b620001d481620001cd845462000111565b846200014d565b602080601f8311600181146200020c5760008415620001f35750858301515b600019600386901b1c1916600185901b17855562000197565b600085815260208120601f198616915b828110156200023d578886015182559484019460019091019084016200021c565b50858210156200025c5787850151600019600388901b60f8161c191681555b5050505050600190811b01905550565b6001600160a01b03811681146200028257600080fd5b50565b600080600080608085870312156200029c57600080fd5b8451620002a9816200026c565b6020860151909450620002bc816200026c565b6040860151909350620002cf816200026c565b6060860151909250620002e2816200026c565b939692955090935050565b60805160a05160c05160e0516121b962000327600039600061129f0152600061085e015260006108350152600061080c01526121b96000f3fe6080604052600436106100cb5760003560e01c806391db0b7e11610074578063ce46e0461161004e578063ce46e04614610245578063e49617e114610259578063e60c35051461026c57600080fd5b806391db0b7e146101f25780639201de5514610205578063c6eb196b1461022557600080fd5b8063773a6c3b116100a5578063773a6c3b146101695780637d294e62146101af57806388e5b2d9146101cf57600080fd5b80630778f0ac146100d957806354fd4d50146100ec5780635608d9e51461011757600080fd5b366100d457005b005b600080fd5b6100d26100e7366004611822565b61027f565b3480156100f857600080fd5b50610101610805565b60405161010e91906118b2565b60405180910390f35b34801561012357600080fd5b506007546101449073ffffffffffffffffffffffffffffffffffffffff1681565b60405173ffffffffffffffffffffffffffffffffffffffff909116815260200161010e565b34801561017557600080fd5b506101a16101843660046118ea565b600360209081526000928352604080842090915290825290205481565b60405190815260200161010e565b3480156101bb57600080fd5b506101a16101ca3660046118ea565b6108a8565b6101e26101dd366004611962565b610913565b604051901515815260200161010e565b6101e2610200366004611962565b610a14565b34801561021157600080fd5b506101016102203660046119ce565b610b05565b34801561023157600080fd5b506100d2610240366004611b82565b610d2b565b34801561025157600080fd5b5060016101e2565b6101e2610267366004611c97565b610fcb565b6101e261027a366004611c97565b610fdc565b600081116102ee576040517f08c379a000000000000000000000000000000000000000000000000000000000815260206004820152601860248201527f6d696e2031206d6f6e746820737562736372697074696f6e000000000000000060448201526064015b60405180910390fd5b600082815260026020526040902060030154349061030d908390611d02565b14610374576040517f08c379a000000000000000000000000000000000000000000000000000000000815260206004820152600f60248201527f496e636f72726563742076616c7565000000000000000000000000000000000060448201526064016102e5565b60008281526002602052604090206006015473ffffffffffffffffffffffffffffffffffffffff16610402576040517f08c379a000000000000000000000000000000000000000000000000000000000815260206004820152600b60248201527f6e6f6e206578697374656400000000000000000000000000000000000000000060448201526064016102e5565b336000908152600360209081526040808320858452909152812054815490919061042d908490611d02565b9050816000036104f6576104414282611d19565b6006546040517f2e324b10000000000000000000000000000000000000000000000000000000008152600481018790523360248201526044810183905291925073ffffffffffffffffffffffffffffffffffffffff1690632e324b1090606401600060405180830381600087803b1580156104bb57600080fd5b505af11580156104cf573d6000803e3d6000fd5b505033600090815260036020908152604080832089845290915290208390555061067b9050565b428211156105c1576105088183611d19565b3360008181526003602090815260408083208984529091529081902083905560065490517fd2ea9ad00000000000000000000000000000000000000000000000000000000081526004810188905260248101929092526044820183905291935073ffffffffffffffffffffffffffffffffffffffff9091169063d2ea9ad090606401600060405180830381600087803b1580156105a457600080fd5b505af11580156105b8573d6000803e3d6000fd5b5050505061067b565b6105cb4282611d19565b6006546040517fd2ea9ad0000000000000000000000000000000000000000000000000000000008152600481018790523360248201526044810183905291925073ffffffffffffffffffffffffffffffffffffffff169063d2ea9ad090606401600060405180830381600087803b15801561064557600080fd5b505af1158015610659573d6000803e3d6000fd5b5050336000908152600360209081526040808320898452909152902083905550505b6000848152600260205260408120600501805434929061069c908490611d19565b90915550506000848152600260205260409020600601546106d39073ffffffffffffffffffffffffffffffffffffffff1634610ff0565b600084815260026020908152604091829020600601548251600481526024810190935290820180517bffffffffffffffffffffffffffffffffffffffffffffffffffffffff167fe4fc6b6d0000000000000000000000000000000000000000000000000000000017905261075f9173ffffffffffffffffffffffffffffffffffffffff9091169061114f565b50600654600085815260026020526040908190206005015490517f8d879e6d00000000000000000000000000000000000000000000000000000000815260048101879052602481019190915273ffffffffffffffffffffffffffffffffffffffff90911690638d879e6d90604401600060405180830381600087803b1580156107e757600080fd5b505af11580156107fb573d6000803e3d6000fd5b5050505050505050565b60606108307f000000000000000000000000000000000000000000000000000000000000000061119a565b6108597f000000000000000000000000000000000000000000000000000000000000000061119a565b6108827f000000000000000000000000000000000000000000000000000000000000000061119a565b60405160200161089493929190611d2c565b604051602081830303815290604052905090565b73ffffffffffffffffffffffffffffffffffffffff821660009081526003602090815260408083208484529091528120544210806108f9575060008281526002602052604090206108f99084611258565b610904576000610907565b60015b60ff1690505b92915050565b600061091d611287565b83828114610957576040517f947d5a8400000000000000000000000000000000000000000000000000000000815260040160405180910390fd5b3460005b82811015610a0457600086868381811061097757610977611da2565b905060200201359050828111156109ba576040517f1101129400000000000000000000000000000000000000000000000000000000815260040160405180910390fd5b6109e78989848181106109cf576109cf611da2565b90506020028101906109e19190611dd1565b50600090565b6109f8576000945050505050610a0c565b9091039060010161095b565b506001925050505b949350505050565b6000610a1e611287565b83828114610a58576040517f947d5a8400000000000000000000000000000000000000000000000000000000815260040160405180910390fd5b3460005b82811015610a04576000868683818110610a7857610a78611da2565b90506020020135905082811115610abb576040517f1101129400000000000000000000000000000000000000000000000000000000815260040160405180910390fd5b610ae8898984818110610ad057610ad0611da2565b9050602002810190610ae29190611dd1565b826112f8565b610af9576000945050505050610a0c565b90910390600101610a5c565b60606000610b1560206002611e0f565b60ff1667ffffffffffffffff811115610b3057610b306119e7565b6040519080825280601f01601f191660200182016040528015610b5a576020820181803683370190505b5060408051808201909152601081527f3031323334353637383961626364656600000000000000000000000000000000602082015290915060005b6020811015610d0157818251868360208110610bb357610bb3611da2565b610bbf9291901a611e61565b81518110610bcf57610bcf611da2565b01602001517fff000000000000000000000000000000000000000000000000000000000000001683610c02836002611d02565b81518110610c1257610c12611da2565b60200101907effffffffffffffffffffffffffffffffffffffffffffffffffffffffffffff1916908160001a905350818251868360208110610c5657610c56611da2565b610c629291901a611e75565b81518110610c7257610c72611da2565b01602001517fff000000000000000000000000000000000000000000000000000000000000001683610ca5836002611d02565b610cb0906001611d19565b81518110610cc057610cc0611da2565b60200101907effffffffffffffffffffffffffffffffffffffffffffffffffffffffffffff1916908160001a90535080610cf981611e89565b915050610b95565b5081604051602001610d139190611ec1565b60405160208183030381529060405292505050919050565b6000610d378383611349565b6000818152600260205260409020909150610d528787611410565b6006820180547fffffffffffffffffffffffff00000000000000000000000000000000000000001673ffffffffffffffffffffffffffffffffffffffff929092169190911790556003810185905560005b8751811015610dee57610ddb888281518110610dc157610dc1611da2565b6020026020010151836000016114d790919063ffffffff16565b5080610de681611e89565b915050610da3565b506002810180547fffffffffffffffffffffffff0000000000000000000000000000000000000000163317905560068054908201546040517f6e385518000000000000000000000000000000000000000000000000000000008152600481018590526024810188905273ffffffffffffffffffffffffffffffffffffffff9182166044820152911690636e38551890606401600060405180830381600087803b158015610e9a57600080fd5b505af1158015610eae573d6000803e3d6000fd5b50506006546040517f7e6c78bd00000000000000000000000000000000000000000000000000000000815273ffffffffffffffffffffffffffffffffffffffff9091169250637e6c78bd9150610f0c9085908b908b90600401611f87565b600060405180830381600087803b158015610f2657600080fd5b505af1158015610f3a573d6000803e3d6000fd5b50506006546040517ff398db320000000000000000000000000000000000000000000000000000000081526004810186905273ffffffffffffffffffffffffffffffffffffffff909116925063f398db329150602401600060405180830381600087803b158015610faa57600080fd5b505af1158015610fbe573d6000803e3d6000fd5b5050505050505050505050565b6000610fd5611287565b600061090d565b6000610fe6611287565b61090d82346112f8565b8047101561105a576040517f08c379a000000000000000000000000000000000000000000000000000000000815260206004820152601d60248201527f416464726573733a20696e73756666696369656e742062616c616e636500000060448201526064016102e5565b60008273ffffffffffffffffffffffffffffffffffffffff168260405160006040518083038185875af1925050503d80600081146110b4576040519150601f19603f3d011682016040523d82523d6000602084013e6110b9565b606091505b505090508061114a576040517f08c379a000000000000000000000000000000000000000000000000000000000815260206004820152603a60248201527f416464726573733a20756e61626c6520746f2073656e642076616c75652c207260448201527f6563697069656e74206d6179206861766520726576657274656400000000000060648201526084016102e5565b505050565b6060611193838360006040518060400160405280601e81526020017f416464726573733a206c6f772d6c6576656c2063616c6c206661696c656400008152506114f9565b9392505050565b606060006111a783611612565b600101905060008167ffffffffffffffff8111156111c7576111c76119e7565b6040519080825280601f01601f1916602001820160405280156111f1576020820181803683370190505b5090508181016020015b7fffffffffffffffffffffffffffffffffffffffffffffffffffffffffffffffff017f3031323334353637383961626364656600000000000000000000000000000000600a86061a8153600a85049450846111fb57509392505050565b73ffffffffffffffffffffffffffffffffffffffff811660009081526001830160205260408120541515611193565b3373ffffffffffffffffffffffffffffffffffffffff7f000000000000000000000000000000000000000000000000000000000000000016146112f6576040517f4ca8886700000000000000000000000000000000000000000000000000000000815260040160405180910390fd5b565b60008061130c610100850160e08601611fbc565b6020808601356000818152600290925260409091209192509061132f9083611258565b61133e5760009250505061090d565b506001949350505050565b600480546005546006546040517f64ccc13700000000000000000000000000000000000000000000000000000000815260009473ffffffffffffffffffffffffffffffffffffffff948516946364ccc137946113cd946001948b948b94909316927401000000000000000000000000000000000000000090920460ff169101611fd9565b6020604051808303816000875af11580156113ec573d6000803e3d6000fd5b505050506040513d601f19601f82011682018060405250810190611193919061210d565b60075460405160009182916114c19173ffffffffffffffffffffffffffffffffffffffff16906114469087908790602401612126565b604080517fffffffffffffffffffffffffffffffffffffffffffffffffffffffffffffffe08184030181529190526020810180517bffffffffffffffffffffffffffffffffffffffffffffffffffffffff167ff7c25fe20000000000000000000000000000000000000000000000000000000017905261114f565b905080806020019051810190610a0c9190612154565b60006111938373ffffffffffffffffffffffffffffffffffffffff84166116f4565b60608247101561158b576040517f08c379a000000000000000000000000000000000000000000000000000000000815260206004820152602660248201527f416464726573733a20696e73756666696369656e742062616c616e636520666f60448201527f722063616c6c000000000000000000000000000000000000000000000000000060648201526084016102e5565b6000808673ffffffffffffffffffffffffffffffffffffffff1685876040516115b49190612171565b60006040518083038185875af1925050503d80600081146115f1576040519150601f19603f3d011682016040523d82523d6000602084013e6115f6565b606091505b509150915061160787838387611743565b979650505050505050565b6000807a184f03e93ff9f4daa797ed6e38ed64bf6a1f010000000000000000831061165b577a184f03e93ff9f4daa797ed6e38ed64bf6a1f010000000000000000830492506040015b6d04ee2d6d415b85acef81000000008310611687576d04ee2d6d415b85acef8100000000830492506020015b662386f26fc1000083106116a557662386f26fc10000830492506010015b6305f5e10083106116bd576305f5e100830492506008015b61271083106116d157612710830492506004015b606483106116e3576064830492506002015b600a831061090d5760010192915050565b600081815260018301602052604081205461173b5750815460018181018455600084815260208082209093018490558454848252828601909352604090209190915561090d565b50600061090d565b606083156117d95782516000036117d25773ffffffffffffffffffffffffffffffffffffffff85163b6117d2576040517f08c379a000000000000000000000000000000000000000000000000000000000815260206004820152601d60248201527f416464726573733a2063616c6c20746f206e6f6e2d636f6e747261637400000060448201526064016102e5565b5081610a0c565b610a0c83838151156117ee5781518083602001fd5b806040517f08c379a00000000000000000000000000000000000000000000000000000000081526004016102e591906118b2565b6000806040838503121561183557600080fd5b50508035926020909101359150565b60005b8381101561185f578181015183820152602001611847565b50506000910152565b60008151808452611880816020860160208601611844565b601f017fffffffffffffffffffffffffffffffffffffffffffffffffffffffffffffffe0169290920160200192915050565b6020815260006111936020830184611868565b73ffffffffffffffffffffffffffffffffffffffff811681146118e757600080fd5b50565b600080604083850312156118fd57600080fd5b8235611908816118c5565b946020939093013593505050565b60008083601f84011261192857600080fd5b50813567ffffffffffffffff81111561194057600080fd5b6020830191508360208260051b850101111561195b57600080fd5b9250929050565b6000806000806040858703121561197857600080fd5b843567ffffffffffffffff8082111561199057600080fd5b61199c88838901611916565b909650945060208701359150808211156119b557600080fd5b506119c287828801611916565b95989497509550505050565b6000602082840312156119e057600080fd5b5035919050565b7f4e487b7100000000000000000000000000000000000000000000000000000000600052604160045260246000fd5b604051601f82017fffffffffffffffffffffffffffffffffffffffffffffffffffffffffffffffe016810167ffffffffffffffff81118282101715611a5d57611a5d6119e7565b604052919050565b600067ffffffffffffffff821115611a7f57611a7f6119e7565b5060051b60200190565b600082601f830112611a9a57600080fd5b81356020611aaf611aaa83611a65565b611a16565b82815260059290921b84018101918181019086841115611ace57600080fd5b8286015b84811015611ae95780358352918301918301611ad2565b509695505050505050565b600082601f830112611b0557600080fd5b813567ffffffffffffffff811115611b1f57611b1f6119e7565b611b5060207fffffffffffffffffffffffffffffffffffffffffffffffffffffffffffffffe0601f84011601611a16565b818152846020838601011115611b6557600080fd5b816020850160208301376000918101602001919091529392505050565b600080600080600060a08688031215611b9a57600080fd5b853567ffffffffffffffff80821115611bb257600080fd5b818801915088601f830112611bc657600080fd5b81356020611bd6611aaa83611a65565b82815260059290921b8401810191818101908c841115611bf557600080fd5b948201945b83861015611c1c578535611c0d816118c5565b82529482019490820190611bfa565b99505089013592505080821115611c3257600080fd5b611c3e89838a01611a89565b9550604088013594506060880135915080821115611c5b57600080fd5b611c6789838a01611af4565b93506080880135915080821115611c7d57600080fd5b50611c8a88828901611af4565b9150509295509295909350565b600060208284031215611ca957600080fd5b813567ffffffffffffffff811115611cc057600080fd5b8201610140818503121561119357600080fd5b7f4e487b7100000000000000000000000000000000000000000000000000000000600052601160045260246000fd5b808202811582820484141761090d5761090d611cd3565b8082018082111561090d5761090d611cd3565b60008451611d3e818460208901611844565b80830190507f2e000000000000000000000000000000000000000000000000000000000000008082528551611d7a816001850160208a01611844565b60019201918201528351611d95816002840160208801611844565b0160020195945050505050565b7f4e487b7100000000000000000000000000000000000000000000000000000000600052603260045260246000fd5b600082357ffffffffffffffffffffffffffffffffffffffffffffffffffffffffffffffec1833603018112611e0557600080fd5b9190910192915050565b60ff8181168382160290811690818114611e2b57611e2b611cd3565b5092915050565b7f4e487b7100000000000000000000000000000000000000000000000000000000600052601260045260246000fd5b600082611e7057611e70611e32565b500490565b600082611e8457611e84611e32565b500690565b60007fffffffffffffffffffffffffffffffffffffffffffffffffffffffffffffffff8203611eba57611eba611cd3565b5060010190565b7f3078000000000000000000000000000000000000000000000000000000000000815260008251611ef9816002850160208701611844565b9190910160020192915050565b600081518084526020808501945080840160005b83811015611f4c57815173ffffffffffffffffffffffffffffffffffffffff1687529582019590820190600101611f1a565b509495945050505050565b600081518084526020808501945080840160005b83811015611f4c57815187529582019590820190600101611f6b565b838152606060208201526000611fa06060830185611f06565b8281036040840152611fb28185611f57565b9695505050505050565b600060208284031215611fce57600080fd5b8135611193816118c5565b60a08152600080875481600182811c915080831680611ff957607f831692505b60208084108203612031577f4e487b710000000000000000000000000000000000000000000000000000000086526022600452602486fd5b60a0880184905260c088018280156120505760018114612084576120af565b7fffffffffffffffffffffffffffffffffffffffffffffffffffffffffffffff008716825285151560051b820197506120af565b60008f81526020902060005b878110156120a957815484820152908601908401612090565b83019850505b50508786038189015250505050506120c78188611868565b905082810360408401526120db8187611868565b915050612100606083018573ffffffffffffffffffffffffffffffffffffffff169052565b8215156080830152611fb2565b60006020828403121561211f57600080fd5b5051919050565b6040815260006121396040830185611f06565b828103602084015261214b8185611f57565b95945050505050565b60006020828403121561216657600080fd5b8151611193816118c5565b60008251611e0581846020870161184456fea2646970667358221220685ae3efedfbbdfcce17e5ec0994a8a690cc5640d2be3540b44e73d1f85fa94164736f6c63430008130033",
  "devdoc": {
    "kind": "dev",
    "methods": {
      "attest((bytes32,bytes32,uint64,uint64,uint64,bytes32,address,address,bool,bytes))": {
        "params": {
          "attestation": "The new attestation."
        },
        "returns": {
          "_0": "Whether the attestation is valid."
        }
      },
      "isPayable()": {
        "returns": {
          "_0": "True, indicating that the contract can accept payments."
        }
      },
      "multiAttest((bytes32,bytes32,uint64,uint64,uint64,bytes32,address,address,bool,bytes)[],uint256[])": {
        "params": {
          "attestations": "The new attestations.",
          "values": "Explicit ETH amounts which were sent with each attestation."
        },
        "returns": {
          "_0": "Whether all the attestations are valid."
        }
      },
      "multiRevoke((bytes32,bytes32,uint64,uint64,uint64,bytes32,address,address,bool,bytes)[],uint256[])": {
        "params": {
          "attestations": "The existing attestations to be revoked.",
          "values": "Explicit ETH amounts which were sent with each revocation."
        },
        "returns": {
          "_0": "Whether the attestations can be revoked."
        }
      },
      "revoke((bytes32,bytes32,uint64,uint64,uint64,bytes32,address,address,bool,bytes))": {
        "params": {
          "attestation": "The existing attestation to be revoked."
        },
        "returns": {
          "_0": "Whether the attestation can be revoked."
        }
      },
      "subscribe(bytes32,uint256)": {
        "details": "Mint tokens for encrypted attestations.",
        "params": {
          "schemaUID": "The UID of the schema for which tokens are being minted."
        }
      },
      "version()": {
        "returns": {
          "_0": "Semver contract version as a string."
        }
      }
    },
    "title": "ContentSubscriptionResolver",
    "version": 1
  },
  "userdoc": {
    "kind": "user",
    "methods": {
      "attest((bytes32,bytes32,uint64,uint64,uint64,bytes32,address,address,bool,bytes))": {
        "notice": "Processes an attestation and verifies whether it's valid."
      },
      "isPayable()": {
        "notice": "Indicates whether the contract is designed to handle incoming payments."
      },
      "multiAttest((bytes32,bytes32,uint64,uint64,uint64,bytes32,address,address,bool,bytes)[],uint256[])": {
        "notice": "Processes multiple attestations and verifies whether they are valid."
      },
      "multiRevoke((bytes32,bytes32,uint64,uint64,uint64,bytes32,address,address,bool,bytes)[],uint256[])": {
        "notice": "Processes revocation of multiple attestation and verifies they can be revoked."
      },
      "revoke((bytes32,bytes32,uint64,uint64,uint64,bytes32,address,address,bool,bytes))": {
        "notice": "Processes an attestation revocation and verifies if it can be revoked."
      },
      "version()": {
        "notice": "Returns the full semver contract version."
      }
    },
    "notice": "A schema resolver subcription to content example",
    "version": 1
  },
  "storageLayout": {
    "storage": [
      {
        "astId": 4075,
        "contract": "contracts/resolver/examples/ContentSubscriptionResolver.sol:ContentSubscriptionResolver",
        "label": "ONE_MONTH",
        "offset": 0,
        "slot": "0",
        "type": "t_uint256"
      },
      {
        "astId": 4092,
        "contract": "contracts/resolver/examples/ContentSubscriptionResolver.sol:ContentSubscriptionResolver",
        "label": "schema",
        "offset": 0,
        "slot": "1",
        "type": "t_string_storage"
      },
      {
        "astId": 4097,
        "contract": "contracts/resolver/examples/ContentSubscriptionResolver.sol:ContentSubscriptionResolver",
        "label": "schemas",
        "offset": 0,
        "slot": "2",
        "type": "t_mapping(t_bytes32,t_struct(SchemaInfo)4089_storage)"
      },
      {
        "astId": 4103,
        "contract": "contracts/resolver/examples/ContentSubscriptionResolver.sol:ContentSubscriptionResolver",
        "label": "userSubscriptions",
        "offset": 0,
        "slot": "3",
        "type": "t_mapping(t_address,t_mapping(t_bytes32,t_uint256))"
      },
      {
        "astId": 4106,
        "contract": "contracts/resolver/examples/ContentSubscriptionResolver.sol:ContentSubscriptionResolver",
        "label": "schemaRegistry",
        "offset": 0,
        "slot": "4",
        "type": "t_contract(ISchemaRegistry)3352"
      },
      {
        "astId": 4109,
        "contract": "contracts/resolver/examples/ContentSubscriptionResolver.sol:ContentSubscriptionResolver",
        "label": "schemaResolver",
        "offset": 0,
        "slot": "5",
        "type": "t_contract(ISchemaResolver)3708"
      },
      {
        "astId": 4112,
        "contract": "contracts/resolver/examples/ContentSubscriptionResolver.sol:ContentSubscriptionResolver",
        "label": "tableland",
        "offset": 0,
        "slot": "6",
        "type": "t_contract(ITablelandSubscriptionsIndexer)5411"
      },
      {
        "astId": 4114,
        "contract": "contracts/resolver/examples/ContentSubscriptionResolver.sol:ContentSubscriptionResolver",
        "label": "revocable",
        "offset": 20,
        "slot": "6",
        "type": "t_bool"
      },
      {
        "astId": 4116,
        "contract": "contracts/resolver/examples/ContentSubscriptionResolver.sol:ContentSubscriptionResolver",
        "label": "splitterFactory",
        "offset": 0,
        "slot": "7",
        "type": "t_address"
      }
    ],
    "types": {
      "t_address": {
        "encoding": "inplace",
        "label": "address",
        "numberOfBytes": "20"
      },
      "t_array(t_bytes32)dyn_storage": {
        "base": "t_bytes32",
        "encoding": "dynamic_array",
        "label": "bytes32[]",
        "numberOfBytes": "32"
      },
      "t_bool": {
        "encoding": "inplace",
        "label": "bool",
        "numberOfBytes": "1"
      },
      "t_bytes32": {
        "encoding": "inplace",
        "label": "bytes32",
        "numberOfBytes": "32"
      },
      "t_contract(ISchemaRegistry)3352": {
        "encoding": "inplace",
        "label": "contract ISchemaRegistry",
        "numberOfBytes": "20"
      },
      "t_contract(ISchemaResolver)3708": {
        "encoding": "inplace",
        "label": "contract ISchemaResolver",
        "numberOfBytes": "20"
      },
      "t_contract(ITablelandSubscriptionsIndexer)5411": {
        "encoding": "inplace",
        "label": "contract ITablelandSubscriptionsIndexer",
        "numberOfBytes": "20"
      },
      "t_mapping(t_address,t_mapping(t_bytes32,t_uint256))": {
        "encoding": "mapping",
        "key": "t_address",
        "label": "mapping(address => mapping(bytes32 => uint256))",
        "numberOfBytes": "32",
        "value": "t_mapping(t_bytes32,t_uint256)"
      },
      "t_mapping(t_bytes32,t_struct(SchemaInfo)4089_storage)": {
        "encoding": "mapping",
        "key": "t_bytes32",
        "label": "mapping(bytes32 => struct ContentSubscriptionResolver.SchemaInfo)",
        "numberOfBytes": "32",
        "value": "t_struct(SchemaInfo)4089_storage"
      },
      "t_mapping(t_bytes32,t_uint256)": {
        "encoding": "mapping",
        "key": "t_bytes32",
        "label": "mapping(bytes32 => uint256)",
        "numberOfBytes": "32",
        "value": "t_uint256"
      },
      "t_string_storage": {
        "encoding": "bytes",
        "label": "string",
        "numberOfBytes": "32"
      },
      "t_struct(AddressSet)2320_storage": {
        "encoding": "inplace",
        "label": "struct EnumerableSet.AddressSet",
        "members": [
          {
            "astId": 2319,
            "contract": "contracts/resolver/examples/ContentSubscriptionResolver.sol:ContentSubscriptionResolver",
            "label": "_inner",
            "offset": 0,
            "slot": "0",
            "type": "t_struct(Set)2005_storage"
          }
        ],
        "numberOfBytes": "64"
      },
      "t_struct(SchemaInfo)4089_storage": {
        "encoding": "inplace",
        "label": "struct ContentSubscriptionResolver.SchemaInfo",
        "members": [
          {
            "astId": 4078,
            "contract": "contracts/resolver/examples/ContentSubscriptionResolver.sol:ContentSubscriptionResolver",
            "label": "contentCreators",
            "offset": 0,
            "slot": "0",
            "type": "t_struct(AddressSet)2320_storage"
          },
          {
            "astId": 4080,
            "contract": "contracts/resolver/examples/ContentSubscriptionResolver.sol:ContentSubscriptionResolver",
            "label": "multisig",
            "offset": 0,
            "slot": "2",
            "type": "t_address"
          },
          {
            "astId": 4082,
            "contract": "contracts/resolver/examples/ContentSubscriptionResolver.sol:ContentSubscriptionResolver",
            "label": "subscriptionPrice",
            "offset": 0,
            "slot": "3",
            "type": "t_uint256"
          },
          {
            "astId": 4084,
            "contract": "contracts/resolver/examples/ContentSubscriptionResolver.sol:ContentSubscriptionResolver",
            "label": "subscriptionsPool",
            "offset": 0,
            "slot": "4",
            "type": "t_uint256"
          },
          {
            "astId": 4086,
            "contract": "contracts/resolver/examples/ContentSubscriptionResolver.sol:ContentSubscriptionResolver",
            "label": "totalRevenue",
            "offset": 0,
            "slot": "5",
            "type": "t_uint256"
          },
          {
            "astId": 4088,
            "contract": "contracts/resolver/examples/ContentSubscriptionResolver.sol:ContentSubscriptionResolver",
            "label": "splitterContract",
            "offset": 0,
            "slot": "6",
            "type": "t_address"
          }
        ],
        "numberOfBytes": "224"
      },
      "t_struct(Set)2005_storage": {
        "encoding": "inplace",
        "label": "struct EnumerableSet.Set",
        "members": [
          {
            "astId": 2000,
            "contract": "contracts/resolver/examples/ContentSubscriptionResolver.sol:ContentSubscriptionResolver",
            "label": "_values",
            "offset": 0,
            "slot": "0",
            "type": "t_array(t_bytes32)dyn_storage"
          },
          {
            "astId": 2004,
            "contract": "contracts/resolver/examples/ContentSubscriptionResolver.sol:ContentSubscriptionResolver",
            "label": "_indexes",
            "offset": 0,
            "slot": "1",
            "type": "t_mapping(t_bytes32,t_uint256)"
          }
        ],
        "numberOfBytes": "64"
      },
      "t_uint256": {
        "encoding": "inplace",
        "label": "uint256",
        "numberOfBytes": "32"
      }
    }
  }
}