{
  "address": "0x738212e6f48089DB006d9ad6664B369FDD2B53a9",
  "abi": [
    {
      "inputs": [],
      "stateMutability": "nonpayable",
      "type": "constructor"
    },
    {
      "inputs": [],
      "name": "AlreadyExists",
      "type": "error"
    },
    {
      "inputs": [
        {
          "internalType": "uint256",
          "name": "chainid",
          "type": "uint256"
        }
      ],
      "name": "ChainNotSupported",
      "type": "error"
    },
    {
      "inputs": [
        {
          "internalType": "bytes32",
          "name": "data",
          "type": "bytes32"
        }
      ],
      "name": "bytes32ToString",
      "outputs": [
        {
          "internalType": "string",
          "name": "",
          "type": "string"
        }
      ],
      "stateMutability": "pure",
      "type": "function"
    },
    {
      "inputs": [
        {
          "internalType": "bytes32",
          "name": "uid",
          "type": "bytes32"
        }
      ],
      "name": "getSchema",
      "outputs": [
        {
          "components": [
            {
              "internalType": "bytes32",
              "name": "uid",
              "type": "bytes32"
            },
            {
              "internalType": "contract ISchemaResolver",
              "name": "resolver",
              "type": "address"
            },
            {
              "internalType": "bool",
              "name": "revocable",
              "type": "bool"
            },
            {
              "internalType": "string",
              "name": "schema",
              "type": "string"
            }
          ],
          "internalType": "struct SchemaRecord",
          "name": "",
          "type": "tuple"
        }
      ],
      "stateMutability": "view",
      "type": "function"
    },
    {
      "inputs": [
        {
          "internalType": "string",
          "name": "schema",
          "type": "string"
        },
        {
          "internalType": "string",
          "name": "schemaName",
          "type": "string"
        },
        {
          "internalType": "string",
          "name": "schemaDescription",
          "type": "string"
        },
        {
          "internalType": "contract ISchemaResolver",
          "name": "resolver",
          "type": "address"
        },
        {
          "internalType": "bool",
          "name": "revocable",
          "type": "bool"
        }
      ],
      "name": "register",
      "outputs": [
        {
          "internalType": "bytes32",
          "name": "",
          "type": "bytes32"
        }
      ],
      "stateMutability": "nonpayable",
      "type": "function"
    },
    {
      "inputs": [
        {
          "internalType": "uint256",
          "name": "",
          "type": "uint256"
        }
      ],
      "name": "tables",
      "outputs": [
        {
          "internalType": "string",
          "name": "",
          "type": "string"
        }
      ],
      "stateMutability": "view",
      "type": "function"
    },
    {
      "inputs": [],
      "name": "version",
      "outputs": [
        {
          "internalType": "string",
          "name": "",
          "type": "string"
        }
      ],
      "stateMutability": "view",
      "type": "function"
    }
  ],
  "transactionHash": "0xaddfc4f362f41ab3a94390c6a547d5a65cda9203dfa9143fe5072e3b6b5edc5c",
  "args": [],
  "numDeployments": 2,
  "solcInputHash": "f96d150303de9ea17227d48ea66ca2d9",
  "bytecode": "0x60e06040523480156200001157600080fd5b506000608081905260a052600160c0526200002b620001c9565b600160006101000a8154816001600160a01b0302191690836001600160a01b031602179055506002620000946040518060c001604052806089815260200162001d8860899139604080518082019091526006815265736368656d6160d01b60208201526200038c565b81546001810183556000928352602090922090910190620000b6908262000682565b506001546040516361a23d0f60e01b81526001600160a01b03909116906361a23d0f90620000ec9030906002906004016200074e565b6000604051808303816000875af11580156200010c573d6000803e3d6000fd5b505050506040513d6000823e601f3d908101601f1916820160405262000136919081019062000836565b80516200014c9160049160209091019062000576565b506003620001a060405180604001604052806006815260200165736368656d6160d01b8152506004600081548110620001895762000189620008ff565b9060005260206000200154620003c660201b60201c565b81546001810183556000928352602090922090910190620001c2908262000682565b50620009f0565b600046600103620001ed575073012969f7e3439a9b04025b5a049eb9bad82a8c1290565b46600a036200020f575073fad44bf5b843de943a09d4f3e84949a11d3aa3e690565b4661a4b103620002325750739abd75e8640871a5a20d3b4ee6330a04c962affd90565b4661a4ba03620002555750731a22854c5b1642760a827f20137a67930ae108d290565b46608903620002775750735c4e6a9e5c1e1bf445a062006faf19ea6c49afea90565b4661013a036200029a57507359ef8bf2d6c102b4c42aef9189e1a9f0abfd652d90565b46600503620002bc575073da8ea22d092307874f30a1f277d1388dca0ba97a90565b466101a403620002df575073c72e8a7be04f2469f8c2db3f1bdf69a7d516abba90565b4662066eed0362000303575073033f69e8d119205089ab15d340f5b797732f646b90565b466201388103620003275750734b48841d4b32c4650e4abc117a03fe8b51f38f6890565b46610c45036200034a5750730b9737ab4b3e5303cb67db031b509697e31c02d390565b46617a69036200036d575073e7f1725e7734ce288f8367e1bb143e90bb3f051290565b60405163264e42cf60e01b815246600482015260240160405180910390fd5b6060816200039a46620003f3565b84604051602001620003af9392919062000947565b604051602081830303815290604052905092915050565b606082620003d446620003f3565b620003df84620003f3565b604051602001620003af93929190620009ad565b6060600062000402836200048c565b60010190506000816001600160401b03811115620004245762000424620005dd565b6040519080825280601f01601f1916602001820160405280156200044f576020820181803683370190505b5090508181016020015b600019016f181899199a1a9b1b9c1cb0b131b232b360811b600a86061a8153600a85049450846200045957509392505050565b6000807a184f03e93ff9f4daa797ed6e38ed64bf6a1f0100000000000000008310620004d6577a184f03e93ff9f4daa797ed6e38ed64bf6a1f010000000000000000830492506040015b6d04ee2d6d415b85acef8100000000831062000503576d04ee2d6d415b85acef8100000000830492506020015b662386f26fc1000083106200052257662386f26fc10000830492506010015b6305f5e10083106200053b576305f5e100830492506008015b61271083106200055057612710830492506004015b6064831062000563576064830492506002015b600a831062000570576001015b92915050565b828054828255906000526020600020908101928215620005b4579160200282015b82811115620005b457825182559160200191906001019062000597565b50620005c2929150620005c6565b5090565b5b80821115620005c25760008155600101620005c7565b634e487b7160e01b600052604160045260246000fd5b600181811c908216806200060857607f821691505b6020821081036200062957634e487b7160e01b600052602260045260246000fd5b50919050565b601f8211156200067d57600081815260208120601f850160051c81016020861015620006585750805b601f850160051c820191505b81811015620006795782815560010162000664565b5050505b505050565b81516001600160401b038111156200069e576200069e620005dd565b620006b681620006af8454620005f3565b846200062f565b602080601f831160018114620006ee5760008415620006d55750858301515b600019600386901b1c1916600185901b17855562000679565b600085815260208120601f198616915b828110156200071f57888601518255948401946001909101908401620006fe565b50858210156200073e5787850151600019600388901b60f8161c191681555b5050505050600190811b01905550565b60006040820160018060a01b0385168352602060408185015281855480845260608601915060059350606081851b8701016000888152848120815b848110156200082657605f198a8503018652828254620007a981620005f3565b80875260018281168015620007c75760018114620007e1576200080e565b60ff198416898d01528215158d1b89018c0194506200080e565b8688528b8820885b84811015620008065781548b82018f0152908301908d01620007e9565b8a018d019550505b50988a01989296505050919091019060010162000789565b50919a9950505050505050505050565b600060208083850312156200084a57600080fd5b82516001600160401b03808211156200086257600080fd5b818501915085601f8301126200087757600080fd5b8151818111156200088c576200088c620005dd565b8060051b604051601f19603f83011681018181108582111715620008b457620008b4620005dd565b604052918252848201925083810185019188831115620008d357600080fd5b938501935b82851015620008f357845184529385019392850192620008d8565b98975050505050505050565b634e487b7160e01b600052603260045260246000fd5b6000815160005b818110156200093857602081850181015186830152016200091c565b50600093019283525090919050565b6c021a922a0aa22902a20a126229609d1b815260006200096b600d83018662000915565b605f60f81b815262000981600182018662000915565b9050600560fb1b815262000999600182018562000915565b602960f81b81526001019695505050505050565b6000620009bb828662000915565b605f60f81b808252620009d2600183018762000915565b9081529050620009e6600182018562000915565b9695505050505050565b60805160a05160c05161136962000a1f600039600061013a015260006101110152600060e801526113696000f3fe608060405234801561001057600080fd5b50600436106100575760003560e01c806354fd4d501461005c57806364ccc1371461007a57806371671bf21461009b5780639201de55146100ae578063a2ea7c6e146100c1575b600080fd5b6100646100e1565b6040516100719190610bf4565b60405180910390f35b61008d610088366004610caa565b610184565b604051908152602001610071565b6100646100a9366004610d6b565b610271565b6100646100bc366004610d6b565b61031d565b6100d46100cf366004610d6b565b6104d6565b6040516100719190610d84565b606061010c7f00000000000000000000000000000000000000000000000000000000000000006105e0565b6101357f00000000000000000000000000000000000000000000000000000000000000006105e0565b61015e7f00000000000000000000000000000000000000000000000000000000000000006105e0565b60405160200161017093929190610deb565b604051602081830303815290604052905090565b6040805160808101825260008082526001600160a01b03851660208301528315159282019290925260608101879052816101bd82610673565b600081815260208190526040902054909150156101ed5760405163119b4fd360e11b815260040160405180910390fd5b808252600081815260208181526040918290208451815590840151600182018054938601511515600160a01b026001600160a81b03199094166001600160a01b039092169190911792909217909155606083015183919060028201906102539082610eca565b50508251610266915089898989896106b5565b979650505050505050565b6003818154811061028157600080fd5b90600052602060002001600091509050805461029c90610e45565b80601f01602080910402602001604051908101604052809291908181526020018280546102c890610e45565b80156103155780601f106102ea57610100808354040283529160200191610315565b820191906000526020600020905b8154815290600101906020018083116102f857829003601f168201915b505050505081565b6060600061032d60206002610fa0565b60ff1667ffffffffffffffff81111561034857610348610c07565b6040519080825280601f01601f191660200182016040528015610372576020820181803683370190505b5060408051808201909152601081526f181899199a1a9b1b9c1cb0b131b232b360811b602082015290915060005b60208110156104ac578182518683602081106103be576103be610fc3565b6103ca9291901a610fef565b815181106103da576103da610fc3565b01602001516001600160f81b031916836103f5836002611003565b8151811061040557610405610fc3565b60200101906001600160f81b031916908160001a90535081825186836020811061043157610431610fc3565b61043d9291901a61101a565b8151811061044d5761044d610fc3565b01602001516001600160f81b03191683610468836002611003565b61047390600161102e565b8151811061048357610483610fc3565b60200101906001600160f81b031916908160001a905350806104a481611041565b9150506103a0565b50816040516020016104be919061105a565b60405160208183030381529060405292505050919050565b60408051608081018252600080825260208201819052918101919091526060808201526000828152602081815260409182902082516080810184528154815260018201546001600160a01b03811693820193909352600160a01b90920460ff1615159282019290925260028201805491929160608401919061055790610e45565b80601f016020809104026020016040519081016040528092919081815260200182805461058390610e45565b80156105d05780601f106105a5576101008083540402835291602001916105d0565b820191906000526020600020905b8154815290600101906020018083116105b357829003601f168201915b5050505050815250509050919050565b606060006105ed83610806565b600101905060008167ffffffffffffffff81111561060d5761060d610c07565b6040519080825280601f01601f191660200182016040528015610637576020820181803683370190505b5090508181016020015b600019016f181899199a1a9b1b9c1cb0b131b232b360811b600a86061a8153600a850494508461064157509392505050565b6000816060015182602001518360400151426040516020016106989493929190611084565b604051602081830303815290604052805190602001209050919050565b6107fe60046000815481106106cc576106cc610fc3565b90600052602060002001546107f960405180604001604052806006815260200165736368656d6160d01b815250600460008154811061070d5761070d610fc3565b90600052602060002001546040518060800160405280605581526020016112df6055913961074261073d8d61031d565b6108df565b61074b8c6108df565b61075761073d8b610908565b6107a48a610782576040518060400160405280600581526020016466616c736560d81b8152506108df565b604051806040016040528060048152602001637472756560e01b8152506108df565b6107ad8e6108df565b6107b68e6108df565b6107c261073d33610908565b6107ce61073d426105e0565b6040516020016107e59897969594939291906110cb565b60405160208183030381529060405261091e565b61095d565b505050505050565b60008072184f03e93ff9f4daa797ed6e38ed64bf6a1f0160401b83106108455772184f03e93ff9f4daa797ed6e38ed64bf6a1f0160401b830492506040015b6d04ee2d6d415b85acef81000000008310610871576d04ee2d6d415b85acef8100000000830492506020015b662386f26fc10000831061088f57662386f26fc10000830492506010015b6305f5e10083106108a7576305f5e100830492506008015b61271083106108bb57612710830492506004015b606483106108cd576064830492506002015b600a83106108d9576001015b92915050565b6060816040516020016108f291906111ab565b6040516020818303038152906040529050919050565b60606108d96001600160a01b03831660146109bf565b6060600061092c8686610b66565b9050808484604051602001610943939291906111d9565b604051602081830303815290604052915050949350505050565b600154604051631bbd786d60e11b81526001600160a01b039091169063377af0da9061099190309086908690600401611265565b600060405180830381600087803b1580156109ab57600080fd5b505af11580156107fe573d6000803e3d6000fd5b606060006109ce836002611003565b6109d990600261102e565b67ffffffffffffffff8111156109f1576109f1610c07565b6040519080825280601f01601f191660200182016040528015610a1b576020820181803683370190505b509050600360fc1b81600081518110610a3657610a36610fc3565b60200101906001600160f81b031916908160001a905350600f60fb1b81600181518110610a6557610a65610fc3565b60200101906001600160f81b031916908160001a9053506000610a89846002611003565b610a9490600161102e565b90505b6001811115610b0c576f181899199a1a9b1b9c1cb0b131b232b360811b85600f1660108110610ac857610ac8610fc3565b1a60f81b828281518110610ade57610ade610fc3565b60200101906001600160f81b031916908160001a90535060049490941c93610b0581611295565b9050610a97565b508315610b5f5760405162461bcd60e51b815260206004820181905260248201527f537472696e67733a20686578206c656e67746820696e73756666696369656e74604482015260640160405180910390fd5b9392505050565b606082610b72466105e0565b610b7b846105e0565b604051602001610b8d939291906112ac565b604051602081830303815290604052905092915050565b60005b83811015610bbf578181015183820152602001610ba7565b50506000910152565b60008151808452610be0816020860160208601610ba4565b601f01601f19169290920160200192915050565b602081526000610b5f6020830184610bc8565b634e487b7160e01b600052604160045260246000fd5b600082601f830112610c2e57600080fd5b813567ffffffffffffffff80821115610c4957610c49610c07565b604051601f8301601f19908116603f01168101908282118183101715610c7157610c71610c07565b81604052838152866020858801011115610c8a57600080fd5b836020870160208301376000602085830101528094505050505092915050565b600080600080600060a08688031215610cc257600080fd5b853567ffffffffffffffff80821115610cda57600080fd5b610ce689838a01610c1d565b96506020880135915080821115610cfc57600080fd5b610d0889838a01610c1d565b95506040880135915080821115610d1e57600080fd5b50610d2b88828901610c1d565b93505060608601356001600160a01b0381168114610d4857600080fd5b915060808601358015158114610d5d57600080fd5b809150509295509295909350565b600060208284031215610d7d57600080fd5b5035919050565b602081528151602082015260018060a01b03602083015116604082015260408201511515606082015260006060830151608080840152610dc760a0840182610bc8565b949350505050565b60008151610de1818560208601610ba4565b9290920192915050565b60008451610dfd818460208901610ba4565b8083019050601760f91b8082528551610e1d816001850160208a01610ba4565b60019201918201528351610e38816002840160208801610ba4565b0160020195945050505050565b600181811c90821680610e5957607f821691505b602082108103610e7957634e487b7160e01b600052602260045260246000fd5b50919050565b601f821115610ec557600081815260208120601f850160051c81016020861015610ea65750805b601f850160051c820191505b818110156107fe57828155600101610eb2565b505050565b815167ffffffffffffffff811115610ee457610ee4610c07565b610ef881610ef28454610e45565b84610e7f565b602080601f831160018114610f2d5760008415610f155750858301515b600019600386901b1c1916600185901b1785556107fe565b600085815260208120601f198616915b82811015610f5c57888601518255948401946001909101908401610f3d565b5085821015610f7a5787850151600019600388901b60f8161c191681555b5050505050600190811b01905550565b634e487b7160e01b600052601160045260246000fd5b60ff8181168382160290811690818114610fbc57610fbc610f8a565b5092915050565b634e487b7160e01b600052603260045260246000fd5b634e487b7160e01b600052601260045260246000fd5b600082610ffe57610ffe610fd9565b500490565b80820281158282048414176108d9576108d9610f8a565b60008261102957611029610fd9565b500690565b808201808211156108d9576108d9610f8a565b60006001820161105357611053610f8a565b5060010190565b61060f60f31b815260008251611077816002850160208701610ba4565b9190910160020192915050565b60008551611096818460208a01610ba4565b60609590951b6bffffffffffffffffffffffff19169190940190815291151560f81b6014830152601582015260350192915050565b600089516110dd818460208e01610ba4565b8083019050600b60fa1b8082528a516110fd816001850160208f01610ba4565b60019201918201819052895161111a816002850160208e01610ba4565b600292019182018190528851611137816003850160208d01610ba4565b60039201918201528651611152816004840160208b01610ba4565b0161116360048201600b60fa1b9052565b6111706005820187610dcf565b600b60fa1b815290506111866001820186610dcf565b600b60fa1b8152905061119c6001820185610dcf565b9b9a5050505050505050505050565b6000602760f81b80835283516111c8816001860160208801610ba4565b600193019283015250600201919050565b6b024a729a2a92a1024a72a27960a51b81526000845161120081600c850160208901610ba4565b600560fb1b600c91840191820152845161122181600d840160208901610ba4565b67052ac8298aa8aa6560c31b600d9290910191820152835161124a816015840160208801610ba4565b602960f81b6015929091019182015260160195945050505050565b60018060a01b038416815282602082015260606040820152600061128c6060830184610bc8565b95945050505050565b6000816112a4576112a4610f8a565b506000190190565b600084516112be818460208901610ba4565b8083019050605f60f81b8082528551610e1d816001850160208a01610ba456fe736368656d615549442c20736368656d612c207265736f6c7665722c207265766f6361626c652c206e616d652c206465736372697074696f6e2c2063726561746f722c206372656174696f6e54696d657374616d70a2646970667358221220f4e62075da4759add4caf87cdf32df0a522b6cfe2ef90af56a586f86a1e5d8d664736f6c63430008130033736368656d615549442074657874207072696d617279206b65792c20736368656d6120746578742c207265736f6c76657220746578742c207265766f6361626c6520746578742c206e616d6520746578742c206465736372697074696f6e20746578742c2063726561746f7220746578742c206372656174696f6e54696d657374616d702074657874",
  "devdoc": {
    "kind": "dev",
    "methods": {
      "constructor": {
        "details": "Creates a new SchemaRegistry instance."
      },
      "getSchema(bytes32)": {
        "params": {
          "uid": "The UID of the schema to retrieve."
        },
        "returns": {
          "_0": "The schema data members."
        }
      },
      "register(string,string,string,address,bool)": {
        "params": {
          "resolver": "An optional schema resolver.",
          "revocable": "Whether the schema allows revocations explicitly.",
          "schema": "The schema data schema."
        },
        "returns": {
          "_0": "The UID of the new schema."
        }
      },
      "version()": {
        "returns": {
          "_0": "Semver contract version as a string."
        }
      }
    },
    "title": "SchemaRegistry",
    "version": 1
  },
  "userdoc": {
    "errors": {
      "ChainNotSupported(uint256)": [
        {
          "notice": "Current chain does not have a TablelandTables deployment."
        }
      ]
    },
    "kind": "user",
    "methods": {
      "getSchema(bytes32)": {
        "notice": "Returns an existing schema by UID"
      },
      "register(string,string,string,address,bool)": {
        "notice": "Submits and reserves a new schema"
      },
      "version()": {
        "notice": "Returns the full semver contract version."
      }
    },
    "notice": "The global schema registry.",
    "version": 1
  },
  "storageLayout": {
    "storage": [
      {
        "astId": 1974,
        "contract": "contracts/SchemaRegistry.sol:SchemaRegistry",
        "label": "_registry",
        "offset": 0,
        "slot": "0",
        "type": "t_mapping(t_bytes32,t_struct(SchemaRecord)1916_storage)"
      },
      {
        "astId": 1977,
        "contract": "contracts/SchemaRegistry.sol:SchemaRegistry",
        "label": "tablelandContract",
        "offset": 0,
        "slot": "1",
        "type": "t_contract(ITablelandTables)1357"
      },
      {
        "astId": 1980,
        "contract": "contracts/SchemaRegistry.sol:SchemaRegistry",
        "label": "createTableStatements",
        "offset": 0,
        "slot": "2",
        "type": "t_array(t_string_storage)dyn_storage"
      },
      {
        "astId": 1983,
        "contract": "contracts/SchemaRegistry.sol:SchemaRegistry",
        "label": "tables",
        "offset": 0,
        "slot": "3",
        "type": "t_array(t_string_storage)dyn_storage"
      },
      {
        "astId": 1986,
        "contract": "contracts/SchemaRegistry.sol:SchemaRegistry",
        "label": "tableIDs",
        "offset": 0,
        "slot": "4",
        "type": "t_array(t_uint256)dyn_storage"
      }
    ],
    "types": {
      "t_array(t_string_storage)dyn_storage": {
        "base": "t_string_storage",
        "encoding": "dynamic_array",
        "label": "string[]",
        "numberOfBytes": "32"
      },
      "t_array(t_uint256)dyn_storage": {
        "base": "t_uint256",
        "encoding": "dynamic_array",
        "label": "uint256[]",
        "numberOfBytes": "32"
      },
      "t_bool": {
        "encoding": "inplace",
        "label": "bool",
        "numberOfBytes": "1"
      },
      "t_bytes32": {
        "encoding": "inplace",
        "label": "bytes32",
        "numberOfBytes": "32"
      },
      "t_contract(ISchemaResolver)2461": {
        "encoding": "inplace",
        "label": "contract ISchemaResolver",
        "numberOfBytes": "20"
      },
      "t_contract(ITablelandTables)1357": {
        "encoding": "inplace",
        "label": "contract ITablelandTables",
        "numberOfBytes": "20"
      },
      "t_mapping(t_bytes32,t_struct(SchemaRecord)1916_storage)": {
        "encoding": "mapping",
        "key": "t_bytes32",
        "label": "mapping(bytes32 => struct SchemaRecord)",
        "numberOfBytes": "32",
        "value": "t_struct(SchemaRecord)1916_storage"
      },
      "t_string_storage": {
        "encoding": "bytes",
        "label": "string",
        "numberOfBytes": "32"
      },
      "t_struct(SchemaRecord)1916_storage": {
        "encoding": "inplace",
        "label": "struct SchemaRecord",
        "members": [
          {
            "astId": 1908,
            "contract": "contracts/SchemaRegistry.sol:SchemaRegistry",
            "label": "uid",
            "offset": 0,
            "slot": "0",
            "type": "t_bytes32"
          },
          {
            "astId": 1911,
            "contract": "contracts/SchemaRegistry.sol:SchemaRegistry",
            "label": "resolver",
            "offset": 0,
            "slot": "1",
            "type": "t_contract(ISchemaResolver)2461"
          },
          {
            "astId": 1913,
            "contract": "contracts/SchemaRegistry.sol:SchemaRegistry",
            "label": "revocable",
            "offset": 20,
            "slot": "1",
            "type": "t_bool"
          },
          {
            "astId": 1915,
            "contract": "contracts/SchemaRegistry.sol:SchemaRegistry",
            "label": "schema",
            "offset": 0,
            "slot": "2",
            "type": "t_string_storage"
          }
        ],
        "numberOfBytes": "96"
      },
      "t_uint256": {
        "encoding": "inplace",
        "label": "uint256",
        "numberOfBytes": "32"
      }
    }
  }
}