{
  "address": "0x68451cf2Ef698B86BD597519760ebb3CeAa85C07",
  "abi": [
    {
      "anonymous": false,
      "inputs": [
        {
          "indexed": true,
          "internalType": "contract IERC20",
          "name": "token",
          "type": "address"
        },
        {
          "indexed": false,
          "internalType": "address",
          "name": "to",
          "type": "address"
        },
        {
          "indexed": false,
          "internalType": "uint256",
          "name": "amount",
          "type": "uint256"
        }
      ],
      "name": "ERC20PaymentReleased",
      "type": "event"
    },
    {
      "anonymous": false,
      "inputs": [
        {
          "indexed": false,
          "internalType": "uint8",
          "name": "version",
          "type": "uint8"
        }
      ],
      "name": "Initialized",
      "type": "event"
    },
    {
      "anonymous": false,
      "inputs": [
        {
          "indexed": false,
          "internalType": "address",
          "name": "account",
          "type": "address"
        },
        {
          "indexed": false,
          "internalType": "uint256",
          "name": "shares",
          "type": "uint256"
        }
      ],
      "name": "PayeeAdded",
      "type": "event"
    },
    {
      "anonymous": false,
      "inputs": [
        {
          "indexed": false,
          "internalType": "address",
          "name": "from",
          "type": "address"
        },
        {
          "indexed": false,
          "internalType": "uint256",
          "name": "amount",
          "type": "uint256"
        }
      ],
      "name": "PaymentReceived",
      "type": "event"
    },
    {
      "anonymous": false,
      "inputs": [
        {
          "indexed": false,
          "internalType": "address",
          "name": "to",
          "type": "address"
        },
        {
          "indexed": false,
          "internalType": "uint256",
          "name": "amount",
          "type": "uint256"
        }
      ],
      "name": "PaymentReleased",
      "type": "event"
    },
    {
      "inputs": [
        {
          "internalType": "contract IERC20",
          "name": "token",
          "type": "address"
        }
      ],
      "name": "distribute",
      "outputs": [],
      "stateMutability": "nonpayable",
      "type": "function"
    },
    {
      "inputs": [],
      "name": "distribute",
      "outputs": [],
      "stateMutability": "nonpayable",
      "type": "function"
    },
    {
      "inputs": [
        {
          "internalType": "address[]",
          "name": "payees",
          "type": "address[]"
        },
        {
          "internalType": "uint256[]",
          "name": "shares_",
          "type": "uint256[]"
        }
      ],
      "name": "initialize",
      "outputs": [],
      "stateMutability": "payable",
      "type": "function"
    },
    {
      "inputs": [
        {
          "internalType": "uint256",
          "name": "index",
          "type": "uint256"
        }
      ],
      "name": "payee",
      "outputs": [
        {
          "internalType": "address",
          "name": "",
          "type": "address"
        }
      ],
      "stateMutability": "view",
      "type": "function"
    },
    {
      "inputs": [],
      "name": "payeeCount",
      "outputs": [
        {
          "internalType": "uint256",
          "name": "",
          "type": "uint256"
        }
      ],
      "stateMutability": "view",
      "type": "function"
    },
    {
      "inputs": [
        {
          "internalType": "address",
          "name": "account",
          "type": "address"
        }
      ],
      "name": "releasable",
      "outputs": [
        {
          "internalType": "uint256",
          "name": "",
          "type": "uint256"
        }
      ],
      "stateMutability": "view",
      "type": "function"
    },
    {
      "inputs": [
        {
          "internalType": "contract IERC20",
          "name": "token",
          "type": "address"
        },
        {
          "internalType": "address",
          "name": "account",
          "type": "address"
        }
      ],
      "name": "releasable",
      "outputs": [
        {
          "internalType": "uint256",
          "name": "",
          "type": "uint256"
        }
      ],
      "stateMutability": "view",
      "type": "function"
    },
    {
      "inputs": [
        {
          "internalType": "address payable",
          "name": "account",
          "type": "address"
        }
      ],
      "name": "release",
      "outputs": [],
      "stateMutability": "nonpayable",
      "type": "function"
    },
    {
      "inputs": [
        {
          "internalType": "contract IERC20",
          "name": "token",
          "type": "address"
        },
        {
          "internalType": "address",
          "name": "account",
          "type": "address"
        }
      ],
      "name": "release",
      "outputs": [],
      "stateMutability": "nonpayable",
      "type": "function"
    },
    {
      "inputs": [
        {
          "internalType": "contract IERC20",
          "name": "token",
          "type": "address"
        },
        {
          "internalType": "address",
          "name": "account",
          "type": "address"
        }
      ],
      "name": "released",
      "outputs": [
        {
          "internalType": "uint256",
          "name": "",
          "type": "uint256"
        }
      ],
      "stateMutability": "view",
      "type": "function"
    },
    {
      "inputs": [
        {
          "internalType": "address",
          "name": "account",
          "type": "address"
        }
      ],
      "name": "released",
      "outputs": [
        {
          "internalType": "uint256",
          "name": "",
          "type": "uint256"
        }
      ],
      "stateMutability": "view",
      "type": "function"
    },
    {
      "inputs": [
        {
          "internalType": "address",
          "name": "account",
          "type": "address"
        }
      ],
      "name": "shares",
      "outputs": [
        {
          "internalType": "uint256",
          "name": "",
          "type": "uint256"
        }
      ],
      "stateMutability": "view",
      "type": "function"
    },
    {
      "inputs": [
        {
          "internalType": "contract IERC20",
          "name": "token",
          "type": "address"
        }
      ],
      "name": "totalReleased",
      "outputs": [
        {
          "internalType": "uint256",
          "name": "",
          "type": "uint256"
        }
      ],
      "stateMutability": "view",
      "type": "function"
    },
    {
      "inputs": [],
      "name": "totalReleased",
      "outputs": [
        {
          "internalType": "uint256",
          "name": "",
          "type": "uint256"
        }
      ],
      "stateMutability": "view",
      "type": "function"
    },
    {
      "inputs": [],
      "name": "totalShares",
      "outputs": [
        {
          "internalType": "uint256",
          "name": "",
          "type": "uint256"
        }
      ],
      "stateMutability": "view",
      "type": "function"
    },
    {
      "stateMutability": "payable",
      "type": "receive"
    }
  ],
  "transactionHash": "0xa2bef02557cd1fbdc7a147726a0a34e94b02217cc0e1b73e9b7af011bacff002",
  "args": [],
  "numDeployments": 1,
  "solcInputHash": "87ba016727d438d1ed10dd164bae6c22",
  "bytecode": "0x608060405234801561001057600080fd5b506116dc806100206000396000f3fe6080604052600436106100eb5760003560e01c80638b83209b1161008a578063ce7c2ac211610059578063ce7c2ac2146102dc578063d79779b21461031f578063e33b7de314610362578063e4fc6b6d1461037757600080fd5b80638b83209b146102145780639852595c14610259578063a3f8eace1461029c578063c45ac050146102bc57600080fd5b8063406072a9116100c6578063406072a9146101a157806348b75044146101c157806363453ae1146101e15780637fbbe46f1461020157600080fd5b8062dbe10914610146578063191655871461016a5780633a98ef391461018c57600080fd5b36610141577f6ef95f06320e7a25a04a175ca677b7052bdd97131872c2192525a629f51be770336040805173ffffffffffffffffffffffffffffffffffffffff90921682523460208301520160405180910390a1005b600080fd5b34801561015257600080fd5b506005545b6040519081526020015b60405180910390f35b34801561017657600080fd5b5061018a61018536600461128e565b61038c565b005b34801561019857600080fd5b50600154610157565b3480156101ad57600080fd5b506101576101bc3660046112ab565b61054c565b3480156101cd57600080fd5b5061018a6101dc3660046112ab565b610586565b3480156101ed57600080fd5b5061018a6101fc36600461128e565b610777565b61018a61020f3660046113f1565b6107b3565b34801561022057600080fd5b5061023461022f3660046114b3565b610a47565b60405173ffffffffffffffffffffffffffffffffffffffff9091168152602001610161565b34801561026557600080fd5b5061015761027436600461128e565b73ffffffffffffffffffffffffffffffffffffffff1660009081526004602052604090205490565b3480156102a857600080fd5b506101576102b736600461128e565b610a84565b3480156102c857600080fd5b506101576102d73660046112ab565b610ad9565b3480156102e857600080fd5b506101576102f736600461128e565b73ffffffffffffffffffffffffffffffffffffffff1660009081526003602052604090205490565b34801561032b57600080fd5b5061015761033a36600461128e565b73ffffffffffffffffffffffffffffffffffffffff1660009081526006602052604090205490565b34801561036e57600080fd5b50600254610157565b34801561038357600080fd5b5061018a610bb2565b73ffffffffffffffffffffffffffffffffffffffff81166000908152600360205260409020546104295760405162461bcd60e51b815260206004820152602660248201527f5061796d656e7453706c69747465723a206163636f756e7420686173206e6f2060448201527f736861726573000000000000000000000000000000000000000000000000000060648201526084015b60405180910390fd5b600061043482610a84565b9050806000036104ac5760405162461bcd60e51b815260206004820152602b60248201527f5061796d656e7453706c69747465723a206163636f756e74206973206e6f742060448201527f647565207061796d656e740000000000000000000000000000000000000000006064820152608401610420565b80600260008282546104be91906114fb565b909155505073ffffffffffffffffffffffffffffffffffffffff821660009081526004602052604090208054820190556104f88282610bec565b6040805173ffffffffffffffffffffffffffffffffffffffff84168152602081018390527fdf20fd1e76bc69d672e4814fafb2c449bba3a5369d8359adf9e05e6fde87b05691015b60405180910390a15050565b73ffffffffffffffffffffffffffffffffffffffff8083166000908152600760209081526040808320938516835292905220545b92915050565b73ffffffffffffffffffffffffffffffffffffffff811660009081526003602052604090205461061e5760405162461bcd60e51b815260206004820152602660248201527f5061796d656e7453706c69747465723a206163636f756e7420686173206e6f2060448201527f73686172657300000000000000000000000000000000000000000000000000006064820152608401610420565b600061062a8383610ad9565b9050806000036106a25760405162461bcd60e51b815260206004820152602b60248201527f5061796d656e7453706c69747465723a206163636f756e74206973206e6f742060448201527f647565207061796d656e740000000000000000000000000000000000000000006064820152608401610420565b73ffffffffffffffffffffffffffffffffffffffff8316600090815260066020526040812080548392906106d79084906114fb565b909155505073ffffffffffffffffffffffffffffffffffffffff808416600090815260076020908152604080832093861683529290522080548201905561071f838383610d12565b6040805173ffffffffffffffffffffffffffffffffffffffff8481168252602082018490528516917f3be5b7a71e84ed12875d241991c70855ac5817d847039e17a9d895c1ceb0f18a910160405180910390a2505050565b600061078260055490565b905060005b818110156107ae5761079c836101dc83610a47565b806107a68161150e565b915050610787565b505050565b600054610100900460ff16158080156107d35750600054600160ff909116105b806107ed5750303b1580156107ed575060005460ff166001145b61085f5760405162461bcd60e51b815260206004820152602e60248201527f496e697469616c697a61626c653a20636f6e747261637420697320616c72656160448201527f647920696e697469616c697a65640000000000000000000000000000000000006064820152608401610420565b600080547fffffffffffffffffffffffffffffffffffffffffffffffffffffffffffffff0016600117905580156108bd57600080547fffffffffffffffffffffffffffffffffffffffffffffffffffffffffffff00ff166101001790555b81518351146109345760405162461bcd60e51b815260206004820152603260248201527f5061796d656e7453706c69747465723a2070617965657320616e64207368617260448201527f6573206c656e677468206d69736d6174636800000000000000000000000000006064820152608401610420565b60008351116109855760405162461bcd60e51b815260206004820152601a60248201527f5061796d656e7453706c69747465723a206e6f207061796565730000000000006044820152606401610420565b60005b83518110156109df576109cd8482815181106109a6576109a6611546565b60200260200101518483815181106109c0576109c0611546565b6020026020010151610d9f565b806109d78161150e565b915050610988565b5080156107ae57600080547fffffffffffffffffffffffffffffffffffffffffffffffffffffffffffff00ff169055604051600181527f7f26b83ff96e1f2b6a682f133852f6798a09c465da95921460cefb38474024989060200160405180910390a1505050565b600060058281548110610a5c57610a5c611546565b60009182526020909120015473ffffffffffffffffffffffffffffffffffffffff1692915050565b600080610a9060025490565b610a9a90476114fb565b9050610ad28382610acd8673ffffffffffffffffffffffffffffffffffffffff1660009081526004602052604090205490565b610fec565b9392505050565b73ffffffffffffffffffffffffffffffffffffffff821660009081526006602052604081205481906040517f70a0823100000000000000000000000000000000000000000000000000000000815230600482015273ffffffffffffffffffffffffffffffffffffffff8616906370a0823190602401602060405180830381865afa158015610b6b573d6000803e3d6000fd5b505050506040513d601f19601f82011682018060405250810190610b8f9190611575565b610b9991906114fb565b9050610baa8382610acd878761054c565b949350505050565b6000610bbd60055490565b905060005b81811015610be857610bd661018582610a47565b80610be08161150e565b915050610bc2565b5050565b80471015610c3c5760405162461bcd60e51b815260206004820152601d60248201527f416464726573733a20696e73756666696369656e742062616c616e63650000006044820152606401610420565b60008273ffffffffffffffffffffffffffffffffffffffff168260405160006040518083038185875af1925050503d8060008114610c96576040519150601f19603f3d011682016040523d82523d6000602084013e610c9b565b606091505b50509050806107ae5760405162461bcd60e51b815260206004820152603a60248201527f416464726573733a20756e61626c6520746f2073656e642076616c75652c207260448201527f6563697069656e74206d617920686176652072657665727465640000000000006064820152608401610420565b6040805173ffffffffffffffffffffffffffffffffffffffff8416602482015260448082018490528251808303909101815260649091019091526020810180517bffffffffffffffffffffffffffffffffffffffffffffffffffffffff167fa9059cbb000000000000000000000000000000000000000000000000000000001790526107ae908490611037565b73ffffffffffffffffffffffffffffffffffffffff8216610e285760405162461bcd60e51b815260206004820152602c60248201527f5061796d656e7453706c69747465723a206163636f756e74206973207468652060448201527f7a65726f206164647265737300000000000000000000000000000000000000006064820152608401610420565b60008111610e785760405162461bcd60e51b815260206004820152601d60248201527f5061796d656e7453706c69747465723a207368617265732061726520300000006044820152606401610420565b73ffffffffffffffffffffffffffffffffffffffff821660009081526003602052604090205415610f115760405162461bcd60e51b815260206004820152602b60248201527f5061796d656e7453706c69747465723a206163636f756e7420616c726561647960448201527f20686173207368617265730000000000000000000000000000000000000000006064820152608401610420565b6005805460018082019092557f036b6384b5eca791c62761152d0c79bb0604c104a5fb6f4eb0703f3154bb3db00180547fffffffffffffffffffffffff00000000000000000000000000000000000000001673ffffffffffffffffffffffffffffffffffffffff8516908117909155600090815260036020526040902082905554610f9d9082906114fb565b6001556040805173ffffffffffffffffffffffffffffffffffffffff84168152602081018390527f40c340f65e17194d14ddddb073d3c9f888e3cb52b5aae0c6c7706b4fbc905fac9101610540565b60015473ffffffffffffffffffffffffffffffffffffffff841660009081526003602052604081205490918391611023908661158e565b61102d91906115a5565b610baa91906115e0565b6000611099826040518060400160405280602081526020017f5361666545524332303a206c6f772d6c6576656c2063616c6c206661696c65648152508573ffffffffffffffffffffffffffffffffffffffff1661112c9092919063ffffffff16565b90508051600014806110ba5750808060200190518101906110ba91906115f3565b6107ae5760405162461bcd60e51b815260206004820152602a60248201527f5361666545524332303a204552433230206f7065726174696f6e20646964206e60448201527f6f742073756363656564000000000000000000000000000000000000000000006064820152608401610420565b6060610baa8484600085856000808673ffffffffffffffffffffffffffffffffffffffff1685876040516111609190611639565b60006040518083038185875af1925050503d806000811461119d576040519150601f19603f3d011682016040523d82523d6000602084013e6111a2565b606091505b50915091506111b3878383876111be565b979650505050505050565b6060831561123a5782516000036112335773ffffffffffffffffffffffffffffffffffffffff85163b6112335760405162461bcd60e51b815260206004820152601d60248201527f416464726573733a2063616c6c20746f206e6f6e2d636f6e74726163740000006044820152606401610420565b5081610baa565b610baa838381511561124f5781518083602001fd5b8060405162461bcd60e51b81526004016104209190611655565b73ffffffffffffffffffffffffffffffffffffffff8116811461128b57600080fd5b50565b6000602082840312156112a057600080fd5b8135610ad281611269565b600080604083850312156112be57600080fd5b82356112c981611269565b915060208301356112d981611269565b809150509250929050565b7f4e487b7100000000000000000000000000000000000000000000000000000000600052604160045260246000fd5b604051601f82017fffffffffffffffffffffffffffffffffffffffffffffffffffffffffffffffe016810167ffffffffffffffff8111828210171561135a5761135a6112e4565b604052919050565b600067ffffffffffffffff82111561137c5761137c6112e4565b5060051b60200190565b600082601f83011261139757600080fd5b813560206113ac6113a783611362565b611313565b82815260059290921b840181019181810190868411156113cb57600080fd5b8286015b848110156113e657803583529183019183016113cf565b509695505050505050565b6000806040838503121561140457600080fd5b823567ffffffffffffffff8082111561141c57600080fd5b818501915085601f83011261143057600080fd5b813560206114406113a783611362565b82815260059290921b8401810191818101908984111561145f57600080fd5b948201945b8386101561148657853561147781611269565b82529482019490820190611464565b9650508601359250508082111561149c57600080fd5b506114a985828601611386565b9150509250929050565b6000602082840312156114c557600080fd5b5035919050565b7f4e487b7100000000000000000000000000000000000000000000000000000000600052601160045260246000fd5b80820180821115610580576105806114cc565b60007fffffffffffffffffffffffffffffffffffffffffffffffffffffffffffffffff820361153f5761153f6114cc565b5060010190565b7f4e487b7100000000000000000000000000000000000000000000000000000000600052603260045260246000fd5b60006020828403121561158757600080fd5b5051919050565b8082028115828204841417610580576105806114cc565b6000826115db577f4e487b7100000000000000000000000000000000000000000000000000000000600052601260045260246000fd5b500490565b81810381811115610580576105806114cc565b60006020828403121561160557600080fd5b81518015158114610ad257600080fd5b60005b83811015611630578181015183820152602001611618565b50506000910152565b6000825161164b818460208701611615565b9190910192915050565b6020815260008251806020840152611674816040850160208701611615565b601f017fffffffffffffffffffffffffffffffffffffffffffffffffffffffffffffffe016919091016040019291505056fea26469706673582212206d1edb9c50bf83f972a44f6ad5aaf023e04b4b37d19e4a4d9391b63927fffd7c64736f6c63430008130033",
  "devdoc": {
    "details": "This contract allows to split Ether payments among a group of accounts. The sender does not need to be aware that the Ether will be split in this way, since it is handled transparently by the contract. The split can be in equal parts or in any other arbitrary proportion. The way this is specified is by assigning each account to a number of shares. Of all the Ether that this contract receives, each account will then be able to claim an amount proportional to the percentage of total shares they were assigned. The distribution of shares is set at the time of contract deployment and can't be updated thereafter. `PaymentSplitter` follows a _pull payment_ model. This means that payments are not automatically forwarded to the accounts but kept in this contract, and the actual transfer is triggered as a separate step by calling the {release} function. NOTE: This contract assumes that ERC20 tokens will behave similarly to native tokens (Ether). Rebasing tokens, and tokens that apply fees during transfers, are likely to not be supported as expected. If in doubt, we encourage you to run tests before sending real value to this contract.",
    "events": {
      "Initialized(uint8)": {
        "details": "Triggered when the contract has been initialized or reinitialized."
      }
    },
    "kind": "dev",
    "methods": {
      "distribute()": {
        "details": "Release the owed amount of token to all of the payees."
      },
      "distribute(address)": {
        "details": "Release owed amount of the `token` to all of the payees."
      },
      "initialize(address[],uint256[])": {
        "details": "Creates an instance of `PaymentSplitter` where each account in `payees` is assigned the number of shares at the matching position in the `shares` array. All addresses in `payees` must be non-zero. Both arrays must have the same non-zero length, and there must be no duplicates in `payees`."
      },
      "payee(uint256)": {
        "details": "Getter for the address of the payee number `index`."
      },
      "payeeCount()": {
        "details": "Get the number of payees"
      },
      "releasable(address)": {
        "details": "Getter for the amount of payee's releasable Ether."
      },
      "releasable(address,address)": {
        "details": "Getter for the amount of payee's releasable `token` tokens. `token` should be the address of an IERC20 contract."
      },
      "release(address)": {
        "details": "Triggers a transfer to `account` of the amount of Ether they are owed, according to their percentage of the total shares and their previous withdrawals."
      },
      "release(address,address)": {
        "details": "Triggers a transfer to `account` of the amount of `token` tokens they are owed, according to their percentage of the total shares and their previous withdrawals. `token` must be the address of an IERC20 contract."
      },
      "released(address)": {
        "details": "Getter for the amount of Ether already released to a payee."
      },
      "released(address,address)": {
        "details": "Getter for the amount of `token` tokens already released to a payee. `token` should be the address of an IERC20 contract."
      },
      "shares(address)": {
        "details": "Getter for the amount of shares held by an account."
      },
      "totalReleased()": {
        "details": "Getter for the total amount of Ether already released."
      },
      "totalReleased(address)": {
        "details": "Getter for the total amount of `token` already released. `token` should be the address of an IERC20 contract."
      },
      "totalShares()": {
        "details": "Getter for the total shares held by payees."
      }
    },
    "title": "PaymentSplitter",
    "version": 1
  },
  "userdoc": {
    "kind": "user",
    "methods": {},
    "version": 1
  },
  "storageLayout": {
    "storage": [
      {
        "astId": 627,
        "contract": "contracts/splitter/Splitter.sol:Splitter",
        "label": "_initialized",
        "offset": 0,
        "slot": "0",
        "type": "t_uint8"
      },
      {
        "astId": 630,
        "contract": "contracts/splitter/Splitter.sol:Splitter",
        "label": "_initializing",
        "offset": 1,
        "slot": "0",
        "type": "t_bool"
      },
      {
        "astId": 11973,
        "contract": "contracts/splitter/Splitter.sol:Splitter",
        "label": "_totalShares",
        "offset": 0,
        "slot": "1",
        "type": "t_uint256"
      },
      {
        "astId": 11975,
        "contract": "contracts/splitter/Splitter.sol:Splitter",
        "label": "_totalReleased",
        "offset": 0,
        "slot": "2",
        "type": "t_uint256"
      },
      {
        "astId": 11979,
        "contract": "contracts/splitter/Splitter.sol:Splitter",
        "label": "_shares",
        "offset": 0,
        "slot": "3",
        "type": "t_mapping(t_address,t_uint256)"
      },
      {
        "astId": 11983,
        "contract": "contracts/splitter/Splitter.sol:Splitter",
        "label": "_released",
        "offset": 0,
        "slot": "4",
        "type": "t_mapping(t_address,t_uint256)"
      },
      {
        "astId": 11986,
        "contract": "contracts/splitter/Splitter.sol:Splitter",
        "label": "_payees",
        "offset": 0,
        "slot": "5",
        "type": "t_array(t_address)dyn_storage"
      },
      {
        "astId": 11991,
        "contract": "contracts/splitter/Splitter.sol:Splitter",
        "label": "_erc20TotalReleased",
        "offset": 0,
        "slot": "6",
        "type": "t_mapping(t_contract(IERC20)867,t_uint256)"
      },
      {
        "astId": 11998,
        "contract": "contracts/splitter/Splitter.sol:Splitter",
        "label": "_erc20Released",
        "offset": 0,
        "slot": "7",
        "type": "t_mapping(t_contract(IERC20)867,t_mapping(t_address,t_uint256))"
      }
    ],
    "types": {
      "t_address": {
        "encoding": "inplace",
        "label": "address",
        "numberOfBytes": "20"
      },
      "t_array(t_address)dyn_storage": {
        "base": "t_address",
        "encoding": "dynamic_array",
        "label": "address[]",
        "numberOfBytes": "32"
      },
      "t_bool": {
        "encoding": "inplace",
        "label": "bool",
        "numberOfBytes": "1"
      },
      "t_contract(IERC20)867": {
        "encoding": "inplace",
        "label": "contract IERC20",
        "numberOfBytes": "20"
      },
      "t_mapping(t_address,t_uint256)": {
        "encoding": "mapping",
        "key": "t_address",
        "label": "mapping(address => uint256)",
        "numberOfBytes": "32",
        "value": "t_uint256"
      },
      "t_mapping(t_contract(IERC20)867,t_mapping(t_address,t_uint256))": {
        "encoding": "mapping",
        "key": "t_contract(IERC20)867",
        "label": "mapping(contract IERC20 => mapping(address => uint256))",
        "numberOfBytes": "32",
        "value": "t_mapping(t_address,t_uint256)"
      },
      "t_mapping(t_contract(IERC20)867,t_uint256)": {
        "encoding": "mapping",
        "key": "t_contract(IERC20)867",
        "label": "mapping(contract IERC20 => uint256)",
        "numberOfBytes": "32",
        "value": "t_uint256"
      },
      "t_uint256": {
        "encoding": "inplace",
        "label": "uint256",
        "numberOfBytes": "32"
      },
      "t_uint8": {
        "encoding": "inplace",
        "label": "uint8",
        "numberOfBytes": "1"
      }
    }
  }
}