{
  "address": "0x5E0FFE0950231EfaD5972afce26f1a91F9B7a74b",
  "abi": [
    {
      "inputs": [
        {
          "internalType": "contract ISchemaRegistry",
          "name": "registry",
          "type": "address"
        }
      ],
      "stateMutability": "nonpayable",
      "type": "constructor"
    },
    {
      "inputs": [],
      "name": "AccessDenied",
      "type": "error"
    },
    {
      "inputs": [],
      "name": "AlreadyRevoked",
      "type": "error"
    },
    {
      "inputs": [],
      "name": "AlreadyRevokedOffchain",
      "type": "error"
    },
    {
      "inputs": [],
      "name": "AlreadyTimestamped",
      "type": "error"
    },
    {
      "inputs": [
        {
          "internalType": "uint256",
          "name": "chainid",
          "type": "uint256"
        }
      ],
      "name": "ChainNotSupported",
      "type": "error"
    },
    {
      "inputs": [],
      "name": "DeadlineExpired",
      "type": "error"
    },
    {
      "inputs": [],
      "name": "InsufficientValue",
      "type": "error"
    },
    {
      "inputs": [],
      "name": "InvalidAttestation",
      "type": "error"
    },
    {
      "inputs": [],
      "name": "InvalidAttestations",
      "type": "error"
    },
    {
      "inputs": [],
      "name": "InvalidExpirationTime",
      "type": "error"
    },
    {
      "inputs": [],
      "name": "InvalidLength",
      "type": "error"
    },
    {
      "inputs": [],
      "name": "InvalidNonce",
      "type": "error"
    },
    {
      "inputs": [],
      "name": "InvalidOffset",
      "type": "error"
    },
    {
      "inputs": [],
      "name": "InvalidRegistry",
      "type": "error"
    },
    {
      "inputs": [],
      "name": "InvalidRevocation",
      "type": "error"
    },
    {
      "inputs": [],
      "name": "InvalidRevocations",
      "type": "error"
    },
    {
      "inputs": [],
      "name": "InvalidSchema",
      "type": "error"
    },
    {
      "inputs": [],
      "name": "InvalidShortString",
      "type": "error"
    },
    {
      "inputs": [],
      "name": "InvalidSignature",
      "type": "error"
    },
    {
      "inputs": [],
      "name": "InvalidVerifier",
      "type": "error"
    },
    {
      "inputs": [],
      "name": "Irrevocable",
      "type": "error"
    },
    {
      "inputs": [],
      "name": "NotFound",
      "type": "error"
    },
    {
      "inputs": [],
      "name": "NotPayable",
      "type": "error"
    },
    {
      "inputs": [
        {
          "internalType": "string",
          "name": "str",
          "type": "string"
        }
      ],
      "name": "StringTooLong",
      "type": "error"
    },
    {
      "inputs": [],
      "name": "WrongSchema",
      "type": "error"
    },
    {
      "anonymous": false,
      "inputs": [],
      "name": "EIP712DomainChanged",
      "type": "event"
    },
    {
      "inputs": [
        {
          "components": [
            {
              "internalType": "bytes32",
              "name": "schema",
              "type": "bytes32"
            },
            {
              "components": [
                {
                  "internalType": "address",
                  "name": "recipient",
                  "type": "address"
                },
                {
                  "internalType": "uint64",
                  "name": "expirationTime",
                  "type": "uint64"
                },
                {
                  "internalType": "bool",
                  "name": "revocable",
                  "type": "bool"
                },
                {
                  "internalType": "bytes32",
                  "name": "refUID",
                  "type": "bytes32"
                },
                {
                  "internalType": "bytes",
                  "name": "data",
                  "type": "bytes"
                },
                {
                  "internalType": "uint256",
                  "name": "value",
                  "type": "uint256"
                }
              ],
              "internalType": "struct AttestationRequestData",
              "name": "data",
              "type": "tuple"
            }
          ],
          "internalType": "struct AttestationRequest",
          "name": "request",
          "type": "tuple"
        }
      ],
      "name": "attest",
      "outputs": [
        {
          "internalType": "bytes32",
          "name": "",
          "type": "bytes32"
        }
      ],
      "stateMutability": "payable",
      "type": "function"
    },
    {
      "inputs": [
        {
          "components": [
            {
              "internalType": "bytes32",
              "name": "schema",
              "type": "bytes32"
            },
            {
              "components": [
                {
                  "internalType": "address",
                  "name": "recipient",
                  "type": "address"
                },
                {
                  "internalType": "uint64",
                  "name": "expirationTime",
                  "type": "uint64"
                },
                {
                  "internalType": "bool",
                  "name": "revocable",
                  "type": "bool"
                },
                {
                  "internalType": "bytes32",
                  "name": "refUID",
                  "type": "bytes32"
                },
                {
                  "internalType": "bytes",
                  "name": "data",
                  "type": "bytes"
                },
                {
                  "internalType": "uint256",
                  "name": "value",
                  "type": "uint256"
                }
              ],
              "internalType": "struct AttestationRequestData",
              "name": "data",
              "type": "tuple"
            },
            {
              "components": [
                {
                  "internalType": "uint8",
                  "name": "v",
                  "type": "uint8"
                },
                {
                  "internalType": "bytes32",
                  "name": "r",
                  "type": "bytes32"
                },
                {
                  "internalType": "bytes32",
                  "name": "s",
                  "type": "bytes32"
                }
              ],
              "internalType": "struct Signature",
              "name": "signature",
              "type": "tuple"
            },
            {
              "internalType": "address",
              "name": "attester",
              "type": "address"
            },
            {
              "internalType": "uint64",
              "name": "deadline",
              "type": "uint64"
            }
          ],
          "internalType": "struct DelegatedAttestationRequest",
          "name": "delegatedRequest",
          "type": "tuple"
        }
      ],
      "name": "attestByDelegation",
      "outputs": [
        {
          "internalType": "bytes32",
          "name": "",
          "type": "bytes32"
        }
      ],
      "stateMutability": "payable",
      "type": "function"
    },
    {
      "inputs": [
        {
          "internalType": "bytes32",
          "name": "data",
          "type": "bytes32"
        }
      ],
      "name": "bytes32ToString",
      "outputs": [
        {
          "internalType": "string",
          "name": "",
          "type": "string"
        }
      ],
      "stateMutability": "pure",
      "type": "function"
    },
    {
      "inputs": [
        {
          "internalType": "bytes",
          "name": "data",
          "type": "bytes"
        }
      ],
      "name": "bytesToString",
      "outputs": [
        {
          "internalType": "string",
          "name": "",
          "type": "string"
        }
      ],
      "stateMutability": "pure",
      "type": "function"
    },
    {
      "inputs": [],
      "name": "eip712Domain",
      "outputs": [
        {
          "internalType": "bytes1",
          "name": "fields",
          "type": "bytes1"
        },
        {
          "internalType": "string",
          "name": "name",
          "type": "string"
        },
        {
          "internalType": "string",
          "name": "version",
          "type": "string"
        },
        {
          "internalType": "uint256",
          "name": "chainId",
          "type": "uint256"
        },
        {
          "internalType": "address",
          "name": "verifyingContract",
          "type": "address"
        },
        {
          "internalType": "bytes32",
          "name": "salt",
          "type": "bytes32"
        },
        {
          "internalType": "uint256[]",
          "name": "extensions",
          "type": "uint256[]"
        }
      ],
      "stateMutability": "view",
      "type": "function"
    },
    {
      "inputs": [],
      "name": "getAttestTypeHash",
      "outputs": [
        {
          "internalType": "bytes32",
          "name": "",
          "type": "bytes32"
        }
      ],
      "stateMutability": "pure",
      "type": "function"
    },
    {
      "inputs": [
        {
          "internalType": "bytes32",
          "name": "uid",
          "type": "bytes32"
        }
      ],
      "name": "getAttestation",
      "outputs": [
        {
          "components": [
            {
              "internalType": "bytes32",
              "name": "uid",
              "type": "bytes32"
            },
            {
              "internalType": "bytes32",
              "name": "schema",
              "type": "bytes32"
            },
            {
              "internalType": "uint64",
              "name": "time",
              "type": "uint64"
            },
            {
              "internalType": "uint64",
              "name": "expirationTime",
              "type": "uint64"
            },
            {
              "internalType": "uint64",
              "name": "revocationTime",
              "type": "uint64"
            },
            {
              "internalType": "bytes32",
              "name": "refUID",
              "type": "bytes32"
            },
            {
              "internalType": "address",
              "name": "recipient",
              "type": "address"
            },
            {
              "internalType": "address",
              "name": "attester",
              "type": "address"
            },
            {
              "internalType": "bool",
              "name": "revocable",
              "type": "bool"
            },
            {
              "internalType": "bytes",
              "name": "data",
              "type": "bytes"
            }
          ],
          "internalType": "struct Attestation",
          "name": "",
          "type": "tuple"
        }
      ],
      "stateMutability": "view",
      "type": "function"
    },
    {
      "inputs": [],
      "name": "getDomainSeparator",
      "outputs": [
        {
          "internalType": "bytes32",
          "name": "",
          "type": "bytes32"
        }
      ],
      "stateMutability": "view",
      "type": "function"
    },
    {
      "inputs": [],
      "name": "getName",
      "outputs": [
        {
          "internalType": "string",
          "name": "",
          "type": "string"
        }
      ],
      "stateMutability": "view",
      "type": "function"
    },
    {
      "inputs": [
        {
          "internalType": "address",
          "name": "account",
          "type": "address"
        }
      ],
      "name": "getNonce",
      "outputs": [
        {
          "internalType": "uint256",
          "name": "",
          "type": "uint256"
        }
      ],
      "stateMutability": "view",
      "type": "function"
    },
    {
      "inputs": [],
      "name": "getRevokeTypeHash",
      "outputs": [
        {
          "internalType": "bytes32",
          "name": "",
          "type": "bytes32"
        }
      ],
      "stateMutability": "pure",
      "type": "function"
    },
    {
      "inputs": [],
      "name": "getSchemaRegistry",
      "outputs": [
        {
          "internalType": "contract ISchemaRegistry",
          "name": "",
          "type": "address"
        }
      ],
      "stateMutability": "view",
      "type": "function"
    },
    {
      "inputs": [],
      "name": "getTime",
      "outputs": [
        {
          "internalType": "uint256",
          "name": "",
          "type": "uint256"
        }
      ],
      "stateMutability": "view",
      "type": "function"
    },
    {
      "inputs": [
        {
          "internalType": "uint256",
          "name": "newNonce",
          "type": "uint256"
        }
      ],
      "name": "increaseNonce",
      "outputs": [],
      "stateMutability": "nonpayable",
      "type": "function"
    },
    {
      "inputs": [
        {
          "internalType": "bytes32",
          "name": "uid",
          "type": "bytes32"
        }
      ],
      "name": "isAttestationValid",
      "outputs": [
        {
          "internalType": "bool",
          "name": "",
          "type": "bool"
        }
      ],
      "stateMutability": "view",
      "type": "function"
    },
    {
      "inputs": [
        {
          "components": [
            {
              "internalType": "bytes32",
              "name": "schema",
              "type": "bytes32"
            },
            {
              "components": [
                {
                  "internalType": "address",
                  "name": "recipient",
                  "type": "address"
                },
                {
                  "internalType": "uint64",
                  "name": "expirationTime",
                  "type": "uint64"
                },
                {
                  "internalType": "bool",
                  "name": "revocable",
                  "type": "bool"
                },
                {
                  "internalType": "bytes32",
                  "name": "refUID",
                  "type": "bytes32"
                },
                {
                  "internalType": "bytes",
                  "name": "data",
                  "type": "bytes"
                },
                {
                  "internalType": "uint256",
                  "name": "value",
                  "type": "uint256"
                }
              ],
              "internalType": "struct AttestationRequestData[]",
              "name": "data",
              "type": "tuple[]"
            }
          ],
          "internalType": "struct MultiAttestationRequest[]",
          "name": "multiRequests",
          "type": "tuple[]"
        }
      ],
      "name": "multiAttest",
      "outputs": [
        {
          "internalType": "bytes32[]",
          "name": "",
          "type": "bytes32[]"
        }
      ],
      "stateMutability": "payable",
      "type": "function"
    },
    {
      "inputs": [
        {
          "components": [
            {
              "internalType": "bytes32",
              "name": "schema",
              "type": "bytes32"
            },
            {
              "components": [
                {
                  "internalType": "address",
                  "name": "recipient",
                  "type": "address"
                },
                {
                  "internalType": "uint64",
                  "name": "expirationTime",
                  "type": "uint64"
                },
                {
                  "internalType": "bool",
                  "name": "revocable",
                  "type": "bool"
                },
                {
                  "internalType": "bytes32",
                  "name": "refUID",
                  "type": "bytes32"
                },
                {
                  "internalType": "bytes",
                  "name": "data",
                  "type": "bytes"
                },
                {
                  "internalType": "uint256",
                  "name": "value",
                  "type": "uint256"
                }
              ],
              "internalType": "struct AttestationRequestData[]",
              "name": "data",
              "type": "tuple[]"
            },
            {
              "components": [
                {
                  "internalType": "uint8",
                  "name": "v",
                  "type": "uint8"
                },
                {
                  "internalType": "bytes32",
                  "name": "r",
                  "type": "bytes32"
                },
                {
                  "internalType": "bytes32",
                  "name": "s",
                  "type": "bytes32"
                }
              ],
              "internalType": "struct Signature[]",
              "name": "signatures",
              "type": "tuple[]"
            },
            {
              "internalType": "address",
              "name": "attester",
              "type": "address"
            },
            {
              "internalType": "uint64",
              "name": "deadline",
              "type": "uint64"
            }
          ],
          "internalType": "struct MultiDelegatedAttestationRequest[]",
          "name": "multiDelegatedRequests",
          "type": "tuple[]"
        }
      ],
      "name": "multiAttestByDelegation",
      "outputs": [
        {
          "internalType": "bytes32[]",
          "name": "",
          "type": "bytes32[]"
        }
      ],
      "stateMutability": "payable",
      "type": "function"
    },
    {
      "inputs": [
        {
          "components": [
            {
              "internalType": "bytes32",
              "name": "schema",
              "type": "bytes32"
            },
            {
              "components": [
                {
                  "internalType": "bytes32",
                  "name": "uid",
                  "type": "bytes32"
                },
                {
                  "internalType": "uint256",
                  "name": "value",
                  "type": "uint256"
                }
              ],
              "internalType": "struct RevocationRequestData[]",
              "name": "data",
              "type": "tuple[]"
            }
          ],
          "internalType": "struct MultiRevocationRequest[]",
          "name": "multiRequests",
          "type": "tuple[]"
        }
      ],
      "name": "multiRevoke",
      "outputs": [],
      "stateMutability": "payable",
      "type": "function"
    },
    {
      "inputs": [
        {
          "components": [
            {
              "internalType": "bytes32",
              "name": "schema",
              "type": "bytes32"
            },
            {
              "components": [
                {
                  "internalType": "bytes32",
                  "name": "uid",
                  "type": "bytes32"
                },
                {
                  "internalType": "uint256",
                  "name": "value",
                  "type": "uint256"
                }
              ],
              "internalType": "struct RevocationRequestData[]",
              "name": "data",
              "type": "tuple[]"
            },
            {
              "components": [
                {
                  "internalType": "uint8",
                  "name": "v",
                  "type": "uint8"
                },
                {
                  "internalType": "bytes32",
                  "name": "r",
                  "type": "bytes32"
                },
                {
                  "internalType": "bytes32",
                  "name": "s",
                  "type": "bytes32"
                }
              ],
              "internalType": "struct Signature[]",
              "name": "signatures",
              "type": "tuple[]"
            },
            {
              "internalType": "address",
              "name": "revoker",
              "type": "address"
            },
            {
              "internalType": "uint64",
              "name": "deadline",
              "type": "uint64"
            }
          ],
          "internalType": "struct MultiDelegatedRevocationRequest[]",
          "name": "multiDelegatedRequests",
          "type": "tuple[]"
        }
      ],
      "name": "multiRevokeByDelegation",
      "outputs": [],
      "stateMutability": "payable",
      "type": "function"
    },
    {
      "inputs": [
        {
          "internalType": "bytes32[]",
          "name": "data",
          "type": "bytes32[]"
        }
      ],
      "name": "multiRevokeOffchain",
      "outputs": [
        {
          "internalType": "uint64",
          "name": "",
          "type": "uint64"
        }
      ],
      "stateMutability": "nonpayable",
      "type": "function"
    },
    {
      "inputs": [
        {
          "internalType": "bytes32[]",
          "name": "data",
          "type": "bytes32[]"
        }
      ],
      "name": "multiTimestamp",
      "outputs": [
        {
          "internalType": "uint64",
          "name": "",
          "type": "uint64"
        }
      ],
      "stateMutability": "nonpayable",
      "type": "function"
    },
    {
      "inputs": [
        {
          "internalType": "address",
          "name": "",
          "type": "address"
        },
        {
          "internalType": "address",
          "name": "",
          "type": "address"
        },
        {
          "internalType": "uint256",
          "name": "",
          "type": "uint256"
        },
        {
          "internalType": "bytes",
          "name": "",
          "type": "bytes"
        }
      ],
      "name": "onERC721Received",
      "outputs": [
        {
          "internalType": "bytes4",
          "name": "",
          "type": "bytes4"
        }
      ],
      "stateMutability": "pure",
      "type": "function"
    },
    {
      "inputs": [
        {
          "components": [
            {
              "internalType": "bytes32",
              "name": "schema",
              "type": "bytes32"
            },
            {
              "components": [
                {
                  "internalType": "bytes32",
                  "name": "uid",
                  "type": "bytes32"
                },
                {
                  "internalType": "uint256",
                  "name": "value",
                  "type": "uint256"
                }
              ],
              "internalType": "struct RevocationRequestData",
              "name": "data",
              "type": "tuple"
            }
          ],
          "internalType": "struct RevocationRequest",
          "name": "request",
          "type": "tuple"
        }
      ],
      "name": "revoke",
      "outputs": [],
      "stateMutability": "payable",
      "type": "function"
    },
    {
      "inputs": [
        {
          "components": [
            {
              "internalType": "bytes32",
              "name": "schema",
              "type": "bytes32"
            },
            {
              "components": [
                {
                  "internalType": "bytes32",
                  "name": "uid",
                  "type": "bytes32"
                },
                {
                  "internalType": "uint256",
                  "name": "value",
                  "type": "uint256"
                }
              ],
              "internalType": "struct RevocationRequestData",
              "name": "data",
              "type": "tuple"
            },
            {
              "components": [
                {
                  "internalType": "uint8",
                  "name": "v",
                  "type": "uint8"
                },
                {
                  "internalType": "bytes32",
                  "name": "r",
                  "type": "bytes32"
                },
                {
                  "internalType": "bytes32",
                  "name": "s",
                  "type": "bytes32"
                }
              ],
              "internalType": "struct Signature",
              "name": "signature",
              "type": "tuple"
            },
            {
              "internalType": "address",
              "name": "revoker",
              "type": "address"
            },
            {
              "internalType": "uint64",
              "name": "deadline",
              "type": "uint64"
            }
          ],
          "internalType": "struct DelegatedRevocationRequest",
          "name": "delegatedRequest",
          "type": "tuple"
        }
      ],
      "name": "revokeByDelegation",
      "outputs": [],
      "stateMutability": "payable",
      "type": "function"
    },
    {
      "inputs": [
        {
          "internalType": "bytes32",
          "name": "data",
          "type": "bytes32"
        }
      ],
      "name": "revokeOffchain",
      "outputs": [
        {
          "internalType": "uint64",
          "name": "",
          "type": "uint64"
        }
      ],
      "stateMutability": "nonpayable",
      "type": "function"
    },
    {
      "inputs": [
        {
          "internalType": "uint256",
          "name": "",
          "type": "uint256"
        }
      ],
      "name": "tables",
      "outputs": [
        {
          "internalType": "string",
          "name": "",
          "type": "string"
        }
      ],
      "stateMutability": "view",
      "type": "function"
    },
    {
      "inputs": [
        {
          "internalType": "bytes32",
          "name": "data",
          "type": "bytes32"
        }
      ],
      "name": "timestamp",
      "outputs": [
        {
          "internalType": "uint64",
          "name": "",
          "type": "uint64"
        }
      ],
      "stateMutability": "nonpayable",
      "type": "function"
    },
    {
      "inputs": [],
      "name": "version",
      "outputs": [
        {
          "internalType": "string",
          "name": "",
          "type": "string"
        }
      ],
      "stateMutability": "view",
      "type": "function"
    }
  ],
  "transactionHash": "0x81d694f632915790b76743c4bc19c86c762a96928a6399e19f39095a063ab1b6",
  "args": [
    "0x38Db6ff229c7d357ed34126fBd7F9200553eb245"
  ],
  "numDeployments": 1,
  "solcInputHash": "49ec6d5a7c331538ab42d44533de0f70",
  "bytecode": "0x6101e06040523480156200001257600080fd5b506040516200650a3803806200650a833981016040819052620000359162000a72565b604080518082018252600381526254415360e81b60208083019190915282518084019093526005835264302e302e3160d81b908301526000608081905260a0819052600160c0529091908290829062000090908390620005e2565b61018052620000a1816001620005e2565b6101a052815160208084019190912061014052815190820120610160524661010052620001326101405161016051604080517f8b73c3c69bb8fe3d512ecc4cf759cc79239f7b179b0ffacaa9a75d522b39400f60208201529081019290925260608201524660808201523060a082015260009060c00160405160208183030381529060405280519060200120905090565b60e0525050306101205260026200014a838262000b49565b5050506001600160a01b03811662000175576040516311a1e69760e01b815260040160405180910390fd5b6001600160a01b0381166101c0526200018d6200061b565b600460006101000a8154816001600160a01b0302191690836001600160a01b031602179055506005620001fb6040518060c00160405280608881526020016200643b6088913960408051808201909152600b81526a30ba3a32b9ba30ba34b7b760a91b6020820152620007df565b815460018101835560009283526020909220909101906200021d908262000b49565b50600562000265604051806080016040528060478152602001620064c36047913960408051808201909152600a8152693932bb37b1b0ba34b7b760b11b6020820152620007df565b8154600181018355600092835260209092209091019062000287908262000b49565b506005620002fb6040518060400160405280601c81526020017f75696420746578742c2074696d657374616d70656441742074657874000000008152506040518060400160405280601281526020017106f6666436861696e5f74696d657374616d760741b815250620007df60201b60201c565b815460018101835560009283526020909220909101906200031d908262000b49565b5060056200036e604051806060016040528060268152602001620064156026913960408051808201909152601381527237b33321b430b4b72fb932bb37b1b0ba34b7b760691b6020820152620007df565b8154600181018355600092835260209092209091019062000390908262000b49565b50600480546040516361a23d0f60e01b81526001600160a01b03909116916361a23d0f91620003c59130916005910162000c15565b6000604051808303816000875af1158015620003e5573d6000803e3d6000fd5b505050506040513d6000823e601f3d908101601f191682016040526200040f919081019062000cfd565b8051620004259160079160209091019062000a0b565b5060066200047e6040518060400160405280600b81526020016a30ba3a32b9ba30ba34b7b760a91b815250600760008154811062000467576200046762000dc6565b90600052602060002001546200081960201b60201c565b81546001810183556000928352602090922090910190620004a0908262000b49565b506006620004e16040518060400160405280600a8152602001693932bb37b1b0ba34b7b760b11b815250600760018154811062000467576200046762000dc6565b8154600181018355600092835260209092209091019062000503908262000b49565b5060066200054c6040518060400160405280601281526020017106f6666436861696e5f74696d657374616d760741b815250600760028154811062000467576200046762000dc6565b815460018101835560009283526020909220909101906200056e908262000b49565b506006620005b86040518060400160405280601381526020017237b33321b430b4b72fb932bb37b1b0ba34b7b760691b815250600760038154811062000467576200046762000dc6565b81546001810183556000928352602090922090910190620005da908262000b49565b505062000f48565b60006020835110156200060257620005fa8362000846565b905062000615565b816200060f848262000b49565b5060ff90505b92915050565b6000466001036200063f575073012969f7e3439a9b04025b5a049eb9bad82a8c1290565b46600a0362000661575073fad44bf5b843de943a09d4f3e84949a11d3aa3e690565b4661a4b103620006845750739abd75e8640871a5a20d3b4ee6330a04c962affd90565b4661a4ba03620006a75750731a22854c5b1642760a827f20137a67930ae108d290565b46608903620006c95750735c4e6a9e5c1e1bf445a062006faf19ea6c49afea90565b4661013a03620006ec57507359ef8bf2d6c102b4c42aef9189e1a9f0abfd652d90565b466005036200070e575073da8ea22d092307874f30a1f277d1388dca0ba97a90565b466101a40362000731575073c72e8a7be04f2469f8c2db3f1bdf69a7d516abba90565b4662066eed0362000755575073033f69e8d119205089ab15d340f5b797732f646b90565b466201388103620007795750734b48841d4b32c4650e4abc117a03fe8b51f38f6890565b46610c45036200079c5750730b9737ab4b3e5303cb67db031b509697e31c02d390565b46617a6903620007bf575073e7f1725e7734ce288f8367e1bb143e90bb3f051290565b60405163264e42cf60e01b81524660048201526024015b60405180910390fd5b606081620007ed4662000889565b84604051602001620008029392919062000e02565b604051602081830303815290604052905092915050565b606082620008274662000889565b620008328462000889565b604051602001620008029392919062000e8e565b600080829050601f8151111562000874578260405163305a27a960e01b8152600401620007d6919062000eee565b8051620008818262000f23565b179392505050565b60606000620008988362000922565b60010190506000816001600160401b03811115620008ba57620008ba62000aa4565b6040519080825280601f01601f191660200182016040528015620008e5576020820181803683370190505b5090508181016020015b600019016f181899199a1a9b1b9c1cb0b131b232b360811b600a86061a8153600a8504945084620008ef57509392505050565b6000807a184f03e93ff9f4daa797ed6e38ed64bf6a1f01000000000000000083106200096c577a184f03e93ff9f4daa797ed6e38ed64bf6a1f010000000000000000830492506040015b6d04ee2d6d415b85acef8100000000831062000999576d04ee2d6d415b85acef8100000000830492506020015b662386f26fc100008310620009b857662386f26fc10000830492506010015b6305f5e1008310620009d1576305f5e100830492506008015b6127108310620009e657612710830492506004015b60648310620009f9576064830492506002015b600a8310620006155760010192915050565b82805482825590600052602060002090810192821562000a49579160200282015b8281111562000a4957825182559160200191906001019062000a2c565b5062000a5792915062000a5b565b5090565b5b8082111562000a57576000815560010162000a5c565b60006020828403121562000a8557600080fd5b81516001600160a01b038116811462000a9d57600080fd5b9392505050565b634e487b7160e01b600052604160045260246000fd5b600181811c9082168062000acf57607f821691505b60208210810362000af057634e487b7160e01b600052602260045260246000fd5b50919050565b601f82111562000b4457600081815260208120601f850160051c8101602086101562000b1f5750805b601f850160051c820191505b8181101562000b405782815560010162000b2b565b5050505b505050565b81516001600160401b0381111562000b655762000b6562000aa4565b62000b7d8162000b76845462000aba565b8462000af6565b602080601f83116001811462000bb5576000841562000b9c5750858301515b600019600386901b1c1916600185901b17855562000b40565b600085815260208120601f198616915b8281101562000be65788860151825594840194600190910190840162000bc5565b508582101562000c055787850151600019600388901b60f8161c191681555b5050505050600190811b01905550565b60006040820160018060a01b0385168352602060408185015281855480845260608601915060059350606081851b8701016000888152848120815b8481101562000ced57605f198a850301865282825462000c708162000aba565b8087526001828116801562000c8e576001811462000ca85762000cd5565b60ff198416898d01528215158d1b89018c01945062000cd5565b8688528b8820885b8481101562000ccd5781548b82018f0152908301908d0162000cb0565b8a018d019550505b50988a01989296505050919091019060010162000c50565b50919a9950505050505050505050565b6000602080838503121562000d1157600080fd5b82516001600160401b038082111562000d2957600080fd5b818501915085601f83011262000d3e57600080fd5b81518181111562000d535762000d5362000aa4565b8060051b604051601f19603f8301168101818110858211171562000d7b5762000d7b62000aa4565b60405291825284820192508381018501918883111562000d9a57600080fd5b938501935b8285101562000dba5784518452938501939285019262000d9f565b98975050505050505050565b634e487b7160e01b600052603260045260246000fd5b60005b8381101562000df957818101518382015260200162000ddf565b50506000910152565b6c021a922a0aa22902a20a126229609d1b81526000845162000e2c81600d85016020890162000ddc565b605f60f81b600d91840191820152845162000e4f81600e84016020890162000ddc565b600560fb1b600e9290910191820152835162000e7381600f84016020880162000ddc565b602960f81b600f929091019182015260100195945050505050565b6000845162000ea281846020890162000ddc565b8083019050605f60f81b808252855162000ec4816001850160208a0162000ddc565b6001920191820152835162000ee181600284016020880162000ddc565b0160020195945050505050565b602081526000825180602084015262000f0f81604085016020870162000ddc565b601f01601f19169190910160400192915050565b8051602080830151919081101562000af05760001960209190910360031b1b16919050565b60805160a05160c05160e05161010051610120516101405161016051610180516101a0516101c05161543862000fdd6000396000818161056e015281816117760152611dde01526000610ee301526000610eb9015260006125dd015260006125b5015260006125100152600061253a0152600061256401526000610d7401526000610d4b01526000610d2201526154386000f3fe6080604052600436106101b75760003560e01c806371671bf2116100ec578063b83010d31161008a578063e71ff36511610064578063e71ff3651461051f578063ed24911d1461053f578063f10b5cc814610554578063f17325e71461059857600080fd5b8063b83010d31461048d578063cf190f34146104c0578063e30bb563146104e057600080fd5b80639201de55116100c65780639201de551461041a578063954115251461043a578063a3112a641461044d578063a6d4dbc71461047a57600080fd5b806371671bf2146103b257806379f7573a146103d257806384b0196e146103f257600080fd5b80633c042715116101595780634cb7e9e5116101335780634cb7e9e51461034e5780634d0030701461036157806354fd4d5014610381578063557ed1ba1461039657600080fd5b80633c0427151461030857806344adc90e1461031b578063469262671461033b57600080fd5b8063150b7a0211610195578063150b7a021461024b57806317d7de7c146102905780632d0335ab146102b257806339614e4f146102e857600080fd5b80630eabf660146101bc57806312b11a17146101d157806313893f6114610213575b600080fd5b6101cf6101ca366004613db0565b6105ab565b005b3480156101dd57600080fd5b507ff83bb2b0ede93a840239f7e701a54d9bc35f03701f51ae153d601c6947ff3d3f5b6040519081526020015b60405180910390f35b34801561021f57600080fd5b5061023361022e366004613db0565b6106fd565b6040516001600160401b03909116815260200161020a565b34801561025757600080fd5b50610277610266366004613e16565b630a85bd0160e11b95945050505050565b6040516001600160e01b0319909116815260200161020a565b34801561029c57600080fd5b506102a5610742565b60405161020a9190613f04565b3480156102be57600080fd5b506102006102cd366004613f17565b6001600160a01b031660009081526003602052604090205490565b3480156102f457600080fd5b506102a5610303366004614041565b6107d4565b61020061031636600461407d565b610997565b61032e610329366004613db0565b610a7c565b60405161020a91906140b7565b6101cf6103493660046140fb565b610bc5565b6101cf61035c366004613db0565b610c49565b34801561036d57600080fd5b5061023361037c366004614113565b610d0e565b34801561038d57600080fd5b506102a5610d1b565b3480156103a257600080fd5b50426001600160401b0316610200565b3480156103be57600080fd5b506102a56103cd366004614113565b610dbe565b3480156103de57600080fd5b506101cf6103ed366004614113565b610e6a565b3480156103fe57600080fd5b50610407610eab565b60405161020a9796959493929190614167565b34801561042657600080fd5b506102a5610435366004614113565b610f33565b61032e610448366004613db0565b6110c1565b34801561045957600080fd5b5061046d610468366004614113565b6112ee565b60405161020a9190614293565b6101cf6104883660046142a6565b611435565b34801561049957600080fd5b507f2d4116d8c9824e4c316453e5c2843a1885580374159ce8768603c49085ef424c610200565b3480156104cc57600080fd5b506102336104db366004614113565b6114da565b3480156104ec57600080fd5b5061050f6104fb366004614113565b6000908152600a6020526040902054151590565b604051901515815260200161020a565b34801561052b57600080fd5b5061023361053a366004613db0565b6114e8565b34801561054b57600080fd5b50610200611520565b34801561056057600080fd5b506040516001600160a01b037f000000000000000000000000000000000000000000000000000000000000000016815260200161020a565b6102006105a63660046142b9565b61152f565b348160005b818110156106f6576000198201811460008686848181106105d3576105d36142f3565b90506020028101906105e59190614309565b6105ee9061448b565b602081015180519192509080158061060b57508260400151518114155b156106295760405163251f56a160e21b815260040160405180910390fd5b60005b818110156106bf576106b76040518060a001604052808660000151815260200185848151811061065e5761065e6142f3565b6020026020010151815260200186604001518481518110610681576106816142f3565b6020026020010151815260200186606001516001600160a01b0316815260200186608001516001600160401b03168152506115cf565b60010161062c565b506106d583600001518385606001518a88611753565b6106df908861459b565b9650505050506106ef8160010190565b90506105b0565b5050505050565b60004282825b818110156107365761072e33878784818110610721576107216142f3565b9050602002013585611b8a565b600101610703565b50909150505b92915050565b606060028054610751906145ae565b80601f016020809104026020016040519081016040528092919081815260200182805461077d906145ae565b80156107ca5780601f1061079f576101008083540402835291602001916107ca565b820191906000526020600020905b8154815290600101906020018083116107ad57829003601f168201915b5050505050905090565b60606000825160026107e691906145e2565b6001600160401b038111156107fd576107fd613f34565b6040519080825280601f01601f191660200182016040528015610827576020820181803683370190505b5060408051808201909152601081526f181899199a1a9b1b9c1cb0b131b232b360811b602082015290915060005b845181101561096d57818251868381518110610873576108736142f3565b0160200151610885919060f81c61460f565b81518110610895576108956142f3565b01602001516001600160f81b031916836108b08360026145e2565b815181106108c0576108c06142f3565b60200101906001600160f81b031916908160001a9053508182518683815181106108ec576108ec6142f3565b01602001516108fe919060f81c614623565b8151811061090e5761090e6142f3565b01602001516001600160f81b031916836109298360026145e2565b610934906001614637565b81518110610944576109446142f3565b60200101906001600160f81b031916908160001a905350806109658161464a565b915050610855565b508160405160200161097f919061467f565b60405160208183030381529060405292505050919050565b60006109aa6109a58361476c565b611c15565b604080516001808252818301909252600091816020015b6040805160c081018252600080825260208083018290529282018190526060808301829052608083015260a082015282526000199092019101816109c1579050509050610a1160208401846147e6565b610a1a906147fc565b81600081518110610a2d57610a2d6142f3565b6020908102919091010152610a56833582610a4e60c0870160a08801613f17565b346001611d52565b60200151600081518110610a6c57610a6c6142f3565b6020026020010151915050919050565b6060816000816001600160401b03811115610a9957610a99613f34565b604051908082528060200260200182016040528015610acc57816020015b6060815260200190600190039081610ab75790505b509050600034815b84811015610baf576000198501811436898984818110610af657610af66142f3565b9050602002810190610b089190614808565b9050610b17602082018261481e565b9050600003610b395760405163251f56a160e21b815260040160405180910390fd5b6000610b5e8235610b4d602085018561481e565b610b5691614867565b338887611d52565b8051909150610b6d908661459b565b94508060200151878581518110610b8657610b866142f3565b602002602001018190525080602001515186019550505050610ba88160010190565b9050610ad4565b50610bba838361226d565b979650505050505050565b604080516001808252818301909252600091816020015b6040805180820190915260008082526020820152815260200190600190039081610bdc579050509050610c17368390038301602084016148da565b81600081518110610c2a57610c2a6142f3565b6020908102919091010152610c4482358233346001611753565b505050565b348160005b818110156106f6576000198201811436868684818110610c7057610c706142f3565b9050602002810190610c829190614808565b9050610cef8135610c9660208401846148f6565b808060200260200160405190810160405280939291908181526020016000905b82821015610ce257610cd3604083028601368190038101906148da565b81526020019060010190610cb6565b5050505050338886611753565b610cf9908661459b565b94505050610d078160010190565b9050610c4e565b60004261073c8382612356565b6060610d467f00000000000000000000000000000000000000000000000000000000000000006123c6565b610d6f7f00000000000000000000000000000000000000000000000000000000000000006123c6565b610d987f00000000000000000000000000000000000000000000000000000000000000006123c6565b604051602001610daa9392919061493f565b604051602081830303815290604052905090565b60068181548110610dce57600080fd5b906000526020600020016000915090508054610de9906145ae565b80601f0160208091040260200160405190810160405280929190818152602001828054610e15906145ae565b8015610e625780601f10610e3757610100808354040283529160200191610e62565b820191906000526020600020905b815481529060010190602001808311610e4557829003601f168201915b505050505081565b336000908152600360205260409020548111610e9957604051633ab3447f60e11b815260040160405180910390fd5b33600090815260036020526040902055565b600060608082808083610ede7f000000000000000000000000000000000000000000000000000000000000000083612458565b610f097f00000000000000000000000000000000000000000000000000000000000000006001612458565b60408051600080825260208201909252600f60f81b9b939a50919850469750309650945092509050565b60606000610f4360206002614999565b60ff166001600160401b03811115610f5d57610f5d613f34565b6040519080825280601f01601f191660200182016040528015610f87576020820181803683370190505b5060408051808201909152601081526f181899199a1a9b1b9c1cb0b131b232b360811b602082015290915060005b602081101561096d57818251868360208110610fd357610fd36142f3565b610fdf9291901a61460f565b81518110610fef57610fef6142f3565b01602001516001600160f81b0319168361100a8360026145e2565b8151811061101a5761101a6142f3565b60200101906001600160f81b031916908160001a905350818251868360208110611046576110466142f3565b6110529291901a614623565b81518110611062576110626142f3565b01602001516001600160f81b0319168361107d8360026145e2565b611088906001614637565b81518110611098576110986142f3565b60200101906001600160f81b031916908160001a905350806110b98161464a565b915050610fb5565b6060816000816001600160401b038111156110de576110de613f34565b60405190808252806020026020018201604052801561111157816020015b60608152602001906001900390816110fc5790505b509050600034815b84811015610baf57600019850181143689898481811061113b5761113b6142f3565b905060200281019061114d9190614309565b905036600061115f602084018461481e565b909250905080801580611180575061117a60408501856149bc565b90508114155b1561119e5760405163251f56a160e21b815260040160405180910390fd5b60005b81811015611271576112696040518060a00160405280876000013581526020018686858181106111d3576111d36142f3565b90506020028101906111e591906147e6565b6111ee906147fc565b815260200161120060408901896149bc565b85818110611210576112106142f3565b9050606002018036038101906112269190614a04565b815260200161123b6080890160608a01613f17565b6001600160a01b0316815260200161125960a0890160808a01614a20565b6001600160401b03169052611c15565b6001016111a1565b50600061129a85356112838587614867565b6112936080890160608a01613f17565b8b8a611d52565b80519091506112a9908961459b565b975080602001518a88815181106112c2576112c26142f3565b6020026020010181905250806020015151890198505050505050506112e78160010190565b9050611119565b6112f6613cb6565b6000828152600a60209081526040918290208251610140810184528154815260018201549281019290925260028101546001600160401b0380821694840194909452600160401b810484166060840152600160801b90049092166080820152600382015460a082015260048201546001600160a01b0390811660c0830152600583015490811660e0830152600160a01b900460ff161515610100820152600682018054919291610120840191906113ac906145ae565b80601f01602080910402602001604051908101604052809291908181526020018280546113d8906145ae565b80156114255780601f106113fa57610100808354040283529160200191611425565b820191906000526020600020905b81548152906001019060200180831161140857829003601f168201915b5050505050815250509050919050565b61144c61144736839003830183614a3b565b6115cf565b604080516001808252818301909252600091816020015b604080518082019091526000808252602082015281526020019060019003908161146357905050905061149e368390038301602084016148da565b816000815181106114b1576114b16142f3565b6020908102919091010152610c448235826114d260e0860160c08701613f17565b346001611753565b60004261073c338483611b8a565b60004282825b818110156107365761151886868381811061150b5761150b6142f3565b9050602002013584612356565b6001016114ee565b600061152a612503565b905090565b604080516001808252818301909252600091829190816020015b6040805160c081018252600080825260208083018290529282018190526060808301829052608083015260a0820152825260001990920191018161154957905050905061159960208401846147e6565b6115a2906147fc565b816000815181106115b5576115b56142f3565b6020908102919091010152610a5683358233346001611d52565b60808101516001600160401b0316158015906116015750426001600160401b031681608001516001600160401b031611155b1561161f57604051631ab7da6b60e01b815260040160405180910390fd5b6020818101516040808401516060808601516001600160a01b031660009081526003865283812080546001810190915587518651878901516080808c015189517f2d4116d8c9824e4c316453e5c2843a1885580374159ce8768603c49085ef424c9c81019c909c52988b01939093529489015287019290925260a086018290526001600160401b0390931660c08601529293909291906116d89060e0015b6040516020818303038152906040528051906020012061262e565b905061173685606001518285602001518660400151876000015160405160200161172293929190928352602083019190915260f81b6001600160f81b031916604082015260410190565b60405160208183030381529060405261265b565b6106f657604051638baa579f60e01b815260040160405180910390fd5b6040516351753e3760e11b81526004810186905260009081906001600160a01b037f0000000000000000000000000000000000000000000000000000000000000000169063a2ea7c6e90602401600060405180830381865afa1580156117bd573d6000803e3d6000fd5b505050506040513d6000823e601f3d908101601f191682016040526117e59190810190614aa9565b805190915061180757604051635f9bd90760e11b815260040160405180910390fd5b85516000816001600160401b0381111561182357611823613f34565b60405190808252806020026020018201604052801561185c57816020015b611849613cb6565b8152602001906001900390816118415790505b5090506000826001600160401b0381111561187957611879613f34565b6040519080825280602002602001820160405280156118a2578160200160208202803683370190505b50905060005b83811015611b6c5760008a82815181106118c4576118c46142f3565b60209081029190910181015180516000908152600a90925260409091208054919250906119045760405163c5723b5160e01b815260040160405180910390fd5b8c81600101541461192857604051635f9bd90760e11b815260040160405180910390fd5b60058101546001600160a01b038c811691161461195857604051634ca8886760e01b815260040160405180910390fd5b6005810154600160a01b900460ff166119845760405163157bd4c360e01b815260040160405180910390fd5b6002810154600160801b90046001600160401b0316156119b75760405163905e710760e01b815260040160405180910390fd5b4260028201805467ffffffffffffffff60801b198116600160801b6001600160401b03948516810291821793849055604080516101408101825287548152600188015460208201529386169286169290921791830191909152600160401b8304841660608301529091049091166080820152600382015460a082015260048201546001600160a01b0390811660c0830152600583015490811660e0830152600160a01b900460ff1615156101008201526006820180548391610120840191611a7e906145ae565b80601f0160208091040260200160405190810160405280929190818152602001828054611aaa906145ae565b8015611af75780601f10611acc57610100808354040283529160200191611af7565b820191906000526020600020905b815481529060010190602001808311611ada57829003601f168201915b505050505081525050858481518110611b1257611b126142f3565b60200260200101819052508160200151848481518110611b3457611b346142f3565b602090810291909101015280546002820154611b6291908d90600160801b90046001600160401b03166126bc565b50506001016118a8565b50611b7c84838360018b8b612795565b9a9950505050505050505050565b6001600160a01b0383166000908152600c6020908152604080832085845291829052909120546001600160401b031615611bd75760405163ec9d6eeb60e01b815260040160405180910390fd5b6000838152602082905260409020805467ffffffffffffffff19166001600160401b038416908117909155611c0f9085908590612aa1565b50505050565b60808101516001600160401b031615801590611c475750426001600160401b031681608001516001600160401b031611155b15611c6557604051631ab7da6b60e01b815260040160405180910390fd5b6020808201516040808401516060808601516001600160a01b0316600090815260038652838120805460018101909155875186518789015187890151958901516080808b01518051908d012060a08c0151918e01519a519b9c999b969a97996116d8996116bd997ff83bb2b0ede93a840239f7e701a54d9bc35f03701f51ae153d601c6947ff3d3f99919594928e9201998a5260208a01989098526001600160a01b039690961660408901526001600160401b039485166060890152921515608088015260a087019190915260c086015260e0850152610100840191909152166101208201526101400190565b6040805180820190915260008152606060208201528451604080518082019091526000815260606020820152816001600160401b03811115611d9657611d96613f34565b604051908082528060200260200182016040528015611dbf578160200160208202803683370190505b5060208201526040516351753e3760e11b8152600481018990526000907f00000000000000000000000000000000000000000000000000000000000000006001600160a01b03169063a2ea7c6e90602401600060405180830381865afa158015611e2d573d6000803e3d6000fd5b505050506040513d6000823e601f3d908101601f19168201604052611e559190810190614aa9565b8051909150611e7757604051635f9bd90760e11b815260040160405180910390fd5b6000836001600160401b03811115611e9157611e91613f34565b604051908082528060200260200182016040528015611eca57816020015b611eb7613cb6565b815260200190600190039081611eaf5790505b5090506000846001600160401b03811115611ee757611ee7613f34565b604051908082528060200260200182016040528015611f10578160200160208202803683370190505b50905060005b8581101561224c5760008b8281518110611f3257611f326142f3565b6020026020010151905060006001600160401b031681602001516001600160401b031614158015611f795750426001600160401b031681602001516001600160401b031611155b15611f97576040516308e8b93760e01b815260040160405180910390fd5b8460400151158015611faa575080604001515b15611fc85760405163157bd4c360e01b815260040160405180910390fd5b60006040518061014001604052806000801b81526020018f8152602001611fec4290565b6001600160401b0316815260200183602001516001600160401b0316815260200160006001600160401b031681526020018360600151815260200183600001516001600160a01b031681526020018d6001600160a01b0316815260200183604001511515815260200183608001518152509050600080600090505b6120718382612b91565b6000818152600a60205260409020549092501561209057600101612067565b8183526000828152600a60209081526040918290208551815590850151600182015590840151600282018054606087015160808801516001600160401b03908116600160801b0267ffffffffffffffff60801b19928216600160401b026fffffffffffffffffffffffffffffffff199094169190951617919091171691909117905560a0840151600382015560c08401516004820180546001600160a01b039283166001600160a01b031990911617905560e08501516005830180546101008801511515600160a01b026001600160a81b03199091169290931691909117919091179055610120840151849190600682019061218c9082614bc6565b5050506060840151156121ca5760608401516000908152600a60205260409020546121ca5760405163c5723b5160e01b815260040160405180910390fd5b828786815181106121dd576121dd6142f3565b60200260200101819052508360a001518686815181106121ff576121ff6142f3565b6020026020010181815250508189602001518681518110612222576122226142f3565b60200260200101818152505061223783612bf0565b505050506122458160010190565b9050611f16565b5061225c83838360008c8c612795565b845250919998505050505050505050565b60606000826001600160401b0381111561228957612289613f34565b6040519080825280602002602001820160405280156122b2578160200160208202803683370190505b508451909150600090815b8181101561234b5760008782815181106122d9576122d96142f3565b6020026020010151905060008151905060005b8181101561233757828181518110612306576123066142f3565b6020026020010151878781518110612320576123206142f3565b6020908102919091010152600195860195016122ec565b5050506123448160010190565b90506122bd565b509195945050505050565b6000828152600b60205260409020546001600160401b03161561238c576040516317133ca360e11b815260040160405180910390fd5b6000828152600b60205260409020805467ffffffffffffffff19166001600160401b0383169081179091556123c2908390612db7565b5050565b606060006123d383612e7a565b60010190506000816001600160401b038111156123f2576123f2613f34565b6040519080825280601f01601f19166020018201604052801561241c576020820181803683370190505b5090508181016020015b600019016f181899199a1a9b1b9c1cb0b131b232b360811b600a86061a8153600a850494508461242657509392505050565b606060ff83146124725761246b83612f52565b905061073c565b81805461247e906145ae565b80601f01602080910402602001604051908101604052809291908181526020018280546124aa906145ae565b80156124f75780601f106124cc576101008083540402835291602001916124f7565b820191906000526020600020905b8154815290600101906020018083116124da57829003601f168201915b5050505050905061073c565b6000306001600160a01b037f00000000000000000000000000000000000000000000000000000000000000001614801561255c57507f000000000000000000000000000000000000000000000000000000000000000046145b1561258657507f000000000000000000000000000000000000000000000000000000000000000090565b61152a604080517f8b73c3c69bb8fe3d512ecc4cf759cc79239f7b179b0ffacaa9a75d522b39400f60208201527f0000000000000000000000000000000000000000000000000000000000000000918101919091527f000000000000000000000000000000000000000000000000000000000000000060608201524660808201523060a082015260009060c00160405160208183030381529060405280519060200120905090565b600061073c61263b612503565b8360405161190160f01b8152600281019290925260228201526042902090565b600080600061266a8585612f91565b9092509050600081600481111561268357612683614c85565b1480156126a15750856001600160a01b0316826001600160a01b0316145b806126b257506126b2868686612fd6565b9695505050505050565b610c4460076001815481106126d3576126d36142f3565b90600052602060002001546127906040518060400160405280600a8152602001693932bb37b1b0ba34b7b760b11b8152506007600181548110612718576127186142f3565b906000526020600020015461273461272f886130c2565b6130d8565b61274061272f886123c6565b604051602001612751929190614c9b565b60405160208183030381529060405261276c61272f8a610f33565b60405160200161277c9190614cfb565b604051602081830303815290604052613101565b61317c565b845160009060018190036127ed576127e588886000815181106127ba576127ba6142f3565b6020026020010151886000815181106127d5576127d56142f3565b60200260200101518888886131e5565b9150506126b2565b60208801516001600160a01b0381166128685760005b8281101561284d5787818151811061281d5761281d6142f3565b602002602001015160001461284557604051631574f9f360e01b815260040160405180910390fd5b600101612803565b50831561285d5761285d85613421565b6000925050506126b2565b600080826001600160a01b031663ce46e0466040518163ffffffff1660e01b8152600401602060405180830381865afa1580156128a9573d6000803e3d6000fd5b505050506040513d601f19601f820116820180604052508101906128cd9190614d27565b905060005b848110156129585760008a82815181106128ee576128ee6142f3565b60200260200101519050806000036129065750612950565b8261292457604051631574f9f360e01b815260040160405180910390fd5b888111156129455760405163044044a560e21b815260040160405180910390fd5b978890039792909201915b6001016128d2565b5087156129f4576040516388e5b2d960e01b81526001600160a01b038416906388e5b2d990849061298f908e908e90600401614d44565b60206040518083038185885af11580156129ad573d6000803e3d6000fd5b50505050506040513d601f19601f820116820180604052508101906129d29190614d27565b6129ef5760405163bf2f3a8b60e01b815260040160405180910390fd5b612a84565b6040516348ed85bf60e11b81526001600160a01b038416906391db0b7e908490612a24908e908e90600401614d44565b60206040518083038185885af1158015612a42573d6000803e3d6000fd5b50505050506040513d601f19601f82011682018060405250810190612a679190614d27565b612a845760405163e8bee83960e01b815260040160405180910390fd5b8515612a9357612a9387613421565b509998505050505050505050565b610c446007600381548110612ab857612ab86142f3565b90600052602060002001546127906040518060400160405280601381526020017237b33321b430b4b72fb932bb37b1b0ba34b7b760691b8152506007600381548110612b0657612b066142f3565b90600052602060002001546040518060400160405280601781526020017f7265766f6b65722c207569642c207265766f6b65644174000000000000000000815250612b5361272f8a6130c2565b612b5f61272f8a610f33565b612b6b61272f8a6123c6565b604051602001612b7d93929190614dba565b604051602081830303815290604052613434565b60208083015160c084015160e0850151604080870151606088015161010089015160a08a01516101208b01519451600099612bd299989796918c9101614dec565b60405160208183030381529060405280519060200120905092915050565b6000612c008261012001516107d4565b9050610400612c0e82613473565b1115612c585760405162461bcd60e51b81526020600482015260146024820152732a30b13632b630b732103634b6b4ba30ba34b7b760611b60448201526064015b60405180910390fd5b600954620186a003612c6c57612c6c613576565b612d8f6007600081548110612c8357612c836142f3565b90600052602060002001546127906040518060400160405280600b81526020016a30ba3a32b9ba30ba34b7b760a91b8152506007600081548110612cc957612cc96142f3565b906000526020600020015460405180608001604052806054815260200161538860549139612cfd61272f8960000151610f33565b612d0d61272f8a60200151610f33565b612d2661272f8b604001516001600160401b03166123c6565b612d3f61272f8c606001516001600160401b03166123c6565b612d4f61272f8d60a00151610f33565b612d5f61272f8e60c001516130c2565b612d6f61272f8f60e001516130c2565b612d788e6130d8565b604051602001612b7d989796959493929190614e89565b60098054906000612d9f8361464a565b91905055506123c282600001518361010001516137b6565b6123c26007600281548110612dce57612dce6142f3565b90600052602060002001546127906040518060400160405280601281526020017106f6666436861696e5f74696d657374616d760741b8152506007600281548110612e1b57612e1b6142f3565b9060005260206000200154604051806040016040528060128152602001711d5a590b081d1a5b595cdd185b5c1959105d60721b815250612e5d61272f89610f33565b612e6961272f896123c6565b604051602001612b7d929190614f69565b60008072184f03e93ff9f4daa797ed6e38ed64bf6a1f0160401b8310612eb95772184f03e93ff9f4daa797ed6e38ed64bf6a1f0160401b830492506040015b6d04ee2d6d415b85acef81000000008310612ee5576d04ee2d6d415b85acef8100000000830492506020015b662386f26fc100008310612f0357662386f26fc10000830492506010015b6305f5e1008310612f1b576305f5e100830492506008015b6127108310612f2f57612710830492506004015b60648310612f41576064830492506002015b600a831061073c5760010192915050565b60606000612f5f836138d1565b604080516020808252818301909252919250600091906020820181803683375050509182525060208101929092525090565b6000808251604103612fc75760208301516040840151606085015160001a612fbb878285856138f9565b94509450505050612fcf565b506000905060025b9250929050565b6000806000856001600160a01b0316631626ba7e60e01b8686604051602401613000929190614fa5565b60408051601f198184030181529181526020820180516001600160e01b03166001600160e01b031990941693909317909252905161303e9190614fbe565b600060405180830381855afa9150503d8060008114613079576040519150601f19603f3d011682016040523d82523d6000602084013e61307e565b606091505b509150915081801561309257506020815110155b80156126b257508051630b135d3f60e11b906130b79083016020908101908401614fd0565b149695505050505050565b606061073c6001600160a01b03831660146139bd565b6060816040516020016130eb9190614fe9565b6040516020818303038152906040529050919050565b6060600061310f8686613b5f565b6040805160208101909152600081528451919250901561314c578360405160200161313a9190615017565b60405160208183030381529060405290505b81858260405160200161316193929190615046565b60405160208183030381529060405292505050949350505050565b60048054604051631bbd786d60e11b81526001600160a01b039091169163377af0da916131af91309187918791016150b0565b600060405180830381600087803b1580156131c957600080fd5b505af11580156131dd573d6000803e3d6000fd5b505050505050565b60208601516000906001600160a01b03811661323357851561321a57604051631574f9f360e01b815260040160405180910390fd5b82156132295761322984613421565b60009150506126b2565b85156132df57806001600160a01b031663ce46e0466040518163ffffffff1660e01b8152600401602060405180830381865afa158015613277573d6000803e3d6000fd5b505050506040513d601f19601f8201168201806040525081019061329b9190614d27565b6132b857604051631574f9f360e01b815260040160405180910390fd5b838611156132d95760405163044044a560e21b815260040160405180910390fd5b85840393505b84156133785760405163e49617e160e01b81526001600160a01b0382169063e49617e1908890613313908b90600401614293565b60206040518083038185885af1158015613331573d6000803e3d6000fd5b50505050506040513d601f19601f820116820180604052508101906133569190614d27565b6133735760405163ccf3bb2760e01b815260040160405180910390fd5b613406565b60405163e60c350560e01b81526001600160a01b0382169063e60c35059088906133a6908b90600401614293565b60206040518083038185885af11580156133c4573d6000803e3d6000fd5b50505050506040513d601f19601f820116820180604052508101906133e99190614d27565b6134065760405163bd8ba84d60e01b815260040160405180910390fd5b82156134155761341584613421565b50939695505050505050565b8015613431576134313382613b9d565b50565b606060006134428686613b5f565b9050808484604051602001613459939291906150d7565b604051602081830303815290604052915050949350505050565b8051600090819081905b8082101561356d576000858381518110613499576134996142f3565b01602001516001600160f81b0319169050600160ff1b8110156134c8576134c1600184614637565b925061355a565b600760fd1b6001600160f81b0319821610156134e9576134c1600284614637565b600f60fc1b6001600160f81b03198216101561350a576134c1600384614637565b601f60fb1b6001600160f81b03198216101561352b576134c1600484614637565b603f60fa1b6001600160f81b03198216101561354c576134c1600584614637565b613557600684614637565b92505b50826135658161464a565b93505061347d565b50909392505050565b600480546040516361a23d0f60e01b81526001600160a01b03909116916361a23d0f916135a891309160059101615163565b6000604051808303816000875af11580156135c7573d6000803e3d6000fd5b505050506040513d6000823e601f3d908101601f191682016040526135ef9190810190615241565b805161360391600791602090910190613d0c565b5060066136516040518060400160405280600b81526020016a30ba3a32b9ba30ba34b7b760a91b8152506007600081548110613641576136416142f3565b9060005260206000200154613b5f565b815460018101835560009283526020909220909101906136719082614bc6565b5060066136ae6040518060400160405280600a8152602001693932bb37b1b0ba34b7b760b11b8152506007600181548110613641576136416142f3565b815460018101835560009283526020909220909101906136ce9082614bc6565b5060066137136040518060400160405280601281526020017106f6666436861696e5f74696d657374616d760741b8152506007600281548110613641576136416142f3565b815460018101835560009283526020909220909101906137339082614bc6565b5060066137796040518060400160405280601381526020017237b33321b430b4b72fb932bb37b1b0ba34b7b760691b8152506007600381548110613641576136416142f3565b815460018101835560009283526020909220909101906137999082614bc6565b506000600981905560088054916137af8361464a565b9190505550565b6123c260076001815481106137cd576137cd6142f3565b90600052602060002001546127906040518060400160405280600a8152602001693932bb37b1b0ba34b7b760b11b8152506007600181548110613812576138126142f3565b90600052602060002001546040518060600160405280602781526020016153dc6027913961384261272f89610f33565b613864604051806040016040528060018152602001600360fc1b8152506130d8565b61387161272f60006130c2565b6138be8a61389c576040518060400160405280600581526020016466616c736560d81b8152506130d8565b604051806040016040528060048152602001637472756560e01b8152506130d8565b604051602001612b7d94939291906152c6565b600060ff8216601f81111561073c57604051632cd44ac360e21b815260040160405180910390fd5b6000807f7fffffffffffffffffffffffffffffff5d576e7357a4501ddfe92f46681b20a083111561393057506000905060036139b4565b6040805160008082526020820180845289905260ff881692820192909252606081018690526080810185905260019060a0016020604051602081039080840390855afa158015613984573d6000803e3d6000fd5b5050604051601f1901519150506001600160a01b0381166139ad576000600192509250506139b4565b9150600090505b94509492505050565b606060006139cc8360026145e2565b6139d7906002614637565b6001600160401b038111156139ee576139ee613f34565b6040519080825280601f01601f191660200182016040528015613a18576020820181803683370190505b509050600360fc1b81600081518110613a3357613a336142f3565b60200101906001600160f81b031916908160001a905350600f60fb1b81600181518110613a6257613a626142f3565b60200101906001600160f81b031916908160001a9053506000613a868460026145e2565b613a91906001614637565b90505b6001811115613b09576f181899199a1a9b1b9c1cb0b131b232b360811b85600f1660108110613ac557613ac56142f3565b1a60f81b828281518110613adb57613adb6142f3565b60200101906001600160f81b031916908160001a90535060049490941c93613b028161533e565b9050613a94565b508315613b585760405162461bcd60e51b815260206004820181905260248201527f537472696e67733a20686578206c656e67746820696e73756666696369656e746044820152606401612c4f565b9392505050565b606082613b6b466123c6565b613b74846123c6565b604051602001613b8693929190615355565b604051602081830303815290604052905092915050565b80471015613bed5760405162461bcd60e51b815260206004820152601d60248201527f416464726573733a20696e73756666696369656e742062616c616e63650000006044820152606401612c4f565b6000826001600160a01b03168260405160006040518083038185875af1925050503d8060008114613c3a576040519150601f19603f3d011682016040523d82523d6000602084013e613c3f565b606091505b5050905080610c445760405162461bcd60e51b815260206004820152603a60248201527f416464726573733a20756e61626c6520746f2073656e642076616c75652c207260448201527f6563697069656e74206d617920686176652072657665727465640000000000006064820152608401612c4f565b604080516101408101825260008082526020820181905291810182905260608082018390526080820183905260a0820183905260c0820183905260e0820183905261010082019290925261012081019190915290565b828054828255906000526020600020908101928215613d47579160200282015b82811115613d47578251825591602001919060010190613d2c565b50613d53929150613d57565b5090565b5b80821115613d535760008155600101613d58565b60008083601f840112613d7e57600080fd5b5081356001600160401b03811115613d9557600080fd5b6020830191508360208260051b8501011115612fcf57600080fd5b60008060208385031215613dc357600080fd5b82356001600160401b03811115613dd957600080fd5b613de585828601613d6c565b90969095509350505050565b6001600160a01b038116811461343157600080fd5b8035613e1181613df1565b919050565b600080600080600060808688031215613e2e57600080fd5b8535613e3981613df1565b94506020860135613e4981613df1565b93506040860135925060608601356001600160401b0380821115613e6c57600080fd5b818801915088601f830112613e8057600080fd5b813581811115613e8f57600080fd5b896020828501011115613ea157600080fd5b9699959850939650602001949392505050565b60005b83811015613ecf578181015183820152602001613eb7565b50506000910152565b60008151808452613ef0816020860160208601613eb4565b601f01601f19169290920160200192915050565b602081526000613b586020830184613ed8565b600060208284031215613f2957600080fd5b8135613b5881613df1565b634e487b7160e01b600052604160045260246000fd5b60405160a081016001600160401b0381118282101715613f6c57613f6c613f34565b60405290565b604051608081016001600160401b0381118282101715613f6c57613f6c613f34565b604051601f8201601f191681016001600160401b0381118282101715613fbc57613fbc613f34565b604052919050565b60006001600160401b03821115613fdd57613fdd613f34565b50601f01601f191660200190565b600082601f830112613ffc57600080fd5b813561400f61400a82613fc4565b613f94565b81815284602083860101111561402457600080fd5b816020850160208301376000918101602001919091529392505050565b60006020828403121561405357600080fd5b81356001600160401b0381111561406957600080fd5b61407584828501613feb565b949350505050565b60006020828403121561408f57600080fd5b81356001600160401b038111156140a557600080fd5b820160e08185031215613b5857600080fd5b6020808252825182820181905260009190848201906040850190845b818110156140ef578351835292840192918401916001016140d3565b50909695505050505050565b60006060828403121561410d57600080fd5b50919050565b60006020828403121561412557600080fd5b5035919050565b600081518084526020808501945080840160005b8381101561415c57815187529582019590820190600101614140565b509495945050505050565b60ff60f81b8816815260e06020820152600061418660e0830189613ed8565b82810360408401526141988189613ed8565b606084018890526001600160a01b038716608085015260a0840186905283810360c08501529050611b7c818561412c565b6000610140825184526020830151602085015260408301516141f660408601826001600160401b03169052565b50606083015161421160608601826001600160401b03169052565b50608083015161422c60808601826001600160401b03169052565b5060a083015160a085015260c083015161425160c08601826001600160a01b03169052565b5060e083015161426c60e08601826001600160a01b03169052565b5061010083810151151590850152610120808401518186018390526126b283870182613ed8565b602081526000613b5860208301846141c9565b6000610100828403121561410d57600080fd5b6000602082840312156142cb57600080fd5b81356001600160401b038111156142e157600080fd5b820160408185031215613b5857600080fd5b634e487b7160e01b600052603260045260246000fd5b60008235609e1983360301811261431f57600080fd5b9190910192915050565b60006001600160401b0382111561434257614342613f34565b5060051b60200190565b60006040828403121561435e57600080fd5b604051604081018181106001600160401b038211171561438057614380613f34565b604052823581526020928301359281019290925250919050565b6000606082840312156143ac57600080fd5b604051606081018181106001600160401b03821117156143ce576143ce613f34565b604052905080823560ff811681146143e557600080fd5b8082525060208301356020820152604083013560408201525092915050565b600082601f83011261441557600080fd5b8135602061442561400a83614329565b8281526060928302850182019282820191908785111561444457600080fd5b8387015b858110156144675761445a898261439a565b8452928401928101614448565b5090979650505050505050565b80356001600160401b0381168114613e1157600080fd5b600060a0823603121561449d57600080fd5b6144a5613f4a565b823581526020808401356001600160401b03808211156144c457600080fd5b9085019036601f8301126144d757600080fd5b81356144e561400a82614329565b81815260069190911b8301840190848101903683111561450457600080fd5b938501935b8285101561452d5761451b368661434c565b82528582019150604085019450614509565b8086880152505050604086013592508083111561454957600080fd5b505061455736828601614404565b60408301525061456960608401613e06565b606082015261457a60808401614474565b608082015292915050565b634e487b7160e01b600052601160045260246000fd5b8181038181111561073c5761073c614585565b600181811c908216806145c257607f821691505b60208210810361410d57634e487b7160e01b600052602260045260246000fd5b808202811582820484141761073c5761073c614585565b634e487b7160e01b600052601260045260246000fd5b60008261461e5761461e6145f9565b500490565b600082614632576146326145f9565b500690565b8082018082111561073c5761073c614585565b60006001820161465c5761465c614585565b5060010190565b60008151614675818560208601613eb4565b9290920192915050565b61060f60f31b81526000825161469c816002850160208701613eb4565b9190910160020192915050565b801515811461343157600080fd5b600060c082840312156146c957600080fd5b60405160c081016001600160401b0382821081831117156146ec576146ec613f34565b816040528293508435915061470082613df1565b81835261470f60208601614474565b602084015260408501359150614724826146a9565b81604084015260608501356060840152608085013591508082111561474857600080fd5b5061475585828601613feb565b60808301525060a083013560a08201525092915050565b600060e0823603121561477e57600080fd5b614786613f4a565b8235815260208301356001600160401b038111156147a357600080fd5b6147af368286016146b7565b6020830152506147c2366040850161439a565b604082015260a08301356147d581613df1565b606082015261457a60c08401614474565b6000823560be1983360301811261431f57600080fd5b600061073c36836146b7565b60008235603e1983360301811261431f57600080fd5b6000808335601e1984360301811261483557600080fd5b8301803591506001600160401b0382111561484f57600080fd5b6020019150600581901b3603821315612fcf57600080fd5b600061487561400a84614329565b80848252602080830192508560051b85013681111561489357600080fd5b855b818110156148ce5780356001600160401b038111156148b45760008081fd5b6148c036828a016146b7565b865250938201938201614895565b50919695505050505050565b6000604082840312156148ec57600080fd5b613b58838361434c565b6000808335601e1984360301811261490d57600080fd5b8301803591506001600160401b0382111561492757600080fd5b6020019150600681901b3603821315612fcf57600080fd5b60008451614951818460208901613eb4565b8083019050601760f91b8082528551614971816001850160208a01613eb4565b6001920191820152835161498c816002840160208801613eb4565b0160020195945050505050565b60ff81811683821602908116908181146149b5576149b5614585565b5092915050565b6000808335601e198436030181126149d357600080fd5b8301803591506001600160401b038211156149ed57600080fd5b6020019150606081023603821315612fcf57600080fd5b600060608284031215614a1657600080fd5b613b58838361439a565b600060208284031215614a3257600080fd5b613b5882614474565b60006101008284031215614a4e57600080fd5b614a56613f4a565b82358152614a67846020850161434c565b6020820152614a79846060850161439a565b604082015260c0830135614a8c81613df1565b6060820152614a9d60e08401614474565b60808201529392505050565b60006020808385031215614abc57600080fd5b82516001600160401b0380821115614ad357600080fd5b9084019060808287031215614ae757600080fd5b614aef613f72565b8251815283830151614b0081613df1565b818501526040830151614b12816146a9565b6040820152606083015182811115614b2957600080fd5b80840193505086601f840112614b3e57600080fd5b82519150614b4e61400a83613fc4565b8281528785848601011115614b6257600080fd5b614b7183868301878701613eb4565b60608201529695505050505050565b601f821115610c4457600081815260208120601f850160051c81016020861015614ba75750805b601f850160051c820191505b818110156131dd57828155600101614bb3565b81516001600160401b03811115614bdf57614bdf613f34565b614bf381614bed84546145ae565b84614b80565b602080601f831160018114614c285760008415614c105750858301515b600019600386901b1c1916600185901b1785556131dd565b600085815260208120601f198616915b82811015614c5757888601518255948401946001909101908401614c38565b5085821015614c755787850151600019600388901b60f8161c191681555b5050505050600190811b01905550565b634e487b7160e01b600052602160045260246000fd5b677265766f6b65723d60c01b815260008351614cbe816008850160208801613eb4565b702c207265766f636174696f6e54696d653d60781b6008918401918201528351614cef816019840160208801613eb4565b01601901949350505050565b637569643d60e01b815260008251614d1a816004850160208701613eb4565b9190910160040192915050565b600060208284031215614d3957600080fd5b8151613b58816146a9565b6000604082016040835280855180835260608501915060608160051b8601019250602080880160005b83811015614d9b57605f19888703018552614d898683516141c9565b95509382019390820190600101614d6d565b505085840381870152505050614db1818561412c565b95945050505050565b60008451614dcc818460208901613eb4565b8083019050600b60fa1b8082528551614971816001850160208a01613eb4565b89815260006bffffffffffffffffffffffff19808b60601b166020840152808a60601b166034840152506001600160401b0360c01b808960c01b166048840152808860c01b1660508401525085151560f81b60588301528460598301528351614e5c816079850160208801613eb4565b60e09390931b6001600160e01b03191660799290930191820192909252607d019998505050505050505050565b60008951614e9b818460208e01613eb4565b8083019050600b60fa1b8082528a51614ebb816001850160208f01613eb4565b600192019182018190528951614ed8816002850160208e01613eb4565b600292019182018190528851614ef5816003850160208d01613eb4565b60039201918201528651614f10816004840160208b01613eb4565b01614f2160048201600b60fa1b9052565b614f2e6005820187614663565b600b60fa1b81529050614f446001820186614663565b600b60fa1b81529050614f5a6001820185614663565b9b9a5050505050505050505050565b60008351614f7b818460208801613eb4565b600b60fa1b9083019081528351614f99816001840160208801613eb4565b01600101949350505050565b8281526040602082015260006140756040830184613ed8565b6000825161431f818460208701613eb4565b600060208284031215614fe257600080fd5b5051919050565b6000602760f81b8083528351615006816001860160208801613eb4565b600193019283015250600201919050565b660102ba422a922960cd1b815260008251615039816007850160208701613eb4565b9190910160070192915050565b6602aa82220aa22960cd1b815260008451615068816007850160208901613eb4565b6401029a2aa160dd1b600791840191820152845161508d81600c840160208901613eb4565b84519101906150a381600c840160208801613eb4565b01600c0195945050505050565b60018060a01b0384168152826020820152606060408201526000614db16060830184613ed8565b6b024a729a2a92a1024a72a27960a51b8152600084516150fe81600c850160208901613eb4565b600560fb1b600c91840191820152845161511f81600d840160208901613eb4565b67052ac8298aa8aa6560c31b600d92909101918201528351615148816015840160208801613eb4565b602960f81b6015929091019182015260160195945050505050565b60006040820160018060a01b0385168352602060408185015281855480845260608601915060059350606081851b8701016000888152848120815b8481101561523157605f198a85030186528282546151bb816145ae565b808752600182811680156151d657600181146151ef5761521a565b60ff198416898d01528215158d1b89018c01945061521a565b8688528b8820885b848110156152125781548b82018f0152908301908d016151f7565b8a018d019550505b50988a01989296505050919091019060010161519e565b50919a9950505050505050505050565b6000602080838503121561525457600080fd5b82516001600160401b0381111561526a57600080fd5b8301601f8101851361527b57600080fd5b805161528961400a82614329565b81815260059190911b820183019083810190878311156152a857600080fd5b928401925b82841015610bba578351825292840192908401906152ad565b600085516152d8818460208a01613eb4565b8083019050600b60fa1b80825286516152f8816001850160208b01613eb4565b600192019182018190528551615315816002850160208a01613eb4565b60029201918201528351615330816003840160208801613eb4565b016003019695505050505050565b60008161534d5761534d614585565b506000190190565b60008451615367818460208901613eb4565b8083019050605f60f81b8082528551614971816001850160208a01613eb456fe7569642c20736368656d615549442c206372656174696f6e54696d657374616d702c2065787069726174696f6e54696d652c207265665549442c20726563697069656e742c2061747465737465722c20646174617569642c207265766f636174696f6e54696d652c207265766f6b65722c207265766f6361626c65a2646970667358221220b477588c9d081d8f1a0b4a3626de1312cbb22d53dc0fbf9085eac23f880d5f2e64736f6c634300081300337265766f6b657220746578742c2075696420746578742c207265766f6b6564417420746578747569642074657874207072696d617279206b65792c20736368656d6155494420746578742c206372656174696f6e54696d657374616d7020746578742c2065787069726174696f6e54696d6520746578742c2072656655494420746578742c20726563697069656e7420746578742c20617474657374657220746578742c206461746120746578747569642074657874207072696d617279206b65792c207265766f636174696f6e54696d6520746578742c207265766f6b657220746578742c207265766f6361626c652074657874",
  "devdoc": {
    "events": {
      "EIP712DomainChanged()": {
        "details": "MAY be emitted to signal that the domain could have changed."
      }
    },
    "kind": "dev",
    "methods": {
      "attest((bytes32,(address,uint64,bool,bytes32,bytes,uint256)))": {
        "params": {
          "request": "The arguments of the attestation request."
        },
        "returns": {
          "_0": "The UID of the new attestation. Example:     attest({         schema: \"0facc36681cbe2456019c1b0d1e7bedd6d1d40f6f324bf3dd3a4cef2999200a0\",         data: {             recipient: \"0xdEADBeAFdeAdbEafdeadbeafDeAdbEAFdeadbeaf\",             expirationTime: 0,             revocable: true,             refUID: \"0x0000000000000000000000000000000000000000000000000000000000000000\",             data: \"0xF00D\",             value: 0         }     })"
        }
      },
      "attestByDelegation((bytes32,(address,uint64,bool,bytes32,bytes,uint256),(uint8,bytes32,bytes32),address,uint64))": {
        "params": {
          "delegatedRequest": "The arguments of the delegated attestation request."
        },
        "returns": {
          "_0": "The UID of the new attestation. Example:     attestByDelegation({         schema: '0x8e72f5bc0a8d4be6aa98360baa889040c50a0e51f32dbf0baa5199bd93472ebc',         data: {             recipient: '0xf39Fd6e51aad88F6F4ce6aB8827279cffFb92266',             expirationTime: 1673891048,             revocable: true,             refUID: '0x0000000000000000000000000000000000000000000000000000000000000000',             data: '0x1234',             value: 0         },         signature: {             v: 28,             r: '0x148c...b25b',             s: '0x5a72...be22'         },         attester: '0xc5E8740aD971409492b1A63Db8d83025e0Fc427e',         deadline: 1673891048     })"
        }
      },
      "constructor": {
        "details": "Creates a new TAS instance.",
        "params": {
          "registry": "The address of the global schema registry."
        }
      },
      "eip712Domain()": {
        "details": "See {EIP-5267}. _Available since v4.9._"
      },
      "getAttestTypeHash()": {
        "returns": {
          "_0": "The EIP712 type hash for the attest function."
        }
      },
      "getAttestation(bytes32)": {
        "params": {
          "uid": "The UID of the attestation to retrieve."
        },
        "returns": {
          "_0": "The attestation data members."
        }
      },
      "getDomainSeparator()": {
        "returns": {
          "_0": "The domain separator used in the encoding of the signatures for attest, and revoke."
        }
      },
      "getName()": {
        "returns": {
          "_0": "The EIP712 name."
        }
      },
      "getNonce(address)": {
        "params": {
          "account": "The requested account."
        },
        "returns": {
          "_0": "The current nonce."
        }
      },
      "getRevokeTypeHash()": {
        "returns": {
          "_0": "The EIP712 type hash for the revoke function."
        }
      },
      "getSchemaRegistry()": {
        "returns": {
          "_0": "The address of the global schema registry."
        }
      },
      "increaseNonce(uint256)": {
        "params": {
          "newNonce": "The (higher) new value."
        }
      },
      "isAttestationValid(bytes32)": {
        "params": {
          "uid": "The UID of the attestation to retrieve."
        },
        "returns": {
          "_0": "Whether an attestation exists."
        }
      },
      "multiAttest((bytes32,(address,uint64,bool,bytes32,bytes,uint256)[])[])": {
        "params": {
          "multiRequests": "The arguments of the multi attestation requests. The requests should be grouped by distinct     schema ids to benefit from the best batching optimization."
        },
        "returns": {
          "_0": "The UIDs of the new attestations. Example:     multiAttest([{         schema: '0x33e9094830a5cba5554d1954310e4fbed2ef5f859ec1404619adea4207f391fd',         data: [{             recipient: '0xdEADBeAFdeAdbEafdeadbeafDeAdbEAFdeadbeaf',             expirationTime: 1673891048,             revocable: true,             refUID: '0x0000000000000000000000000000000000000000000000000000000000000000',             data: '0x1234',             value: 1000         },         {             recipient: '0xf39Fd6e51aad88F6F4ce6aB8827279cffFb92266',             expirationTime: 0,             revocable: false,             refUID: '0x480df4a039efc31b11bfdf491b383ca138b6bde160988222a2a3509c02cee174',             data: '0x00',             value: 0         }],     },     {         schema: '0x5ac273ce41e3c8bfa383efe7c03e54c5f0bff29c9f11ef6ffa930fc84ca32425',         data: [{             recipient: '0xdEADBeAFdeAdbEafdeadbeafDeAdbEAFdeadbeaf',             expirationTime: 0,             revocable: true,             refUID: '0x75bf2ed8dca25a8190c50c52db136664de25b2449535839008ccfdab469b214f',             data: '0x12345678',             value: 0         },     }])"
        }
      },
      "multiAttestByDelegation((bytes32,(address,uint64,bool,bytes32,bytes,uint256)[],(uint8,bytes32,bytes32)[],address,uint64)[])": {
        "params": {
          "multiDelegatedRequests": "The arguments of the delegated multi attestation requests. The requests should be     grouped by distinct schema ids to benefit from the best batching optimization."
        },
        "returns": {
          "_0": "The UIDs of the new attestations. Example:     multiAttestByDelegation([{         schema: '0x8e72f5bc0a8d4be6aa98360baa889040c50a0e51f32dbf0baa5199bd93472ebc',         data: [{             recipient: '0xf39Fd6e51aad88F6F4ce6aB8827279cffFb92266',             expirationTime: 1673891048,             revocable: true,             refUID: '0x0000000000000000000000000000000000000000000000000000000000000000',             data: '0x1234',             value: 0         },         {             recipient: '0xdEADBeAFdeAdbEafdeadbeafDeAdbEAFdeadbeaf',             expirationTime: 0,             revocable: false,             refUID: '0x0000000000000000000000000000000000000000000000000000000000000000',             data: '0x00',             value: 0         }],         signatures: [{             v: 28,             r: '0x148c...b25b',             s: '0x5a72...be22'         },         {             v: 28,             r: '0x487s...67bb',             s: '0x12ad...2366'         }],         attester: '0x1D86495b2A7B524D747d2839b3C645Bed32e8CF4',         deadline: 1673891048     }])"
        }
      },
      "multiRevoke((bytes32,(bytes32,uint256)[])[])": {
        "params": {
          "multiRequests": "The arguments of the multi revocation requests. The requests should be grouped by distinct     schema ids to benefit from the best batching optimization. Example:     multiRevoke([{         schema: '0x8e72f5bc0a8d4be6aa98360baa889040c50a0e51f32dbf0baa5199bd93472ebc',         data: [{             uid: '0x211296a1ca0d7f9f2cfebf0daaa575bea9b20e968d81aef4e743d699c6ac4b25',             value: 1000         },         {             uid: '0xe160ac1bd3606a287b4d53d5d1d6da5895f65b4b4bab6d93aaf5046e48167ade',             value: 0         }],     },     {         schema: '0x5ac273ce41e3c8bfa383efe7c03e54c5f0bff29c9f11ef6ffa930fc84ca32425',         data: [{             uid: '0x053d42abce1fd7c8fcddfae21845ad34dae287b2c326220b03ba241bc5a8f019',             value: 0         },     }])"
        }
      },
      "multiRevokeByDelegation((bytes32,(bytes32,uint256)[],(uint8,bytes32,bytes32)[],address,uint64)[])": {
        "params": {
          "multiDelegatedRequests": "The arguments of the delegated multi revocation attestation requests. The requests     should be grouped by distinct schema ids to benefit from the best batching optimization. Example:     multiRevokeByDelegation([{         schema: '0x8e72f5bc0a8d4be6aa98360baa889040c50a0e51f32dbf0baa5199bd93472ebc',         data: [{             uid: '0x211296a1ca0d7f9f2cfebf0daaa575bea9b20e968d81aef4e743d699c6ac4b25',             value: 1000         },         {             uid: '0xe160ac1bd3606a287b4d53d5d1d6da5895f65b4b4bab6d93aaf5046e48167ade',             value: 0         }],         signatures: [{             v: 28,             r: '0x148c...b25b',             s: '0x5a72...be22'         },         {             v: 28,             r: '0x487s...67bb',             s: '0x12ad...2366'         }],         revoker: '0x244934dd3e31bE2c81f84ECf0b3E6329F5381992',         deadline: 1673891048     }])"
        }
      },
      "multiRevokeOffchain(bytes32[])": {
        "params": {
          "data": "The data to timestamp."
        },
        "returns": {
          "_0": "The timestamp the data was revoked with."
        }
      },
      "multiTimestamp(bytes32[])": {
        "params": {
          "data": "The data to timestamp."
        },
        "returns": {
          "_0": "The timestamp the data was timestamped with."
        }
      },
      "revoke((bytes32,(bytes32,uint256)))": {
        "params": {
          "request": "The arguments of the revocation request. Example:     revoke({         schema: '0x8e72f5bc0a8d4be6aa98360baa889040c50a0e51f32dbf0baa5199bd93472ebc',         data: {             uid: '0x101032e487642ee04ee17049f99a70590c735b8614079fc9275f9dd57c00966d',             value: 0         }     })"
        }
      },
      "revokeByDelegation((bytes32,(bytes32,uint256),(uint8,bytes32,bytes32),address,uint64))": {
        "params": {
          "delegatedRequest": "The arguments of the delegated revocation request. Example:     revokeByDelegation({         schema: '0x8e72f5bc0a8d4be6aa98360baa889040c50a0e51f32dbf0baa5199bd93472ebc',         data: {             uid: '0xcbbc12102578c642a0f7b34fe7111e41afa25683b6cd7b5a14caf90fa14d24ba',             value: 0         },         signature: {             v: 27,             r: '0xb593...7142',             s: '0x0f5b...2cce'         },         revoker: '0x244934dd3e31bE2c81f84ECf0b3E6329F5381992',         deadline: 1673891048     })"
        }
      },
      "revokeOffchain(bytes32)": {
        "params": {
          "data": "The data to timestamp."
        },
        "returns": {
          "_0": "The timestamp the data was revoked with."
        }
      },
      "timestamp(bytes32)": {
        "params": {
          "data": "The data to timestamp."
        },
        "returns": {
          "_0": "The timestamp the data was timestamped with."
        }
      },
      "version()": {
        "returns": {
          "_0": "Semver contract version as a string."
        }
      }
    },
    "title": "TAS",
    "version": 1
  },
  "userdoc": {
    "errors": {
      "ChainNotSupported(uint256)": [
        {
          "notice": "Current chain does not have a TablelandTables deployment."
        }
      ]
    },
    "kind": "user",
    "methods": {
      "attest((bytes32,(address,uint64,bool,bytes32,bytes,uint256)))": {
        "notice": "Attests to a specific schema."
      },
      "attestByDelegation((bytes32,(address,uint64,bool,bytes32,bytes,uint256),(uint8,bytes32,bytes32),address,uint64))": {
        "notice": "Attests to a specific schema via the provided ECDSA signature."
      },
      "getAttestTypeHash()": {
        "notice": "Returns the EIP712 type hash for the attest function."
      },
      "getAttestation(bytes32)": {
        "notice": "Returns an existing attestation by UID."
      },
      "getDomainSeparator()": {
        "notice": "Returns the domain separator used in the encoding of the signatures for attest, and revoke."
      },
      "getName()": {
        "notice": "Returns the EIP712 name."
      },
      "getNonce(address)": {
        "notice": "Returns the current nonce per-account."
      },
      "getRevokeTypeHash()": {
        "notice": "Returns the EIP712 type hash for the revoke function."
      },
      "getSchemaRegistry()": {
        "notice": "Returns the address of the global schema registry."
      },
      "increaseNonce(uint256)": {
        "notice": "Provides users an option to invalidate nonces by increasing their nonces to (higher) new values."
      },
      "isAttestationValid(bytes32)": {
        "notice": "Checks whether an attestation exists."
      },
      "multiAttest((bytes32,(address,uint64,bool,bytes32,bytes,uint256)[])[])": {
        "notice": "Attests to multiple schemas."
      },
      "multiAttestByDelegation((bytes32,(address,uint64,bool,bytes32,bytes,uint256)[],(uint8,bytes32,bytes32)[],address,uint64)[])": {
        "notice": "Attests to multiple schemas using via provided ECDSA signatures."
      },
      "multiRevoke((bytes32,(bytes32,uint256)[])[])": {
        "notice": "Revokes existing attestations to multiple schemas."
      },
      "multiRevokeByDelegation((bytes32,(bytes32,uint256)[],(uint8,bytes32,bytes32)[],address,uint64)[])": {
        "notice": "Revokes existing attestations to multiple schemas via provided ECDSA signatures."
      },
      "multiRevokeOffchain(bytes32[])": {
        "notice": "Revokes the specified multiple bytes32 data."
      },
      "multiTimestamp(bytes32[])": {
        "notice": "Timestamps the specified multiple bytes32 data."
      },
      "revoke((bytes32,(bytes32,uint256)))": {
        "notice": "Revokes an existing attestation to a specific schema."
      },
      "revokeByDelegation((bytes32,(bytes32,uint256),(uint8,bytes32,bytes32),address,uint64))": {
        "notice": "Revokes an existing attestation to a specific schema via the provided ECDSA signature."
      },
      "revokeOffchain(bytes32)": {
        "notice": "Revokes the specified bytes32 data."
      },
      "timestamp(bytes32)": {
        "notice": "Timestamps the specified bytes32 data."
      },
      "version()": {
        "notice": "Returns the full semver contract version."
      }
    },
    "notice": "The Tableland Attestation Service protocol.",
    "version": 1
  },
  "storageLayout": {
    "storage": [
      {
        "astId": 1751,
        "contract": "contracts/TAS.sol:TAS",
        "label": "_nameFallback",
        "offset": 0,
        "slot": "0",
        "type": "t_string_storage"
      },
      {
        "astId": 1753,
        "contract": "contracts/TAS.sol:TAS",
        "label": "_versionFallback",
        "offset": 0,
        "slot": "1",
        "type": "t_string_storage"
      },
      {
        "astId": 8206,
        "contract": "contracts/TAS.sol:TAS",
        "label": "_name",
        "offset": 0,
        "slot": "2",
        "type": "t_string_storage"
      },
      {
        "astId": 8210,
        "contract": "contracts/TAS.sol:TAS",
        "label": "_nonces",
        "offset": 0,
        "slot": "3",
        "type": "t_mapping(t_address,t_uint256)"
      },
      {
        "astId": 5495,
        "contract": "contracts/TAS.sol:TAS",
        "label": "tablelandContract",
        "offset": 0,
        "slot": "4",
        "type": "t_contract(ITablelandTables)4111"
      },
      {
        "astId": 5498,
        "contract": "contracts/TAS.sol:TAS",
        "label": "createTableStatements",
        "offset": 0,
        "slot": "5",
        "type": "t_array(t_string_storage)dyn_storage"
      },
      {
        "astId": 5501,
        "contract": "contracts/TAS.sol:TAS",
        "label": "tables",
        "offset": 0,
        "slot": "6",
        "type": "t_array(t_string_storage)dyn_storage"
      },
      {
        "astId": 5504,
        "contract": "contracts/TAS.sol:TAS",
        "label": "tableIDs",
        "offset": 0,
        "slot": "7",
        "type": "t_array(t_uint256)dyn_storage"
      },
      {
        "astId": 5506,
        "contract": "contracts/TAS.sol:TAS",
        "label": "tablesUpdates",
        "offset": 0,
        "slot": "8",
        "type": "t_uint256"
      },
      {
        "astId": 5508,
        "contract": "contracts/TAS.sol:TAS",
        "label": "tablesRowsCounter",
        "offset": 0,
        "slot": "9",
        "type": "t_uint256"
      },
      {
        "astId": 5537,
        "contract": "contracts/TAS.sol:TAS",
        "label": "_db",
        "offset": 0,
        "slot": "10",
        "type": "t_mapping(t_bytes32,t_struct(Attestation)4640_storage)"
      },
      {
        "astId": 5541,
        "contract": "contracts/TAS.sol:TAS",
        "label": "_timestamps",
        "offset": 0,
        "slot": "11",
        "type": "t_mapping(t_bytes32,t_uint64)"
      },
      {
        "astId": 5547,
        "contract": "contracts/TAS.sol:TAS",
        "label": "_revocationsOffchain",
        "offset": 0,
        "slot": "12",
        "type": "t_mapping(t_address,t_mapping(t_bytes32,t_uint64))"
      }
    ],
    "types": {
      "t_address": {
        "encoding": "inplace",
        "label": "address",
        "numberOfBytes": "20"
      },
      "t_array(t_string_storage)dyn_storage": {
        "base": "t_string_storage",
        "encoding": "dynamic_array",
        "label": "string[]",
        "numberOfBytes": "32"
      },
      "t_array(t_uint256)dyn_storage": {
        "base": "t_uint256",
        "encoding": "dynamic_array",
        "label": "uint256[]",
        "numberOfBytes": "32"
      },
      "t_bool": {
        "encoding": "inplace",
        "label": "bool",
        "numberOfBytes": "1"
      },
      "t_bytes32": {
        "encoding": "inplace",
        "label": "bytes32",
        "numberOfBytes": "32"
      },
      "t_bytes_storage": {
        "encoding": "bytes",
        "label": "bytes",
        "numberOfBytes": "32"
      },
      "t_contract(ITablelandTables)4111": {
        "encoding": "inplace",
        "label": "contract ITablelandTables",
        "numberOfBytes": "20"
      },
      "t_mapping(t_address,t_mapping(t_bytes32,t_uint64))": {
        "encoding": "mapping",
        "key": "t_address",
        "label": "mapping(address => mapping(bytes32 => uint64))",
        "numberOfBytes": "32",
        "value": "t_mapping(t_bytes32,t_uint64)"
      },
      "t_mapping(t_address,t_uint256)": {
        "encoding": "mapping",
        "key": "t_address",
        "label": "mapping(address => uint256)",
        "numberOfBytes": "32",
        "value": "t_uint256"
      },
      "t_mapping(t_bytes32,t_struct(Attestation)4640_storage)": {
        "encoding": "mapping",
        "key": "t_bytes32",
        "label": "mapping(bytes32 => struct Attestation)",
        "numberOfBytes": "32",
        "value": "t_struct(Attestation)4640_storage"
      },
      "t_mapping(t_bytes32,t_uint64)": {
        "encoding": "mapping",
        "key": "t_bytes32",
        "label": "mapping(bytes32 => uint64)",
        "numberOfBytes": "32",
        "value": "t_uint64"
      },
      "t_string_storage": {
        "encoding": "bytes",
        "label": "string",
        "numberOfBytes": "32"
      },
      "t_struct(Attestation)4640_storage": {
        "encoding": "inplace",
        "label": "struct Attestation",
        "members": [
          {
            "astId": 4621,
            "contract": "contracts/TAS.sol:TAS",
            "label": "uid",
            "offset": 0,
            "slot": "0",
            "type": "t_bytes32"
          },
          {
            "astId": 4623,
            "contract": "contracts/TAS.sol:TAS",
            "label": "schema",
            "offset": 0,
            "slot": "1",
            "type": "t_bytes32"
          },
          {
            "astId": 4625,
            "contract": "contracts/TAS.sol:TAS",
            "label": "time",
            "offset": 0,
            "slot": "2",
            "type": "t_uint64"
          },
          {
            "astId": 4627,
            "contract": "contracts/TAS.sol:TAS",
            "label": "expirationTime",
            "offset": 8,
            "slot": "2",
            "type": "t_uint64"
          },
          {
            "astId": 4629,
            "contract": "contracts/TAS.sol:TAS",
            "label": "revocationTime",
            "offset": 16,
            "slot": "2",
            "type": "t_uint64"
          },
          {
            "astId": 4631,
            "contract": "contracts/TAS.sol:TAS",
            "label": "refUID",
            "offset": 0,
            "slot": "3",
            "type": "t_bytes32"
          },
          {
            "astId": 4633,
            "contract": "contracts/TAS.sol:TAS",
            "label": "recipient",
            "offset": 0,
            "slot": "4",
            "type": "t_address"
          },
          {
            "astId": 4635,
            "contract": "contracts/TAS.sol:TAS",
            "label": "attester",
            "offset": 0,
            "slot": "5",
            "type": "t_address"
          },
          {
            "astId": 4637,
            "contract": "contracts/TAS.sol:TAS",
            "label": "revocable",
            "offset": 20,
            "slot": "5",
            "type": "t_bool"
          },
          {
            "astId": 4639,
            "contract": "contracts/TAS.sol:TAS",
            "label": "data",
            "offset": 0,
            "slot": "6",
            "type": "t_bytes_storage"
          }
        ],
        "numberOfBytes": "224"
      },
      "t_uint256": {
        "encoding": "inplace",
        "label": "uint256",
        "numberOfBytes": "32"
      },
      "t_uint64": {
        "encoding": "inplace",
        "label": "uint64",
        "numberOfBytes": "8"
      }
    }
  }
}