{
  "address": "0x5C3ABD38dA2747EfB6FCD5d1cd6D8e3d62F1D8C8",
  "abi": [
    {
      "inputs": [
        {
          "internalType": "contract ITAS",
          "name": "tas",
          "type": "address"
        },
        {
          "internalType": "address",
          "name": "_splitterFactory",
          "type": "address"
        },
        {
          "internalType": "contract ISchemaRegistry",
          "name": "_schemaRegistry",
          "type": "address"
        },
        {
          "internalType": "contract ITablelandSubscriptionsIndexer",
          "name": "_tableland",
          "type": "address"
        }
      ],
      "stateMutability": "nonpayable",
      "type": "constructor"
    },
    {
      "inputs": [],
      "name": "AccessDenied",
      "type": "error"
    },
    {
      "inputs": [],
      "name": "InsufficientValue",
      "type": "error"
    },
    {
      "inputs": [],
      "name": "InvalidLength",
      "type": "error"
    },
    {
      "inputs": [],
      "name": "InvalidTAS",
      "type": "error"
    },
    {
      "inputs": [],
      "name": "NotPayable",
      "type": "error"
    },
    {
      "inputs": [
        {
          "components": [
            {
              "internalType": "bytes32",
              "name": "uid",
              "type": "bytes32"
            },
            {
              "internalType": "bytes32",
              "name": "schema",
              "type": "bytes32"
            },
            {
              "internalType": "uint64",
              "name": "time",
              "type": "uint64"
            },
            {
              "internalType": "uint64",
              "name": "expirationTime",
              "type": "uint64"
            },
            {
              "internalType": "uint64",
              "name": "revocationTime",
              "type": "uint64"
            },
            {
              "internalType": "bytes32",
              "name": "refUID",
              "type": "bytes32"
            },
            {
              "internalType": "address",
              "name": "recipient",
              "type": "address"
            },
            {
              "internalType": "address",
              "name": "attester",
              "type": "address"
            },
            {
              "internalType": "bool",
              "name": "revocable",
              "type": "bool"
            },
            {
              "internalType": "bytes",
              "name": "data",
              "type": "bytes"
            }
          ],
          "internalType": "struct Attestation",
          "name": "attestation",
          "type": "tuple"
        }
      ],
      "name": "attest",
      "outputs": [
        {
          "internalType": "bool",
          "name": "",
          "type": "bool"
        }
      ],
      "stateMutability": "payable",
      "type": "function"
    },
    {
      "inputs": [
        {
          "internalType": "bytes32",
          "name": "data",
          "type": "bytes32"
        }
      ],
      "name": "bytes32ToString",
      "outputs": [
        {
          "internalType": "string",
          "name": "",
          "type": "string"
        }
      ],
      "stateMutability": "pure",
      "type": "function"
    },
    {
      "inputs": [
        {
          "internalType": "address",
          "name": "sender",
          "type": "address"
        },
        {
          "internalType": "bytes32",
          "name": "schemaUID",
          "type": "bytes32"
        }
      ],
      "name": "hasAccess",
      "outputs": [
        {
          "internalType": "bool",
          "name": "",
          "type": "bool"
        }
      ],
      "stateMutability": "view",
      "type": "function"
    },
    {
      "inputs": [],
      "name": "isPayable",
      "outputs": [
        {
          "internalType": "bool",
          "name": "",
          "type": "bool"
        }
      ],
      "stateMutability": "pure",
      "type": "function"
    },
    {
      "inputs": [
        {
          "components": [
            {
              "internalType": "bytes32",
              "name": "uid",
              "type": "bytes32"
            },
            {
              "internalType": "bytes32",
              "name": "schema",
              "type": "bytes32"
            },
            {
              "internalType": "uint64",
              "name": "time",
              "type": "uint64"
            },
            {
              "internalType": "uint64",
              "name": "expirationTime",
              "type": "uint64"
            },
            {
              "internalType": "uint64",
              "name": "revocationTime",
              "type": "uint64"
            },
            {
              "internalType": "bytes32",
              "name": "refUID",
              "type": "bytes32"
            },
            {
              "internalType": "address",
              "name": "recipient",
              "type": "address"
            },
            {
              "internalType": "address",
              "name": "attester",
              "type": "address"
            },
            {
              "internalType": "bool",
              "name": "revocable",
              "type": "bool"
            },
            {
              "internalType": "bytes",
              "name": "data",
              "type": "bytes"
            }
          ],
          "internalType": "struct Attestation[]",
          "name": "attestations",
          "type": "tuple[]"
        },
        {
          "internalType": "uint256[]",
          "name": "values",
          "type": "uint256[]"
        }
      ],
      "name": "multiAttest",
      "outputs": [
        {
          "internalType": "bool",
          "name": "",
          "type": "bool"
        }
      ],
      "stateMutability": "payable",
      "type": "function"
    },
    {
      "inputs": [
        {
          "components": [
            {
              "internalType": "bytes32",
              "name": "uid",
              "type": "bytes32"
            },
            {
              "internalType": "bytes32",
              "name": "schema",
              "type": "bytes32"
            },
            {
              "internalType": "uint64",
              "name": "time",
              "type": "uint64"
            },
            {
              "internalType": "uint64",
              "name": "expirationTime",
              "type": "uint64"
            },
            {
              "internalType": "uint64",
              "name": "revocationTime",
              "type": "uint64"
            },
            {
              "internalType": "bytes32",
              "name": "refUID",
              "type": "bytes32"
            },
            {
              "internalType": "address",
              "name": "recipient",
              "type": "address"
            },
            {
              "internalType": "address",
              "name": "attester",
              "type": "address"
            },
            {
              "internalType": "bool",
              "name": "revocable",
              "type": "bool"
            },
            {
              "internalType": "bytes",
              "name": "data",
              "type": "bytes"
            }
          ],
          "internalType": "struct Attestation[]",
          "name": "attestations",
          "type": "tuple[]"
        },
        {
          "internalType": "uint256[]",
          "name": "values",
          "type": "uint256[]"
        }
      ],
      "name": "multiRevoke",
      "outputs": [
        {
          "internalType": "bool",
          "name": "",
          "type": "bool"
        }
      ],
      "stateMutability": "payable",
      "type": "function"
    },
    {
      "inputs": [
        {
          "internalType": "address[]",
          "name": "contentCreators",
          "type": "address[]"
        },
        {
          "internalType": "uint256[]",
          "name": "creatorsShares",
          "type": "uint256[]"
        },
        {
          "internalType": "string[]",
          "name": "categories",
          "type": "string[]"
        },
        {
          "internalType": "uint256",
          "name": "monthlySubscriptionPrice",
          "type": "uint256"
        },
        {
          "internalType": "string",
          "name": "schemaName",
          "type": "string"
        },
        {
          "internalType": "string",
          "name": "schemaDescription",
          "type": "string"
        }
      ],
      "name": "registerSubscriptionSchema",
      "outputs": [],
      "stateMutability": "nonpayable",
      "type": "function"
    },
    {
      "inputs": [
        {
          "components": [
            {
              "internalType": "bytes32",
              "name": "uid",
              "type": "bytes32"
            },
            {
              "internalType": "bytes32",
              "name": "schema",
              "type": "bytes32"
            },
            {
              "internalType": "uint64",
              "name": "time",
              "type": "uint64"
            },
            {
              "internalType": "uint64",
              "name": "expirationTime",
              "type": "uint64"
            },
            {
              "internalType": "uint64",
              "name": "revocationTime",
              "type": "uint64"
            },
            {
              "internalType": "bytes32",
              "name": "refUID",
              "type": "bytes32"
            },
            {
              "internalType": "address",
              "name": "recipient",
              "type": "address"
            },
            {
              "internalType": "address",
              "name": "attester",
              "type": "address"
            },
            {
              "internalType": "bool",
              "name": "revocable",
              "type": "bool"
            },
            {
              "internalType": "bytes",
              "name": "data",
              "type": "bytes"
            }
          ],
          "internalType": "struct Attestation",
          "name": "attestation",
          "type": "tuple"
        }
      ],
      "name": "revoke",
      "outputs": [
        {
          "internalType": "bool",
          "name": "",
          "type": "bool"
        }
      ],
      "stateMutability": "payable",
      "type": "function"
    },
    {
      "inputs": [],
      "name": "splitterFactory",
      "outputs": [
        {
          "internalType": "address",
          "name": "",
          "type": "address"
        }
      ],
      "stateMutability": "view",
      "type": "function"
    },
    {
      "inputs": [
        {
          "internalType": "bytes32",
          "name": "schemaUID",
          "type": "bytes32"
        },
        {
          "internalType": "uint256",
          "name": "months",
          "type": "uint256"
        }
      ],
      "name": "subscribe",
      "outputs": [],
      "stateMutability": "payable",
      "type": "function"
    },
    {
      "inputs": [
        {
          "internalType": "bytes32",
          "name": "schemaUID",
          "type": "bytes32"
        },
        {
          "internalType": "uint256",
          "name": "newPrice",
          "type": "uint256"
        }
      ],
      "name": "updatePrice",
      "outputs": [],
      "stateMutability": "nonpayable",
      "type": "function"
    },
    {
      "inputs": [
        {
          "internalType": "address",
          "name": "",
          "type": "address"
        },
        {
          "internalType": "bytes32",
          "name": "",
          "type": "bytes32"
        }
      ],
      "name": "userSubscriptions",
      "outputs": [
        {
          "internalType": "uint256",
          "name": "",
          "type": "uint256"
        }
      ],
      "stateMutability": "view",
      "type": "function"
    },
    {
      "inputs": [],
      "name": "version",
      "outputs": [
        {
          "internalType": "string",
          "name": "",
          "type": "string"
        }
      ],
      "stateMutability": "view",
      "type": "function"
    },
    {
      "stateMutability": "payable",
      "type": "receive"
    }
  ],
  "transactionHash": "0x5e167133130d8dfdbbac7b4b05b3c74cbdd9ffcfe31f235228e350131c3703b6",
  "args": [
    "0x5A4Bc4eD4BB25f1f9B51b9940261f0be4D9B6E4D",
    "0x72b302682d878D73Ad5e68bdE3F0e2a851312088",
    "0xD261638cd8f2917dE2B81dEb6Cf7848a6522C046",
    "0x1bbE9747aFd52ba5e1E46B147FFb4CAa394DCbDc"
  ],
  "numDeployments": 1,
  "solcInputHash": "b21a88c0173e1f065079f57541eed105",
  "bytecode": "0x62278d00600055610140604052600e6101009081526d1cdd1c9a5b99c81a9cdbdb90d25160921b610120526001906200003990826200020f565b503480156200004757600080fd5b5060405162002499380380620024998339810160408190526200006a916200033d565b6000608081905260a052600160c052836001600160a01b038116620000a25760405163120d8e6b60e21b815260040160405180910390fd5b6001600160a01b0390811660e052600580546001600160a01b03199081163017909155600480549483169482169490941790935560078054948216948416949094179093556006805491909316911617905550620003ab565b634e487b7160e01b600052604160045260246000fd5b634e487b7160e01b600052602260045260246000fd5b6002810460018216806200013c57607f821691505b60208210810362000151576200015162000111565b50919050565b600062000168620001658381565b90565b92915050565b620001798362000157565b815460001960089490940293841b1916921b91909117905550565b6000620001a38184846200016e565b505050565b81811015620001c757620001be60008262000194565b600101620001a8565b5050565b601f821115620001a3576000818152602090206020601f85010481016020851015620001f45750805b620002086020601f860104830182620001a8565b5050505050565b81516001600160401b038111156200022b576200022b620000fb565b62000237825462000127565b62000244828285620001cb565b6020601f8311600181146200027b5760008415620002625750858201515b600019600886021c1981166002860217865550620002d7565b600085815260208120601f198616915b82811015620002ad57888501518255602094850194600190920191016200028b565b86831015620002ca5784890151600019601f89166008021c191682555b6001600288020188555050505b505050505050565b60006001600160a01b03821662000168565b60006200016882620002df565b6200030981620002f1565b81146200031557600080fd5b50565b80516200016881620002fe565b6200030981620002df565b8051620001688162000325565b60008060008060808587031215620003585762000358600080fd5b600062000366878762000318565b9450506020620003798782880162000330565b93505060406200038c8782880162000318565b92505060606200039f8782880162000318565b91505092959194509250565b60805160a05160c05160e0516120b4620003e56000396000610ecb01526000610671015260006106480152600061061f01526120b46000f3fe6080604052600436106100c65760003560e01c806388e5b2d91161007f578063993b8d3211610059578063993b8d3214610217578063ce46e04614610237578063e49617e11461024b578063e60c35051461025e57600080fd5b806388e5b2d9146101d157806391db0b7e146101e45780639201de55146101f757600080fd5b80630778f0ac146100d457806354fd4d50146100e75780635608d9e5146101125780635f704f3e1461013f578063773a6c3b1461015f5780637d294e62146101a457600080fd5b366100cf57005b005b600080fd5b6100cd6100e236600461138b565b610271565b3480156100f357600080fd5b506100fc610618565b604051610109919061141e565b60405180910390f35b34801561011e57600080fd5b50600754610132906001600160a01b031681565b604051610109919061144f565b34801561014b57600080fd5b506100cd61015a36600461138b565b6106bb565b34801561016b57600080fd5b5061019761017a366004611471565b600360209081526000928352604080842090915290825290205481565b6040516101099190611499565b3480156101b057600080fd5b506101c46101bf366004611471565b61076c565b60405161010991906114af565b6101c46101df36600461150e565b6107b9565b6101c46101f236600461150e565b610888565b34801561020357600080fd5b506100fc610212366004611585565b610947565b34801561022357600080fd5b506100cd61023236600461183a565b610aff565b34801561024357600080fd5b5060016101c4565b6101c4610259366004611961565b610cfd565b6101c461026c366004611961565b610d12565b6000811161029a5760405162461bcd60e51b8152600401610291906119d2565b60405180910390fd5b60008281526002602052604090206003015434906102b99083906119f8565b146102d65760405162461bcd60e51b815260040161029190611a3d565b6000828152600260205260409020600501546001600160a01b031661030d5760405162461bcd60e51b815260040161029190611a6f565b33600090815260036020908152604080832085845290915281205481549091906103389084906119f8565b9050816000036103d65761034c4282611a7f565b6006546040516302e324b160e41b81529192506001600160a01b031690632e324b109061038190879033908690600401611a92565b600060405180830381600087803b15801561039b57600080fd5b505af11580156103af573d6000803e3d6000fd5b50503360009081526003602090815260408083208984529091529020839055506105009050565b42821115610471576103e88183611a7f565b336000818152600360209081526040808320898452909152908190208390556006549051630d2ea9ad60e41b81529294506001600160a01b03169163d2ea9ad09161043a918891908790600401611a92565b600060405180830381600087803b15801561045457600080fd5b505af1158015610468573d6000803e3d6000fd5b50505050610500565b61047b4282611a7f565b600654604051630d2ea9ad60e41b81529192506001600160a01b03169063d2ea9ad0906104b090879033908690600401611a92565b600060405180830381600087803b1580156104ca57600080fd5b505af11580156104de573d6000803e3d6000fd5b5050336000908152600360209081526040808320898452909152902083905550505b60008481526002602052604081206004018054349290610521908490611a7f565b909155505060008481526002602052604090206005015461054b906001600160a01b031634610d26565b600084815260026020908152604091829020600501548251600481526024810190935290820180516001600160e01b031663e4fc6b6d60e01b17905261059c916001600160a01b0390911690610dc7565b50600654600085815260026020526040908190206004908101549151638d879e6d60e01b81526001600160a01b0390931692638d879e6d926105e092899201611aba565b600060405180830381600087803b1580156105fa57600080fd5b505af115801561060e573d6000803e3d6000fd5b5050505050505050565b60606106437f0000000000000000000000000000000000000000000000000000000000000000610e0b565b61066c7f0000000000000000000000000000000000000000000000000000000000000000610e0b565b6106957f0000000000000000000000000000000000000000000000000000000000000000610e0b565b6040516020016106a793929190611b0f565b604051602081830303815290604052905090565b600082815260026020819052604090912001546001600160a01b031633146106e257600080fd5b600081116106ef57600080fd5b600082815260026020526040908190206003018290556006549051630d53e5f360e11b81526001600160a01b0390911690631aa7cbe6906107369085908590600401611aba565b600060405180830381600087803b15801561075057600080fd5b505af1158015610764573d6000803e3d6000fd5b505050505050565b6001600160a01b03821660009081526003602090815260408083208484529091528120544210806107b0575060008281526002602052604090206107b09084610e9e565b90505b92915050565b60006107c3610ec0565b838281146107e45760405163251f56a160e21b815260040160405180910390fd5b3460005b8281101561087857600086868381811061080457610804611b52565b9050602002013590508281111561082e5760405163044044a560e21b815260040160405180910390fd5b61085b89898481811061084357610843611b52565b90506020028101906108559190611b68565b50600090565b61086c576000945050505050610880565b909103906001016107e8565b506001925050505b949350505050565b6000610892610ec0565b838281146108b35760405163251f56a160e21b815260040160405180910390fd5b3460005b828110156108785760008686838181106108d3576108d3611b52565b905060200201359050828111156108fd5760405163044044a560e21b815260040160405180910390fd5b61092a89898481811061091257610912611b52565b90506020028101906109249190611b68565b82610f0b565b61093b576000945050505050610880565b909103906001016108b7565b6060600061095760206002611b8d565b60ff166001600160401b03811115610971576109716115a6565b6040519080825280601f01601f19166020018201604052801561099b576020820181803683370190505b5060408051808201909152601081526f181899199a1a9b1b9c1cb0b131b232b360811b602082015290915060005b6020811015610ad5578182518683602081106109e7576109e7611b52565b6109f39291901a611bc3565b81518110610a0357610a03611b52565b01602001516001600160f81b03191683610a1e8360026119f8565b81518110610a2e57610a2e611b52565b60200101906001600160f81b031916908160001a905350818251868360208110610a5a57610a5a611b52565b610a669291901a611bd7565b81518110610a7657610a76611b52565b01602001516001600160f81b03191683610a918360026119f8565b610a9c906001611a7f565b81518110610aac57610aac611b52565b60200101906001600160f81b031916908160001a90535080610acd81611beb565b9150506109c9565b5081604051602001610ae79190611bfe565b60405160208183030381529060405292505050919050565b60008311610b0c57600080fd5b6000610b19838387610f5c565b6000818152600260205260409020909150610b3488886110bc565b6005820180546001600160a01b0319166001600160a01b03929092169190911790556003810185905560005b8851811015610bab57610b98898281518110610b7e57610b7e611b52565b60200260200101518360000161112a90919063ffffffff16565b5080610ba381611beb565b915050610b60565b506002810180546001600160a01b031916321790556006546005820154604051630dc70aa360e31b81526001600160a01b0392831692636e38551892610bf99287928b921690600401611c15565b600060405180830381600087803b158015610c1357600080fd5b505af1158015610c27573d6000803e3d6000fd5b5050600654604051637e6c78bd60e01b81526001600160a01b039091169250637e6c78bd9150610c5f9085908c908c90600401611ce4565b600060405180830381600087803b158015610c7957600080fd5b505af1158015610c8d573d6000803e3d6000fd5b50506006546040516379cc6d9960e11b81526001600160a01b03909116925063f398db329150610cc1908590600401611499565b600060405180830381600087803b158015610cdb57600080fd5b505af1158015610cef573d6000803e3d6000fd5b505050505050505050505050565b6000610d07610ec0565b60005b90505b919050565b6000610d1c610ec0565b610d0a8234610f0b565b80471015610d465760405162461bcd60e51b815260040161029190611d4c565b6000826001600160a01b031682604051610d5f90611d5c565b60006040518083038185875af1925050503d8060008114610d9c576040519150601f19603f3d011682016040523d82523d6000602084013e610da1565b606091505b5050905080610dc25760405162461bcd60e51b815260040161029190611dc1565b505050565b60606107b0838360006040518060400160405280601e81526020017f416464726573733a206c6f772d6c6576656c2063616c6c206661696c6564000081525061113f565b60606000610e18836111db565b60010190506000816001600160401b03811115610e3757610e376115a6565b6040519080825280601f01601f191660200182016040528015610e61576020820181803683370190505b5090508181016020015b600019016f181899199a1a9b1b9c1cb0b131b232b360811b600a86061a8153600a8504945084610e6b575b509392505050565b6001600160a01b038116600090815260018301602052604081205415156107b0565b336001600160a01b037f00000000000000000000000000000000000000000000000000000000000000001614610f0957604051634ca8886760e01b815260040160405180910390fd5b565b600080610f1f610100850160e08601611dd1565b60208086013560008181526002909252604090912091925090610f429083610e9e565b610f51576000925050506107b3565b506001949350505050565b6000600460009054906101000a90046001600160a01b03166001600160a01b03166361a4434c6040518060c0016040528060018054610f9a90611e08565b80601f0160208091040260200160405190810160405280929190818152602001828054610fc690611e08565b80156110135780601f10610fe857610100808354040283529160200191611013565b820191906000526020600020905b815481529060010190602001808311610ff657829003601f168201915b5050509183525050602081018890526040808201889052606082018790526005546001600160a01b03166080830152600654600160a01b900460ff16151560a0909201919091525160e083901b6001600160e01b03191681526110799190600401611f4d565b6020604051808303816000875af1158015611098573d6000803e3d6000fd5b505050506040513d601f19601f820116820180604052508101906108809190611f69565b6007546040516000918291611114916001600160a01b0316906110e59087908790602401611f8a565b60408051601f198184030181529190526020810180516001600160e01b0316637be12ff160e11b179052610dc7565b9050808060200190518101906108809190611fba565b60006107b0836001600160a01b0384166112b3565b6060824710156111615760405162461bcd60e51b81526004016102919061201e565b600080866001600160a01b0316858760405161117d919061202e565b60006040518083038185875af1925050503d80600081146111ba576040519150601f19603f3d011682016040523d82523d6000602084013e6111bf565b606091505b50915091506111d087838387611302565b979650505050505050565b60008072184f03e93ff9f4daa797ed6e38ed64bf6a1f0160401b831061121a5772184f03e93ff9f4daa797ed6e38ed64bf6a1f0160401b830492506040015b6d04ee2d6d415b85acef81000000008310611246576d04ee2d6d415b85acef8100000000830492506020015b662386f26fc10000831061126457662386f26fc10000830492506010015b6305f5e100831061127c576305f5e100830492506008015b612710831061129057612710830492506004015b606483106112a2576064830492506002015b600a83106107b35760010192915050565b60008181526001830160205260408120546112fa575081546001818101845560008481526020808220909301849055845484825282860190935260409020919091556107b3565b5060006107b3565b6060831561134157825160000361133a576001600160a01b0385163b61133a5760405162461bcd60e51b81526004016102919061206e565b5081610880565b61088083838151156113565781518083602001fd5b8060405162461bcd60e51b8152600401610291919061141e565b805b811461137d57600080fd5b50565b80356107b381611370565b600080604083850312156113a1576113a1600080fd5b60006113ad8585611380565b92505060206113be85828601611380565b9150509250929050565b60005b838110156113e35781810151838201526020016113cb565b50506000910152565b60006113f6825190565b80845260208401935061140d8185602086016113c8565b601f01601f19169290920192915050565b602080825281016107b081846113ec565b60006001600160a01b038216610d0a565b6114498161142f565b82525050565b602081016107b38284611440565b6113728161142f565b80356107b38161145d565b6000806040838503121561148757611487600080fd5b60006113ad8585611466565b80611449565b602081016107b38284611493565b801515611449565b602081016107b382846114a7565b60008083601f8401126114d2576114d2600080fd5b5081356001600160401b038111156114ec576114ec600080fd5b60208301915083602082028301111561150757611507600080fd5b9250929050565b6000806000806040858703121561152757611527600080fd5b84356001600160401b0381111561154057611540600080fd5b61154c878288016114bd565b945094505060208501356001600160401b0381111561156d5761156d600080fd5b611579878288016114bd565b95989497509550505050565b60006020828403121561159a5761159a600080fd5b60006108808484611380565b634e487b7160e01b600052604160045260246000fd5b601f19601f83011681018181106001600160401b03821117156115e1576115e16115a6565b6040525050565b60006115f360405190565b9050610d0d82826115bc565b60006001600160401b03821115611618576116186115a6565b5060209081020190565b6000611635611630846115ff565b6115e8565b8381529050602080820190840283018581111561165457611654600080fd5b835b8181101561167857806116698882611466565b84525060209283019201611656565b5050509392505050565b600082601f83011261169657611696600080fd5b8135610880848260208601611622565b60006116b4611630846115ff565b838152905060208082019084028301858111156116d3576116d3600080fd5b835b8181101561167857806116e88882611380565b845250602092830192016116d5565b600082601f83011261170b5761170b600080fd5b81356108808482602086016116a6565b60006001600160401b03821115611734576117346115a6565b601f19601f83011660200192915050565b82818337506000910152565b600061175f6116308461171b565b90508281526020810184848401111561177a5761177a600080fd5b610e96848285611745565b600082601f83011261179957611799600080fd5b8135610880848260208601611751565b60006117b7611630846115ff565b838152905060208082019084028301858111156117d6576117d6600080fd5b835b818110156116785780356001600160401b038111156117f9576117f9600080fd5b8086016118068982611785565b85525050602092830192016117d8565b600082601f83011261182a5761182a600080fd5b81356108808482602086016117a9565b60008060008060008060c0878903121561185657611856600080fd5b86356001600160401b0381111561186f5761186f600080fd5b61187b89828a01611682565b96505060208701356001600160401b0381111561189a5761189a600080fd5b6118a689828a016116f7565b95505060408701356001600160401b038111156118c5576118c5600080fd5b6118d189828a01611816565b94505060606118e289828a01611380565b93505060808701356001600160401b0381111561190157611901600080fd5b61190d89828a01611785565b92505060a08701356001600160401b0381111561192c5761192c600080fd5b61193889828a01611785565b9150509295509295509295565b6000610140828403121561195b5761195b600080fd5b50919050565b60006020828403121561197657611976600080fd5b81356001600160401b0381111561198f5761198f600080fd5b61088084828501611945565b601881526000602082017f6d696e2031206d6f6e746820737562736372697074696f6e0000000000000000815291505b5060200190565b60208082528101610d0a8161199b565b634e487b7160e01b600052601160045260246000fd5b818102808215838204851417611a1057611a106119e2565b5092915050565b600f81526000602082016e496e636f72726563742076616c756560881b815291506119cb565b60208082528101610d0a81611a17565b600b81526000602082016a1b9bdb88195e1a5cdd195960aa1b815291506119cb565b60208082528101610d0a81611a4d565b808201808211156107b3576107b36119e2565b60608101611aa08286611493565b611aad6020830185611440565b6108806040830184611493565b60408101611ac88285611493565b611ad56020830184611493565b9392505050565b6000611ae6825190565b611af48185602086016113c8565b9290920192915050565b601760f91b815260005b5060010190565b6000611b1b8286611adc565b9150611b2682611afe565b9150611b328285611adc565b9150611b3d82611afe565b9150611b498284611adc565b95945050505050565b634e487b7160e01b600052603260045260246000fd5b6000823561013e1936849003018112611b8357611b83600080fd5b9190910192915050565b60ff918216919081169082820290811690818114611a1057611a106119e2565b634e487b7160e01b600052601260045260246000fd5b600082611bd257611bd2611bad565b500490565b600082611be657611be6611bad565b500690565b60006000198203611b0857611b086119e2565b61060f60f31b81526002016000611ad58284611adc565b60608101611c238286611493565b611c306020830185611493565b6108806040830184611440565b6000611c498383611440565b505060200190565b6000611c5b825190565b80845260209384019383018060005b83811015611c8f578151611c7e8882611c3d565b975060208301925050600101611c6a565b509495945050505050565b6000611c498383611493565b6000611cb0825190565b80845260209384019383018060005b83811015611c8f578151611cd38882611c9a565b975060208301925050600101611cbf565b60608101611cf28286611493565b8181036020830152611d048185611c51565b90508181036040830152611b498184611ca6565b601d81526000602082017f416464726573733a20696e73756666696369656e742062616c616e6365000000815291506119cb565b60208082528101610d0a81611d18565b6000816107b3565b603a81526000602082017f416464726573733a20756e61626c6520746f2073656e642076616c75652c207281527f6563697069656e74206d61792068617665207265766572746564000000000000602082015291505b5060400190565b60208082528101610d0a81611d64565b600060208284031215611de657611de6600080fd5b60006108808484611466565b634e487b7160e01b600052602260045260246000fd5b600281046001821680611e1c57607f821691505b60208210810361195b5761195b611df2565b60006107b083836113ec565b6000611e44825190565b80845260208401935083602082028501611e5e8560200190565b8060005b85811015611e935784840389528151611e7b8582611e2e565b94506020830160209a909a0199925050600101611e62565b5091979650505050505050565b6000610d0a8261142f565b6000610d0a82611ea0565b61144981611eab565b805160c080845260009190840190611ed782826113ec565b91505060208301518482036020860152611ef182826113ec565b91505060408301518482036040860152611f0b82826113ec565b91505060608301518482036060860152611f258282611e3a565b9150506080830151611f3a6080860182611eb6565b5060a0830151610e9660a08601826114a7565b602080825281016107b08184611ebf565b80516107b381611370565b600060208284031215611f7e57611f7e600080fd5b60006108808484611f5e565b60408082528101611f9b8185611c51565b905081810360208301526108808184611ca6565b80516107b38161145d565b600060208284031215611fcf57611fcf600080fd5b60006108808484611faf565b602681526000602082017f416464726573733a20696e73756666696369656e742062616c616e636520666f8152651c8818d85b1b60d21b60208201529150611dba565b60208082528101610d0a81611fdb565b6000611ad58284611adc565b601d81526000602082017f416464726573733a2063616c6c20746f206e6f6e2d636f6e7472616374000000815291506119cb565b60208082528101610d0a8161203a56fea26469706673582212208e5704a1457de77247c63fae6360933a1270db0133c2d8fdb4ed4f6e36ff79eb64736f6c63430008130033",
  "devdoc": {
    "kind": "dev",
    "methods": {
      "attest((bytes32,bytes32,uint64,uint64,uint64,bytes32,address,address,bool,bytes))": {
        "params": {
          "attestation": "The new attestation."
        },
        "returns": {
          "_0": "Whether the attestation is valid."
        }
      },
      "isPayable()": {
        "returns": {
          "_0": "True, indicating that the contract can accept payments."
        }
      },
      "multiAttest((bytes32,bytes32,uint64,uint64,uint64,bytes32,address,address,bool,bytes)[],uint256[])": {
        "params": {
          "attestations": "The new attestations.",
          "values": "Explicit ETH amounts which were sent with each attestation."
        },
        "returns": {
          "_0": "Whether all the attestations are valid."
        }
      },
      "multiRevoke((bytes32,bytes32,uint64,uint64,uint64,bytes32,address,address,bool,bytes)[],uint256[])": {
        "params": {
          "attestations": "The existing attestations to be revoked.",
          "values": "Explicit ETH amounts which were sent with each revocation."
        },
        "returns": {
          "_0": "Whether the attestations can be revoked."
        }
      },
      "revoke((bytes32,bytes32,uint64,uint64,uint64,bytes32,address,address,bool,bytes))": {
        "params": {
          "attestation": "The existing attestation to be revoked."
        },
        "returns": {
          "_0": "Whether the attestation can be revoked."
        }
      },
      "subscribe(bytes32,uint256)": {
        "details": "Mint tokens for encrypted attestations.",
        "params": {
          "schemaUID": "The UID of the schema for which tokens are being minted."
        }
      },
      "version()": {
        "returns": {
          "_0": "Semver contract version as a string."
        }
      }
    },
    "title": "ContentSubscriptionResolver",
    "version": 1
  },
  "userdoc": {
    "kind": "user",
    "methods": {
      "attest((bytes32,bytes32,uint64,uint64,uint64,bytes32,address,address,bool,bytes))": {
        "notice": "Processes an attestation and verifies whether it's valid."
      },
      "isPayable()": {
        "notice": "Indicates whether the contract is designed to handle incoming payments."
      },
      "multiAttest((bytes32,bytes32,uint64,uint64,uint64,bytes32,address,address,bool,bytes)[],uint256[])": {
        "notice": "Processes multiple attestations and verifies whether they are valid."
      },
      "multiRevoke((bytes32,bytes32,uint64,uint64,uint64,bytes32,address,address,bool,bytes)[],uint256[])": {
        "notice": "Processes revocation of multiple attestation and verifies they can be revoked."
      },
      "revoke((bytes32,bytes32,uint64,uint64,uint64,bytes32,address,address,bool,bytes))": {
        "notice": "Processes an attestation revocation and verifies if it can be revoked."
      },
      "version()": {
        "notice": "Returns the full semver contract version."
      }
    },
    "notice": "A schema resolver subcription to content example",
    "version": 1
  },
  "storageLayout": {
    "storage": [
      {
        "astId": 9907,
        "contract": "contracts/resolver/examples/ContentSubscriptionResolver.sol:ContentSubscriptionResolver",
        "label": "ONE_MONTH",
        "offset": 0,
        "slot": "0",
        "type": "t_uint256"
      },
      {
        "astId": 9922,
        "contract": "contracts/resolver/examples/ContentSubscriptionResolver.sol:ContentSubscriptionResolver",
        "label": "schema",
        "offset": 0,
        "slot": "1",
        "type": "t_string_storage"
      },
      {
        "astId": 9927,
        "contract": "contracts/resolver/examples/ContentSubscriptionResolver.sol:ContentSubscriptionResolver",
        "label": "schemas",
        "offset": 0,
        "slot": "2",
        "type": "t_mapping(t_bytes32,t_struct(SchemaInfo)9919_storage)"
      },
      {
        "astId": 9933,
        "contract": "contracts/resolver/examples/ContentSubscriptionResolver.sol:ContentSubscriptionResolver",
        "label": "userSubscriptions",
        "offset": 0,
        "slot": "3",
        "type": "t_mapping(t_address,t_mapping(t_bytes32,t_uint256))"
      },
      {
        "astId": 9936,
        "contract": "contracts/resolver/examples/ContentSubscriptionResolver.sol:ContentSubscriptionResolver",
        "label": "schemaRegistry",
        "offset": 0,
        "slot": "4",
        "type": "t_contract(ISchemaRegistry)5556"
      },
      {
        "astId": 9939,
        "contract": "contracts/resolver/examples/ContentSubscriptionResolver.sol:ContentSubscriptionResolver",
        "label": "schemaResolver",
        "offset": 0,
        "slot": "5",
        "type": "t_contract(ISchemaResolver)9007"
      },
      {
        "astId": 9942,
        "contract": "contracts/resolver/examples/ContentSubscriptionResolver.sol:ContentSubscriptionResolver",
        "label": "tableland",
        "offset": 0,
        "slot": "6",
        "type": "t_contract(ITablelandSubscriptionsIndexer)10632"
      },
      {
        "astId": 9944,
        "contract": "contracts/resolver/examples/ContentSubscriptionResolver.sol:ContentSubscriptionResolver",
        "label": "revocable",
        "offset": 20,
        "slot": "6",
        "type": "t_bool"
      },
      {
        "astId": 9946,
        "contract": "contracts/resolver/examples/ContentSubscriptionResolver.sol:ContentSubscriptionResolver",
        "label": "splitterFactory",
        "offset": 0,
        "slot": "7",
        "type": "t_address"
      }
    ],
    "types": {
      "t_address": {
        "encoding": "inplace",
        "label": "address",
        "numberOfBytes": "20"
      },
      "t_array(t_bytes32)dyn_storage": {
        "base": "t_bytes32",
        "encoding": "dynamic_array",
        "label": "bytes32[]",
        "numberOfBytes": "32"
      },
      "t_bool": {
        "encoding": "inplace",
        "label": "bool",
        "numberOfBytes": "1"
      },
      "t_bytes32": {
        "encoding": "inplace",
        "label": "bytes32",
        "numberOfBytes": "32"
      },
      "t_contract(ISchemaRegistry)5556": {
        "encoding": "inplace",
        "label": "contract ISchemaRegistry",
        "numberOfBytes": "20"
      },
      "t_contract(ISchemaResolver)9007": {
        "encoding": "inplace",
        "label": "contract ISchemaResolver",
        "numberOfBytes": "20"
      },
      "t_contract(ITablelandSubscriptionsIndexer)10632": {
        "encoding": "inplace",
        "label": "contract ITablelandSubscriptionsIndexer",
        "numberOfBytes": "20"
      },
      "t_mapping(t_address,t_mapping(t_bytes32,t_uint256))": {
        "encoding": "mapping",
        "key": "t_address",
        "label": "mapping(address => mapping(bytes32 => uint256))",
        "numberOfBytes": "32",
        "value": "t_mapping(t_bytes32,t_uint256)"
      },
      "t_mapping(t_bytes32,t_struct(SchemaInfo)9919_storage)": {
        "encoding": "mapping",
        "key": "t_bytes32",
        "label": "mapping(bytes32 => struct ContentSubscriptionResolver.SchemaInfo)",
        "numberOfBytes": "32",
        "value": "t_struct(SchemaInfo)9919_storage"
      },
      "t_mapping(t_bytes32,t_uint256)": {
        "encoding": "mapping",
        "key": "t_bytes32",
        "label": "mapping(bytes32 => uint256)",
        "numberOfBytes": "32",
        "value": "t_uint256"
      },
      "t_string_storage": {
        "encoding": "bytes",
        "label": "string",
        "numberOfBytes": "32"
      },
      "t_struct(AddressSet)4518_storage": {
        "encoding": "inplace",
        "label": "struct EnumerableSet.AddressSet",
        "members": [
          {
            "astId": 4517,
            "contract": "contracts/resolver/examples/ContentSubscriptionResolver.sol:ContentSubscriptionResolver",
            "label": "_inner",
            "offset": 0,
            "slot": "0",
            "type": "t_struct(Set)4203_storage"
          }
        ],
        "numberOfBytes": "64"
      },
      "t_struct(SchemaInfo)9919_storage": {
        "encoding": "inplace",
        "label": "struct ContentSubscriptionResolver.SchemaInfo",
        "members": [
          {
            "astId": 9910,
            "contract": "contracts/resolver/examples/ContentSubscriptionResolver.sol:ContentSubscriptionResolver",
            "label": "contentCreators",
            "offset": 0,
            "slot": "0",
            "type": "t_struct(AddressSet)4518_storage"
          },
          {
            "astId": 9912,
            "contract": "contracts/resolver/examples/ContentSubscriptionResolver.sol:ContentSubscriptionResolver",
            "label": "multisig",
            "offset": 0,
            "slot": "2",
            "type": "t_address"
          },
          {
            "astId": 9914,
            "contract": "contracts/resolver/examples/ContentSubscriptionResolver.sol:ContentSubscriptionResolver",
            "label": "subscriptionPrice",
            "offset": 0,
            "slot": "3",
            "type": "t_uint256"
          },
          {
            "astId": 9916,
            "contract": "contracts/resolver/examples/ContentSubscriptionResolver.sol:ContentSubscriptionResolver",
            "label": "totalRevenue",
            "offset": 0,
            "slot": "4",
            "type": "t_uint256"
          },
          {
            "astId": 9918,
            "contract": "contracts/resolver/examples/ContentSubscriptionResolver.sol:ContentSubscriptionResolver",
            "label": "splitterContract",
            "offset": 0,
            "slot": "5",
            "type": "t_address"
          }
        ],
        "numberOfBytes": "192"
      },
      "t_struct(Set)4203_storage": {
        "encoding": "inplace",
        "label": "struct EnumerableSet.Set",
        "members": [
          {
            "astId": 4198,
            "contract": "contracts/resolver/examples/ContentSubscriptionResolver.sol:ContentSubscriptionResolver",
            "label": "_values",
            "offset": 0,
            "slot": "0",
            "type": "t_array(t_bytes32)dyn_storage"
          },
          {
            "astId": 4202,
            "contract": "contracts/resolver/examples/ContentSubscriptionResolver.sol:ContentSubscriptionResolver",
            "label": "_indexes",
            "offset": 0,
            "slot": "1",
            "type": "t_mapping(t_bytes32,t_uint256)"
          }
        ],
        "numberOfBytes": "64"
      },
      "t_uint256": {
        "encoding": "inplace",
        "label": "uint256",
        "numberOfBytes": "32"
      }
    }
  }
}