{
  "address": "0xeBf027DD3Dc6e820aD862c837246A29cCD25930B",
  "abi": [
    {
      "inputs": [],
      "stateMutability": "nonpayable",
      "type": "constructor"
    },
    {
      "inputs": [
        {
          "internalType": "uint256",
          "name": "chainid",
          "type": "uint256"
        }
      ],
      "name": "ChainNotSupported",
      "type": "error"
    },
    {
      "anonymous": false,
      "inputs": [
        {
          "indexed": true,
          "internalType": "address",
          "name": "previousOwner",
          "type": "address"
        },
        {
          "indexed": true,
          "internalType": "address",
          "name": "newOwner",
          "type": "address"
        }
      ],
      "name": "OwnershipTransferred",
      "type": "event"
    },
    {
      "inputs": [
        {
          "components": [
            {
              "internalType": "string",
              "name": "schema",
              "type": "string"
            },
            {
              "internalType": "string",
              "name": "schemaName",
              "type": "string"
            },
            {
              "internalType": "string",
              "name": "schemaDescription",
              "type": "string"
            },
            {
              "internalType": "string[]",
              "name": "categories",
              "type": "string[]"
            },
            {
              "internalType": "contract ISchemaResolver",
              "name": "schemaResolver",
              "type": "address"
            },
            {
              "internalType": "bool",
              "name": "revocable",
              "type": "bool"
            }
          ],
          "internalType": "struct SchemaRegistrationInput",
          "name": "input",
          "type": "tuple"
        },
        {
          "internalType": "bytes32",
          "name": "schemaUID",
          "type": "bytes32"
        }
      ],
      "name": "SchemaRegistered",
      "outputs": [],
      "stateMutability": "nonpayable",
      "type": "function"
    },
    {
      "inputs": [
        {
          "internalType": "bytes32",
          "name": "data",
          "type": "bytes32"
        }
      ],
      "name": "bytes32ToString",
      "outputs": [
        {
          "internalType": "string",
          "name": "",
          "type": "string"
        }
      ],
      "stateMutability": "pure",
      "type": "function"
    },
    {
      "inputs": [],
      "name": "owner",
      "outputs": [
        {
          "internalType": "address",
          "name": "",
          "type": "address"
        }
      ],
      "stateMutability": "view",
      "type": "function"
    },
    {
      "inputs": [],
      "name": "renounceOwnership",
      "outputs": [],
      "stateMutability": "nonpayable",
      "type": "function"
    },
    {
      "inputs": [
        {
          "internalType": "uint256",
          "name": "",
          "type": "uint256"
        }
      ],
      "name": "tables",
      "outputs": [
        {
          "internalType": "string",
          "name": "",
          "type": "string"
        }
      ],
      "stateMutability": "view",
      "type": "function"
    },
    {
      "inputs": [
        {
          "internalType": "address",
          "name": "newOwner",
          "type": "address"
        }
      ],
      "name": "transferOwnership",
      "outputs": [],
      "stateMutability": "nonpayable",
      "type": "function"
    }
  ],
  "transactionHash": "0xac5b9dedb1e81f3962b6e099e588c9ae497ca06c68c84b39cf8c112cff14d809",
  "args": [],
  "numDeployments": 1,
  "solcInputHash": "1663970b7101576bbd241d48e0243975",
  "bytecode": "0x60806040523480156200001157600080fd5b506200001d33620002c4565b6200002762000314565b600160006101000a8154816001600160a01b0302191690836001600160a01b031602179055506002620000906040518060c00160405280608981526020016200260660899139604080518082019091526006815265736368656d6160d01b6020820152620004e1565b81546001810183556000928352602090922090910190620000b2908262000840565b506002620001256040518060400160405280601d81526020017f736368656d6155494420746578742c2063617465676f7279207465787400000081525060405180604001604052806011815260200170736368656d615f63617465676f7269657360781b815250620004e160201b60201c565b8154600181018355600092835260209092209091019062000147908262000840565b506001546040516361a23d0f60e01b81526001600160a01b03909116906361a23d0f906200017d90309060029060040162000a39565b6000604051808303816000875af11580156200019d573d6000803e3d6000fd5b505050506040513d6000823e601f3d908101601f19168201604052620001c7919081019062000b73565b8051620001dd91600691602090910190620006cb565b5060036200023160405180604001604052806006815260200165736368656d6160d01b81525060066000815481106200021a576200021a62000bb3565b90600052602060002001546200051c60201b60201c565b8154600181018355600092835260209092209091019062000253908262000840565b5060036200029b60405180604001604052806011815260200170736368656d615f63617465676f7269657360781b81525060066001815481106200021a576200021a62000bb3565b81546001810183556000928352602090922090910190620002bd908262000840565b5062000d0e565b600080546001600160a01b038381166001600160a01b0319831681178455604051919092169283917f8be0079c531659141344cd1fd0a4f28419497f9722a3daafe3b4186f6b6457e09190a35050565b60004660010362000338575073012969f7e3439a9b04025b5a049eb9bad82a8c1290565b46600a036200035a575073fad44bf5b843de943a09d4f3e84949a11d3aa3e690565b4661a4b1036200037d5750739abd75e8640871a5a20d3b4ee6330a04c962affd90565b4661a4ba03620003a05750731a22854c5b1642760a827f20137a67930ae108d290565b46608903620003c25750735c4e6a9e5c1e1bf445a062006faf19ea6c49afea90565b4661013a03620003e557507359ef8bf2d6c102b4c42aef9189e1a9f0abfd652d90565b4662aa36a70362000409575073c50c62498448acc8dbde43da77f8d5d2e2c7597d90565b466101a4036200042c575073c72e8a7be04f2469f8c2db3f1bdf69a7d516abba90565b4662066eed0362000450575073033f69e8d119205089ab15d340f5b797732f646b90565b466201388103620004745750734b48841d4b32c4650e4abc117a03fe8b51f38f6890565b466204cb2f0362000498575073030bcf3d50cad04c2e57391b12740982a930862190565b46617a6903620004bb575073e7f1725e7734ce288f8367e1bb143e90bb3f051290565b4660405163264e42cf60e01b8152600401620004d8919062000bd0565b60405180910390fd5b606081620004ef4662000549565b84604051602001620005049392919062000c5a565b60405160208183030381529060405290505b92915050565b6060826200052a4662000549565b620005358462000549565b604051602001620005049392919062000cca565b606060006200055883620005e2565b60010190506000816001600160401b038111156200057a576200057a62000732565b6040519080825280601f01601f191660200182016040528015620005a5576020820181803683370190505b5090508181016020015b600019016f181899199a1a9b1b9c1cb0b131b232b360811b600a86061a8153600a8504945084620005af57509392505050565b6000807a184f03e93ff9f4daa797ed6e38ed64bf6a1f01000000000000000083106200062c577a184f03e93ff9f4daa797ed6e38ed64bf6a1f010000000000000000830492506040015b6d04ee2d6d415b85acef8100000000831062000659576d04ee2d6d415b85acef8100000000830492506020015b662386f26fc1000083106200067857662386f26fc10000830492506010015b6305f5e100831062000691576305f5e100830492506008015b6127108310620006a657612710830492506004015b60648310620006b9576064830492506002015b600a8310620005165760010192915050565b82805482825590600052602060002090810192821562000709579160200282015b8281111562000709578251825591602001919060010190620006ec565b50620007179291506200071b565b5090565b5b808211156200071757600081556001016200071c565b634e487b7160e01b600052604160045260246000fd5b634e487b7160e01b600052602260045260246000fd5b6002810460018216806200077357607f821691505b60208210810362000788576200078862000748565b50919050565b6000620005166200079c8381565b90565b620007aa836200078e565b815460001960089490940293841b1916921b91909117905550565b6000620007d48184846200079f565b505050565b81811015620007f857620007ef600082620007c5565b600101620007d9565b5050565b601f821115620007d4576000818152602090206020601f85010481016020851015620008255750805b620008396020601f860104830182620007d9565b5050505050565b81516001600160401b038111156200085c576200085c62000732565b6200086882546200075e565b62000875828285620007fc565b6020601f831160018114620008ac5760008415620008935750858201515b600019600886021c198116600286021786555062000908565b600085815260208120601f198616915b82811015620008de5788850151825560209485019460019092019101620008bc565b86831015620008fb5784890151600019601f89166008021c191682555b6001600288020188555050505b505050505050565b60006001600160a01b03821662000516565b6200092d8162000910565b82525050565b6000815462000942816200075e565b8085526020850194506001821680156200096557600181146200097c57620009ac565b60ff198316865260208215150286019350620009ac565b60008581526020902060005b83811015620009a65781548882015260019091019060200162000988565b87019450505b50505092915050565b6000620009c3838362000933565b9392505050565b6000620009d5825490565b80845260208401935083602082028501620009f68560009081526020902090565b8060005b8581101562000a2c5784840389528162000a158582620009b5565b60209a909a019994505060019182019101620009fa565b5091979650505050505050565b6040810162000a49828562000922565b818103602083015262000a5d8184620009ca565b949350505050565b601f19601f83011681018181106001600160401b038211171562000a8d5762000a8d62000732565b6040525050565b600062000aa060405190565b905062000aae828262000a65565b919050565b60006001600160401b0382111562000acf5762000acf62000732565b5060209081020190565b805162000516565b600062000af862000af28462000ab3565b62000a94565b8381529050602080820190840283018581111562000b195762000b19600080fd5b835b8181101562000b41578062000b31888262000ad9565b8452506020928301920162000b1b565b5050509392505050565b600082601f83011262000b615762000b61600080fd5b815162000a5d84826020860162000ae1565b60006020828403121562000b8a5762000b8a600080fd5b81516001600160401b0381111562000ba55762000ba5600080fd5b62000a5d8482850162000b4b565b634e487b7160e01b600052603260045260246000fd5b806200092d565b6020810162000516828462000bc9565b60005b8381101562000bfd57818101518382015260200162000be3565b50506000910152565b600062000c11825190565b62000c2181856020860162000be0565b9290920192915050565b605f60f81b815260005b5060010190565b600560fb1b8152600062000c35565b602960f81b8152600062000c35565b6c021a922a0aa22902a20a126229609d1b8152600d01600062000c7e828662000c06565b915062000c8b8262000c2b565b915062000c99828562000c06565b915062000ca68262000c3c565b915062000cb4828462000c06565b915062000cc18262000c4b565b95945050505050565b600062000cd8828662000c06565b915062000ce58262000c2b565b915062000cf3828562000c06565b915062000d008262000c2b565b915062000cc1828462000c06565b6118e88062000d1e6000396000f3fe608060405234801561001057600080fd5b50600436106100625760003560e01c80636c42ce2514610067578063715018a61461007c57806371671bf2146100845780638da5cb5b146100ad5780639201de55146100c6578063f2fde38b146100d9575b600080fd5b61007a610075366004610fbf565b6100ec565b005b61007a610392565b610097610092366004611015565b6103a6565b6040516100a4919061108c565b60405180910390f35b6000546001600160a01b03166040516100a491906110ac565b6100976100d4366004611015565b610452565b61007a6100e73660046110ce565b61060a565b6100f461064d565b606082015151600554620186a09061010d908390611105565b111561011b5761011b610677565b610276600660008154811061013257610132611118565b906000526020600020015461027160405180604001604052806006815260200165736368656d6160d01b815250600660008154811061017357610173611118565b906000526020600020015460405180608001604052806055815260200161185e605591396101a86101a389610452565b6107ef565b89516101b3906107ef565b6101c36101a38c60800151610818565b6102148c60a001516101f2576040518060400160405280600581526020016466616c736560d81b8152506107ef565b604051806040016040528060048152602001637472756560e01b8152506107ef565b6102218d602001516107ef565b61022e8e604001516107ef565b61023a6101a332610818565b6102466101a342610834565b60405160200161025d989796959493929190611150565b6040516020818303038152906040526108c7565b610906565b60005b83606001515181101561037557610363600660018154811061029d5761029d611118565b906000526020600020015461027160405180604001604052806011815260200170736368656d615f63617465676f7269657360781b81525060066001815481106102e9576102e9611118565b906000526020600020015460405180604001604052806013815260200172736368656d615549442c2063617465676f727960681b81525061032c6101a38a610452565b6103528b60600151898151811061034557610345611118565b60200260200101516107ef565b60405160200161025d929190611204565b8061036d81611226565b915050610279565b5080600560008282546103889190611105565b9091555050505050565b61039a61064d565b6103a46000610970565b565b600381815481106103b657600080fd5b9060005260206000200160009150905080546103d190611256565b80601f01602080910402602001604051908101604052809291908181526020018280546103fd90611256565b801561044a5780601f1061041f5761010080835404028352916020019161044a565b820191906000526020600020905b81548152906001019060200180831161042d57829003601f168201915b505050505081565b6060600061046260206002611282565b60ff166001600160401b0381111561047c5761047c610ca8565b6040519080825280601f01601f1916602001820160405280156104a6576020820181803683370190505b5060408051808201909152601081526f181899199a1a9b1b9c1cb0b131b232b360811b602082015290915060005b60208110156105e0578182518683602081106104f2576104f2611118565b6104fe9291901a6112bf565b8151811061050e5761050e611118565b01602001516001600160f81b031916836105298360026112d3565b8151811061053957610539611118565b60200101906001600160f81b031916908160001a90535081825186836020811061056557610565611118565b6105719291901a6112eb565b8151811061058157610581611118565b01602001516001600160f81b0319168361059c8360026112d3565b6105a7906001611105565b815181106105b7576105b7611118565b60200101906001600160f81b031916908160001a905350806105d881611226565b9150506104d4565b50816040516020016105f291906112ff565b60405160208183030381529060405292505050919050565b61061261064d565b6001600160a01b0381166106415760405162461bcd60e51b815260040161063890611316565b60405180910390fd5b61064a81610970565b50565b6000546001600160a01b031633146103a45760405162461bcd60e51b815260040161063890611395565b6001546040516361a23d0f60e01b81526001600160a01b03909116906361a23d0f906106aa903090600290600401611494565b6000604051808303816000875af11580156106c9573d6000803e3d6000fd5b505050506040513d6000823e601f3d908101601f191682016040526106f19190810190611534565b805161070591600691602090910190610c48565b50600361074e60405180604001604052806006815260200165736368656d6160d01b815250600660008154811061073e5761073e611118565b90600052602060002001546109c0565b8154600181018355600092835260209092209091019061076e9082611612565b5060036107b260405180604001604052806011815260200170736368656d615f63617465676f7269657360781b815250600660018154811061073e5761073e611118565b815460018101835560009283526020909220909101906107d29082611612565b506000600581905560048054916107e883611226565b9190505550565b60608160405160200161080291906116e2565b6040516020818303038152906040529050919050565b606061082e6001600160a01b03831660146109fe565b92915050565b6060600061084183610b70565b60010190506000816001600160401b0381111561086057610860610ca8565b6040519080825280601f01601f19166020018201604052801561088a576020820181803683370190505b5090508181016020015b600019016f181899199a1a9b1b9c1cb0b131b232b360811b600a86061a8153600a8504945084610894575b509392505050565b606060006108d586866109c0565b90508084846040516020016108ec93929190611720565b604051602081830303815290604052915050949350505050565b600154604051631bbd786d60e11b81526001600160a01b039091169063377af0da9061093a9030908690869060040161178f565b600060405180830381600087803b15801561095457600080fd5b505af1158015610968573d6000803e3d6000fd5b505050505050565b600080546001600160a01b038381166001600160a01b0319831681178455604051919092169283917f8be0079c531659141344cd1fd0a4f28419497f9722a3daafe3b4186f6b6457e09190a35050565b6060826109cc46610834565b6109d584610834565b6040516020016109e7939291906117ca565b604051602081830303815290604052905092915050565b60606000610a0d8360026112d3565b610a18906002611105565b6001600160401b03811115610a2f57610a2f610ca8565b6040519080825280601f01601f191660200182016040528015610a59576020820181803683370190505b509050600360fc1b81600081518110610a7457610a74611118565b60200101906001600160f81b031916908160001a905350600f60fb1b81600181518110610aa357610aa3611118565b60200101906001600160f81b031916908160001a9053506000610ac78460026112d3565b610ad2906001611105565b90505b6001811115610b4a576f181899199a1a9b1b9c1cb0b131b232b360811b85600f1660108110610b0657610b06611118565b1a60f81b828281518110610b1c57610b1c611118565b60200101906001600160f81b031916908160001a90535060049490941c93610b4381611804565b9050610ad5565b508315610b695760405162461bcd60e51b81526004016106389061184d565b9392505050565b60008072184f03e93ff9f4daa797ed6e38ed64bf6a1f0160401b8310610baf5772184f03e93ff9f4daa797ed6e38ed64bf6a1f0160401b830492506040015b6d04ee2d6d415b85acef81000000008310610bdb576d04ee2d6d415b85acef8100000000830492506020015b662386f26fc100008310610bf957662386f26fc10000830492506010015b6305f5e1008310610c11576305f5e100830492506008015b6127108310610c2557612710830492506004015b60648310610c37576064830492506002015b600a831061082e5760010192915050565b828054828255906000526020600020908101928215610c83579160200282015b82811115610c83578251825591602001919060010190610c68565b50610c8f929150610c93565b5090565b5b80821115610c8f5760008155600101610c94565b634e487b7160e01b600052604160045260246000fd5b601f19601f83011681018181106001600160401b0382111715610ce357610ce3610ca8565b6040525050565b6000610cf560405190565b9050610d018282610cbe565b919050565b60006001600160401b03821115610d1f57610d1f610ca8565b601f19601f83011660200192915050565b82818337506000910152565b6000610d4f610d4a84610d06565b610cea565b905082815260208101848484011115610d6a57610d6a600080fd5b6108bf848285610d30565b600082601f830112610d8957610d89600080fd5b8135610d99848260208601610d3c565b949350505050565b60006001600160401b03821115610dba57610dba610ca8565b5060209081020190565b6000610dd2610d4a84610da1565b83815290506020808201908402830185811115610df157610df1600080fd5b835b81811015610e315780356001600160401b03811115610e1457610e14600080fd5b808601610e218982610d75565b8552505060209283019201610df3565b5050509392505050565b600082601f830112610e4f57610e4f600080fd5b8135610d99848260208601610dc4565b60006001600160a01b03821661082e565b600061082e82610e5f565b610e8481610e70565b811461064a57600080fd5b803561082e81610e7b565b801515610e84565b803561082e81610e9a565b600060c08284031215610ec257610ec2600080fd5b610ecc60c0610cea565b905081356001600160401b03811115610ee757610ee7600080fd5b610ef384828501610d75565b82525060208201356001600160401b03811115610f1257610f12600080fd5b610f1e84828501610d75565b60208301525060408201356001600160401b03811115610f4057610f40600080fd5b610f4c84828501610d75565b60408301525060608201356001600160401b03811115610f6e57610f6e600080fd5b610f7a84828501610e3b565b6060830152506080610f8e84828501610e8f565b60808301525060a0610fa284828501610ea2565b60a08301525092915050565b80610e84565b803561082e81610fae565b60008060408385031215610fd557610fd5600080fd5b82356001600160401b03811115610fee57610fee600080fd5b610ffa85828601610ead565b925050602061100b85828601610fb4565b9150509250929050565b60006020828403121561102a5761102a600080fd5b6000610d998484610fb4565b60005b83811015611051578181015183820152602001611039565b50506000910152565b6000611064825190565b80845260208401935061107b818560208601611036565b601f01601f19169290920192915050565b60208082528101610b69818461105a565b6110a681610e5f565b82525050565b6020810161082e828461109d565b610e8481610e5f565b803561082e816110ba565b6000602082840312156110e3576110e3600080fd5b6000610d9984846110c3565b634e487b7160e01b600052601160045260246000fd5b8082018082111561082e5761082e6110ef565b634e487b7160e01b600052603260045260246000fd5b6000611138825190565b611146818560208601611036565b9290920192915050565b600061115c828b61112e565b600b60fa1b81526001019150611172828a61112e565b600b60fa1b81526001019150611188828961112e565b600b60fa1b8152600101915061119e828861112e565b600b60fa1b815260010191506111b4828761112e565b600b60fa1b815260010191506111ca828661112e565b600b60fa1b815260010191506111e0828561112e565b600b60fa1b815260010191506111f6828461112e565b9a9950505050505050505050565b6000611210828561112e565b600b60fa1b81526001019150610d99828461112e565b60006000198203611239576112396110ef565b5060010190565b634e487b7160e01b600052602260045260246000fd5b60028104600182168061126a57607f821691505b60208210810361127c5761127c611240565b50919050565b60ff9182169190811690828202908116908181146112a2576112a26110ef565b5092915050565b634e487b7160e01b600052601260045260246000fd5b6000826112ce576112ce6112a9565b500490565b8181028082158382048514176112a2576112a26110ef565b6000826112fa576112fa6112a9565b500690565b61060f60f31b81526002016000610b69828461112e565b6020808252810161082e81602681527f4f776e61626c653a206e6577206f776e657220697320746865207a65726f206160208201526564647265737360d01b604082015260600190565b60208082527f4f776e61626c653a2063616c6c6572206973206e6f7420746865206f776e6572910190815260005b5060200190565b6020808252810161082e81611360565b600081546113b281611256565b8085526020850194506001821680156113d257600181146113e857611416565b60ff198316865260208215150286019350611416565b60008581526020902060005b83811015611410578154888201526001909101906020016113f4565b87019450505b50505092915050565b6000610b6983836113a5565b6000611435825490565b808452602084019350836020820285016114558560009081526020902090565b8060005b8581101561148757848403895281611471858261141f565b60209a909a019994505060019182019101611459565b5091979650505050505050565b604081016114a2828561109d565b8181036020830152610d99818461142b565b805161082e81610fae565b60006114cd610d4a84610da1565b838152905060208082019084028301858111156114ec576114ec600080fd5b835b81811015610e31578061150188826114b4565b845250602092830192016114ee565b600082601f83011261152457611524600080fd5b8151610d998482602086016114bf565b60006020828403121561154957611549600080fd5b81516001600160401b0381111561156257611562600080fd5b610d9984828501611510565b600061082e61157a8381565b90565b6115868361156e565b815460001960089490940293841b1916921b91909117905550565b60006115ae81848461157d565b505050565b818110156115ce576115c66000826115a1565b6001016115b3565b5050565b601f8211156115ae576000818152602090206020601f850104810160208510156115f95750805b61160b6020601f8601048301826115b3565b5050505050565b81516001600160401b0381111561162b5761162b610ca8565b6116358254611256565b6116408282856115d2565b6020601f831160018114611674576000841561165c5750858201515b600019600886021c1981166002860217865550610968565b600085815260208120601f198616915b828110156116a45788850151825560209485019460019092019101611684565b868310156116c05784890151600019601f89166008021c191682555b600160028802018855505050505050505050565b602760f81b81526000611239565b60006116ed826116d4565b91506116f9828461112e565b9150610b69826116d4565b600560fb1b81526000611239565b602960f81b81526000611239565b6b024a729a2a92a1024a72a27960a51b8152600c016000611741828661112e565b915061174c82611704565b9150611758828561112e565b67052ac8298aa8aa6560c31b81526008019150611775828461112e565b915061178082611712565b95945050505050565b806110a6565b6060810161179d828661109d565b6117aa6020830185611789565b8181036040830152611780818461105a565b605f60f81b81526000611239565b60006117d6828661112e565b91506117e1826117bc565b91506117ed828561112e565b91506117f8826117bc565b9150611780828461112e565b600081611813576118136110ef565b506000190190565b60208082527f537472696e67733a20686578206c656e67746820696e73756666696369656e749101908152600061138e565b6020808252810161082e8161181b56fe736368656d615549442c20736368656d612c207265736f6c7665722c207265766f6361626c652c206e616d652c206465736372697074696f6e2c2063726561746f722c206372656174696f6e54696d657374616d70a2646970667358221220ccb2fbd105fedb3d3992368ea979173b38e5cf23deb7cbd5ecdb20846c811b0664736f6c63430008130033736368656d615549442074657874207072696d617279206b65792c20736368656d6120746578742c207265736f6c76657220746578742c207265766f6361626c6520746578742c206e616d6520746578742c206465736372697074696f6e20746578742c2063726561746f7220746578742c206372656174696f6e54696d657374616d702074657874",
  "devdoc": {
    "kind": "dev",
    "methods": {
      "constructor": {
        "details": "Creates a new SchemaRegistry instance."
      },
      "owner()": {
        "details": "Returns the address of the current owner."
      },
      "renounceOwnership()": {
        "details": "Leaves the contract without owner. It will not be possible to call `onlyOwner` functions. Can only be called by the current owner. NOTE: Renouncing ownership will leave the contract without an owner, thereby disabling any functionality that is only available to the owner."
      },
      "transferOwnership(address)": {
        "details": "Transfers ownership of the contract to a new account (`newOwner`). Can only be called by the current owner."
      }
    },
    "title": "SchemaTablelandIndexer",
    "version": 1
  },
  "userdoc": {
    "errors": {
      "ChainNotSupported(uint256)": [
        {
          "notice": "Current chain does not have a TablelandTables deployment."
        }
      ]
    },
    "kind": "user",
    "methods": {},
    "version": 1
  },
  "storageLayout": {
    "storage": [
      {
        "astId": 396,
        "contract": "contracts/tablelandIndexers/SchemaTablelandIndexer.sol:SchemaTablelandIndexer",
        "label": "_owner",
        "offset": 0,
        "slot": "0",
        "type": "t_address"
      },
      {
        "astId": 10821,
        "contract": "contracts/tablelandIndexers/SchemaTablelandIndexer.sol:SchemaTablelandIndexer",
        "label": "tablelandContract",
        "offset": 0,
        "slot": "1",
        "type": "t_contract(ITablelandTables)4651"
      },
      {
        "astId": 10824,
        "contract": "contracts/tablelandIndexers/SchemaTablelandIndexer.sol:SchemaTablelandIndexer",
        "label": "createTableStatements",
        "offset": 0,
        "slot": "2",
        "type": "t_array(t_string_storage)dyn_storage"
      },
      {
        "astId": 10827,
        "contract": "contracts/tablelandIndexers/SchemaTablelandIndexer.sol:SchemaTablelandIndexer",
        "label": "tables",
        "offset": 0,
        "slot": "3",
        "type": "t_array(t_string_storage)dyn_storage"
      },
      {
        "astId": 10829,
        "contract": "contracts/tablelandIndexers/SchemaTablelandIndexer.sol:SchemaTablelandIndexer",
        "label": "tablesUpdates",
        "offset": 0,
        "slot": "4",
        "type": "t_uint256"
      },
      {
        "astId": 10831,
        "contract": "contracts/tablelandIndexers/SchemaTablelandIndexer.sol:SchemaTablelandIndexer",
        "label": "tableRowsCounter",
        "offset": 0,
        "slot": "5",
        "type": "t_uint256"
      },
      {
        "astId": 10834,
        "contract": "contracts/tablelandIndexers/SchemaTablelandIndexer.sol:SchemaTablelandIndexer",
        "label": "tableIDs",
        "offset": 0,
        "slot": "6",
        "type": "t_array(t_uint256)dyn_storage"
      }
    ],
    "types": {
      "t_address": {
        "encoding": "inplace",
        "label": "address",
        "numberOfBytes": "20"
      },
      "t_array(t_string_storage)dyn_storage": {
        "base": "t_string_storage",
        "encoding": "dynamic_array",
        "label": "string[]",
        "numberOfBytes": "32"
      },
      "t_array(t_uint256)dyn_storage": {
        "base": "t_uint256",
        "encoding": "dynamic_array",
        "label": "uint256[]",
        "numberOfBytes": "32"
      },
      "t_contract(ITablelandTables)4651": {
        "encoding": "inplace",
        "label": "contract ITablelandTables",
        "numberOfBytes": "20"
      },
      "t_string_storage": {
        "encoding": "bytes",
        "label": "string",
        "numberOfBytes": "32"
      },
      "t_uint256": {
        "encoding": "inplace",
        "label": "uint256",
        "numberOfBytes": "32"
      }
    }
  }
}