{
  "address": "0xA97CF4813585a9a3d8BCd8191978D3BE2Eec77c7",
  "abi": [
    {
      "anonymous": false,
      "inputs": [
        {
          "indexed": true,
          "internalType": "contract IERC20",
          "name": "token",
          "type": "address"
        },
        {
          "indexed": false,
          "internalType": "address",
          "name": "to",
          "type": "address"
        },
        {
          "indexed": false,
          "internalType": "uint256",
          "name": "amount",
          "type": "uint256"
        }
      ],
      "name": "ERC20PaymentReleased",
      "type": "event"
    },
    {
      "anonymous": false,
      "inputs": [
        {
          "indexed": false,
          "internalType": "uint8",
          "name": "version",
          "type": "uint8"
        }
      ],
      "name": "Initialized",
      "type": "event"
    },
    {
      "anonymous": false,
      "inputs": [
        {
          "indexed": false,
          "internalType": "address",
          "name": "account",
          "type": "address"
        },
        {
          "indexed": false,
          "internalType": "uint256",
          "name": "shares",
          "type": "uint256"
        }
      ],
      "name": "PayeeAdded",
      "type": "event"
    },
    {
      "anonymous": false,
      "inputs": [
        {
          "indexed": false,
          "internalType": "address",
          "name": "from",
          "type": "address"
        },
        {
          "indexed": false,
          "internalType": "uint256",
          "name": "amount",
          "type": "uint256"
        }
      ],
      "name": "PaymentReceived",
      "type": "event"
    },
    {
      "anonymous": false,
      "inputs": [
        {
          "indexed": false,
          "internalType": "address",
          "name": "to",
          "type": "address"
        },
        {
          "indexed": false,
          "internalType": "uint256",
          "name": "amount",
          "type": "uint256"
        }
      ],
      "name": "PaymentReleased",
      "type": "event"
    },
    {
      "inputs": [
        {
          "internalType": "contract IERC20",
          "name": "token",
          "type": "address"
        }
      ],
      "name": "distribute",
      "outputs": [],
      "stateMutability": "nonpayable",
      "type": "function"
    },
    {
      "inputs": [],
      "name": "distribute",
      "outputs": [],
      "stateMutability": "nonpayable",
      "type": "function"
    },
    {
      "inputs": [
        {
          "internalType": "address[]",
          "name": "payees",
          "type": "address[]"
        },
        {
          "internalType": "uint256[]",
          "name": "shares_",
          "type": "uint256[]"
        }
      ],
      "name": "initialize",
      "outputs": [],
      "stateMutability": "payable",
      "type": "function"
    },
    {
      "inputs": [
        {
          "internalType": "uint256",
          "name": "index",
          "type": "uint256"
        }
      ],
      "name": "payee",
      "outputs": [
        {
          "internalType": "address",
          "name": "",
          "type": "address"
        }
      ],
      "stateMutability": "view",
      "type": "function"
    },
    {
      "inputs": [],
      "name": "payeeCount",
      "outputs": [
        {
          "internalType": "uint256",
          "name": "",
          "type": "uint256"
        }
      ],
      "stateMutability": "view",
      "type": "function"
    },
    {
      "inputs": [
        {
          "internalType": "address",
          "name": "account",
          "type": "address"
        }
      ],
      "name": "releasable",
      "outputs": [
        {
          "internalType": "uint256",
          "name": "",
          "type": "uint256"
        }
      ],
      "stateMutability": "view",
      "type": "function"
    },
    {
      "inputs": [
        {
          "internalType": "contract IERC20",
          "name": "token",
          "type": "address"
        },
        {
          "internalType": "address",
          "name": "account",
          "type": "address"
        }
      ],
      "name": "releasable",
      "outputs": [
        {
          "internalType": "uint256",
          "name": "",
          "type": "uint256"
        }
      ],
      "stateMutability": "view",
      "type": "function"
    },
    {
      "inputs": [
        {
          "internalType": "address payable",
          "name": "account",
          "type": "address"
        }
      ],
      "name": "release",
      "outputs": [],
      "stateMutability": "nonpayable",
      "type": "function"
    },
    {
      "inputs": [
        {
          "internalType": "contract IERC20",
          "name": "token",
          "type": "address"
        },
        {
          "internalType": "address",
          "name": "account",
          "type": "address"
        }
      ],
      "name": "release",
      "outputs": [],
      "stateMutability": "nonpayable",
      "type": "function"
    },
    {
      "inputs": [
        {
          "internalType": "contract IERC20",
          "name": "token",
          "type": "address"
        },
        {
          "internalType": "address",
          "name": "account",
          "type": "address"
        }
      ],
      "name": "released",
      "outputs": [
        {
          "internalType": "uint256",
          "name": "",
          "type": "uint256"
        }
      ],
      "stateMutability": "view",
      "type": "function"
    },
    {
      "inputs": [
        {
          "internalType": "address",
          "name": "account",
          "type": "address"
        }
      ],
      "name": "released",
      "outputs": [
        {
          "internalType": "uint256",
          "name": "",
          "type": "uint256"
        }
      ],
      "stateMutability": "view",
      "type": "function"
    },
    {
      "inputs": [
        {
          "internalType": "address",
          "name": "account",
          "type": "address"
        }
      ],
      "name": "shares",
      "outputs": [
        {
          "internalType": "uint256",
          "name": "",
          "type": "uint256"
        }
      ],
      "stateMutability": "view",
      "type": "function"
    },
    {
      "inputs": [
        {
          "internalType": "contract IERC20",
          "name": "token",
          "type": "address"
        }
      ],
      "name": "totalReleased",
      "outputs": [
        {
          "internalType": "uint256",
          "name": "",
          "type": "uint256"
        }
      ],
      "stateMutability": "view",
      "type": "function"
    },
    {
      "inputs": [],
      "name": "totalReleased",
      "outputs": [
        {
          "internalType": "uint256",
          "name": "",
          "type": "uint256"
        }
      ],
      "stateMutability": "view",
      "type": "function"
    },
    {
      "inputs": [],
      "name": "totalShares",
      "outputs": [
        {
          "internalType": "uint256",
          "name": "",
          "type": "uint256"
        }
      ],
      "stateMutability": "view",
      "type": "function"
    },
    {
      "stateMutability": "payable",
      "type": "receive"
    }
  ],
  "transactionHash": "0xa56bd88ef5e7339441b03482e3571a8007baffeb70b1ff471a6d60fc615f57f9",
  "args": [],
  "numDeployments": 1,
  "solcInputHash": "1663970b7101576bbd241d48e0243975",
  "bytecode": "0x608060405234801561001057600080fd5b5061156a806100206000396000f3fe6080604052600436106100eb5760003560e01c80638b83209b1161008a578063ce7c2ac211610059578063ce7c2ac2146102a4578063d79779b2146102da578063e33b7de314610310578063e4fc6b6d1461032557600080fd5b80638b83209b146102015780639852595c1461022e578063a3f8eace14610264578063c45ac0501461028457600080fd5b8063406072a9116100c6578063406072a91461018e57806348b75044146101ae57806363453ae1146101ce5780637fbbe46f146101ee57600080fd5b8062dbe1091461013057806319165587146101575780633a98ef391461017957600080fd5b3661012b577f6ef95f06320e7a25a04a175ca677b7052bdd97131872c2192525a629f51be7703334604051610121929190610c44565b60405180910390a1005b600080fd5b34801561013c57600080fd5b506005545b60405161014e9190610c5f565b60405180910390f35b34801561016357600080fd5b50610177610172366004610c8f565b61033a565b005b34801561018557600080fd5b50600154610141565b34801561019a57600080fd5b506101416101a9366004610ccf565b610421565b3480156101ba57600080fd5b506101776101c9366004610ccf565b61044e565b3480156101da57600080fd5b506101776101e9366004610d0c565b61055c565b6101776101fc366004610eba565b610598565b34801561020d57600080fd5b5061022161021c366004610f22565b6106fd565b60405161014e9190610f43565b34801561023a57600080fd5b50610141610249366004610c8f565b6001600160a01b031660009081526004602052604090205490565b34801561027057600080fd5b5061014161027f366004610c8f565b61072d565b34801561029057600080fd5b5061014161029f366004610ccf565b610775565b3480156102b057600080fd5b506101416102bf366004610c8f565b6001600160a01b031660009081526003602052604090205490565b3480156102e657600080fd5b506101416102f5366004610d0c565b6001600160a01b031660009081526006602052604090205490565b34801561031c57600080fd5b50600254610141565b34801561033157600080fd5b50610177610817565b6001600160a01b0381166000908152600360205260409020546103785760405162461bcd60e51b815260040161036f90610f97565b60405180910390fd5b60006103838261072d565b9050806000036103a55760405162461bcd60e51b815260040161036f90610fef565b80600260008282546103b79190611015565b90915550506001600160a01b03821660009081526004602052604090208054820190556103e48282610851565b7fdf20fd1e76bc69d672e4814fafb2c449bba3a5369d8359adf9e05e6fde87b056828260405161041592919061103c565b60405180910390a15050565b6001600160a01b038083166000908152600760209081526040808320938516835292905220545b92915050565b6001600160a01b0381166000908152600360205260409020546104835760405162461bcd60e51b815260040161036f90610f97565b600061048f8383610775565b9050806000036104b15760405162461bcd60e51b815260040161036f90610fef565b6001600160a01b038316600090815260066020526040812080548392906104d9908490611015565b90915550506001600160a01b0380841660009081526007602090815260408083209386168352929052208054820190556105148383836108ed565b826001600160a01b03167f3be5b7a71e84ed12875d241991c70855ac5817d847039e17a9d895c1ceb0f18a838360405161054f929190610c44565b60405180910390a2505050565b600061056760055490565b905060005b8181101561059357610581836101c9836106fd565b8061058b8161104a565b91505061056c565b505050565b600054610100900460ff16158080156105b85750600054600160ff909116105b806105d25750303b1580156105d2575060005460ff166001145b6105ee5760405162461bcd60e51b815260040161036f906110af565b6000805460ff191660011790558015610611576000805461ff0019166101001790555b81518351146106325760405162461bcd60e51b815260040161036f9061110e565b60008351116106535760405162461bcd60e51b815260040161036f90611155565b60005b83518110156106ad5761069b84828151811061067457610674611165565b602002602001015184838151811061068e5761068e611165565b6020026020010151610943565b806106a58161104a565b915050610656565b508015610593576000805461ff00191690556040517f7f26b83ff96e1f2b6a682f133852f6798a09c465da95921460cefb3847402498906106f09060019061118f565b60405180910390a1505050565b60006005828154811061071257610712611165565b6000918252602090912001546001600160a01b031692915050565b60008061073960025490565b6107439047611015565b905061076e8382610769866001600160a01b031660009081526004602052604090205490565b610a5b565b9392505050565b6001600160a01b0382166000818152600660205260408082205490516370a0823160e01b8152919283926370a08231906107b3903090600401610f43565b602060405180830381865afa1580156107d0573d6000803e3d6000fd5b505050506040513d601f19601f820116820180604052508101906107f491906111a8565b6107fe9190611015565b905061080f83826107698787610421565b949350505050565b600061082260055490565b905060005b8181101561084d5761083b610172826106fd565b806108458161104a565b915050610827565b5050565b804710156108715760405162461bcd60e51b815260040161036f906111fd565b6000826001600160a01b03168260405161088a9061120d565b60006040518083038185875af1925050503d80600081146108c7576040519150601f19603f3d011682016040523d82523d6000602084013e6108cc565b606091505b50509050806105935760405162461bcd60e51b815260040161036f9061126f565b6105938363a9059cbb60e01b848460405160240161090c929190610c44565b60408051601f198184030181529190526020810180516001600160e01b03166001600160e01b031990931692909217909152610a99565b6001600160a01b0382166109695760405162461bcd60e51b815260040161036f906112c8565b600081116109895760405162461bcd60e51b815260040161036f9061130c565b6001600160a01b038216600090815260036020526040902054156109bf5760405162461bcd60e51b815260040161036f90611364565b6005805460018082019092557f036b6384b5eca791c62761152d0c79bb0604c104a5fb6f4eb0703f3154bb3db00180546001600160a01b0319166001600160a01b038516908117909155600090815260036020526040902082905554610a26908290611015565b6001556040517f40c340f65e17194d14ddddb073d3c9f888e3cb52b5aae0c6c7706b4fbc905fac906104159084908490610c44565b6001546001600160a01b03841660009081526003602052604081205490918391610a859086611374565b610a8f91906113a9565b61080f91906113bd565b6000610aee826040518060400160405280602081526020017f5361666545524332303a206c6f772d6c6576656c2063616c6c206661696c6564815250856001600160a01b0316610b2b9092919063ffffffff16565b9050805160001480610b0f575080806020019051810190610b0f91906113e3565b6105935760405162461bcd60e51b815260040161036f9061144b565b606061080f848460008585600080866001600160a01b03168587604051610b5291906114a1565b60006040518083038185875af1925050503d8060008114610b8f576040519150601f19603f3d011682016040523d82523d6000602084013e610b94565b606091505b5091509150610ba587838387610bb0565b979650505050505050565b60608315610bef578251600003610be8576001600160a01b0385163b610be85760405162461bcd60e51b815260040161036f906114e1565b508161080f565b61080f8383815115610c045781518083602001fd5b8060405162461bcd60e51b815260040161036f9190611523565b60006001600160a01b038216610448565b610c3881610c1e565b82525050565b80610c38565b60408101610c528285610c2f565b61076e6020830184610c3e565b602081016104488284610c3e565b610c7681610c1e565b8114610c8157600080fd5b50565b803561044881610c6d565b600060208284031215610ca457610ca4600080fd5b600061080f8484610c84565b600061044882610c1e565b610c7681610cb0565b803561044881610cbb565b60008060408385031215610ce557610ce5600080fd5b6000610cf18585610cc4565b9250506020610d0285828601610c84565b9150509250929050565b600060208284031215610d2157610d21600080fd5b600061080f8484610cc4565b634e487b7160e01b600052604160045260246000fd5b601f19601f830116810181811067ffffffffffffffff82111715610d6957610d69610d2d565b6040525050565b6000610d7b60405190565b9050610d878282610d43565b919050565b600067ffffffffffffffff821115610da657610da6610d2d565b5060209081020190565b6000610dc3610dbe84610d8c565b610d70565b83815290506020808201908402830185811115610de257610de2600080fd5b835b81811015610e065780610df78882610c84565b84525060209283019201610de4565b5050509392505050565b600082601f830112610e2457610e24600080fd5b813561080f848260208601610db0565b80610c76565b803561044881610e34565b6000610e53610dbe84610d8c565b83815290506020808201908402830185811115610e7257610e72600080fd5b835b81811015610e065780610e878882610e3a565b84525060209283019201610e74565b600082601f830112610eaa57610eaa600080fd5b813561080f848260208601610e45565b60008060408385031215610ed057610ed0600080fd5b823567ffffffffffffffff811115610eea57610eea600080fd5b610ef685828601610e10565b925050602083013567ffffffffffffffff811115610f1657610f16600080fd5b610d0285828601610e96565b600060208284031215610f3757610f37600080fd5b600061080f8484610e3a565b602081016104488284610c2f565b602681526000602082017f5061796d656e7453706c69747465723a206163636f756e7420686173206e6f2081526573686172657360d01b602082015291505b5060400190565b6020808252810161044881610f51565b602b81526000602082017f5061796d656e7453706c69747465723a206163636f756e74206973206e6f742081526a191d59481c185e5b595b9d60aa1b60208201529150610f90565b6020808252810161044881610fa7565b634e487b7160e01b600052601160045260246000fd5b8082018082111561044857610448610fff565b600061044882610cb0565b610c3881611028565b60408101610c528285611033565b6000600019820361105d5761105d610fff565b5060010190565b602e81526000602082017f496e697469616c697a61626c653a20636f6e747261637420697320616c72656181526d191e481a5b9a5d1a585b1a5e995960921b60208201529150610f90565b6020808252810161044881611064565b603281526000602082017f5061796d656e7453706c69747465723a2070617965657320616e6420736861728152710cae640d8cadccee8d040dad2e6dac2e8c6d60731b60208201529150610f90565b60208082528101610448816110bf565b601a81526000602082017f5061796d656e7453706c69747465723a206e6f20706179656573000000000000815291505b5060200190565b602080825281016104488161111e565b634e487b7160e01b600052603260045260246000fd5b600060ff8216610448565b610c388161117b565b602081016104488284611186565b805161044881610e34565b6000602082840312156111bd576111bd600080fd5b600061080f848461119d565b601d81526000602082017f416464726573733a20696e73756666696369656e742062616c616e63650000008152915061114e565b60208082528101610448816111c9565b600081610448565b603a81526000602082017f416464726573733a20756e61626c6520746f2073656e642076616c75652c207281527f6563697069656e74206d6179206861766520726576657274656400000000000060208201529150610f90565b6020808252810161044881611215565b602c81526000602082017f5061796d656e7453706c69747465723a206163636f756e74206973207468652081526b7a65726f206164647265737360a01b60208201529150610f90565b602080825281016104488161127f565b601d81526000602082017f5061796d656e7453706c69747465723a207368617265732061726520300000008152915061114e565b60208082528101610448816112d8565b602b81526000602082017f5061796d656e7453706c69747465723a206163636f756e7420616c726561647981526a206861732073686172657360a81b60208201529150610f90565b602080825281016104488161131c565b81810280821583820485141761138c5761138c610fff565b5092915050565b634e487b7160e01b600052601260045260246000fd5b6000826113b8576113b8611393565b500490565b8181038181111561044857610448610fff565b801515610c76565b8051610448816113d0565b6000602082840312156113f8576113f8600080fd5b600061080f84846113d8565b602a81526000602082017f5361666545524332303a204552433230206f7065726174696f6e20646964206e8152691bdd081cdd58d8d9595960b21b60208201529150610f90565b6020808252810161044881611404565b60005b8381101561147657818101518382015260200161145e565b50506000910152565b6000611489825190565b61149781856020860161145b565b9290920192915050565b600061076e828461147f565b601d81526000602082017f416464726573733a2063616c6c20746f206e6f6e2d636f6e74726163740000008152915061114e565b60208082528101610448816114ad565b60006114fb825190565b80845260208401935061151281856020860161145b565b601f01601f19169290920192915050565b6020808252810161076e81846114f156fea2646970667358221220db1044b55976da08c40ce4e3b373e8e3e880b2ad917059fcb905d0b666dfcd2a64736f6c63430008130033",
  "devdoc": {
    "details": "This contract allows to split Ether payments among a group of accounts. The sender does not need to be aware that the Ether will be split in this way, since it is handled transparently by the contract. The split can be in equal parts or in any other arbitrary proportion. The way this is specified is by assigning each account to a number of shares. Of all the Ether that this contract receives, each account will then be able to claim an amount proportional to the percentage of total shares they were assigned. The distribution of shares is set at the time of contract deployment and can't be updated thereafter. `PaymentSplitter` follows a _pull payment_ model. This means that payments are not automatically forwarded to the accounts but kept in this contract, and the actual transfer is triggered as a separate step by calling the {release} function. NOTE: This contract assumes that ERC20 tokens will behave similarly to native tokens (Ether). Rebasing tokens, and tokens that apply fees during transfers, are likely to not be supported as expected. If in doubt, we encourage you to run tests before sending real value to this contract.",
    "events": {
      "Initialized(uint8)": {
        "details": "Triggered when the contract has been initialized or reinitialized."
      }
    },
    "kind": "dev",
    "methods": {
      "distribute()": {
        "details": "Release the owed amount of token to all of the payees."
      },
      "distribute(address)": {
        "details": "Release owed amount of the `token` to all of the payees."
      },
      "initialize(address[],uint256[])": {
        "details": "Creates an instance of `PaymentSplitter` where each account in `payees` is assigned the number of shares at the matching position in the `shares` array. All addresses in `payees` must be non-zero. Both arrays must have the same non-zero length, and there must be no duplicates in `payees`."
      },
      "payee(uint256)": {
        "details": "Getter for the address of the payee number `index`."
      },
      "payeeCount()": {
        "details": "Get the number of payees"
      },
      "releasable(address)": {
        "details": "Getter for the amount of payee's releasable Ether."
      },
      "releasable(address,address)": {
        "details": "Getter for the amount of payee's releasable `token` tokens. `token` should be the address of an IERC20 contract."
      },
      "release(address)": {
        "details": "Triggers a transfer to `account` of the amount of Ether they are owed, according to their percentage of the total shares and their previous withdrawals."
      },
      "release(address,address)": {
        "details": "Triggers a transfer to `account` of the amount of `token` tokens they are owed, according to their percentage of the total shares and their previous withdrawals. `token` must be the address of an IERC20 contract."
      },
      "released(address)": {
        "details": "Getter for the amount of Ether already released to a payee."
      },
      "released(address,address)": {
        "details": "Getter for the amount of `token` tokens already released to a payee. `token` should be the address of an IERC20 contract."
      },
      "shares(address)": {
        "details": "Getter for the amount of shares held by an account."
      },
      "totalReleased()": {
        "details": "Getter for the total amount of Ether already released."
      },
      "totalReleased(address)": {
        "details": "Getter for the total amount of `token` already released. `token` should be the address of an IERC20 contract."
      },
      "totalShares()": {
        "details": "Getter for the total shares held by payees."
      }
    },
    "title": "PaymentSplitter",
    "version": 1
  },
  "userdoc": {
    "kind": "user",
    "methods": {},
    "version": 1
  },
  "storageLayout": {
    "storage": [
      {
        "astId": 627,
        "contract": "contracts/SubscriptionSplitter/Splitter.sol:Splitter",
        "label": "_initialized",
        "offset": 0,
        "slot": "0",
        "type": "t_uint8"
      },
      {
        "astId": 630,
        "contract": "contracts/SubscriptionSplitter/Splitter.sol:Splitter",
        "label": "_initializing",
        "offset": 1,
        "slot": "0",
        "type": "t_bool"
      },
      {
        "astId": 5734,
        "contract": "contracts/SubscriptionSplitter/Splitter.sol:Splitter",
        "label": "_totalShares",
        "offset": 0,
        "slot": "1",
        "type": "t_uint256"
      },
      {
        "astId": 5736,
        "contract": "contracts/SubscriptionSplitter/Splitter.sol:Splitter",
        "label": "_totalReleased",
        "offset": 0,
        "slot": "2",
        "type": "t_uint256"
      },
      {
        "astId": 5740,
        "contract": "contracts/SubscriptionSplitter/Splitter.sol:Splitter",
        "label": "_shares",
        "offset": 0,
        "slot": "3",
        "type": "t_mapping(t_address,t_uint256)"
      },
      {
        "astId": 5744,
        "contract": "contracts/SubscriptionSplitter/Splitter.sol:Splitter",
        "label": "_released",
        "offset": 0,
        "slot": "4",
        "type": "t_mapping(t_address,t_uint256)"
      },
      {
        "astId": 5747,
        "contract": "contracts/SubscriptionSplitter/Splitter.sol:Splitter",
        "label": "_payees",
        "offset": 0,
        "slot": "5",
        "type": "t_array(t_address)dyn_storage"
      },
      {
        "astId": 5752,
        "contract": "contracts/SubscriptionSplitter/Splitter.sol:Splitter",
        "label": "_erc20TotalReleased",
        "offset": 0,
        "slot": "6",
        "type": "t_mapping(t_contract(IERC20)867,t_uint256)"
      },
      {
        "astId": 5759,
        "contract": "contracts/SubscriptionSplitter/Splitter.sol:Splitter",
        "label": "_erc20Released",
        "offset": 0,
        "slot": "7",
        "type": "t_mapping(t_contract(IERC20)867,t_mapping(t_address,t_uint256))"
      }
    ],
    "types": {
      "t_address": {
        "encoding": "inplace",
        "label": "address",
        "numberOfBytes": "20"
      },
      "t_array(t_address)dyn_storage": {
        "base": "t_address",
        "encoding": "dynamic_array",
        "label": "address[]",
        "numberOfBytes": "32"
      },
      "t_bool": {
        "encoding": "inplace",
        "label": "bool",
        "numberOfBytes": "1"
      },
      "t_contract(IERC20)867": {
        "encoding": "inplace",
        "label": "contract IERC20",
        "numberOfBytes": "20"
      },
      "t_mapping(t_address,t_uint256)": {
        "encoding": "mapping",
        "key": "t_address",
        "label": "mapping(address => uint256)",
        "numberOfBytes": "32",
        "value": "t_uint256"
      },
      "t_mapping(t_contract(IERC20)867,t_mapping(t_address,t_uint256))": {
        "encoding": "mapping",
        "key": "t_contract(IERC20)867",
        "label": "mapping(contract IERC20 => mapping(address => uint256))",
        "numberOfBytes": "32",
        "value": "t_mapping(t_address,t_uint256)"
      },
      "t_mapping(t_contract(IERC20)867,t_uint256)": {
        "encoding": "mapping",
        "key": "t_contract(IERC20)867",
        "label": "mapping(contract IERC20 => uint256)",
        "numberOfBytes": "32",
        "value": "t_uint256"
      },
      "t_uint256": {
        "encoding": "inplace",
        "label": "uint256",
        "numberOfBytes": "32"
      },
      "t_uint8": {
        "encoding": "inplace",
        "label": "uint8",
        "numberOfBytes": "1"
      }
    }
  }
}