{
  "address": "0x5A4Bc4eD4BB25f1f9B51b9940261f0be4D9B6E4D",
  "abi": [
    {
      "inputs": [
        {
          "internalType": "contract ITASIndexer",
          "name": "_tableland",
          "type": "address"
        },
        {
          "internalType": "contract ISchemaRegistry",
          "name": "registry",
          "type": "address"
        }
      ],
      "stateMutability": "nonpayable",
      "type": "constructor"
    },
    {
      "inputs": [],
      "name": "AccessDenied",
      "type": "error"
    },
    {
      "inputs": [],
      "name": "AlreadyRevoked",
      "type": "error"
    },
    {
      "inputs": [],
      "name": "AlreadyRevokedOffchain",
      "type": "error"
    },
    {
      "inputs": [],
      "name": "AlreadyTimestamped",
      "type": "error"
    },
    {
      "inputs": [],
      "name": "DeadlineExpired",
      "type": "error"
    },
    {
      "inputs": [],
      "name": "InsufficientValue",
      "type": "error"
    },
    {
      "inputs": [],
      "name": "InvalidAttestation",
      "type": "error"
    },
    {
      "inputs": [],
      "name": "InvalidAttestations",
      "type": "error"
    },
    {
      "inputs": [],
      "name": "InvalidExpirationTime",
      "type": "error"
    },
    {
      "inputs": [],
      "name": "InvalidLength",
      "type": "error"
    },
    {
      "inputs": [],
      "name": "InvalidNonce",
      "type": "error"
    },
    {
      "inputs": [],
      "name": "InvalidOffset",
      "type": "error"
    },
    {
      "inputs": [],
      "name": "InvalidRegistry",
      "type": "error"
    },
    {
      "inputs": [],
      "name": "InvalidRevocation",
      "type": "error"
    },
    {
      "inputs": [],
      "name": "InvalidRevocations",
      "type": "error"
    },
    {
      "inputs": [],
      "name": "InvalidSchema",
      "type": "error"
    },
    {
      "inputs": [],
      "name": "InvalidShortString",
      "type": "error"
    },
    {
      "inputs": [],
      "name": "InvalidSignature",
      "type": "error"
    },
    {
      "inputs": [],
      "name": "InvalidVerifier",
      "type": "error"
    },
    {
      "inputs": [],
      "name": "Irrevocable",
      "type": "error"
    },
    {
      "inputs": [],
      "name": "NotFound",
      "type": "error"
    },
    {
      "inputs": [],
      "name": "NotPayable",
      "type": "error"
    },
    {
      "inputs": [
        {
          "internalType": "string",
          "name": "str",
          "type": "string"
        }
      ],
      "name": "StringTooLong",
      "type": "error"
    },
    {
      "inputs": [],
      "name": "WrongSchema",
      "type": "error"
    },
    {
      "anonymous": false,
      "inputs": [],
      "name": "EIP712DomainChanged",
      "type": "event"
    },
    {
      "inputs": [
        {
          "components": [
            {
              "internalType": "bytes32",
              "name": "uid",
              "type": "bytes32"
            },
            {
              "internalType": "bytes32",
              "name": "schema",
              "type": "bytes32"
            },
            {
              "internalType": "uint64",
              "name": "time",
              "type": "uint64"
            },
            {
              "internalType": "uint64",
              "name": "expirationTime",
              "type": "uint64"
            },
            {
              "internalType": "uint64",
              "name": "revocationTime",
              "type": "uint64"
            },
            {
              "internalType": "bytes32",
              "name": "refUID",
              "type": "bytes32"
            },
            {
              "internalType": "address",
              "name": "recipient",
              "type": "address"
            },
            {
              "internalType": "address",
              "name": "attester",
              "type": "address"
            },
            {
              "internalType": "bool",
              "name": "revocable",
              "type": "bool"
            },
            {
              "internalType": "bytes",
              "name": "data",
              "type": "bytes"
            }
          ],
          "internalType": "struct Attestation",
          "name": "attestation",
          "type": "tuple"
        },
        {
          "internalType": "uint32",
          "name": "bump",
          "type": "uint32"
        }
      ],
      "name": "_getUID",
      "outputs": [
        {
          "internalType": "bytes32",
          "name": "",
          "type": "bytes32"
        }
      ],
      "stateMutability": "pure",
      "type": "function"
    },
    {
      "inputs": [
        {
          "components": [
            {
              "internalType": "bytes32",
              "name": "schema",
              "type": "bytes32"
            },
            {
              "components": [
                {
                  "internalType": "address",
                  "name": "recipient",
                  "type": "address"
                },
                {
                  "internalType": "uint64",
                  "name": "expirationTime",
                  "type": "uint64"
                },
                {
                  "internalType": "bool",
                  "name": "revocable",
                  "type": "bool"
                },
                {
                  "internalType": "bytes32",
                  "name": "refUID",
                  "type": "bytes32"
                },
                {
                  "internalType": "bytes",
                  "name": "data",
                  "type": "bytes"
                },
                {
                  "internalType": "uint256",
                  "name": "value",
                  "type": "uint256"
                }
              ],
              "internalType": "struct AttestationRequestData",
              "name": "data",
              "type": "tuple"
            }
          ],
          "internalType": "struct AttestationRequest",
          "name": "request",
          "type": "tuple"
        }
      ],
      "name": "attest",
      "outputs": [
        {
          "internalType": "bytes32",
          "name": "",
          "type": "bytes32"
        }
      ],
      "stateMutability": "payable",
      "type": "function"
    },
    {
      "inputs": [
        {
          "components": [
            {
              "internalType": "bytes32",
              "name": "schema",
              "type": "bytes32"
            },
            {
              "components": [
                {
                  "internalType": "address",
                  "name": "recipient",
                  "type": "address"
                },
                {
                  "internalType": "uint64",
                  "name": "expirationTime",
                  "type": "uint64"
                },
                {
                  "internalType": "bool",
                  "name": "revocable",
                  "type": "bool"
                },
                {
                  "internalType": "bytes32",
                  "name": "refUID",
                  "type": "bytes32"
                },
                {
                  "internalType": "bytes",
                  "name": "data",
                  "type": "bytes"
                },
                {
                  "internalType": "uint256",
                  "name": "value",
                  "type": "uint256"
                }
              ],
              "internalType": "struct AttestationRequestData",
              "name": "data",
              "type": "tuple"
            },
            {
              "components": [
                {
                  "internalType": "uint8",
                  "name": "v",
                  "type": "uint8"
                },
                {
                  "internalType": "bytes32",
                  "name": "r",
                  "type": "bytes32"
                },
                {
                  "internalType": "bytes32",
                  "name": "s",
                  "type": "bytes32"
                }
              ],
              "internalType": "struct Signature",
              "name": "signature",
              "type": "tuple"
            },
            {
              "internalType": "address",
              "name": "attester",
              "type": "address"
            },
            {
              "internalType": "uint64",
              "name": "deadline",
              "type": "uint64"
            }
          ],
          "internalType": "struct DelegatedAttestationRequest",
          "name": "delegatedRequest",
          "type": "tuple"
        }
      ],
      "name": "attestByDelegation",
      "outputs": [
        {
          "internalType": "bytes32",
          "name": "",
          "type": "bytes32"
        }
      ],
      "stateMutability": "payable",
      "type": "function"
    },
    {
      "inputs": [],
      "name": "eip712Domain",
      "outputs": [
        {
          "internalType": "bytes1",
          "name": "fields",
          "type": "bytes1"
        },
        {
          "internalType": "string",
          "name": "name",
          "type": "string"
        },
        {
          "internalType": "string",
          "name": "version",
          "type": "string"
        },
        {
          "internalType": "uint256",
          "name": "chainId",
          "type": "uint256"
        },
        {
          "internalType": "address",
          "name": "verifyingContract",
          "type": "address"
        },
        {
          "internalType": "bytes32",
          "name": "salt",
          "type": "bytes32"
        },
        {
          "internalType": "uint256[]",
          "name": "extensions",
          "type": "uint256[]"
        }
      ],
      "stateMutability": "view",
      "type": "function"
    },
    {
      "inputs": [],
      "name": "getAttestTypeHash",
      "outputs": [
        {
          "internalType": "bytes32",
          "name": "",
          "type": "bytes32"
        }
      ],
      "stateMutability": "pure",
      "type": "function"
    },
    {
      "inputs": [
        {
          "internalType": "bytes32",
          "name": "uid",
          "type": "bytes32"
        }
      ],
      "name": "getAttestation",
      "outputs": [
        {
          "components": [
            {
              "internalType": "bytes32",
              "name": "uid",
              "type": "bytes32"
            },
            {
              "internalType": "bytes32",
              "name": "schema",
              "type": "bytes32"
            },
            {
              "internalType": "uint64",
              "name": "time",
              "type": "uint64"
            },
            {
              "internalType": "uint64",
              "name": "expirationTime",
              "type": "uint64"
            },
            {
              "internalType": "uint64",
              "name": "revocationTime",
              "type": "uint64"
            },
            {
              "internalType": "bytes32",
              "name": "refUID",
              "type": "bytes32"
            },
            {
              "internalType": "address",
              "name": "recipient",
              "type": "address"
            },
            {
              "internalType": "address",
              "name": "attester",
              "type": "address"
            },
            {
              "internalType": "bool",
              "name": "revocable",
              "type": "bool"
            },
            {
              "internalType": "bytes",
              "name": "data",
              "type": "bytes"
            }
          ],
          "internalType": "struct Attestation",
          "name": "",
          "type": "tuple"
        }
      ],
      "stateMutability": "view",
      "type": "function"
    },
    {
      "inputs": [],
      "name": "getDomainSeparator",
      "outputs": [
        {
          "internalType": "bytes32",
          "name": "",
          "type": "bytes32"
        }
      ],
      "stateMutability": "view",
      "type": "function"
    },
    {
      "inputs": [],
      "name": "getName",
      "outputs": [
        {
          "internalType": "string",
          "name": "",
          "type": "string"
        }
      ],
      "stateMutability": "view",
      "type": "function"
    },
    {
      "inputs": [
        {
          "internalType": "address",
          "name": "account",
          "type": "address"
        }
      ],
      "name": "getNonce",
      "outputs": [
        {
          "internalType": "uint256",
          "name": "",
          "type": "uint256"
        }
      ],
      "stateMutability": "view",
      "type": "function"
    },
    {
      "inputs": [],
      "name": "getRevokeTypeHash",
      "outputs": [
        {
          "internalType": "bytes32",
          "name": "",
          "type": "bytes32"
        }
      ],
      "stateMutability": "pure",
      "type": "function"
    },
    {
      "inputs": [],
      "name": "getSchemaRegistry",
      "outputs": [
        {
          "internalType": "contract ISchemaRegistry",
          "name": "",
          "type": "address"
        }
      ],
      "stateMutability": "view",
      "type": "function"
    },
    {
      "inputs": [],
      "name": "getTime",
      "outputs": [
        {
          "internalType": "uint256",
          "name": "",
          "type": "uint256"
        }
      ],
      "stateMutability": "view",
      "type": "function"
    },
    {
      "inputs": [
        {
          "internalType": "uint256",
          "name": "newNonce",
          "type": "uint256"
        }
      ],
      "name": "increaseNonce",
      "outputs": [],
      "stateMutability": "nonpayable",
      "type": "function"
    },
    {
      "inputs": [
        {
          "internalType": "bytes32",
          "name": "uid",
          "type": "bytes32"
        }
      ],
      "name": "isAttestationValid",
      "outputs": [
        {
          "internalType": "bool",
          "name": "",
          "type": "bool"
        }
      ],
      "stateMutability": "view",
      "type": "function"
    },
    {
      "inputs": [
        {
          "components": [
            {
              "internalType": "bytes32",
              "name": "schema",
              "type": "bytes32"
            },
            {
              "components": [
                {
                  "internalType": "address",
                  "name": "recipient",
                  "type": "address"
                },
                {
                  "internalType": "uint64",
                  "name": "expirationTime",
                  "type": "uint64"
                },
                {
                  "internalType": "bool",
                  "name": "revocable",
                  "type": "bool"
                },
                {
                  "internalType": "bytes32",
                  "name": "refUID",
                  "type": "bytes32"
                },
                {
                  "internalType": "bytes",
                  "name": "data",
                  "type": "bytes"
                },
                {
                  "internalType": "uint256",
                  "name": "value",
                  "type": "uint256"
                }
              ],
              "internalType": "struct AttestationRequestData[]",
              "name": "data",
              "type": "tuple[]"
            }
          ],
          "internalType": "struct MultiAttestationRequest[]",
          "name": "multiRequests",
          "type": "tuple[]"
        }
      ],
      "name": "multiAttest",
      "outputs": [
        {
          "internalType": "bytes32[]",
          "name": "",
          "type": "bytes32[]"
        }
      ],
      "stateMutability": "payable",
      "type": "function"
    },
    {
      "inputs": [
        {
          "components": [
            {
              "internalType": "bytes32",
              "name": "schema",
              "type": "bytes32"
            },
            {
              "components": [
                {
                  "internalType": "address",
                  "name": "recipient",
                  "type": "address"
                },
                {
                  "internalType": "uint64",
                  "name": "expirationTime",
                  "type": "uint64"
                },
                {
                  "internalType": "bool",
                  "name": "revocable",
                  "type": "bool"
                },
                {
                  "internalType": "bytes32",
                  "name": "refUID",
                  "type": "bytes32"
                },
                {
                  "internalType": "bytes",
                  "name": "data",
                  "type": "bytes"
                },
                {
                  "internalType": "uint256",
                  "name": "value",
                  "type": "uint256"
                }
              ],
              "internalType": "struct AttestationRequestData[]",
              "name": "data",
              "type": "tuple[]"
            },
            {
              "components": [
                {
                  "internalType": "uint8",
                  "name": "v",
                  "type": "uint8"
                },
                {
                  "internalType": "bytes32",
                  "name": "r",
                  "type": "bytes32"
                },
                {
                  "internalType": "bytes32",
                  "name": "s",
                  "type": "bytes32"
                }
              ],
              "internalType": "struct Signature[]",
              "name": "signatures",
              "type": "tuple[]"
            },
            {
              "internalType": "address",
              "name": "attester",
              "type": "address"
            },
            {
              "internalType": "uint64",
              "name": "deadline",
              "type": "uint64"
            }
          ],
          "internalType": "struct MultiDelegatedAttestationRequest[]",
          "name": "multiDelegatedRequests",
          "type": "tuple[]"
        }
      ],
      "name": "multiAttestByDelegation",
      "outputs": [
        {
          "internalType": "bytes32[]",
          "name": "",
          "type": "bytes32[]"
        }
      ],
      "stateMutability": "payable",
      "type": "function"
    },
    {
      "inputs": [
        {
          "components": [
            {
              "internalType": "bytes32",
              "name": "schema",
              "type": "bytes32"
            },
            {
              "components": [
                {
                  "internalType": "bytes32",
                  "name": "uid",
                  "type": "bytes32"
                },
                {
                  "internalType": "uint256",
                  "name": "value",
                  "type": "uint256"
                }
              ],
              "internalType": "struct RevocationRequestData[]",
              "name": "data",
              "type": "tuple[]"
            }
          ],
          "internalType": "struct MultiRevocationRequest[]",
          "name": "multiRequests",
          "type": "tuple[]"
        }
      ],
      "name": "multiRevoke",
      "outputs": [],
      "stateMutability": "payable",
      "type": "function"
    },
    {
      "inputs": [
        {
          "components": [
            {
              "internalType": "bytes32",
              "name": "schema",
              "type": "bytes32"
            },
            {
              "components": [
                {
                  "internalType": "bytes32",
                  "name": "uid",
                  "type": "bytes32"
                },
                {
                  "internalType": "uint256",
                  "name": "value",
                  "type": "uint256"
                }
              ],
              "internalType": "struct RevocationRequestData[]",
              "name": "data",
              "type": "tuple[]"
            },
            {
              "components": [
                {
                  "internalType": "uint8",
                  "name": "v",
                  "type": "uint8"
                },
                {
                  "internalType": "bytes32",
                  "name": "r",
                  "type": "bytes32"
                },
                {
                  "internalType": "bytes32",
                  "name": "s",
                  "type": "bytes32"
                }
              ],
              "internalType": "struct Signature[]",
              "name": "signatures",
              "type": "tuple[]"
            },
            {
              "internalType": "address",
              "name": "revoker",
              "type": "address"
            },
            {
              "internalType": "uint64",
              "name": "deadline",
              "type": "uint64"
            }
          ],
          "internalType": "struct MultiDelegatedRevocationRequest[]",
          "name": "multiDelegatedRequests",
          "type": "tuple[]"
        }
      ],
      "name": "multiRevokeByDelegation",
      "outputs": [],
      "stateMutability": "payable",
      "type": "function"
    },
    {
      "inputs": [
        {
          "internalType": "bytes32[]",
          "name": "data",
          "type": "bytes32[]"
        }
      ],
      "name": "multiRevokeOffchain",
      "outputs": [
        {
          "internalType": "uint64",
          "name": "",
          "type": "uint64"
        }
      ],
      "stateMutability": "nonpayable",
      "type": "function"
    },
    {
      "inputs": [
        {
          "internalType": "bytes32[]",
          "name": "data",
          "type": "bytes32[]"
        }
      ],
      "name": "multiTimestamp",
      "outputs": [
        {
          "internalType": "uint64",
          "name": "",
          "type": "uint64"
        }
      ],
      "stateMutability": "nonpayable",
      "type": "function"
    },
    {
      "inputs": [
        {
          "components": [
            {
              "internalType": "bytes32",
              "name": "schema",
              "type": "bytes32"
            },
            {
              "components": [
                {
                  "internalType": "bytes32",
                  "name": "uid",
                  "type": "bytes32"
                },
                {
                  "internalType": "uint256",
                  "name": "value",
                  "type": "uint256"
                }
              ],
              "internalType": "struct RevocationRequestData",
              "name": "data",
              "type": "tuple"
            }
          ],
          "internalType": "struct RevocationRequest",
          "name": "request",
          "type": "tuple"
        }
      ],
      "name": "revoke",
      "outputs": [],
      "stateMutability": "payable",
      "type": "function"
    },
    {
      "inputs": [
        {
          "components": [
            {
              "internalType": "bytes32",
              "name": "schema",
              "type": "bytes32"
            },
            {
              "components": [
                {
                  "internalType": "bytes32",
                  "name": "uid",
                  "type": "bytes32"
                },
                {
                  "internalType": "uint256",
                  "name": "value",
                  "type": "uint256"
                }
              ],
              "internalType": "struct RevocationRequestData",
              "name": "data",
              "type": "tuple"
            },
            {
              "components": [
                {
                  "internalType": "uint8",
                  "name": "v",
                  "type": "uint8"
                },
                {
                  "internalType": "bytes32",
                  "name": "r",
                  "type": "bytes32"
                },
                {
                  "internalType": "bytes32",
                  "name": "s",
                  "type": "bytes32"
                }
              ],
              "internalType": "struct Signature",
              "name": "signature",
              "type": "tuple"
            },
            {
              "internalType": "address",
              "name": "revoker",
              "type": "address"
            },
            {
              "internalType": "uint64",
              "name": "deadline",
              "type": "uint64"
            }
          ],
          "internalType": "struct DelegatedRevocationRequest",
          "name": "delegatedRequest",
          "type": "tuple"
        }
      ],
      "name": "revokeByDelegation",
      "outputs": [],
      "stateMutability": "payable",
      "type": "function"
    },
    {
      "inputs": [
        {
          "internalType": "bytes32",
          "name": "data",
          "type": "bytes32"
        }
      ],
      "name": "revokeOffchain",
      "outputs": [
        {
          "internalType": "uint64",
          "name": "",
          "type": "uint64"
        }
      ],
      "stateMutability": "nonpayable",
      "type": "function"
    },
    {
      "inputs": [
        {
          "internalType": "bytes32",
          "name": "data",
          "type": "bytes32"
        }
      ],
      "name": "timestamp",
      "outputs": [
        {
          "internalType": "uint64",
          "name": "",
          "type": "uint64"
        }
      ],
      "stateMutability": "nonpayable",
      "type": "function"
    },
    {
      "inputs": [],
      "name": "version",
      "outputs": [
        {
          "internalType": "string",
          "name": "",
          "type": "string"
        }
      ],
      "stateMutability": "view",
      "type": "function"
    }
  ],
  "transactionHash": "0xddcf01b7dc6324dc69f40a9c623c2cacf9cfdeffee702dae51f913a72a201829",
  "args": [
    "0x726958B4d5226dc2DF517A55ce2a28b92213A1c5",
    "0xD261638cd8f2917dE2B81dEb6Cf7848a6522C046"
  ],
  "numDeployments": 1,
  "solcInputHash": "b21a88c0173e1f065079f57541eed105",
  "bytecode": "0x6101e06040523480156200001257600080fd5b5060405162004a4d38038062004a4d833981016040819052620000359162000268565b604080518082018252600381526254415360e81b60208083019190915282518084019093526005835264302e302e3160d81b908301526000608081905260a0819052600160c05290919082908290620000909083906200013d565b61018052620000a18160016200013d565b6101a052815160208084019190912061014052815190820120610160524661010052620000cd62000176565b60e052505030610120526002620000e58382620003b6565b5050506001600160a01b03811662000110576040516311a1e69760e01b815260040160405180910390fd5b6001600160a01b039081166101c052600480546001600160a01b03191692909116919091179055620005b3565b60006020835110156200015d576200015583620001d3565b905062000170565b816200016a8482620003b6565b5060ff90505b92915050565b6101405161016051604051600092620001b8927f8b73c3c69bb8fe3d512ecc4cf759cc79239f7b179b0ffacaa9a75d522b39400f924690309060200162000499565b60405160208183030381529060405280519060200120905090565b600080829050601f815111156200020a578260405163305a27a960e01b81526004016200020191906200054a565b60405180910390fd5b805162000217826200056f565b179392505050565b90565b60006001600160a01b03821662000170565b6000620001708262000222565b6200024c8162000234565b81146200025857600080fd5b50565b8051620001708162000241565b60008060408385031215620002805762000280600080fd5b60006200028e85856200025b565b9250506020620002a1858286016200025b565b9150509250929050565b634e487b7160e01b600052604160045260246000fd5b634e487b7160e01b600052602260045260246000fd5b600281046001821680620002ec57607f821691505b602082108103620003015762000301620002c1565b50919050565b6000620001706200021f8381565b620003208362000307565b815460001960089490940293841b1916921b91909117905550565b60006200034a81848462000315565b505050565b818110156200036e57620003656000826200033b565b6001016200034f565b5050565b601f8211156200034a576000818152602090206020601f850104810160208510156200039b5750805b620003af6020601f8601048301826200034f565b5050505050565b81516001600160401b03811115620003d257620003d2620002ab565b620003de8254620002d7565b620003eb82828562000372565b6020601f831160018114620004225760008415620004095750858201515b600019600886021c19811660028602178655506200047e565b600085815260208120601f198616915b8281101562000454578885015182556020948501946001909201910162000432565b86831015620004715784890151600019601f89166008021c191682555b6001600288020188555050505b505050505050565b805b82525050565b620004888162000222565b60a08101620004a9828862000486565b620004b8602083018762000486565b620004c7604083018662000486565b620004d6606083018562000486565b620004e560808301846200048e565b9695505050505050565b60005b838110156200050c578181015183820152602001620004f2565b50506000910152565b600062000520825190565b80845260208401935062000539818560208601620004ef565b601f01601f19169290920192915050565b602080825281016200055d818462000515565b9392505050565b600062000170825190565b60006200057a825190565b60208301620005898162000564565b92506020821015620005ac57620005a7600019836020036008021b90565b831692505b5050919050565b60805160a05160c05160e05161010051610120516101405161016051610180516101a0516101c051614405620006486000396000818161048201528181611290015261199201526000610be901526000610bbf015260006126ea015260006126c9015260006121710152600061219b015260006121c501526000610b2601526000610afd01526000610ad401526144056000f3fe6080604052600436106101665760003560e01c8063557ed1ba116100d1578063b83010d31161008a578063e71ff36511610064578063e71ff3651461043e578063ed24911d1461045e578063f10b5cc814610473578063f17325e7146104ae57600080fd5b8063b83010d3146103af578063cf190f34146103e2578063e30bb5631461040257600080fd5b8063557ed1ba146102f857806379f7573a1461031457806384b0196e14610334578063954115251461035c578063a3112a641461036f578063a6d4dbc71461039c57600080fd5b806344adc90e1161012357806344adc90e1461025d578063469262671461027d5780634cb7e9e5146102905780634d003070146102a35780635230eb27146102c357806354fd4d50146102e357600080fd5b80630eabf6601461016b57806312b11a171461018057806313893f61146101c557806317d7de7c146101f25780632d0335ab146102145780633c0427151461024a575b600080fd5b61017e610179366004612cde565b6104c1565b005b34801561018c57600080fd5b507ff83bb2b0ede93a840239f7e701a54d9bc35f03701f51ae153d601c6947ff3d3f5b6040516101bc9190612d2d565b60405180910390f35b3480156101d157600080fd5b506101e56101e0366004612cde565b610613565b6040516101bc9190612d4a565b3480156101fe57600080fd5b50610207610658565b6040516101bc9190612dae565b34801561022057600080fd5b506101af61022f366004612def565b6001600160a01b031660009081526003602052604090205490565b6101af610258366004612e33565b6106ea565b61027061026b366004612cde565b6107cf565b6040516101bc9190612eca565b61017e61028b366004612ef0565b610918565b61017e61029e366004612cde565b61099c565b3480156102af57600080fd5b506101e56102be366004612f22565b610a61565b3480156102cf57600080fd5b506101af6102de366004613182565b610a6e565b3480156102ef57600080fd5b50610207610acd565b34801561030457600080fd5b50426001600160401b03166101af565b34801561032057600080fd5b5061017e61032f366004612f22565b610b70565b34801561034057600080fd5b50610349610bb1565b6040516101bc979695949392919061322f565b61027061036a366004612cde565b610c39565b34801561037b57600080fd5b5061038f61038a366004612f22565b610e66565b6040516101bc919061337c565b61017e6103aa3660046133a3565b610fad565b3480156103bb57600080fd5b507f2d4116d8c9824e4c316453e5c2843a1885580374159ce8768603c49085ef424c6101af565b3480156103ee57600080fd5b506101e56103fd366004612f22565b611052565b34801561040e57600080fd5b5061043161041d366004612f22565b600090815260056020526040902054151590565b6040516101bc91906133c5565b34801561044a57600080fd5b506101e5610459366004612cde565b611060565b34801561046a57600080fd5b506101af611098565b34801561047f57600080fd5b507f00000000000000000000000000000000000000000000000000000000000000006040516101bc9190613415565b6101af6104bc366004613438565b6110a7565b348160005b8181101561060c576000198201811460008686848181106104e9576104e9613472565b90506020028101906104fb9190613488565b6105049061373d565b602081015180519192509080158061052157508260400151518114155b1561053f5760405163251f56a160e21b815260040160405180910390fd5b60005b818110156105d5576105cd6040518060a001604052808660000151815260200185848151811061057457610574613472565b602002602001015181526020018660400151848151811061059757610597613472565b6020026020010151815260200186606001516001600160a01b0316815260200186608001516001600160401b0316815250611147565b600101610542565b506105eb83600001518385606001518a8861128b565b6105f5908861375f565b9650505050506106058160010190565b90506104c6565b5050505050565b60004282825b8181101561064c576106443387878481811061063757610637613472565b905060200201358561173f565b600101610619565b50909150505b92915050565b60606002805461066790613788565b80601f016020809104026020016040519081016040528092919081815260200182805461069390613788565b80156106e05780601f106106b5576101008083540402835291602001916106e0565b820191906000526020600020905b8154815290600101906020018083116106c357829003601f168201915b5050505050905090565b60006106fd6106f8836138f6565b611820565b604080516001808252818301909252600091816020015b6040805160c081018252600080825260208083018290529282018190526060808301829052608083015260a082015282526000199092019101816107145790505090506107646020840184613902565b61076d9061391c565b8160008151811061078057610780613472565b60209081029190910101526107a98335826107a160c0870160a08801612def565b346001611905565b602001516000815181106107bf576107bf613472565b6020026020010151915050919050565b6060816000816001600160401b038111156107ec576107ec612f43565b60405190808252806020026020018201604052801561081f57816020015b606081526020019060019003908161080a5790505b509050600034815b8481101561090257600019850181143689898481811061084957610849613472565b905060200281019061085b9190613928565b905061086a6020820182613942565b905060000361088c5760405163251f56a160e21b815260040160405180910390fd5b60006108b182356108a06020850185613942565b6108a991613a0b565b338887611905565b80519091506108c0908661375f565b945080602001518785815181106108d9576108d9613472565b6020026020010181905250806020015151860195505050506108fb8160010190565b9050610827565b5061090d8383611e77565b979650505050505050565b604080516001808252818301909252600091816020015b604080518082019091526000808252602082015281526020019060019003908161092f57905050905061096a36839003830160208401613a18565b8160008151811061097d5761097d613472565b60209081029190910101526109978235823334600161128b565b505050565b348160005b8181101561060c5760001982018114368686848181106109c3576109c3613472565b90506020028101906109d59190613928565b9050610a4281356109e96020840184613a39565b808060200260200160405190810160405280939291908181526020016000905b82821015610a3557610a2660408302860136819003810190613a18565b81526020019060010190610a09565b505050505033888661128b565b610a4c908661375f565b94505050610a5a8160010190565b90506109a1565b6000426106528382611f60565b60208083015160c084015160e0850151604080870151606088015161010089015160a08a01516101208b01519451600099610aaf99989796918c9101613b3a565b60405160208183030381529060405280519060200120905092915050565b6060610af87f0000000000000000000000000000000000000000000000000000000000000000612026565b610b217f0000000000000000000000000000000000000000000000000000000000000000612026565b610b4a7f0000000000000000000000000000000000000000000000000000000000000000612026565b604051602001610b5c93929190613bd3565b604051602081830303815290604052905090565b336000908152600360205260409020548111610b9f57604051633ab3447f60e11b815260040160405180910390fd5b33600090815260036020526040902055565b600060608082808083610be47f0000000000000000000000000000000000000000000000000000000000000000836120b9565b610c0f7f000000000000000000000000000000000000000000000000000000000000000060016120b9565b60408051600080825260208201909252600f60f81b9b939a50919850469750309650945092509050565b6060816000816001600160401b03811115610c5657610c56612f43565b604051908082528060200260200182016040528015610c8957816020015b6060815260200190600190039081610c745790505b509050600034815b84811015610902576000198501811436898984818110610cb357610cb3613472565b9050602002810190610cc59190613488565b9050366000610cd76020840184613942565b909250905080801580610cf85750610cf26040850185613c0b565b90508114155b15610d165760405163251f56a160e21b815260040160405180910390fd5b60005b81811015610de957610de16040518060a0016040528087600001358152602001868685818110610d4b57610d4b613472565b9050602002810190610d5d9190613902565b610d669061391c565b8152602001610d786040890189613c0b565b85818110610d8857610d88613472565b905060600201803603810190610d9e9190613c61565b8152602001610db36080890160608a01612def565b6001600160a01b03168152602001610dd160a0890160808a01613c82565b6001600160401b03169052611820565b600101610d19565b506000610e128535610dfb8587613a0b565b610e0b6080890160608a01612def565b8b8a611905565b8051909150610e21908961375f565b975080602001518a8881518110610e3a57610e3a613472565b602002602001018190525080602001515189019850505050505050610e5f8160010190565b9050610c91565b610e6e612c3e565b6000828152600560208181526040928390208351610140810185528154815260018201549281019290925260028101546001600160401b0380821695840195909552600160401b810485166060840152600160801b90049093166080820152600383015460a082015260048301546001600160a01b0390811660c08301529183015491821660e0820152600160a01b90910460ff16151561010082015260068201805491929161012084019190610f2490613788565b80601f0160208091040260200160405190810160405280929190818152602001828054610f5090613788565b8015610f9d5780601f10610f7257610100808354040283529160200191610f9d565b820191906000526020600020905b815481529060010190602001808311610f8057829003601f168201915b5050505050815250509050919050565b610fc4610fbf36839003830183613d1e565b611147565b604080516001808252818301909252600091816020015b6040805180820190915260008082526020820152815260200190600190039081610fdb57905050905061101636839003830160208401613a18565b8160008151811061102957611029613472565b602090810291909101015261099782358261104a60e0860160c08701612def565b34600161128b565b60004261065233848361173f565b60004282825b8181101561064c5761109086868381811061108357611083613472565b9050602002013584611f60565b600101611066565b60006110a2612164565b905090565b604080516001808252818301909252600091829190816020015b6040805160c081018252600080825260208083018290529282018190526060808301829052608083015260a082015282526000199092019101816110c15790505090506111116020840184613902565b61111a9061391c565b8160008151811061112d5761112d613472565b60209081029190910101526107a983358233346001611905565b60808101516001600160401b0316158015906111795750426001600160401b031681608001516001600160401b031611155b1561119757604051631ab7da6b60e01b815260040160405180910390fd5b60208082015160408084015160608501516001600160a01b0316600090815260038552828120805460018101909155865185518688015160808a01519651979895979396949561122e95611213957f2d4116d8c9824e4c316453e5c2843a1885580374159ce8768603c49085ef424c959493928a929101613d40565b604051602081830303815290604052805190602001206121ef565b905061126e85606001518285602001518660400151876000015160405160200161125a93929190613d9b565b60405160208183030381529060405261221c565b61060c57604051638baa579f60e01b815260040160405180910390fd5b6000807f00000000000000000000000000000000000000000000000000000000000000006001600160a01b031663a2ea7c6e886040518263ffffffff1660e01b81526004016112da9190612d2d565b600060405180830381865afa1580156112f7573d6000803e3d6000fd5b505050506040513d6000823e601f3d908101601f1916820160405261131f9190810190613eeb565b805190915061134157604051635f9bd90760e11b815260040160405180910390fd5b85516000816001600160401b0381111561135d5761135d612f43565b60405190808252806020026020018201604052801561139657816020015b611383612c3e565b81526020019060019003908161137b5790505b5090506000826001600160401b038111156113b3576113b3612f43565b6040519080825280602002602001820160405280156113dc578160200160208202803683370190505b50905060005b8381101561171f5760008a82815181106113fe576113fe613472565b602090810291909101810151805160009081526005909252604090912080549192509061143e5760405163c5723b5160e01b815260040160405180910390fd5b8c81600101541461146257604051635f9bd90760e11b815260040160405180910390fd5b60058101546001600160a01b038c811691161461149257604051634ca8886760e01b815260040160405180910390fd5b6005810154600160a01b900460ff166114be5760405163157bd4c360e01b815260040160405180910390fd5b6002810154600160801b90046001600160401b0316156114f15760405163905e710760e01b815260040160405180910390fd5b4260028201805467ffffffffffffffff60801b198116600160801b6001600160401b03948516810291821793849055604080516101408101825287548152600188015460208201529386169286169290921791830191909152600160401b8304841660608301529091049091166080820152600382015460a082015260048201546001600160a01b0390811660c0830152600583015490811660e0830152600160a01b900460ff16151561010082015260068201805483916101208401916115b890613788565b80601f01602080910402602001604051908101604052809291908181526020018280546115e490613788565b80156116315780601f1061160657610100808354040283529160200191611631565b820191906000526020600020905b81548152906001019060200180831161161457829003601f168201915b50505050508152505085848151811061164c5761164c613472565b6020026020010181905250816020015184848151811061166e5761166e613472565b602002602001018181525050600460009054906101000a90046001600160a01b03166001600160a01b0316639566523582600001548d8460020160109054906101000a90046001600160401b03166040518463ffffffff1660e01b81526004016116da93929190613f43565b600060405180830381600087803b1580156116f457600080fd5b505af1158015611708573d6000803e3d6000fd5b5050505050506117188160010190565b90506113e2565b5061172f84838360018b8b61227f565b9450505050505b95945050505050565b6001600160a01b038316600090815260076020908152604080832085845291829052909120546001600160401b03161561178c5760405163ec9d6eeb60e01b815260040160405180910390fd5b60008381526020829052604090819020805467ffffffffffffffff19166001600160401b038516179055600480549151637a99dcd960e01b81526001600160a01b0390921691637a99dcd9916117e89188918891889101613f6b565b600060405180830381600087803b15801561180257600080fd5b505af1158015611816573d6000803e3d6000fd5b5050505050505050565b60808101516001600160401b0316158015906118525750426001600160401b031681608001516001600160401b031611155b1561187057604051631ab7da6b60e01b815260040160405180910390fd5b6020808201516040808401516060808601516001600160a01b0316600090815260038652838120805460018101909155875186518789015187890151958901516080808b01518051908d012060a08c0151918e01519a519b9c999b969a979961122e99611213997ff83bb2b0ede93a840239f7e701a54d9bc35f03701f51ae153d601c6947ff3d3f99919594928e9201613f86565b6040805180820190915260008152606060208201528451604080518082019091526000815260606020820152816001600160401b0381111561194957611949612f43565b604051908082528060200260200182016040528015611972578160200160208202803683370190505b5060208201526040516351753e3760e11b81526000906001600160a01b037f0000000000000000000000000000000000000000000000000000000000000000169063a2ea7c6e906119c7908c90600401612d2d565b600060405180830381865afa1580156119e4573d6000803e3d6000fd5b505050506040513d6000823e601f3d908101601f19168201604052611a0c9190810190613eeb565b8051909150611a2e57604051635f9bd90760e11b815260040160405180910390fd5b6000836001600160401b03811115611a4857611a48612f43565b604051908082528060200260200182016040528015611a8157816020015b611a6e612c3e565b815260200190600190039081611a665790505b5090506000846001600160401b03811115611a9e57611a9e612f43565b604051908082528060200260200182016040528015611ac7578160200160208202803683370190505b50905060005b85811015611e565760008b8281518110611ae957611ae9613472565b6020026020010151905060006001600160401b031681602001516001600160401b031614158015611b305750426001600160401b031681602001516001600160401b031611155b15611b4e576040516308e8b93760e01b815260040160405180910390fd5b8460400151158015611b61575080604001515b15611b7f5760405163157bd4c360e01b815260040160405180910390fd5b60006040518061014001604052806000801b81526020018f8152602001611ba34290565b6001600160401b0316815260200183602001516001600160401b0316815260200160006001600160401b031681526020018360600151815260200183600001516001600160a01b031681526020018d6001600160a01b0316815260200183604001511515815260200183608001518152509050600080600090505b611c288382610a6e565b60008181526005602052604090205490925015611c4757600101611c1e565b8183526000828152600560208181526040928390208651815590860151600182015591850151600283018054606088015160808901516001600160401b03908116600160801b0267ffffffffffffffff60801b19928216600160401b026fffffffffffffffffffffffffffffffff199094169190951617919091171691909117905560a0850151600383015560c08501516004830180546001600160a01b039283166001600160a01b031990911617905560e086015191830180546101008801511515600160a01b026001600160a81b031990911693909216929092171790556101208401518491906006820190611d3f90826140b0565b505050606084015115611d7d576060840151600090815260056020526040902054611d7d5760405163c5723b5160e01b815260040160405180910390fd5b82878681518110611d9057611d90613472565b60200260200101819052508360a00151868681518110611db257611db2613472565b6020026020010181815250508189602001518681518110611dd557611dd5613472565b60209081029190910101526004805460405163a560756d60e01b81526001600160a01b039091169163a560756d91611e0f9187910161337c565b600060405180830381600087803b158015611e2957600080fd5b505af1158015611e3d573d6000803e3d6000fd5b5050505050505050611e4f8160010190565b9050611acd565b50611e6683838360008c8c61227f565b845250919998505050505050505050565b60606000826001600160401b03811115611e9357611e93612f43565b604051908082528060200260200182016040528015611ebc578160200160208202803683370190505b508451909150600090815b81811015611f55576000878281518110611ee357611ee3613472565b6020026020010151905060008151905060005b81811015611f4157828181518110611f1057611f10613472565b6020026020010151878781518110611f2a57611f2a613472565b602090810291909101015260019586019501611ef6565b505050611f4e8160010190565b9050611ec7565b509195945050505050565b6000828152600660205260409020546001600160401b031615611f96576040516317133ca360e11b815260040160405180910390fd5b60008281526006602052604090819020805467ffffffffffffffff19166001600160401b03841617905560048054915163d7d2054560e01b81526001600160a01b039092169163d7d2054591611ff0918691869101614172565b600060405180830381600087803b15801561200a57600080fd5b505af115801561201e573d6000803e3d6000fd5b505050505050565b606060006120338361258d565b60010190506000816001600160401b0381111561205257612052612f43565b6040519080825280601f01601f19166020018201604052801561207c576020820181803683370190505b5090508181016020015b600019016f181899199a1a9b1b9c1cb0b131b232b360811b600a86061a8153600a8504945084612086575b509392505050565b606060ff83146120d3576120cc83612665565b9050610652565b8180546120df90613788565b80601f016020809104026020016040519081016040528092919081815260200182805461210b90613788565b80156121585780601f1061212d57610100808354040283529160200191612158565b820191906000526020600020905b81548152906001019060200180831161213b57829003601f168201915b50505050509050610652565b6000306001600160a01b037f0000000000000000000000000000000000000000000000000000000000000000161480156121bd57507f000000000000000000000000000000000000000000000000000000000000000046145b156121e757507f000000000000000000000000000000000000000000000000000000000000000090565b6110a26126a4565b60006106526121fc612164565b8360405161190160f01b8152600281019290925260228201526042902090565b600080600061222b858561273a565b909250905060008160048111156122445761224461418d565b1480156122625750856001600160a01b0316826001600160a01b0316145b80612273575061227386868661277f565b925050505b9392505050565b845160009060018190036122d7576122cf88886000815181106122a4576122a4613472565b6020026020010151886000815181106122bf576122bf613472565b602002602001015188888861286b565b915050612583565b60208801516001600160a01b0381166123525760005b828110156123375787818151811061230757612307613472565b602002602001015160001461232f57604051631574f9f360e01b815260040160405180910390fd5b6001016122ed565b5083156123475761234785612aa7565b600092505050612583565b600080826001600160a01b031663ce46e0466040518163ffffffff1660e01b8152600401602060405180830381865afa158015612393573d6000803e3d6000fd5b505050506040513d601f19601f820116820180604052508101906123b791906141a3565b905060005b848110156124425760008a82815181106123d8576123d8613472565b60200260200101519050806000036123f0575061243a565b8261240e57604051631574f9f360e01b815260040160405180910390fd5b8881111561242f5760405163044044a560e21b815260040160405180910390fd5b978890039792909201915b6001016123bc565b5087156124de576040516388e5b2d960e01b81526001600160a01b038416906388e5b2d9908490612479908e908e90600401614236565b60206040518083038185885af1158015612497573d6000803e3d6000fd5b50505050506040513d601f19601f820116820180604052508101906124bc91906141a3565b6124d95760405163bf2f3a8b60e01b815260040160405180910390fd5b61256e565b6040516348ed85bf60e11b81526001600160a01b038416906391db0b7e90849061250e908e908e90600401614236565b60206040518083038185885af115801561252c573d6000803e3d6000fd5b50505050506040513d601f19601f8201168201806040525081019061255191906141a3565b61256e5760405163e8bee83960e01b815260040160405180910390fd5b851561257d5761257d87612aa7565b50925050505b9695505050505050565b60008072184f03e93ff9f4daa797ed6e38ed64bf6a1f0160401b83106125cc5772184f03e93ff9f4daa797ed6e38ed64bf6a1f0160401b830492506040015b6d04ee2d6d415b85acef810000000083106125f8576d04ee2d6d415b85acef8100000000830492506020015b662386f26fc10000831061261657662386f26fc10000830492506010015b6305f5e100831061262e576305f5e100830492506008015b612710831061264257612710830492506004015b60648310612654576064830492506002015b600a83106106525760010192915050565b6060600061267283612aba565b604080516020808252818301909252919250600091906020820181803683375050509182525060208101929092525090565b60007f8b73c3c69bb8fe3d512ecc4cf759cc79239f7b179b0ffacaa9a75d522b39400f7f00000000000000000000000000000000000000000000000000000000000000007f0000000000000000000000000000000000000000000000000000000000000000463060405160200161271f95949392919061425b565b60405160208183030381529060405280519060200120905090565b60008082516041036127705760208301516040840151606085015160001a61276487828585612ae2565b94509450505050612778565b506000905060025b9250929050565b6000806000856001600160a01b0316631626ba7e60e01b86866040516024016127a992919061429d565b60408051601f198184030181529181526020820180516001600160e01b03166001600160e01b03199094169390931790925290516127e791906142bd565b600060405180830381855afa9150503d8060008114612822576040519150601f19603f3d011682016040523d82523d6000602084013e612827565b606091505b509150915081801561283b57506020815110155b801561227357508051630b135d3f60e11b9061286090830160209081019084016142c9565b149695505050505050565b60208601516000906001600160a01b0381166128b95785156128a057604051631574f9f360e01b815260040160405180910390fd5b82156128af576128af84612aa7565b6000915050612583565b851561296557806001600160a01b031663ce46e0466040518163ffffffff1660e01b8152600401602060405180830381865afa1580156128fd573d6000803e3d6000fd5b505050506040513d601f19601f8201168201806040525081019061292191906141a3565b61293e57604051631574f9f360e01b815260040160405180910390fd5b8386111561295f5760405163044044a560e21b815260040160405180910390fd5b85840393505b84156129fe5760405163e49617e160e01b81526001600160a01b0382169063e49617e1908890612999908b9060040161337c565b60206040518083038185885af11580156129b7573d6000803e3d6000fd5b50505050506040513d601f19601f820116820180604052508101906129dc91906141a3565b6129f95760405163ccf3bb2760e01b815260040160405180910390fd5b612a8c565b60405163e60c350560e01b81526001600160a01b0382169063e60c3505908890612a2c908b9060040161337c565b60206040518083038185885af1158015612a4a573d6000803e3d6000fd5b50505050506040513d601f19601f82011682018060405250810190612a6f91906141a3565b612a8c5760405163bd8ba84d60e01b815260040160405180910390fd5b8215612a9b57612a9b84612aa7565b50939695505050505050565b8015612ab757612ab73382612b99565b50565b600060ff8216601f81111561065257604051632cd44ac360e21b815260040160405180910390fd5b6000807f7fffffffffffffffffffffffffffffff5d576e7357a4501ddfe92f46681b20a0831115612b195750600090506003612b90565b600060018787878760405160008152602001604052604051612b3e94939291906142f3565b6020604051602081039080840390855afa158015612b60573d6000803e3d6000fd5b5050604051601f1901519150506001600160a01b038116612b8957600060019250925050612b90565b9150600090505b94509492505050565b80471015612bc25760405162461bcd60e51b8152600401612bb990614328565b60405180910390fd5b6000826001600160a01b031682604051612bdb90614363565b60006040518083038185875af1925050503d8060008114612c18576040519150601f19603f3d011682016040523d82523d6000602084013e612c1d565b606091505b50509050806109975760405162461bcd60e51b8152600401612bb99061436e565b604080516101408101825260008082526020820181905291810182905260608082018390526080820183905260a0820183905260c0820183905260e0820183905261010082019290925261012081019190915290565b60008083601f840112612ca957612ca9600080fd5b5081356001600160401b03811115612cc357612cc3600080fd5b60208301915083602082028301111561277857612778600080fd5b60008060208385031215612cf457612cf4600080fd5b82356001600160401b03811115612d0d57612d0d600080fd5b612d1985828601612c94565b92509250509250929050565b805b82525050565b602081016106528284612d25565b6001600160401b038116612d27565b602081016106528284612d3b565b60005b83811015612d73578181015183820152602001612d5b565b50506000910152565b6000612d86825190565b808452602084019350612d9d818560208601612d58565b601f01601f19169290920192915050565b602080825281016122788184612d7c565b60006001600160a01b038216610652565b612dd981612dbf565b8114612ab757600080fd5b803561065281612dd0565b600060208284031215612e0457612e04600080fd5b6000612e108484612de4565b949350505050565b600060e08284031215612e2d57612e2d600080fd5b50919050565b600060208284031215612e4857612e48600080fd5b81356001600160401b03811115612e6157612e61600080fd5b612e1084828501612e18565b6000612e798383612d25565b505060200190565b6000612e8b825190565b80845260209384019383018060005b83811015612ebf578151612eae8882612e6d565b975060208301925050600101612e9a565b509495945050505050565b602080825281016122788184612e81565b600060608284031215612e2d57612e2d600080fd5b600060608284031215612f0557612f05600080fd5b6000612e108484612edb565b80612dd9565b803561065281612f11565b600060208284031215612f3757612f37600080fd5b6000612e108484612f17565b634e487b7160e01b600052604160045260246000fd5b601f19601f83011681018181106001600160401b0382111715612f7e57612f7e612f43565b6040525050565b6000612f9060405190565b9050612f9c8282612f59565b919050565b6001600160401b038116612dd9565b803561065281612fa1565b801515612dd9565b803561065281612fbb565b60006001600160401b03821115612fe757612fe7612f43565b601f19601f83011660200192915050565b82818337506000910152565b600061301761301284612fce565b612f85565b90508281526020810184848401111561303257613032600080fd5b6120b1848285612ff8565b600082601f83011261305157613051600080fd5b8135612e10848260208601613004565b6000610140828403121561307757613077600080fd5b613082610140612f85565b905060006130908484612f17565b82525060206130a184848301612f17565b60208301525060406130b584828501612fb0565b60408301525060606130c984828501612fb0565b60608301525060806130dd84828501612fb0565b60808301525060a06130f184828501612f17565b60a08301525060c061310584828501612de4565b60c08301525060e061311984828501612de4565b60e08301525061010061312e84828501612fc3565b610100830152506101208201356001600160401b0381111561315257613152600080fd5b61315e8482850161303d565b6101208301525092915050565b63ffffffff8116612dd9565b80356106528161316b565b6000806040838503121561319857613198600080fd5b82356001600160401b038111156131b1576131b1600080fd5b6131bd85828601613061565b92505060206131ce85828601613177565b9150509250929050565b6001600160f81b03198116612d27565b612d2781612dbf565b60006131fb825190565b80845260209384019383018060005b83811015612ebf57815161321e8882612e6d565b97506020830192505060010161320a565b60e0810161323d828a6131d8565b818103602083015261324f8189612d7c565b905081810360408301526132638188612d7c565b90506132726060830187612d25565b61327f60808301866131e8565b61328c60a0830185612d25565b81810360c083015261329e81846131f1565b9998505050505050505050565b801515612d27565b80516000906101408401906132c88582612d25565b5060208301516132db6020860182612d25565b5060408301516132ee6040860182612d3b565b5060608301516133016060860182612d3b565b5060808301516133146080860182612d3b565b5060a083015161332760a0860182612d25565b5060c083015161333a60c08601826131e8565b5060e083015161334d60e08601826131e8565b506101008301516133626101008601826132ab565b506101208301518482036101208601526117368282612d7c565b6020808252810161227881846132b3565b60006101008284031215612e2d57612e2d600080fd5b600061010082840312156133b9576133b9600080fd5b6000612e10848461338d565b6020810161065282846132ab565b60006106526001600160a01b0383166133ea565b90565b6001600160a01b031690565b6000610652826133d3565b6000610652826133f6565b612d2781613401565b60208101610652828461340c565b600060408284031215612e2d57612e2d600080fd5b60006020828403121561344d5761344d600080fd5b81356001600160401b0381111561346657613466600080fd5b612e1084828501613423565b634e487b7160e01b600052603260045260246000fd5b60008235609e19368490030181126134a2576134a2600080fd5b9190910192915050565b60006001600160401b038211156134c5576134c5612f43565b5060209081020190565b6000604082840312156134e4576134e4600080fd5b6134ee6040612f85565b905060006134fc8484612f17565b825250602061350d84848301612f17565b60208301525092915050565b6000613527613012846134ac565b8381529050602081016040840283018581111561354657613546600080fd5b835b8181101561356c578061355b88826134cf565b845250602090920191604001613548565b5050509392505050565b600082601f83011261358a5761358a600080fd5b8135612e10848260208601613519565b60ff8116612dd9565b80356106528161359a565b6000606082840312156135c3576135c3600080fd5b6135cd6060612f85565b905060006135db84846135a3565b82525060206135ec84848301612f17565b602083015250604061360084828501612f17565b60408301525092915050565b600061361a613012846134ac565b8381529050602081016060840283018581111561363957613639600080fd5b835b8181101561356c578061364e88826135ae565b84525060209092019160600161363b565b600082601f83011261367357613673600080fd5b8135612e1084826020860161360c565b600060a0828403121561369857613698600080fd5b6136a260a0612f85565b905060006136b08484612f17565b82525060208201356001600160401b038111156136cf576136cf600080fd5b6136db84828501613576565b60208301525060408201356001600160401b038111156136fd576136fd600080fd5b6137098482850161365f565b604083015250606061371d84828501612de4565b606083015250608061373184828501612fb0565b60808301525092915050565b60006106523683613683565b634e487b7160e01b600052601160045260246000fd5b8181038181111561065257610652613749565b634e487b7160e01b600052602260045260246000fd5b60028104600182168061379c57607f821691505b602082108103612e2d57612e2d613772565b600060c082840312156137c3576137c3600080fd5b6137cd60c0612f85565b905060006137db8484612de4565b82525060206137ec84848301612fb0565b602083015250604061380084828501612fc3565b604083015250606061381484828501612f17565b60608301525060808201356001600160401b0381111561383657613836600080fd5b6138428482850161303d565b60808301525060a061385684828501612f17565b60a08301525092915050565b600060e0828403121561387757613877600080fd5b61388160a0612f85565b9050600061388f8484612f17565b82525060208201356001600160401b038111156138ae576138ae600080fd5b6138ba848285016137ae565b60208301525060406138ce848285016135ae565b60408301525060a06138e284828501612de4565b60608301525060c061373184828501612fb0565b60006106523683613862565b6000823560be19368490030181126134a2576134a2600080fd5b600061065236836137ae565b60008235603e19368490030181126134a2576134a2600080fd5b6000808335601e193685900301811261395d5761395d600080fd5b8084019250823591506001600160401b0382111561397d5761397d600080fd5b6020928301928202360383131561399657613996600080fd5b509250929050565b60006139ac613012846134ac565b838152905060208082019084028301858111156139cb576139cb600080fd5b835b8181101561356c5780356001600160401b038111156139ee576139ee600080fd5b8086016139fb89826137ae565b85525050602092830192016139cd565b600061227836848461399e565b600060408284031215613a2d57613a2d600080fd5b6000612e1084846134cf565b6000808335601e1936859003018112613a5457613a54600080fd5b8084019250823591506001600160401b03821115613a7457613a74600080fd5b60208301925060408202360383131561399657613996600080fd5b80612d27565b60006106528260601b90565b600061065282613a95565b612d27613ab882612dbf565b613aa1565b60006106528260c01b90565b612d276001600160401b038216613abd565b60006106528260f81b90565b600061065282613adb565b612d27811515613ae7565b6000613b07825190565b613b15818560208601612d58565b9290920192915050565b60006106528260e01b90565b612d2763ffffffff8216613b1f565b6000613b46828c613a8f565b602082019150613b56828b613aac565b601482019150613b66828a613aac565b601482019150613b768289613ac9565b600882019150613b868288613ac9565b600882019150613b968287613af2565b600182019150613ba68286613a8f565b602082019150613bb68285613afd565b9150613bc28284613b2b565b506004019998505050505050505050565b6000613bdf8286613afd565b601760f91b81526001019150613bf58285613afd565b601760f91b815260010191506117368284613afd565b6000808335601e1936859003018112613c2657613c26600080fd5b8084019250823591506001600160401b03821115613c4657613c46600080fd5b60208301925060608202360383131561399657613996600080fd5b600060608284031215613c7657613c76600080fd5b6000612e1084846135ae565b600060208284031215613c9757613c97600080fd5b6000612e108484612fb0565b60006101008284031215613cb957613cb9600080fd5b613cc360a0612f85565b90506000613cd18484612f17565b8252506020613ce2848483016134cf565b6020830152506060613cf6848285016135ae565b60408301525060c0613d0a84828501612de4565b60608301525060e061373184828501612fb0565b60006101008284031215613d3457613d34600080fd5b6000612e108484613ca3565b60c08101613d4e8289612d25565b613d5b6020830188612d25565b613d686040830187612d25565b613d756060830186612d25565b613d826080830185612d25565b61090d60a0830184612d3b565b612d2760ff8216613adb565b6000613da78286613a8f565b602082019150613db78285613a8f565b602082019150613dc78284613d8f565b506001019392505050565b805161065281612f11565b600061065282612dbf565b612dd981613ddd565b805161065281613de8565b805161065281612fbb565b6000613e1561301284612fce565b905082815260208101848484011115613e3057613e30600080fd5b6120b1848285612d58565b600082601f830112613e4f57613e4f600080fd5b8151612e10848260208601613e07565b600060808284031215613e7457613e74600080fd5b613e7e6080612f85565b90506000613e8c8484613dd2565b8252506020613e9d84848301613df1565b6020830152506040613eb184828501613dfc565b60408301525060608201516001600160401b03811115613ed357613ed3600080fd5b613edf84828501613e3b565b60608301525092915050565b600060208284031215613f0057613f00600080fd5b81516001600160401b03811115613f1957613f19600080fd5b612e1084828501613e5f565b60006106526133e76001600160401b03841681565b612d2781613f25565b60608101613f518286612d25565b613f5e60208301856131e8565b612e106040830184613f3a565b60608101613f7982866131e8565b613f5e6020830185612d25565b6101408101613f95828d612d25565b613fa2602083018c612d25565b613faf604083018b6131e8565b613fbc606083018a612d3b565b613fc960808301896132ab565b613fd660a0830188612d25565b613fe360c0830187612d25565b613ff060e0830186612d25565b613ffe610100830185612d25565b61400c610120830184612d3b565b9b9a5050505050505050505050565b60006106526133e78381565b6140308361401b565b815460001960089490940293841b1916921b91909117905550565b6000610997818484614027565b818110156140735761406b60008261404b565b600101614058565b5050565b601f821115610997576000818152602090206020601f8501048101602085101561409e5750805b61060c6020601f860104830182614058565b81516001600160401b038111156140c9576140c9612f43565b6140d38254613788565b6140de828285614077565b6020601f83116001811461411257600084156140fa5750858201515b600019600886021c198116600286021786555061201e565b600085815260208120601f198616915b828110156141425788850151825560209485019460019092019101614122565b8683101561415e5784890151600019601f89166008021c191682555b600160028802018855505050505050505050565b604081016141808285612d25565b6122786020830184613f3a565b634e487b7160e01b600052602160045260246000fd5b6000602082840312156141b8576141b8600080fd5b6000612e108484613dfc565b600061227883836132b3565b60006141da825190565b808452602084019350836020820285016141f48560200190565b8060005b85811015614229578484038952815161421185826141c4565b94506020830160209a909a01999250506001016141f8565b5091979650505050505050565b6040808252810161424781856141d0565b90508181036020830152612e1081846131f1565b60a081016142698288612d25565b6142766020830187612d25565b6142836040830186612d25565b6142906060830185612d25565b61258360808301846131e8565b604081016142ab8285612d25565b8181036020830152612e108184612d7c565b60006122788284613afd565b6000602082840312156142de576142de600080fd5b6000612e108484613dd2565b60ff8116612d27565b608081016143018287612d25565b61430e60208301866142ea565b61431b6040830185612d25565b6117366060830184612d25565b6020808252810161065281601d81527f416464726573733a20696e73756666696369656e742062616c616e6365000000602082015260400190565b6000610652826133e7565b6020808252810161065281603a81527f416464726573733a20756e61626c6520746f2073656e642076616c75652c207260208201527f6563697069656e74206d6179206861766520726576657274656400000000000060408201526060019056fea264697066735822122057b57514a30856a4d8884a2062bba0df4377c1cfa455115fc4be84b5a4a3d49d64736f6c63430008130033",
  "devdoc": {
    "events": {
      "EIP712DomainChanged()": {
        "details": "MAY be emitted to signal that the domain could have changed."
      }
    },
    "kind": "dev",
    "methods": {
      "_getUID((bytes32,bytes32,uint64,uint64,uint64,bytes32,address,address,bool,bytes),uint32)": {
        "details": "Calculates a UID for a given attestation.",
        "params": {
          "attestation": "The input attestation.",
          "bump": "A bump value to use in case of a UID conflict."
        },
        "returns": {
          "_0": "Attestation UID."
        }
      },
      "attest((bytes32,(address,uint64,bool,bytes32,bytes,uint256)))": {
        "params": {
          "request": "The arguments of the attestation request."
        },
        "returns": {
          "_0": "The UID of the new attestation. Example:     attest({         schema: \"0facc36681cbe2456019c1b0d1e7bedd6d1d40f6f324bf3dd3a4cef2999200a0\",         data: {             recipient: \"0xdEADBeAFdeAdbEafdeadbeafDeAdbEAFdeadbeaf\",             expirationTime: 0,             revocable: true,             refUID: \"0x0000000000000000000000000000000000000000000000000000000000000000\",             data: \"0xF00D\",             value: 0         }     })"
        }
      },
      "attestByDelegation((bytes32,(address,uint64,bool,bytes32,bytes,uint256),(uint8,bytes32,bytes32),address,uint64))": {
        "params": {
          "delegatedRequest": "The arguments of the delegated attestation request."
        },
        "returns": {
          "_0": "The UID of the new attestation. Example:     attestByDelegation({         schema: '0x8e72f5bc0a8d4be6aa98360baa889040c50a0e51f32dbf0baa5199bd93472ebc',         data: {             recipient: '0xf39Fd6e51aad88F6F4ce6aB8827279cffFb92266',             expirationTime: 1673891048,             revocable: true,             refUID: '0x0000000000000000000000000000000000000000000000000000000000000000',             data: '0x1234',             value: 0         },         signature: {             v: 28,             r: '0x148c...b25b',             s: '0x5a72...be22'         },         attester: '0xc5E8740aD971409492b1A63Db8d83025e0Fc427e',         deadline: 1673891048     })"
        }
      },
      "constructor": {
        "details": "Creates a new TAS instance.",
        "params": {
          "registry": "The address of the global schema registry."
        }
      },
      "eip712Domain()": {
        "details": "See {EIP-5267}. _Available since v4.9._"
      },
      "getAttestTypeHash()": {
        "returns": {
          "_0": "The EIP712 type hash for the attest function."
        }
      },
      "getAttestation(bytes32)": {
        "params": {
          "uid": "The UID of the attestation to retrieve."
        },
        "returns": {
          "_0": "The attestation data members."
        }
      },
      "getDomainSeparator()": {
        "returns": {
          "_0": "The domain separator used in the encoding of the signatures for attest, and revoke."
        }
      },
      "getName()": {
        "returns": {
          "_0": "The EIP712 name."
        }
      },
      "getNonce(address)": {
        "params": {
          "account": "The requested account."
        },
        "returns": {
          "_0": "The current nonce."
        }
      },
      "getRevokeTypeHash()": {
        "returns": {
          "_0": "The EIP712 type hash for the revoke function."
        }
      },
      "getSchemaRegistry()": {
        "returns": {
          "_0": "The address of the global schema registry."
        }
      },
      "increaseNonce(uint256)": {
        "params": {
          "newNonce": "The (higher) new value."
        }
      },
      "isAttestationValid(bytes32)": {
        "params": {
          "uid": "The UID of the attestation to retrieve."
        },
        "returns": {
          "_0": "Whether an attestation exists."
        }
      },
      "multiAttest((bytes32,(address,uint64,bool,bytes32,bytes,uint256)[])[])": {
        "params": {
          "multiRequests": "The arguments of the multi attestation requests. The requests should be grouped by distinct     schema ids to benefit from the best batching optimization."
        },
        "returns": {
          "_0": "The UIDs of the new attestations. Example:     multiAttest([{         schema: '0x33e9094830a5cba5554d1954310e4fbed2ef5f859ec1404619adea4207f391fd',         data: [{             recipient: '0xdEADBeAFdeAdbEafdeadbeafDeAdbEAFdeadbeaf',             expirationTime: 1673891048,             revocable: true,             refUID: '0x0000000000000000000000000000000000000000000000000000000000000000',             data: '0x1234',             value: 1000         },         {             recipient: '0xf39Fd6e51aad88F6F4ce6aB8827279cffFb92266',             expirationTime: 0,             revocable: false,             refUID: '0x480df4a039efc31b11bfdf491b383ca138b6bde160988222a2a3509c02cee174',             data: '0x00',             value: 0         }],     },     {         schema: '0x5ac273ce41e3c8bfa383efe7c03e54c5f0bff29c9f11ef6ffa930fc84ca32425',         data: [{             recipient: '0xdEADBeAFdeAdbEafdeadbeafDeAdbEAFdeadbeaf',             expirationTime: 0,             revocable: true,             refUID: '0x75bf2ed8dca25a8190c50c52db136664de25b2449535839008ccfdab469b214f',             data: '0x12345678',             value: 0         },     }])"
        }
      },
      "multiAttestByDelegation((bytes32,(address,uint64,bool,bytes32,bytes,uint256)[],(uint8,bytes32,bytes32)[],address,uint64)[])": {
        "params": {
          "multiDelegatedRequests": "The arguments of the delegated multi attestation requests. The requests should be     grouped by distinct schema ids to benefit from the best batching optimization."
        },
        "returns": {
          "_0": "The UIDs of the new attestations. Example:     multiAttestByDelegation([{         schema: '0x8e72f5bc0a8d4be6aa98360baa889040c50a0e51f32dbf0baa5199bd93472ebc',         data: [{             recipient: '0xf39Fd6e51aad88F6F4ce6aB8827279cffFb92266',             expirationTime: 1673891048,             revocable: true,             refUID: '0x0000000000000000000000000000000000000000000000000000000000000000',             data: '0x1234',             value: 0         },         {             recipient: '0xdEADBeAFdeAdbEafdeadbeafDeAdbEAFdeadbeaf',             expirationTime: 0,             revocable: false,             refUID: '0x0000000000000000000000000000000000000000000000000000000000000000',             data: '0x00',             value: 0         }],         signatures: [{             v: 28,             r: '0x148c...b25b',             s: '0x5a72...be22'         },         {             v: 28,             r: '0x487s...67bb',             s: '0x12ad...2366'         }],         attester: '0x1D86495b2A7B524D747d2839b3C645Bed32e8CF4',         deadline: 1673891048     }])"
        }
      },
      "multiRevoke((bytes32,(bytes32,uint256)[])[])": {
        "params": {
          "multiRequests": "The arguments of the multi revocation requests. The requests should be grouped by distinct     schema ids to benefit from the best batching optimization. Example:     multiRevoke([{         schema: '0x8e72f5bc0a8d4be6aa98360baa889040c50a0e51f32dbf0baa5199bd93472ebc',         data: [{             uid: '0x211296a1ca0d7f9f2cfebf0daaa575bea9b20e968d81aef4e743d699c6ac4b25',             value: 1000         },         {             uid: '0xe160ac1bd3606a287b4d53d5d1d6da5895f65b4b4bab6d93aaf5046e48167ade',             value: 0         }],     },     {         schema: '0x5ac273ce41e3c8bfa383efe7c03e54c5f0bff29c9f11ef6ffa930fc84ca32425',         data: [{             uid: '0x053d42abce1fd7c8fcddfae21845ad34dae287b2c326220b03ba241bc5a8f019',             value: 0         },     }])"
        }
      },
      "multiRevokeByDelegation((bytes32,(bytes32,uint256)[],(uint8,bytes32,bytes32)[],address,uint64)[])": {
        "params": {
          "multiDelegatedRequests": "The arguments of the delegated multi revocation attestation requests. The requests     should be grouped by distinct schema ids to benefit from the best batching optimization. Example:     multiRevokeByDelegation([{         schema: '0x8e72f5bc0a8d4be6aa98360baa889040c50a0e51f32dbf0baa5199bd93472ebc',         data: [{             uid: '0x211296a1ca0d7f9f2cfebf0daaa575bea9b20e968d81aef4e743d699c6ac4b25',             value: 1000         },         {             uid: '0xe160ac1bd3606a287b4d53d5d1d6da5895f65b4b4bab6d93aaf5046e48167ade',             value: 0         }],         signatures: [{             v: 28,             r: '0x148c...b25b',             s: '0x5a72...be22'         },         {             v: 28,             r: '0x487s...67bb',             s: '0x12ad...2366'         }],         revoker: '0x244934dd3e31bE2c81f84ECf0b3E6329F5381992',         deadline: 1673891048     }])"
        }
      },
      "multiRevokeOffchain(bytes32[])": {
        "params": {
          "data": "The data to timestamp."
        },
        "returns": {
          "_0": "The timestamp the data was revoked with."
        }
      },
      "multiTimestamp(bytes32[])": {
        "params": {
          "data": "The data to timestamp."
        },
        "returns": {
          "_0": "The timestamp the data was timestamped with."
        }
      },
      "revoke((bytes32,(bytes32,uint256)))": {
        "params": {
          "request": "The arguments of the revocation request. Example:     revoke({         schema: '0x8e72f5bc0a8d4be6aa98360baa889040c50a0e51f32dbf0baa5199bd93472ebc',         data: {             uid: '0x101032e487642ee04ee17049f99a70590c735b8614079fc9275f9dd57c00966d',             value: 0         }     })"
        }
      },
      "revokeByDelegation((bytes32,(bytes32,uint256),(uint8,bytes32,bytes32),address,uint64))": {
        "params": {
          "delegatedRequest": "The arguments of the delegated revocation request. Example:     revokeByDelegation({         schema: '0x8e72f5bc0a8d4be6aa98360baa889040c50a0e51f32dbf0baa5199bd93472ebc',         data: {             uid: '0xcbbc12102578c642a0f7b34fe7111e41afa25683b6cd7b5a14caf90fa14d24ba',             value: 0         },         signature: {             v: 27,             r: '0xb593...7142',             s: '0x0f5b...2cce'         },         revoker: '0x244934dd3e31bE2c81f84ECf0b3E6329F5381992',         deadline: 1673891048     })"
        }
      },
      "revokeOffchain(bytes32)": {
        "params": {
          "data": "The data to timestamp."
        },
        "returns": {
          "_0": "The timestamp the data was revoked with."
        }
      },
      "timestamp(bytes32)": {
        "params": {
          "data": "The data to timestamp."
        },
        "returns": {
          "_0": "The timestamp the data was timestamped with."
        }
      },
      "version()": {
        "returns": {
          "_0": "Semver contract version as a string."
        }
      }
    },
    "title": "TAS",
    "version": 1
  },
  "userdoc": {
    "kind": "user",
    "methods": {
      "attest((bytes32,(address,uint64,bool,bytes32,bytes,uint256)))": {
        "notice": "Attests to a specific schema."
      },
      "attestByDelegation((bytes32,(address,uint64,bool,bytes32,bytes,uint256),(uint8,bytes32,bytes32),address,uint64))": {
        "notice": "Attests to a specific schema via the provided ECDSA signature."
      },
      "getAttestTypeHash()": {
        "notice": "Returns the EIP712 type hash for the attest function."
      },
      "getAttestation(bytes32)": {
        "notice": "Returns an existing attestation by UID."
      },
      "getDomainSeparator()": {
        "notice": "Returns the domain separator used in the encoding of the signatures for attest, and revoke."
      },
      "getName()": {
        "notice": "Returns the EIP712 name."
      },
      "getNonce(address)": {
        "notice": "Returns the current nonce per-account."
      },
      "getRevokeTypeHash()": {
        "notice": "Returns the EIP712 type hash for the revoke function."
      },
      "getSchemaRegistry()": {
        "notice": "Returns the address of the global schema registry."
      },
      "increaseNonce(uint256)": {
        "notice": "Provides users an option to invalidate nonces by increasing their nonces to (higher) new values."
      },
      "isAttestationValid(bytes32)": {
        "notice": "Checks whether an attestation exists."
      },
      "multiAttest((bytes32,(address,uint64,bool,bytes32,bytes,uint256)[])[])": {
        "notice": "Attests to multiple schemas."
      },
      "multiAttestByDelegation((bytes32,(address,uint64,bool,bytes32,bytes,uint256)[],(uint8,bytes32,bytes32)[],address,uint64)[])": {
        "notice": "Attests to multiple schemas using via provided ECDSA signatures."
      },
      "multiRevoke((bytes32,(bytes32,uint256)[])[])": {
        "notice": "Revokes existing attestations to multiple schemas."
      },
      "multiRevokeByDelegation((bytes32,(bytes32,uint256)[],(uint8,bytes32,bytes32)[],address,uint64)[])": {
        "notice": "Revokes existing attestations to multiple schemas via provided ECDSA signatures."
      },
      "multiRevokeOffchain(bytes32[])": {
        "notice": "Revokes the specified multiple bytes32 data."
      },
      "multiTimestamp(bytes32[])": {
        "notice": "Timestamps the specified multiple bytes32 data."
      },
      "revoke((bytes32,(bytes32,uint256)))": {
        "notice": "Revokes an existing attestation to a specific schema."
      },
      "revokeByDelegation((bytes32,(bytes32,uint256),(uint8,bytes32,bytes32),address,uint64))": {
        "notice": "Revokes an existing attestation to a specific schema via the provided ECDSA signature."
      },
      "revokeOffchain(bytes32)": {
        "notice": "Revokes the specified bytes32 data."
      },
      "timestamp(bytes32)": {
        "notice": "Timestamps the specified bytes32 data."
      },
      "version()": {
        "notice": "Returns the full semver contract version."
      }
    },
    "notice": "The Tableland Attestation Service protocol.",
    "version": 1
  },
  "storageLayout": {
    "storage": [
      {
        "astId": 2603,
        "contract": "contracts/TAS.sol:TAS",
        "label": "_nameFallback",
        "offset": 0,
        "slot": "0",
        "type": "t_string_storage"
      },
      {
        "astId": 2605,
        "contract": "contracts/TAS.sol:TAS",
        "label": "_versionFallback",
        "offset": 0,
        "slot": "1",
        "type": "t_string_storage"
      },
      {
        "astId": 8603,
        "contract": "contracts/TAS.sol:TAS",
        "label": "_name",
        "offset": 0,
        "slot": "2",
        "type": "t_string_storage"
      },
      {
        "astId": 8607,
        "contract": "contracts/TAS.sol:TAS",
        "label": "_nonces",
        "offset": 0,
        "slot": "3",
        "type": "t_mapping(t_address,t_uint256)"
      },
      {
        "astId": 6712,
        "contract": "contracts/TAS.sol:TAS",
        "label": "tableland",
        "offset": 0,
        "slot": "4",
        "type": "t_contract(ITASIndexer)8951"
      },
      {
        "astId": 6717,
        "contract": "contracts/TAS.sol:TAS",
        "label": "_db",
        "offset": 0,
        "slot": "5",
        "type": "t_mapping(t_bytes32,t_struct(Attestation)5492_storage)"
      },
      {
        "astId": 6721,
        "contract": "contracts/TAS.sol:TAS",
        "label": "_timestamps",
        "offset": 0,
        "slot": "6",
        "type": "t_mapping(t_bytes32,t_uint64)"
      },
      {
        "astId": 6727,
        "contract": "contracts/TAS.sol:TAS",
        "label": "_revocationsOffchain",
        "offset": 0,
        "slot": "7",
        "type": "t_mapping(t_address,t_mapping(t_bytes32,t_uint64))"
      }
    ],
    "types": {
      "t_address": {
        "encoding": "inplace",
        "label": "address",
        "numberOfBytes": "20"
      },
      "t_bool": {
        "encoding": "inplace",
        "label": "bool",
        "numberOfBytes": "1"
      },
      "t_bytes32": {
        "encoding": "inplace",
        "label": "bytes32",
        "numberOfBytes": "32"
      },
      "t_bytes_storage": {
        "encoding": "bytes",
        "label": "bytes",
        "numberOfBytes": "32"
      },
      "t_contract(ITASIndexer)8951": {
        "encoding": "inplace",
        "label": "contract ITASIndexer",
        "numberOfBytes": "20"
      },
      "t_mapping(t_address,t_mapping(t_bytes32,t_uint64))": {
        "encoding": "mapping",
        "key": "t_address",
        "label": "mapping(address => mapping(bytes32 => uint64))",
        "numberOfBytes": "32",
        "value": "t_mapping(t_bytes32,t_uint64)"
      },
      "t_mapping(t_address,t_uint256)": {
        "encoding": "mapping",
        "key": "t_address",
        "label": "mapping(address => uint256)",
        "numberOfBytes": "32",
        "value": "t_uint256"
      },
      "t_mapping(t_bytes32,t_struct(Attestation)5492_storage)": {
        "encoding": "mapping",
        "key": "t_bytes32",
        "label": "mapping(bytes32 => struct Attestation)",
        "numberOfBytes": "32",
        "value": "t_struct(Attestation)5492_storage"
      },
      "t_mapping(t_bytes32,t_uint64)": {
        "encoding": "mapping",
        "key": "t_bytes32",
        "label": "mapping(bytes32 => uint64)",
        "numberOfBytes": "32",
        "value": "t_uint64"
      },
      "t_string_storage": {
        "encoding": "bytes",
        "label": "string",
        "numberOfBytes": "32"
      },
      "t_struct(Attestation)5492_storage": {
        "encoding": "inplace",
        "label": "struct Attestation",
        "members": [
          {
            "astId": 5473,
            "contract": "contracts/TAS.sol:TAS",
            "label": "uid",
            "offset": 0,
            "slot": "0",
            "type": "t_bytes32"
          },
          {
            "astId": 5475,
            "contract": "contracts/TAS.sol:TAS",
            "label": "schema",
            "offset": 0,
            "slot": "1",
            "type": "t_bytes32"
          },
          {
            "astId": 5477,
            "contract": "contracts/TAS.sol:TAS",
            "label": "time",
            "offset": 0,
            "slot": "2",
            "type": "t_uint64"
          },
          {
            "astId": 5479,
            "contract": "contracts/TAS.sol:TAS",
            "label": "expirationTime",
            "offset": 8,
            "slot": "2",
            "type": "t_uint64"
          },
          {
            "astId": 5481,
            "contract": "contracts/TAS.sol:TAS",
            "label": "revocationTime",
            "offset": 16,
            "slot": "2",
            "type": "t_uint64"
          },
          {
            "astId": 5483,
            "contract": "contracts/TAS.sol:TAS",
            "label": "refUID",
            "offset": 0,
            "slot": "3",
            "type": "t_bytes32"
          },
          {
            "astId": 5485,
            "contract": "contracts/TAS.sol:TAS",
            "label": "recipient",
            "offset": 0,
            "slot": "4",
            "type": "t_address"
          },
          {
            "astId": 5487,
            "contract": "contracts/TAS.sol:TAS",
            "label": "attester",
            "offset": 0,
            "slot": "5",
            "type": "t_address"
          },
          {
            "astId": 5489,
            "contract": "contracts/TAS.sol:TAS",
            "label": "revocable",
            "offset": 20,
            "slot": "5",
            "type": "t_bool"
          },
          {
            "astId": 5491,
            "contract": "contracts/TAS.sol:TAS",
            "label": "data",
            "offset": 0,
            "slot": "6",
            "type": "t_bytes_storage"
          }
        ],
        "numberOfBytes": "224"
      },
      "t_uint256": {
        "encoding": "inplace",
        "label": "uint256",
        "numberOfBytes": "32"
      },
      "t_uint64": {
        "encoding": "inplace",
        "label": "uint64",
        "numberOfBytes": "8"
      }
    }
  }
}