{
  "address": "0x726958B4d5226dc2DF517A55ce2a28b92213A1c5",
  "abi": [
    {
      "inputs": [],
      "stateMutability": "nonpayable",
      "type": "constructor"
    },
    {
      "inputs": [
        {
          "internalType": "uint256",
          "name": "chainid",
          "type": "uint256"
        }
      ],
      "name": "ChainNotSupported",
      "type": "error"
    },
    {
      "anonymous": false,
      "inputs": [
        {
          "indexed": true,
          "internalType": "address",
          "name": "previousOwner",
          "type": "address"
        },
        {
          "indexed": true,
          "internalType": "address",
          "name": "newOwner",
          "type": "address"
        }
      ],
      "name": "OwnershipTransferred",
      "type": "event"
    },
    {
      "inputs": [
        {
          "components": [
            {
              "internalType": "bytes32",
              "name": "uid",
              "type": "bytes32"
            },
            {
              "internalType": "bytes32",
              "name": "schema",
              "type": "bytes32"
            },
            {
              "internalType": "uint64",
              "name": "time",
              "type": "uint64"
            },
            {
              "internalType": "uint64",
              "name": "expirationTime",
              "type": "uint64"
            },
            {
              "internalType": "uint64",
              "name": "revocationTime",
              "type": "uint64"
            },
            {
              "internalType": "bytes32",
              "name": "refUID",
              "type": "bytes32"
            },
            {
              "internalType": "address",
              "name": "recipient",
              "type": "address"
            },
            {
              "internalType": "address",
              "name": "attester",
              "type": "address"
            },
            {
              "internalType": "bool",
              "name": "revocable",
              "type": "bool"
            },
            {
              "internalType": "bytes",
              "name": "data",
              "type": "bytes"
            }
          ],
          "internalType": "struct Attestation",
          "name": "attestation",
          "type": "tuple"
        }
      ],
      "name": "AttestationInserted",
      "outputs": [],
      "stateMutability": "nonpayable",
      "type": "function"
    },
    {
      "inputs": [
        {
          "internalType": "bytes32",
          "name": "uid",
          "type": "bytes32"
        },
        {
          "internalType": "address",
          "name": "revoker",
          "type": "address"
        },
        {
          "internalType": "uint256",
          "name": "revocationTime",
          "type": "uint256"
        }
      ],
      "name": "AttestationRevokedUpdate",
      "outputs": [],
      "stateMutability": "nonpayable",
      "type": "function"
    },
    {
      "inputs": [
        {
          "internalType": "bytes32",
          "name": "uid",
          "type": "bytes32"
        },
        {
          "internalType": "bool",
          "name": "revocable",
          "type": "bool"
        }
      ],
      "name": "RevocationInfoInserted",
      "outputs": [],
      "stateMutability": "nonpayable",
      "type": "function"
    },
    {
      "inputs": [
        {
          "internalType": "address",
          "name": "revoker",
          "type": "address"
        },
        {
          "internalType": "bytes32",
          "name": "uid",
          "type": "bytes32"
        },
        {
          "internalType": "uint256",
          "name": "time",
          "type": "uint256"
        }
      ],
      "name": "RevokedOffChain",
      "outputs": [],
      "stateMutability": "nonpayable",
      "type": "function"
    },
    {
      "inputs": [
        {
          "internalType": "bytes32",
          "name": "uid",
          "type": "bytes32"
        },
        {
          "internalType": "uint256",
          "name": "time",
          "type": "uint256"
        }
      ],
      "name": "Timestamped",
      "outputs": [],
      "stateMutability": "nonpayable",
      "type": "function"
    },
    {
      "inputs": [
        {
          "internalType": "bytes32",
          "name": "data",
          "type": "bytes32"
        }
      ],
      "name": "bytes32ToString",
      "outputs": [
        {
          "internalType": "string",
          "name": "",
          "type": "string"
        }
      ],
      "stateMutability": "pure",
      "type": "function"
    },
    {
      "inputs": [
        {
          "internalType": "bytes",
          "name": "data",
          "type": "bytes"
        }
      ],
      "name": "bytesToString",
      "outputs": [
        {
          "internalType": "string",
          "name": "",
          "type": "string"
        }
      ],
      "stateMutability": "pure",
      "type": "function"
    },
    {
      "inputs": [
        {
          "internalType": "address",
          "name": "",
          "type": "address"
        },
        {
          "internalType": "address",
          "name": "",
          "type": "address"
        },
        {
          "internalType": "uint256",
          "name": "",
          "type": "uint256"
        },
        {
          "internalType": "bytes",
          "name": "",
          "type": "bytes"
        }
      ],
      "name": "onERC721Received",
      "outputs": [
        {
          "internalType": "bytes4",
          "name": "",
          "type": "bytes4"
        }
      ],
      "stateMutability": "pure",
      "type": "function"
    },
    {
      "inputs": [],
      "name": "owner",
      "outputs": [
        {
          "internalType": "address",
          "name": "",
          "type": "address"
        }
      ],
      "stateMutability": "view",
      "type": "function"
    },
    {
      "inputs": [],
      "name": "renounceOwnership",
      "outputs": [],
      "stateMutability": "nonpayable",
      "type": "function"
    },
    {
      "inputs": [
        {
          "internalType": "uint256",
          "name": "",
          "type": "uint256"
        }
      ],
      "name": "tables",
      "outputs": [
        {
          "internalType": "string",
          "name": "",
          "type": "string"
        }
      ],
      "stateMutability": "view",
      "type": "function"
    },
    {
      "inputs": [],
      "name": "tablesUpdates",
      "outputs": [
        {
          "internalType": "uint256",
          "name": "",
          "type": "uint256"
        }
      ],
      "stateMutability": "view",
      "type": "function"
    },
    {
      "inputs": [
        {
          "internalType": "address",
          "name": "newOwner",
          "type": "address"
        }
      ],
      "name": "transferOwnership",
      "outputs": [],
      "stateMutability": "nonpayable",
      "type": "function"
    }
  ],
  "transactionHash": "0x1f3bcbed47e1f7dda94f0a099efcd78777e8483b6e2d0df3f6a8599b48b717d7",
  "args": [],
  "numDeployments": 1,
  "solcInputHash": "b21a88c0173e1f065079f57541eed105",
  "bytecode": "0x60806040523480156200001157600080fd5b506200001d336200047c565b62000027620004cc565b600160006101000a8154816001600160a01b0302191690836001600160a01b031602179055506002620000956040518060c00160405280608881526020016200331a6088913960408051808201909152600b81526a30ba3a32b9ba30ba34b7b760a91b602082015262000699565b81546001810183556000928352602090922090910190620000b79082620009f8565b506002620000ff604051806080016040528060478152602001620033a26047913960408051808201909152600a8152693932bb37b1b0ba34b7b760b11b602082015262000699565b81546001810183556000928352602090922090910190620001219082620009f8565b506002620001956040518060400160405280601c81526020017f75696420746578742c2074696d657374616d70656441742074657874000000008152506040518060400160405280601281526020017106f6666436861696e5f74696d657374616d760741b8152506200069960201b60201c565b81546001810183556000928352602090922090910190620001b79082620009f8565b50600262000208604051806060016040528060268152602001620032f46026913960408051808201909152601381527237b33321b430b4b72fb932bb37b1b0ba34b7b760691b602082015262000699565b815460018101835560009283526020909220909101906200022a9082620009f8565b506001546040516361a23d0f60e01b81526001600160a01b03909116906361a23d0f906200026090309060029060040162000bf1565b6000604051808303816000875af115801562000280573d6000803e3d6000fd5b505050506040513d6000823e601f3d908101601f19168201604052620002aa919081019062000d2b565b8051620002c09160049160209091019062000883565b506003620003196040518060400160405280600b81526020016a30ba3a32b9ba30ba34b7b760a91b815250600460008154811062000302576200030262000d6b565b9060005260206000200154620006d460201b60201c565b815460018101835560009283526020909220909101906200033b9082620009f8565b5060036200037c6040518060400160405280600a8152602001693932bb37b1b0ba34b7b760b11b815250600460018154811062000302576200030262000d6b565b815460018101835560009283526020909220909101906200039e9082620009f8565b506003620003e76040518060400160405280601281526020017106f6666436861696e5f74696d657374616d760741b815250600460028154811062000302576200030262000d6b565b81546001810183556000928352602090922090910190620004099082620009f8565b506003620004536040518060400160405280601381526020017237b33321b430b4b72fb932bb37b1b0ba34b7b760691b815250600460038154811062000302576200030262000d6b565b81546001810183556000928352602090922090910190620004759082620009f8565b5062000ec6565b600080546001600160a01b038381166001600160a01b0319831681178455604051919092169283917f8be0079c531659141344cd1fd0a4f28419497f9722a3daafe3b4186f6b6457e09190a35050565b600046600103620004f0575073012969f7e3439a9b04025b5a049eb9bad82a8c1290565b46600a0362000512575073fad44bf5b843de943a09d4f3e84949a11d3aa3e690565b4661a4b103620005355750739abd75e8640871a5a20d3b4ee6330a04c962affd90565b4661a4ba03620005585750731a22854c5b1642760a827f20137a67930ae108d290565b466089036200057a5750735c4e6a9e5c1e1bf445a062006faf19ea6c49afea90565b4661013a036200059d57507359ef8bf2d6c102b4c42aef9189e1a9f0abfd652d90565b4662aa36a703620005c1575073c50c62498448acc8dbde43da77f8d5d2e2c7597d90565b466101a403620005e4575073c72e8a7be04f2469f8c2db3f1bdf69a7d516abba90565b4662066eed0362000608575073033f69e8d119205089ab15d340f5b797732f646b90565b4662013881036200062c5750734b48841d4b32c4650e4abc117a03fe8b51f38f6890565b466204cb2f0362000650575073030bcf3d50cad04c2e57391b12740982a930862190565b46617a690362000673575073e7f1725e7734ce288f8367e1bb143e90bb3f051290565b4660405163264e42cf60e01b815260040162000690919062000d88565b60405180910390fd5b606081620006a74662000701565b84604051602001620006bc9392919062000e12565b60405160208183030381529060405290505b92915050565b606082620006e24662000701565b620006ed8462000701565b604051602001620006bc9392919062000e82565b6060600062000710836200079a565b60010190506000816001600160401b03811115620007325762000732620008ea565b6040519080825280601f01601f1916602001820160405280156200075d576020820181803683370190505b5090508181016020015b600019016f181899199a1a9b1b9c1cb0b131b232b360811b600a86061a8153600a85049450846200076757509392505050565b6000807a184f03e93ff9f4daa797ed6e38ed64bf6a1f0100000000000000008310620007e4577a184f03e93ff9f4daa797ed6e38ed64bf6a1f010000000000000000830492506040015b6d04ee2d6d415b85acef8100000000831062000811576d04ee2d6d415b85acef8100000000830492506020015b662386f26fc1000083106200083057662386f26fc10000830492506010015b6305f5e100831062000849576305f5e100830492506008015b61271083106200085e57612710830492506004015b6064831062000871576064830492506002015b600a8310620006ce5760010192915050565b828054828255906000526020600020908101928215620008c1579160200282015b82811115620008c1578251825591602001919060010190620008a4565b50620008cf929150620008d3565b5090565b5b80821115620008cf5760008155600101620008d4565b634e487b7160e01b600052604160045260246000fd5b634e487b7160e01b600052602260045260246000fd5b6002810460018216806200092b57607f821691505b60208210810362000940576200094062000900565b50919050565b6000620006ce620009548381565b90565b620009628362000946565b815460001960089490940293841b1916921b91909117905550565b60006200098c81848462000957565b505050565b81811015620009b057620009a76000826200097d565b60010162000991565b5050565b601f8211156200098c576000818152602090206020601f85010481016020851015620009dd5750805b620009f16020601f86010483018262000991565b5050505050565b81516001600160401b0381111562000a145762000a14620008ea565b62000a20825462000916565b62000a2d828285620009b4565b6020601f83116001811462000a64576000841562000a4b5750858201515b600019600886021c198116600286021786555062000ac0565b600085815260208120601f198616915b8281101562000a96578885015182556020948501946001909201910162000a74565b8683101562000ab35784890151600019601f89166008021c191682555b6001600288020188555050505b505050505050565b60006001600160a01b038216620006ce565b62000ae58162000ac8565b82525050565b6000815462000afa8162000916565b80855260208501945060018216801562000b1d576001811462000b345762000b64565b60ff19831686526020821515028601935062000b64565b60008581526020902060005b8381101562000b5e5781548882015260019091019060200162000b40565b87019450505b50505092915050565b600062000b7b838362000aeb565b9392505050565b600062000b8d825490565b8084526020840193508360208202850162000bae8560009081526020902090565b8060005b8581101562000be45784840389528162000bcd858262000b6d565b60209a909a01999450506001918201910162000bb2565b5091979650505050505050565b6040810162000c01828562000ada565b818103602083015262000c15818462000b82565b949350505050565b601f19601f83011681018181106001600160401b038211171562000c455762000c45620008ea565b6040525050565b600062000c5860405190565b905062000c66828262000c1d565b919050565b60006001600160401b0382111562000c875762000c87620008ea565b5060209081020190565b8051620006ce565b600062000cb062000caa8462000c6b565b62000c4c565b8381529050602080820190840283018581111562000cd15762000cd1600080fd5b835b8181101562000cf9578062000ce9888262000c91565b8452506020928301920162000cd3565b5050509392505050565b600082601f83011262000d195762000d19600080fd5b815162000c1584826020860162000c99565b60006020828403121562000d425762000d42600080fd5b81516001600160401b0381111562000d5d5762000d5d600080fd5b62000c158482850162000d03565b634e487b7160e01b600052603260045260246000fd5b8062000ae5565b60208101620006ce828462000d81565b60005b8381101562000db557818101518382015260200162000d9b565b50506000910152565b600062000dc9825190565b62000dd981856020860162000d98565b9290920192915050565b605f60f81b815260005b5060010190565b600560fb1b8152600062000ded565b602960f81b8152600062000ded565b6c021a922a0aa22902a20a126229609d1b8152600d01600062000e36828662000dbe565b915062000e438262000de3565b915062000e51828562000dbe565b915062000e5e8262000df4565b915062000e6c828462000dbe565b915062000e798262000e03565b95945050505050565b600062000e90828662000dbe565b915062000e9d8262000de3565b915062000eab828562000dbe565b915062000eb88262000de3565b915062000e79828462000dbe565b61241e8062000ed66000396000f3fe608060405234801561001057600080fd5b50600436106100cf5760003560e01c80638da5cb5b1161008c578063a560756d11610066578063a560756d146101ae578063ac2d13e7146101c1578063d7d20545146101d4578063f2fde38b146101e757600080fd5b80638da5cb5b1461016f5780639201de5514610188578063956652351461019b57600080fd5b8063150b7a02146100d457806339614e4f14610109578063715018a61461012957806371671bf2146101335780637a99dcd91461014657806389cdc83014610159575b600080fd5b6100f36100e23660046114f5565b630a85bd0160e11b95945050505050565b604051610100919061158a565b60405180910390f35b61011c610117366004611691565b6101fa565b6040516101009190611721565b6101316103bd565b005b61011c610141366004611732565b6103d1565b610131610154366004611753565b61047d565b61016260055481565b60405161010091906117a9565b6000546001600160a01b031660405161010091906117c0565b61011c610196366004611732565b610584565b6101316101a93660046117ce565b610712565b6101316101bc36600461193a565b6107e9565b6101316101cf366004611974565b610999565b6101316101e23660046119b1565b610abc565b6101316101f53660046119e4565b610b87565b606060008251600261020c9190611a1b565b6001600160401b0381111561022357610223611598565b6040519080825280601f01601f19166020018201604052801561024d576020820181803683370190505b5060408051808201909152601081526f181899199a1a9b1b9c1cb0b131b232b360811b602082015290915060005b84518110156103935781825186838151811061029957610299611a3a565b01602001516102ab919060f81c611a66565b815181106102bb576102bb611a3a565b01602001516001600160f81b031916836102d6836002611a1b565b815181106102e6576102e6611a3a565b60200101906001600160f81b031916908160001a90535081825186838151811061031257610312611a3a565b0160200151610324919060f81c611a7a565b8151811061033457610334611a3a565b01602001516001600160f81b0319168361034f836002611a1b565b61035a906001611a8e565b8151811061036a5761036a611a3a565b60200101906001600160f81b031916908160001a9053508061038b81611aa1565b91505061027b565b50816040516020016103a59190611add565b60405160208183030381529060405292505050919050565b6103c5610bc1565b6103cf6000610beb565b565b600381815481106103e157600080fd5b9060005260206000200160009150905080546103fc90611b0e565b80601f016020809104026020016040519081016040528092919081815260200182805461042890611b0e565b80156104755780601f1061044a57610100808354040283529160200191610475565b820191906000526020600020905b81548152906001019060200180831161045857829003601f168201915b505050505081565b610485610bc1565b61057f600460038154811061049c5761049c611a3a565b906000526020600020015461057a6040518060400160405280601381526020017237b33321b430b4b72fb932bb37b1b0ba34b7b760691b81525060046003815481106104ea576104ea611a3a565b90600052602060002001546040518060400160405280601781526020017f7265766f6b65722c207569642c207265766f6b6564417400000000000000000081525061053c6105378a610c3b565b610c57565b6105486105378a610584565b6105546105378a610c80565b60405160200161056693929190611b43565b604051602081830303815290604052610d13565b610d52565b505050565b6060600061059460206002611b8e565b60ff166001600160401b038111156105ae576105ae611598565b6040519080825280601f01601f1916602001820160405280156105d8576020820181803683370190505b5060408051808201909152601081526f181899199a1a9b1b9c1cb0b131b232b360811b602082015290915060005b60208110156103935781825186836020811061062457610624611a3a565b6106309291901a611a66565b8151811061064057610640611a3a565b01602001516001600160f81b0319168361065b836002611a1b565b8151811061066b5761066b611a3a565b60200101906001600160f81b031916908160001a90535081825186836020811061069757610697611a3a565b6106a39291901a611a7a565b815181106106b3576106b3611a3a565b01602001516001600160f81b031916836106ce836002611a1b565b6106d9906001611a8e565b815181106106e9576106e9611a3a565b60200101906001600160f81b031916908160001a9053508061070a81611aa1565b915050610606565b61071a610bc1565b61057f600460018154811061073157610731611a3a565b906000526020600020015461057a6040518060400160405280600a8152602001693932bb37b1b0ba34b7b760b11b815250600460018154811061077657610776611a3a565b906000526020600020015461078d61053788610c3b565b61079961053788610c80565b6040516020016107aa929190611bae565b6040516020818303038152906040526107c56105378a610584565b6040516020016107d59190611bf1565b604051602081830303815290604052610dbc565b6107f1610bc1565b60006108018261012001516101fa565b905061040061080f82610e37565b11156108365760405162461bcd60e51b815260040161082d90611c38565b60405180910390fd5b600654620186a00361084a5761084a610f3a565b61096d600460008154811061086157610861611a3a565b906000526020600020015461057a6040518060400160405280600b81526020016a30ba3a32b9ba30ba34b7b760a91b81525060046000815481106108a7576108a7611a3a565b906000526020600020015460405180608001604052806054815260200161236e605491396108db6105378960000151610584565b6108eb6105378a60200151610584565b6109046105378b604001516001600160401b0316610c80565b61091d6105378c606001516001600160401b0316610c80565b61092d6105378d60a00151610584565b61093d6105378e60c00151610c3b565b61094d6105378f60e00151610c3b565b6109568e610c57565b604051602001610566989796959493929190611c48565b6006805490600061097d83611aa1565b91905055506109958260000151836101000151610999565b5050565b6109a1610bc1565b61099560046001815481106109b8576109b8611a3a565b906000526020600020015461057a6040518060400160405280600a8152602001693932bb37b1b0ba34b7b760b11b81525060046001815481106109fd576109fd611a3a565b90600052602060002001546040518060600160405280602781526020016123c260279139610a2d61053789610584565b610a4f604051806040016040528060018152602001600360fc1b815250610c57565b610a5c6105376000610c3b565b610aa98a610a87576040518060400160405280600581526020016466616c736560d81b815250610c57565b604051806040016040528060048152602001637472756560e01b815250610c57565b6040516020016105669493929190611d1f565b610ac4610bc1565b6109956004600281548110610adb57610adb611a3a565b906000526020600020015461057a6040518060400160405280601281526020017106f6666436861696e5f74696d657374616d760741b8152506004600281548110610b2857610b28611a3a565b9060005260206000200154604051806040016040528060128152602001711d5a590b081d1a5b595cdd185b5c1959105d60721b815250610b6a61053789610584565b610b7661053789610c80565b604051602001610566929190611d86565b610b8f610bc1565b6001600160a01b038116610bb55760405162461bcd60e51b815260040161082d90611dad565b610bbe81610beb565b50565b6000546001600160a01b031633146103cf5760405162461bcd60e51b815260040161082d90611e29565b600080546001600160a01b038381166001600160a01b0319831681178455604051919092169283917f8be0079c531659141344cd1fd0a4f28419497f9722a3daafe3b4186f6b6457e09190a35050565b6060610c516001600160a01b038316601461117b565b92915050565b606081604051602001610c6a9190611e47565b6040516020818303038152906040529050919050565b60606000610c8d836112ed565b60010190506000816001600160401b03811115610cac57610cac611598565b6040519080825280601f01601f191660200182016040528015610cd6576020820181803683370190505b5090508181016020015b600019016f181899199a1a9b1b9c1cb0b131b232b360811b600a86061a8153600a8504945084610ce0575b509392505050565b60606000610d2186866113c5565b9050808484604051602001610d3893929190611e85565b604051602081830303815290604052915050949350505050565b600154604051631bbd786d60e11b81526001600160a01b039091169063377af0da90610d8690309086908690600401611ee5565b600060405180830381600087803b158015610da057600080fd5b505af1158015610db4573d6000803e3d6000fd5b505050505050565b60606000610dca86866113c5565b60408051602081019091526000815284519192509015610e075783604051602001610df59190611f29565b60405160208183030381529060405290505b818582604051602001610e1c93929190611f48565b60405160208183030381529060405292505050949350505050565b8051600090819081905b80821015610f31576000858381518110610e5d57610e5d611a3a565b01602001516001600160f81b0319169050600160ff1b811015610e8c57610e85600184611a8e565b9250610f1e565b600760fd1b6001600160f81b031982161015610ead57610e85600284611a8e565b600f60fc1b6001600160f81b031982161015610ece57610e85600384611a8e565b601f60fb1b6001600160f81b031982161015610eef57610e85600484611a8e565b603f60fa1b6001600160f81b031982161015610f1057610e85600584611a8e565b610f1b600684611a8e565b92505b5082610f2981611aa1565b935050610e41565b50909392505050565b6001546040516361a23d0f60e01b81526001600160a01b03909116906361a23d0f90610f6d903090600290600401612074565b6000604051808303816000875af1158015610f8c573d6000803e3d6000fd5b505050506040513d6000823e601f3d908101601f19168201604052610fb49190810190612141565b8051610fc891600491602090910190611403565b5060036110166040518060400160405280600b81526020016a30ba3a32b9ba30ba34b7b760a91b815250600460008154811061100657611006611a3a565b90600052602060002001546113c5565b815460018101835560009283526020909220909101906110369082612216565b5060036110736040518060400160405280600a8152602001693932bb37b1b0ba34b7b760b11b815250600460018154811061100657611006611a3a565b815460018101835560009283526020909220909101906110939082612216565b5060036110d86040518060400160405280601281526020017106f6666436861696e5f74696d657374616d760741b815250600460028154811061100657611006611a3a565b815460018101835560009283526020909220909101906110f89082612216565b50600361113e6040518060400160405280601381526020017237b33321b430b4b72fb932bb37b1b0ba34b7b760691b815250600460038154811061100657611006611a3a565b8154600181018355600092835260209092209091019061115e9082612216565b5060006006819055600580549161117483611aa1565b9190505550565b6060600061118a836002611a1b565b611195906002611a8e565b6001600160401b038111156111ac576111ac611598565b6040519080825280601f01601f1916602001820160405280156111d6576020820181803683370190505b509050600360fc1b816000815181106111f1576111f1611a3a565b60200101906001600160f81b031916908160001a905350600f60fb1b8160018151811061122057611220611a3a565b60200101906001600160f81b031916908160001a9053506000611244846002611a1b565b61124f906001611a8e565b90505b60018111156112c7576f181899199a1a9b1b9c1cb0b131b232b360811b85600f166010811061128357611283611a3a565b1a60f81b82828151811061129957611299611a3a565b60200101906001600160f81b031916908160001a90535060049490941c936112c0816122d8565b9050611252565b5083156112e65760405162461bcd60e51b815260040161082d90612321565b9392505050565b60008072184f03e93ff9f4daa797ed6e38ed64bf6a1f0160401b831061132c5772184f03e93ff9f4daa797ed6e38ed64bf6a1f0160401b830492506040015b6d04ee2d6d415b85acef81000000008310611358576d04ee2d6d415b85acef8100000000830492506020015b662386f26fc10000831061137657662386f26fc10000830492506010015b6305f5e100831061138e576305f5e100830492506008015b61271083106113a257612710830492506004015b606483106113b4576064830492506002015b600a8310610c515760010192915050565b6060826113d146610c80565b6113da84610c80565b6040516020016113ec9392919061233f565b604051602081830303815290604052905092915050565b82805482825590600052602060002090810192821561143e579160200282015b8281111561143e578251825591602001919060010190611423565b5061144a92915061144e565b5090565b5b8082111561144a576000815560010161144f565b60006001600160a01b038216610c51565b61147d81611463565b8114610bbe57600080fd5b8035610c5181611474565b8061147d565b8035610c5181611493565b60008083601f8401126114b9576114b9600080fd5b5081356001600160401b038111156114d3576114d3600080fd5b6020830191508360018202830111156114ee576114ee600080fd5b9250929050565b60008060008060006080868803121561151057611510600080fd5b600061151c8888611488565b955050602061152d88828901611488565b945050604061153e88828901611499565b93505060608601356001600160401b0381111561155d5761155d600080fd5b611569888289016114a4565b92509250509295509295909350565b6001600160e01b031981165b82525050565b60208101610c518284611578565b634e487b7160e01b600052604160045260246000fd5b601f19601f83011681018181106001600160401b03821117156115d3576115d3611598565b6040525050565b60006115e560405190565b90506115f182826115ae565b919050565b60006001600160401b0382111561160f5761160f611598565b601f19601f83011660200192915050565b82818337506000910152565b600061163f61163a846115f6565b6115da565b90508281526020810184848401111561165a5761165a600080fd5b610d0b848285611620565b600082601f83011261167957611679600080fd5b813561168984826020860161162c565b949350505050565b6000602082840312156116a6576116a6600080fd5b81356001600160401b038111156116bf576116bf600080fd5b61168984828501611665565b60005b838110156116e65781810151838201526020016116ce565b50506000910152565b60006116f9825190565b8084526020840193506117108185602086016116cb565b601f01601f19169290920192915050565b602080825281016112e681846116ef565b60006020828403121561174757611747600080fd5b60006116898484611499565b60008060006060848603121561176b5761176b600080fd5b60006117778686611488565b935050602061178886828701611499565b925050604061179986828701611499565b9150509250925092565b80611584565b60208101610c5182846117a3565b61158481611463565b60208101610c5182846117b7565b6000806000606084860312156117e6576117e6600080fd5b60006117f28686611499565b935050602061178886828701611488565b6001600160401b03811661147d565b8035610c5181611803565b80151561147d565b8035610c518161181d565b6000610140828403121561184657611846600080fd5b6118516101406115da565b9050600061185f8484611499565b825250602061187084848301611499565b602083015250604061188484828501611812565b604083015250606061189884828501611812565b60608301525060806118ac84828501611812565b60808301525060a06118c084828501611499565b60a08301525060c06118d484828501611488565b60c08301525060e06118e884828501611488565b60e0830152506101006118fd84828501611825565b610100830152506101208201356001600160401b0381111561192157611921600080fd5b61192d84828501611665565b6101208301525092915050565b60006020828403121561194f5761194f600080fd5b81356001600160401b0381111561196857611968600080fd5b61168984828501611830565b6000806040838503121561198a5761198a600080fd5b60006119968585611499565b92505060206119a785828601611825565b9150509250929050565b600080604083850312156119c7576119c7600080fd5b60006119d38585611499565b92505060206119a785828601611499565b6000602082840312156119f9576119f9600080fd5b60006116898484611488565b634e487b7160e01b600052601160045260246000fd5b818102808215838204851417611a3357611a33611a05565b5092915050565b634e487b7160e01b600052603260045260246000fd5b634e487b7160e01b600052601260045260246000fd5b600082611a7557611a75611a50565b500490565b600082611a8957611a89611a50565b500690565b80820180821115610c5157610c51611a05565b60006000198203611ab457611ab4611a05565b5060010190565b6000611ac5825190565b611ad38185602086016116cb565b9290920192915050565b61060f60f31b81526000600282015b91506112e68284611abb565b634e487b7160e01b600052602260045260246000fd5b600281046001821680611b2257607f821691505b602082108103611b3457611b34611af8565b50919050565b600b60fa1b9052565b6000611b4f8286611abb565b9150611b5a82611b3a565b600182019150611b6a8285611abb565b9150611b7582611b3a565b600182019150611b858284611abb565b95945050505050565b60ff918216919081169082820290811690818114611a3357611a33611a05565b677265766f6b65723d60c01b81526008016000611bcb8285611abb565b702c207265766f636174696f6e54696d653d60781b815260110191506116898284611abb565b637569643d60e01b815260040160006112e68284611abb565b60148152600060208201732a30b13632b630b732103634b6b4ba30ba34b7b760611b815291505b5060200190565b60208082528101610c5181611c0a565b6000611c54828b611abb565b9150611c5f82611b3a565b600182019150611c6f828a611abb565b9150611c7a82611b3a565b600182019150611c8a8289611abb565b9150611c9582611b3a565b600182019150611ca58288611abb565b9150611cb082611b3a565b600182019150611cc08287611abb565b9150611ccb82611b3a565b600182019150611cdb8286611abb565b9150611ce682611b3a565b600182019150611cf68285611abb565b9150611d0182611b3a565b600182019150611d118284611abb565b9a9950505050505050505050565b6000611d2b8287611abb565b9150611d3682611b3a565b600182019150611d468286611abb565b9150611d5182611b3a565b600182019150611d618285611abb565b9150611d6c82611b3a565b600182019150611d7c8284611abb565b9695505050505050565b6000611d928285611abb565b9150611d9d82611b3a565b6001820191506116898284611abb565b60208082528101610c5181602681527f4f776e61626c653a206e6577206f776e657220697320746865207a65726f206160208201526564647265737360d01b604082015260600190565b60208082527f4f776e61626c653a2063616c6c6572206973206e6f7420746865206f776e657291019081526000611c31565b60208082528101610c5181611df7565b602760f81b81526000611ab4565b6000611e5282611e39565b9150611e5e8284611abb565b91506112e682611e39565b600560fb1b81526000611ab4565b602960f81b81526000611ab4565b6b024a729a2a92a1024a72a27960a51b8152600c016000611ea68286611abb565b9150611eb182611e69565b9150611ebd8285611abb565b67052ac8298aa8aa6560c31b81526008019150611eda8284611abb565b9150611b8582611e77565b60608101611ef382866117b7565b611f0060208301856117a3565b8181036040830152611b8581846116ef565b660102ba422a922960cd1b815260005b5060070190565b6000611aec82611f12565b6602aa82220aa22960cd1b81526000611f22565b6000611f5382611f34565b9150611f5f8286611abb565b6401029a2aa160dd1b81526005019150611f798285611abb565b9150611b858284611abb565b60008154611f9281611b0e565b808552602085019450600182168015611fb25760018114611fc857611ff6565b60ff198316865260208215150286019350611ff6565b60008581526020902060005b83811015611ff057815488820152600190910190602001611fd4565b87019450505b50505092915050565b60006112e68383611f85565b6000612015825490565b808452602084019350836020820285016120358560009081526020902090565b8060005b85811015612067578484038952816120518582611fff565b60209a909a019994505060019182019101612039565b5091979650505050505050565b6040810161208282856117b7565b8181036020830152611689818461200b565b60006001600160401b038211156120ad576120ad611598565b5060209081020190565b8051610c5181611493565b60006120d061163a84612094565b838152905060208082019084028301858111156120ef576120ef600080fd5b835b81811015612113578061210488826120b7565b845250602092830192016120f1565b5050509392505050565b600082601f83011261213157612131600080fd5b81516116898482602086016120c2565b60006020828403121561215657612156600080fd5b81516001600160401b0381111561216f5761216f600080fd5b6116898482850161211d565b6000610c516121878381565b90565b6121938361217b565b815460001960089490940293841b1916921b91909117905550565b600061057f81848461218a565b81811015610995576121ce6000826121ae565b6001016121bb565b601f82111561057f576000818152602090206020601f850104810160208510156121fd5750805b61220f6020601f8601048301826121bb565b5050505050565b81516001600160401b0381111561222f5761222f611598565b6122398254611b0e565b6122448282856121d6565b6020601f83116001811461227857600084156122605750858201515b600019600886021c1981166002860217865550610db4565b600085815260208120601f198616915b828110156122a85788850151825560209485019460019092019101612288565b868310156122c45784890151600019601f89166008021c191682555b600160028802018855505050505050505050565b6000816122e7576122e7611a05565b506000190190565b60208082527f537472696e67733a20686578206c656e67746820696e73756666696369656e7491019081526000611c31565b60208082528101610c51816122ef565b605f60f81b81526000611ab4565b600061234b8286611abb565b915061235682612331565b91506123628285611abb565b9150611f798261233156fe7569642c20736368656d615549442c206372656174696f6e54696d657374616d702c2065787069726174696f6e54696d652c207265665549442c20726563697069656e742c2061747465737465722c20646174617569642c207265766f636174696f6e54696d652c207265766f6b65722c207265766f6361626c65a2646970667358221220330791534e9d564a09926bd93c299669da63e908a6d111f5509d89e126b9f43f64736f6c634300081300337265766f6b657220746578742c2075696420746578742c207265766f6b6564417420746578747569642074657874207072696d617279206b65792c20736368656d6155494420746578742c206372656174696f6e54696d657374616d7020746578742c2065787069726174696f6e54696d6520746578742c2072656655494420746578742c20726563697069656e7420746578742c20617474657374657220746578742c206461746120746578747569642074657874207072696d617279206b65792c207265766f636174696f6e54696d6520746578742c207265766f6b657220746578742c207265766f6361626c652074657874",
  "devdoc": {
    "kind": "dev",
    "methods": {
      "owner()": {
        "details": "Returns the address of the current owner."
      },
      "renounceOwnership()": {
        "details": "Leaves the contract without owner. It will not be possible to call `onlyOwner` functions. Can only be called by the current owner. NOTE: Renouncing ownership will leave the contract without an owner, thereby disabling any functionality that is only available to the owner."
      },
      "transferOwnership(address)": {
        "details": "Transfers ownership of the contract to a new account (`newOwner`). Can only be called by the current owner."
      }
    },
    "title": "TAS",
    "version": 1
  },
  "userdoc": {
    "errors": {
      "ChainNotSupported(uint256)": [
        {
          "notice": "Current chain does not have a TablelandTables deployment."
        }
      ]
    },
    "kind": "user",
    "methods": {},
    "notice": "The Tableland Attestation Service protocol.",
    "version": 1
  },
  "storageLayout": {
    "storage": [
      {
        "astId": 396,
        "contract": "contracts/tablelandIndexers/TASIndexer.sol:TASIndexer",
        "label": "_owner",
        "offset": 0,
        "slot": "0",
        "type": "t_address"
      },
      {
        "astId": 11556,
        "contract": "contracts/tablelandIndexers/TASIndexer.sol:TASIndexer",
        "label": "tablelandContract",
        "offset": 0,
        "slot": "1",
        "type": "t_contract(ITablelandTables)4963"
      },
      {
        "astId": 11559,
        "contract": "contracts/tablelandIndexers/TASIndexer.sol:TASIndexer",
        "label": "createTableStatements",
        "offset": 0,
        "slot": "2",
        "type": "t_array(t_string_storage)dyn_storage"
      },
      {
        "astId": 11562,
        "contract": "contracts/tablelandIndexers/TASIndexer.sol:TASIndexer",
        "label": "tables",
        "offset": 0,
        "slot": "3",
        "type": "t_array(t_string_storage)dyn_storage"
      },
      {
        "astId": 11565,
        "contract": "contracts/tablelandIndexers/TASIndexer.sol:TASIndexer",
        "label": "tableIDs",
        "offset": 0,
        "slot": "4",
        "type": "t_array(t_uint256)dyn_storage"
      },
      {
        "astId": 11567,
        "contract": "contracts/tablelandIndexers/TASIndexer.sol:TASIndexer",
        "label": "tablesUpdates",
        "offset": 0,
        "slot": "5",
        "type": "t_uint256"
      },
      {
        "astId": 11569,
        "contract": "contracts/tablelandIndexers/TASIndexer.sol:TASIndexer",
        "label": "tablesRowsCounter",
        "offset": 0,
        "slot": "6",
        "type": "t_uint256"
      }
    ],
    "types": {
      "t_address": {
        "encoding": "inplace",
        "label": "address",
        "numberOfBytes": "20"
      },
      "t_array(t_string_storage)dyn_storage": {
        "base": "t_string_storage",
        "encoding": "dynamic_array",
        "label": "string[]",
        "numberOfBytes": "32"
      },
      "t_array(t_uint256)dyn_storage": {
        "base": "t_uint256",
        "encoding": "dynamic_array",
        "label": "uint256[]",
        "numberOfBytes": "32"
      },
      "t_contract(ITablelandTables)4963": {
        "encoding": "inplace",
        "label": "contract ITablelandTables",
        "numberOfBytes": "20"
      },
      "t_string_storage": {
        "encoding": "bytes",
        "label": "string",
        "numberOfBytes": "32"
      },
      "t_uint256": {
        "encoding": "inplace",
        "label": "uint256",
        "numberOfBytes": "32"
      }
    }
  }
}