{
  "address": "0x1c3f0e8418e2F104bcDEB997a7045Bd5A075b687",
  "abi": [
    {
      "inputs": [],
      "stateMutability": "nonpayable",
      "type": "constructor"
    },
    {
      "inputs": [
        {
          "internalType": "uint256",
          "name": "chainid",
          "type": "uint256"
        }
      ],
      "name": "ChainNotSupported",
      "type": "error"
    },
    {
      "anonymous": false,
      "inputs": [
        {
          "indexed": true,
          "internalType": "address",
          "name": "previousOwner",
          "type": "address"
        },
        {
          "indexed": true,
          "internalType": "address",
          "name": "newOwner",
          "type": "address"
        }
      ],
      "name": "OwnershipTransferred",
      "type": "event"
    },
    {
      "inputs": [
        {
          "components": [
            {
              "internalType": "bytes32",
              "name": "uid",
              "type": "bytes32"
            },
            {
              "internalType": "bytes32",
              "name": "schema",
              "type": "bytes32"
            },
            {
              "internalType": "uint64",
              "name": "time",
              "type": "uint64"
            },
            {
              "internalType": "uint64",
              "name": "expirationTime",
              "type": "uint64"
            },
            {
              "internalType": "uint64",
              "name": "revocationTime",
              "type": "uint64"
            },
            {
              "internalType": "bytes32",
              "name": "refUID",
              "type": "bytes32"
            },
            {
              "internalType": "address",
              "name": "recipient",
              "type": "address"
            },
            {
              "internalType": "address",
              "name": "attester",
              "type": "address"
            },
            {
              "internalType": "bool",
              "name": "revocable",
              "type": "bool"
            },
            {
              "internalType": "bytes",
              "name": "data",
              "type": "bytes"
            },
            {
              "internalType": "string",
              "name": "dataBase64",
              "type": "string"
            }
          ],
          "internalType": "struct Attestation",
          "name": "attestation",
          "type": "tuple"
        }
      ],
      "name": "AttestationInserted",
      "outputs": [],
      "stateMutability": "nonpayable",
      "type": "function"
    },
    {
      "inputs": [
        {
          "internalType": "bytes32",
          "name": "uid",
          "type": "bytes32"
        },
        {
          "internalType": "address",
          "name": "revoker",
          "type": "address"
        },
        {
          "internalType": "uint256",
          "name": "revocationTime",
          "type": "uint256"
        }
      ],
      "name": "AttestationRevokedUpdate",
      "outputs": [],
      "stateMutability": "nonpayable",
      "type": "function"
    },
    {
      "inputs": [
        {
          "internalType": "bytes32",
          "name": "uid",
          "type": "bytes32"
        },
        {
          "internalType": "bool",
          "name": "revocable",
          "type": "bool"
        }
      ],
      "name": "RevocationInfoInserted",
      "outputs": [],
      "stateMutability": "nonpayable",
      "type": "function"
    },
    {
      "inputs": [
        {
          "internalType": "address",
          "name": "revoker",
          "type": "address"
        },
        {
          "internalType": "bytes32",
          "name": "uid",
          "type": "bytes32"
        },
        {
          "internalType": "uint256",
          "name": "time",
          "type": "uint256"
        }
      ],
      "name": "RevokedOffChain",
      "outputs": [],
      "stateMutability": "nonpayable",
      "type": "function"
    },
    {
      "inputs": [
        {
          "internalType": "bytes32",
          "name": "uid",
          "type": "bytes32"
        },
        {
          "internalType": "uint256",
          "name": "time",
          "type": "uint256"
        }
      ],
      "name": "Timestamped",
      "outputs": [],
      "stateMutability": "nonpayable",
      "type": "function"
    },
    {
      "inputs": [
        {
          "internalType": "bytes32",
          "name": "data",
          "type": "bytes32"
        }
      ],
      "name": "bytes32ToString",
      "outputs": [
        {
          "internalType": "string",
          "name": "",
          "type": "string"
        }
      ],
      "stateMutability": "pure",
      "type": "function"
    },
    {
      "inputs": [
        {
          "internalType": "address",
          "name": "",
          "type": "address"
        },
        {
          "internalType": "address",
          "name": "",
          "type": "address"
        },
        {
          "internalType": "uint256",
          "name": "",
          "type": "uint256"
        },
        {
          "internalType": "bytes",
          "name": "",
          "type": "bytes"
        }
      ],
      "name": "onERC721Received",
      "outputs": [
        {
          "internalType": "bytes4",
          "name": "",
          "type": "bytes4"
        }
      ],
      "stateMutability": "pure",
      "type": "function"
    },
    {
      "inputs": [],
      "name": "owner",
      "outputs": [
        {
          "internalType": "address",
          "name": "",
          "type": "address"
        }
      ],
      "stateMutability": "view",
      "type": "function"
    },
    {
      "inputs": [],
      "name": "renounceOwnership",
      "outputs": [],
      "stateMutability": "nonpayable",
      "type": "function"
    },
    {
      "inputs": [
        {
          "internalType": "uint256",
          "name": "",
          "type": "uint256"
        }
      ],
      "name": "tables",
      "outputs": [
        {
          "internalType": "string",
          "name": "",
          "type": "string"
        }
      ],
      "stateMutability": "view",
      "type": "function"
    },
    {
      "inputs": [],
      "name": "tablesUpdates",
      "outputs": [
        {
          "internalType": "uint256",
          "name": "",
          "type": "uint256"
        }
      ],
      "stateMutability": "view",
      "type": "function"
    },
    {
      "inputs": [
        {
          "internalType": "address",
          "name": "newOwner",
          "type": "address"
        }
      ],
      "name": "transferOwnership",
      "outputs": [],
      "stateMutability": "nonpayable",
      "type": "function"
    }
  ],
  "transactionHash": "0x477a7b1d57fcd6e2930087946048690db0c6c8aa317d5f36f629014fae52ef6e",
  "args": [],
  "numDeployments": 1,
  "solcInputHash": "1663970b7101576bbd241d48e0243975",
  "bytecode": "0x60806040523480156200001157600080fd5b506200001d336200047c565b62000027620004cc565b600160006101000a8154816001600160a01b0302191690836001600160a01b031602179055506002620000956040518060c00160405280608881526020016200313d6088913960408051808201909152600b81526a30ba3a32b9ba30ba34b7b760a91b602082015262000699565b81546001810183556000928352602090922090910190620000b79082620009f8565b506002620000ff604051806080016040528060478152602001620031c56047913960408051808201909152600a8152693932bb37b1b0ba34b7b760b11b602082015262000699565b81546001810183556000928352602090922090910190620001219082620009f8565b506002620001956040518060400160405280601c81526020017f75696420746578742c2074696d657374616d70656441742074657874000000008152506040518060400160405280601281526020017106f6666436861696e5f74696d657374616d760741b8152506200069960201b60201c565b81546001810183556000928352602090922090910190620001b79082620009f8565b50600262000208604051806060016040528060268152602001620031176026913960408051808201909152601381527237b33321b430b4b72fb932bb37b1b0ba34b7b760691b602082015262000699565b815460018101835560009283526020909220909101906200022a9082620009f8565b506001546040516361a23d0f60e01b81526001600160a01b03909116906361a23d0f906200026090309060029060040162000bf1565b6000604051808303816000875af115801562000280573d6000803e3d6000fd5b505050506040513d6000823e601f3d908101601f19168201604052620002aa919081019062000d2b565b8051620002c09160049160209091019062000883565b506003620003196040518060400160405280600b81526020016a30ba3a32b9ba30ba34b7b760a91b815250600460008154811062000302576200030262000d6b565b9060005260206000200154620006d460201b60201c565b815460018101835560009283526020909220909101906200033b9082620009f8565b5060036200037c6040518060400160405280600a8152602001693932bb37b1b0ba34b7b760b11b815250600460018154811062000302576200030262000d6b565b815460018101835560009283526020909220909101906200039e9082620009f8565b506003620003e76040518060400160405280601281526020017106f6666436861696e5f74696d657374616d760741b815250600460028154811062000302576200030262000d6b565b81546001810183556000928352602090922090910190620004099082620009f8565b506003620004536040518060400160405280601381526020017237b33321b430b4b72fb932bb37b1b0ba34b7b760691b815250600460038154811062000302576200030262000d6b565b81546001810183556000928352602090922090910190620004759082620009f8565b5062000ec6565b600080546001600160a01b038381166001600160a01b0319831681178455604051919092169283917f8be0079c531659141344cd1fd0a4f28419497f9722a3daafe3b4186f6b6457e09190a35050565b600046600103620004f0575073012969f7e3439a9b04025b5a049eb9bad82a8c1290565b46600a0362000512575073fad44bf5b843de943a09d4f3e84949a11d3aa3e690565b4661a4b103620005355750739abd75e8640871a5a20d3b4ee6330a04c962affd90565b4661a4ba03620005585750731a22854c5b1642760a827f20137a67930ae108d290565b466089036200057a5750735c4e6a9e5c1e1bf445a062006faf19ea6c49afea90565b4661013a036200059d57507359ef8bf2d6c102b4c42aef9189e1a9f0abfd652d90565b4662aa36a703620005c1575073c50c62498448acc8dbde43da77f8d5d2e2c7597d90565b466101a403620005e4575073c72e8a7be04f2469f8c2db3f1bdf69a7d516abba90565b4662066eed0362000608575073033f69e8d119205089ab15d340f5b797732f646b90565b4662013881036200062c5750734b48841d4b32c4650e4abc117a03fe8b51f38f6890565b466204cb2f0362000650575073030bcf3d50cad04c2e57391b12740982a930862190565b46617a690362000673575073e7f1725e7734ce288f8367e1bb143e90bb3f051290565b4660405163264e42cf60e01b815260040162000690919062000d88565b60405180910390fd5b606081620006a74662000701565b84604051602001620006bc9392919062000e12565b60405160208183030381529060405290505b92915050565b606082620006e24662000701565b620006ed8462000701565b604051602001620006bc9392919062000e82565b6060600062000710836200079a565b60010190506000816001600160401b03811115620007325762000732620008ea565b6040519080825280601f01601f1916602001820160405280156200075d576020820181803683370190505b5090508181016020015b600019016f181899199a1a9b1b9c1cb0b131b232b360811b600a86061a8153600a85049450846200076757509392505050565b6000807a184f03e93ff9f4daa797ed6e38ed64bf6a1f0100000000000000008310620007e4577a184f03e93ff9f4daa797ed6e38ed64bf6a1f010000000000000000830492506040015b6d04ee2d6d415b85acef8100000000831062000811576d04ee2d6d415b85acef8100000000830492506020015b662386f26fc1000083106200083057662386f26fc10000830492506010015b6305f5e100831062000849576305f5e100830492506008015b61271083106200085e57612710830492506004015b6064831062000871576064830492506002015b600a8310620006ce5760010192915050565b828054828255906000526020600020908101928215620008c1579160200282015b82811115620008c1578251825591602001919060010190620008a4565b50620008cf929150620008d3565b5090565b5b80821115620008cf5760008155600101620008d4565b634e487b7160e01b600052604160045260246000fd5b634e487b7160e01b600052602260045260246000fd5b6002810460018216806200092b57607f821691505b60208210810362000940576200094062000900565b50919050565b6000620006ce620009548381565b90565b620009628362000946565b815460001960089490940293841b1916921b91909117905550565b60006200098c81848462000957565b505050565b81811015620009b057620009a76000826200097d565b60010162000991565b5050565b601f8211156200098c576000818152602090206020601f85010481016020851015620009dd5750805b620009f16020601f86010483018262000991565b5050505050565b81516001600160401b0381111562000a145762000a14620008ea565b62000a20825462000916565b62000a2d828285620009b4565b6020601f83116001811462000a64576000841562000a4b5750858201515b600019600886021c198116600286021786555062000ac0565b600085815260208120601f198616915b8281101562000a96578885015182556020948501946001909201910162000a74565b8683101562000ab35784890151600019601f89166008021c191682555b6001600288020188555050505b505050505050565b60006001600160a01b038216620006ce565b62000ae58162000ac8565b82525050565b6000815462000afa8162000916565b80855260208501945060018216801562000b1d576001811462000b345762000b64565b60ff19831686526020821515028601935062000b64565b60008581526020902060005b8381101562000b5e5781548882015260019091019060200162000b40565b87019450505b50505092915050565b600062000b7b838362000aeb565b9392505050565b600062000b8d825490565b8084526020840193508360208202850162000bae8560009081526020902090565b8060005b8581101562000be45784840389528162000bcd858262000b6d565b60209a909a01999450506001918201910162000bb2565b5091979650505050505050565b6040810162000c01828562000ada565b818103602083015262000c15818462000b82565b949350505050565b601f19601f83011681018181106001600160401b038211171562000c455762000c45620008ea565b6040525050565b600062000c5860405190565b905062000c66828262000c1d565b919050565b60006001600160401b0382111562000c875762000c87620008ea565b5060209081020190565b8051620006ce565b600062000cb062000caa8462000c6b565b62000c4c565b8381529050602080820190840283018581111562000cd15762000cd1600080fd5b835b8181101562000cf9578062000ce9888262000c91565b8452506020928301920162000cd3565b5050509392505050565b600082601f83011262000d195762000d19600080fd5b815162000c1584826020860162000c99565b60006020828403121562000d425762000d42600080fd5b81516001600160401b0381111562000d5d5762000d5d600080fd5b62000c158482850162000d03565b634e487b7160e01b600052603260045260246000fd5b8062000ae5565b60208101620006ce828462000d81565b60005b8381101562000db557818101518382015260200162000d9b565b50506000910152565b600062000dc9825190565b62000dd981856020860162000d98565b9290920192915050565b605f60f81b815260005b5060010190565b600560fb1b8152600062000ded565b602960f81b8152600062000ded565b6c021a922a0aa22902a20a126229609d1b8152600d01600062000e36828662000dbe565b915062000e438262000de3565b915062000e51828562000dbe565b915062000e5e8262000df4565b915062000e6c828462000dbe565b915062000e798262000e03565b95945050505050565b600062000e90828662000dbe565b915062000e9d8262000de3565b915062000eab828562000dbe565b915062000eb88262000de3565b915062000e79828462000dbe565b6122418062000ed66000396000f3fe608060405234801561001057600080fd5b50600436106100b45760003560e01c80638da5cb5b116100715780638da5cb5b146101545780639201de551461016d5780639566523514610180578063ac2d13e714610193578063d7d20545146101a6578063f2fde38b146101b957600080fd5b806302960ca6146100b9578063150b7a02146100ce578063715018a61461010357806371671bf21461010b5780637a99dcd91461012b57806389cdc8301461013e575b600080fd5b6100cc6100c7366004611531565b6101cc565b005b6100ed6100dc3660046115bc565b630a85bd0160e11b95945050505050565b6040516100fa9190611651565b60405180910390f35b6100cc610391565b61011e61011936600461165f565b6103a5565b6040516100fa91906116d6565b6100cc6101393660046116e7565b610451565b61014760055481565b6040516100fa919061173d565b6000546001600160a01b03166040516100fa9190611754565b61011e61017b36600461165f565b61053a565b6100cc61018e366004611762565b6106f2565b6100cc6101a1366004611797565b6107c9565b6100cc6101b43660046117d4565b6108f0565b6100cc6101c7366004611807565b6109bb565b6101d46109f2565b6104006101e5826101400151610a1c565b111561020c5760405162461bcd60e51b815260040161020390611856565b60405180910390fd5b600654620186a00361022057610220610b1f565b610366600460008154811061023757610237611866565b90600052602060002001546103616040518060400160405280600b81526020016a30ba3a32b9ba30ba34b7b760a91b815250600460008154811061027d5761027d611866565b9060005260206000200154604051806080016040528060548152602001612191605491396102b66102b1886000015161053a565b610d60565b6102c66102b1896020015161053a565b6102df6102b18a604001516001600160401b0316610d89565b6102f86102b18b606001516001600160401b0316610d89565b6103086102b18c60a0015161053a565b6103186102b18d60c00151610e1c565b6103286102b18e60e00151610e1c565b6103368e6101400151610d60565b60405160200161034d9897969594939291906118a7565b604051602081830303815290604052610e38565b610e77565b6006805490600061037683611994565b919050555061038e81600001518261010001516107c9565b50565b6103996109f2565b6103a36000610ee1565b565b600381815481106103b557600080fd5b9060005260206000200160009150905080546103d0906119c4565b80601f01602080910402602001604051908101604052809291908181526020018280546103fc906119c4565b80156104495780601f1061041e57610100808354040283529160200191610449565b820191906000526020600020905b81548152906001019060200180831161042c57829003601f168201915b505050505081565b6104596109f2565b610535600460038154811061047057610470611866565b90600052602060002001546103616040518060400160405280601381526020017237b33321b430b4b72fb932bb37b1b0ba34b7b760691b81525060046003815481106104be576104be611866565b90600052602060002001546040518060400160405280601781526020017f7265766f6b65722c207569642c207265766f6b6564417400000000000000000081525061050b6102b18a610e1c565b6105176102b18a61053a565b6105236102b18a610d89565b60405160200161034d939291906119f0565b505050565b6060600061054a60206002611a3b565b60ff166001600160401b0381111561056457610564611294565b6040519080825280601f01601f19166020018201604052801561058e576020820181803683370190505b5060408051808201909152601081526f181899199a1a9b1b9c1cb0b131b232b360811b602082015290915060005b60208110156106c8578182518683602081106105da576105da611866565b6105e69291901a611a78565b815181106105f6576105f6611866565b01602001516001600160f81b03191683610611836002611a8c565b8151811061062157610621611866565b60200101906001600160f81b031916908160001a90535081825186836020811061064d5761064d611866565b6106599291901a611aa4565b8151811061066957610669611866565b01602001516001600160f81b03191683610684836002611a8c565b61068f906001611ab8565b8151811061069f5761069f611866565b60200101906001600160f81b031916908160001a905350806106c081611994565b9150506105bc565b50816040516020016106da9190611acb565b60405160208183030381529060405292505050919050565b6106fa6109f2565b610535600460018154811061071157610711611866565b90600052602060002001546103616040518060400160405280600a8152602001693932bb37b1b0ba34b7b760b11b815250600460018154811061075657610756611866565b906000526020600020015461076d6102b188610e1c565b6107796102b188610d89565b60405160200161078a929190611ae6565b6040516020818303038152906040526107a56102b18a61053a565b6040516020016107b59190611b29565b604051602081830303815290604052610f31565b6107d16109f2565b6108ec60046001815481106107e8576107e8611866565b90600052602060002001546103616040518060400160405280600a8152602001693932bb37b1b0ba34b7b760b11b815250600460018154811061082d5761082d611866565b90600052602060002001546040518060600160405280602781526020016121e56027913961085d6102b18961053a565b61087f604051806040016040528060018152602001600360fc1b815250610d60565b61088c6102b16000610e1c565b6108d98a6108b7576040518060400160405280600581526020016466616c736560d81b815250610d60565b604051806040016040528060048152602001637472756560e01b815250610d60565b60405160200161034d9493929190611b42565b5050565b6108f86109f2565b6108ec600460028154811061090f5761090f611866565b90600052602060002001546103616040518060400160405280601281526020017106f6666436861696e5f74696d657374616d760741b815250600460028154811061095c5761095c611866565b9060005260206000200154604051806040016040528060128152602001711d5a590b081d1a5b595cdd185b5c1959105d60721b81525061099e6102b18961053a565b6109aa6102b189610d89565b60405160200161034d929190611ba9565b6109c36109f2565b6001600160a01b0381166109e95760405162461bcd60e51b815260040161020390611bd0565b61038e81610ee1565b6000546001600160a01b031633146103a35760405162461bcd60e51b815260040161020390611c4c565b8051600090819081905b80821015610b16576000858381518110610a4257610a42611866565b01602001516001600160f81b0319169050600160ff1b811015610a7157610a6a600184611ab8565b9250610b03565b600760fd1b6001600160f81b031982161015610a9257610a6a600284611ab8565b600f60fc1b6001600160f81b031982161015610ab357610a6a600384611ab8565b601f60fb1b6001600160f81b031982161015610ad457610a6a600484611ab8565b603f60fa1b6001600160f81b031982161015610af557610a6a600584611ab8565b610b00600684611ab8565b92505b5082610b0e81611994565b935050610a26565b50909392505050565b6001546040516361a23d0f60e01b81526001600160a01b03909116906361a23d0f90610b52903090600290600401611d4b565b6000604051808303816000875af1158015610b71573d6000803e3d6000fd5b505050506040513d6000823e601f3d908101601f19168201604052610b999190810190611e18565b8051610bad91600491602090910190611234565b506003610bfb6040518060400160405280600b81526020016a30ba3a32b9ba30ba34b7b760a91b8152506004600081548110610beb57610beb611866565b9060005260206000200154610fac565b81546001810183556000928352602090922090910190610c1b9082611eed565b506003610c586040518060400160405280600a8152602001693932bb37b1b0ba34b7b760b11b8152506004600181548110610beb57610beb611866565b81546001810183556000928352602090922090910190610c789082611eed565b506003610cbd6040518060400160405280601281526020017106f6666436861696e5f74696d657374616d760741b8152506004600281548110610beb57610beb611866565b81546001810183556000928352602090922090910190610cdd9082611eed565b506003610d236040518060400160405280601381526020017237b33321b430b4b72fb932bb37b1b0ba34b7b760691b8152506004600381548110610beb57610beb611866565b81546001810183556000928352602090922090910190610d439082611eed565b50600060068190556005805491610d5983611994565b9190505550565b606081604051602001610d739190611fbd565b6040516020818303038152906040529050919050565b60606000610d9683610fea565b60010190506000816001600160401b03811115610db557610db5611294565b6040519080825280601f01601f191660200182016040528015610ddf576020820181803683370190505b5090508181016020015b600019016f181899199a1a9b1b9c1cb0b131b232b360811b600a86061a8153600a8504945084610de9575b509392505050565b6060610e326001600160a01b03831660146110c2565b92915050565b60606000610e468686610fac565b9050808484604051602001610e5d93929190611ffb565b604051602081830303815290604052915050949350505050565b600154604051631bbd786d60e11b81526001600160a01b039091169063377af0da90610eab9030908690869060040161205b565b600060405180830381600087803b158015610ec557600080fd5b505af1158015610ed9573d6000803e3d6000fd5b505050505050565b600080546001600160a01b038381166001600160a01b0319831681178455604051919092169283917f8be0079c531659141344cd1fd0a4f28419497f9722a3daafe3b4186f6b6457e09190a35050565b60606000610f3f8686610fac565b60408051602081019091526000815284519192509015610f7c5783604051602001610f6a919061209f565b60405160208183030381529060405290505b818582604051602001610f91939291906120be565b60405160208183030381529060405292505050949350505050565b606082610fb846610d89565b610fc184610d89565b604051602001610fd393929190612109565b604051602081830303815290604052905092915050565b60008072184f03e93ff9f4daa797ed6e38ed64bf6a1f0160401b83106110295772184f03e93ff9f4daa797ed6e38ed64bf6a1f0160401b830492506040015b6d04ee2d6d415b85acef81000000008310611055576d04ee2d6d415b85acef8100000000830492506020015b662386f26fc10000831061107357662386f26fc10000830492506010015b6305f5e100831061108b576305f5e100830492506008015b612710831061109f57612710830492506004015b606483106110b1576064830492506002015b600a8310610e325760010192915050565b606060006110d1836002611a8c565b6110dc906002611ab8565b6001600160401b038111156110f3576110f3611294565b6040519080825280601f01601f19166020018201604052801561111d576020820181803683370190505b509050600360fc1b8160008151811061113857611138611866565b60200101906001600160f81b031916908160001a905350600f60fb1b8160018151811061116757611167611866565b60200101906001600160f81b031916908160001a905350600061118b846002611a8c565b611196906001611ab8565b90505b600181111561120e576f181899199a1a9b1b9c1cb0b131b232b360811b85600f16601081106111ca576111ca611866565b1a60f81b8282815181106111e0576111e0611866565b60200101906001600160f81b031916908160001a90535060049490941c9361120781612137565b9050611199565b50831561122d5760405162461bcd60e51b815260040161020390612180565b9392505050565b82805482825590600052602060002090810192821561126f579160200282015b8281111561126f578251825591602001919060010190611254565b5061127b92915061127f565b5090565b5b8082111561127b5760008155600101611280565b634e487b7160e01b600052604160045260246000fd5b601f19601f83011681018181106001600160401b03821117156112cf576112cf611294565b6040525050565b60006112e160405190565b90506112ed82826112aa565b919050565b805b811461038e57600080fd5b8035610e32816112f2565b6001600160401b0381166112f4565b8035610e328161130a565b60006001600160a01b038216610e32565b6112f481611324565b8035610e3281611335565b8015156112f4565b8035610e3281611349565b60006001600160401b0382111561137557611375611294565b601f19601f83011660200192915050565b82818337506000910152565b60006113a56113a08461135c565b6112d6565b9050828152602081018484840111156113c0576113c0600080fd5b610e14848285611386565b600082601f8301126113df576113df600080fd5b81356113ef848260208601611392565b949350505050565b6000610160828403121561140d5761140d600080fd5b6114186101606112d6565b9050600061142684846112ff565b8252506020611437848483016112ff565b602083015250604061144b84828501611319565b604083015250606061145f84828501611319565b606083015250608061147384828501611319565b60808301525060a0611487848285016112ff565b60a08301525060c061149b8482850161133e565b60c08301525060e06114af8482850161133e565b60e0830152506101006114c484828501611351565b610100830152506101208201356001600160401b038111156114e8576114e8600080fd5b6114f4848285016113cb565b610120830152506101408201356001600160401b0381111561151857611518600080fd5b611524848285016113cb565b6101408301525092915050565b60006020828403121561154657611546600080fd5b81356001600160401b0381111561155f5761155f600080fd5b6113ef848285016113f7565b60008083601f84011261158057611580600080fd5b5081356001600160401b0381111561159a5761159a600080fd5b6020830191508360018202830111156115b5576115b5600080fd5b9250929050565b6000806000806000608086880312156115d7576115d7600080fd5b60006115e3888861133e565b95505060206115f48882890161133e565b9450506040611605888289016112ff565b93505060608601356001600160401b0381111561162457611624600080fd5b6116308882890161156b565b92509250509295509295909350565b6001600160e01b031981165b82525050565b60208101610e32828461163f565b60006020828403121561167457611674600080fd5b60006113ef84846112ff565b60005b8381101561169b578181015183820152602001611683565b50506000910152565b60006116ae825190565b8084526020840193506116c5818560208601611680565b601f01601f19169290920192915050565b6020808252810161122d81846116a4565b6000806000606084860312156116ff576116ff600080fd5b600061170b868661133e565b935050602061171c868287016112ff565b925050604061172d868287016112ff565b9150509250925092565b8061164b565b60208101610e328284611737565b61164b81611324565b60208101610e32828461174b565b60008060006060848603121561177a5761177a600080fd5b600061178686866112ff565b935050602061171c8682870161133e565b600080604083850312156117ad576117ad600080fd5b60006117b985856112ff565b92505060206117ca85828601611351565b9150509250929050565b600080604083850312156117ea576117ea600080fd5b60006117f685856112ff565b92505060206117ca858286016112ff565b60006020828403121561181c5761181c600080fd5b60006113ef848461133e565b60148152600060208201732a30b13632b630b732103634b6b4ba30ba34b7b760611b815291505b5060200190565b60208082528101610e3281611828565b634e487b7160e01b600052603260045260246000fd5b6000611886825190565b611894818560208601611680565b9290920192915050565b600b60fa1b9052565b60006118b3828b61187c565b91506118be8261189e565b6001820191506118ce828a61187c565b91506118d98261189e565b6001820191506118e9828961187c565b91506118f48261189e565b600182019150611904828861187c565b915061190f8261189e565b60018201915061191f828761187c565b915061192a8261189e565b60018201915061193a828661187c565b91506119458261189e565b600182019150611955828561187c565b91506119608261189e565b600182019150611970828461187c565b9a9950505050505050505050565b634e487b7160e01b600052601160045260246000fd5b600060001982036119a7576119a761197e565b5060010190565b634e487b7160e01b600052602260045260246000fd5b6002810460018216806119d857607f821691505b6020821081036119ea576119ea6119ae565b50919050565b60006119fc828661187c565b9150611a078261189e565b600182019150611a17828561187c565b9150611a228261189e565b600182019150611a32828461187c565b95945050505050565b60ff918216919081169082820290811690818114611a5b57611a5b61197e565b5092915050565b634e487b7160e01b600052601260045260246000fd5b600082611a8757611a87611a62565b500490565b818102808215838204851417611a5b57611a5b61197e565b600082611ab357611ab3611a62565b500690565b80820180821115610e3257610e3261197e565b61060f60f31b81526000600282015b915061122d828461187c565b677265766f6b65723d60c01b81526008016000611b03828561187c565b702c207265766f636174696f6e54696d653d60781b815260110191506113ef828461187c565b637569643d60e01b8152600401600061122d828461187c565b6000611b4e828761187c565b9150611b598261189e565b600182019150611b69828661187c565b9150611b748261189e565b600182019150611b84828561187c565b9150611b8f8261189e565b600182019150611b9f828461187c565b9695505050505050565b6000611bb5828561187c565b9150611bc08261189e565b6001820191506113ef828461187c565b60208082528101610e3281602681527f4f776e61626c653a206e6577206f776e657220697320746865207a65726f206160208201526564647265737360d01b604082015260600190565b60208082527f4f776e61626c653a2063616c6c6572206973206e6f7420746865206f776e65729101908152600061184f565b60208082528101610e3281611c1a565b60008154611c69816119c4565b808552602085019450600182168015611c895760018114611c9f57611ccd565b60ff198316865260208215150286019350611ccd565b60008581526020902060005b83811015611cc757815488820152600190910190602001611cab565b87019450505b50505092915050565b600061122d8383611c5c565b6000611cec825490565b80845260208401935083602082028501611d0c8560009081526020902090565b8060005b85811015611d3e57848403895281611d288582611cd6565b60209a909a019994505060019182019101611d10565b5091979650505050505050565b60408101611d59828561174b565b81810360208301526113ef8184611ce2565b60006001600160401b03821115611d8457611d84611294565b5060209081020190565b8051610e32816112f2565b6000611da76113a084611d6b565b83815290506020808201908402830185811115611dc657611dc6600080fd5b835b81811015611dea5780611ddb8882611d8e565b84525060209283019201611dc8565b5050509392505050565b600082601f830112611e0857611e08600080fd5b81516113ef848260208601611d99565b600060208284031215611e2d57611e2d600080fd5b81516001600160401b03811115611e4657611e46600080fd5b6113ef84828501611df4565b6000610e32611e5e8381565b90565b611e6a83611e52565b815460001960089490940293841b1916921b91909117905550565b6000610535818484611e61565b818110156108ec57611ea5600082611e85565b600101611e92565b601f821115610535576000818152602090206020601f85010481016020851015611ed45750805b611ee66020601f860104830182611e92565b5050505050565b81516001600160401b03811115611f0657611f06611294565b611f1082546119c4565b611f1b828285611ead565b6020601f831160018114611f4f5760008415611f375750858201515b600019600886021c1981166002860217865550610ed9565b600085815260208120601f198616915b82811015611f7f5788850151825560209485019460019092019101611f5f565b86831015611f9b5784890151600019601f89166008021c191682555b600160028802018855505050505050505050565b602760f81b815260006119a7565b6000611fc882611faf565b9150611fd4828461187c565b915061122d82611faf565b600560fb1b815260006119a7565b602960f81b815260006119a7565b6b024a729a2a92a1024a72a27960a51b8152600c01600061201c828661187c565b915061202782611fdf565b9150612033828561187c565b67052ac8298aa8aa6560c31b81526008019150612050828461187c565b9150611a3282611fed565b60608101612069828661174b565b6120766020830185611737565b8181036040830152611a3281846116a4565b660102ba422a922960cd1b815260005b5060070190565b6000611ada82612088565b6602aa82220aa22960cd1b81526000612098565b60006120c9826120aa565b91506120d5828661187c565b6401029a2aa160dd1b815260050191506120ef828561187c565b9150611a32828461187c565b605f60f81b815260006119a7565b6000612115828661187c565b9150612120826120fb565b915061212c828561187c565b91506120ef826120fb565b6000816121465761214661197e565b506000190190565b60208082527f537472696e67733a20686578206c656e67746820696e73756666696369656e749101908152600061184f565b60208082528101610e328161214e56fe7569642c20736368656d615549442c206372656174696f6e54696d657374616d702c2065787069726174696f6e54696d652c207265665549442c20726563697069656e742c2061747465737465722c20646174617569642c207265766f636174696f6e54696d652c207265766f6b65722c207265766f6361626c65a264697066735822122051aacc1ee0afa66cdf23ab01cd2724043796caacca8c1dd087a2709b0154fd9a64736f6c634300081300337265766f6b657220746578742c2075696420746578742c207265766f6b6564417420746578747569642074657874207072696d617279206b65792c20736368656d6155494420746578742c206372656174696f6e54696d657374616d7020746578742c2065787069726174696f6e54696d6520746578742c2072656655494420746578742c20726563697069656e7420746578742c20617474657374657220746578742c206461746120746578747569642074657874207072696d617279206b65792c207265766f636174696f6e54696d6520746578742c207265766f6b657220746578742c207265766f6361626c652074657874",
  "devdoc": {
    "kind": "dev",
    "methods": {
      "owner()": {
        "details": "Returns the address of the current owner."
      },
      "renounceOwnership()": {
        "details": "Leaves the contract without owner. It will not be possible to call `onlyOwner` functions. Can only be called by the current owner. NOTE: Renouncing ownership will leave the contract without an owner, thereby disabling any functionality that is only available to the owner."
      },
      "transferOwnership(address)": {
        "details": "Transfers ownership of the contract to a new account (`newOwner`). Can only be called by the current owner."
      }
    },
    "title": "TAS",
    "version": 1
  },
  "userdoc": {
    "errors": {
      "ChainNotSupported(uint256)": [
        {
          "notice": "Current chain does not have a TablelandTables deployment."
        }
      ]
    },
    "kind": "user",
    "methods": {},
    "notice": "The Tableland Attestation Service protocol.",
    "version": 1
  },
  "storageLayout": {
    "storage": [
      {
        "astId": 396,
        "contract": "contracts/tablelandIndexers/TASIndexer.sol:TASIndexer",
        "label": "_owner",
        "offset": 0,
        "slot": "0",
        "type": "t_address"
      },
      {
        "astId": 11241,
        "contract": "contracts/tablelandIndexers/TASIndexer.sol:TASIndexer",
        "label": "tablelandContract",
        "offset": 0,
        "slot": "1",
        "type": "t_contract(ITablelandTables)4651"
      },
      {
        "astId": 11244,
        "contract": "contracts/tablelandIndexers/TASIndexer.sol:TASIndexer",
        "label": "createTableStatements",
        "offset": 0,
        "slot": "2",
        "type": "t_array(t_string_storage)dyn_storage"
      },
      {
        "astId": 11247,
        "contract": "contracts/tablelandIndexers/TASIndexer.sol:TASIndexer",
        "label": "tables",
        "offset": 0,
        "slot": "3",
        "type": "t_array(t_string_storage)dyn_storage"
      },
      {
        "astId": 11250,
        "contract": "contracts/tablelandIndexers/TASIndexer.sol:TASIndexer",
        "label": "tableIDs",
        "offset": 0,
        "slot": "4",
        "type": "t_array(t_uint256)dyn_storage"
      },
      {
        "astId": 11252,
        "contract": "contracts/tablelandIndexers/TASIndexer.sol:TASIndexer",
        "label": "tablesUpdates",
        "offset": 0,
        "slot": "5",
        "type": "t_uint256"
      },
      {
        "astId": 11254,
        "contract": "contracts/tablelandIndexers/TASIndexer.sol:TASIndexer",
        "label": "tablesRowsCounter",
        "offset": 0,
        "slot": "6",
        "type": "t_uint256"
      }
    ],
    "types": {
      "t_address": {
        "encoding": "inplace",
        "label": "address",
        "numberOfBytes": "20"
      },
      "t_array(t_string_storage)dyn_storage": {
        "base": "t_string_storage",
        "encoding": "dynamic_array",
        "label": "string[]",
        "numberOfBytes": "32"
      },
      "t_array(t_uint256)dyn_storage": {
        "base": "t_uint256",
        "encoding": "dynamic_array",
        "label": "uint256[]",
        "numberOfBytes": "32"
      },
      "t_contract(ITablelandTables)4651": {
        "encoding": "inplace",
        "label": "contract ITablelandTables",
        "numberOfBytes": "20"
      },
      "t_string_storage": {
        "encoding": "bytes",
        "label": "string",
        "numberOfBytes": "32"
      },
      "t_uint256": {
        "encoding": "inplace",
        "label": "uint256",
        "numberOfBytes": "32"
      }
    }
  }
}