{
  "address": "0xFd3bbCc267E399aD0708CC934709C679681016fd",
  "abi": [
    {
      "inputs": [],
      "stateMutability": "nonpayable",
      "type": "constructor"
    },
    {
      "inputs": [
        {
          "internalType": "uint256",
          "name": "chainid",
          "type": "uint256"
        }
      ],
      "name": "ChainNotSupported",
      "type": "error"
    },
    {
      "anonymous": false,
      "inputs": [
        {
          "indexed": true,
          "internalType": "address",
          "name": "previousOwner",
          "type": "address"
        },
        {
          "indexed": true,
          "internalType": "address",
          "name": "newOwner",
          "type": "address"
        }
      ],
      "name": "OwnershipTransferred",
      "type": "event"
    },
    {
      "inputs": [
        {
          "internalType": "bytes32",
          "name": "schemaUID",
          "type": "bytes32"
        },
        {
          "internalType": "address",
          "name": "attester",
          "type": "address"
        }
      ],
      "name": "AddSchemaAttester",
      "outputs": [],
      "stateMutability": "nonpayable",
      "type": "function"
    },
    {
      "inputs": [
        {
          "internalType": "bytes32",
          "name": "schemaUID",
          "type": "bytes32"
        },
        {
          "internalType": "bool",
          "name": "encrypted",
          "type": "bool"
        }
      ],
      "name": "AddSchemaInfo",
      "outputs": [],
      "stateMutability": "nonpayable",
      "type": "function"
    },
    {
      "inputs": [
        {
          "internalType": "bytes32",
          "name": "schemaUID",
          "type": "bytes32"
        },
        {
          "internalType": "address",
          "name": "revoker",
          "type": "address"
        }
      ],
      "name": "AddSchemaRevoker",
      "outputs": [],
      "stateMutability": "nonpayable",
      "type": "function"
    },
    {
      "inputs": [
        {
          "internalType": "bytes32",
          "name": "data",
          "type": "bytes32"
        }
      ],
      "name": "bytes32ToString",
      "outputs": [
        {
          "internalType": "string",
          "name": "",
          "type": "string"
        }
      ],
      "stateMutability": "pure",
      "type": "function"
    },
    {
      "inputs": [
        {
          "internalType": "address",
          "name": "",
          "type": "address"
        },
        {
          "internalType": "address",
          "name": "",
          "type": "address"
        },
        {
          "internalType": "uint256",
          "name": "",
          "type": "uint256"
        },
        {
          "internalType": "bytes",
          "name": "",
          "type": "bytes"
        }
      ],
      "name": "onERC721Received",
      "outputs": [
        {
          "internalType": "bytes4",
          "name": "",
          "type": "bytes4"
        }
      ],
      "stateMutability": "pure",
      "type": "function"
    },
    {
      "inputs": [],
      "name": "owner",
      "outputs": [
        {
          "internalType": "address",
          "name": "",
          "type": "address"
        }
      ],
      "stateMutability": "view",
      "type": "function"
    },
    {
      "inputs": [],
      "name": "renounceOwnership",
      "outputs": [],
      "stateMutability": "nonpayable",
      "type": "function"
    },
    {
      "inputs": [
        {
          "internalType": "uint256",
          "name": "",
          "type": "uint256"
        }
      ],
      "name": "tables",
      "outputs": [
        {
          "internalType": "string",
          "name": "",
          "type": "string"
        }
      ],
      "stateMutability": "view",
      "type": "function"
    },
    {
      "inputs": [
        {
          "internalType": "address",
          "name": "newOwner",
          "type": "address"
        }
      ],
      "name": "transferOwnership",
      "outputs": [],
      "stateMutability": "nonpayable",
      "type": "function"
    }
  ],
  "transactionHash": "0x018869e13ff98924b4e6ae5bd2a94ae53be803e1ac428b379fbe9f75444c637d",
  "args": [],
  "numDeployments": 2,
  "solcInputHash": "9072156d7f3fde666d0df55fca30b6d3",
  "bytecode": "0x60806040523480156200001157600080fd5b506200001d33620003c7565b6200002762000417565b600160006101000a8154816001600160a01b0302191690836001600160a01b031602179055506002620000be6040518060400160405280601d81526020017f736368656d6155494420746578742c20617474657374657220746578740000008152506040518060400160405280601081526020016f736368656d615f61747465737465727360801b815250620005dd60201b60201c565b81546001810183556000928352602090922090910190620000e09082620008d3565b506002620001516040518060400160405280601c81526020017f736368656d6155494420746578742c207265766f6b65722074657874000000008152506040518060400160405280600f81526020016e736368656d615f7265766f6b65727360881b815250620005dd60201b60201c565b81546001810183556000928352602090922090910190620001739082620008d3565b506002620001bc6040518060600160405280602a815260200162002880602a913960408051808201909152600b81526a736368656d615f696e666f60a81b6020820152620005dd565b81546001810183556000928352602090922090910190620001de9082620008d3565b506001546040516361a23d0f60e01b81526001600160a01b03909116906361a23d0f90620002149030906002906004016200099f565b6000604051808303816000875af115801562000234573d6000803e3d6000fd5b505050506040513d6000823e601f3d908101601f191682016040526200025e919081019062000a87565b80516200027491600491602090910190620007c7565b506003620002d26040518060400160405280601081526020016f736368656d615f61747465737465727360801b8152506004600081548110620002bb57620002bb62000b50565b90600052602060002001546200061760201b60201c565b81546001810183556000928352602090922090910190620002f49082620008d3565b5060036200033a6040518060400160405280600f81526020016e736368656d615f7265766f6b65727360881b8152506004600181548110620002bb57620002bb62000b50565b815460018101835560009283526020909220909101906200035c9082620008d3565b5060036200039e6040518060400160405280600b81526020016a736368656d615f696e666f60a81b8152506004600281548110620002bb57620002bb62000b50565b81546001810183556000928352602090922090910190620003c09082620008d3565b5062000c41565b600080546001600160a01b038381166001600160a01b0319831681178455604051919092169283917f8be0079c531659141344cd1fd0a4f28419497f9722a3daafe3b4186f6b6457e09190a35050565b6000466001036200043b575073012969f7e3439a9b04025b5a049eb9bad82a8c1290565b46600a036200045d575073fad44bf5b843de943a09d4f3e84949a11d3aa3e690565b4661a4b103620004805750739abd75e8640871a5a20d3b4ee6330a04c962affd90565b4661a4ba03620004a35750731a22854c5b1642760a827f20137a67930ae108d290565b46608903620004c55750735c4e6a9e5c1e1bf445a062006faf19ea6c49afea90565b4661013a03620004e857507359ef8bf2d6c102b4c42aef9189e1a9f0abfd652d90565b4662aa36a7036200050c575073c50c62498448acc8dbde43da77f8d5d2e2c7597d90565b466101a4036200052f575073c72e8a7be04f2469f8c2db3f1bdf69a7d516abba90565b4662066eed0362000553575073033f69e8d119205089ab15d340f5b797732f646b90565b466201388103620005775750734b48841d4b32c4650e4abc117a03fe8b51f38f6890565b466204cb2f036200059b575073030bcf3d50cad04c2e57391b12740982a930862190565b46617a6903620005be575073e7f1725e7734ce288f8367e1bb143e90bb3f051290565b60405163264e42cf60e01b815246600482015260240160405180910390fd5b606081620005eb4662000644565b84604051602001620006009392919062000b98565b604051602081830303815290604052905092915050565b606082620006254662000644565b620006308462000644565b604051602001620006009392919062000bfe565b606060006200065383620006dd565b60010190506000816001600160401b038111156200067557620006756200082e565b6040519080825280601f01601f191660200182016040528015620006a0576020820181803683370190505b5090508181016020015b600019016f181899199a1a9b1b9c1cb0b131b232b360811b600a86061a8153600a8504945084620006aa57509392505050565b6000807a184f03e93ff9f4daa797ed6e38ed64bf6a1f010000000000000000831062000727577a184f03e93ff9f4daa797ed6e38ed64bf6a1f010000000000000000830492506040015b6d04ee2d6d415b85acef8100000000831062000754576d04ee2d6d415b85acef8100000000830492506020015b662386f26fc1000083106200077357662386f26fc10000830492506010015b6305f5e10083106200078c576305f5e100830492506008015b6127108310620007a157612710830492506004015b60648310620007b4576064830492506002015b600a8310620007c1576001015b92915050565b82805482825590600052602060002090810192821562000805579160200282015b8281111562000805578251825591602001919060010190620007e8565b506200081392915062000817565b5090565b5b8082111562000813576000815560010162000818565b634e487b7160e01b600052604160045260246000fd5b600181811c908216806200085957607f821691505b6020821081036200087a57634e487b7160e01b600052602260045260246000fd5b50919050565b601f821115620008ce57600081815260208120601f850160051c81016020861015620008a95750805b601f850160051c820191505b81811015620008ca57828155600101620008b5565b5050505b505050565b81516001600160401b03811115620008ef57620008ef6200082e565b620009078162000900845462000844565b8462000880565b602080601f8311600181146200093f5760008415620009265750858301515b600019600386901b1c1916600185901b178555620008ca565b600085815260208120601f198616915b8281101562000970578886015182559484019460019091019084016200094f565b50858210156200098f5787850151600019600388901b60f8161c191681555b5050505050600190811b01905550565b60006040820160018060a01b0385168352602060408185015281855480845260608601915060059350606081851b8701016000888152848120815b8481101562000a7757605f198a8503018652828254620009fa8162000844565b8087526001828116801562000a18576001811462000a325762000a5f565b60ff198416898d01528215158d1b89018c01945062000a5f565b8688528b8820885b8481101562000a575781548b82018f0152908301908d0162000a3a565b8a018d019550505b50988a019892965050509190910190600101620009da565b50919a9950505050505050505050565b6000602080838503121562000a9b57600080fd5b82516001600160401b038082111562000ab357600080fd5b818501915085601f83011262000ac857600080fd5b81518181111562000add5762000add6200082e565b8060051b604051601f19603f8301168101818110858211171562000b055762000b056200082e565b60405291825284820192508381018501918883111562000b2457600080fd5b938501935b8285101562000b445784518452938501939285019262000b29565b98975050505050505050565b634e487b7160e01b600052603260045260246000fd5b6000815160005b8181101562000b89576020818501810151868301520162000b6d565b50600093019283525090919050565b6c021a922a0aa22902a20a126229609d1b8152600062000bbc600d83018662000b66565b605f60f81b815262000bd2600182018662000b66565b9050600560fb1b815262000bea600182018562000b66565b602960f81b81526001019695505050505050565b600062000c0c828662000b66565b605f60f81b80825262000c23600183018762000b66565b908152905062000c37600182018562000b66565b9695505050505050565b611c2f8062000c516000396000f3fe608060405234801561001057600080fd5b50600436106100a35760003560e01c806371671bf2116100765780639201de551161005b5780639201de551461018e5780639df41566146101a1578063f2fde38b146101b457600080fd5b806371671bf2146101465780638da5cb5b1461016657600080fd5b806306b8e51d146100a8578063150b7a02146100bd5780634b9293fd1461012b578063715018a61461013e575b600080fd5b6100bb6100b636600461121b565b6101c7565b005b6100f56100cb366004611247565b7f150b7a020000000000000000000000000000000000000000000000000000000095945050505050565b6040517fffffffff0000000000000000000000000000000000000000000000000000000090911681526020015b60405180910390f35b6100bb6101393660046112e2565b610302565b6100bb610466565b610159610154366004611317565b61047a565b604051610122919061139e565b60005460405173ffffffffffffffffffffffffffffffffffffffff9091168152602001610122565b61015961019c366004611317565b610526565b6100bb6101af36600461121b565b61074c565b6100bb6101c23660046113b1565b610843565b6101cf6108ff565b620186a060065460016101e291906113fb565b106101ef576101ef610980565b6102e660046000815481106102065761020661140e565b90600052602060002001546102e16040518060400160405280601081526020017f736368656d615f61747465737465727300000000000000000000000000000000815250600460008154811061025e5761025e61140e565b90600052602060002001546040518060400160405280601381526020017f736368656d615549442c206174746573746572000000000000000000000000008152506102b06102ab89610526565b610bd4565b6102bc6102ab89610bfd565b6040516020016102cd92919061143d565b604051602081830303815290604052610c26565b610c65565b6001600660008282546102f991906113fb565b90915550505050565b61030a6108ff565b61046260046002815481106103215761032161140e565b90600052602060002001546102e16040518060400160405280600b81526020017f736368656d615f696e666f00000000000000000000000000000000000000000081525060046002815481106103795761037961140e565b90600052602060002001546040518060400160405280601b81526020017f736368656d615549442c20656e637279707465642c2061646d696e00000000008152506103c66102ab89610526565b61044488610409576040518060400160405280600581526020017f66616c7365000000000000000000000000000000000000000000000000000000815250610bd4565b6040518060400160405280600481526020017f7472756500000000000000000000000000000000000000000000000000000000815250610bd4565b6104506102ab32610bfd565b6040516020016102cd93929190611495565b5050565b61046e6108ff565b6104786000610cf5565b565b6003818154811061048a57600080fd5b9060005260206000200160009150905080546104a59061150b565b80601f01602080910402602001604051908101604052809291908181526020018280546104d19061150b565b801561051e5780601f106104f35761010080835404028352916020019161051e565b820191906000526020600020905b81548152906001019060200180831161050157829003601f168201915b505050505081565b606060006105366020600261155e565b60ff1667ffffffffffffffff81111561055157610551611581565b6040519080825280601f01601f19166020018201604052801561057b576020820181803683370190505b5060408051808201909152601081527f3031323334353637383961626364656600000000000000000000000000000000602082015290915060005b6020811015610722578182518683602081106105d4576105d461140e565b6105e09291901a6115df565b815181106105f0576105f061140e565b01602001517fff0000000000000000000000000000000000000000000000000000000000000016836106238360026115f3565b815181106106335761063361140e565b60200101907effffffffffffffffffffffffffffffffffffffffffffffffffffffffffffff1916908160001a9053508182518683602081106106775761067761140e565b6106839291901a61160a565b815181106106935761069361140e565b01602001517fff0000000000000000000000000000000000000000000000000000000000000016836106c68360026115f3565b6106d19060016113fb565b815181106106e1576106e161140e565b60200101907effffffffffffffffffffffffffffffffffffffffffffffffffffffffffffff1916908160001a9053508061071a8161161e565b9150506105b6565b50816040516020016107349190611656565b60405160208183030381529060405292505050919050565b6107546108ff565b620186a0600754600161076791906113fb565b1061077457610774610980565b610830600460018154811061078b5761078b61140e565b90600052602060002001546102e16040518060400160405280600f81526020017f736368656d615f7265766f6b657273000000000000000000000000000000000081525060046001815481106107e3576107e361140e565b90600052602060002001546040518060400160405280601281526020017f736368656d615549442c207265766f6b657200000000000000000000000000008152506102b06102ab89610526565b6001600760008282546102f991906113fb565b61084b6108ff565b73ffffffffffffffffffffffffffffffffffffffff81166108f3576040517f08c379a000000000000000000000000000000000000000000000000000000000815260206004820152602660248201527f4f776e61626c653a206e6577206f776e657220697320746865207a65726f206160448201527f646472657373000000000000000000000000000000000000000000000000000060648201526084015b60405180910390fd5b6108fc81610cf5565b50565b60005473ffffffffffffffffffffffffffffffffffffffff163314610478576040517f08c379a000000000000000000000000000000000000000000000000000000000815260206004820181905260248201527f4f776e61626c653a2063616c6c6572206973206e6f7420746865206f776e657260448201526064016108ea565b6001546040517f61a23d0f00000000000000000000000000000000000000000000000000000000815273ffffffffffffffffffffffffffffffffffffffff909116906361a23d0f906109d990309060029060040161169b565b6000604051808303816000875af11580156109f8573d6000803e3d6000fd5b505050506040513d6000823e601f3d9081017fffffffffffffffffffffffffffffffffffffffffffffffffffffffffffffffe0168201604052610a3e91908101906117c3565b8051610a5291600491602090910190611192565b506003610ab26040518060400160405280601081526020017f736368656d615f617474657374657273000000000000000000000000000000008152506004600081548110610aa257610aa261140e565b9060005260206000200154610d6a565b81546001810183556000928352602090922090910190610ad290826118ea565b506003610b226040518060400160405280600f81526020017f736368656d615f7265766f6b65727300000000000000000000000000000000008152506004600181548110610aa257610aa261140e565b81546001810183556000928352602090922090910190610b4290826118ea565b506003610b926040518060400160405280600b81526020017f736368656d615f696e666f0000000000000000000000000000000000000000008152506004600281548110610aa257610aa261140e565b81546001810183556000928352602090922090910190610bb290826118ea565b506000600681905560078190556005805491610bcd8361161e565b9190505550565b606081604051602001610be79190611a04565b6040516020818303038152906040529050919050565b6060610c2073ffffffffffffffffffffffffffffffffffffffff83166014610da8565b92915050565b60606000610c348686610d6a565b9050808484604051602001610c4b93929190611a4e565b604051602081830303815290604052915050949350505050565b6001546040517f377af0da00000000000000000000000000000000000000000000000000000000815273ffffffffffffffffffffffffffffffffffffffff9091169063377af0da90610cbf90309086908690600401611b38565b600060405180830381600087803b158015610cd957600080fd5b505af1158015610ced573d6000803e3d6000fd5b505050505050565b6000805473ffffffffffffffffffffffffffffffffffffffff8381167fffffffffffffffffffffffff0000000000000000000000000000000000000000831681178455604051919092169283917f8be0079c531659141344cd1fd0a4f28419497f9722a3daafe3b4186f6b6457e09190a35050565b606082610d7646610ff2565b610d7f84610ff2565b604051602001610d9193929190611b76565b604051602081830303815290604052905092915050565b60606000610db78360026115f3565b610dc29060026113fb565b67ffffffffffffffff811115610dda57610dda611581565b6040519080825280601f01601f191660200182016040528015610e04576020820181803683370190505b5090507f300000000000000000000000000000000000000000000000000000000000000081600081518110610e3b57610e3b61140e565b60200101907effffffffffffffffffffffffffffffffffffffffffffffffffffffffffffff1916908160001a9053507f780000000000000000000000000000000000000000000000000000000000000081600181518110610e9e57610e9e61140e565b60200101907effffffffffffffffffffffffffffffffffffffffffffffffffffffffffffff1916908160001a9053506000610eda8460026115f3565b610ee59060016113fb565b90505b6001811115610f82577f303132333435363738396162636465660000000000000000000000000000000085600f1660108110610f2657610f2661140e565b1a60f81b828281518110610f3c57610f3c61140e565b60200101907effffffffffffffffffffffffffffffffffffffffffffffffffffffffffffff1916908160001a90535060049490941c93610f7b81611bc4565b9050610ee8565b508315610feb576040517f08c379a000000000000000000000000000000000000000000000000000000000815260206004820181905260248201527f537472696e67733a20686578206c656e67746820696e73756666696369656e7460448201526064016108ea565b9392505050565b60606000610fff836110b0565b600101905060008167ffffffffffffffff81111561101f5761101f611581565b6040519080825280601f01601f191660200182016040528015611049576020820181803683370190505b5090508181016020015b7fffffffffffffffffffffffffffffffffffffffffffffffffffffffffffffffff017f3031323334353637383961626364656600000000000000000000000000000000600a86061a8153600a850494508461105357509392505050565b6000807a184f03e93ff9f4daa797ed6e38ed64bf6a1f01000000000000000083106110f9577a184f03e93ff9f4daa797ed6e38ed64bf6a1f010000000000000000830492506040015b6d04ee2d6d415b85acef81000000008310611125576d04ee2d6d415b85acef8100000000830492506020015b662386f26fc10000831061114357662386f26fc10000830492506010015b6305f5e100831061115b576305f5e100830492506008015b612710831061116f57612710830492506004015b60648310611181576064830492506002015b600a8310610c205760010192915050565b8280548282559060005260206000209081019282156111cd579160200282015b828111156111cd5782518255916020019190600101906111b2565b506111d99291506111dd565b5090565b5b808211156111d957600081556001016111de565b803573ffffffffffffffffffffffffffffffffffffffff8116811461121657600080fd5b919050565b6000806040838503121561122e57600080fd5b8235915061123e602084016111f2565b90509250929050565b60008060008060006080868803121561125f57600080fd5b611268866111f2565b9450611276602087016111f2565b935060408601359250606086013567ffffffffffffffff8082111561129a57600080fd5b818801915088601f8301126112ae57600080fd5b8135818111156112bd57600080fd5b8960208285010111156112cf57600080fd5b9699959850939650602001949392505050565b600080604083850312156112f557600080fd5b823591506020830135801515811461130c57600080fd5b809150509250929050565b60006020828403121561132957600080fd5b5035919050565b60005b8381101561134b578181015183820152602001611333565b50506000910152565b6000815180845261136c816020860160208601611330565b601f017fffffffffffffffffffffffffffffffffffffffffffffffffffffffffffffffe0169290920160200192915050565b602081526000610feb6020830184611354565b6000602082840312156113c357600080fd5b610feb826111f2565b7f4e487b7100000000000000000000000000000000000000000000000000000000600052601160045260246000fd5b80820180821115610c2057610c206113cc565b7f4e487b7100000000000000000000000000000000000000000000000000000000600052603260045260246000fd5b6000835161144f818460208801611330565b7f2c000000000000000000000000000000000000000000000000000000000000009083019081528351611489816001840160208801611330565b01600101949350505050565b600084516114a7818460208901611330565b80830190507f2c0000000000000000000000000000000000000000000000000000000000000080825285516114e3816001850160208a01611330565b600192019182015283516114fe816002840160208801611330565b0160020195945050505050565b600181811c9082168061151f57607f821691505b602082108103611558577f4e487b7100000000000000000000000000000000000000000000000000000000600052602260045260246000fd5b50919050565b60ff818116838216029081169081811461157a5761157a6113cc565b5092915050565b7f4e487b7100000000000000000000000000000000000000000000000000000000600052604160045260246000fd5b7f4e487b7100000000000000000000000000000000000000000000000000000000600052601260045260246000fd5b6000826115ee576115ee6115b0565b500490565b8082028115828204841417610c2057610c206113cc565b600082611619576116196115b0565b500690565b60007fffffffffffffffffffffffffffffffffffffffffffffffffffffffffffffffff820361164f5761164f6113cc565b5060010190565b7f307800000000000000000000000000000000000000000000000000000000000081526000825161168e816002850160208701611330565b9190910160020192915050565b60006040820173ffffffffffffffffffffffffffffffffffffffff85168352602060408185015281855480845260608601915060059350606081851b8701016000888152848120815b848110156117b3577fffffffffffffffffffffffffffffffffffffffffffffffffffffffffffffffa08a850301865282825461171f8161150b565b8087526001828116801561173a57600181146117715761179c565b7fffffffffffffffffffffffffffffffffffffffffffffffffffffffffffffff0084168c8a01528b8315158e1b8a0101945061179c565b8688528b8820885b848110156117945781548b82018f0152908301908d01611779565b8a018d019550505b50988a0198929650505091909101906001016116e4565b50919a9950505050505050505050565b600060208083850312156117d657600080fd5b825167ffffffffffffffff808211156117ee57600080fd5b818501915085601f83011261180257600080fd5b81518181111561181457611814611581565b8060051b6040517fffffffffffffffffffffffffffffffffffffffffffffffffffffffffffffffe0603f8301168101818110858211171561185757611857611581565b60405291825284820192508381018501918883111561187557600080fd5b938501935b828510156118935784518452938501939285019261187a565b98975050505050505050565b601f8211156118e557600081815260208120601f850160051c810160208610156118c65750805b601f850160051c820191505b81811015610ced578281556001016118d2565b505050565b815167ffffffffffffffff81111561190457611904611581565b61191881611912845461150b565b8461189f565b602080601f83116001811461196b57600084156119355750858301515b7fffffffffffffffffffffffffffffffffffffffffffffffffffffffffffffffff600386901b1c1916600185901b178555610ced565b6000858152602081207fffffffffffffffffffffffffffffffffffffffffffffffffffffffffffffffe08616915b828110156119b857888601518255948401946001909101908401611999565b50858210156119f457878501517fffffffffffffffffffffffffffffffffffffffffffffffffffffffffffffffff600388901b60f8161c191681555b5050505050600190811b01905550565b60007f27000000000000000000000000000000000000000000000000000000000000008083528351611a3d816001860160208801611330565b600193019283015250600201919050565b7f494e5345525420494e544f200000000000000000000000000000000000000000815260008451611a8681600c850160208901611330565b7f2800000000000000000000000000000000000000000000000000000000000000600c918401918201528451611ac381600d840160208901611330565b7f2956414c55455328000000000000000000000000000000000000000000000000600d92909101918201528351611b01816015840160208801611330565b7f29000000000000000000000000000000000000000000000000000000000000006015929091019182015260160195945050505050565b73ffffffffffffffffffffffffffffffffffffffff84168152826020820152606060408201526000611b6d6060830184611354565b95945050505050565b60008451611b88818460208901611330565b80830190507f5f0000000000000000000000000000000000000000000000000000000000000080825285516114e3816001850160208a01611330565b600081611bd357611bd36113cc565b507fffffffffffffffffffffffffffffffffffffffffffffffffffffffffffffffff019056fea26469706673582212203407cd5d0bfda3da08bb45409f6b309a609818034e3077f789fb3fdc0df7667c64736f6c63430008130033736368656d6155494420746578742c20656e6372797074656420746578742c2061646d696e2074657874",
  "devdoc": {
    "kind": "dev",
    "methods": {
      "owner()": {
        "details": "Returns the address of the current owner."
      },
      "renounceOwnership()": {
        "details": "Leaves the contract without owner. It will not be possible to call `onlyOwner` functions. Can only be called by the current owner. NOTE: Renouncing ownership will leave the contract without an owner, thereby disabling any functionality that is only available to the owner."
      },
      "transferOwnership(address)": {
        "details": "Transfers ownership of the contract to a new account (`newOwner`). Can only be called by the current owner."
      }
    },
    "version": 1
  },
  "userdoc": {
    "errors": {
      "ChainNotSupported(uint256)": [
        {
          "notice": "Current chain does not have a TablelandTables deployment."
        }
      ]
    },
    "kind": "user",
    "methods": {},
    "version": 1
  },
  "storageLayout": {
    "storage": [
      {
        "astId": 396,
        "contract": "contracts/tablelandIndexers/ACResolverIndexer.sol:ACResolverIndexer",
        "label": "_owner",
        "offset": 0,
        "slot": "0",
        "type": "t_address"
      },
      {
        "astId": 10652,
        "contract": "contracts/tablelandIndexers/ACResolverIndexer.sol:ACResolverIndexer",
        "label": "tablelandContract",
        "offset": 0,
        "slot": "1",
        "type": "t_contract(ITablelandTables)4963"
      },
      {
        "astId": 10655,
        "contract": "contracts/tablelandIndexers/ACResolverIndexer.sol:ACResolverIndexer",
        "label": "createTableStatements",
        "offset": 0,
        "slot": "2",
        "type": "t_array(t_string_storage)dyn_storage"
      },
      {
        "astId": 10658,
        "contract": "contracts/tablelandIndexers/ACResolverIndexer.sol:ACResolverIndexer",
        "label": "tables",
        "offset": 0,
        "slot": "3",
        "type": "t_array(t_string_storage)dyn_storage"
      },
      {
        "astId": 10661,
        "contract": "contracts/tablelandIndexers/ACResolverIndexer.sol:ACResolverIndexer",
        "label": "tableIDs",
        "offset": 0,
        "slot": "4",
        "type": "t_array(t_uint256)dyn_storage"
      },
      {
        "astId": 10663,
        "contract": "contracts/tablelandIndexers/ACResolverIndexer.sol:ACResolverIndexer",
        "label": "tablesUpdates",
        "offset": 0,
        "slot": "5",
        "type": "t_uint256"
      },
      {
        "astId": 10665,
        "contract": "contracts/tablelandIndexers/ACResolverIndexer.sol:ACResolverIndexer",
        "label": "attesterRowsCounter",
        "offset": 0,
        "slot": "6",
        "type": "t_uint256"
      },
      {
        "astId": 10667,
        "contract": "contracts/tablelandIndexers/ACResolverIndexer.sol:ACResolverIndexer",
        "label": "revokerRowsCounter",
        "offset": 0,
        "slot": "7",
        "type": "t_uint256"
      }
    ],
    "types": {
      "t_address": {
        "encoding": "inplace",
        "label": "address",
        "numberOfBytes": "20"
      },
      "t_array(t_string_storage)dyn_storage": {
        "base": "t_string_storage",
        "encoding": "dynamic_array",
        "label": "string[]",
        "numberOfBytes": "32"
      },
      "t_array(t_uint256)dyn_storage": {
        "base": "t_uint256",
        "encoding": "dynamic_array",
        "label": "uint256[]",
        "numberOfBytes": "32"
      },
      "t_contract(ITablelandTables)4963": {
        "encoding": "inplace",
        "label": "contract ITablelandTables",
        "numberOfBytes": "20"
      },
      "t_string_storage": {
        "encoding": "bytes",
        "label": "string",
        "numberOfBytes": "32"
      },
      "t_uint256": {
        "encoding": "inplace",
        "label": "uint256",
        "numberOfBytes": "32"
      }
    }
  }
}