{
  "address": "0x4F688a46Da268C37c169Ed10444EdD6BF074eFA3",
  "abi": [
    {
      "inputs": [
        {
          "internalType": "contract ITAS",
          "name": "tas",
          "type": "address"
        },
        {
          "internalType": "address",
          "name": "_splitterFactory",
          "type": "address"
        },
        {
          "internalType": "contract ISchemaRegistry",
          "name": "_schemaRegistry",
          "type": "address"
        },
        {
          "internalType": "contract IACResolverIndexer",
          "name": "_tableland",
          "type": "address"
        }
      ],
      "stateMutability": "nonpayable",
      "type": "constructor"
    },
    {
      "inputs": [],
      "name": "AccessDenied",
      "type": "error"
    },
    {
      "inputs": [],
      "name": "InsufficientValue",
      "type": "error"
    },
    {
      "inputs": [],
      "name": "InvalidLength",
      "type": "error"
    },
    {
      "inputs": [],
      "name": "InvalidTAS",
      "type": "error"
    },
    {
      "inputs": [],
      "name": "NotPayable",
      "type": "error"
    },
    {
      "anonymous": false,
      "inputs": [
        {
          "indexed": true,
          "internalType": "bytes32",
          "name": "role",
          "type": "bytes32"
        },
        {
          "indexed": true,
          "internalType": "bytes32",
          "name": "previousAdminRole",
          "type": "bytes32"
        },
        {
          "indexed": true,
          "internalType": "bytes32",
          "name": "newAdminRole",
          "type": "bytes32"
        }
      ],
      "name": "RoleAdminChanged",
      "type": "event"
    },
    {
      "anonymous": false,
      "inputs": [
        {
          "indexed": true,
          "internalType": "bytes32",
          "name": "role",
          "type": "bytes32"
        },
        {
          "indexed": true,
          "internalType": "address",
          "name": "account",
          "type": "address"
        },
        {
          "indexed": true,
          "internalType": "address",
          "name": "sender",
          "type": "address"
        }
      ],
      "name": "RoleGranted",
      "type": "event"
    },
    {
      "anonymous": false,
      "inputs": [
        {
          "indexed": true,
          "internalType": "bytes32",
          "name": "role",
          "type": "bytes32"
        },
        {
          "indexed": true,
          "internalType": "address",
          "name": "account",
          "type": "address"
        },
        {
          "indexed": true,
          "internalType": "address",
          "name": "sender",
          "type": "address"
        }
      ],
      "name": "RoleRevoked",
      "type": "event"
    },
    {
      "inputs": [
        {
          "internalType": "address[]",
          "name": "attesters",
          "type": "address[]"
        },
        {
          "internalType": "address[]",
          "name": "revokers",
          "type": "address[]"
        },
        {
          "internalType": "string[]",
          "name": "categories",
          "type": "string[]"
        },
        {
          "internalType": "bool",
          "name": "encrypted",
          "type": "bool"
        },
        {
          "internalType": "string",
          "name": "schema",
          "type": "string"
        },
        {
          "internalType": "string",
          "name": "schemaName",
          "type": "string"
        },
        {
          "internalType": "string",
          "name": "schemaDescription",
          "type": "string"
        }
      ],
      "name": "ACSchemaRegistered",
      "outputs": [],
      "stateMutability": "nonpayable",
      "type": "function"
    },
    {
      "inputs": [],
      "name": "DEFAULT_ADMIN_ROLE",
      "outputs": [
        {
          "internalType": "bytes32",
          "name": "",
          "type": "bytes32"
        }
      ],
      "stateMutability": "view",
      "type": "function"
    },
    {
      "inputs": [
        {
          "internalType": "bytes32",
          "name": "schemaUID",
          "type": "bytes32"
        },
        {
          "internalType": "address",
          "name": "newAttester",
          "type": "address"
        }
      ],
      "name": "addAttester",
      "outputs": [],
      "stateMutability": "nonpayable",
      "type": "function"
    },
    {
      "inputs": [
        {
          "internalType": "bytes32",
          "name": "schemaUID",
          "type": "bytes32"
        },
        {
          "internalType": "address",
          "name": "newRevoker",
          "type": "address"
        }
      ],
      "name": "addRevoker",
      "outputs": [],
      "stateMutability": "nonpayable",
      "type": "function"
    },
    {
      "inputs": [
        {
          "components": [
            {
              "internalType": "bytes32",
              "name": "uid",
              "type": "bytes32"
            },
            {
              "internalType": "bytes32",
              "name": "schema",
              "type": "bytes32"
            },
            {
              "internalType": "uint64",
              "name": "time",
              "type": "uint64"
            },
            {
              "internalType": "uint64",
              "name": "expirationTime",
              "type": "uint64"
            },
            {
              "internalType": "uint64",
              "name": "revocationTime",
              "type": "uint64"
            },
            {
              "internalType": "bytes32",
              "name": "refUID",
              "type": "bytes32"
            },
            {
              "internalType": "address",
              "name": "recipient",
              "type": "address"
            },
            {
              "internalType": "address",
              "name": "attester",
              "type": "address"
            },
            {
              "internalType": "bool",
              "name": "revocable",
              "type": "bool"
            },
            {
              "internalType": "bytes",
              "name": "data",
              "type": "bytes"
            }
          ],
          "internalType": "struct Attestation",
          "name": "attestation",
          "type": "tuple"
        }
      ],
      "name": "attest",
      "outputs": [
        {
          "internalType": "bool",
          "name": "",
          "type": "bool"
        }
      ],
      "stateMutability": "payable",
      "type": "function"
    },
    {
      "inputs": [
        {
          "internalType": "bytes32",
          "name": "role",
          "type": "bytes32"
        }
      ],
      "name": "getRoleAdmin",
      "outputs": [
        {
          "internalType": "bytes32",
          "name": "",
          "type": "bytes32"
        }
      ],
      "stateMutability": "view",
      "type": "function"
    },
    {
      "inputs": [
        {
          "internalType": "bytes32",
          "name": "role",
          "type": "bytes32"
        },
        {
          "internalType": "address",
          "name": "account",
          "type": "address"
        }
      ],
      "name": "grantRole",
      "outputs": [],
      "stateMutability": "nonpayable",
      "type": "function"
    },
    {
      "inputs": [
        {
          "internalType": "address",
          "name": "sender",
          "type": "address"
        },
        {
          "internalType": "bytes32",
          "name": "schemaUID",
          "type": "bytes32"
        }
      ],
      "name": "hasAcccess",
      "outputs": [
        {
          "internalType": "bool",
          "name": "",
          "type": "bool"
        }
      ],
      "stateMutability": "view",
      "type": "function"
    },
    {
      "inputs": [
        {
          "internalType": "bytes32",
          "name": "role",
          "type": "bytes32"
        },
        {
          "internalType": "address",
          "name": "account",
          "type": "address"
        }
      ],
      "name": "hasRole",
      "outputs": [
        {
          "internalType": "bool",
          "name": "",
          "type": "bool"
        }
      ],
      "stateMutability": "view",
      "type": "function"
    },
    {
      "inputs": [],
      "name": "isPayable",
      "outputs": [
        {
          "internalType": "bool",
          "name": "",
          "type": "bool"
        }
      ],
      "stateMutability": "pure",
      "type": "function"
    },
    {
      "inputs": [
        {
          "components": [
            {
              "internalType": "bytes32",
              "name": "uid",
              "type": "bytes32"
            },
            {
              "internalType": "bytes32",
              "name": "schema",
              "type": "bytes32"
            },
            {
              "internalType": "uint64",
              "name": "time",
              "type": "uint64"
            },
            {
              "internalType": "uint64",
              "name": "expirationTime",
              "type": "uint64"
            },
            {
              "internalType": "uint64",
              "name": "revocationTime",
              "type": "uint64"
            },
            {
              "internalType": "bytes32",
              "name": "refUID",
              "type": "bytes32"
            },
            {
              "internalType": "address",
              "name": "recipient",
              "type": "address"
            },
            {
              "internalType": "address",
              "name": "attester",
              "type": "address"
            },
            {
              "internalType": "bool",
              "name": "revocable",
              "type": "bool"
            },
            {
              "internalType": "bytes",
              "name": "data",
              "type": "bytes"
            }
          ],
          "internalType": "struct Attestation[]",
          "name": "attestations",
          "type": "tuple[]"
        },
        {
          "internalType": "uint256[]",
          "name": "values",
          "type": "uint256[]"
        }
      ],
      "name": "multiAttest",
      "outputs": [
        {
          "internalType": "bool",
          "name": "",
          "type": "bool"
        }
      ],
      "stateMutability": "payable",
      "type": "function"
    },
    {
      "inputs": [
        {
          "components": [
            {
              "internalType": "bytes32",
              "name": "uid",
              "type": "bytes32"
            },
            {
              "internalType": "bytes32",
              "name": "schema",
              "type": "bytes32"
            },
            {
              "internalType": "uint64",
              "name": "time",
              "type": "uint64"
            },
            {
              "internalType": "uint64",
              "name": "expirationTime",
              "type": "uint64"
            },
            {
              "internalType": "uint64",
              "name": "revocationTime",
              "type": "uint64"
            },
            {
              "internalType": "bytes32",
              "name": "refUID",
              "type": "bytes32"
            },
            {
              "internalType": "address",
              "name": "recipient",
              "type": "address"
            },
            {
              "internalType": "address",
              "name": "attester",
              "type": "address"
            },
            {
              "internalType": "bool",
              "name": "revocable",
              "type": "bool"
            },
            {
              "internalType": "bytes",
              "name": "data",
              "type": "bytes"
            }
          ],
          "internalType": "struct Attestation[]",
          "name": "attestations",
          "type": "tuple[]"
        },
        {
          "internalType": "uint256[]",
          "name": "values",
          "type": "uint256[]"
        }
      ],
      "name": "multiRevoke",
      "outputs": [
        {
          "internalType": "bool",
          "name": "",
          "type": "bool"
        }
      ],
      "stateMutability": "payable",
      "type": "function"
    },
    {
      "inputs": [
        {
          "internalType": "bytes32",
          "name": "schemaUID",
          "type": "bytes32"
        },
        {
          "internalType": "address",
          "name": "newAttester",
          "type": "address"
        }
      ],
      "name": "removeAttester",
      "outputs": [],
      "stateMutability": "nonpayable",
      "type": "function"
    },
    {
      "inputs": [
        {
          "internalType": "bytes32",
          "name": "schemaUID",
          "type": "bytes32"
        },
        {
          "internalType": "address",
          "name": "newRevoker",
          "type": "address"
        }
      ],
      "name": "removeRevoker",
      "outputs": [],
      "stateMutability": "nonpayable",
      "type": "function"
    },
    {
      "inputs": [
        {
          "internalType": "bytes32",
          "name": "role",
          "type": "bytes32"
        },
        {
          "internalType": "address",
          "name": "account",
          "type": "address"
        }
      ],
      "name": "renounceRole",
      "outputs": [],
      "stateMutability": "nonpayable",
      "type": "function"
    },
    {
      "inputs": [
        {
          "components": [
            {
              "internalType": "bytes32",
              "name": "uid",
              "type": "bytes32"
            },
            {
              "internalType": "bytes32",
              "name": "schema",
              "type": "bytes32"
            },
            {
              "internalType": "uint64",
              "name": "time",
              "type": "uint64"
            },
            {
              "internalType": "uint64",
              "name": "expirationTime",
              "type": "uint64"
            },
            {
              "internalType": "uint64",
              "name": "revocationTime",
              "type": "uint64"
            },
            {
              "internalType": "bytes32",
              "name": "refUID",
              "type": "bytes32"
            },
            {
              "internalType": "address",
              "name": "recipient",
              "type": "address"
            },
            {
              "internalType": "address",
              "name": "attester",
              "type": "address"
            },
            {
              "internalType": "bool",
              "name": "revocable",
              "type": "bool"
            },
            {
              "internalType": "bytes",
              "name": "data",
              "type": "bytes"
            }
          ],
          "internalType": "struct Attestation",
          "name": "attestation",
          "type": "tuple"
        }
      ],
      "name": "revoke",
      "outputs": [
        {
          "internalType": "bool",
          "name": "",
          "type": "bool"
        }
      ],
      "stateMutability": "payable",
      "type": "function"
    },
    {
      "inputs": [
        {
          "internalType": "bytes32",
          "name": "role",
          "type": "bytes32"
        },
        {
          "internalType": "address",
          "name": "account",
          "type": "address"
        }
      ],
      "name": "revokeRole",
      "outputs": [],
      "stateMutability": "nonpayable",
      "type": "function"
    },
    {
      "inputs": [],
      "name": "splitterFactory",
      "outputs": [
        {
          "internalType": "address",
          "name": "",
          "type": "address"
        }
      ],
      "stateMutability": "view",
      "type": "function"
    },
    {
      "inputs": [
        {
          "internalType": "bytes4",
          "name": "interfaceId",
          "type": "bytes4"
        }
      ],
      "name": "supportsInterface",
      "outputs": [
        {
          "internalType": "bool",
          "name": "",
          "type": "bool"
        }
      ],
      "stateMutability": "view",
      "type": "function"
    },
    {
      "inputs": [],
      "name": "version",
      "outputs": [
        {
          "internalType": "string",
          "name": "",
          "type": "string"
        }
      ],
      "stateMutability": "view",
      "type": "function"
    },
    {
      "stateMutability": "payable",
      "type": "receive"
    }
  ],
  "transactionHash": "0x9d638e3b3988dd2ecadac2d98b02ac72a7be52103140e648494fcd003a7e8826",
  "args": [
    "0xa6058e210A3C8DcA17162ee69E3E9A2732F4FedC",
    "0xb5F20Edd2bE4C37a473001b65d5d84D3AB713684",
    "0x400BEE4816ab2BcAF6968606F3e5d2b15Cf88aca",
    "0xc0786A747cCc1623e4d164D7027d36a24C1293a2"
  ],
  "numDeployments": 2,
  "solcInputHash": "d31e9c73c386cbc44453233e1ac13d42",
  "bytecode": "0x610100604052600480546001600160a01b031916301790553480156200002457600080fd5b5060405162002660380380620026608339810160408190526200004791620000e1565b6000608081905260a052600160c052836001600160a01b0381166200007f5760405163120d8e6b60e21b815260040160405180910390fd5b6001600160a01b0390811660e052600180549382166001600160a01b03199485161790556002805494821694841694909417909355600580549190931691161790555062000149565b6001600160a01b0381168114620000de57600080fd5b50565b60008060008060808587031215620000f857600080fd5b84516200010581620000c8565b60208601519094506200011881620000c8565b60408601519093506200012b81620000c8565b60608601519092506200013e81620000c8565b939692955090935050565b60805160a05160c05160e0516124dd62000183600039600061161301526000610b0001526000610ad701526000610aae01526124dd6000f3fe6080604052600436106101635760003560e01c806388e5b2d9116100c0578063ce46e04611610074578063e49617e111610059578063e49617e114610428578063e60c35051461043b578063ea0597cd1461044e57600080fd5b8063ce46e046146103f4578063d547741f1461040857600080fd5b806391db0b7e116100a557806391db0b7e146103ac578063a217fddf146103bf578063b75b680b146103d457600080fd5b806388e5b2d91461034857806391d148541461035b57600080fd5b806336568abe116101175780633c7ab95c116100fc5780633c7ab95c146102b457806354fd4d50146102d45780635608d9e5146102f657600080fd5b806336568abe146102745780633b0adc291461029457600080fd5b8063243fc55f11610148578063243fc55f146101f6578063248a9ca3146102165780632f2ff15d1461025457600080fd5b806301ffc9a7146101a15780630fa66081146101d657600080fd5b3661019c576040517f1574f9f300000000000000000000000000000000000000000000000000000000815260040160405180910390fd5b005b600080fd5b3480156101ad57600080fd5b506101c16101bc366004611c1a565b61046e565b60405190151581526020015b60405180910390f35b3480156101e257600080fd5b5061019a6101f1366004611e76565b610507565b34801561020257600080fd5b5061019a610211366004611f7d565b610677565b34801561022257600080fd5b50610246610231366004611fa9565b60009081526020819052604090206001015490565b6040519081526020016101cd565b34801561026057600080fd5b5061019a61026f366004611f7d565b610798565b34801561028057600080fd5b5061019a61028f366004611f7d565b6107bd565b3480156102a057600080fd5b5061019a6102af366004611f7d565b610875565b3480156102c057600080fd5b5061019a6102cf366004611f7d565b61098b565b3480156102e057600080fd5b506102e9610aa7565b6040516101cd9190612012565b34801561030257600080fd5b506002546103239073ffffffffffffffffffffffffffffffffffffffff1681565b60405173ffffffffffffffffffffffffffffffffffffffff90911681526020016101cd565b6101c1610356366004612071565b610b4a565b34801561036757600080fd5b506101c1610376366004611f7d565b60009182526020828152604080842073ffffffffffffffffffffffffffffffffffffffff93909316845291905290205460ff1690565b6101c16103ba366004612071565b610c4b565b3480156103cb57600080fd5b50610246600081565b3480156103e057600080fd5b506101c16103ef3660046120dd565b610d3c565b34801561040057600080fd5b5060006101c1565b34801561041457600080fd5b5061019a610423366004611f7d565b610e86565b6101c1610436366004612107565b610eab565b6101c1610449366004612107565b610ec4565b34801561045a57600080fd5b5061019a610469366004611f7d565b610ed8565b60007fffffffff0000000000000000000000000000000000000000000000000000000082167f7965db0b00000000000000000000000000000000000000000000000000000000148061050157507f01ffc9a7000000000000000000000000000000000000000000000000000000007fffffffff000000000000000000000000000000000000000000000000000000008316145b92915050565b600180546040805160c08101825286815260208101869052808201859052606081018990526004805473ffffffffffffffffffffffffffffffffffffffff908116608084015260a083019590955291517f61a4434c000000000000000000000000000000000000000000000000000000008152600094909316926361a4434c92610592929101612143565b6020604051808303816000875af11580156105b1573d6000803e3d6000fd5b505050506040513d601f19601f820116820180604052508101906105d59190612230565b8851909150600081900361061b57600082815260036020526040902080547fffffffffffffffffffffffffffffffffffffffffffffffffffffffffffffff001660011790555b8751600081900361065f57600083815260036020526040902080547fffffffffffffffffffffffffffffffffffffffffffffffffffffffffffff00ff166101001790555b61066b838b8b8a610fee565b50505050505050505050565b6106b6826040518060400160405280600581526020017f41444d494e000000000000000000000000000000000000000000000000000000815250611356565b6106bf81611389565b6005546040517f06b8e51d0000000000000000000000000000000000000000000000000000000081526004810185905273ffffffffffffffffffffffffffffffffffffffff8481166024830152909116906306b8e51d90604401600060405180830381600087803b15801561073357600080fd5b505af1158015610747573d6000803e3d6000fd5b5050505061079361078d846040518060400160405280600881526020017f4154544553544552000000000000000000000000000000000000000000000000815250611356565b83611396565b505050565b6000828152602081905260409020600101546107b381611389565b610793838361144d565b73ffffffffffffffffffffffffffffffffffffffff81163314610867576040517f08c379a000000000000000000000000000000000000000000000000000000000815260206004820152602f60248201527f416363657373436f6e74726f6c3a2063616e206f6e6c792072656e6f756e636560448201527f20726f6c657320666f722073656c66000000000000000000000000000000000060648201526084015b60405180910390fd5b6108718282611396565b5050565b6108b4826040518060400160405280600581526020017f41444d494e000000000000000000000000000000000000000000000000000000815250611356565b6108bd81611389565b6005546040517f9df415660000000000000000000000000000000000000000000000000000000081526004810185905273ffffffffffffffffffffffffffffffffffffffff848116602483015290911690639df4156690604401600060405180830381600087803b15801561093157600080fd5b505af1158015610945573d6000803e3d6000fd5b5050505061079361078d846040518060400160405280600781526020017f5245564f4b455200000000000000000000000000000000000000000000000000815250611356565b6109ca826040518060400160405280600581526020017f41444d494e000000000000000000000000000000000000000000000000000000815250611356565b6109d381611389565b6005546040517f06b8e51d0000000000000000000000000000000000000000000000000000000081526004810185905273ffffffffffffffffffffffffffffffffffffffff8481166024830152909116906306b8e51d90604401600060405180830381600087803b158015610a4757600080fd5b505af1158015610a5b573d6000803e3d6000fd5b50505050610793610aa1846040518060400160405280600881526020017f4154544553544552000000000000000000000000000000000000000000000000815250611356565b8361144d565b6060610ad27f000000000000000000000000000000000000000000000000000000000000000061153d565b610afb7f000000000000000000000000000000000000000000000000000000000000000061153d565b610b247f000000000000000000000000000000000000000000000000000000000000000061153d565b604051602001610b3693929190612249565b604051602081830303815290604052905090565b6000610b546115fb565b83828114610b8e576040517f947d5a8400000000000000000000000000000000000000000000000000000000815260040160405180910390fd5b3460005b82811015610c3b576000868683818110610bae57610bae6122bf565b90506020020135905082811115610bf1576040517f1101129400000000000000000000000000000000000000000000000000000000815260040160405180910390fd5b610c1e898984818110610c0657610c066122bf565b9050602002810190610c1891906122ee565b8261166c565b610c2f576000945050505050610c43565b90910390600101610b92565b506001925050505b949350505050565b6000610c556115fb565b83828114610c8f576040517f947d5a8400000000000000000000000000000000000000000000000000000000815260040160405180910390fd5b3460005b82811015610c3b576000868683818110610caf57610caf6122bf565b90506020020135905082811115610cf2576040517f1101129400000000000000000000000000000000000000000000000000000000815260040160405180910390fd5b610d1f898984818110610d0757610d076122bf565b9050602002810190610d1991906122ee565b82611711565b610d30576000945050505050610c43565b90910390600101610c93565b6000610db4610d80836040518060400160405280600781526020017f5245564f4b455200000000000000000000000000000000000000000000000000815250611356565b60009081526020818152604080832073ffffffffffffffffffffffffffffffffffffffff8816845290915290205460ff1690565b80610e4d5750610e4d82604051602001610e059181526040602082018190526008908201527f4154544553544552000000000000000000000000000000000000000000000000606082015260800190565b60408051601f198184030181529181528151602092830120600090815280835281812073ffffffffffffffffffffffffffffffffffffffff8816825290925290205460ff1690565b15610e5a57506001610501565b60008281526003602052604090205462010000900460ff16610e7e57506001610501565b506000610501565b600082815260208190526040902060010154610ea181611389565b6107938383611396565b6000610eb56115fb565b610501823461166c565b919050565b6000610ece6115fb565b6105018234611711565b610f17826040518060400160405280600581526020017f41444d494e000000000000000000000000000000000000000000000000000000815250611356565b610f2081611389565b6005546040517f9df415660000000000000000000000000000000000000000000000000000000081526004810185905273ffffffffffffffffffffffffffffffffffffffff848116602483015290911690639df4156690604401600060405180830381600087803b158015610f9457600080fd5b505af1158015610fa8573d6000803e3d6000fd5b50505050610793610aa1846040518060400160405280600781526020017f5245564f4b455200000000000000000000000000000000000000000000000000815250611356565b60008481526003602090815260409182902080547fffffffffffffffffffffffffffffffffffffffffffffffffffffffffff00ffff1662010000851515021790558151808301909252600582527f41444d494e000000000000000000000000000000000000000000000000000000908201526110759061106f908690611356565b3261144d565b6005546040517f4b9293fd00000000000000000000000000000000000000000000000000000000815260048101869052821515602482015273ffffffffffffffffffffffffffffffffffffffff90911690634b9293fd90604401600060405180830381600087803b1580156110e957600080fd5b505af11580156110fd573d6000803e3d6000fd5b5050505060005b835181101561122e57600554845173ffffffffffffffffffffffffffffffffffffffff909116906306b8e51d908790879085908110611145576111456122bf565b60200260200101516040518363ffffffff1660e01b815260040161118992919091825273ffffffffffffffffffffffffffffffffffffffff16602082015260400190565b600060405180830381600087803b1580156111a357600080fd5b505af11580156111b7573d6000803e3d6000fd5b5050505061121c6111fd866040518060400160405280600881526020017f4154544553544552000000000000000000000000000000000000000000000000815250611356565b85838151811061120f5761120f6122bf565b602002602001015161144d565b806112268161235b565b915050611104565b5060005b825181101561134f57600554835173ffffffffffffffffffffffffffffffffffffffff90911690639df41566908790869085908110611273576112736122bf565b60200260200101516040518363ffffffff1660e01b81526004016112b792919091825273ffffffffffffffffffffffffffffffffffffffff16602082015260400190565b600060405180830381600087803b1580156112d157600080fd5b505af11580156112e5573d6000803e3d6000fd5b5050505061133d61132b866040518060400160405280600781526020017f5245564f4b455200000000000000000000000000000000000000000000000000815250611356565b84838151811061120f5761120f6122bf565b806113478161235b565b915050611232565b5050505050565b6000828260405160200161136b929190612393565b60405160208183030381529060405280519060200120905092915050565b6113938133611835565b50565b60008281526020818152604080832073ffffffffffffffffffffffffffffffffffffffff8516845290915290205460ff16156108715760008281526020818152604080832073ffffffffffffffffffffffffffffffffffffffff8516808552925280832080547fffffffffffffffffffffffffffffffffffffffffffffffffffffffffffffff0016905551339285917ff6391f5c32d9c69d2a47ea670b442974b53935d1edc7fd64eb21e047a839171b9190a45050565b60008281526020818152604080832073ffffffffffffffffffffffffffffffffffffffff8516845290915290205460ff166108715760008281526020818152604080832073ffffffffffffffffffffffffffffffffffffffff85168452909152902080547fffffffffffffffffffffffffffffffffffffffffffffffffffffffffffffff001660011790556114df3390565b73ffffffffffffffffffffffffffffffffffffffff168173ffffffffffffffffffffffffffffffffffffffff16837f2f8788117e7eff1d82e926ec794901d17c78024a50270940304540a733656f0d60405160405180910390a45050565b6060600061154a836118cf565b600101905060008167ffffffffffffffff81111561156a5761156a611c5c565b6040519080825280601f01601f191660200182016040528015611594576020820181803683370190505b5090508181016020015b7fffffffffffffffffffffffffffffffffffffffffffffffffffffffffffffffff017f3031323334353637383961626364656600000000000000000000000000000000600a86061a8153600a850494508461159e57509392505050565b3373ffffffffffffffffffffffffffffffffffffffff7f0000000000000000000000000000000000000000000000000000000000000000161461166a576040517f4ca8886700000000000000000000000000000000000000000000000000000000815260040160405180910390fd5b565b602082810135600081815260039092526040822054610100900460ff1615611698576001915050610501565b6116f86116da826040518060400160405280600781526020017f5245564f4b455200000000000000000000000000000000000000000000000000815250611356565b60009081526020818152604080832032845290915290205460ff1690565b15611707576001915050610501565b5060009392505050565b600080611725610100850160e086016123ac565b602080860135600081815260039092526040909120549192509060ff161561175257600192505050610501565b6117c8611794826040518060400160405280600881526020017f4154544553544552000000000000000000000000000000000000000000000000815250611356565b60009081526020818152604080832073ffffffffffffffffffffffffffffffffffffffff8716845290915290205460ff1690565b156117d857600192505050610501565b61181a6116da826040518060400160405280600881526020017f4154544553544552000000000000000000000000000000000000000000000000815250611356565b1561182a57600192505050610501565b506000949350505050565b60008281526020818152604080832073ffffffffffffffffffffffffffffffffffffffff8516845290915290205460ff1661087157611873816119b1565b61187e8360206119d0565b60405160200161188f9291906123c7565b60408051601f19818403018152908290527f08c379a000000000000000000000000000000000000000000000000000000000825261085e91600401612012565b6000807a184f03e93ff9f4daa797ed6e38ed64bf6a1f0100000000000000008310611918577a184f03e93ff9f4daa797ed6e38ed64bf6a1f010000000000000000830492506040015b6d04ee2d6d415b85acef81000000008310611944576d04ee2d6d415b85acef8100000000830492506020015b662386f26fc10000831061196257662386f26fc10000830492506010015b6305f5e100831061197a576305f5e100830492506008015b612710831061198e57612710830492506004015b606483106119a0576064830492506002015b600a83106105015760010192915050565b606061050173ffffffffffffffffffffffffffffffffffffffff831660145b606060006119df836002612448565b6119ea90600261245f565b67ffffffffffffffff811115611a0257611a02611c5c565b6040519080825280601f01601f191660200182016040528015611a2c576020820181803683370190505b5090507f300000000000000000000000000000000000000000000000000000000000000081600081518110611a6357611a636122bf565b60200101907effffffffffffffffffffffffffffffffffffffffffffffffffffffffffffff1916908160001a9053507f780000000000000000000000000000000000000000000000000000000000000081600181518110611ac657611ac66122bf565b60200101907effffffffffffffffffffffffffffffffffffffffffffffffffffffffffffff1916908160001a9053506000611b02846002612448565b611b0d90600161245f565b90505b6001811115611baa577f303132333435363738396162636465660000000000000000000000000000000085600f1660108110611b4e57611b4e6122bf565b1a60f81b828281518110611b6457611b646122bf565b60200101907effffffffffffffffffffffffffffffffffffffffffffffffffffffffffffff1916908160001a90535060049490941c93611ba381612472565b9050611b10565b508315611c13576040517f08c379a000000000000000000000000000000000000000000000000000000000815260206004820181905260248201527f537472696e67733a20686578206c656e67746820696e73756666696369656e74604482015260640161085e565b9392505050565b600060208284031215611c2c57600080fd5b81357fffffffff0000000000000000000000000000000000000000000000000000000081168114611c1357600080fd5b7f4e487b7100000000000000000000000000000000000000000000000000000000600052604160045260246000fd5b604051601f8201601f1916810167ffffffffffffffff81118282101715611cb457611cb4611c5c565b604052919050565b600067ffffffffffffffff821115611cd657611cd6611c5c565b5060051b60200190565b803573ffffffffffffffffffffffffffffffffffffffff81168114610ebf57600080fd5b600082601f830112611d1557600080fd5b81356020611d2a611d2583611cbc565b611c8b565b82815260059290921b84018101918181019086841115611d4957600080fd5b8286015b84811015611d6b57611d5e81611ce0565b8352918301918301611d4d565b509695505050505050565b600082601f830112611d8757600080fd5b813567ffffffffffffffff811115611da157611da1611c5c565b611db46020601f19601f84011601611c8b565b818152846020838601011115611dc957600080fd5b816020850160208301376000918101602001919091529392505050565b600082601f830112611df757600080fd5b81356020611e07611d2583611cbc565b82815260059290921b84018101918181019086841115611e2657600080fd5b8286015b84811015611d6b57803567ffffffffffffffff811115611e4a5760008081fd5b611e588986838b0101611d76565b845250918301918301611e2a565b80358015158114610ebf57600080fd5b600080600080600080600060e0888a031215611e9157600080fd5b873567ffffffffffffffff80821115611ea957600080fd5b611eb58b838c01611d04565b985060208a0135915080821115611ecb57600080fd5b611ed78b838c01611d04565b975060408a0135915080821115611eed57600080fd5b611ef98b838c01611de6565b9650611f0760608b01611e66565b955060808a0135915080821115611f1d57600080fd5b611f298b838c01611d76565b945060a08a0135915080821115611f3f57600080fd5b611f4b8b838c01611d76565b935060c08a0135915080821115611f6157600080fd5b50611f6e8a828b01611d76565b91505092959891949750929550565b60008060408385031215611f9057600080fd5b82359150611fa060208401611ce0565b90509250929050565b600060208284031215611fbb57600080fd5b5035919050565b60005b83811015611fdd578181015183820152602001611fc5565b50506000910152565b60008151808452611ffe816020860160208601611fc2565b601f01601f19169290920160200192915050565b602081526000611c136020830184611fe6565b60008083601f84011261203757600080fd5b50813567ffffffffffffffff81111561204f57600080fd5b6020830191508360208260051b850101111561206a57600080fd5b9250929050565b6000806000806040858703121561208757600080fd5b843567ffffffffffffffff8082111561209f57600080fd5b6120ab88838901612025565b909650945060208701359150808211156120c457600080fd5b506120d187828801612025565b95989497509550505050565b600080604083850312156120f057600080fd5b6120f983611ce0565b946020939093013593505050565b60006020828403121561211957600080fd5b813567ffffffffffffffff81111561213057600080fd5b82016101408185031215611c1357600080fd5b60006020808352835160c08285015261215f60e0850182611fe6565b905081850151601f198086840301604087015261217c8383611fe6565b925060408701519150808684030160608701526121998383611fe6565b60608801518782038301608089015280518083529194508501925084840190600581901b8501860160005b828110156121f057848783030184526121de828751611fe6565b958801959388019391506001016121c4565b5060808a015173ffffffffffffffffffffffffffffffffffffffff811660a08b0152965060a08a015180151560c08b015296509998505050505050505050565b60006020828403121561224257600080fd5b5051919050565b6000845161225b818460208901611fc2565b80830190507f2e000000000000000000000000000000000000000000000000000000000000008082528551612297816001850160208a01611fc2565b600192019182015283516122b2816002840160208801611fc2565b0160020195945050505050565b7f4e487b7100000000000000000000000000000000000000000000000000000000600052603260045260246000fd5b600082357ffffffffffffffffffffffffffffffffffffffffffffffffffffffffffffffec183360301811261232257600080fd5b9190910192915050565b7f4e487b7100000000000000000000000000000000000000000000000000000000600052601160045260246000fd5b60007fffffffffffffffffffffffffffffffffffffffffffffffffffffffffffffffff820361238c5761238c61232c565b5060010190565b828152604060208201526000610c436040830184611fe6565b6000602082840312156123be57600080fd5b611c1382611ce0565b7f416363657373436f6e74726f6c3a206163636f756e74200000000000000000008152600083516123ff816017850160208801611fc2565b7f206973206d697373696e6720726f6c6520000000000000000000000000000000601791840191820152835161243c816028840160208801611fc2565b01602801949350505050565b80820281158282048414176105015761050161232c565b808201808211156105015761050161232c565b6000816124815761248161232c565b507fffffffffffffffffffffffffffffffffffffffffffffffffffffffffffffffff019056fea26469706673582212204d1936791ffafc5b4d3dd4846c4c9f551d7c914cded758c9073c8fa3598efde464736f6c63430008130033",
  "devdoc": {
    "events": {
      "RoleAdminChanged(bytes32,bytes32,bytes32)": {
        "details": "Emitted when `newAdminRole` is set as ``role``'s admin role, replacing `previousAdminRole` `DEFAULT_ADMIN_ROLE` is the starting admin for all roles, despite {RoleAdminChanged} not being emitted signaling this. _Available since v3.1._"
      },
      "RoleGranted(bytes32,address,address)": {
        "details": "Emitted when `account` is granted `role`. `sender` is the account that originated the contract call, an admin role bearer except when using {AccessControl-_setupRole}."
      },
      "RoleRevoked(bytes32,address,address)": {
        "details": "Emitted when `account` is revoked `role`. `sender` is the account that originated the contract call:   - if using `revokeRole`, it is the admin role bearer   - if using `renounceRole`, it is the role bearer (i.e. `account`)"
      }
    },
    "kind": "dev",
    "methods": {
      "attest((bytes32,bytes32,uint64,uint64,uint64,bytes32,address,address,bool,bytes))": {
        "params": {
          "attestation": "The new attestation."
        },
        "returns": {
          "_0": "Whether the attestation is valid."
        }
      },
      "getRoleAdmin(bytes32)": {
        "details": "Returns the admin role that controls `role`. See {grantRole} and {revokeRole}. To change a role's admin, use {_setRoleAdmin}."
      },
      "grantRole(bytes32,address)": {
        "details": "Grants `role` to `account`. If `account` had not been already granted `role`, emits a {RoleGranted} event. Requirements: - the caller must have ``role``'s admin role. May emit a {RoleGranted} event."
      },
      "hasRole(bytes32,address)": {
        "details": "Returns `true` if `account` has been granted `role`."
      },
      "isPayable()": {
        "returns": {
          "_0": "True, indicating that the contract can accept payments."
        }
      },
      "multiAttest((bytes32,bytes32,uint64,uint64,uint64,bytes32,address,address,bool,bytes)[],uint256[])": {
        "params": {
          "attestations": "The new attestations.",
          "values": "Explicit ETH amounts which were sent with each attestation."
        },
        "returns": {
          "_0": "Whether all the attestations are valid."
        }
      },
      "multiRevoke((bytes32,bytes32,uint64,uint64,uint64,bytes32,address,address,bool,bytes)[],uint256[])": {
        "params": {
          "attestations": "The existing attestations to be revoked.",
          "values": "Explicit ETH amounts which were sent with each revocation."
        },
        "returns": {
          "_0": "Whether the attestations can be revoked."
        }
      },
      "renounceRole(bytes32,address)": {
        "details": "Revokes `role` from the calling account. Roles are often managed via {grantRole} and {revokeRole}: this function's purpose is to provide a mechanism for accounts to lose their privileges if they are compromised (such as when a trusted device is misplaced). If the calling account had been revoked `role`, emits a {RoleRevoked} event. Requirements: - the caller must be `account`. May emit a {RoleRevoked} event."
      },
      "revoke((bytes32,bytes32,uint64,uint64,uint64,bytes32,address,address,bool,bytes))": {
        "params": {
          "attestation": "The existing attestation to be revoked."
        },
        "returns": {
          "_0": "Whether the attestation can be revoked."
        }
      },
      "revokeRole(bytes32,address)": {
        "details": "Revokes `role` from `account`. If `account` had been granted `role`, emits a {RoleRevoked} event. Requirements: - the caller must have ``role``'s admin role. May emit a {RoleRevoked} event."
      },
      "supportsInterface(bytes4)": {
        "details": "See {IERC165-supportsInterface}."
      },
      "version()": {
        "returns": {
          "_0": "Semver contract version as a string."
        }
      }
    },
    "title": "ContentSubscriptionResolver",
    "version": 1
  },
  "userdoc": {
    "kind": "user",
    "methods": {
      "attest((bytes32,bytes32,uint64,uint64,uint64,bytes32,address,address,bool,bytes))": {
        "notice": "Processes an attestation and verifies whether it's valid."
      },
      "isPayable()": {
        "notice": "Indicates whether the contract is designed to handle incoming payments."
      },
      "multiAttest((bytes32,bytes32,uint64,uint64,uint64,bytes32,address,address,bool,bytes)[],uint256[])": {
        "notice": "Processes multiple attestations and verifies whether they are valid."
      },
      "multiRevoke((bytes32,bytes32,uint64,uint64,uint64,bytes32,address,address,bool,bytes)[],uint256[])": {
        "notice": "Processes revocation of multiple attestation and verifies they can be revoked."
      },
      "revoke((bytes32,bytes32,uint64,uint64,uint64,bytes32,address,address,bool,bytes))": {
        "notice": "Processes an attestation revocation and verifies if it can be revoked."
      },
      "version()": {
        "notice": "Returns the full semver contract version."
      }
    },
    "notice": "A schema resolver subcription to content example",
    "version": 1
  },
  "storageLayout": {
    "storage": [
      {
        "astId": 24,
        "contract": "contracts/resolver/examples/ACResolver.sol:ACResolver",
        "label": "_roles",
        "offset": 0,
        "slot": "0",
        "type": "t_mapping(t_bytes32,t_struct(RoleData)19_storage)"
      },
      {
        "astId": 8734,
        "contract": "contracts/resolver/examples/ACResolver.sol:ACResolver",
        "label": "schemaRegistry",
        "offset": 0,
        "slot": "1",
        "type": "t_contract(ISchemaRegistry)5556"
      },
      {
        "astId": 8736,
        "contract": "contracts/resolver/examples/ACResolver.sol:ACResolver",
        "label": "splitterFactory",
        "offset": 0,
        "slot": "2",
        "type": "t_address"
      },
      {
        "astId": 8748,
        "contract": "contracts/resolver/examples/ACResolver.sol:ACResolver",
        "label": "schemas",
        "offset": 0,
        "slot": "3",
        "type": "t_mapping(t_bytes32,t_struct(SchemaInfo)8743_storage)"
      },
      {
        "astId": 8757,
        "contract": "contracts/resolver/examples/ACResolver.sol:ACResolver",
        "label": "resolver",
        "offset": 0,
        "slot": "4",
        "type": "t_contract(ISchemaResolver)8387"
      },
      {
        "astId": 8760,
        "contract": "contracts/resolver/examples/ACResolver.sol:ACResolver",
        "label": "tableland",
        "offset": 0,
        "slot": "5",
        "type": "t_contract(IACResolverIndexer)9955"
      }
    ],
    "types": {
      "t_address": {
        "encoding": "inplace",
        "label": "address",
        "numberOfBytes": "20"
      },
      "t_bool": {
        "encoding": "inplace",
        "label": "bool",
        "numberOfBytes": "1"
      },
      "t_bytes32": {
        "encoding": "inplace",
        "label": "bytes32",
        "numberOfBytes": "32"
      },
      "t_contract(IACResolverIndexer)9955": {
        "encoding": "inplace",
        "label": "contract IACResolverIndexer",
        "numberOfBytes": "20"
      },
      "t_contract(ISchemaRegistry)5556": {
        "encoding": "inplace",
        "label": "contract ISchemaRegistry",
        "numberOfBytes": "20"
      },
      "t_contract(ISchemaResolver)8387": {
        "encoding": "inplace",
        "label": "contract ISchemaResolver",
        "numberOfBytes": "20"
      },
      "t_mapping(t_address,t_bool)": {
        "encoding": "mapping",
        "key": "t_address",
        "label": "mapping(address => bool)",
        "numberOfBytes": "32",
        "value": "t_bool"
      },
      "t_mapping(t_bytes32,t_struct(RoleData)19_storage)": {
        "encoding": "mapping",
        "key": "t_bytes32",
        "label": "mapping(bytes32 => struct AccessControl.RoleData)",
        "numberOfBytes": "32",
        "value": "t_struct(RoleData)19_storage"
      },
      "t_mapping(t_bytes32,t_struct(SchemaInfo)8743_storage)": {
        "encoding": "mapping",
        "key": "t_bytes32",
        "label": "mapping(bytes32 => struct ACResolver.SchemaInfo)",
        "numberOfBytes": "32",
        "value": "t_struct(SchemaInfo)8743_storage"
      },
      "t_struct(RoleData)19_storage": {
        "encoding": "inplace",
        "label": "struct AccessControl.RoleData",
        "members": [
          {
            "astId": 16,
            "contract": "contracts/resolver/examples/ACResolver.sol:ACResolver",
            "label": "members",
            "offset": 0,
            "slot": "0",
            "type": "t_mapping(t_address,t_bool)"
          },
          {
            "astId": 18,
            "contract": "contracts/resolver/examples/ACResolver.sol:ACResolver",
            "label": "adminRole",
            "offset": 0,
            "slot": "1",
            "type": "t_bytes32"
          }
        ],
        "numberOfBytes": "64"
      },
      "t_struct(SchemaInfo)8743_storage": {
        "encoding": "inplace",
        "label": "struct ACResolver.SchemaInfo",
        "members": [
          {
            "astId": 8738,
            "contract": "contracts/resolver/examples/ACResolver.sol:ACResolver",
            "label": "AllowAllToAttest",
            "offset": 0,
            "slot": "0",
            "type": "t_bool"
          },
          {
            "astId": 8740,
            "contract": "contracts/resolver/examples/ACResolver.sol:ACResolver",
            "label": "AllowAllToRevoke",
            "offset": 1,
            "slot": "0",
            "type": "t_bool"
          },
          {
            "astId": 8742,
            "contract": "contracts/resolver/examples/ACResolver.sol:ACResolver",
            "label": "encrypted",
            "offset": 2,
            "slot": "0",
            "type": "t_bool"
          }
        ],
        "numberOfBytes": "32"
      }
    }
  }
}