{
  "address": "0x7768D2cFD9e5aBbB3BAD1EA94de262e4C87aBb7d",
  "abi": [
    {
      "inputs": [
        {
          "internalType": "contract ITAS",
          "name": "tas",
          "type": "address"
        },
        {
          "internalType": "address",
          "name": "_splitterFactory",
          "type": "address"
        },
        {
          "internalType": "contract ISchemaRegistry",
          "name": "_schemaRegistry",
          "type": "address"
        }
      ],
      "stateMutability": "nonpayable",
      "type": "constructor"
    },
    {
      "inputs": [],
      "name": "AccessDenied",
      "type": "error"
    },
    {
      "inputs": [
        {
          "internalType": "uint256",
          "name": "chainid",
          "type": "uint256"
        }
      ],
      "name": "ChainNotSupported",
      "type": "error"
    },
    {
      "inputs": [],
      "name": "InsufficientValue",
      "type": "error"
    },
    {
      "inputs": [],
      "name": "InvalidLength",
      "type": "error"
    },
    {
      "inputs": [],
      "name": "InvalidTAS",
      "type": "error"
    },
    {
      "inputs": [],
      "name": "NotPayable",
      "type": "error"
    },
    {
      "anonymous": false,
      "inputs": [
        {
          "indexed": true,
          "internalType": "bytes32",
          "name": "role",
          "type": "bytes32"
        },
        {
          "indexed": true,
          "internalType": "bytes32",
          "name": "previousAdminRole",
          "type": "bytes32"
        },
        {
          "indexed": true,
          "internalType": "bytes32",
          "name": "newAdminRole",
          "type": "bytes32"
        }
      ],
      "name": "RoleAdminChanged",
      "type": "event"
    },
    {
      "anonymous": false,
      "inputs": [
        {
          "indexed": true,
          "internalType": "bytes32",
          "name": "role",
          "type": "bytes32"
        },
        {
          "indexed": true,
          "internalType": "address",
          "name": "account",
          "type": "address"
        },
        {
          "indexed": true,
          "internalType": "address",
          "name": "sender",
          "type": "address"
        }
      ],
      "name": "RoleGranted",
      "type": "event"
    },
    {
      "anonymous": false,
      "inputs": [
        {
          "indexed": true,
          "internalType": "bytes32",
          "name": "role",
          "type": "bytes32"
        },
        {
          "indexed": true,
          "internalType": "address",
          "name": "account",
          "type": "address"
        },
        {
          "indexed": true,
          "internalType": "address",
          "name": "sender",
          "type": "address"
        }
      ],
      "name": "RoleRevoked",
      "type": "event"
    },
    {
      "inputs": [
        {
          "internalType": "address[]",
          "name": "attesters",
          "type": "address[]"
        },
        {
          "internalType": "address[]",
          "name": "revokers",
          "type": "address[]"
        },
        {
          "internalType": "string",
          "name": "schema",
          "type": "string"
        },
        {
          "internalType": "string",
          "name": "schemaName",
          "type": "string"
        },
        {
          "internalType": "string",
          "name": "schemaDescription",
          "type": "string"
        }
      ],
      "name": "ACSchemaRegistered",
      "outputs": [],
      "stateMutability": "nonpayable",
      "type": "function"
    },
    {
      "inputs": [],
      "name": "DEFAULT_ADMIN_ROLE",
      "outputs": [
        {
          "internalType": "bytes32",
          "name": "",
          "type": "bytes32"
        }
      ],
      "stateMutability": "view",
      "type": "function"
    },
    {
      "inputs": [
        {
          "components": [
            {
              "internalType": "bytes32",
              "name": "uid",
              "type": "bytes32"
            },
            {
              "internalType": "bytes32",
              "name": "schema",
              "type": "bytes32"
            },
            {
              "internalType": "uint64",
              "name": "time",
              "type": "uint64"
            },
            {
              "internalType": "uint64",
              "name": "expirationTime",
              "type": "uint64"
            },
            {
              "internalType": "uint64",
              "name": "revocationTime",
              "type": "uint64"
            },
            {
              "internalType": "bytes32",
              "name": "refUID",
              "type": "bytes32"
            },
            {
              "internalType": "address",
              "name": "recipient",
              "type": "address"
            },
            {
              "internalType": "address",
              "name": "attester",
              "type": "address"
            },
            {
              "internalType": "bool",
              "name": "revocable",
              "type": "bool"
            },
            {
              "internalType": "bytes",
              "name": "data",
              "type": "bytes"
            }
          ],
          "internalType": "struct Attestation",
          "name": "attestation",
          "type": "tuple"
        }
      ],
      "name": "attest",
      "outputs": [
        {
          "internalType": "bool",
          "name": "",
          "type": "bool"
        }
      ],
      "stateMutability": "payable",
      "type": "function"
    },
    {
      "inputs": [
        {
          "internalType": "bytes32",
          "name": "data",
          "type": "bytes32"
        }
      ],
      "name": "bytes32ToString",
      "outputs": [
        {
          "internalType": "string",
          "name": "",
          "type": "string"
        }
      ],
      "stateMutability": "pure",
      "type": "function"
    },
    {
      "inputs": [
        {
          "internalType": "bytes32",
          "name": "role",
          "type": "bytes32"
        }
      ],
      "name": "getRoleAdmin",
      "outputs": [
        {
          "internalType": "bytes32",
          "name": "",
          "type": "bytes32"
        }
      ],
      "stateMutability": "view",
      "type": "function"
    },
    {
      "inputs": [
        {
          "internalType": "bytes32",
          "name": "role",
          "type": "bytes32"
        },
        {
          "internalType": "address",
          "name": "account",
          "type": "address"
        }
      ],
      "name": "grantRole",
      "outputs": [],
      "stateMutability": "nonpayable",
      "type": "function"
    },
    {
      "inputs": [
        {
          "internalType": "bytes32",
          "name": "role",
          "type": "bytes32"
        },
        {
          "internalType": "address",
          "name": "account",
          "type": "address"
        }
      ],
      "name": "hasRole",
      "outputs": [
        {
          "internalType": "bool",
          "name": "",
          "type": "bool"
        }
      ],
      "stateMutability": "view",
      "type": "function"
    },
    {
      "inputs": [],
      "name": "isPayable",
      "outputs": [
        {
          "internalType": "bool",
          "name": "",
          "type": "bool"
        }
      ],
      "stateMutability": "pure",
      "type": "function"
    },
    {
      "inputs": [
        {
          "components": [
            {
              "internalType": "bytes32",
              "name": "uid",
              "type": "bytes32"
            },
            {
              "internalType": "bytes32",
              "name": "schema",
              "type": "bytes32"
            },
            {
              "internalType": "uint64",
              "name": "time",
              "type": "uint64"
            },
            {
              "internalType": "uint64",
              "name": "expirationTime",
              "type": "uint64"
            },
            {
              "internalType": "uint64",
              "name": "revocationTime",
              "type": "uint64"
            },
            {
              "internalType": "bytes32",
              "name": "refUID",
              "type": "bytes32"
            },
            {
              "internalType": "address",
              "name": "recipient",
              "type": "address"
            },
            {
              "internalType": "address",
              "name": "attester",
              "type": "address"
            },
            {
              "internalType": "bool",
              "name": "revocable",
              "type": "bool"
            },
            {
              "internalType": "bytes",
              "name": "data",
              "type": "bytes"
            }
          ],
          "internalType": "struct Attestation[]",
          "name": "attestations",
          "type": "tuple[]"
        },
        {
          "internalType": "uint256[]",
          "name": "values",
          "type": "uint256[]"
        }
      ],
      "name": "multiAttest",
      "outputs": [
        {
          "internalType": "bool",
          "name": "",
          "type": "bool"
        }
      ],
      "stateMutability": "payable",
      "type": "function"
    },
    {
      "inputs": [
        {
          "components": [
            {
              "internalType": "bytes32",
              "name": "uid",
              "type": "bytes32"
            },
            {
              "internalType": "bytes32",
              "name": "schema",
              "type": "bytes32"
            },
            {
              "internalType": "uint64",
              "name": "time",
              "type": "uint64"
            },
            {
              "internalType": "uint64",
              "name": "expirationTime",
              "type": "uint64"
            },
            {
              "internalType": "uint64",
              "name": "revocationTime",
              "type": "uint64"
            },
            {
              "internalType": "bytes32",
              "name": "refUID",
              "type": "bytes32"
            },
            {
              "internalType": "address",
              "name": "recipient",
              "type": "address"
            },
            {
              "internalType": "address",
              "name": "attester",
              "type": "address"
            },
            {
              "internalType": "bool",
              "name": "revocable",
              "type": "bool"
            },
            {
              "internalType": "bytes",
              "name": "data",
              "type": "bytes"
            }
          ],
          "internalType": "struct Attestation[]",
          "name": "attestations",
          "type": "tuple[]"
        },
        {
          "internalType": "uint256[]",
          "name": "values",
          "type": "uint256[]"
        }
      ],
      "name": "multiRevoke",
      "outputs": [
        {
          "internalType": "bool",
          "name": "",
          "type": "bool"
        }
      ],
      "stateMutability": "payable",
      "type": "function"
    },
    {
      "inputs": [
        {
          "internalType": "bytes32",
          "name": "role",
          "type": "bytes32"
        },
        {
          "internalType": "address",
          "name": "account",
          "type": "address"
        }
      ],
      "name": "renounceRole",
      "outputs": [],
      "stateMutability": "nonpayable",
      "type": "function"
    },
    {
      "inputs": [
        {
          "components": [
            {
              "internalType": "bytes32",
              "name": "uid",
              "type": "bytes32"
            },
            {
              "internalType": "bytes32",
              "name": "schema",
              "type": "bytes32"
            },
            {
              "internalType": "uint64",
              "name": "time",
              "type": "uint64"
            },
            {
              "internalType": "uint64",
              "name": "expirationTime",
              "type": "uint64"
            },
            {
              "internalType": "uint64",
              "name": "revocationTime",
              "type": "uint64"
            },
            {
              "internalType": "bytes32",
              "name": "refUID",
              "type": "bytes32"
            },
            {
              "internalType": "address",
              "name": "recipient",
              "type": "address"
            },
            {
              "internalType": "address",
              "name": "attester",
              "type": "address"
            },
            {
              "internalType": "bool",
              "name": "revocable",
              "type": "bool"
            },
            {
              "internalType": "bytes",
              "name": "data",
              "type": "bytes"
            }
          ],
          "internalType": "struct Attestation",
          "name": "attestation",
          "type": "tuple"
        }
      ],
      "name": "revoke",
      "outputs": [
        {
          "internalType": "bool",
          "name": "",
          "type": "bool"
        }
      ],
      "stateMutability": "payable",
      "type": "function"
    },
    {
      "inputs": [
        {
          "internalType": "bytes32",
          "name": "role",
          "type": "bytes32"
        },
        {
          "internalType": "address",
          "name": "account",
          "type": "address"
        }
      ],
      "name": "revokeRole",
      "outputs": [],
      "stateMutability": "nonpayable",
      "type": "function"
    },
    {
      "inputs": [],
      "name": "splitterFactory",
      "outputs": [
        {
          "internalType": "address",
          "name": "",
          "type": "address"
        }
      ],
      "stateMutability": "view",
      "type": "function"
    },
    {
      "inputs": [
        {
          "internalType": "bytes4",
          "name": "interfaceId",
          "type": "bytes4"
        }
      ],
      "name": "supportsInterface",
      "outputs": [
        {
          "internalType": "bool",
          "name": "",
          "type": "bool"
        }
      ],
      "stateMutability": "view",
      "type": "function"
    },
    {
      "inputs": [
        {
          "internalType": "uint256",
          "name": "",
          "type": "uint256"
        }
      ],
      "name": "tables",
      "outputs": [
        {
          "internalType": "string",
          "name": "",
          "type": "string"
        }
      ],
      "stateMutability": "view",
      "type": "function"
    },
    {
      "inputs": [],
      "name": "version",
      "outputs": [
        {
          "internalType": "string",
          "name": "",
          "type": "string"
        }
      ],
      "stateMutability": "view",
      "type": "function"
    },
    {
      "stateMutability": "payable",
      "type": "receive"
    }
  ],
  "transactionHash": "0xea69dcad126289f3b286e9650a3fc57d74466a47b9a1978c59eb863d0cbe1323",
  "args": [
    "0x80B8f8dFef8cB80942bD97c2fC098da56734F329",
    "0x5D92C5A7258bb1E5d2F2Ec940c7A2DfdFe8cB95d",
    "0x518b0c3541e8d2A9d0a4F786165a8297dd1C5d88"
  ],
  "numDeployments": 1,
  "solcInputHash": "7ed756ae6fd6e8b4ef29ad45200b73ec",
  "bytecode": "0x6101006040523480156200001257600080fd5b5060405162003517380380620035178339810160408190526200003591620007ac565b6000608081905260a052600160c052826001600160a01b0381166200006d5760405163120d8e6b60e21b815260040160405180910390fd5b6001600160a01b0390811660e052600180546001600160a01b03199081168484161790915560028054909116918416919091179055620000ac6200037f565b600460006101000a8154816001600160a01b0302191690836001600160a01b031602179055506005620001436040518060400160405280601d81526020017f736368656d6155494420746578742c20617474657374657220746578740000008152506040518060400160405280601081526020016f736368656d615f61747465737465727360801b8152506200054260201b60201c565b81546001810183556000928352602090922090910190620001659082620008a5565b506005620001d66040518060400160405280601c81526020017f736368656d6155494420746578742c207265766f6b65722074657874000000008152506040518060400160405280600f81526020016e736368656d615f7265766f6b65727360881b8152506200054260201b60201c565b81546001810183556000928352602090922090910190620001f89082620008a5565b50600480546040516361a23d0f60e01b81526001600160a01b03909116916361a23d0f916200022d9130916005910162000971565b6000604051808303816000875af11580156200024d573d6000803e3d6000fd5b505050506040513d6000823e601f3d908101601f1916820160405262000277919081019062000a59565b80516200028d916007916020909101906200072c565b506006620002eb6040518060400160405280601081526020016f736368656d615f61747465737465727360801b8152506007600081548110620002d457620002d462000b22565b90600052602060002001546200057c60201b60201c565b815460018101835560009283526020909220909101906200030d9082620008a5565b506006620003536040518060400160405280600f81526020016e736368656d615f7265766f6b65727360881b8152506007600181548110620002d457620002d462000b22565b81546001810183556000928352602090922090910190620003759082620008a5565b5050505062000c13565b600046600103620003a3575073012969f7e3439a9b04025b5a049eb9bad82a8c1290565b46600a03620003c5575073fad44bf5b843de943a09d4f3e84949a11d3aa3e690565b4661a4b103620003e85750739abd75e8640871a5a20d3b4ee6330a04c962affd90565b4661a4ba036200040b5750731a22854c5b1642760a827f20137a67930ae108d290565b466089036200042d5750735c4e6a9e5c1e1bf445a062006faf19ea6c49afea90565b4661013a036200045057507359ef8bf2d6c102b4c42aef9189e1a9f0abfd652d90565b4660050362000472575073da8ea22d092307874f30a1f277d1388dca0ba97a90565b466101a40362000495575073c72e8a7be04f2469f8c2db3f1bdf69a7d516abba90565b4662066eed03620004b9575073033f69e8d119205089ab15d340f5b797732f646b90565b466201388103620004dd5750734b48841d4b32c4650e4abc117a03fe8b51f38f6890565b46610c4503620005005750730b9737ab4b3e5303cb67db031b509697e31c02d390565b46617a690362000523575073e7f1725e7734ce288f8367e1bb143e90bb3f051290565b60405163264e42cf60e01b815246600482015260240160405180910390fd5b6060816200055046620005a9565b84604051602001620005659392919062000b6a565b604051602081830303815290604052905092915050565b6060826200058a46620005a9565b6200059584620005a9565b604051602001620005659392919062000bd0565b60606000620005b88362000642565b60010190506000816001600160401b03811115620005da57620005da62000800565b6040519080825280601f01601f19166020018201604052801562000605576020820181803683370190505b5090508181016020015b600019016f181899199a1a9b1b9c1cb0b131b232b360811b600a86061a8153600a85049450846200060f57509392505050565b6000807a184f03e93ff9f4daa797ed6e38ed64bf6a1f01000000000000000083106200068c577a184f03e93ff9f4daa797ed6e38ed64bf6a1f010000000000000000830492506040015b6d04ee2d6d415b85acef81000000008310620006b9576d04ee2d6d415b85acef8100000000830492506020015b662386f26fc100008310620006d857662386f26fc10000830492506010015b6305f5e1008310620006f1576305f5e100830492506008015b61271083106200070657612710830492506004015b6064831062000719576064830492506002015b600a831062000726576001015b92915050565b8280548282559060005260206000209081019282156200076a579160200282015b828111156200076a5782518255916020019190600101906200074d565b50620007789291506200077c565b5090565b5b808211156200077857600081556001016200077d565b6001600160a01b0381168114620007a957600080fd5b50565b600080600060608486031215620007c257600080fd5b8351620007cf8162000793565b6020850151909350620007e28162000793565b6040850151909250620007f58162000793565b809150509250925092565b634e487b7160e01b600052604160045260246000fd5b600181811c908216806200082b57607f821691505b6020821081036200084c57634e487b7160e01b600052602260045260246000fd5b50919050565b601f821115620008a057600081815260208120601f850160051c810160208610156200087b5750805b601f850160051c820191505b818110156200089c5782815560010162000887565b5050505b505050565b81516001600160401b03811115620008c157620008c162000800565b620008d981620008d2845462000816565b8462000852565b602080601f831160018114620009115760008415620008f85750858301515b600019600386901b1c1916600185901b1785556200089c565b600085815260208120601f198616915b82811015620009425788860151825594840194600190910190840162000921565b5085821015620009615787850151600019600388901b60f8161c191681555b5050505050600190811b01905550565b60006040820160018060a01b0385168352602060408185015281855480845260608601915060059350606081851b8701016000888152848120815b8481101562000a4957605f198a8503018652828254620009cc8162000816565b80875260018281168015620009ea576001811462000a045762000a31565b60ff198416898d01528215158d1b89018c01945062000a31565b8688528b8820885b8481101562000a295781548b82018f0152908301908d0162000a0c565b8a018d019550505b50988a019892965050509190910190600101620009ac565b50919a9950505050505050505050565b6000602080838503121562000a6d57600080fd5b82516001600160401b038082111562000a8557600080fd5b818501915085601f83011262000a9a57600080fd5b81518181111562000aaf5762000aaf62000800565b8060051b604051601f19603f8301168101818110858211171562000ad75762000ad762000800565b60405291825284820192508381018501918883111562000af657600080fd5b938501935b8285101562000b165784518452938501939285019262000afb565b98975050505050505050565b634e487b7160e01b600052603260045260246000fd5b6000815160005b8181101562000b5b576020818501810151868301520162000b3f565b50600093019283525090919050565b6c021a922a0aa22902a20a126229609d1b8152600062000b8e600d83018662000b38565b605f60f81b815262000ba4600182018662000b38565b9050600560fb1b815262000bbc600182018562000b38565b602960f81b81526001019695505050505050565b600062000bde828662000b38565b605f60f81b80825262000bf5600183018762000b38565b908152905062000c09600182018562000b38565b9695505050505050565b60805160a05160c05160e0516128ca62000c4d6000396000610ebe01526000610591015260006105680152600061053f01526128ca6000f3fe6080604052600436106101125760003560e01c806391d14854116100a5578063ce46e04611610074578063e49617e111610059578063e49617e114610377578063e60c35051461038a578063f66633881461039d57600080fd5b8063ce46e04614610343578063d547741f1461035757600080fd5b806391d14854146102aa57806391db0b7e146102fb5780639201de551461030e578063a217fddf1461032e57600080fd5b806354fd4d50116100e157806354fd4d50146102035780635608d9e51461022557806371671bf21461027757806388e5b2d91461029757600080fd5b806301ffc9a714610150578063248a9ca3146101855780632f2ff15d146101c357806336568abe146101e357600080fd5b3661014b576040517f1574f9f300000000000000000000000000000000000000000000000000000000815260040160405180910390fd5b005b600080fd5b34801561015c57600080fd5b5061017061016b366004611b6e565b6103bd565b60405190151581526020015b60405180910390f35b34801561019157600080fd5b506101b56101a0366004611bb0565b60009081526020819052604090206001015490565b60405190815260200161017c565b3480156101cf57600080fd5b506101496101de366004611bed565b610456565b3480156101ef57600080fd5b506101496101fe366004611bed565b610480565b34801561020f57600080fd5b50610218610538565b60405161017c9190611c69565b34801561023157600080fd5b506002546102529073ffffffffffffffffffffffffffffffffffffffff1681565b60405173ffffffffffffffffffffffffffffffffffffffff909116815260200161017c565b34801561028357600080fd5b50610218610292366004611bb0565b6105db565b6101706102a5366004611cc8565b610687565b3480156102b657600080fd5b506101706102c5366004611bed565b60009182526020828152604080842073ffffffffffffffffffffffffffffffffffffffff93909316845291905290205460ff1690565b610170610309366004611cc8565b610788565b34801561031a57600080fd5b50610218610329366004611bb0565b610879565b34801561033a57600080fd5b506101b5600081565b34801561034f57600080fd5b506000610170565b34801561036357600080fd5b50610149610372366004611bed565b610a9f565b610170610385366004611d34565b610ac4565b610170610398366004611d34565b610add565b3480156103a957600080fd5b506101496103b8366004611ed6565b610af1565b60007fffffffff0000000000000000000000000000000000000000000000000000000082167f7965db0b00000000000000000000000000000000000000000000000000000000148061045057507f01ffc9a7000000000000000000000000000000000000000000000000000000007fffffffff000000000000000000000000000000000000000000000000000000008316145b92915050565b60008281526020819052604090206001015461047181610c34565b61047b8383610c41565b505050565b73ffffffffffffffffffffffffffffffffffffffff8116331461052a576040517f08c379a000000000000000000000000000000000000000000000000000000000815260206004820152602f60248201527f416363657373436f6e74726f6c3a2063616e206f6e6c792072656e6f756e636560448201527f20726f6c657320666f722073656c66000000000000000000000000000000000060648201526084015b60405180910390fd5b6105348282610d31565b5050565b60606105637f0000000000000000000000000000000000000000000000000000000000000000610de8565b61058c7f0000000000000000000000000000000000000000000000000000000000000000610de8565b6105b57f0000000000000000000000000000000000000000000000000000000000000000610de8565b6040516020016105c793929190611fa8565b604051602081830303815290604052905090565b600681815481106105eb57600080fd5b9060005260206000200160009150905080546106069061201e565b80601f01602080910402602001604051908101604052809291908181526020018280546106329061201e565b801561067f5780601f106106545761010080835404028352916020019161067f565b820191906000526020600020905b81548152906001019060200180831161066257829003601f168201915b505050505081565b6000610691610ea6565b838281146106cb576040517f947d5a8400000000000000000000000000000000000000000000000000000000815260040160405180910390fd5b3460005b828110156107785760008686838181106106eb576106eb612071565b9050602002013590508281111561072e576040517f1101129400000000000000000000000000000000000000000000000000000000815260040160405180910390fd5b61075b89898481811061074357610743612071565b905060200281019061075591906120a0565b82610f17565b61076c576000945050505050610780565b909103906001016106cf565b506001925050505b949350505050565b6000610792610ea6565b838281146107cc576040517f947d5a8400000000000000000000000000000000000000000000000000000000815260040160405180910390fd5b3460005b828110156107785760008686838181106107ec576107ec612071565b9050602002013590508281111561082f576040517f1101129400000000000000000000000000000000000000000000000000000000815260040160405180910390fd5b61085c89898481811061084457610844612071565b905060200281019061085691906120a0565b82610fd9565b61086d576000945050505050610780565b909103906001016107d0565b606060006108896020600261210d565b60ff1667ffffffffffffffff8111156108a4576108a4611d70565b6040519080825280601f01601f1916602001820160405280156108ce576020820181803683370190505b5060408051808201909152601081527f3031323334353637383961626364656600000000000000000000000000000000602082015290915060005b6020811015610a755781825186836020811061092757610927612071565b6109339291901a61215f565b8151811061094357610943612071565b01602001517fff000000000000000000000000000000000000000000000000000000000000001683610976836002612173565b8151811061098657610986612071565b60200101907effffffffffffffffffffffffffffffffffffffffffffffffffffffffffffff1916908160001a9053508182518683602081106109ca576109ca612071565b6109d69291901a61218a565b815181106109e6576109e6612071565b01602001517fff000000000000000000000000000000000000000000000000000000000000001683610a19836002612173565b610a2490600161219e565b81518110610a3457610a34612071565b60200101907effffffffffffffffffffffffffffffffffffffffffffffffffffffffffffff1916908160001a90535080610a6d816121b1565b915050610909565b5081604051602001610a8791906121e9565b60405160208183030381529060405292505050919050565b600082815260208190526040902060010154610aba81610c34565b61047b8383610d31565b6000610ace610ea6565b6104508234610f17565b919050565b6000610ae7610ea6565b6104508234610fd9565b600180546040517f64ccc13700000000000000000000000000000000000000000000000000000000815260009273ffffffffffffffffffffffffffffffffffffffff909216916364ccc13791610b529188918891889130919060040161222e565b6020604051808303816000875af1158015610b71573d6000803e3d6000fd5b505050506040513d601f19601f82011682018060405250810190610b959190612297565b86519091506000819003610bdb57600082815260036020526040902080547fffffffffffffffffffffffffffffffffffffffffffffffffffffffffffffff001660011790555b85516000819003610c1f57600083815260036020526040902080547fffffffffffffffffffffffffffffffffffffffffffffffffffffffffffff00ff166101001790555b610c2a8389896110c8565b5050505050505050565b610c3e8133611430565b50565b60008281526020818152604080832073ffffffffffffffffffffffffffffffffffffffff8516845290915290205460ff166105345760008281526020818152604080832073ffffffffffffffffffffffffffffffffffffffff85168452909152902080547fffffffffffffffffffffffffffffffffffffffffffffffffffffffffffffff00166001179055610cd33390565b73ffffffffffffffffffffffffffffffffffffffff168173ffffffffffffffffffffffffffffffffffffffff16837f2f8788117e7eff1d82e926ec794901d17c78024a50270940304540a733656f0d60405160405180910390a45050565b60008281526020818152604080832073ffffffffffffffffffffffffffffffffffffffff8516845290915290205460ff16156105345760008281526020818152604080832073ffffffffffffffffffffffffffffffffffffffff8516808552925280832080547fffffffffffffffffffffffffffffffffffffffffffffffffffffffffffffff0016905551339285917ff6391f5c32d9c69d2a47ea670b442974b53935d1edc7fd64eb21e047a839171b9190a45050565b60606000610df5836114ca565b600101905060008167ffffffffffffffff811115610e1557610e15611d70565b6040519080825280601f01601f191660200182016040528015610e3f576020820181803683370190505b5090508181016020015b7fffffffffffffffffffffffffffffffffffffffffffffffffffffffffffffffff017f3031323334353637383961626364656600000000000000000000000000000000600a86061a8153600a8504945084610e4957509392505050565b3373ffffffffffffffffffffffffffffffffffffffff7f00000000000000000000000000000000000000000000000000000000000000001614610f15576040517f4ca8886700000000000000000000000000000000000000000000000000000000815260040160405180910390fd5b565b602082810135600081815260039092526040822054610100900460ff1615610f43576001915050610450565b610fc081604051602001610f8e9181526040602082018190526007908201527f5245564f4b455200000000000000000000000000000000000000000000000000606082015260800190565b60408051601f198184030181529181528151602092830120600090815280835281812032825290925290205460ff1690565b15610fcf576001915050610450565b5060009392505050565b600080610fed610100850160e086016122b0565b602080860135600081815260039092526040909120549192509060ff161561101a57600192505050610450565b6110ad816040516020016110659181526040602082018190526008908201527f4154544553544552000000000000000000000000000000000000000000000000606082015260800190565b60408051601f198184030181529181528151602092830120600090815280835281812073ffffffffffffffffffffffffffffffffffffffff8716825290925290205460ff1690565b156110bd57600192505050610450565b506000949350505050565b600081518351116110da5781516110dd565b82515b9050620186a0816009546110f1919061219e565b106110fe576110fe6115ac565b60005b83518110156112ac5761121a600760008154811061112157611121612071565b90600052602060002001546112156040518060400160405280601081526020017f736368656d615f61747465737465727300000000000000000000000000000000815250600760008154811061117957611179612071565b90600052602060002001546040518060400160405280601381526020017f736368656d615549442c206174746573746572000000000000000000000000008152506111cb6111c68c610879565b61176c565b6111f06111c68c8a815181106111e3576111e3612071565b6020026020010151611795565b6040516020016112019291906122cb565b6040516020818303038152906040526117b8565b6117f7565b61129a856040516020016112659181526040602082018190526008908201527f4154544553544552000000000000000000000000000000000000000000000000606082015260800190565b6040516020818303038152906040528051906020012085838151811061128d5761128d612071565b6020026020010151610c41565b806112a4816121b1565b915050611101565b5060005b82518110156114125761138d60076001815481106112d0576112d0612071565b90600052602060002001546112156040518060400160405280600f81526020017f736368656d615f7265766f6b6572730000000000000000000000000000000000815250600760018154811061132857611328612071565b90600052602060002001546040518060400160405280601281526020017f736368656d615549442c207265766f6b657200000000000000000000000000008152506113756111c68c610879565b6111f06111c68b8a815181106111e3576111e3612071565b611400856040516020016113d89181526040602082018190526007908201527f5245564f4b455200000000000000000000000000000000000000000000000000606082015260800190565b6040516020818303038152906040528051906020012084838151811061128d5761128d612071565b8061140a816121b1565b9150506112b0565b508060096000828254611425919061219e565b909155505050505050565b60008281526020818152604080832073ffffffffffffffffffffffffffffffffffffffff8516845290915290205460ff166105345761146e81611795565b611479836020611886565b60405160200161148a929190612323565b60408051601f19818403018152908290527f08c379a000000000000000000000000000000000000000000000000000000000825261052191600401611c69565b6000807a184f03e93ff9f4daa797ed6e38ed64bf6a1f0100000000000000008310611513577a184f03e93ff9f4daa797ed6e38ed64bf6a1f010000000000000000830492506040015b6d04ee2d6d415b85acef8100000000831061153f576d04ee2d6d415b85acef8100000000830492506020015b662386f26fc10000831061155d57662386f26fc10000830492506010015b6305f5e1008310611575576305f5e100830492506008015b612710831061158957612710830492506004015b6064831061159b576064830492506002015b600a83106104505760010192915050565b600480546040517f61a23d0f00000000000000000000000000000000000000000000000000000000815273ffffffffffffffffffffffffffffffffffffffff909116916361a23d0f91611604913091600591016123a4565b6000604051808303816000875af1158015611623573d6000803e3d6000fd5b505050506040513d6000823e601f3d908101601f1916820160405261164b91908101906124cc565b805161165f91600791602090910190611b0e565b5060066116bf6040518060400160405280601081526020017f736368656d615f6174746573746572730000000000000000000000000000000081525060076000815481106116af576116af612071565b9060005260206000200154611ad0565b815460018101835560009283526020909220909101906116df90826125a3565b50600661172f6040518060400160405280600f81526020017f736368656d615f7265766f6b657273000000000000000000000000000000000081525060076001815481106116af576116af612071565b8154600181018355600092835260209092209091019061174f90826125a3565b50600060098190556008805491611765836121b1565b9190505550565b60608160405160200161177f919061269f565b6040516020818303038152906040529050919050565b606061045073ffffffffffffffffffffffffffffffffffffffff83166014611886565b606060006117c68686611ad0565b90508084846040516020016117dd939291906126e9565b604051602081830303815290604052915050949350505050565b600480546040517f377af0da00000000000000000000000000000000000000000000000000000000815273ffffffffffffffffffffffffffffffffffffffff9091169163377af0da9161185091309187918791016127d3565b600060405180830381600087803b15801561186a57600080fd5b505af115801561187e573d6000803e3d6000fd5b505050505050565b60606000611895836002612173565b6118a090600261219e565b67ffffffffffffffff8111156118b8576118b8611d70565b6040519080825280601f01601f1916602001820160405280156118e2576020820181803683370190505b5090507f30000000000000000000000000000000000000000000000000000000000000008160008151811061191957611919612071565b60200101907effffffffffffffffffffffffffffffffffffffffffffffffffffffffffffff1916908160001a9053507f78000000000000000000000000000000000000000000000000000000000000008160018151811061197c5761197c612071565b60200101907effffffffffffffffffffffffffffffffffffffffffffffffffffffffffffff1916908160001a90535060006119b8846002612173565b6119c390600161219e565b90505b6001811115611a60577f303132333435363738396162636465660000000000000000000000000000000085600f1660108110611a0457611a04612071565b1a60f81b828281518110611a1a57611a1a612071565b60200101907effffffffffffffffffffffffffffffffffffffffffffffffffffffffffffff1916908160001a90535060049490941c93611a5981612811565b90506119c6565b508315611ac9576040517f08c379a000000000000000000000000000000000000000000000000000000000815260206004820181905260248201527f537472696e67733a20686578206c656e67746820696e73756666696369656e746044820152606401610521565b9392505050565b606082611adc46610de8565b611ae584610de8565b604051602001611af793929190612846565b604051602081830303815290604052905092915050565b828054828255906000526020600020908101928215611b49579160200282015b82811115611b49578251825591602001919060010190611b2e565b50611b55929150611b59565b5090565b5b80821115611b555760008155600101611b5a565b600060208284031215611b8057600080fd5b81357fffffffff0000000000000000000000000000000000000000000000000000000081168114611ac957600080fd5b600060208284031215611bc257600080fd5b5035919050565b803573ffffffffffffffffffffffffffffffffffffffff81168114610ad857600080fd5b60008060408385031215611c0057600080fd5b82359150611c1060208401611bc9565b90509250929050565b60005b83811015611c34578181015183820152602001611c1c565b50506000910152565b60008151808452611c55816020860160208601611c19565b601f01601f19169290920160200192915050565b602081526000611ac96020830184611c3d565b60008083601f840112611c8e57600080fd5b50813567ffffffffffffffff811115611ca657600080fd5b6020830191508360208260051b8501011115611cc157600080fd5b9250929050565b60008060008060408587031215611cde57600080fd5b843567ffffffffffffffff80821115611cf657600080fd5b611d0288838901611c7c565b90965094506020870135915080821115611d1b57600080fd5b50611d2887828801611c7c565b95989497509550505050565b600060208284031215611d4657600080fd5b813567ffffffffffffffff811115611d5d57600080fd5b82016101408185031215611ac957600080fd5b7f4e487b7100000000000000000000000000000000000000000000000000000000600052604160045260246000fd5b604051601f8201601f1916810167ffffffffffffffff81118282101715611dc857611dc8611d70565b604052919050565b600067ffffffffffffffff821115611dea57611dea611d70565b5060051b60200190565b600082601f830112611e0557600080fd5b81356020611e1a611e1583611dd0565b611d9f565b82815260059290921b84018101918181019086841115611e3957600080fd5b8286015b84811015611e5b57611e4e81611bc9565b8352918301918301611e3d565b509695505050505050565b600082601f830112611e7757600080fd5b813567ffffffffffffffff811115611e9157611e91611d70565b611ea46020601f19601f84011601611d9f565b818152846020838601011115611eb957600080fd5b816020850160208301376000918101602001919091529392505050565b600080600080600060a08688031215611eee57600080fd5b853567ffffffffffffffff80821115611f0657600080fd5b611f1289838a01611df4565b96506020880135915080821115611f2857600080fd5b611f3489838a01611df4565b95506040880135915080821115611f4a57600080fd5b611f5689838a01611e66565b94506060880135915080821115611f6c57600080fd5b611f7889838a01611e66565b93506080880135915080821115611f8e57600080fd5b50611f9b88828901611e66565b9150509295509295909350565b60008451611fba818460208901611c19565b80830190507f2e000000000000000000000000000000000000000000000000000000000000008082528551611ff6816001850160208a01611c19565b60019201918201528351612011816002840160208801611c19565b0160020195945050505050565b600181811c9082168061203257607f821691505b60208210810361206b577f4e487b7100000000000000000000000000000000000000000000000000000000600052602260045260246000fd5b50919050565b7f4e487b7100000000000000000000000000000000000000000000000000000000600052603260045260246000fd5b600082357ffffffffffffffffffffffffffffffffffffffffffffffffffffffffffffffec18336030181126120d457600080fd5b9190910192915050565b7f4e487b7100000000000000000000000000000000000000000000000000000000600052601160045260246000fd5b60ff8181168382160290811690818114612129576121296120de565b5092915050565b7f4e487b7100000000000000000000000000000000000000000000000000000000600052601260045260246000fd5b60008261216e5761216e612130565b500490565b8082028115828204841417610450576104506120de565b60008261219957612199612130565b500690565b80820180821115610450576104506120de565b60007fffffffffffffffffffffffffffffffffffffffffffffffffffffffffffffffff82036121e2576121e26120de565b5060010190565b7f3078000000000000000000000000000000000000000000000000000000000000815260008251612221816002850160208701611c19565b9190910160020192915050565b60a08152600061224160a0830188611c3d565b82810360208401526122538188611c3d565b905082810360408401526122678187611c3d565b73ffffffffffffffffffffffffffffffffffffffff95909516606084015250509015156080909101529392505050565b6000602082840312156122a957600080fd5b5051919050565b6000602082840312156122c257600080fd5b611ac982611bc9565b600083516122dd818460208801611c19565b7f2c000000000000000000000000000000000000000000000000000000000000009083019081528351612317816001840160208801611c19565b01600101949350505050565b7f416363657373436f6e74726f6c3a206163636f756e742000000000000000000081526000835161235b816017850160208801611c19565b7f206973206d697373696e6720726f6c65200000000000000000000000000000006017918401918201528351612398816028840160208801611c19565b01602801949350505050565b60006040820173ffffffffffffffffffffffffffffffffffffffff85168352602060408185015281855480845260608601915060059350606081851b8701016000888152848120815b848110156124bc577fffffffffffffffffffffffffffffffffffffffffffffffffffffffffffffffa08a85030186528282546124288161201e565b80875260018281168015612443576001811461247a576124a5565b7fffffffffffffffffffffffffffffffffffffffffffffffffffffffffffffff0084168c8a01528b8315158e1b8a010194506124a5565b8688528b8820885b8481101561249d5781548b82018f0152908301908d01612482565b8a018d019550505b50988a0198929650505091909101906001016123ed565b50919a9950505050505050505050565b600060208083850312156124df57600080fd5b825167ffffffffffffffff8111156124f657600080fd5b8301601f8101851361250757600080fd5b8051612515611e1582611dd0565b81815260059190911b8201830190838101908783111561253457600080fd5b928401925b8284101561255257835182529284019290840190612539565b979650505050505050565b601f82111561047b57600081815260208120601f850160051c810160208610156125845750805b601f850160051c820191505b8181101561187e57828155600101612590565b815167ffffffffffffffff8111156125bd576125bd611d70565b6125d1816125cb845461201e565b8461255d565b602080601f83116001811461262457600084156125ee5750858301515b7fffffffffffffffffffffffffffffffffffffffffffffffffffffffffffffffff600386901b1c1916600185901b17855561187e565b600085815260208120601f198616915b8281101561265357888601518255948401946001909101908401612634565b508582101561268f57878501517fffffffffffffffffffffffffffffffffffffffffffffffffffffffffffffffff600388901b60f8161c191681555b5050505050600190811b01905550565b60007f270000000000000000000000000000000000000000000000000000000000000080835283516126d8816001860160208801611c19565b600193019283015250600201919050565b7f494e5345525420494e544f20000000000000000000000000000000000000000081526000845161272181600c850160208901611c19565b7f2800000000000000000000000000000000000000000000000000000000000000600c91840191820152845161275e81600d840160208901611c19565b7f2956414c55455328000000000000000000000000000000000000000000000000600d9290910191820152835161279c816015840160208801611c19565b7f29000000000000000000000000000000000000000000000000000000000000006015929091019182015260160195945050505050565b73ffffffffffffffffffffffffffffffffffffffff841681528260208201526060604082015260006128086060830184611c3d565b95945050505050565b600081612820576128206120de565b507fffffffffffffffffffffffffffffffffffffffffffffffffffffffffffffffff0190565b60008451612858818460208901611c19565b80830190507f5f000000000000000000000000000000000000000000000000000000000000008082528551611ff6816001850160208a01611c1956fea26469706673582212203f548b8c23e5657d676446567b809b8a4bfd1495ed479bd9dfc6d9a60be099e764736f6c63430008130033",
  "devdoc": {
    "events": {
      "RoleAdminChanged(bytes32,bytes32,bytes32)": {
        "details": "Emitted when `newAdminRole` is set as ``role``'s admin role, replacing `previousAdminRole` `DEFAULT_ADMIN_ROLE` is the starting admin for all roles, despite {RoleAdminChanged} not being emitted signaling this. _Available since v3.1._"
      },
      "RoleGranted(bytes32,address,address)": {
        "details": "Emitted when `account` is granted `role`. `sender` is the account that originated the contract call, an admin role bearer except when using {AccessControl-_setupRole}."
      },
      "RoleRevoked(bytes32,address,address)": {
        "details": "Emitted when `account` is revoked `role`. `sender` is the account that originated the contract call:   - if using `revokeRole`, it is the admin role bearer   - if using `renounceRole`, it is the role bearer (i.e. `account`)"
      }
    },
    "kind": "dev",
    "methods": {
      "attest((bytes32,bytes32,uint64,uint64,uint64,bytes32,address,address,bool,bytes))": {
        "params": {
          "attestation": "The new attestation."
        },
        "returns": {
          "_0": "Whether the attestation is valid."
        }
      },
      "getRoleAdmin(bytes32)": {
        "details": "Returns the admin role that controls `role`. See {grantRole} and {revokeRole}. To change a role's admin, use {_setRoleAdmin}."
      },
      "grantRole(bytes32,address)": {
        "details": "Grants `role` to `account`. If `account` had not been already granted `role`, emits a {RoleGranted} event. Requirements: - the caller must have ``role``'s admin role. May emit a {RoleGranted} event."
      },
      "hasRole(bytes32,address)": {
        "details": "Returns `true` if `account` has been granted `role`."
      },
      "isPayable()": {
        "returns": {
          "_0": "True, indicating that the contract can accept payments."
        }
      },
      "multiAttest((bytes32,bytes32,uint64,uint64,uint64,bytes32,address,address,bool,bytes)[],uint256[])": {
        "params": {
          "attestations": "The new attestations.",
          "values": "Explicit ETH amounts which were sent with each attestation."
        },
        "returns": {
          "_0": "Whether all the attestations are valid."
        }
      },
      "multiRevoke((bytes32,bytes32,uint64,uint64,uint64,bytes32,address,address,bool,bytes)[],uint256[])": {
        "params": {
          "attestations": "The existing attestations to be revoked.",
          "values": "Explicit ETH amounts which were sent with each revocation."
        },
        "returns": {
          "_0": "Whether the attestations can be revoked."
        }
      },
      "renounceRole(bytes32,address)": {
        "details": "Revokes `role` from the calling account. Roles are often managed via {grantRole} and {revokeRole}: this function's purpose is to provide a mechanism for accounts to lose their privileges if they are compromised (such as when a trusted device is misplaced). If the calling account had been revoked `role`, emits a {RoleRevoked} event. Requirements: - the caller must be `account`. May emit a {RoleRevoked} event."
      },
      "revoke((bytes32,bytes32,uint64,uint64,uint64,bytes32,address,address,bool,bytes))": {
        "params": {
          "attestation": "The existing attestation to be revoked."
        },
        "returns": {
          "_0": "Whether the attestation can be revoked."
        }
      },
      "revokeRole(bytes32,address)": {
        "details": "Revokes `role` from `account`. If `account` had been granted `role`, emits a {RoleRevoked} event. Requirements: - the caller must have ``role``'s admin role. May emit a {RoleRevoked} event."
      },
      "supportsInterface(bytes4)": {
        "details": "See {IERC165-supportsInterface}."
      },
      "version()": {
        "returns": {
          "_0": "Semver contract version as a string."
        }
      }
    },
    "title": "ContentSubscriptionResolver",
    "version": 1
  },
  "userdoc": {
    "errors": {
      "ChainNotSupported(uint256)": [
        {
          "notice": "Current chain does not have a TablelandTables deployment."
        }
      ]
    },
    "kind": "user",
    "methods": {
      "attest((bytes32,bytes32,uint64,uint64,uint64,bytes32,address,address,bool,bytes))": {
        "notice": "Processes an attestation and verifies whether it's valid."
      },
      "isPayable()": {
        "notice": "Indicates whether the contract is designed to handle incoming payments."
      },
      "multiAttest((bytes32,bytes32,uint64,uint64,uint64,bytes32,address,address,bool,bytes)[],uint256[])": {
        "notice": "Processes multiple attestations and verifies whether they are valid."
      },
      "multiRevoke((bytes32,bytes32,uint64,uint64,uint64,bytes32,address,address,bool,bytes)[],uint256[])": {
        "notice": "Processes revocation of multiple attestation and verifies they can be revoked."
      },
      "revoke((bytes32,bytes32,uint64,uint64,uint64,bytes32,address,address,bool,bytes))": {
        "notice": "Processes an attestation revocation and verifies if it can be revoked."
      },
      "version()": {
        "notice": "Returns the full semver contract version."
      }
    },
    "notice": "A schema resolver subcription to content example",
    "version": 1
  },
  "storageLayout": {
    "storage": [
      {
        "astId": 24,
        "contract": "contracts/resolver/examples/ACResolver.sol:ACResolver",
        "label": "_roles",
        "offset": 0,
        "slot": "0",
        "type": "t_mapping(t_bytes32,t_struct(RoleData)19_storage)"
      },
      {
        "astId": 9890,
        "contract": "contracts/resolver/examples/ACResolver.sol:ACResolver",
        "label": "schemaRegistry",
        "offset": 0,
        "slot": "1",
        "type": "t_contract(ISchemaRegistry)5550"
      },
      {
        "astId": 9892,
        "contract": "contracts/resolver/examples/ACResolver.sol:ACResolver",
        "label": "splitterFactory",
        "offset": 0,
        "slot": "2",
        "type": "t_address"
      },
      {
        "astId": 9902,
        "contract": "contracts/resolver/examples/ACResolver.sol:ACResolver",
        "label": "schemas",
        "offset": 0,
        "slot": "3",
        "type": "t_mapping(t_bytes32,t_struct(SchemaInfo)9897_storage)"
      },
      {
        "astId": 9905,
        "contract": "contracts/resolver/examples/ACResolver.sol:ACResolver",
        "label": "tablelandContract",
        "offset": 0,
        "slot": "4",
        "type": "t_contract(ITablelandTables)4963"
      },
      {
        "astId": 9908,
        "contract": "contracts/resolver/examples/ACResolver.sol:ACResolver",
        "label": "createTableStatements",
        "offset": 0,
        "slot": "5",
        "type": "t_array(t_string_storage)dyn_storage"
      },
      {
        "astId": 9911,
        "contract": "contracts/resolver/examples/ACResolver.sol:ACResolver",
        "label": "tables",
        "offset": 0,
        "slot": "6",
        "type": "t_array(t_string_storage)dyn_storage"
      },
      {
        "astId": 9914,
        "contract": "contracts/resolver/examples/ACResolver.sol:ACResolver",
        "label": "tableIDs",
        "offset": 0,
        "slot": "7",
        "type": "t_array(t_uint256)dyn_storage"
      },
      {
        "astId": 9916,
        "contract": "contracts/resolver/examples/ACResolver.sol:ACResolver",
        "label": "tablesUpdates",
        "offset": 0,
        "slot": "8",
        "type": "t_uint256"
      },
      {
        "astId": 9918,
        "contract": "contracts/resolver/examples/ACResolver.sol:ACResolver",
        "label": "tablesRowsCounter",
        "offset": 0,
        "slot": "9",
        "type": "t_uint256"
      }
    ],
    "types": {
      "t_address": {
        "encoding": "inplace",
        "label": "address",
        "numberOfBytes": "20"
      },
      "t_array(t_string_storage)dyn_storage": {
        "base": "t_string_storage",
        "encoding": "dynamic_array",
        "label": "string[]",
        "numberOfBytes": "32"
      },
      "t_array(t_uint256)dyn_storage": {
        "base": "t_uint256",
        "encoding": "dynamic_array",
        "label": "uint256[]",
        "numberOfBytes": "32"
      },
      "t_bool": {
        "encoding": "inplace",
        "label": "bool",
        "numberOfBytes": "1"
      },
      "t_bytes32": {
        "encoding": "inplace",
        "label": "bytes32",
        "numberOfBytes": "32"
      },
      "t_contract(ISchemaRegistry)5550": {
        "encoding": "inplace",
        "label": "contract ISchemaRegistry",
        "numberOfBytes": "20"
      },
      "t_contract(ITablelandTables)4963": {
        "encoding": "inplace",
        "label": "contract ITablelandTables",
        "numberOfBytes": "20"
      },
      "t_mapping(t_address,t_bool)": {
        "encoding": "mapping",
        "key": "t_address",
        "label": "mapping(address => bool)",
        "numberOfBytes": "32",
        "value": "t_bool"
      },
      "t_mapping(t_bytes32,t_struct(RoleData)19_storage)": {
        "encoding": "mapping",
        "key": "t_bytes32",
        "label": "mapping(bytes32 => struct AccessControl.RoleData)",
        "numberOfBytes": "32",
        "value": "t_struct(RoleData)19_storage"
      },
      "t_mapping(t_bytes32,t_struct(SchemaInfo)9897_storage)": {
        "encoding": "mapping",
        "key": "t_bytes32",
        "label": "mapping(bytes32 => struct ACResolver.SchemaInfo)",
        "numberOfBytes": "32",
        "value": "t_struct(SchemaInfo)9897_storage"
      },
      "t_string_storage": {
        "encoding": "bytes",
        "label": "string",
        "numberOfBytes": "32"
      },
      "t_struct(RoleData)19_storage": {
        "encoding": "inplace",
        "label": "struct AccessControl.RoleData",
        "members": [
          {
            "astId": 16,
            "contract": "contracts/resolver/examples/ACResolver.sol:ACResolver",
            "label": "members",
            "offset": 0,
            "slot": "0",
            "type": "t_mapping(t_address,t_bool)"
          },
          {
            "astId": 18,
            "contract": "contracts/resolver/examples/ACResolver.sol:ACResolver",
            "label": "adminRole",
            "offset": 0,
            "slot": "1",
            "type": "t_bytes32"
          }
        ],
        "numberOfBytes": "64"
      },
      "t_struct(SchemaInfo)9897_storage": {
        "encoding": "inplace",
        "label": "struct ACResolver.SchemaInfo",
        "members": [
          {
            "astId": 9894,
            "contract": "contracts/resolver/examples/ACResolver.sol:ACResolver",
            "label": "AllowAllToAttest",
            "offset": 0,
            "slot": "0",
            "type": "t_bool"
          },
          {
            "astId": 9896,
            "contract": "contracts/resolver/examples/ACResolver.sol:ACResolver",
            "label": "AllowAllToRevoke",
            "offset": 1,
            "slot": "0",
            "type": "t_bool"
          }
        ],
        "numberOfBytes": "32"
      },
      "t_uint256": {
        "encoding": "inplace",
        "label": "uint256",
        "numberOfBytes": "32"
      }
    }
  }
}