{
  "address": "0x4DBB85776b07292898F140F00d85E54e2c26af85",
  "abi": [
    {
      "inputs": [
        {
          "internalType": "contract ITAS",
          "name": "tas",
          "type": "address"
        },
        {
          "internalType": "address",
          "name": "_splitterFactory",
          "type": "address"
        },
        {
          "internalType": "contract ISchemaRegistry",
          "name": "_schemaRegistry",
          "type": "address"
        },
        {
          "internalType": "contract IACResolverIndexer",
          "name": "_tableland",
          "type": "address"
        }
      ],
      "stateMutability": "nonpayable",
      "type": "constructor"
    },
    {
      "inputs": [],
      "name": "AccessDenied",
      "type": "error"
    },
    {
      "inputs": [],
      "name": "InsufficientValue",
      "type": "error"
    },
    {
      "inputs": [],
      "name": "InvalidLength",
      "type": "error"
    },
    {
      "inputs": [],
      "name": "InvalidTAS",
      "type": "error"
    },
    {
      "inputs": [],
      "name": "NotPayable",
      "type": "error"
    },
    {
      "anonymous": false,
      "inputs": [
        {
          "indexed": true,
          "internalType": "bytes32",
          "name": "role",
          "type": "bytes32"
        },
        {
          "indexed": true,
          "internalType": "bytes32",
          "name": "previousAdminRole",
          "type": "bytes32"
        },
        {
          "indexed": true,
          "internalType": "bytes32",
          "name": "newAdminRole",
          "type": "bytes32"
        }
      ],
      "name": "RoleAdminChanged",
      "type": "event"
    },
    {
      "anonymous": false,
      "inputs": [
        {
          "indexed": true,
          "internalType": "bytes32",
          "name": "role",
          "type": "bytes32"
        },
        {
          "indexed": true,
          "internalType": "address",
          "name": "account",
          "type": "address"
        },
        {
          "indexed": true,
          "internalType": "address",
          "name": "sender",
          "type": "address"
        }
      ],
      "name": "RoleGranted",
      "type": "event"
    },
    {
      "anonymous": false,
      "inputs": [
        {
          "indexed": true,
          "internalType": "bytes32",
          "name": "role",
          "type": "bytes32"
        },
        {
          "indexed": true,
          "internalType": "address",
          "name": "account",
          "type": "address"
        },
        {
          "indexed": true,
          "internalType": "address",
          "name": "sender",
          "type": "address"
        }
      ],
      "name": "RoleRevoked",
      "type": "event"
    },
    {
      "inputs": [
        {
          "internalType": "address[]",
          "name": "attesters",
          "type": "address[]"
        },
        {
          "internalType": "address[]",
          "name": "revokers",
          "type": "address[]"
        },
        {
          "internalType": "string[]",
          "name": "categories",
          "type": "string[]"
        },
        {
          "internalType": "bool",
          "name": "encrypted",
          "type": "bool"
        },
        {
          "internalType": "string",
          "name": "schema",
          "type": "string"
        },
        {
          "internalType": "string",
          "name": "schemaName",
          "type": "string"
        },
        {
          "internalType": "string",
          "name": "schemaDescription",
          "type": "string"
        }
      ],
      "name": "ACSchemaRegistered",
      "outputs": [],
      "stateMutability": "nonpayable",
      "type": "function"
    },
    {
      "inputs": [],
      "name": "DEFAULT_ADMIN_ROLE",
      "outputs": [
        {
          "internalType": "bytes32",
          "name": "",
          "type": "bytes32"
        }
      ],
      "stateMutability": "view",
      "type": "function"
    },
    {
      "inputs": [
        {
          "internalType": "bytes32",
          "name": "schemaUID",
          "type": "bytes32"
        },
        {
          "internalType": "address",
          "name": "newAttester",
          "type": "address"
        }
      ],
      "name": "addAttester",
      "outputs": [],
      "stateMutability": "nonpayable",
      "type": "function"
    },
    {
      "inputs": [
        {
          "internalType": "bytes32",
          "name": "schemaUID",
          "type": "bytes32"
        },
        {
          "internalType": "address",
          "name": "newRevoker",
          "type": "address"
        }
      ],
      "name": "addRevoker",
      "outputs": [],
      "stateMutability": "nonpayable",
      "type": "function"
    },
    {
      "inputs": [
        {
          "components": [
            {
              "internalType": "bytes32",
              "name": "uid",
              "type": "bytes32"
            },
            {
              "internalType": "bytes32",
              "name": "schema",
              "type": "bytes32"
            },
            {
              "internalType": "uint64",
              "name": "time",
              "type": "uint64"
            },
            {
              "internalType": "uint64",
              "name": "expirationTime",
              "type": "uint64"
            },
            {
              "internalType": "uint64",
              "name": "revocationTime",
              "type": "uint64"
            },
            {
              "internalType": "bytes32",
              "name": "refUID",
              "type": "bytes32"
            },
            {
              "internalType": "address",
              "name": "recipient",
              "type": "address"
            },
            {
              "internalType": "address",
              "name": "attester",
              "type": "address"
            },
            {
              "internalType": "bool",
              "name": "revocable",
              "type": "bool"
            },
            {
              "internalType": "bytes",
              "name": "data",
              "type": "bytes"
            }
          ],
          "internalType": "struct Attestation",
          "name": "attestation",
          "type": "tuple"
        }
      ],
      "name": "attest",
      "outputs": [
        {
          "internalType": "bool",
          "name": "",
          "type": "bool"
        }
      ],
      "stateMutability": "payable",
      "type": "function"
    },
    {
      "inputs": [
        {
          "internalType": "bytes32",
          "name": "role",
          "type": "bytes32"
        }
      ],
      "name": "getRoleAdmin",
      "outputs": [
        {
          "internalType": "bytes32",
          "name": "",
          "type": "bytes32"
        }
      ],
      "stateMutability": "view",
      "type": "function"
    },
    {
      "inputs": [
        {
          "internalType": "bytes32",
          "name": "role",
          "type": "bytes32"
        },
        {
          "internalType": "address",
          "name": "account",
          "type": "address"
        }
      ],
      "name": "grantRole",
      "outputs": [],
      "stateMutability": "nonpayable",
      "type": "function"
    },
    {
      "inputs": [
        {
          "internalType": "address",
          "name": "sender",
          "type": "address"
        },
        {
          "internalType": "bytes32",
          "name": "schemaUID",
          "type": "bytes32"
        }
      ],
      "name": "hasAccess",
      "outputs": [
        {
          "internalType": "bool",
          "name": "",
          "type": "bool"
        }
      ],
      "stateMutability": "view",
      "type": "function"
    },
    {
      "inputs": [
        {
          "internalType": "bytes32",
          "name": "role",
          "type": "bytes32"
        },
        {
          "internalType": "address",
          "name": "account",
          "type": "address"
        }
      ],
      "name": "hasRole",
      "outputs": [
        {
          "internalType": "bool",
          "name": "",
          "type": "bool"
        }
      ],
      "stateMutability": "view",
      "type": "function"
    },
    {
      "inputs": [],
      "name": "isPayable",
      "outputs": [
        {
          "internalType": "bool",
          "name": "",
          "type": "bool"
        }
      ],
      "stateMutability": "pure",
      "type": "function"
    },
    {
      "inputs": [
        {
          "components": [
            {
              "internalType": "bytes32",
              "name": "uid",
              "type": "bytes32"
            },
            {
              "internalType": "bytes32",
              "name": "schema",
              "type": "bytes32"
            },
            {
              "internalType": "uint64",
              "name": "time",
              "type": "uint64"
            },
            {
              "internalType": "uint64",
              "name": "expirationTime",
              "type": "uint64"
            },
            {
              "internalType": "uint64",
              "name": "revocationTime",
              "type": "uint64"
            },
            {
              "internalType": "bytes32",
              "name": "refUID",
              "type": "bytes32"
            },
            {
              "internalType": "address",
              "name": "recipient",
              "type": "address"
            },
            {
              "internalType": "address",
              "name": "attester",
              "type": "address"
            },
            {
              "internalType": "bool",
              "name": "revocable",
              "type": "bool"
            },
            {
              "internalType": "bytes",
              "name": "data",
              "type": "bytes"
            }
          ],
          "internalType": "struct Attestation[]",
          "name": "attestations",
          "type": "tuple[]"
        },
        {
          "internalType": "uint256[]",
          "name": "values",
          "type": "uint256[]"
        }
      ],
      "name": "multiAttest",
      "outputs": [
        {
          "internalType": "bool",
          "name": "",
          "type": "bool"
        }
      ],
      "stateMutability": "payable",
      "type": "function"
    },
    {
      "inputs": [
        {
          "components": [
            {
              "internalType": "bytes32",
              "name": "uid",
              "type": "bytes32"
            },
            {
              "internalType": "bytes32",
              "name": "schema",
              "type": "bytes32"
            },
            {
              "internalType": "uint64",
              "name": "time",
              "type": "uint64"
            },
            {
              "internalType": "uint64",
              "name": "expirationTime",
              "type": "uint64"
            },
            {
              "internalType": "uint64",
              "name": "revocationTime",
              "type": "uint64"
            },
            {
              "internalType": "bytes32",
              "name": "refUID",
              "type": "bytes32"
            },
            {
              "internalType": "address",
              "name": "recipient",
              "type": "address"
            },
            {
              "internalType": "address",
              "name": "attester",
              "type": "address"
            },
            {
              "internalType": "bool",
              "name": "revocable",
              "type": "bool"
            },
            {
              "internalType": "bytes",
              "name": "data",
              "type": "bytes"
            }
          ],
          "internalType": "struct Attestation[]",
          "name": "attestations",
          "type": "tuple[]"
        },
        {
          "internalType": "uint256[]",
          "name": "values",
          "type": "uint256[]"
        }
      ],
      "name": "multiRevoke",
      "outputs": [
        {
          "internalType": "bool",
          "name": "",
          "type": "bool"
        }
      ],
      "stateMutability": "payable",
      "type": "function"
    },
    {
      "inputs": [
        {
          "internalType": "bytes32",
          "name": "schemaUID",
          "type": "bytes32"
        },
        {
          "internalType": "address",
          "name": "newAttester",
          "type": "address"
        }
      ],
      "name": "removeAttester",
      "outputs": [],
      "stateMutability": "nonpayable",
      "type": "function"
    },
    {
      "inputs": [
        {
          "internalType": "bytes32",
          "name": "schemaUID",
          "type": "bytes32"
        },
        {
          "internalType": "address",
          "name": "newRevoker",
          "type": "address"
        }
      ],
      "name": "removeRevoker",
      "outputs": [],
      "stateMutability": "nonpayable",
      "type": "function"
    },
    {
      "inputs": [
        {
          "internalType": "bytes32",
          "name": "role",
          "type": "bytes32"
        },
        {
          "internalType": "address",
          "name": "account",
          "type": "address"
        }
      ],
      "name": "renounceRole",
      "outputs": [],
      "stateMutability": "nonpayable",
      "type": "function"
    },
    {
      "inputs": [
        {
          "components": [
            {
              "internalType": "bytes32",
              "name": "uid",
              "type": "bytes32"
            },
            {
              "internalType": "bytes32",
              "name": "schema",
              "type": "bytes32"
            },
            {
              "internalType": "uint64",
              "name": "time",
              "type": "uint64"
            },
            {
              "internalType": "uint64",
              "name": "expirationTime",
              "type": "uint64"
            },
            {
              "internalType": "uint64",
              "name": "revocationTime",
              "type": "uint64"
            },
            {
              "internalType": "bytes32",
              "name": "refUID",
              "type": "bytes32"
            },
            {
              "internalType": "address",
              "name": "recipient",
              "type": "address"
            },
            {
              "internalType": "address",
              "name": "attester",
              "type": "address"
            },
            {
              "internalType": "bool",
              "name": "revocable",
              "type": "bool"
            },
            {
              "internalType": "bytes",
              "name": "data",
              "type": "bytes"
            }
          ],
          "internalType": "struct Attestation",
          "name": "attestation",
          "type": "tuple"
        }
      ],
      "name": "revoke",
      "outputs": [
        {
          "internalType": "bool",
          "name": "",
          "type": "bool"
        }
      ],
      "stateMutability": "payable",
      "type": "function"
    },
    {
      "inputs": [
        {
          "internalType": "bytes32",
          "name": "role",
          "type": "bytes32"
        },
        {
          "internalType": "address",
          "name": "account",
          "type": "address"
        }
      ],
      "name": "revokeRole",
      "outputs": [],
      "stateMutability": "nonpayable",
      "type": "function"
    },
    {
      "inputs": [],
      "name": "splitterFactory",
      "outputs": [
        {
          "internalType": "address",
          "name": "",
          "type": "address"
        }
      ],
      "stateMutability": "view",
      "type": "function"
    },
    {
      "inputs": [
        {
          "internalType": "bytes4",
          "name": "interfaceId",
          "type": "bytes4"
        }
      ],
      "name": "supportsInterface",
      "outputs": [
        {
          "internalType": "bool",
          "name": "",
          "type": "bool"
        }
      ],
      "stateMutability": "view",
      "type": "function"
    },
    {
      "inputs": [],
      "name": "version",
      "outputs": [
        {
          "internalType": "string",
          "name": "",
          "type": "string"
        }
      ],
      "stateMutability": "view",
      "type": "function"
    },
    {
      "stateMutability": "payable",
      "type": "receive"
    }
  ],
  "transactionHash": "0x8ed8c5f2d746c8a19f67a19370c6c0de1317e5490dbd500c04056e080ac6abf0",
  "args": [
    "0xE1Cd5CDd0D551ffA89F6F0519Cab9Cc8adE7E94c",
    "0x40372A54Dc281aD6Eaca99009fF865Bbb90468E8",
    "0x30ACFDAF72fDF437eFee3202C16B3352327Cf84a",
    "0xFd3bbCc267E399aD0708CC934709C679681016fd"
  ],
  "numDeployments": 2,
  "solcInputHash": "9072156d7f3fde666d0df55fca30b6d3",
  "bytecode": "0x610100604052600480546001600160a01b031916301790553480156200002457600080fd5b5060405162002661380380620026618339810160408190526200004791620000e1565b6000608081905260a052600160c052836001600160a01b0381166200007f5760405163120d8e6b60e21b815260040160405180910390fd5b6001600160a01b0390811660e052600180549382166001600160a01b03199485161790556002805494821694841694909417909355600580549190931691161790555062000149565b6001600160a01b0381168114620000de57600080fd5b50565b60008060008060808587031215620000f857600080fd5b84516200010581620000c8565b60208601519094506200011881620000c8565b60408601519093506200012b81620000c8565b60608601519092506200013e81620000c8565b939692955090935050565b60805160a05160c05160e0516124de62000183600039600061161401526000610b0001526000610ad701526000610aae01526124de6000f3fe6080604052600436106101635760003560e01c80637d294e62116100c0578063ce46e04611610074578063e49617e111610059578063e49617e114610428578063e60c35051461043b578063ea0597cd1461044e57600080fd5b8063ce46e046146103f4578063d547741f1461040857600080fd5b806391d14854116100a557806391d148541461037b57806391db0b7e146103cc578063a217fddf146103df57600080fd5b80637d294e621461034857806388e5b2d91461036857600080fd5b806336568abe116101175780633c7ab95c116100fc5780633c7ab95c146102b457806354fd4d50146102d45780635608d9e5146102f657600080fd5b806336568abe146102745780633b0adc291461029457600080fd5b8063243fc55f11610148578063243fc55f146101f6578063248a9ca3146102165780632f2ff15d1461025457600080fd5b806301ffc9a7146101a15780630fa66081146101d657600080fd5b3661019c576040517f1574f9f300000000000000000000000000000000000000000000000000000000815260040160405180910390fd5b005b600080fd5b3480156101ad57600080fd5b506101c16101bc366004611c1b565b61046e565b60405190151581526020015b60405180910390f35b3480156101e257600080fd5b5061019a6101f1366004611e77565b610507565b34801561020257600080fd5b5061019a610211366004611f7e565b610677565b34801561022257600080fd5b50610246610231366004611faa565b60009081526020819052604090206001015490565b6040519081526020016101cd565b34801561026057600080fd5b5061019a61026f366004611f7e565b610798565b34801561028057600080fd5b5061019a61028f366004611f7e565b6107bd565b3480156102a057600080fd5b5061019a6102af366004611f7e565b610875565b3480156102c057600080fd5b5061019a6102cf366004611f7e565b61098b565b3480156102e057600080fd5b506102e9610aa7565b6040516101cd9190612013565b34801561030257600080fd5b506002546103239073ffffffffffffffffffffffffffffffffffffffff1681565b60405173ffffffffffffffffffffffffffffffffffffffff90911681526020016101cd565b34801561035457600080fd5b506101c1610363366004612026565b610b4a565b6101c161037636600461209c565b610c95565b34801561038757600080fd5b506101c1610396366004611f7e565b60009182526020828152604080842073ffffffffffffffffffffffffffffffffffffffff93909316845291905290205460ff1690565b6101c16103da36600461209c565b610d96565b3480156103eb57600080fd5b50610246600081565b34801561040057600080fd5b5060006101c1565b34801561041457600080fd5b5061019a610423366004611f7e565b610e87565b6101c1610436366004612108565b610eac565b6101c1610449366004612108565b610ec5565b34801561045a57600080fd5b5061019a610469366004611f7e565b610ed9565b60007fffffffff0000000000000000000000000000000000000000000000000000000082167f7965db0b00000000000000000000000000000000000000000000000000000000148061050157507f01ffc9a7000000000000000000000000000000000000000000000000000000007fffffffff000000000000000000000000000000000000000000000000000000008316145b92915050565b600180546040805160c08101825286815260208101869052808201859052606081018990526004805473ffffffffffffffffffffffffffffffffffffffff908116608084015260a083019590955291517f61a4434c000000000000000000000000000000000000000000000000000000008152600094909316926361a4434c92610592929101612144565b6020604051808303816000875af11580156105b1573d6000803e3d6000fd5b505050506040513d601f19601f820116820180604052508101906105d59190612231565b8851909150600081900361061b57600082815260036020526040902080547fffffffffffffffffffffffffffffffffffffffffffffffffffffffffffffff001660011790555b8751600081900361065f57600083815260036020526040902080547fffffffffffffffffffffffffffffffffffffffffffffffffffffffffffff00ff166101001790555b61066b838b8b8a610fef565b50505050505050505050565b6106b6826040518060400160405280600581526020017f41444d494e000000000000000000000000000000000000000000000000000000815250611357565b6106bf8161138a565b6005546040517f06b8e51d0000000000000000000000000000000000000000000000000000000081526004810185905273ffffffffffffffffffffffffffffffffffffffff8481166024830152909116906306b8e51d90604401600060405180830381600087803b15801561073357600080fd5b505af1158015610747573d6000803e3d6000fd5b5050505061079361078d846040518060400160405280600881526020017f4154544553544552000000000000000000000000000000000000000000000000815250611357565b83611397565b505050565b6000828152602081905260409020600101546107b38161138a565b610793838361144e565b73ffffffffffffffffffffffffffffffffffffffff81163314610867576040517f08c379a000000000000000000000000000000000000000000000000000000000815260206004820152602f60248201527f416363657373436f6e74726f6c3a2063616e206f6e6c792072656e6f756e636560448201527f20726f6c657320666f722073656c66000000000000000000000000000000000060648201526084015b60405180910390fd5b6108718282611397565b5050565b6108b4826040518060400160405280600581526020017f41444d494e000000000000000000000000000000000000000000000000000000815250611357565b6108bd8161138a565b6005546040517f9df415660000000000000000000000000000000000000000000000000000000081526004810185905273ffffffffffffffffffffffffffffffffffffffff848116602483015290911690639df4156690604401600060405180830381600087803b15801561093157600080fd5b505af1158015610945573d6000803e3d6000fd5b5050505061079361078d846040518060400160405280600781526020017f5245564f4b455200000000000000000000000000000000000000000000000000815250611357565b6109ca826040518060400160405280600581526020017f41444d494e000000000000000000000000000000000000000000000000000000815250611357565b6109d38161138a565b6005546040517f06b8e51d0000000000000000000000000000000000000000000000000000000081526004810185905273ffffffffffffffffffffffffffffffffffffffff8481166024830152909116906306b8e51d90604401600060405180830381600087803b158015610a4757600080fd5b505af1158015610a5b573d6000803e3d6000fd5b50505050610793610aa1846040518060400160405280600881526020017f4154544553544552000000000000000000000000000000000000000000000000815250611357565b8361144e565b6060610ad27f000000000000000000000000000000000000000000000000000000000000000061153e565b610afb7f000000000000000000000000000000000000000000000000000000000000000061153e565b610b247f000000000000000000000000000000000000000000000000000000000000000061153e565b604051602001610b369392919061224a565b604051602081830303815290604052905090565b6000610bc2610b8e836040518060400160405280600781526020017f5245564f4b455200000000000000000000000000000000000000000000000000815250611357565b60009081526020818152604080832073ffffffffffffffffffffffffffffffffffffffff8816845290915290205460ff1690565b80610c5b5750610c5b82604051602001610c139181526040602082018190526008908201527f4154544553544552000000000000000000000000000000000000000000000000606082015260800190565b60408051601f198184030181529181528151602092830120600090815280835281812073ffffffffffffffffffffffffffffffffffffffff8816825290925290205460ff1690565b15610c6857506001610501565b60008281526003602052604090205462010000900460ff16610c8c57506001610501565b50600092915050565b6000610c9f6115fc565b83828114610cd9576040517f947d5a8400000000000000000000000000000000000000000000000000000000815260040160405180910390fd5b3460005b82811015610d86576000868683818110610cf957610cf96122c0565b90506020020135905082811115610d3c576040517f1101129400000000000000000000000000000000000000000000000000000000815260040160405180910390fd5b610d69898984818110610d5157610d516122c0565b9050602002810190610d6391906122ef565b8261166d565b610d7a576000945050505050610d8e565b90910390600101610cdd565b506001925050505b949350505050565b6000610da06115fc565b83828114610dda576040517f947d5a8400000000000000000000000000000000000000000000000000000000815260040160405180910390fd5b3460005b82811015610d86576000868683818110610dfa57610dfa6122c0565b90506020020135905082811115610e3d576040517f1101129400000000000000000000000000000000000000000000000000000000815260040160405180910390fd5b610e6a898984818110610e5257610e526122c0565b9050602002810190610e6491906122ef565b82611712565b610e7b576000945050505050610d8e565b90910390600101610dde565b600082815260208190526040902060010154610ea28161138a565b6107938383611397565b6000610eb66115fc565b610501823461166d565b919050565b6000610ecf6115fc565b6105018234611712565b610f18826040518060400160405280600581526020017f41444d494e000000000000000000000000000000000000000000000000000000815250611357565b610f218161138a565b6005546040517f9df415660000000000000000000000000000000000000000000000000000000081526004810185905273ffffffffffffffffffffffffffffffffffffffff848116602483015290911690639df4156690604401600060405180830381600087803b158015610f9557600080fd5b505af1158015610fa9573d6000803e3d6000fd5b50505050610793610aa1846040518060400160405280600781526020017f5245564f4b455200000000000000000000000000000000000000000000000000815250611357565b60008481526003602090815260409182902080547fffffffffffffffffffffffffffffffffffffffffffffffffffffffffff00ffff1662010000851515021790558151808301909252600582527f41444d494e0000000000000000000000000000000000000000000000000000009082015261107690611070908690611357565b3261144e565b6005546040517f4b9293fd00000000000000000000000000000000000000000000000000000000815260048101869052821515602482015273ffffffffffffffffffffffffffffffffffffffff90911690634b9293fd90604401600060405180830381600087803b1580156110ea57600080fd5b505af11580156110fe573d6000803e3d6000fd5b5050505060005b835181101561122f57600554845173ffffffffffffffffffffffffffffffffffffffff909116906306b8e51d908790879085908110611146576111466122c0565b60200260200101516040518363ffffffff1660e01b815260040161118a92919091825273ffffffffffffffffffffffffffffffffffffffff16602082015260400190565b600060405180830381600087803b1580156111a457600080fd5b505af11580156111b8573d6000803e3d6000fd5b5050505061121d6111fe866040518060400160405280600881526020017f4154544553544552000000000000000000000000000000000000000000000000815250611357565b858381518110611210576112106122c0565b602002602001015161144e565b806112278161235c565b915050611105565b5060005b825181101561135057600554835173ffffffffffffffffffffffffffffffffffffffff90911690639df41566908790869085908110611274576112746122c0565b60200260200101516040518363ffffffff1660e01b81526004016112b892919091825273ffffffffffffffffffffffffffffffffffffffff16602082015260400190565b600060405180830381600087803b1580156112d257600080fd5b505af11580156112e6573d6000803e3d6000fd5b5050505061133e61132c866040518060400160405280600781526020017f5245564f4b455200000000000000000000000000000000000000000000000000815250611357565b848381518110611210576112106122c0565b806113488161235c565b915050611233565b5050505050565b6000828260405160200161136c929190612394565b60405160208183030381529060405280519060200120905092915050565b6113948133611836565b50565b60008281526020818152604080832073ffffffffffffffffffffffffffffffffffffffff8516845290915290205460ff16156108715760008281526020818152604080832073ffffffffffffffffffffffffffffffffffffffff8516808552925280832080547fffffffffffffffffffffffffffffffffffffffffffffffffffffffffffffff0016905551339285917ff6391f5c32d9c69d2a47ea670b442974b53935d1edc7fd64eb21e047a839171b9190a45050565b60008281526020818152604080832073ffffffffffffffffffffffffffffffffffffffff8516845290915290205460ff166108715760008281526020818152604080832073ffffffffffffffffffffffffffffffffffffffff85168452909152902080547fffffffffffffffffffffffffffffffffffffffffffffffffffffffffffffff001660011790556114e03390565b73ffffffffffffffffffffffffffffffffffffffff168173ffffffffffffffffffffffffffffffffffffffff16837f2f8788117e7eff1d82e926ec794901d17c78024a50270940304540a733656f0d60405160405180910390a45050565b6060600061154b836118d0565b600101905060008167ffffffffffffffff81111561156b5761156b611c5d565b6040519080825280601f01601f191660200182016040528015611595576020820181803683370190505b5090508181016020015b7fffffffffffffffffffffffffffffffffffffffffffffffffffffffffffffffff017f3031323334353637383961626364656600000000000000000000000000000000600a86061a8153600a850494508461159f57509392505050565b3373ffffffffffffffffffffffffffffffffffffffff7f0000000000000000000000000000000000000000000000000000000000000000161461166b576040517f4ca8886700000000000000000000000000000000000000000000000000000000815260040160405180910390fd5b565b602082810135600081815260039092526040822054610100900460ff1615611699576001915050610501565b6116f96116db826040518060400160405280600781526020017f5245564f4b455200000000000000000000000000000000000000000000000000815250611357565b60009081526020818152604080832032845290915290205460ff1690565b15611708576001915050610501565b5060009392505050565b600080611726610100850160e086016123ad565b602080860135600081815260039092526040909120549192509060ff161561175357600192505050610501565b6117c9611795826040518060400160405280600881526020017f4154544553544552000000000000000000000000000000000000000000000000815250611357565b60009081526020818152604080832073ffffffffffffffffffffffffffffffffffffffff8716845290915290205460ff1690565b156117d957600192505050610501565b61181b6116db826040518060400160405280600881526020017f4154544553544552000000000000000000000000000000000000000000000000815250611357565b1561182b57600192505050610501565b506000949350505050565b60008281526020818152604080832073ffffffffffffffffffffffffffffffffffffffff8516845290915290205460ff1661087157611874816119b2565b61187f8360206119d1565b6040516020016118909291906123c8565b60408051601f19818403018152908290527f08c379a000000000000000000000000000000000000000000000000000000000825261085e91600401612013565b6000807a184f03e93ff9f4daa797ed6e38ed64bf6a1f0100000000000000008310611919577a184f03e93ff9f4daa797ed6e38ed64bf6a1f010000000000000000830492506040015b6d04ee2d6d415b85acef81000000008310611945576d04ee2d6d415b85acef8100000000830492506020015b662386f26fc10000831061196357662386f26fc10000830492506010015b6305f5e100831061197b576305f5e100830492506008015b612710831061198f57612710830492506004015b606483106119a1576064830492506002015b600a83106105015760010192915050565b606061050173ffffffffffffffffffffffffffffffffffffffff831660145b606060006119e0836002612449565b6119eb906002612460565b67ffffffffffffffff811115611a0357611a03611c5d565b6040519080825280601f01601f191660200182016040528015611a2d576020820181803683370190505b5090507f300000000000000000000000000000000000000000000000000000000000000081600081518110611a6457611a646122c0565b60200101907effffffffffffffffffffffffffffffffffffffffffffffffffffffffffffff1916908160001a9053507f780000000000000000000000000000000000000000000000000000000000000081600181518110611ac757611ac76122c0565b60200101907effffffffffffffffffffffffffffffffffffffffffffffffffffffffffffff1916908160001a9053506000611b03846002612449565b611b0e906001612460565b90505b6001811115611bab577f303132333435363738396162636465660000000000000000000000000000000085600f1660108110611b4f57611b4f6122c0565b1a60f81b828281518110611b6557611b656122c0565b60200101907effffffffffffffffffffffffffffffffffffffffffffffffffffffffffffff1916908160001a90535060049490941c93611ba481612473565b9050611b11565b508315611c14576040517f08c379a000000000000000000000000000000000000000000000000000000000815260206004820181905260248201527f537472696e67733a20686578206c656e67746820696e73756666696369656e74604482015260640161085e565b9392505050565b600060208284031215611c2d57600080fd5b81357fffffffff0000000000000000000000000000000000000000000000000000000081168114611c1457600080fd5b7f4e487b7100000000000000000000000000000000000000000000000000000000600052604160045260246000fd5b604051601f8201601f1916810167ffffffffffffffff81118282101715611cb557611cb5611c5d565b604052919050565b600067ffffffffffffffff821115611cd757611cd7611c5d565b5060051b60200190565b803573ffffffffffffffffffffffffffffffffffffffff81168114610ec057600080fd5b600082601f830112611d1657600080fd5b81356020611d2b611d2683611cbd565b611c8c565b82815260059290921b84018101918181019086841115611d4a57600080fd5b8286015b84811015611d6c57611d5f81611ce1565b8352918301918301611d4e565b509695505050505050565b600082601f830112611d8857600080fd5b813567ffffffffffffffff811115611da257611da2611c5d565b611db56020601f19601f84011601611c8c565b818152846020838601011115611dca57600080fd5b816020850160208301376000918101602001919091529392505050565b600082601f830112611df857600080fd5b81356020611e08611d2683611cbd565b82815260059290921b84018101918181019086841115611e2757600080fd5b8286015b84811015611d6c57803567ffffffffffffffff811115611e4b5760008081fd5b611e598986838b0101611d77565b845250918301918301611e2b565b80358015158114610ec057600080fd5b600080600080600080600060e0888a031215611e9257600080fd5b873567ffffffffffffffff80821115611eaa57600080fd5b611eb68b838c01611d05565b985060208a0135915080821115611ecc57600080fd5b611ed88b838c01611d05565b975060408a0135915080821115611eee57600080fd5b611efa8b838c01611de7565b9650611f0860608b01611e67565b955060808a0135915080821115611f1e57600080fd5b611f2a8b838c01611d77565b945060a08a0135915080821115611f4057600080fd5b611f4c8b838c01611d77565b935060c08a0135915080821115611f6257600080fd5b50611f6f8a828b01611d77565b91505092959891949750929550565b60008060408385031215611f9157600080fd5b82359150611fa160208401611ce1565b90509250929050565b600060208284031215611fbc57600080fd5b5035919050565b60005b83811015611fde578181015183820152602001611fc6565b50506000910152565b60008151808452611fff816020860160208601611fc3565b601f01601f19169290920160200192915050565b602081526000611c146020830184611fe7565b6000806040838503121561203957600080fd5b61204283611ce1565b946020939093013593505050565b60008083601f84011261206257600080fd5b50813567ffffffffffffffff81111561207a57600080fd5b6020830191508360208260051b850101111561209557600080fd5b9250929050565b600080600080604085870312156120b257600080fd5b843567ffffffffffffffff808211156120ca57600080fd5b6120d688838901612050565b909650945060208701359150808211156120ef57600080fd5b506120fc87828801612050565b95989497509550505050565b60006020828403121561211a57600080fd5b813567ffffffffffffffff81111561213157600080fd5b82016101408185031215611c1457600080fd5b60006020808352835160c08285015261216060e0850182611fe7565b905081850151601f198086840301604087015261217d8383611fe7565b9250604087015191508086840301606087015261219a8383611fe7565b60608801518782038301608089015280518083529194508501925084840190600581901b8501860160005b828110156121f157848783030184526121df828751611fe7565b958801959388019391506001016121c5565b5060808a015173ffffffffffffffffffffffffffffffffffffffff811660a08b0152965060a08a015180151560c08b015296509998505050505050505050565b60006020828403121561224357600080fd5b5051919050565b6000845161225c818460208901611fc3565b80830190507f2e000000000000000000000000000000000000000000000000000000000000008082528551612298816001850160208a01611fc3565b600192019182015283516122b3816002840160208801611fc3565b0160020195945050505050565b7f4e487b7100000000000000000000000000000000000000000000000000000000600052603260045260246000fd5b600082357ffffffffffffffffffffffffffffffffffffffffffffffffffffffffffffffec183360301811261232357600080fd5b9190910192915050565b7f4e487b7100000000000000000000000000000000000000000000000000000000600052601160045260246000fd5b60007fffffffffffffffffffffffffffffffffffffffffffffffffffffffffffffffff820361238d5761238d61232d565b5060010190565b828152604060208201526000610d8e6040830184611fe7565b6000602082840312156123bf57600080fd5b611c1482611ce1565b7f416363657373436f6e74726f6c3a206163636f756e7420000000000000000000815260008351612400816017850160208801611fc3565b7f206973206d697373696e6720726f6c6520000000000000000000000000000000601791840191820152835161243d816028840160208801611fc3565b01602801949350505050565b80820281158282048414176105015761050161232d565b808201808211156105015761050161232d565b6000816124825761248261232d565b507fffffffffffffffffffffffffffffffffffffffffffffffffffffffffffffffff019056fea2646970667358221220efa69821ca9672824f9332a61b6e756d89c6dd534b7886c8c6eaca07e1ec46dc64736f6c63430008130033",
  "devdoc": {
    "events": {
      "RoleAdminChanged(bytes32,bytes32,bytes32)": {
        "details": "Emitted when `newAdminRole` is set as ``role``'s admin role, replacing `previousAdminRole` `DEFAULT_ADMIN_ROLE` is the starting admin for all roles, despite {RoleAdminChanged} not being emitted signaling this. _Available since v3.1._"
      },
      "RoleGranted(bytes32,address,address)": {
        "details": "Emitted when `account` is granted `role`. `sender` is the account that originated the contract call, an admin role bearer except when using {AccessControl-_setupRole}."
      },
      "RoleRevoked(bytes32,address,address)": {
        "details": "Emitted when `account` is revoked `role`. `sender` is the account that originated the contract call:   - if using `revokeRole`, it is the admin role bearer   - if using `renounceRole`, it is the role bearer (i.e. `account`)"
      }
    },
    "kind": "dev",
    "methods": {
      "attest((bytes32,bytes32,uint64,uint64,uint64,bytes32,address,address,bool,bytes))": {
        "params": {
          "attestation": "The new attestation."
        },
        "returns": {
          "_0": "Whether the attestation is valid."
        }
      },
      "getRoleAdmin(bytes32)": {
        "details": "Returns the admin role that controls `role`. See {grantRole} and {revokeRole}. To change a role's admin, use {_setRoleAdmin}."
      },
      "grantRole(bytes32,address)": {
        "details": "Grants `role` to `account`. If `account` had not been already granted `role`, emits a {RoleGranted} event. Requirements: - the caller must have ``role``'s admin role. May emit a {RoleGranted} event."
      },
      "hasRole(bytes32,address)": {
        "details": "Returns `true` if `account` has been granted `role`."
      },
      "isPayable()": {
        "returns": {
          "_0": "True, indicating that the contract can accept payments."
        }
      },
      "multiAttest((bytes32,bytes32,uint64,uint64,uint64,bytes32,address,address,bool,bytes)[],uint256[])": {
        "params": {
          "attestations": "The new attestations.",
          "values": "Explicit ETH amounts which were sent with each attestation."
        },
        "returns": {
          "_0": "Whether all the attestations are valid."
        }
      },
      "multiRevoke((bytes32,bytes32,uint64,uint64,uint64,bytes32,address,address,bool,bytes)[],uint256[])": {
        "params": {
          "attestations": "The existing attestations to be revoked.",
          "values": "Explicit ETH amounts which were sent with each revocation."
        },
        "returns": {
          "_0": "Whether the attestations can be revoked."
        }
      },
      "renounceRole(bytes32,address)": {
        "details": "Revokes `role` from the calling account. Roles are often managed via {grantRole} and {revokeRole}: this function's purpose is to provide a mechanism for accounts to lose their privileges if they are compromised (such as when a trusted device is misplaced). If the calling account had been revoked `role`, emits a {RoleRevoked} event. Requirements: - the caller must be `account`. May emit a {RoleRevoked} event."
      },
      "revoke((bytes32,bytes32,uint64,uint64,uint64,bytes32,address,address,bool,bytes))": {
        "params": {
          "attestation": "The existing attestation to be revoked."
        },
        "returns": {
          "_0": "Whether the attestation can be revoked."
        }
      },
      "revokeRole(bytes32,address)": {
        "details": "Revokes `role` from `account`. If `account` had been granted `role`, emits a {RoleRevoked} event. Requirements: - the caller must have ``role``'s admin role. May emit a {RoleRevoked} event."
      },
      "supportsInterface(bytes4)": {
        "details": "See {IERC165-supportsInterface}."
      },
      "version()": {
        "returns": {
          "_0": "Semver contract version as a string."
        }
      }
    },
    "title": "ACResolver",
    "version": 1
  },
  "userdoc": {
    "kind": "user",
    "methods": {
      "attest((bytes32,bytes32,uint64,uint64,uint64,bytes32,address,address,bool,bytes))": {
        "notice": "Processes an attestation and verifies whether it's valid."
      },
      "isPayable()": {
        "notice": "Indicates whether the contract is designed to handle incoming payments."
      },
      "multiAttest((bytes32,bytes32,uint64,uint64,uint64,bytes32,address,address,bool,bytes)[],uint256[])": {
        "notice": "Processes multiple attestations and verifies whether they are valid."
      },
      "multiRevoke((bytes32,bytes32,uint64,uint64,uint64,bytes32,address,address,bool,bytes)[],uint256[])": {
        "notice": "Processes revocation of multiple attestation and verifies they can be revoked."
      },
      "revoke((bytes32,bytes32,uint64,uint64,uint64,bytes32,address,address,bool,bytes))": {
        "notice": "Processes an attestation revocation and verifies if it can be revoked."
      },
      "version()": {
        "notice": "Returns the full semver contract version."
      }
    },
    "notice": "A schema resolver subcription to content example",
    "version": 1
  },
  "storageLayout": {
    "storage": [
      {
        "astId": 24,
        "contract": "contracts/resolver/examples/ACResolver.sol:ACResolver",
        "label": "_roles",
        "offset": 0,
        "slot": "0",
        "type": "t_mapping(t_bytes32,t_struct(RoleData)19_storage)"
      },
      {
        "astId": 9354,
        "contract": "contracts/resolver/examples/ACResolver.sol:ACResolver",
        "label": "schemaRegistry",
        "offset": 0,
        "slot": "1",
        "type": "t_contract(ISchemaRegistry)5556"
      },
      {
        "astId": 9356,
        "contract": "contracts/resolver/examples/ACResolver.sol:ACResolver",
        "label": "splitterFactory",
        "offset": 0,
        "slot": "2",
        "type": "t_address"
      },
      {
        "astId": 9368,
        "contract": "contracts/resolver/examples/ACResolver.sol:ACResolver",
        "label": "schemas",
        "offset": 0,
        "slot": "3",
        "type": "t_mapping(t_bytes32,t_struct(SchemaInfo)9363_storage)"
      },
      {
        "astId": 9377,
        "contract": "contracts/resolver/examples/ACResolver.sol:ACResolver",
        "label": "resolver",
        "offset": 0,
        "slot": "4",
        "type": "t_contract(ISchemaResolver)9007"
      },
      {
        "astId": 9380,
        "contract": "contracts/resolver/examples/ACResolver.sol:ACResolver",
        "label": "tableland",
        "offset": 0,
        "slot": "5",
        "type": "t_contract(IACResolverIndexer)10572"
      }
    ],
    "types": {
      "t_address": {
        "encoding": "inplace",
        "label": "address",
        "numberOfBytes": "20"
      },
      "t_bool": {
        "encoding": "inplace",
        "label": "bool",
        "numberOfBytes": "1"
      },
      "t_bytes32": {
        "encoding": "inplace",
        "label": "bytes32",
        "numberOfBytes": "32"
      },
      "t_contract(IACResolverIndexer)10572": {
        "encoding": "inplace",
        "label": "contract IACResolverIndexer",
        "numberOfBytes": "20"
      },
      "t_contract(ISchemaRegistry)5556": {
        "encoding": "inplace",
        "label": "contract ISchemaRegistry",
        "numberOfBytes": "20"
      },
      "t_contract(ISchemaResolver)9007": {
        "encoding": "inplace",
        "label": "contract ISchemaResolver",
        "numberOfBytes": "20"
      },
      "t_mapping(t_address,t_bool)": {
        "encoding": "mapping",
        "key": "t_address",
        "label": "mapping(address => bool)",
        "numberOfBytes": "32",
        "value": "t_bool"
      },
      "t_mapping(t_bytes32,t_struct(RoleData)19_storage)": {
        "encoding": "mapping",
        "key": "t_bytes32",
        "label": "mapping(bytes32 => struct AccessControl.RoleData)",
        "numberOfBytes": "32",
        "value": "t_struct(RoleData)19_storage"
      },
      "t_mapping(t_bytes32,t_struct(SchemaInfo)9363_storage)": {
        "encoding": "mapping",
        "key": "t_bytes32",
        "label": "mapping(bytes32 => struct ACResolver.SchemaInfo)",
        "numberOfBytes": "32",
        "value": "t_struct(SchemaInfo)9363_storage"
      },
      "t_struct(RoleData)19_storage": {
        "encoding": "inplace",
        "label": "struct AccessControl.RoleData",
        "members": [
          {
            "astId": 16,
            "contract": "contracts/resolver/examples/ACResolver.sol:ACResolver",
            "label": "members",
            "offset": 0,
            "slot": "0",
            "type": "t_mapping(t_address,t_bool)"
          },
          {
            "astId": 18,
            "contract": "contracts/resolver/examples/ACResolver.sol:ACResolver",
            "label": "adminRole",
            "offset": 0,
            "slot": "1",
            "type": "t_bytes32"
          }
        ],
        "numberOfBytes": "64"
      },
      "t_struct(SchemaInfo)9363_storage": {
        "encoding": "inplace",
        "label": "struct ACResolver.SchemaInfo",
        "members": [
          {
            "astId": 9358,
            "contract": "contracts/resolver/examples/ACResolver.sol:ACResolver",
            "label": "AllowAllToAttest",
            "offset": 0,
            "slot": "0",
            "type": "t_bool"
          },
          {
            "astId": 9360,
            "contract": "contracts/resolver/examples/ACResolver.sol:ACResolver",
            "label": "AllowAllToRevoke",
            "offset": 1,
            "slot": "0",
            "type": "t_bool"
          },
          {
            "astId": 9362,
            "contract": "contracts/resolver/examples/ACResolver.sol:ACResolver",
            "label": "encrypted",
            "offset": 2,
            "slot": "0",
            "type": "t_bool"
          }
        ],
        "numberOfBytes": "32"
      }
    }
  }
}