{
  "address": "0xeaCc26328df7c59301a4A7F82D59B13a94d7F573",
  "abi": [
    {
      "inputs": [],
      "stateMutability": "nonpayable",
      "type": "constructor"
    },
    {
      "inputs": [
        {
          "internalType": "uint256",
          "name": "chainid",
          "type": "uint256"
        }
      ],
      "name": "ChainNotSupported",
      "type": "error"
    },
    {
      "anonymous": false,
      "inputs": [
        {
          "indexed": true,
          "internalType": "address",
          "name": "previousOwner",
          "type": "address"
        },
        {
          "indexed": true,
          "internalType": "address",
          "name": "newOwner",
          "type": "address"
        }
      ],
      "name": "OwnershipTransferred",
      "type": "event"
    },
    {
      "inputs": [
        {
          "internalType": "bytes32",
          "name": "schemaUID",
          "type": "bytes32"
        },
        {
          "internalType": "address",
          "name": "attester",
          "type": "address"
        }
      ],
      "name": "AddSchemaAttester",
      "outputs": [],
      "stateMutability": "nonpayable",
      "type": "function"
    },
    {
      "inputs": [
        {
          "internalType": "bytes32",
          "name": "schemaUID",
          "type": "bytes32"
        },
        {
          "internalType": "bool",
          "name": "encrypted",
          "type": "bool"
        }
      ],
      "name": "AddSchemaInfo",
      "outputs": [],
      "stateMutability": "nonpayable",
      "type": "function"
    },
    {
      "inputs": [
        {
          "internalType": "bytes32",
          "name": "schemaUID",
          "type": "bytes32"
        },
        {
          "internalType": "address",
          "name": "revoker",
          "type": "address"
        }
      ],
      "name": "AddSchemaRevoker",
      "outputs": [],
      "stateMutability": "nonpayable",
      "type": "function"
    },
    {
      "inputs": [
        {
          "internalType": "bytes32",
          "name": "data",
          "type": "bytes32"
        }
      ],
      "name": "bytes32ToString",
      "outputs": [
        {
          "internalType": "string",
          "name": "",
          "type": "string"
        }
      ],
      "stateMutability": "pure",
      "type": "function"
    },
    {
      "inputs": [
        {
          "internalType": "address",
          "name": "",
          "type": "address"
        },
        {
          "internalType": "address",
          "name": "",
          "type": "address"
        },
        {
          "internalType": "uint256",
          "name": "",
          "type": "uint256"
        },
        {
          "internalType": "bytes",
          "name": "",
          "type": "bytes"
        }
      ],
      "name": "onERC721Received",
      "outputs": [
        {
          "internalType": "bytes4",
          "name": "",
          "type": "bytes4"
        }
      ],
      "stateMutability": "pure",
      "type": "function"
    },
    {
      "inputs": [],
      "name": "owner",
      "outputs": [
        {
          "internalType": "address",
          "name": "",
          "type": "address"
        }
      ],
      "stateMutability": "view",
      "type": "function"
    },
    {
      "inputs": [],
      "name": "renounceOwnership",
      "outputs": [],
      "stateMutability": "nonpayable",
      "type": "function"
    },
    {
      "inputs": [
        {
          "internalType": "uint256",
          "name": "",
          "type": "uint256"
        }
      ],
      "name": "tables",
      "outputs": [
        {
          "internalType": "string",
          "name": "",
          "type": "string"
        }
      ],
      "stateMutability": "view",
      "type": "function"
    },
    {
      "inputs": [
        {
          "internalType": "address",
          "name": "newOwner",
          "type": "address"
        }
      ],
      "name": "transferOwnership",
      "outputs": [],
      "stateMutability": "nonpayable",
      "type": "function"
    }
  ],
  "transactionHash": "0x136cb67a2434919ee74aa73ff5dbc2afec520109c6fea2f173332d443d00550c",
  "args": [],
  "numDeployments": 1,
  "solcInputHash": "602eda1bdb9961fd18cad8476bd6baf8",
  "bytecode": "0x60806040523480156200001157600080fd5b506200001d33620003c7565b6200002762000417565b600160006101000a8154816001600160a01b0302191690836001600160a01b031602179055506002620000be6040518060400160405280601d81526020017f736368656d6155494420746578742c20617474657374657220746578740000008152506040518060400160405280601081526020016f736368656d615f61747465737465727360801b815250620005e460201b60201c565b81546001810183556000928352602090922090910190620000e0908262000943565b506002620001516040518060400160405280601c81526020017f736368656d6155494420746578742c207265766f6b65722074657874000000008152506040518060400160405280600f81526020016e736368656d615f7265766f6b65727360881b815250620005e460201b60201c565b8154600181018355600092835260209092209091019062000173908262000943565b506002620001bc6040518060600160405280602a81526020016200266c602a913960408051808201909152600b81526a736368656d615f696e666f60a81b6020820152620005e4565b81546001810183556000928352602090922090910190620001de908262000943565b506001546040516361a23d0f60e01b81526001600160a01b03909116906361a23d0f906200021490309060029060040162000b3c565b6000604051808303816000875af115801562000234573d6000803e3d6000fd5b505050506040513d6000823e601f3d908101601f191682016040526200025e919081019062000c76565b80516200027491600491602090910190620007ce565b506003620002d26040518060400160405280601081526020016f736368656d615f61747465737465727360801b8152506004600081548110620002bb57620002bb62000cb6565b90600052602060002001546200061f60201b60201c565b81546001810183556000928352602090922090910190620002f4908262000943565b5060036200033a6040518060400160405280600f81526020016e736368656d615f7265766f6b65727360881b8152506004600181548110620002bb57620002bb62000cb6565b815460018101835560009283526020909220909101906200035c908262000943565b5060036200039e6040518060400160405280600b81526020016a736368656d615f696e666f60a81b8152506004600281548110620002bb57620002bb62000cb6565b81546001810183556000928352602090922090910190620003c0908262000943565b5062000e11565b600080546001600160a01b038381166001600160a01b0319831681178455604051919092169283917f8be0079c531659141344cd1fd0a4f28419497f9722a3daafe3b4186f6b6457e09190a35050565b6000466001036200043b575073012969f7e3439a9b04025b5a049eb9bad82a8c1290565b46600a036200045d575073fad44bf5b843de943a09d4f3e84949a11d3aa3e690565b4661a4b103620004805750739abd75e8640871a5a20d3b4ee6330a04c962affd90565b4661a4ba03620004a35750731a22854c5b1642760a827f20137a67930ae108d290565b46608903620004c55750735c4e6a9e5c1e1bf445a062006faf19ea6c49afea90565b4661013a03620004e857507359ef8bf2d6c102b4c42aef9189e1a9f0abfd652d90565b4662aa36a7036200050c575073c50c62498448acc8dbde43da77f8d5d2e2c7597d90565b466101a4036200052f575073c72e8a7be04f2469f8c2db3f1bdf69a7d516abba90565b4662066eed0362000553575073033f69e8d119205089ab15d340f5b797732f646b90565b466201388103620005775750734b48841d4b32c4650e4abc117a03fe8b51f38f6890565b466204cb2f036200059b575073030bcf3d50cad04c2e57391b12740982a930862190565b46617a6903620005be575073e7f1725e7734ce288f8367e1bb143e90bb3f051290565b4660405163264e42cf60e01b8152600401620005db919062000cd3565b60405180910390fd5b606081620005f2466200064c565b84604051602001620006079392919062000d5d565b60405160208183030381529060405290505b92915050565b6060826200062d466200064c565b62000638846200064c565b604051602001620006079392919062000dcd565b606060006200065b83620006e5565b60010190506000816001600160401b038111156200067d576200067d62000835565b6040519080825280601f01601f191660200182016040528015620006a8576020820181803683370190505b5090508181016020015b600019016f181899199a1a9b1b9c1cb0b131b232b360811b600a86061a8153600a8504945084620006b257509392505050565b6000807a184f03e93ff9f4daa797ed6e38ed64bf6a1f01000000000000000083106200072f577a184f03e93ff9f4daa797ed6e38ed64bf6a1f010000000000000000830492506040015b6d04ee2d6d415b85acef810000000083106200075c576d04ee2d6d415b85acef8100000000830492506020015b662386f26fc1000083106200077b57662386f26fc10000830492506010015b6305f5e100831062000794576305f5e100830492506008015b6127108310620007a957612710830492506004015b60648310620007bc576064830492506002015b600a8310620006195760010192915050565b8280548282559060005260206000209081019282156200080c579160200282015b828111156200080c578251825591602001919060010190620007ef565b506200081a9291506200081e565b5090565b5b808211156200081a57600081556001016200081f565b634e487b7160e01b600052604160045260246000fd5b634e487b7160e01b600052602260045260246000fd5b6002810460018216806200087657607f821691505b6020821081036200088b576200088b6200084b565b50919050565b6000620006196200089f8381565b90565b620008ad8362000891565b815460001960089490940293841b1916921b91909117905550565b6000620008d7818484620008a2565b505050565b81811015620008fb57620008f2600082620008c8565b600101620008dc565b5050565b601f821115620008d7576000818152602090206020601f85010481016020851015620009285750805b6200093c6020601f860104830182620008dc565b5050505050565b81516001600160401b038111156200095f576200095f62000835565b6200096b825462000861565b62000978828285620008ff565b6020601f831160018114620009af5760008415620009965750858201515b600019600886021c198116600286021786555062000a0b565b600085815260208120601f198616915b82811015620009e15788850151825560209485019460019092019101620009bf565b86831015620009fe5784890151600019601f89166008021c191682555b6001600288020188555050505b505050505050565b60006001600160a01b03821662000619565b62000a308162000a13565b82525050565b6000815462000a458162000861565b80855260208501945060018216801562000a68576001811462000a7f5762000aaf565b60ff19831686526020821515028601935062000aaf565b60008581526020902060005b8381101562000aa95781548882015260019091019060200162000a8b565b87019450505b50505092915050565b600062000ac6838362000a36565b9392505050565b600062000ad8825490565b8084526020840193508360208202850162000af98560009081526020902090565b8060005b8581101562000b2f5784840389528162000b18858262000ab8565b60209a909a01999450506001918201910162000afd565b5091979650505050505050565b6040810162000b4c828562000a25565b818103602083015262000b60818462000acd565b949350505050565b601f19601f83011681018181106001600160401b038211171562000b905762000b9062000835565b6040525050565b600062000ba360405190565b905062000bb1828262000b68565b919050565b60006001600160401b0382111562000bd25762000bd262000835565b5060209081020190565b805162000619565b600062000bfb62000bf58462000bb6565b62000b97565b8381529050602080820190840283018581111562000c1c5762000c1c600080fd5b835b8181101562000c44578062000c34888262000bdc565b8452506020928301920162000c1e565b5050509392505050565b600082601f83011262000c645762000c64600080fd5b815162000b6084826020860162000be4565b60006020828403121562000c8d5762000c8d600080fd5b81516001600160401b0381111562000ca85762000ca8600080fd5b62000b608482850162000c4e565b634e487b7160e01b600052603260045260246000fd5b8062000a30565b6020810162000619828462000ccc565b60005b8381101562000d0057818101518382015260200162000ce6565b50506000910152565b600062000d14825190565b62000d2481856020860162000ce3565b9290920192915050565b605f60f81b815260005b5060010190565b600560fb1b8152600062000d38565b602960f81b8152600062000d38565b6c021a922a0aa22902a20a126229609d1b8152600d01600062000d81828662000d09565b915062000d8e8262000d2e565b915062000d9c828562000d09565b915062000da98262000d3f565b915062000db7828462000d09565b915062000dc48262000d4e565b95945050505050565b600062000ddb828662000d09565b915062000de88262000d2e565b915062000df6828562000d09565b915062000e038262000d2e565b915062000dc4828462000d09565b61184b8062000e216000396000f3fe608060405234801561001057600080fd5b50600436106100935760003560e01c806371671bf21161006657806371671bf2146100fd5780638da5cb5b1461011d5780639201de55146101365780639df4156614610149578063f2fde38b1461015c57600080fd5b806306b8e51d14610098578063150b7a02146100ad5780634b9293fd146100e2578063715018a6146100f5575b600080fd5b6100ab6100a6366004610e52565b61016f565b005b6100cc6100bb366004610ee1565b630a85bd0160e11b95945050505050565b6040516100d99190610f77565b60405180910390f35b6100ab6100f0366004610f98565b610293565b6100ab6103b4565b61011061010b366004610fcb565b6103c8565b6040516100d9919061104a565b6000546001600160a01b03166040516100d99190611064565b610110610144366004610fcb565b610474565b6100ab610157366004610e52565b61062d565b6100ab61016a366004611072565b61070b565b61017761074e565b620186a0600654600161018a91906110a9565b1061019757610197610778565b61027760046000815481106101ae576101ae6110bc565b90600052602060002001546102726040518060400160405280601081526020016f736368656d615f61747465737465727360801b81525060046000815481106101f9576101f96110bc565b90600052602060002001546040518060400160405280601381526020017239b1b432b6b0aaa4a2161030ba3a32b9ba32b960691b81525061024161023c89610474565b61095b565b61024d61023c89610984565b60405160200161025e9291906110f4565b6040516020818303038152906040526109a0565b6109df565b60016006600082825461028a91906110a9565b90915550505050565b61029b61074e565b6103b060046002815481106102b2576102b26110bc565b90600052602060002001546102726040518060400160405280600b81526020016a736368656d615f696e666f60a81b81525060046002815481106102f8576102f86110bc565b90600052602060002001546040518060400160405280601b81526020017f736368656d615549442c20656e637279707465642c2061646d696e000000000081525061034561023c89610474565b61039288610370576040518060400160405280600581526020016466616c736560d81b81525061095b565b604051806040016040528060048152602001637472756560e01b81525061095b565b61039e61023c32610984565b60405160200161025e93929190611116565b5050565b6103bc61074e565b6103c66000610a49565b565b600381815481106103d857600080fd5b9060005260206000200160009150905080546103f39061116d565b80601f016020809104026020016040519081016040528092919081815260200182805461041f9061116d565b801561046c5780601f106104415761010080835404028352916020019161046c565b820191906000526020600020905b81548152906001019060200180831161044f57829003601f168201915b505050505081565b6060600061048460206002611199565b60ff1667ffffffffffffffff81111561049f5761049f6111c0565b6040519080825280601f01601f1916602001820160405280156104c9576020820181803683370190505b5060408051808201909152601081526f181899199a1a9b1b9c1cb0b131b232b360811b602082015290915060005b602081101561060357818251868360208110610515576105156110bc565b6105219291901a6111ec565b81518110610531576105316110bc565b01602001516001600160f81b0319168361054c836002611200565b8151811061055c5761055c6110bc565b60200101906001600160f81b031916908160001a905350818251868360208110610588576105886110bc565b6105949291901a611218565b815181106105a4576105a46110bc565b01602001516001600160f81b031916836105bf836002611200565b6105ca9060016110a9565b815181106105da576105da6110bc565b60200101906001600160f81b031916908160001a905350806105fb8161122c565b9150506104f7565b50816040516020016106159190611246565b60405160208183030381529060405292505050919050565b61063561074e565b620186a0600754600161064891906110a9565b1061065557610655610778565b6106f8600460018154811061066c5761066c6110bc565b90600052602060002001546102726040518060400160405280600f81526020016e736368656d615f7265766f6b65727360881b81525060046001815481106106b6576106b66110bc565b90600052602060002001546040518060400160405280601281526020017139b1b432b6b0aaa4a216103932bb37b5b2b960711b81525061024161023c89610474565b60016007600082825461028a91906110a9565b61071361074e565b6001600160a01b0381166107425760405162461bcd60e51b81526004016107399061125d565b60405180910390fd5b61074b81610a49565b50565b6000546001600160a01b031633146103c65760405162461bcd60e51b8152600401610739906112dc565b6001546040516361a23d0f60e01b81526001600160a01b03909116906361a23d0f906107ab9030906002906004016113db565b6000604051808303816000875af11580156107ca573d6000803e3d6000fd5b505050506040513d6000823e601f3d908101601f191682016040526107f291908101906114f7565b805161080691600491602090910190610db5565b5060036108596040518060400160405280601081526020016f736368656d615f61747465737465727360801b8152506004600081548110610849576108496110bc565b9060005260206000200154610a99565b8154600181018355600092835260209092209091019061087990826115d2565b5060036108bb6040518060400160405280600f81526020016e736368656d615f7265766f6b65727360881b8152506004600181548110610849576108496110bc565b815460018101835560009283526020909220909101906108db90826115d2565b5060036109196040518060400160405280600b81526020016a736368656d615f696e666f60a81b8152506004600281548110610849576108496110bc565b8154600181018355600092835260209092209091019061093990826115d2565b5060006006819055600781905560058054916109548361122c565b9190505550565b60608160405160200161096e91906116a3565b6040516020818303038152906040529050919050565b606061099a6001600160a01b0383166014610ad7565b92915050565b606060006109ae8686610a99565b90508084846040516020016109c5939291906116e1565b604051602081830303815290604052915050949350505050565b600154604051631bbd786d60e11b81526001600160a01b039091169063377af0da90610a1390309086908690600401611747565b600060405180830381600087803b158015610a2d57600080fd5b505af1158015610a41573d6000803e3d6000fd5b505050505050565b600080546001600160a01b038381166001600160a01b0319831681178455604051919092169283917f8be0079c531659141344cd1fd0a4f28419497f9722a3daafe3b4186f6b6457e09190a35050565b606082610aa546610c4a565b610aae84610c4a565b604051602001610ac093929190611782565b604051602081830303815290604052905092915050565b60606000610ae6836002611200565b610af19060026110a9565b67ffffffffffffffff811115610b0957610b096111c0565b6040519080825280601f01601f191660200182016040528015610b33576020820181803683370190505b509050600360fc1b81600081518110610b4e57610b4e6110bc565b60200101906001600160f81b031916908160001a905350600f60fb1b81600181518110610b7d57610b7d6110bc565b60200101906001600160f81b031916908160001a9053506000610ba1846002611200565b610bac9060016110a9565b90505b6001811115610c24576f181899199a1a9b1b9c1cb0b131b232b360811b85600f1660108110610be057610be06110bc565b1a60f81b828281518110610bf657610bf66110bc565b60200101906001600160f81b031916908160001a90535060049490941c93610c1d816117bc565b9050610baf565b508315610c435760405162461bcd60e51b815260040161073990611805565b9392505050565b60606000610c5783610cdd565b600101905060008167ffffffffffffffff811115610c7757610c776111c0565b6040519080825280601f01601f191660200182016040528015610ca1576020820181803683370190505b5090508181016020015b600019016f181899199a1a9b1b9c1cb0b131b232b360811b600a86061a8153600a8504945084610cab57509392505050565b60008072184f03e93ff9f4daa797ed6e38ed64bf6a1f0160401b8310610d1c5772184f03e93ff9f4daa797ed6e38ed64bf6a1f0160401b830492506040015b6d04ee2d6d415b85acef81000000008310610d48576d04ee2d6d415b85acef8100000000830492506020015b662386f26fc100008310610d6657662386f26fc10000830492506010015b6305f5e1008310610d7e576305f5e100830492506008015b6127108310610d9257612710830492506004015b60648310610da4576064830492506002015b600a831061099a5760010192915050565b828054828255906000526020600020908101928215610df0579160200282015b82811115610df0578251825591602001919060010190610dd5565b50610dfc929150610e00565b5090565b5b80821115610dfc5760008155600101610e01565b805b811461074b57600080fd5b803561099a81610e15565b60006001600160a01b03821661099a565b610e1781610e2d565b803561099a81610e3e565b60008060408385031215610e6857610e68600080fd5b6000610e748585610e22565b9250506020610e8585828601610e47565b9150509250929050565b60008083601f840112610ea457610ea4600080fd5b50813567ffffffffffffffff811115610ebf57610ebf600080fd5b602083019150836001820283011115610eda57610eda600080fd5b9250929050565b600080600080600060808688031215610efc57610efc600080fd5b6000610f088888610e47565b9550506020610f1988828901610e47565b9450506040610f2a88828901610e22565b935050606086013567ffffffffffffffff811115610f4a57610f4a600080fd5b610f5688828901610e8f565b92509250509295509295909350565b6001600160e01b031981165b82525050565b6020810161099a8284610f65565b801515610e17565b803561099a81610f85565b60008060408385031215610fae57610fae600080fd5b6000610fba8585610e22565b9250506020610e8585828601610f8d565b600060208284031215610fe057610fe0600080fd5b6000610fec8484610e22565b949350505050565b60005b8381101561100f578181015183820152602001610ff7565b50506000910152565b6000611022825190565b808452602084019350611039818560208601610ff4565b601f01601f19169290920192915050565b60208082528101610c438184611018565b610f7181610e2d565b6020810161099a828461105b565b60006020828403121561108757611087600080fd5b6000610fec8484610e47565b634e487b7160e01b600052601160045260246000fd5b8082018082111561099a5761099a611093565b634e487b7160e01b600052603260045260246000fd5b60006110dc825190565b6110ea818560208601610ff4565b9290920192915050565b600061110082856110d2565b600b60fa1b81526001019150610fec82846110d2565b600061112282866110d2565b600b60fa1b8152600101915061113882856110d2565b600b60fa1b8152600101915061114e82846110d2565b95945050505050565b634e487b7160e01b600052602260045260246000fd5b60028104600182168061118157607f821691505b60208210810361119357611193611157565b50919050565b60ff9182169190811690828202908116908181146111b9576111b9611093565b5092915050565b634e487b7160e01b600052604160045260246000fd5b634e487b7160e01b600052601260045260246000fd5b6000826111fb576111fb6111d6565b500490565b8181028082158382048514176111b9576111b9611093565b600082611227576112276111d6565b500690565b6000600019820361123f5761123f611093565b5060010190565b61060f60f31b81526002016000610c4382846110d2565b6020808252810161099a81602681527f4f776e61626c653a206e6577206f776e657220697320746865207a65726f206160208201526564647265737360d01b604082015260600190565b60208082527f4f776e61626c653a2063616c6c6572206973206e6f7420746865206f776e6572910190815260005b5060200190565b6020808252810161099a816112a7565b600081546112f98161116d565b808552602085019450600182168015611319576001811461132f5761135d565b60ff19831686526020821515028601935061135d565b60008581526020902060005b838110156113575781548882015260019091019060200161133b565b87019450505b50505092915050565b6000610c4383836112ec565b600061137c825490565b8084526020840193508360208202850161139c8560009081526020902090565b8060005b858110156113ce578484038952816113b88582611366565b60209a909a0199945050600191820191016113a0565b5091979650505050505050565b604081016113e9828561105b565b8181036020830152610fec8184611372565b601f19601f830116810181811067ffffffffffffffff82111715611421576114216111c0565b6040525050565b600061143360405190565b905061143f82826113fb565b919050565b600067ffffffffffffffff82111561145e5761145e6111c0565b5060209081020190565b805161099a81610e15565b600061148661148184611444565b611428565b838152905060208082019084028301858111156114a5576114a5600080fd5b835b818110156114c957806114ba8882611468565b845250602092830192016114a7565b5050509392505050565b600082601f8301126114e7576114e7600080fd5b8151610fec848260208601611473565b60006020828403121561150c5761150c600080fd5b815167ffffffffffffffff81111561152657611526600080fd5b610fec848285016114d3565b600061099a61153e8381565b90565b61154a83611532565b815460001960089490940293841b1916921b91909117905550565b6000611572818484611541565b505050565b818110156103b05761158a600082611565565b600101611577565b601f821115611572576000818152602090206020601f850104810160208510156115b95750805b6115cb6020601f860104830182611577565b5050505050565b815167ffffffffffffffff8111156115ec576115ec6111c0565b6115f6825461116d565b611601828285611592565b6020601f831160018114611635576000841561161d5750858201515b600019600886021c1981166002860217865550610a41565b600085815260208120601f198616915b828110156116655788850151825560209485019460019092019101611645565b868310156116815784890151600019601f89166008021c191682555b600160028802018855505050505050505050565b602760f81b8152600061123f565b60006116ae82611695565b91506116ba82846110d2565b9150610c4382611695565b600560fb1b8152600061123f565b602960f81b8152600061123f565b6b024a729a2a92a1024a72a27960a51b8152600c01600061170282866110d2565b915061170d826116c5565b915061171982856110d2565b67052ac8298aa8aa6560c31b8152600801915061173682846110d2565b915061114e826116d3565b80610f71565b60608101611755828661105b565b6117626020830185611741565b818103604083015261114e8184611018565b605f60f81b8152600061123f565b600061178e82866110d2565b915061179982611774565b91506117a582856110d2565b91506117b082611774565b915061114e82846110d2565b6000816117cb576117cb611093565b506000190190565b60208082527f537472696e67733a20686578206c656e67746820696e73756666696369656e74910190815260006112d5565b6020808252810161099a816117d356fea26469706673582212200fd23003bfbab50e376845429940d8aeb1ff3e7341846467ae7130cbc2e7f26064736f6c63430008130033736368656d6155494420746578742c20656e6372797074656420746578742c2061646d696e2074657874",
  "devdoc": {
    "kind": "dev",
    "methods": {
      "owner()": {
        "details": "Returns the address of the current owner."
      },
      "renounceOwnership()": {
        "details": "Leaves the contract without owner. It will not be possible to call `onlyOwner` functions. Can only be called by the current owner. NOTE: Renouncing ownership will leave the contract without an owner, thereby disabling any functionality that is only available to the owner."
      },
      "transferOwnership(address)": {
        "details": "Transfers ownership of the contract to a new account (`newOwner`). Can only be called by the current owner."
      }
    },
    "version": 1
  },
  "userdoc": {
    "errors": {
      "ChainNotSupported(uint256)": [
        {
          "notice": "Current chain does not have a TablelandTables deployment."
        }
      ]
    },
    "kind": "user",
    "methods": {},
    "version": 1
  },
  "storageLayout": {
    "storage": [
      {
        "astId": 396,
        "contract": "contracts/tablelandIndexers/ACResolverIndexer.sol:ACResolverIndexer",
        "label": "_owner",
        "offset": 0,
        "slot": "0",
        "type": "t_address"
      },
      {
        "astId": 10647,
        "contract": "contracts/tablelandIndexers/ACResolverIndexer.sol:ACResolverIndexer",
        "label": "tablelandContract",
        "offset": 0,
        "slot": "1",
        "type": "t_contract(ITablelandTables)4963"
      },
      {
        "astId": 10650,
        "contract": "contracts/tablelandIndexers/ACResolverIndexer.sol:ACResolverIndexer",
        "label": "createTableStatements",
        "offset": 0,
        "slot": "2",
        "type": "t_array(t_string_storage)dyn_storage"
      },
      {
        "astId": 10653,
        "contract": "contracts/tablelandIndexers/ACResolverIndexer.sol:ACResolverIndexer",
        "label": "tables",
        "offset": 0,
        "slot": "3",
        "type": "t_array(t_string_storage)dyn_storage"
      },
      {
        "astId": 10656,
        "contract": "contracts/tablelandIndexers/ACResolverIndexer.sol:ACResolverIndexer",
        "label": "tableIDs",
        "offset": 0,
        "slot": "4",
        "type": "t_array(t_uint256)dyn_storage"
      },
      {
        "astId": 10658,
        "contract": "contracts/tablelandIndexers/ACResolverIndexer.sol:ACResolverIndexer",
        "label": "tablesUpdates",
        "offset": 0,
        "slot": "5",
        "type": "t_uint256"
      },
      {
        "astId": 10660,
        "contract": "contracts/tablelandIndexers/ACResolverIndexer.sol:ACResolverIndexer",
        "label": "attesterRowsCounter",
        "offset": 0,
        "slot": "6",
        "type": "t_uint256"
      },
      {
        "astId": 10662,
        "contract": "contracts/tablelandIndexers/ACResolverIndexer.sol:ACResolverIndexer",
        "label": "revokerRowsCounter",
        "offset": 0,
        "slot": "7",
        "type": "t_uint256"
      }
    ],
    "types": {
      "t_address": {
        "encoding": "inplace",
        "label": "address",
        "numberOfBytes": "20"
      },
      "t_array(t_string_storage)dyn_storage": {
        "base": "t_string_storage",
        "encoding": "dynamic_array",
        "label": "string[]",
        "numberOfBytes": "32"
      },
      "t_array(t_uint256)dyn_storage": {
        "base": "t_uint256",
        "encoding": "dynamic_array",
        "label": "uint256[]",
        "numberOfBytes": "32"
      },
      "t_contract(ITablelandTables)4963": {
        "encoding": "inplace",
        "label": "contract ITablelandTables",
        "numberOfBytes": "20"
      },
      "t_string_storage": {
        "encoding": "bytes",
        "label": "string",
        "numberOfBytes": "32"
      },
      "t_uint256": {
        "encoding": "inplace",
        "label": "uint256",
        "numberOfBytes": "32"
      }
    }
  }
}