{
  "address": "0x002e92644450077c921367315e5e393F5E5ABDc1",
  "abi": [
    {
      "inputs": [
        {
          "internalType": "contract ITAS",
          "name": "tas",
          "type": "address"
        },
        {
          "internalType": "address",
          "name": "_splitterFactory",
          "type": "address"
        },
        {
          "internalType": "contract ISchemaRegistry",
          "name": "_schemaRegistry",
          "type": "address"
        },
        {
          "internalType": "contract IACResolverIndexer",
          "name": "_tableland",
          "type": "address"
        }
      ],
      "stateMutability": "nonpayable",
      "type": "constructor"
    },
    {
      "inputs": [],
      "name": "AccessDenied",
      "type": "error"
    },
    {
      "inputs": [],
      "name": "InsufficientValue",
      "type": "error"
    },
    {
      "inputs": [],
      "name": "InvalidLength",
      "type": "error"
    },
    {
      "inputs": [],
      "name": "InvalidTAS",
      "type": "error"
    },
    {
      "inputs": [],
      "name": "NotPayable",
      "type": "error"
    },
    {
      "anonymous": false,
      "inputs": [
        {
          "indexed": true,
          "internalType": "bytes32",
          "name": "role",
          "type": "bytes32"
        },
        {
          "indexed": true,
          "internalType": "bytes32",
          "name": "previousAdminRole",
          "type": "bytes32"
        },
        {
          "indexed": true,
          "internalType": "bytes32",
          "name": "newAdminRole",
          "type": "bytes32"
        }
      ],
      "name": "RoleAdminChanged",
      "type": "event"
    },
    {
      "anonymous": false,
      "inputs": [
        {
          "indexed": true,
          "internalType": "bytes32",
          "name": "role",
          "type": "bytes32"
        },
        {
          "indexed": true,
          "internalType": "address",
          "name": "account",
          "type": "address"
        },
        {
          "indexed": true,
          "internalType": "address",
          "name": "sender",
          "type": "address"
        }
      ],
      "name": "RoleGranted",
      "type": "event"
    },
    {
      "anonymous": false,
      "inputs": [
        {
          "indexed": true,
          "internalType": "bytes32",
          "name": "role",
          "type": "bytes32"
        },
        {
          "indexed": true,
          "internalType": "address",
          "name": "account",
          "type": "address"
        },
        {
          "indexed": true,
          "internalType": "address",
          "name": "sender",
          "type": "address"
        }
      ],
      "name": "RoleRevoked",
      "type": "event"
    },
    {
      "inputs": [
        {
          "internalType": "address[]",
          "name": "attesters",
          "type": "address[]"
        },
        {
          "internalType": "address[]",
          "name": "revokers",
          "type": "address[]"
        },
        {
          "internalType": "string[]",
          "name": "categories",
          "type": "string[]"
        },
        {
          "internalType": "bool",
          "name": "encrypted",
          "type": "bool"
        },
        {
          "internalType": "string",
          "name": "schema",
          "type": "string"
        },
        {
          "internalType": "string",
          "name": "schemaName",
          "type": "string"
        },
        {
          "internalType": "string",
          "name": "schemaDescription",
          "type": "string"
        }
      ],
      "name": "ACSchemaRegistered",
      "outputs": [],
      "stateMutability": "nonpayable",
      "type": "function"
    },
    {
      "inputs": [],
      "name": "DEFAULT_ADMIN_ROLE",
      "outputs": [
        {
          "internalType": "bytes32",
          "name": "",
          "type": "bytes32"
        }
      ],
      "stateMutability": "view",
      "type": "function"
    },
    {
      "inputs": [
        {
          "internalType": "bytes32",
          "name": "schemaUID",
          "type": "bytes32"
        },
        {
          "internalType": "address",
          "name": "newAttester",
          "type": "address"
        }
      ],
      "name": "addAttester",
      "outputs": [],
      "stateMutability": "nonpayable",
      "type": "function"
    },
    {
      "inputs": [
        {
          "internalType": "bytes32",
          "name": "schemaUID",
          "type": "bytes32"
        },
        {
          "internalType": "address",
          "name": "newRevoker",
          "type": "address"
        }
      ],
      "name": "addRevoker",
      "outputs": [],
      "stateMutability": "nonpayable",
      "type": "function"
    },
    {
      "inputs": [
        {
          "components": [
            {
              "internalType": "bytes32",
              "name": "uid",
              "type": "bytes32"
            },
            {
              "internalType": "bytes32",
              "name": "schema",
              "type": "bytes32"
            },
            {
              "internalType": "uint64",
              "name": "time",
              "type": "uint64"
            },
            {
              "internalType": "uint64",
              "name": "expirationTime",
              "type": "uint64"
            },
            {
              "internalType": "uint64",
              "name": "revocationTime",
              "type": "uint64"
            },
            {
              "internalType": "bytes32",
              "name": "refUID",
              "type": "bytes32"
            },
            {
              "internalType": "address",
              "name": "recipient",
              "type": "address"
            },
            {
              "internalType": "address",
              "name": "attester",
              "type": "address"
            },
            {
              "internalType": "bool",
              "name": "revocable",
              "type": "bool"
            },
            {
              "internalType": "bytes",
              "name": "data",
              "type": "bytes"
            },
            {
              "internalType": "string",
              "name": "dataBase64",
              "type": "string"
            }
          ],
          "internalType": "struct Attestation",
          "name": "attestation",
          "type": "tuple"
        }
      ],
      "name": "attest",
      "outputs": [
        {
          "internalType": "bool",
          "name": "",
          "type": "bool"
        }
      ],
      "stateMutability": "payable",
      "type": "function"
    },
    {
      "inputs": [
        {
          "internalType": "bytes32",
          "name": "role",
          "type": "bytes32"
        }
      ],
      "name": "getRoleAdmin",
      "outputs": [
        {
          "internalType": "bytes32",
          "name": "",
          "type": "bytes32"
        }
      ],
      "stateMutability": "view",
      "type": "function"
    },
    {
      "inputs": [
        {
          "internalType": "bytes32",
          "name": "role",
          "type": "bytes32"
        },
        {
          "internalType": "address",
          "name": "account",
          "type": "address"
        }
      ],
      "name": "grantRole",
      "outputs": [],
      "stateMutability": "nonpayable",
      "type": "function"
    },
    {
      "inputs": [
        {
          "internalType": "address",
          "name": "sender",
          "type": "address"
        },
        {
          "internalType": "bytes32",
          "name": "schemaUID",
          "type": "bytes32"
        }
      ],
      "name": "hasAccess",
      "outputs": [
        {
          "internalType": "bool",
          "name": "",
          "type": "bool"
        }
      ],
      "stateMutability": "view",
      "type": "function"
    },
    {
      "inputs": [
        {
          "internalType": "bytes32",
          "name": "role",
          "type": "bytes32"
        },
        {
          "internalType": "address",
          "name": "account",
          "type": "address"
        }
      ],
      "name": "hasRole",
      "outputs": [
        {
          "internalType": "bool",
          "name": "",
          "type": "bool"
        }
      ],
      "stateMutability": "view",
      "type": "function"
    },
    {
      "inputs": [],
      "name": "isPayable",
      "outputs": [
        {
          "internalType": "bool",
          "name": "",
          "type": "bool"
        }
      ],
      "stateMutability": "pure",
      "type": "function"
    },
    {
      "inputs": [
        {
          "components": [
            {
              "internalType": "bytes32",
              "name": "uid",
              "type": "bytes32"
            },
            {
              "internalType": "bytes32",
              "name": "schema",
              "type": "bytes32"
            },
            {
              "internalType": "uint64",
              "name": "time",
              "type": "uint64"
            },
            {
              "internalType": "uint64",
              "name": "expirationTime",
              "type": "uint64"
            },
            {
              "internalType": "uint64",
              "name": "revocationTime",
              "type": "uint64"
            },
            {
              "internalType": "bytes32",
              "name": "refUID",
              "type": "bytes32"
            },
            {
              "internalType": "address",
              "name": "recipient",
              "type": "address"
            },
            {
              "internalType": "address",
              "name": "attester",
              "type": "address"
            },
            {
              "internalType": "bool",
              "name": "revocable",
              "type": "bool"
            },
            {
              "internalType": "bytes",
              "name": "data",
              "type": "bytes"
            },
            {
              "internalType": "string",
              "name": "dataBase64",
              "type": "string"
            }
          ],
          "internalType": "struct Attestation[]",
          "name": "attestations",
          "type": "tuple[]"
        },
        {
          "internalType": "uint256[]",
          "name": "values",
          "type": "uint256[]"
        }
      ],
      "name": "multiAttest",
      "outputs": [
        {
          "internalType": "bool",
          "name": "",
          "type": "bool"
        }
      ],
      "stateMutability": "payable",
      "type": "function"
    },
    {
      "inputs": [
        {
          "components": [
            {
              "internalType": "bytes32",
              "name": "uid",
              "type": "bytes32"
            },
            {
              "internalType": "bytes32",
              "name": "schema",
              "type": "bytes32"
            },
            {
              "internalType": "uint64",
              "name": "time",
              "type": "uint64"
            },
            {
              "internalType": "uint64",
              "name": "expirationTime",
              "type": "uint64"
            },
            {
              "internalType": "uint64",
              "name": "revocationTime",
              "type": "uint64"
            },
            {
              "internalType": "bytes32",
              "name": "refUID",
              "type": "bytes32"
            },
            {
              "internalType": "address",
              "name": "recipient",
              "type": "address"
            },
            {
              "internalType": "address",
              "name": "attester",
              "type": "address"
            },
            {
              "internalType": "bool",
              "name": "revocable",
              "type": "bool"
            },
            {
              "internalType": "bytes",
              "name": "data",
              "type": "bytes"
            },
            {
              "internalType": "string",
              "name": "dataBase64",
              "type": "string"
            }
          ],
          "internalType": "struct Attestation[]",
          "name": "attestations",
          "type": "tuple[]"
        },
        {
          "internalType": "uint256[]",
          "name": "values",
          "type": "uint256[]"
        }
      ],
      "name": "multiRevoke",
      "outputs": [
        {
          "internalType": "bool",
          "name": "",
          "type": "bool"
        }
      ],
      "stateMutability": "payable",
      "type": "function"
    },
    {
      "inputs": [
        {
          "internalType": "bytes32",
          "name": "schemaUID",
          "type": "bytes32"
        },
        {
          "internalType": "address",
          "name": "newAttester",
          "type": "address"
        }
      ],
      "name": "removeAttester",
      "outputs": [],
      "stateMutability": "nonpayable",
      "type": "function"
    },
    {
      "inputs": [
        {
          "internalType": "bytes32",
          "name": "schemaUID",
          "type": "bytes32"
        },
        {
          "internalType": "address",
          "name": "newRevoker",
          "type": "address"
        }
      ],
      "name": "removeRevoker",
      "outputs": [],
      "stateMutability": "nonpayable",
      "type": "function"
    },
    {
      "inputs": [
        {
          "internalType": "bytes32",
          "name": "role",
          "type": "bytes32"
        },
        {
          "internalType": "address",
          "name": "account",
          "type": "address"
        }
      ],
      "name": "renounceRole",
      "outputs": [],
      "stateMutability": "nonpayable",
      "type": "function"
    },
    {
      "inputs": [
        {
          "components": [
            {
              "internalType": "bytes32",
              "name": "uid",
              "type": "bytes32"
            },
            {
              "internalType": "bytes32",
              "name": "schema",
              "type": "bytes32"
            },
            {
              "internalType": "uint64",
              "name": "time",
              "type": "uint64"
            },
            {
              "internalType": "uint64",
              "name": "expirationTime",
              "type": "uint64"
            },
            {
              "internalType": "uint64",
              "name": "revocationTime",
              "type": "uint64"
            },
            {
              "internalType": "bytes32",
              "name": "refUID",
              "type": "bytes32"
            },
            {
              "internalType": "address",
              "name": "recipient",
              "type": "address"
            },
            {
              "internalType": "address",
              "name": "attester",
              "type": "address"
            },
            {
              "internalType": "bool",
              "name": "revocable",
              "type": "bool"
            },
            {
              "internalType": "bytes",
              "name": "data",
              "type": "bytes"
            },
            {
              "internalType": "string",
              "name": "dataBase64",
              "type": "string"
            }
          ],
          "internalType": "struct Attestation",
          "name": "attestation",
          "type": "tuple"
        }
      ],
      "name": "revoke",
      "outputs": [
        {
          "internalType": "bool",
          "name": "",
          "type": "bool"
        }
      ],
      "stateMutability": "payable",
      "type": "function"
    },
    {
      "inputs": [
        {
          "internalType": "bytes32",
          "name": "role",
          "type": "bytes32"
        },
        {
          "internalType": "address",
          "name": "account",
          "type": "address"
        }
      ],
      "name": "revokeRole",
      "outputs": [],
      "stateMutability": "nonpayable",
      "type": "function"
    },
    {
      "inputs": [],
      "name": "splitterFactory",
      "outputs": [
        {
          "internalType": "address",
          "name": "",
          "type": "address"
        }
      ],
      "stateMutability": "view",
      "type": "function"
    },
    {
      "inputs": [
        {
          "internalType": "bytes4",
          "name": "interfaceId",
          "type": "bytes4"
        }
      ],
      "name": "supportsInterface",
      "outputs": [
        {
          "internalType": "bool",
          "name": "",
          "type": "bool"
        }
      ],
      "stateMutability": "view",
      "type": "function"
    },
    {
      "inputs": [],
      "name": "version",
      "outputs": [
        {
          "internalType": "string",
          "name": "",
          "type": "string"
        }
      ],
      "stateMutability": "view",
      "type": "function"
    },
    {
      "stateMutability": "payable",
      "type": "receive"
    }
  ],
  "transactionHash": "0xc61c4ba0c7d8de5dd6af9862e4199a2d624defbcecaaa8b0b0363e65f122253a",
  "args": [
    "0xD1E29204A1d0964cb2c844E32ECA7549837AB9AB",
    "0x65FEf1033f1563517772D61AF5518461ECdB9619",
    "0xB953c11b2cad6D915c70C317A5983d1Eeab89cF0",
    "0xeaCc26328df7c59301a4A7F82D59B13a94d7F573"
  ],
  "numDeployments": 1,
  "solcInputHash": "d06de994dca3c91d97b0c2e7701cde28",
  "bytecode": "0x610100604052600480546001600160a01b031916301790553480156200002457600080fd5b50604051620020bb380380620020bb833981016040819052620000479162000127565b6000608081905260a052600160c052836001600160a01b0381166200007f5760405163120d8e6b60e21b815260040160405180910390fd5b6001600160a01b0390811660e052600180549382166001600160a01b03199485161790556002805494821694841694909417909355600580549190931691161790555062000195565b60006001600160a01b0382165b92915050565b6000620000d582620000c8565b620000f381620000db565b8114620000ff57600080fd5b50565b8051620000d581620000e8565b620000f381620000c8565b8051620000d5816200010f565b60008060008060808587031215620001425762000142600080fd5b600062000150878762000102565b945050602062000163878288016200011a565b9350506040620001768782880162000102565b9250506060620001898782880162000102565b91505092959194509250565b60805160a05160c05160e051611eec620001cf6000396000610bd7015260006108fd015260006108d4015260006108ab0152611eec6000f3fe6080604052600436106101235760003560e01c806354fd4d50116100a0578063a217fddf11610064578063a217fddf14610343578063b4188e2514610358578063ce46e0461461036b578063d547741f1461037f578063ea0597cd1461039f57600080fd5b806354fd4d50146102a15780635608d9e5146102c35780637d294e62146102f05780638e1252901461031057806391d148541461032357600080fd5b80632f2ff15d116100e75780632f2ff15d1461020e57806336568abe1461022e578063383aef571461024e5780633b0adc29146102615780633c7ab95c1461028157600080fd5b806301ffc9a714610148578063097065aa1461017e5780630fa6608114610191578063243fc55f146101b1578063248a9ca3146101d157600080fd5b3661014357604051631574f9f360e01b815260040160405180910390fd5b005b600080fd5b34801561015457600080fd5b50610168610163366004611476565b6103bf565b60405161017591906114a1565b60405180910390f35b61016861018c3660046114cb565b6103f6565b34801561019d57600080fd5b506101416101ac36600461175c565b61040f565b3480156101bd57600080fd5b506101416101cc3660046118a7565b61051e565b3480156101dd57600080fd5b506102016101ec3660046118e4565b60009081526020819052604090206001015490565b604051610175919061190b565b34801561021a57600080fd5b506101416102293660046118a7565b6105ea565b34801561023a57600080fd5b506101416102493660046118a7565b61060f565b61016861025c36600461196a565b61064e565b34801561026d57600080fd5b5061014161027c3660046118a7565b61071d565b34801561028d57600080fd5b5061014161029c3660046118a7565b6107dd565b3480156102ad57600080fd5b506102b66108a4565b6040516101759190611a37565b3480156102cf57600080fd5b506002546102e3906001600160a01b031681565b6040516101759190611a51565b3480156102fc57600080fd5b5061016861030b366004611a5f565b610947565b61016861031e36600461196a565b6109eb565b34801561032f57600080fd5b5061016861033e3660046118a7565b610aaa565b34801561034f57600080fd5b50610201600081565b6101686103663660046114cb565b610ad3565b34801561037757600080fd5b506000610168565b34801561038b57600080fd5b5061014161039a3660046118a7565b610ae7565b3480156103ab57600080fd5b506101416103ba3660046118a7565b610b0c565b60006001600160e01b03198216637965db0b60e01b14806103f057506301ffc9a760e01b6001600160e01b03198316145b92915050565b6000610400610bcc565b6103f08234610c17565b919050565b600180546040805160c0810182528681526020810186905280820185905260608101899052600480546001600160a01b03908116608084015260a0830195909552915163186910d360e21b8152600094909316926361a4434c92610474929101611bb1565b6020604051808303816000875af1158015610493573d6000803e3d6000fd5b505050506040513d601f19601f820116820180604052508101906104b79190611bcd565b885190915060008190036104df576000828152600360205260409020805460ff191660011790555b87516000819003610506576000838152600360205260409020805461ff0019166101001790555b610512838b8b8a610ce9565b50505050505050505050565b610545826040518060400160405280600581526020016420a226a4a760d91b815250610f72565b61054e81610fa5565b6005546040516306b8e51d60e01b81526001600160a01b03909116906306b8e51d906105809086908690600401611bee565b600060405180830381600087803b15801561059a57600080fd5b505af11580156105ae573d6000803e3d6000fd5b505050506105e56105df846040518060400160405280600881526020016720aa2a22a9aa22a960c11b815250610f72565b83610fb2565b505050565b60008281526020819052604090206001015461060581610fa5565b6105e58383611017565b6001600160a01b03811633146106405760405162461bcd60e51b815260040161063790611c09565b60405180910390fd5b61064a8282610fb2565b5050565b6000610658610bcc565b838281146106795760405163251f56a160e21b815260040160405180910390fd5b3460005b8281101561070d57600086868381811061069957610699611c5c565b905060200201359050828111156106c35760405163044044a560e21b815260040160405180910390fd5b6106f08989848181106106d8576106d8611c5c565b90506020028101906106ea9190611c72565b82610c17565b610701576000945050505050610715565b9091039060010161067d565b506001925050505b949350505050565b610744826040518060400160405280600581526020016420a226a4a760d91b815250610f72565b61074d81610fa5565b600554604051634efa0ab360e11b81526001600160a01b0390911690639df415669061077f9086908690600401611bee565b600060405180830381600087803b15801561079957600080fd5b505af11580156107ad573d6000803e3d6000fd5b505050506105e56105df84604051806040016040528060078152602001662922ab27a5a2a960c91b815250610f72565b610804826040518060400160405280600581526020016420a226a4a760d91b815250610f72565b61080d81610fa5565b6005546040516306b8e51d60e01b81526001600160a01b03909116906306b8e51d9061083f9086908690600401611bee565b600060405180830381600087803b15801561085957600080fd5b505af115801561086d573d6000803e3d6000fd5b505050506105e561089e846040518060400160405280600881526020016720aa2a22a9aa22a960c11b815250610f72565b83611017565b60606108cf7f000000000000000000000000000000000000000000000000000000000000000061109b565b6108f87f000000000000000000000000000000000000000000000000000000000000000061109b565b6109217f000000000000000000000000000000000000000000000000000000000000000061109b565b60405160200161093393929190611cca565b604051602081830303815290604052905090565b600061097b61097583604051806040016040528060078152602001662922ab27a5a2a960c91b815250610f72565b84610aaa565b806109b157506109b1826040516020016109959190611d2f565b6040516020818303038152906040528051906020012084610aaa565b156109be575060016103f0565b60008281526003602052604090205462010000900460ff166109e2575060016103f0565b50600092915050565b60006109f5610bcc565b83828114610a165760405163251f56a160e21b815260040160405180910390fd5b3460005b8281101561070d576000868683818110610a3657610a36611c5c565b90506020020135905082811115610a605760405163044044a560e21b815260040160405180910390fd5b610a8d898984818110610a7557610a75611c5c565b9050602002810190610a879190611c72565b8261112e565b610a9e576000945050505050610715565b90910390600101610a1a565b6000918252602082815260408084206001600160a01b0393909316845291905290205460ff1690565b6000610add610bcc565b6103f0823461112e565b600082815260208190526040902060010154610b0281610fa5565b6105e58383610fb2565b610b33826040518060400160405280600581526020016420a226a4a760d91b815250610f72565b610b3c81610fa5565b600554604051634efa0ab360e11b81526001600160a01b0390911690639df4156690610b6e9086908690600401611bee565b600060405180830381600087803b158015610b8857600080fd5b505af1158015610b9c573d6000803e3d6000fd5b505050506105e561089e84604051806040016040528060078152602001662922ab27a5a2a960c91b815250610f72565b336001600160a01b037f00000000000000000000000000000000000000000000000000000000000000001614610c1557604051634ca8886760e01b815260040160405180910390fd5b565b600080610c2b610100850160e08601611d4e565b602080860135600081815260039092526040909120549192509060ff1615610c58576001925050506103f0565b610c8b610c85826040518060400160405280600881526020016720aa2a22a9aa22a960c11b815250610f72565b83610aaa565b15610c9b576001925050506103f0565b610cce610cc8826040518060400160405280600881526020016720aa2a22a9aa22a960c11b815250610f72565b32610aaa565b15610cde576001925050506103f0565b506000949350505050565b600084815260036020908152604091829020805462ff0000191662010000851515021790558151808301909252600582526420a226a4a760d91b90820152610d3c90610d36908690610f72565b32611017565b600554604051634b9293fd60e01b81526001600160a01b0390911690634b9293fd90610d6e9087908590600401611d6f565b600060405180830381600087803b158015610d8857600080fd5b505af1158015610d9c573d6000803e3d6000fd5b5050505060005b8351811015610e8c5760055484516001600160a01b03909116906306b8e51d908790879085908110610dd757610dd7611c5c565b60200260200101516040518363ffffffff1660e01b8152600401610dfc929190611bee565b600060405180830381600087803b158015610e1657600080fd5b505af1158015610e2a573d6000803e3d6000fd5b50505050610e7a610e5b866040518060400160405280600881526020016720aa2a22a9aa22a960c11b815250610f72565b858381518110610e6d57610e6d611c5c565b6020026020010151611017565b80610e8481611da0565b915050610da3565b5060005b8251811015610f6b5760055483516001600160a01b0390911690639df41566908790869085908110610ec457610ec4611c5c565b60200260200101516040518363ffffffff1660e01b8152600401610ee9929190611bee565b600060405180830381600087803b158015610f0357600080fd5b505af1158015610f17573d6000803e3d6000fd5b50505050610f59610f4786604051806040016040528060078152602001662922ab27a5a2a960c91b815250610f72565b848381518110610e6d57610e6d611c5c565b80610f6381611da0565b915050610e90565b5050505050565b60008282604051602001610f87929190611db3565b60405160208183030381529060405280519060200120905092915050565b610faf813361119f565b50565b610fbc8282610aaa565b1561064a576000828152602081815260408083206001600160a01b0385168085529252808320805460ff1916905551339285917ff6391f5c32d9c69d2a47ea670b442974b53935d1edc7fd64eb21e047a839171b9190a45050565b6110218282610aaa565b61064a576000828152602081815260408083206001600160a01b03851684529091529020805460ff191660011790556110573390565b6001600160a01b0316816001600160a01b0316837f2f8788117e7eff1d82e926ec794901d17c78024a50270940304540a733656f0d60405160405180910390a45050565b606060006110a8836111f8565b60010190506000816001600160401b038111156110c7576110c7611505565b6040519080825280601f01601f1916602001820160405280156110f1576020820181803683370190505b5090508181016020015b600019016f181899199a1a9b1b9c1cb0b131b232b360811b600a86061a8153600a85049450846110fb575b509392505050565b602082810135600081815260039092526040822054610100900460ff161561115a5760019150506103f0565b611186610cc882604051806040016040528060078152602001662922ab27a5a2a960c91b815250610f72565b156111955760019150506103f0565b5060009392505050565b6111a98282610aaa565b61064a576111b6816112d0565b6111c18360206112e2565b6040516020016111d2929190611dd3565b60408051601f198184030181529082905262461bcd60e51b825261063791600401611a37565b60008072184f03e93ff9f4daa797ed6e38ed64bf6a1f0160401b83106112375772184f03e93ff9f4daa797ed6e38ed64bf6a1f0160401b830492506040015b6d04ee2d6d415b85acef81000000008310611263576d04ee2d6d415b85acef8100000000830492506020015b662386f26fc10000831061128157662386f26fc10000830492506010015b6305f5e1008310611299576305f5e100830492506008015b61271083106112ad57612710830492506004015b606483106112bf576064830492506002015b600a83106103f05760010192915050565b60606103f06001600160a01b03831660145b606060006112f1836002611e2b565b6112fc906002611e4a565b6001600160401b0381111561131357611313611505565b6040519080825280601f01601f19166020018201604052801561133d576020820181803683370190505b509050600360fc1b8160008151811061135857611358611c5c565b60200101906001600160f81b031916908160001a905350600f60fb1b8160018151811061138757611387611c5c565b60200101906001600160f81b031916908160001a90535060006113ab846002611e2b565b6113b6906001611e4a565b90505b600181111561142e576f181899199a1a9b1b9c1cb0b131b232b360811b85600f16601081106113ea576113ea611c5c565b1a60f81b82828151811061140057611400611c5c565b60200101906001600160f81b031916908160001a90535060049490941c9361142781611e5d565b90506113b9565b50831561144d5760405162461bcd60e51b815260040161063790611ea6565b9392505050565b6001600160e01b031981165b8114610faf57600080fd5b80356103f081611454565b60006020828403121561148b5761148b600080fd5b6000610715848461146b565b8015155b82525050565b602081016103f08284611497565b600061016082840312156114c5576114c5600080fd5b50919050565b6000602082840312156114e0576114e0600080fd5b81356001600160401b038111156114f9576114f9600080fd5b610715848285016114af565b634e487b7160e01b600052604160045260246000fd5b601f19601f83011681018181106001600160401b038211171561154057611540611505565b6040525050565b600061155260405190565b905061040a828261151b565b60006001600160401b0382111561157757611577611505565b5060209081020190565b60006001600160a01b0382166103f0565b61146081611581565b80356103f081611592565b60006115b96115b48461155e565b611547565b838152905060208082019084028301858111156115d8576115d8600080fd5b835b818110156115fc57806115ed888261159b565b845250602092830192016115da565b5050509392505050565b600082601f83011261161a5761161a600080fd5b81356107158482602086016115a6565b60006001600160401b0382111561164357611643611505565b601f19601f83011660200192915050565b82818337506000910152565b600061166e6115b48461162a565b90508281526020810184848401111561168957611689600080fd5b611126848285611654565b600082601f8301126116a8576116a8600080fd5b8135610715848260208601611660565b60006116c66115b48461155e565b838152905060208082019084028301858111156116e5576116e5600080fd5b835b818110156115fc5780356001600160401b0381111561170857611708600080fd5b8086016117158982611694565b85525050602092830192016116e7565b600082601f83011261173957611739600080fd5b81356107158482602086016116b8565b801515611460565b80356103f081611749565b600080600080600080600060e0888a03121561177a5761177a600080fd5b87356001600160401b0381111561179357611793600080fd5b61179f8a828b01611606565b97505060208801356001600160401b038111156117be576117be600080fd5b6117ca8a828b01611606565b96505060408801356001600160401b038111156117e9576117e9600080fd5b6117f58a828b01611725565b95505060606118068a828b01611751565b94505060808801356001600160401b0381111561182557611825600080fd5b6118318a828b01611694565b93505060a08801356001600160401b0381111561185057611850600080fd5b61185c8a828b01611694565b92505060c08801356001600160401b0381111561187b5761187b600080fd5b6118878a828b01611694565b91505092959891949750929550565b80611460565b80356103f081611896565b600080604083850312156118bd576118bd600080fd5b60006118c9858561189c565b92505060206118da8582860161159b565b9150509250929050565b6000602082840312156118f9576118f9600080fd5b6000610715848461189c565b8061149b565b602081016103f08284611905565b60008083601f84011261192e5761192e600080fd5b5081356001600160401b0381111561194857611948600080fd5b60208301915083602082028301111561196357611963600080fd5b9250929050565b6000806000806040858703121561198357611983600080fd5b84356001600160401b0381111561199c5761199c600080fd5b6119a887828801611919565b945094505060208501356001600160401b038111156119c9576119c9600080fd5b6119d587828801611919565b95989497509550505050565b60005b838110156119fc5781810151838201526020016119e4565b50506000910152565b6000611a0f825190565b808452602084019350611a268185602086016119e1565b601f01601f19169290920192915050565b6020808252810161144d8184611a05565b61149b81611581565b602081016103f08284611a48565b60008060408385031215611a7557611a75600080fd5b6000611a81858561159b565b92505060206118da8582860161189c565b600061144d8383611a05565b6000611aa8825190565b80845260208401935083602082028501611ac28560200190565b8060005b85811015611af75784840389528151611adf8582611a92565b94506020830160209a909a0199925050600101611ac6565b5091979650505050505050565b60006103f082611581565b60006103f082611b04565b61149b81611b0f565b805160c080845260009190840190611b3b8282611a05565b91505060208301518482036020860152611b558282611a05565b91505060408301518482036040860152611b6f8282611a05565b91505060608301518482036060860152611b898282611a9e565b9150506080830151611b9e6080860182611b1a565b5060a083015161112660a0860182611497565b6020808252810161144d8184611b23565b80516103f081611896565b600060208284031215611be257611be2600080fd5b60006107158484611bc2565b60408101611bfc8285611905565b61144d6020830184611a48565b602080825281016103f081602f81527f416363657373436f6e74726f6c3a2063616e206f6e6c792072656e6f756e636560208201526e103937b632b9903337b91039b2b63360891b604082015260600190565b634e487b7160e01b600052603260045260246000fd5b6000823561015e1936849003018112611c8d57611c8d600080fd5b9190910192915050565b6000611ca1825190565b611caf8185602086016119e1565b9290920192915050565b601760f91b815260005b5060010190565b6000611cd68286611c97565b9150611ce182611cb9565b9150611ced8285611c97565b9150611cf882611cb9565b9150611d048284611c97565b95945050505050565b600881526000602082016720aa2a22a9aa22a960c11b815291505b5060200190565b60408101611d3d8284611905565b818103602083015261144d81611d0d565b600060208284031215611d6357611d63600080fd5b6000610715848461159b565b60408101611d7d8285611905565b61144d6020830184611497565b634e487b7160e01b600052601160045260246000fd5b60006000198203611cc357611cc3611d8a565b60408101611dc18285611905565b81810360208301526107158184611a05565b7f416363657373436f6e74726f6c3a206163636f756e742000000000000000000081526017016000611e058285611c97565b7001034b99036b4b9b9b4b733903937b6329607d1b815260110191506107158284611c97565b818102808215838204851417611e4357611e43611d8a565b5092915050565b808201808211156103f0576103f0611d8a565b600081611e6c57611e6c611d8a565b506000190190565b60208082527f537472696e67733a20686578206c656e67746820696e73756666696369656e7491019081526000611d28565b602080825281016103f081611e7456fea2646970667358221220e6073fde245e46769136bb63dce87ff9539e75d8676317f3a03f9a9689c2ae2b64736f6c63430008130033",
  "devdoc": {
    "events": {
      "RoleAdminChanged(bytes32,bytes32,bytes32)": {
        "details": "Emitted when `newAdminRole` is set as ``role``'s admin role, replacing `previousAdminRole` `DEFAULT_ADMIN_ROLE` is the starting admin for all roles, despite {RoleAdminChanged} not being emitted signaling this. _Available since v3.1._"
      },
      "RoleGranted(bytes32,address,address)": {
        "details": "Emitted when `account` is granted `role`. `sender` is the account that originated the contract call, an admin role bearer except when using {AccessControl-_setupRole}."
      },
      "RoleRevoked(bytes32,address,address)": {
        "details": "Emitted when `account` is revoked `role`. `sender` is the account that originated the contract call:   - if using `revokeRole`, it is the admin role bearer   - if using `renounceRole`, it is the role bearer (i.e. `account`)"
      }
    },
    "kind": "dev",
    "methods": {
      "attest((bytes32,bytes32,uint64,uint64,uint64,bytes32,address,address,bool,bytes,string))": {
        "params": {
          "attestation": "The new attestation."
        },
        "returns": {
          "_0": "Whether the attestation is valid."
        }
      },
      "getRoleAdmin(bytes32)": {
        "details": "Returns the admin role that controls `role`. See {grantRole} and {revokeRole}. To change a role's admin, use {_setRoleAdmin}."
      },
      "grantRole(bytes32,address)": {
        "details": "Grants `role` to `account`. If `account` had not been already granted `role`, emits a {RoleGranted} event. Requirements: - the caller must have ``role``'s admin role. May emit a {RoleGranted} event."
      },
      "hasRole(bytes32,address)": {
        "details": "Returns `true` if `account` has been granted `role`."
      },
      "isPayable()": {
        "returns": {
          "_0": "True, indicating that the contract can accept payments."
        }
      },
      "multiAttest((bytes32,bytes32,uint64,uint64,uint64,bytes32,address,address,bool,bytes,string)[],uint256[])": {
        "params": {
          "attestations": "The new attestations.",
          "values": "Explicit ETH amounts which were sent with each attestation."
        },
        "returns": {
          "_0": "Whether all the attestations are valid."
        }
      },
      "multiRevoke((bytes32,bytes32,uint64,uint64,uint64,bytes32,address,address,bool,bytes,string)[],uint256[])": {
        "params": {
          "attestations": "The existing attestations to be revoked.",
          "values": "Explicit ETH amounts which were sent with each revocation."
        },
        "returns": {
          "_0": "Whether the attestations can be revoked."
        }
      },
      "renounceRole(bytes32,address)": {
        "details": "Revokes `role` from the calling account. Roles are often managed via {grantRole} and {revokeRole}: this function's purpose is to provide a mechanism for accounts to lose their privileges if they are compromised (such as when a trusted device is misplaced). If the calling account had been revoked `role`, emits a {RoleRevoked} event. Requirements: - the caller must be `account`. May emit a {RoleRevoked} event."
      },
      "revoke((bytes32,bytes32,uint64,uint64,uint64,bytes32,address,address,bool,bytes,string))": {
        "params": {
          "attestation": "The existing attestation to be revoked."
        },
        "returns": {
          "_0": "Whether the attestation can be revoked."
        }
      },
      "revokeRole(bytes32,address)": {
        "details": "Revokes `role` from `account`. If `account` had been granted `role`, emits a {RoleRevoked} event. Requirements: - the caller must have ``role``'s admin role. May emit a {RoleRevoked} event."
      },
      "supportsInterface(bytes4)": {
        "details": "See {IERC165-supportsInterface}."
      },
      "version()": {
        "returns": {
          "_0": "Semver contract version as a string."
        }
      }
    },
    "title": "ACResolver",
    "version": 1
  },
  "userdoc": {
    "kind": "user",
    "methods": {
      "attest((bytes32,bytes32,uint64,uint64,uint64,bytes32,address,address,bool,bytes,string))": {
        "notice": "Processes an attestation and verifies whether it's valid."
      },
      "isPayable()": {
        "notice": "Indicates whether the contract is designed to handle incoming payments."
      },
      "multiAttest((bytes32,bytes32,uint64,uint64,uint64,bytes32,address,address,bool,bytes,string)[],uint256[])": {
        "notice": "Processes multiple attestations and verifies whether they are valid."
      },
      "multiRevoke((bytes32,bytes32,uint64,uint64,uint64,bytes32,address,address,bool,bytes,string)[],uint256[])": {
        "notice": "Processes revocation of multiple attestation and verifies they can be revoked."
      },
      "revoke((bytes32,bytes32,uint64,uint64,uint64,bytes32,address,address,bool,bytes,string))": {
        "notice": "Processes an attestation revocation and verifies if it can be revoked."
      },
      "version()": {
        "notice": "Returns the full semver contract version."
      }
    },
    "notice": "A schema resolver subcription to content example",
    "version": 1
  },
  "storageLayout": {
    "storage": [
      {
        "astId": 24,
        "contract": "contracts/resolver/examples/ACResolver.sol:ACResolver",
        "label": "_roles",
        "offset": 0,
        "slot": "0",
        "type": "t_mapping(t_bytes32,t_struct(RoleData)19_storage)"
      },
      {
        "astId": 8001,
        "contract": "contracts/resolver/examples/ACResolver.sol:ACResolver",
        "label": "schemaRegistry",
        "offset": 0,
        "slot": "1",
        "type": "t_contract(ISchemaRegistry)4819"
      },
      {
        "astId": 8003,
        "contract": "contracts/resolver/examples/ACResolver.sol:ACResolver",
        "label": "splitterFactory",
        "offset": 0,
        "slot": "2",
        "type": "t_address"
      },
      {
        "astId": 8015,
        "contract": "contracts/resolver/examples/ACResolver.sol:ACResolver",
        "label": "schemas",
        "offset": 0,
        "slot": "3",
        "type": "t_mapping(t_bytes32,t_struct(SchemaInfo)8010_storage)"
      },
      {
        "astId": 8024,
        "contract": "contracts/resolver/examples/ACResolver.sol:ACResolver",
        "label": "resolver",
        "offset": 0,
        "slot": "4",
        "type": "t_contract(ISchemaResolver)7654"
      },
      {
        "astId": 8027,
        "contract": "contracts/resolver/examples/ACResolver.sol:ACResolver",
        "label": "tableland",
        "offset": 0,
        "slot": "5",
        "type": "t_contract(IACResolverIndexer)9214"
      }
    ],
    "types": {
      "t_address": {
        "encoding": "inplace",
        "label": "address",
        "numberOfBytes": "20"
      },
      "t_bool": {
        "encoding": "inplace",
        "label": "bool",
        "numberOfBytes": "1"
      },
      "t_bytes32": {
        "encoding": "inplace",
        "label": "bytes32",
        "numberOfBytes": "32"
      },
      "t_contract(IACResolverIndexer)9214": {
        "encoding": "inplace",
        "label": "contract IACResolverIndexer",
        "numberOfBytes": "20"
      },
      "t_contract(ISchemaRegistry)4819": {
        "encoding": "inplace",
        "label": "contract ISchemaRegistry",
        "numberOfBytes": "20"
      },
      "t_contract(ISchemaResolver)7654": {
        "encoding": "inplace",
        "label": "contract ISchemaResolver",
        "numberOfBytes": "20"
      },
      "t_mapping(t_address,t_bool)": {
        "encoding": "mapping",
        "key": "t_address",
        "label": "mapping(address => bool)",
        "numberOfBytes": "32",
        "value": "t_bool"
      },
      "t_mapping(t_bytes32,t_struct(RoleData)19_storage)": {
        "encoding": "mapping",
        "key": "t_bytes32",
        "label": "mapping(bytes32 => struct AccessControl.RoleData)",
        "numberOfBytes": "32",
        "value": "t_struct(RoleData)19_storage"
      },
      "t_mapping(t_bytes32,t_struct(SchemaInfo)8010_storage)": {
        "encoding": "mapping",
        "key": "t_bytes32",
        "label": "mapping(bytes32 => struct ACResolver.SchemaInfo)",
        "numberOfBytes": "32",
        "value": "t_struct(SchemaInfo)8010_storage"
      },
      "t_struct(RoleData)19_storage": {
        "encoding": "inplace",
        "label": "struct AccessControl.RoleData",
        "members": [
          {
            "astId": 16,
            "contract": "contracts/resolver/examples/ACResolver.sol:ACResolver",
            "label": "members",
            "offset": 0,
            "slot": "0",
            "type": "t_mapping(t_address,t_bool)"
          },
          {
            "astId": 18,
            "contract": "contracts/resolver/examples/ACResolver.sol:ACResolver",
            "label": "adminRole",
            "offset": 0,
            "slot": "1",
            "type": "t_bytes32"
          }
        ],
        "numberOfBytes": "64"
      },
      "t_struct(SchemaInfo)8010_storage": {
        "encoding": "inplace",
        "label": "struct ACResolver.SchemaInfo",
        "members": [
          {
            "astId": 8005,
            "contract": "contracts/resolver/examples/ACResolver.sol:ACResolver",
            "label": "AllowAllToAttest",
            "offset": 0,
            "slot": "0",
            "type": "t_bool"
          },
          {
            "astId": 8007,
            "contract": "contracts/resolver/examples/ACResolver.sol:ACResolver",
            "label": "AllowAllToRevoke",
            "offset": 1,
            "slot": "0",
            "type": "t_bool"
          },
          {
            "astId": 8009,
            "contract": "contracts/resolver/examples/ACResolver.sol:ACResolver",
            "label": "encrypted",
            "offset": 2,
            "slot": "0",
            "type": "t_bool"
          }
        ],
        "numberOfBytes": "32"
      }
    }
  }
}