{
  "address": "0xD8473181CE7cF3BF56e21C3CcE124805245FA897",
  "abi": [
    {
      "inputs": [
        {
          "internalType": "contract ITAS",
          "name": "tas",
          "type": "address"
        },
        {
          "internalType": "address",
          "name": "_splitterFactory",
          "type": "address"
        },
        {
          "internalType": "contract ISchemaRegistry",
          "name": "_schemaRegistry",
          "type": "address"
        },
        {
          "internalType": "contract ITablelandSubscriptionsIndexer",
          "name": "_tableland",
          "type": "address"
        }
      ],
      "stateMutability": "nonpayable",
      "type": "constructor"
    },
    {
      "inputs": [],
      "name": "AccessDenied",
      "type": "error"
    },
    {
      "inputs": [],
      "name": "InsufficientValue",
      "type": "error"
    },
    {
      "inputs": [],
      "name": "InvalidLength",
      "type": "error"
    },
    {
      "inputs": [],
      "name": "InvalidTAS",
      "type": "error"
    },
    {
      "inputs": [],
      "name": "NotPayable",
      "type": "error"
    },
    {
      "inputs": [
        {
          "components": [
            {
              "internalType": "bytes32",
              "name": "uid",
              "type": "bytes32"
            },
            {
              "internalType": "bytes32",
              "name": "schema",
              "type": "bytes32"
            },
            {
              "internalType": "uint64",
              "name": "time",
              "type": "uint64"
            },
            {
              "internalType": "uint64",
              "name": "expirationTime",
              "type": "uint64"
            },
            {
              "internalType": "uint64",
              "name": "revocationTime",
              "type": "uint64"
            },
            {
              "internalType": "bytes32",
              "name": "refUID",
              "type": "bytes32"
            },
            {
              "internalType": "address",
              "name": "recipient",
              "type": "address"
            },
            {
              "internalType": "address",
              "name": "attester",
              "type": "address"
            },
            {
              "internalType": "bool",
              "name": "revocable",
              "type": "bool"
            },
            {
              "internalType": "bytes",
              "name": "data",
              "type": "bytes"
            },
            {
              "internalType": "string",
              "name": "dataBase64",
              "type": "string"
            }
          ],
          "internalType": "struct Attestation",
          "name": "attestation",
          "type": "tuple"
        }
      ],
      "name": "attest",
      "outputs": [
        {
          "internalType": "bool",
          "name": "",
          "type": "bool"
        }
      ],
      "stateMutability": "payable",
      "type": "function"
    },
    {
      "inputs": [
        {
          "internalType": "bytes32",
          "name": "data",
          "type": "bytes32"
        }
      ],
      "name": "bytes32ToString",
      "outputs": [
        {
          "internalType": "string",
          "name": "",
          "type": "string"
        }
      ],
      "stateMutability": "pure",
      "type": "function"
    },
    {
      "inputs": [
        {
          "internalType": "address",
          "name": "sender",
          "type": "address"
        },
        {
          "internalType": "bytes32",
          "name": "schemaUID",
          "type": "bytes32"
        }
      ],
      "name": "hasAccess",
      "outputs": [
        {
          "internalType": "bool",
          "name": "",
          "type": "bool"
        }
      ],
      "stateMutability": "view",
      "type": "function"
    },
    {
      "inputs": [],
      "name": "isPayable",
      "outputs": [
        {
          "internalType": "bool",
          "name": "",
          "type": "bool"
        }
      ],
      "stateMutability": "pure",
      "type": "function"
    },
    {
      "inputs": [
        {
          "components": [
            {
              "internalType": "bytes32",
              "name": "uid",
              "type": "bytes32"
            },
            {
              "internalType": "bytes32",
              "name": "schema",
              "type": "bytes32"
            },
            {
              "internalType": "uint64",
              "name": "time",
              "type": "uint64"
            },
            {
              "internalType": "uint64",
              "name": "expirationTime",
              "type": "uint64"
            },
            {
              "internalType": "uint64",
              "name": "revocationTime",
              "type": "uint64"
            },
            {
              "internalType": "bytes32",
              "name": "refUID",
              "type": "bytes32"
            },
            {
              "internalType": "address",
              "name": "recipient",
              "type": "address"
            },
            {
              "internalType": "address",
              "name": "attester",
              "type": "address"
            },
            {
              "internalType": "bool",
              "name": "revocable",
              "type": "bool"
            },
            {
              "internalType": "bytes",
              "name": "data",
              "type": "bytes"
            },
            {
              "internalType": "string",
              "name": "dataBase64",
              "type": "string"
            }
          ],
          "internalType": "struct Attestation[]",
          "name": "attestations",
          "type": "tuple[]"
        },
        {
          "internalType": "uint256[]",
          "name": "values",
          "type": "uint256[]"
        }
      ],
      "name": "multiAttest",
      "outputs": [
        {
          "internalType": "bool",
          "name": "",
          "type": "bool"
        }
      ],
      "stateMutability": "payable",
      "type": "function"
    },
    {
      "inputs": [
        {
          "components": [
            {
              "internalType": "bytes32",
              "name": "uid",
              "type": "bytes32"
            },
            {
              "internalType": "bytes32",
              "name": "schema",
              "type": "bytes32"
            },
            {
              "internalType": "uint64",
              "name": "time",
              "type": "uint64"
            },
            {
              "internalType": "uint64",
              "name": "expirationTime",
              "type": "uint64"
            },
            {
              "internalType": "uint64",
              "name": "revocationTime",
              "type": "uint64"
            },
            {
              "internalType": "bytes32",
              "name": "refUID",
              "type": "bytes32"
            },
            {
              "internalType": "address",
              "name": "recipient",
              "type": "address"
            },
            {
              "internalType": "address",
              "name": "attester",
              "type": "address"
            },
            {
              "internalType": "bool",
              "name": "revocable",
              "type": "bool"
            },
            {
              "internalType": "bytes",
              "name": "data",
              "type": "bytes"
            },
            {
              "internalType": "string",
              "name": "dataBase64",
              "type": "string"
            }
          ],
          "internalType": "struct Attestation[]",
          "name": "attestations",
          "type": "tuple[]"
        },
        {
          "internalType": "uint256[]",
          "name": "values",
          "type": "uint256[]"
        }
      ],
      "name": "multiRevoke",
      "outputs": [
        {
          "internalType": "bool",
          "name": "",
          "type": "bool"
        }
      ],
      "stateMutability": "payable",
      "type": "function"
    },
    {
      "inputs": [
        {
          "internalType": "address[]",
          "name": "contentCreators",
          "type": "address[]"
        },
        {
          "internalType": "uint256[]",
          "name": "creatorsShares",
          "type": "uint256[]"
        },
        {
          "internalType": "uint256",
          "name": "monthlySubscriptionPrice",
          "type": "uint256"
        },
        {
          "components": [
            {
              "internalType": "string",
              "name": "schema",
              "type": "string"
            },
            {
              "internalType": "string",
              "name": "schemaName",
              "type": "string"
            },
            {
              "internalType": "string",
              "name": "schemaDescription",
              "type": "string"
            },
            {
              "internalType": "string[]",
              "name": "categories",
              "type": "string[]"
            },
            {
              "internalType": "contract ISchemaResolver",
              "name": "schemaResolver",
              "type": "address"
            },
            {
              "internalType": "bool",
              "name": "revocable",
              "type": "bool"
            }
          ],
          "internalType": "struct SchemaRegistrationInput",
          "name": "input",
          "type": "tuple"
        }
      ],
      "name": "registerSubscriptionSchema",
      "outputs": [],
      "stateMutability": "nonpayable",
      "type": "function"
    },
    {
      "inputs": [
        {
          "components": [
            {
              "internalType": "bytes32",
              "name": "uid",
              "type": "bytes32"
            },
            {
              "internalType": "bytes32",
              "name": "schema",
              "type": "bytes32"
            },
            {
              "internalType": "uint64",
              "name": "time",
              "type": "uint64"
            },
            {
              "internalType": "uint64",
              "name": "expirationTime",
              "type": "uint64"
            },
            {
              "internalType": "uint64",
              "name": "revocationTime",
              "type": "uint64"
            },
            {
              "internalType": "bytes32",
              "name": "refUID",
              "type": "bytes32"
            },
            {
              "internalType": "address",
              "name": "recipient",
              "type": "address"
            },
            {
              "internalType": "address",
              "name": "attester",
              "type": "address"
            },
            {
              "internalType": "bool",
              "name": "revocable",
              "type": "bool"
            },
            {
              "internalType": "bytes",
              "name": "data",
              "type": "bytes"
            },
            {
              "internalType": "string",
              "name": "dataBase64",
              "type": "string"
            }
          ],
          "internalType": "struct Attestation",
          "name": "attestation",
          "type": "tuple"
        }
      ],
      "name": "revoke",
      "outputs": [
        {
          "internalType": "bool",
          "name": "",
          "type": "bool"
        }
      ],
      "stateMutability": "payable",
      "type": "function"
    },
    {
      "inputs": [],
      "name": "splitterFactory",
      "outputs": [
        {
          "internalType": "address",
          "name": "",
          "type": "address"
        }
      ],
      "stateMutability": "view",
      "type": "function"
    },
    {
      "inputs": [
        {
          "internalType": "bytes32",
          "name": "schemaUID",
          "type": "bytes32"
        },
        {
          "internalType": "uint256",
          "name": "months",
          "type": "uint256"
        }
      ],
      "name": "subscribe",
      "outputs": [],
      "stateMutability": "payable",
      "type": "function"
    },
    {
      "inputs": [
        {
          "internalType": "bytes32",
          "name": "schemaUID",
          "type": "bytes32"
        },
        {
          "internalType": "uint256",
          "name": "newPrice",
          "type": "uint256"
        }
      ],
      "name": "updatePrice",
      "outputs": [],
      "stateMutability": "nonpayable",
      "type": "function"
    },
    {
      "inputs": [
        {
          "internalType": "address",
          "name": "",
          "type": "address"
        },
        {
          "internalType": "bytes32",
          "name": "",
          "type": "bytes32"
        }
      ],
      "name": "userSubscriptions",
      "outputs": [
        {
          "internalType": "uint256",
          "name": "",
          "type": "uint256"
        }
      ],
      "stateMutability": "view",
      "type": "function"
    },
    {
      "inputs": [],
      "name": "version",
      "outputs": [
        {
          "internalType": "string",
          "name": "",
          "type": "string"
        }
      ],
      "stateMutability": "view",
      "type": "function"
    },
    {
      "stateMutability": "payable",
      "type": "receive"
    }
  ],
  "transactionHash": "0xcfe99b605b713d8aa3c8644c8a6a9c126c616572a7745e093fec30cdca9ac280",
  "args": [
    "0xF8C36009C0D3f5EFA713C185Ff63B89353f00560",
    "0x1c6acBE8636C36Cb8a1493C18f1e1314CcF0797C",
    "0x8f5251E587c4B57EaB5dfB1cd20623cc44ABd95e",
    "0x70977d11589e28E73dBa2Ea803b6d23e9E205057"
  ],
  "numDeployments": 1,
  "solcInputHash": "271f055c327174593309aa6bb1046f87",
  "bytecode": "0x61010060405262278d006000553480156200001957600080fd5b50604051620022be380380620022be8339810160408190526200003c916200012c565b6000608081905260a052600160c052836001600160a01b038116620000745760405163120d8e6b60e21b815260040160405180910390fd5b6001600160a01b0390811660e052600480546001600160a01b031990811630179091556003805494831694821694909417909355600680549482169484169490941790935560058054919093169116179055506200019a565b60006001600160a01b0382165b92915050565b6000620000da82620000cd565b620000f881620000e0565b81146200010457600080fd5b50565b8051620000da81620000ed565b620000f881620000cd565b8051620000da8162000114565b60008060008060808587031215620001475762000147600080fd5b600062000155878762000107565b945050602062000168878288016200011f565b93505060406200017b8782880162000107565b92505060606200018e8782880162000107565b91505092959194509250565b60805160a05160c05160e0516120ea620001d46000396000610e280152600061075c015260006107330152600061070a01526120ea6000f3fe6080604052600436106100c65760003560e01c8063773a6c3b1161007f5780639201de55116100595780639201de551461020a578063af7497461461022a578063b4188e251461024a578063ce46e0461461025d57600080fd5b8063773a6c3b146101925780637d294e62146101d75780638e125290146101f757600080fd5b80630778f0ac146100d4578063097065aa146100e7578063383aef571461011057806354fd4d50146101235780635608d9e5146101455780635f704f3e1461017257600080fd5b366100cf57005b005b600080fd5b6100cd6100e23660046112c4565b610271565b6100fa6100f536600461131d565b610618565b6040516101079190611361565b60405180910390f35b6100fa61011e3660046113c0565b610634565b34801561012f57600080fd5b50610138610703565b604051610107919061148d565b34801561015157600080fd5b50600654610165906001600160a01b031681565b60405161010791906114b8565b34801561017e57600080fd5b506100cd61018d3660046112c4565b6107a6565b34801561019e57600080fd5b506101ca6101ad3660046114da565b600260209081526000928352604080842090915290825290205481565b6040516101079190611502565b3480156101e357600080fd5b506100fa6101f23660046114da565b610856565b6100fa6102053660046113c0565b6108a3565b34801561021657600080fd5b50610138610225366004611510565b610962565b34801561023657600080fd5b506100cd6102453660046118f8565b610b1a565b6100fa61025836600461131d565b610d27565b34801561026957600080fd5b5060016100fa565b6000811161029a5760405162461bcd60e51b8152600401610291906119e0565b60405180910390fd5b60008281526001602052604090206003015434906102b9908390611a06565b146102d65760405162461bcd60e51b815260040161029190611a59565b6000828152600160205260409020600501546001600160a01b031661030d5760405162461bcd60e51b815260040161029190611aab565b3360009081526002602090815260408083208584529091528120548154909190610338908490611a06565b9050816000036103d65761034c4282611abb565b6005546040516302e324b160e41b81529192506001600160a01b031690632e324b109061038190879033908690600401611ace565b600060405180830381600087803b15801561039b57600080fd5b505af11580156103af573d6000803e3d6000fd5b50503360009081526002602090815260408083208984529091529020839055506105009050565b42821115610471576103e88183611abb565b336000818152600260209081526040808320898452909152908190208390556005549051630d2ea9ad60e41b81529294506001600160a01b03169163d2ea9ad09161043a918891908790600401611ace565b600060405180830381600087803b15801561045457600080fd5b505af1158015610468573d6000803e3d6000fd5b50505050610500565b61047b4282611abb565b600554604051630d2ea9ad60e41b81529192506001600160a01b03169063d2ea9ad0906104b090879033908690600401611ace565b600060405180830381600087803b1580156104ca57600080fd5b505af11580156104de573d6000803e3d6000fd5b5050336000908152600260209081526040808320898452909152902083905550505b60008481526001602052604081206004018054349290610521908490611abb565b909155505060008481526001602052604090206005015461054b906001600160a01b031634610d38565b600084815260016020908152604091829020600501548251600481526024810190935290820180516001600160e01b031663e4fc6b6d60e01b17905261059c916001600160a01b0390911690610dd9565b50600554600085815260016020526040908190206004908101549151638d879e6d60e01b81526001600160a01b0390931692638d879e6d926105e092899201611af6565b600060405180830381600087803b1580156105fa57600080fd5b505af115801561060e573d6000803e3d6000fd5b5050505050505050565b6000610622610e1d565b61062c8234610e68565b90505b919050565b600061063e610e1d565b8382811461065f5760405163251f56a160e21b815260040160405180910390fd5b3460005b828110156106f357600086868381811061067f5761067f611b18565b905060200201359050828111156106a95760405163044044a560e21b815260040160405180910390fd5b6106d68989848181106106be576106be611b18565b90506020028101906106d09190611b2e565b82610e68565b6106e75760009450505050506106fb565b90910390600101610663565b506001925050505b949350505050565b606061072e7f0000000000000000000000000000000000000000000000000000000000000000610eb9565b6107577f0000000000000000000000000000000000000000000000000000000000000000610eb9565b6107807f0000000000000000000000000000000000000000000000000000000000000000610eb9565b60405160200161079293929190611b86565b604051602081830303815290604052905090565b6000828152600160205260409020600201546001600160a01b031633146107cc57600080fd5b600081116107d957600080fd5b600082815260016020526040908190206003018290556005549051630d53e5f360e11b81526001600160a01b0390911690631aa7cbe6906108209085908590600401611af6565b600060405180830381600087803b15801561083a57600080fd5b505af115801561084e573d6000803e3d6000fd5b505050505050565b6001600160a01b038216600090815260026020908152604080832084845290915281205442108061089a5750600082815260016020526040902061089a9084610f4c565b90505b92915050565b60006108ad610e1d565b838281146108ce5760405163251f56a160e21b815260040160405180910390fd5b3460005b828110156106f35760008686838181106108ee576108ee611b18565b905060200201359050828111156109185760405163044044a560e21b815260040160405180910390fd5b61094589898481811061092d5761092d611b18565b905060200281019061093f9190611b2e565b50600090565b6109565760009450505050506106fb565b909103906001016108d2565b6060600061097260206002611bc9565b60ff166001600160401b0381111561098c5761098c611531565b6040519080825280601f01601f1916602001820160405280156109b6576020820181803683370190505b5060408051808201909152601081526f181899199a1a9b1b9c1cb0b131b232b360811b602082015290915060005b6020811015610af057818251868360208110610a0257610a02611b18565b610a0e9291901a611bff565b81518110610a1e57610a1e611b18565b01602001516001600160f81b03191683610a39836002611a06565b81518110610a4957610a49611b18565b60200101906001600160f81b031916908160001a905350818251868360208110610a7557610a75611b18565b610a819291901a611c13565b81518110610a9157610a91611b18565b01602001516001600160f81b03191683610aac836002611a06565b610ab7906001611abb565b81518110610ac757610ac7611b18565b60200101906001600160f81b031916908160001a90535080610ae881611c27565b9150506109e4565b5081604051602001610b029190611c3a565b60405160208183030381529060405292505050919050565b60008211610b3a5760405162461bcd60e51b815260040161029190611c85565b6000610b4582610f6e565b6000818152600160205260409020909150610b608686610ff5565b6005820180546001600160a01b0319166001600160a01b03929092169190911790556003810184905560005b8651811015610bd757610bc4878281518110610baa57610baa611b18565b60200260200101518360000161106390919063ffffffff16565b5080610bcf81611c27565b915050610b8c565b506002810180546001600160a01b031916321790556005805490820154604051630dc70aa360e31b81526001600160a01b0392831692636e38551892610c259287928a921690600401611c95565b600060405180830381600087803b158015610c3f57600080fd5b505af1158015610c53573d6000803e3d6000fd5b5050600554604051637e6c78bd60e01b81526001600160a01b039091169250637e6c78bd9150610c8b9085908a908a90600401611d64565b600060405180830381600087803b158015610ca557600080fd5b505af1158015610cb9573d6000803e3d6000fd5b50506005546040516379cc6d9960e11b81526001600160a01b03909116925063f398db329150610ced908590600401611502565b600060405180830381600087803b158015610d0757600080fd5b505af1158015610d1b573d6000803e3d6000fd5b50505050505050505050565b6000610d31610e1d565b600061062c565b80471015610d585760405162461bcd60e51b815260040161029190611dcc565b6000826001600160a01b031682604051610d7190611ddc565b60006040518083038185875af1925050503d8060008114610dae576040519150601f19603f3d011682016040523d82523d6000602084013e610db3565b606091505b5050905080610dd45760405162461bcd60e51b815260040161029190611e3e565b505050565b606061089a838360006040518060400160405280601e81526020017f416464726573733a206c6f772d6c6576656c2063616c6c206661696c65640000815250611078565b336001600160a01b037f00000000000000000000000000000000000000000000000000000000000000001614610e6657604051634ca8886760e01b815260040160405180910390fd5b565b600080610e7c610100850160e08601611e4e565b60208086013560008181526001909252604090912091925090610e9f9083610f4c565b610eae5760009250505061089d565b506001949350505050565b60606000610ec683611114565b60010190506000816001600160401b03811115610ee557610ee5611531565b6040519080825280601f01601f191660200182016040528015610f0f576020820181803683370190505b5090508181016020015b600019016f181899199a1a9b1b9c1cb0b131b232b360811b600a86061a8153600a8504945084610f19575b509392505050565b6001600160a01b0381166000908152600183016020526040812054151561089a565b600480546001600160a01b039081166080840152600060a0840181905260035460405163186910d360e21b815291939216916361a4434c91610fb291869101611f83565b6020604051808303816000875af1158015610fd1573d6000803e3d6000fd5b505050506040513d601f19601f8201168201806040525081019061062c9190611f9f565b600654604051600091829161104d916001600160a01b03169061101e9087908790602401611fc0565b60408051601f198184030181529190526020810180516001600160e01b0316637be12ff160e11b179052610dd9565b9050808060200190518101906106fb9190611ff0565b600061089a836001600160a01b0384166111ec565b60608247101561109a5760405162461bcd60e51b815260040161029190612054565b600080866001600160a01b031685876040516110b69190612064565b60006040518083038185875af1925050503d80600081146110f3576040519150601f19603f3d011682016040523d82523d6000602084013e6110f8565b606091505b50915091506111098783838761123b565b979650505050505050565b60008072184f03e93ff9f4daa797ed6e38ed64bf6a1f0160401b83106111535772184f03e93ff9f4daa797ed6e38ed64bf6a1f0160401b830492506040015b6d04ee2d6d415b85acef8100000000831061117f576d04ee2d6d415b85acef8100000000830492506020015b662386f26fc10000831061119d57662386f26fc10000830492506010015b6305f5e10083106111b5576305f5e100830492506008015b61271083106111c957612710830492506004015b606483106111db576064830492506002015b600a831061089d5760010192915050565b60008181526001830160205260408120546112335750815460018181018455600084815260208082209093018490558454848252828601909352604090209190915561089d565b50600061089d565b6060831561127a578251600003611273576001600160a01b0385163b6112735760405162461bcd60e51b8152600401610291906120a4565b50816106fb565b6106fb838381511561128f5781518083602001fd5b8060405162461bcd60e51b8152600401610291919061148d565b805b81146112b657600080fd5b50565b803561089d816112a9565b600080604083850312156112da576112da600080fd5b60006112e685856112b9565b92505060206112f7858286016112b9565b9150509250929050565b6000610160828403121561131757611317600080fd5b50919050565b60006020828403121561133257611332600080fd5b81356001600160401b0381111561134b5761134b600080fd5b6106fb84828501611301565b8015155b82525050565b6020810161089d8284611357565b60008083601f84011261138457611384600080fd5b5081356001600160401b0381111561139e5761139e600080fd5b6020830191508360208202830111156113b9576113b9600080fd5b9250929050565b600080600080604085870312156113d9576113d9600080fd5b84356001600160401b038111156113f2576113f2600080fd5b6113fe8782880161136f565b945094505060208501356001600160401b0381111561141f5761141f600080fd5b61142b8782880161136f565b95989497509550505050565b60005b8381101561145257818101518382015260200161143a565b50506000910152565b6000611465825190565b80845260208401935061147c818560208601611437565b601f01601f19169290920192915050565b6020808252810161089a818461145b565b60006001600160a01b03821661062c565b61135b8161149e565b6020810161089d82846114af565b6112ab8161149e565b803561089d816114c6565b600080604083850312156114f0576114f0600080fd5b60006112e685856114cf565b8061135b565b6020810161089d82846114fc565b60006020828403121561152557611525600080fd5b60006106fb84846112b9565b634e487b7160e01b600052604160045260246000fd5b601f19601f83011681018181106001600160401b038211171561156c5761156c611531565b6040525050565b600061157e60405190565b905061062f8282611547565b60006001600160401b038211156115a3576115a3611531565b5060209081020190565b60006115c06115bb8461158a565b611573565b838152905060208082019084028301858111156115df576115df600080fd5b835b8181101561160357806115f488826114cf565b845250602092830192016115e1565b5050509392505050565b600082601f83011261162157611621600080fd5b81356106fb8482602086016115ad565b600061163f6115bb8461158a565b8381529050602080820190840283018581111561165e5761165e600080fd5b835b81811015611603578061167388826112b9565b84525060209283019201611660565b600082601f83011261169657611696600080fd5b81356106fb848260208601611631565b60006001600160401b038211156116bf576116bf611531565b601f19601f83011660200192915050565b82818337506000910152565b60006116ea6115bb846116a6565b90508281526020810184848401111561170557611705600080fd5b610f448482856116d0565b600082601f83011261172457611724600080fd5b81356106fb8482602086016116dc565b60006117426115bb8461158a565b8381529050602080820190840283018581111561176157611761600080fd5b835b818110156116035780356001600160401b0381111561178457611784600080fd5b8086016117918982611710565b8552505060209283019201611763565b600082601f8301126117b5576117b5600080fd5b81356106fb848260208601611734565b600061062c8261149e565b6112ab816117c5565b803561089d816117d0565b8015156112ab565b803561089d816117e4565b600060c0828403121561180c5761180c600080fd5b61181660c0611573565b905081356001600160401b0381111561183157611831600080fd5b61183d84828501611710565b82525060208201356001600160401b0381111561185c5761185c600080fd5b61186884828501611710565b60208301525060408201356001600160401b0381111561188a5761188a600080fd5b61189684828501611710565b60408301525060608201356001600160401b038111156118b8576118b8600080fd5b6118c4848285016117a1565b60608301525060806118d8848285016117d9565b60808301525060a06118ec848285016117ec565b60a08301525092915050565b6000806000806080858703121561191157611911600080fd5b84356001600160401b0381111561192a5761192a600080fd5b6119368782880161160d565b94505060208501356001600160401b0381111561195557611955600080fd5b61196187828801611682565b9350506040611972878288016112b9565b92505060608501356001600160401b0381111561199157611991600080fd5b61199d878288016117f7565b91505092959194509250565b601a81526000602082017f6d696e20737562736372697074696f6e203d2031206d6f6e7468000000000000815291505b5060200190565b6020808252810161062c816119a9565b634e487b7160e01b600052601160045260246000fd5b818102808215838204851417611a1e57611a1e6119f0565b5092915050565b601881526000602082017f496e636f7272656374207061796d656e742076616c7565200000000000000000815291506119d9565b6020808252810161062c81611a25565b602281526000602082017f6e6f6e206578697374656420737562736372697074696f6e20736368656d6155815261125160f21b602082015291505b5060400190565b6020808252810161062c81611a69565b8082018082111561089d5761089d6119f0565b60608101611adc82866114fc565b611ae960208301856114af565b6106fb60408301846114fc565b60408101611b0482856114fc565b611b1160208301846114fc565b9392505050565b634e487b7160e01b600052603260045260246000fd5b6000823561015e1936849003018112611b4957611b49600080fd5b9190910192915050565b6000611b5d825190565b611b6b818560208601611437565b9290920192915050565b601760f91b815260005b5060010190565b6000611b928286611b53565b9150611b9d82611b75565b9150611ba98285611b53565b9150611bb482611b75565b9150611bc08284611b53565b95945050505050565b60ff918216919081169082820290811690818114611a1e57611a1e6119f0565b634e487b7160e01b600052601260045260246000fd5b600082611c0e57611c0e611be9565b500490565b600082611c2257611c22611be9565b500690565b60006000198203611b7f57611b7f6119f0565b61060f60f31b81526002016000611b118284611b53565b601e81526000602082017f537562736372697074696f6e207072696365206d757374206265203e20300000815291506119d9565b6020808252810161062c81611c51565b60608101611ca382866114fc565b611cb060208301856114fc565b6106fb60408301846114af565b6000611cc983836114af565b505060200190565b6000611cdb825190565b80845260209384019383018060005b83811015611d0f578151611cfe8882611cbd565b975060208301925050600101611cea565b509495945050505050565b6000611cc983836114fc565b6000611d30825190565b80845260209384019383018060005b83811015611d0f578151611d538882611d1a565b975060208301925050600101611d3f565b60608101611d7282866114fc565b8181036020830152611d848185611cd1565b90508181036040830152611bc08184611d26565b601d81526000602082017f416464726573733a20696e73756666696369656e742062616c616e6365000000815291506119d9565b6020808252810161062c81611d98565b60008161089d565b603a81526000602082017f416464726573733a20756e61626c6520746f2073656e642076616c75652c207281527f6563697069656e74206d6179206861766520726576657274656400000000000060208201529150611aa4565b6020808252810161062c81611de4565b600060208284031215611e6357611e63600080fd5b60006106fb84846114cf565b600061089a838361145b565b6000611e85825190565b80845260208401935083602082028501611e9f8560200190565b8060005b85811015611ed45784840389528151611ebc8582611e6f565b94506020830160209a909a0199925050600101611ea3565b5091979650505050505050565b600061062c826117c5565b61135b81611ee1565b805160c080845260009190840190611f0d828261145b565b91505060208301518482036020860152611f27828261145b565b91505060408301518482036040860152611f41828261145b565b91505060608301518482036060860152611f5b8282611e7b565b9150506080830151611f706080860182611eec565b5060a0830151610f4460a0860182611357565b6020808252810161089a8184611ef5565b805161089d816112a9565b600060208284031215611fb457611fb4600080fd5b60006106fb8484611f94565b60408082528101611fd18185611cd1565b905081810360208301526106fb8184611d26565b805161089d816114c6565b60006020828403121561200557612005600080fd5b60006106fb8484611fe5565b602681526000602082017f416464726573733a20696e73756666696369656e742062616c616e636520666f8152651c8818d85b1b60d21b60208201529150611aa4565b6020808252810161062c81612011565b6000611b118284611b53565b601d81526000602082017f416464726573733a2063616c6c20746f206e6f6e2d636f6e7472616374000000815291506119d9565b6020808252810161062c8161207056fea2646970667358221220377dc395eb9e384025b9e6cc131157ec20dd07660da65c29d8bb2db726f46d2e64736f6c63430008130033",
  "devdoc": {
    "kind": "dev",
    "methods": {
      "attest((bytes32,bytes32,uint64,uint64,uint64,bytes32,address,address,bool,bytes,string))": {
        "params": {
          "attestation": "The new attestation."
        },
        "returns": {
          "_0": "Whether the attestation is valid."
        }
      },
      "isPayable()": {
        "returns": {
          "_0": "True, indicating that the contract can accept payments."
        }
      },
      "multiAttest((bytes32,bytes32,uint64,uint64,uint64,bytes32,address,address,bool,bytes,string)[],uint256[])": {
        "params": {
          "attestations": "The new attestations.",
          "values": "Explicit ETH amounts which were sent with each attestation."
        },
        "returns": {
          "_0": "Whether all the attestations are valid."
        }
      },
      "multiRevoke((bytes32,bytes32,uint64,uint64,uint64,bytes32,address,address,bool,bytes,string)[],uint256[])": {
        "params": {
          "attestations": "The existing attestations to be revoked.",
          "values": "Explicit ETH amounts which were sent with each revocation."
        },
        "returns": {
          "_0": "Whether the attestations can be revoked."
        }
      },
      "revoke((bytes32,bytes32,uint64,uint64,uint64,bytes32,address,address,bool,bytes,string))": {
        "params": {
          "attestation": "The existing attestation to be revoked."
        },
        "returns": {
          "_0": "Whether the attestation can be revoked."
        }
      },
      "subscribe(bytes32,uint256)": {
        "details": "Mint tokens for encrypted attestations.",
        "params": {
          "schemaUID": "The UID of the schema for which tokens are being minted."
        }
      },
      "version()": {
        "returns": {
          "_0": "Semver contract version as a string."
        }
      }
    },
    "title": "ContentSubscriptionResolver",
    "version": 1
  },
  "userdoc": {
    "kind": "user",
    "methods": {
      "attest((bytes32,bytes32,uint64,uint64,uint64,bytes32,address,address,bool,bytes,string))": {
        "notice": "Processes an attestation and verifies whether it's valid."
      },
      "isPayable()": {
        "notice": "Indicates whether the contract is designed to handle incoming payments."
      },
      "multiAttest((bytes32,bytes32,uint64,uint64,uint64,bytes32,address,address,bool,bytes,string)[],uint256[])": {
        "notice": "Processes multiple attestations and verifies whether they are valid."
      },
      "multiRevoke((bytes32,bytes32,uint64,uint64,uint64,bytes32,address,address,bool,bytes,string)[],uint256[])": {
        "notice": "Processes revocation of multiple attestation and verifies they can be revoked."
      },
      "revoke((bytes32,bytes32,uint64,uint64,uint64,bytes32,address,address,bool,bytes,string))": {
        "notice": "Processes an attestation revocation and verifies if it can be revoked."
      },
      "version()": {
        "notice": "Returns the full semver contract version."
      }
    },
    "notice": "A schema resolver subcription to content example",
    "version": 1
  },
  "storageLayout": {
    "storage": [
      {
        "astId": 9599,
        "contract": "contracts/resolver/examples/ContentSubscriptionResolver.sol:ContentSubscriptionResolver",
        "label": "ONE_MONTH",
        "offset": 0,
        "slot": "0",
        "type": "t_uint256"
      },
      {
        "astId": 9616,
        "contract": "contracts/resolver/examples/ContentSubscriptionResolver.sol:ContentSubscriptionResolver",
        "label": "schemas",
        "offset": 0,
        "slot": "1",
        "type": "t_mapping(t_bytes32,t_struct(SchemaInfo)9611_storage)"
      },
      {
        "astId": 9622,
        "contract": "contracts/resolver/examples/ContentSubscriptionResolver.sol:ContentSubscriptionResolver",
        "label": "userSubscriptions",
        "offset": 0,
        "slot": "2",
        "type": "t_mapping(t_address,t_mapping(t_bytes32,t_uint256))"
      },
      {
        "astId": 9625,
        "contract": "contracts/resolver/examples/ContentSubscriptionResolver.sol:ContentSubscriptionResolver",
        "label": "schemaRegistry",
        "offset": 0,
        "slot": "3",
        "type": "t_contract(ISchemaRegistry)5246"
      },
      {
        "astId": 9628,
        "contract": "contracts/resolver/examples/ContentSubscriptionResolver.sol:ContentSubscriptionResolver",
        "label": "schemaResolver",
        "offset": 0,
        "slot": "4",
        "type": "t_contract(ISchemaResolver)8701"
      },
      {
        "astId": 9631,
        "contract": "contracts/resolver/examples/ContentSubscriptionResolver.sol:ContentSubscriptionResolver",
        "label": "tableland",
        "offset": 0,
        "slot": "5",
        "type": "t_contract(ITablelandSubscriptionsIndexer)10317"
      },
      {
        "astId": 9633,
        "contract": "contracts/resolver/examples/ContentSubscriptionResolver.sol:ContentSubscriptionResolver",
        "label": "revocable",
        "offset": 20,
        "slot": "5",
        "type": "t_bool"
      },
      {
        "astId": 9635,
        "contract": "contracts/resolver/examples/ContentSubscriptionResolver.sol:ContentSubscriptionResolver",
        "label": "splitterFactory",
        "offset": 0,
        "slot": "6",
        "type": "t_address"
      }
    ],
    "types": {
      "t_address": {
        "encoding": "inplace",
        "label": "address",
        "numberOfBytes": "20"
      },
      "t_array(t_bytes32)dyn_storage": {
        "base": "t_bytes32",
        "encoding": "dynamic_array",
        "label": "bytes32[]",
        "numberOfBytes": "32"
      },
      "t_bool": {
        "encoding": "inplace",
        "label": "bool",
        "numberOfBytes": "1"
      },
      "t_bytes32": {
        "encoding": "inplace",
        "label": "bytes32",
        "numberOfBytes": "32"
      },
      "t_contract(ISchemaRegistry)5246": {
        "encoding": "inplace",
        "label": "contract ISchemaRegistry",
        "numberOfBytes": "20"
      },
      "t_contract(ISchemaResolver)8701": {
        "encoding": "inplace",
        "label": "contract ISchemaResolver",
        "numberOfBytes": "20"
      },
      "t_contract(ITablelandSubscriptionsIndexer)10317": {
        "encoding": "inplace",
        "label": "contract ITablelandSubscriptionsIndexer",
        "numberOfBytes": "20"
      },
      "t_mapping(t_address,t_mapping(t_bytes32,t_uint256))": {
        "encoding": "mapping",
        "key": "t_address",
        "label": "mapping(address => mapping(bytes32 => uint256))",
        "numberOfBytes": "32",
        "value": "t_mapping(t_bytes32,t_uint256)"
      },
      "t_mapping(t_bytes32,t_struct(SchemaInfo)9611_storage)": {
        "encoding": "mapping",
        "key": "t_bytes32",
        "label": "mapping(bytes32 => struct ContentSubscriptionResolver.SchemaInfo)",
        "numberOfBytes": "32",
        "value": "t_struct(SchemaInfo)9611_storage"
      },
      "t_mapping(t_bytes32,t_uint256)": {
        "encoding": "mapping",
        "key": "t_bytes32",
        "label": "mapping(bytes32 => uint256)",
        "numberOfBytes": "32",
        "value": "t_uint256"
      },
      "t_struct(AddressSet)4206_storage": {
        "encoding": "inplace",
        "label": "struct EnumerableSet.AddressSet",
        "members": [
          {
            "astId": 4205,
            "contract": "contracts/resolver/examples/ContentSubscriptionResolver.sol:ContentSubscriptionResolver",
            "label": "_inner",
            "offset": 0,
            "slot": "0",
            "type": "t_struct(Set)3891_storage"
          }
        ],
        "numberOfBytes": "64"
      },
      "t_struct(SchemaInfo)9611_storage": {
        "encoding": "inplace",
        "label": "struct ContentSubscriptionResolver.SchemaInfo",
        "members": [
          {
            "astId": 9602,
            "contract": "contracts/resolver/examples/ContentSubscriptionResolver.sol:ContentSubscriptionResolver",
            "label": "contentCreators",
            "offset": 0,
            "slot": "0",
            "type": "t_struct(AddressSet)4206_storage"
          },
          {
            "astId": 9604,
            "contract": "contracts/resolver/examples/ContentSubscriptionResolver.sol:ContentSubscriptionResolver",
            "label": "multisig",
            "offset": 0,
            "slot": "2",
            "type": "t_address"
          },
          {
            "astId": 9606,
            "contract": "contracts/resolver/examples/ContentSubscriptionResolver.sol:ContentSubscriptionResolver",
            "label": "subscriptionPrice",
            "offset": 0,
            "slot": "3",
            "type": "t_uint256"
          },
          {
            "astId": 9608,
            "contract": "contracts/resolver/examples/ContentSubscriptionResolver.sol:ContentSubscriptionResolver",
            "label": "totalRevenue",
            "offset": 0,
            "slot": "4",
            "type": "t_uint256"
          },
          {
            "astId": 9610,
            "contract": "contracts/resolver/examples/ContentSubscriptionResolver.sol:ContentSubscriptionResolver",
            "label": "splitterContract",
            "offset": 0,
            "slot": "5",
            "type": "t_address"
          }
        ],
        "numberOfBytes": "192"
      },
      "t_struct(Set)3891_storage": {
        "encoding": "inplace",
        "label": "struct EnumerableSet.Set",
        "members": [
          {
            "astId": 3886,
            "contract": "contracts/resolver/examples/ContentSubscriptionResolver.sol:ContentSubscriptionResolver",
            "label": "_values",
            "offset": 0,
            "slot": "0",
            "type": "t_array(t_bytes32)dyn_storage"
          },
          {
            "astId": 3890,
            "contract": "contracts/resolver/examples/ContentSubscriptionResolver.sol:ContentSubscriptionResolver",
            "label": "_indexes",
            "offset": 0,
            "slot": "1",
            "type": "t_mapping(t_bytes32,t_uint256)"
          }
        ],
        "numberOfBytes": "64"
      },
      "t_uint256": {
        "encoding": "inplace",
        "label": "uint256",
        "numberOfBytes": "32"
      }
    }
  }
}