{
  "address": "0x1D03515584aDA58d49f79E613236Db83396F57dE",
  "abi": [
    {
      "inputs": [
        {
          "internalType": "contract ITAS",
          "name": "tas",
          "type": "address"
        },
        {
          "internalType": "address",
          "name": "_splitterFactory",
          "type": "address"
        },
        {
          "internalType": "contract ISchemaRegistry",
          "name": "_schemaRegistry",
          "type": "address"
        },
        {
          "internalType": "contract ITablelandSubscriptionsIndexer",
          "name": "_tableland",
          "type": "address"
        }
      ],
      "stateMutability": "nonpayable",
      "type": "constructor"
    },
    {
      "inputs": [],
      "name": "AccessDenied",
      "type": "error"
    },
    {
      "inputs": [],
      "name": "InsufficientValue",
      "type": "error"
    },
    {
      "inputs": [],
      "name": "InvalidLength",
      "type": "error"
    },
    {
      "inputs": [],
      "name": "InvalidTAS",
      "type": "error"
    },
    {
      "inputs": [],
      "name": "NotPayable",
      "type": "error"
    },
    {
      "inputs": [
        {
          "components": [
            {
              "internalType": "bytes32",
              "name": "uid",
              "type": "bytes32"
            },
            {
              "internalType": "bytes32",
              "name": "schema",
              "type": "bytes32"
            },
            {
              "internalType": "uint64",
              "name": "time",
              "type": "uint64"
            },
            {
              "internalType": "uint64",
              "name": "expirationTime",
              "type": "uint64"
            },
            {
              "internalType": "uint64",
              "name": "revocationTime",
              "type": "uint64"
            },
            {
              "internalType": "bytes32",
              "name": "refUID",
              "type": "bytes32"
            },
            {
              "internalType": "address",
              "name": "recipient",
              "type": "address"
            },
            {
              "internalType": "address",
              "name": "attester",
              "type": "address"
            },
            {
              "internalType": "bool",
              "name": "revocable",
              "type": "bool"
            },
            {
              "internalType": "bytes",
              "name": "data",
              "type": "bytes"
            }
          ],
          "internalType": "struct Attestation",
          "name": "attestation",
          "type": "tuple"
        }
      ],
      "name": "attest",
      "outputs": [
        {
          "internalType": "bool",
          "name": "",
          "type": "bool"
        }
      ],
      "stateMutability": "payable",
      "type": "function"
    },
    {
      "inputs": [
        {
          "internalType": "bytes32",
          "name": "data",
          "type": "bytes32"
        }
      ],
      "name": "bytes32ToString",
      "outputs": [
        {
          "internalType": "string",
          "name": "",
          "type": "string"
        }
      ],
      "stateMutability": "pure",
      "type": "function"
    },
    {
      "inputs": [
        {
          "internalType": "address",
          "name": "sender",
          "type": "address"
        },
        {
          "internalType": "bytes32",
          "name": "schemaUID",
          "type": "bytes32"
        }
      ],
      "name": "hasAccess",
      "outputs": [
        {
          "internalType": "uint256",
          "name": "",
          "type": "uint256"
        }
      ],
      "stateMutability": "view",
      "type": "function"
    },
    {
      "inputs": [],
      "name": "isPayable",
      "outputs": [
        {
          "internalType": "bool",
          "name": "",
          "type": "bool"
        }
      ],
      "stateMutability": "pure",
      "type": "function"
    },
    {
      "inputs": [
        {
          "components": [
            {
              "internalType": "bytes32",
              "name": "uid",
              "type": "bytes32"
            },
            {
              "internalType": "bytes32",
              "name": "schema",
              "type": "bytes32"
            },
            {
              "internalType": "uint64",
              "name": "time",
              "type": "uint64"
            },
            {
              "internalType": "uint64",
              "name": "expirationTime",
              "type": "uint64"
            },
            {
              "internalType": "uint64",
              "name": "revocationTime",
              "type": "uint64"
            },
            {
              "internalType": "bytes32",
              "name": "refUID",
              "type": "bytes32"
            },
            {
              "internalType": "address",
              "name": "recipient",
              "type": "address"
            },
            {
              "internalType": "address",
              "name": "attester",
              "type": "address"
            },
            {
              "internalType": "bool",
              "name": "revocable",
              "type": "bool"
            },
            {
              "internalType": "bytes",
              "name": "data",
              "type": "bytes"
            }
          ],
          "internalType": "struct Attestation[]",
          "name": "attestations",
          "type": "tuple[]"
        },
        {
          "internalType": "uint256[]",
          "name": "values",
          "type": "uint256[]"
        }
      ],
      "name": "multiAttest",
      "outputs": [
        {
          "internalType": "bool",
          "name": "",
          "type": "bool"
        }
      ],
      "stateMutability": "payable",
      "type": "function"
    },
    {
      "inputs": [
        {
          "components": [
            {
              "internalType": "bytes32",
              "name": "uid",
              "type": "bytes32"
            },
            {
              "internalType": "bytes32",
              "name": "schema",
              "type": "bytes32"
            },
            {
              "internalType": "uint64",
              "name": "time",
              "type": "uint64"
            },
            {
              "internalType": "uint64",
              "name": "expirationTime",
              "type": "uint64"
            },
            {
              "internalType": "uint64",
              "name": "revocationTime",
              "type": "uint64"
            },
            {
              "internalType": "bytes32",
              "name": "refUID",
              "type": "bytes32"
            },
            {
              "internalType": "address",
              "name": "recipient",
              "type": "address"
            },
            {
              "internalType": "address",
              "name": "attester",
              "type": "address"
            },
            {
              "internalType": "bool",
              "name": "revocable",
              "type": "bool"
            },
            {
              "internalType": "bytes",
              "name": "data",
              "type": "bytes"
            }
          ],
          "internalType": "struct Attestation[]",
          "name": "attestations",
          "type": "tuple[]"
        },
        {
          "internalType": "uint256[]",
          "name": "values",
          "type": "uint256[]"
        }
      ],
      "name": "multiRevoke",
      "outputs": [
        {
          "internalType": "bool",
          "name": "",
          "type": "bool"
        }
      ],
      "stateMutability": "payable",
      "type": "function"
    },
    {
      "inputs": [
        {
          "internalType": "address[]",
          "name": "contentCreators",
          "type": "address[]"
        },
        {
          "internalType": "uint256[]",
          "name": "creatorsShares",
          "type": "uint256[]"
        },
        {
          "internalType": "string[]",
          "name": "categories",
          "type": "string[]"
        },
        {
          "internalType": "uint256",
          "name": "monthlySubscriptionPrice",
          "type": "uint256"
        },
        {
          "internalType": "string",
          "name": "schemaName",
          "type": "string"
        },
        {
          "internalType": "string",
          "name": "schemaDescription",
          "type": "string"
        }
      ],
      "name": "registerSubscriptionSchema",
      "outputs": [],
      "stateMutability": "nonpayable",
      "type": "function"
    },
    {
      "inputs": [
        {
          "components": [
            {
              "internalType": "bytes32",
              "name": "uid",
              "type": "bytes32"
            },
            {
              "internalType": "bytes32",
              "name": "schema",
              "type": "bytes32"
            },
            {
              "internalType": "uint64",
              "name": "time",
              "type": "uint64"
            },
            {
              "internalType": "uint64",
              "name": "expirationTime",
              "type": "uint64"
            },
            {
              "internalType": "uint64",
              "name": "revocationTime",
              "type": "uint64"
            },
            {
              "internalType": "bytes32",
              "name": "refUID",
              "type": "bytes32"
            },
            {
              "internalType": "address",
              "name": "recipient",
              "type": "address"
            },
            {
              "internalType": "address",
              "name": "attester",
              "type": "address"
            },
            {
              "internalType": "bool",
              "name": "revocable",
              "type": "bool"
            },
            {
              "internalType": "bytes",
              "name": "data",
              "type": "bytes"
            }
          ],
          "internalType": "struct Attestation",
          "name": "attestation",
          "type": "tuple"
        }
      ],
      "name": "revoke",
      "outputs": [
        {
          "internalType": "bool",
          "name": "",
          "type": "bool"
        }
      ],
      "stateMutability": "payable",
      "type": "function"
    },
    {
      "inputs": [],
      "name": "splitterFactory",
      "outputs": [
        {
          "internalType": "address",
          "name": "",
          "type": "address"
        }
      ],
      "stateMutability": "view",
      "type": "function"
    },
    {
      "inputs": [
        {
          "internalType": "bytes32",
          "name": "schemaUID",
          "type": "bytes32"
        },
        {
          "internalType": "uint256",
          "name": "months",
          "type": "uint256"
        }
      ],
      "name": "subscribe",
      "outputs": [],
      "stateMutability": "payable",
      "type": "function"
    },
    {
      "inputs": [
        {
          "internalType": "bytes32",
          "name": "schemaUID",
          "type": "bytes32"
        },
        {
          "internalType": "uint256",
          "name": "newPrice",
          "type": "uint256"
        }
      ],
      "name": "updatePrice",
      "outputs": [],
      "stateMutability": "nonpayable",
      "type": "function"
    },
    {
      "inputs": [
        {
          "internalType": "address",
          "name": "",
          "type": "address"
        },
        {
          "internalType": "bytes32",
          "name": "",
          "type": "bytes32"
        }
      ],
      "name": "userSubscriptions",
      "outputs": [
        {
          "internalType": "uint256",
          "name": "",
          "type": "uint256"
        }
      ],
      "stateMutability": "view",
      "type": "function"
    },
    {
      "inputs": [],
      "name": "version",
      "outputs": [
        {
          "internalType": "string",
          "name": "",
          "type": "string"
        }
      ],
      "stateMutability": "view",
      "type": "function"
    },
    {
      "stateMutability": "payable",
      "type": "receive"
    }
  ],
  "transactionHash": "0x40405a1298076ec5c0001415a3943f1de5c0dd0e1a559e36312599da7ee6591c",
  "args": [
    "0xa6058e210A3C8DcA17162ee69E3E9A2732F4FedC",
    "0xb5F20Edd2bE4C37a473001b65d5d84D3AB713684",
    "0x400BEE4816ab2BcAF6968606F3e5d2b15Cf88aca",
    "0x335B3Ba45163b71DEbF8fEc7AD21a053754bF0bd"
  ],
  "numDeployments": 2,
  "solcInputHash": "d31e9c73c386cbc44453233e1ac13d42",
  "bytecode": "0x62278d00600055610140604052600e6101009081526d1cdd1c9a5b99c81a9cdbdb90d25160921b61012052600190620000399082620001a0565b503480156200004757600080fd5b50604051620027c0380380620027c08339810160408190526200006a9162000285565b6000608081905260a052600160c052836001600160a01b038116620000a25760405163120d8e6b60e21b815260040160405180910390fd5b6001600160a01b0390811660e052600580546001600160a01b03199081163017909155600480549483169482169490941790935560078054948216948416949094179093556006805491909316911617905550620002ed565b634e487b7160e01b600052604160045260246000fd5b600181811c908216806200012657607f821691505b6020821081036200014757634e487b7160e01b600052602260045260246000fd5b50919050565b601f8211156200019b57600081815260208120601f850160051c81016020861015620001765750805b601f850160051c820191505b81811015620001975782815560010162000182565b5050505b505050565b81516001600160401b03811115620001bc57620001bc620000fb565b620001d481620001cd845462000111565b846200014d565b602080601f8311600181146200020c5760008415620001f35750858301515b600019600386901b1c1916600185901b17855562000197565b600085815260208120601f198616915b828110156200023d578886015182559484019460019091019084016200021c565b50858210156200025c5787850151600019600388901b60f8161c191681555b5050505050600190811b01905550565b6001600160a01b03811681146200028257600080fd5b50565b600080600080608085870312156200029c57600080fd5b8451620002a9816200026c565b6020860151909450620002bc816200026c565b6040860151909350620002cf816200026c565b6060860151909250620002e2816200026c565b939692955090935050565b60805160a05160c05160e0516124996200032760003960006113c30152600061088e015260006108650152600061083c01526124996000f3fe6080604052600436106100d65760003560e01c806388e5b2d91161007f578063993b8d3211610059578063993b8d3214610250578063ce46e04614610270578063e49617e114610284578063e60c35051461029757600080fd5b806388e5b2d9146101fa57806391db0b7e1461021d5780639201de551461023057600080fd5b80635f704f3e116100b05780635f704f3e14610174578063773a6c3b146101945780637d294e62146101da57600080fd5b80630778f0ac146100e457806354fd4d50146100f75780635608d9e51461012257600080fd5b366100df57005b005b600080fd5b6100dd6100f2366004611a2f565b6102aa565b34801561010357600080fd5b5061010c610835565b6040516101199190611abf565b60405180910390f35b34801561012e57600080fd5b5060075461014f9073ffffffffffffffffffffffffffffffffffffffff1681565b60405173ffffffffffffffffffffffffffffffffffffffff9091168152602001610119565b34801561018057600080fd5b506100dd61018f366004611a2f565b6108d8565b3480156101a057600080fd5b506101cc6101af366004611af7565b600360209081526000928352604080842090915290825290205481565b604051908152602001610119565b3480156101e657600080fd5b506101cc6101f5366004611af7565b6109bd565b61020d610208366004611b6f565b610a28565b6040519015158152602001610119565b61020d61022b366004611b6f565b610b29565b34801561023c57600080fd5b5061010c61024b366004611bdb565b610c1a565b34801561025c57600080fd5b506100dd61026b366004611e73565b610e40565b34801561027c57600080fd5b50600161020d565b61020d610292366004611f4d565b6110ef565b61020d6102a5366004611f4d565b611100565b60008111610319576040517f08c379a000000000000000000000000000000000000000000000000000000000815260206004820152601860248201527f6d696e2031206d6f6e746820737562736372697074696f6e000000000000000060448201526064015b60405180910390fd5b6000828152600260205260409020600301543490610338908390611fb8565b1461039f576040517f08c379a000000000000000000000000000000000000000000000000000000000815260206004820152600f60248201527f496e636f72726563742076616c756500000000000000000000000000000000006044820152606401610310565b60008281526002602052604090206005015473ffffffffffffffffffffffffffffffffffffffff1661042d576040517f08c379a000000000000000000000000000000000000000000000000000000000815260206004820152600b60248201527f6e6f6e20657869737465640000000000000000000000000000000000000000006044820152606401610310565b3360009081526003602090815260408083208584529091528120548154909190610458908490611fb8565b9050816000036105215761046c4282611fcf565b6006546040517f2e324b10000000000000000000000000000000000000000000000000000000008152600481018790523360248201526044810183905291925073ffffffffffffffffffffffffffffffffffffffff1690632e324b1090606401600060405180830381600087803b1580156104e657600080fd5b505af11580156104fa573d6000803e3d6000fd5b50503360009081526003602090815260408083208984529091529020839055506106a69050565b428211156105ec576105338183611fcf565b3360008181526003602090815260408083208984529091529081902083905560065490517fd2ea9ad00000000000000000000000000000000000000000000000000000000081526004810188905260248101929092526044820183905291935073ffffffffffffffffffffffffffffffffffffffff9091169063d2ea9ad090606401600060405180830381600087803b1580156105cf57600080fd5b505af11580156105e3573d6000803e3d6000fd5b505050506106a6565b6105f64282611fcf565b6006546040517fd2ea9ad0000000000000000000000000000000000000000000000000000000008152600481018790523360248201526044810183905291925073ffffffffffffffffffffffffffffffffffffffff169063d2ea9ad090606401600060405180830381600087803b15801561067057600080fd5b505af1158015610684573d6000803e3d6000fd5b5050336000908152600360209081526040808320898452909152902083905550505b600084815260026020526040812060040180543492906106c7908490611fcf565b90915550506000848152600260205260409020600501546106fe9073ffffffffffffffffffffffffffffffffffffffff1634611114565b600084815260026020908152604091829020600501548251600481526024810190935290820180517bffffffffffffffffffffffffffffffffffffffffffffffffffffffff167fe4fc6b6d0000000000000000000000000000000000000000000000000000000017905261078a9173ffffffffffffffffffffffffffffffffffffffff90911690611273565b506006546000858152600260205260409081902060049081015491517f8d879e6d00000000000000000000000000000000000000000000000000000000815273ffffffffffffffffffffffffffffffffffffffff90931692638d879e6d926107fd92899201918252602082015260400190565b600060405180830381600087803b15801561081757600080fd5b505af115801561082b573d6000803e3d6000fd5b5050505050505050565b60606108607f00000000000000000000000000000000000000000000000000000000000000006112be565b6108897f00000000000000000000000000000000000000000000000000000000000000006112be565b6108b27f00000000000000000000000000000000000000000000000000000000000000006112be565b6040516020016108c493929190611fe2565b604051602081830303815290604052905090565b6000828152600260208190526040909120015473ffffffffffffffffffffffffffffffffffffffff16331461090c57600080fd5b6000811161091957600080fd5b6000828152600260205260409081902060030182905560065490517f1aa7cbe6000000000000000000000000000000000000000000000000000000008152600481018490526024810183905273ffffffffffffffffffffffffffffffffffffffff90911690631aa7cbe690604401600060405180830381600087803b1580156109a157600080fd5b505af11580156109b5573d6000803e3d6000fd5b505050505050565b73ffffffffffffffffffffffffffffffffffffffff82166000908152600360209081526040808320848452909152812054421080610a0e57506000828152600260205260409020610a0e908461137c565b610a19576000610a1c565b60015b60ff1690505b92915050565b6000610a326113ab565b83828114610a6c576040517f947d5a8400000000000000000000000000000000000000000000000000000000815260040160405180910390fd5b3460005b82811015610b19576000868683818110610a8c57610a8c612058565b90506020020135905082811115610acf576040517f1101129400000000000000000000000000000000000000000000000000000000815260040160405180910390fd5b610afc898984818110610ae457610ae4612058565b9050602002810190610af69190612087565b50600090565b610b0d576000945050505050610b21565b90910390600101610a70565b506001925050505b949350505050565b6000610b336113ab565b83828114610b6d576040517f947d5a8400000000000000000000000000000000000000000000000000000000815260040160405180910390fd5b3460005b82811015610b19576000868683818110610b8d57610b8d612058565b90506020020135905082811115610bd0576040517f1101129400000000000000000000000000000000000000000000000000000000815260040160405180910390fd5b610bfd898984818110610be557610be5612058565b9050602002810190610bf79190612087565b8261141c565b610c0e576000945050505050610b21565b90910390600101610b71565b60606000610c2a602060026120c5565b60ff1667ffffffffffffffff811115610c4557610c45611bf4565b6040519080825280601f01601f191660200182016040528015610c6f576020820181803683370190505b5060408051808201909152601081527f3031323334353637383961626364656600000000000000000000000000000000602082015290915060005b6020811015610e1657818251868360208110610cc857610cc8612058565b610cd49291901a612117565b81518110610ce457610ce4612058565b01602001517fff000000000000000000000000000000000000000000000000000000000000001683610d17836002611fb8565b81518110610d2757610d27612058565b60200101907effffffffffffffffffffffffffffffffffffffffffffffffffffffffffffff1916908160001a905350818251868360208110610d6b57610d6b612058565b610d779291901a61212b565b81518110610d8757610d87612058565b01602001517fff000000000000000000000000000000000000000000000000000000000000001683610dba836002611fb8565b610dc5906001611fcf565b81518110610dd557610dd5612058565b60200101907effffffffffffffffffffffffffffffffffffffffffffffffffffffffffffff1916908160001a90535080610e0e8161213f565b915050610caa565b5081604051602001610e289190612177565b60405160208183030381529060405292505050919050565b60008311610e4d57600080fd5b6000610e5a83838761146d565b6000818152600260205260409020909150610e75888861161d565b6005820180547fffffffffffffffffffffffff00000000000000000000000000000000000000001673ffffffffffffffffffffffffffffffffffffffff929092169190911790556003810185905560005b8851811015610f1157610efe898281518110610ee457610ee4612058565b6020026020010151836000016116e490919063ffffffff16565b5080610f098161213f565b915050610ec6565b506002810180547fffffffffffffffffffffffff0000000000000000000000000000000000000000163217905560065460058201546040517f6e385518000000000000000000000000000000000000000000000000000000008152600481018590526024810188905273ffffffffffffffffffffffffffffffffffffffff9182166044820152911690636e38551890606401600060405180830381600087803b158015610fbd57600080fd5b505af1158015610fd1573d6000803e3d6000fd5b50506006546040517f7e6c78bd00000000000000000000000000000000000000000000000000000000815273ffffffffffffffffffffffffffffffffffffffff9091169250637e6c78bd915061102f9085908c908c9060040161223d565b600060405180830381600087803b15801561104957600080fd5b505af115801561105d573d6000803e3d6000fd5b50506006546040517ff398db320000000000000000000000000000000000000000000000000000000081526004810186905273ffffffffffffffffffffffffffffffffffffffff909116925063f398db329150602401600060405180830381600087803b1580156110cd57600080fd5b505af11580156110e1573d6000803e3d6000fd5b505050505050505050505050565b60006110f96113ab565b6000610a22565b600061110a6113ab565b610a22823461141c565b8047101561117e576040517f08c379a000000000000000000000000000000000000000000000000000000000815260206004820152601d60248201527f416464726573733a20696e73756666696369656e742062616c616e63650000006044820152606401610310565b60008273ffffffffffffffffffffffffffffffffffffffff168260405160006040518083038185875af1925050503d80600081146111d8576040519150601f19603f3d011682016040523d82523d6000602084013e6111dd565b606091505b505090508061126e576040517f08c379a000000000000000000000000000000000000000000000000000000000815260206004820152603a60248201527f416464726573733a20756e61626c6520746f2073656e642076616c75652c207260448201527f6563697069656e74206d617920686176652072657665727465640000000000006064820152608401610310565b505050565b60606112b7838360006040518060400160405280601e81526020017f416464726573733a206c6f772d6c6576656c2063616c6c206661696c65640000815250611706565b9392505050565b606060006112cb8361181f565b600101905060008167ffffffffffffffff8111156112eb576112eb611bf4565b6040519080825280601f01601f191660200182016040528015611315576020820181803683370190505b5090508181016020015b7fffffffffffffffffffffffffffffffffffffffffffffffffffffffffffffffff017f3031323334353637383961626364656600000000000000000000000000000000600a86061a8153600a850494508461131f57509392505050565b73ffffffffffffffffffffffffffffffffffffffff8116600090815260018301602052604081205415156112b7565b3373ffffffffffffffffffffffffffffffffffffffff7f0000000000000000000000000000000000000000000000000000000000000000161461141a576040517f4ca8886700000000000000000000000000000000000000000000000000000000815260040160405180910390fd5b565b600080611430610100850160e08601612272565b60208086013560008181526002909252604090912091925090611453908361137c565b61146257600092505050610a22565b506001949350505050565b6000600460009054906101000a900473ffffffffffffffffffffffffffffffffffffffff1673ffffffffffffffffffffffffffffffffffffffff166361a4434c6040518060c00160405280600180546114c59061228f565b80601f01602080910402602001604051908101604052809291908181526020018280546114f19061228f565b801561153e5780601f106115135761010080835404028352916020019161153e565b820191906000526020600020905b81548152906001019060200180831161152157829003601f168201915b50505091835250506020810188905260408082018890526060820187905260055473ffffffffffffffffffffffffffffffffffffffff16608083015260065474010000000000000000000000000000000000000000900460ff16151560a0909201919091525160e083901b7fffffffff000000000000000000000000000000000000000000000000000000001681526115da91906004016122e2565b6020604051808303816000875af11580156115f9573d6000803e3d6000fd5b505050506040513d601f19601f82011682018060405250810190610b2191906123ed565b60075460405160009182916116ce9173ffffffffffffffffffffffffffffffffffffffff16906116539087908790602401612406565b604080517fffffffffffffffffffffffffffffffffffffffffffffffffffffffffffffffe08184030181529190526020810180517bffffffffffffffffffffffffffffffffffffffffffffffffffffffff167ff7c25fe200000000000000000000000000000000000000000000000000000000179052611273565b905080806020019051810190610b219190612434565b60006112b78373ffffffffffffffffffffffffffffffffffffffff8416611901565b606082471015611798576040517f08c379a000000000000000000000000000000000000000000000000000000000815260206004820152602660248201527f416464726573733a20696e73756666696369656e742062616c616e636520666f60448201527f722063616c6c00000000000000000000000000000000000000000000000000006064820152608401610310565b6000808673ffffffffffffffffffffffffffffffffffffffff1685876040516117c19190612451565b60006040518083038185875af1925050503d80600081146117fe576040519150601f19603f3d011682016040523d82523d6000602084013e611803565b606091505b509150915061181487838387611950565b979650505050505050565b6000807a184f03e93ff9f4daa797ed6e38ed64bf6a1f0100000000000000008310611868577a184f03e93ff9f4daa797ed6e38ed64bf6a1f010000000000000000830492506040015b6d04ee2d6d415b85acef81000000008310611894576d04ee2d6d415b85acef8100000000830492506020015b662386f26fc1000083106118b257662386f26fc10000830492506010015b6305f5e10083106118ca576305f5e100830492506008015b61271083106118de57612710830492506004015b606483106118f0576064830492506002015b600a8310610a225760010192915050565b600081815260018301602052604081205461194857508154600181810184556000848152602080822090930184905584548482528286019093526040902091909155610a22565b506000610a22565b606083156119e65782516000036119df5773ffffffffffffffffffffffffffffffffffffffff85163b6119df576040517f08c379a000000000000000000000000000000000000000000000000000000000815260206004820152601d60248201527f416464726573733a2063616c6c20746f206e6f6e2d636f6e74726163740000006044820152606401610310565b5081610b21565b610b2183838151156119fb5781518083602001fd5b806040517f08c379a00000000000000000000000000000000000000000000000000000000081526004016103109190611abf565b60008060408385031215611a4257600080fd5b50508035926020909101359150565b60005b83811015611a6c578181015183820152602001611a54565b50506000910152565b60008151808452611a8d816020860160208601611a51565b601f017fffffffffffffffffffffffffffffffffffffffffffffffffffffffffffffffe0169290920160200192915050565b6020815260006112b76020830184611a75565b73ffffffffffffffffffffffffffffffffffffffff81168114611af457600080fd5b50565b60008060408385031215611b0a57600080fd5b8235611b1581611ad2565b946020939093013593505050565b60008083601f840112611b3557600080fd5b50813567ffffffffffffffff811115611b4d57600080fd5b6020830191508360208260051b8501011115611b6857600080fd5b9250929050565b60008060008060408587031215611b8557600080fd5b843567ffffffffffffffff80821115611b9d57600080fd5b611ba988838901611b23565b90965094506020870135915080821115611bc257600080fd5b50611bcf87828801611b23565b95989497509550505050565b600060208284031215611bed57600080fd5b5035919050565b7f4e487b7100000000000000000000000000000000000000000000000000000000600052604160045260246000fd5b604051601f82017fffffffffffffffffffffffffffffffffffffffffffffffffffffffffffffffe016810167ffffffffffffffff81118282101715611c6a57611c6a611bf4565b604052919050565b600067ffffffffffffffff821115611c8c57611c8c611bf4565b5060051b60200190565b600082601f830112611ca757600080fd5b81356020611cbc611cb783611c72565b611c23565b82815260059290921b84018101918181019086841115611cdb57600080fd5b8286015b84811015611cff578035611cf281611ad2565b8352918301918301611cdf565b509695505050505050565b600082601f830112611d1b57600080fd5b81356020611d2b611cb783611c72565b82815260059290921b84018101918181019086841115611d4a57600080fd5b8286015b84811015611cff5780358352918301918301611d4e565b600082601f830112611d7657600080fd5b813567ffffffffffffffff811115611d9057611d90611bf4565b611dc160207fffffffffffffffffffffffffffffffffffffffffffffffffffffffffffffffe0601f84011601611c23565b818152846020838601011115611dd657600080fd5b816020850160208301376000918101602001919091529392505050565b600082601f830112611e0457600080fd5b81356020611e14611cb783611c72565b82815260059290921b84018101918181019086841115611e3357600080fd5b8286015b84811015611cff57803567ffffffffffffffff811115611e575760008081fd5b611e658986838b0101611d65565b845250918301918301611e37565b60008060008060008060c08789031215611e8c57600080fd5b863567ffffffffffffffff80821115611ea457600080fd5b611eb08a838b01611c96565b97506020890135915080821115611ec657600080fd5b611ed28a838b01611d0a565b96506040890135915080821115611ee857600080fd5b611ef48a838b01611df3565b9550606089013594506080890135915080821115611f1157600080fd5b611f1d8a838b01611d65565b935060a0890135915080821115611f3357600080fd5b50611f4089828a01611d65565b9150509295509295509295565b600060208284031215611f5f57600080fd5b813567ffffffffffffffff811115611f7657600080fd5b820161014081850312156112b757600080fd5b7f4e487b7100000000000000000000000000000000000000000000000000000000600052601160045260246000fd5b8082028115828204841417610a2257610a22611f89565b80820180821115610a2257610a22611f89565b60008451611ff4818460208901611a51565b80830190507f2e000000000000000000000000000000000000000000000000000000000000008082528551612030816001850160208a01611a51565b6001920191820152835161204b816002840160208801611a51565b0160020195945050505050565b7f4e487b7100000000000000000000000000000000000000000000000000000000600052603260045260246000fd5b600082357ffffffffffffffffffffffffffffffffffffffffffffffffffffffffffffffec18336030181126120bb57600080fd5b9190910192915050565b60ff81811683821602908116908181146120e1576120e1611f89565b5092915050565b7f4e487b7100000000000000000000000000000000000000000000000000000000600052601260045260246000fd5b600082612126576121266120e8565b500490565b60008261213a5761213a6120e8565b500690565b60007fffffffffffffffffffffffffffffffffffffffffffffffffffffffffffffffff820361217057612170611f89565b5060010190565b7f30780000000000000000000000000000000000000000000000000000000000008152600082516121af816002850160208701611a51565b9190910160020192915050565b600081518084526020808501945080840160005b8381101561220257815173ffffffffffffffffffffffffffffffffffffffff16875295820195908201906001016121d0565b509495945050505050565b600081518084526020808501945080840160005b8381101561220257815187529582019590820190600101612221565b83815260606020820152600061225660608301856121bc565b8281036040840152612268818561220d565b9695505050505050565b60006020828403121561228457600080fd5b81356112b781611ad2565b600181811c908216806122a357607f821691505b6020821081036122dc577f4e487b7100000000000000000000000000000000000000000000000000000000600052602260045260246000fd5b50919050565b60006020808352835160c0828501526122fe60e0850182611a75565b9050818501517fffffffffffffffffffffffffffffffffffffffffffffffffffffffffffffffe0808684030160408701526123398383611a75565b925060408701519150808684030160608701526123568383611a75565b60608801518782038301608089015280518083529194508501925084840190600581901b8501860160005b828110156123ad578487830301845261239b828751611a75565b95880195938801939150600101612381565b5060808a015173ffffffffffffffffffffffffffffffffffffffff811660a08b0152965060a08a015180151560c08b015296509998505050505050505050565b6000602082840312156123ff57600080fd5b5051919050565b60408152600061241960408301856121bc565b828103602084015261242b818561220d565b95945050505050565b60006020828403121561244657600080fd5b81516112b781611ad2565b600082516120bb818460208701611a5156fea2646970667358221220b4de06555c03eec66a7a9848120bf3b982b4a2397e4a875100068f542fe4307864736f6c63430008130033",
  "devdoc": {
    "kind": "dev",
    "methods": {
      "attest((bytes32,bytes32,uint64,uint64,uint64,bytes32,address,address,bool,bytes))": {
        "params": {
          "attestation": "The new attestation."
        },
        "returns": {
          "_0": "Whether the attestation is valid."
        }
      },
      "isPayable()": {
        "returns": {
          "_0": "True, indicating that the contract can accept payments."
        }
      },
      "multiAttest((bytes32,bytes32,uint64,uint64,uint64,bytes32,address,address,bool,bytes)[],uint256[])": {
        "params": {
          "attestations": "The new attestations.",
          "values": "Explicit ETH amounts which were sent with each attestation."
        },
        "returns": {
          "_0": "Whether all the attestations are valid."
        }
      },
      "multiRevoke((bytes32,bytes32,uint64,uint64,uint64,bytes32,address,address,bool,bytes)[],uint256[])": {
        "params": {
          "attestations": "The existing attestations to be revoked.",
          "values": "Explicit ETH amounts which were sent with each revocation."
        },
        "returns": {
          "_0": "Whether the attestations can be revoked."
        }
      },
      "revoke((bytes32,bytes32,uint64,uint64,uint64,bytes32,address,address,bool,bytes))": {
        "params": {
          "attestation": "The existing attestation to be revoked."
        },
        "returns": {
          "_0": "Whether the attestation can be revoked."
        }
      },
      "subscribe(bytes32,uint256)": {
        "details": "Mint tokens for encrypted attestations.",
        "params": {
          "schemaUID": "The UID of the schema for which tokens are being minted."
        }
      },
      "version()": {
        "returns": {
          "_0": "Semver contract version as a string."
        }
      }
    },
    "title": "ContentSubscriptionResolver",
    "version": 1
  },
  "userdoc": {
    "kind": "user",
    "methods": {
      "attest((bytes32,bytes32,uint64,uint64,uint64,bytes32,address,address,bool,bytes))": {
        "notice": "Processes an attestation and verifies whether it's valid."
      },
      "isPayable()": {
        "notice": "Indicates whether the contract is designed to handle incoming payments."
      },
      "multiAttest((bytes32,bytes32,uint64,uint64,uint64,bytes32,address,address,bool,bytes)[],uint256[])": {
        "notice": "Processes multiple attestations and verifies whether they are valid."
      },
      "multiRevoke((bytes32,bytes32,uint64,uint64,uint64,bytes32,address,address,bool,bytes)[],uint256[])": {
        "notice": "Processes revocation of multiple attestation and verifies they can be revoked."
      },
      "revoke((bytes32,bytes32,uint64,uint64,uint64,bytes32,address,address,bool,bytes))": {
        "notice": "Processes an attestation revocation and verifies if it can be revoked."
      },
      "version()": {
        "notice": "Returns the full semver contract version."
      }
    },
    "notice": "A schema resolver subcription to content example",
    "version": 1
  },
  "storageLayout": {
    "storage": [
      {
        "astId": 9287,
        "contract": "contracts/resolver/examples/ContentSubscriptionResolver.sol:ContentSubscriptionResolver",
        "label": "ONE_MONTH",
        "offset": 0,
        "slot": "0",
        "type": "t_uint256"
      },
      {
        "astId": 9302,
        "contract": "contracts/resolver/examples/ContentSubscriptionResolver.sol:ContentSubscriptionResolver",
        "label": "schema",
        "offset": 0,
        "slot": "1",
        "type": "t_string_storage"
      },
      {
        "astId": 9307,
        "contract": "contracts/resolver/examples/ContentSubscriptionResolver.sol:ContentSubscriptionResolver",
        "label": "schemas",
        "offset": 0,
        "slot": "2",
        "type": "t_mapping(t_bytes32,t_struct(SchemaInfo)9299_storage)"
      },
      {
        "astId": 9313,
        "contract": "contracts/resolver/examples/ContentSubscriptionResolver.sol:ContentSubscriptionResolver",
        "label": "userSubscriptions",
        "offset": 0,
        "slot": "3",
        "type": "t_mapping(t_address,t_mapping(t_bytes32,t_uint256))"
      },
      {
        "astId": 9316,
        "contract": "contracts/resolver/examples/ContentSubscriptionResolver.sol:ContentSubscriptionResolver",
        "label": "schemaRegistry",
        "offset": 0,
        "slot": "4",
        "type": "t_contract(ISchemaRegistry)5556"
      },
      {
        "astId": 9319,
        "contract": "contracts/resolver/examples/ContentSubscriptionResolver.sol:ContentSubscriptionResolver",
        "label": "schemaResolver",
        "offset": 0,
        "slot": "5",
        "type": "t_contract(ISchemaResolver)8387"
      },
      {
        "astId": 9322,
        "contract": "contracts/resolver/examples/ContentSubscriptionResolver.sol:ContentSubscriptionResolver",
        "label": "tableland",
        "offset": 0,
        "slot": "6",
        "type": "t_contract(ITablelandSubscriptionsIndexer)10015"
      },
      {
        "astId": 9324,
        "contract": "contracts/resolver/examples/ContentSubscriptionResolver.sol:ContentSubscriptionResolver",
        "label": "revocable",
        "offset": 20,
        "slot": "6",
        "type": "t_bool"
      },
      {
        "astId": 9326,
        "contract": "contracts/resolver/examples/ContentSubscriptionResolver.sol:ContentSubscriptionResolver",
        "label": "splitterFactory",
        "offset": 0,
        "slot": "7",
        "type": "t_address"
      }
    ],
    "types": {
      "t_address": {
        "encoding": "inplace",
        "label": "address",
        "numberOfBytes": "20"
      },
      "t_array(t_bytes32)dyn_storage": {
        "base": "t_bytes32",
        "encoding": "dynamic_array",
        "label": "bytes32[]",
        "numberOfBytes": "32"
      },
      "t_bool": {
        "encoding": "inplace",
        "label": "bool",
        "numberOfBytes": "1"
      },
      "t_bytes32": {
        "encoding": "inplace",
        "label": "bytes32",
        "numberOfBytes": "32"
      },
      "t_contract(ISchemaRegistry)5556": {
        "encoding": "inplace",
        "label": "contract ISchemaRegistry",
        "numberOfBytes": "20"
      },
      "t_contract(ISchemaResolver)8387": {
        "encoding": "inplace",
        "label": "contract ISchemaResolver",
        "numberOfBytes": "20"
      },
      "t_contract(ITablelandSubscriptionsIndexer)10015": {
        "encoding": "inplace",
        "label": "contract ITablelandSubscriptionsIndexer",
        "numberOfBytes": "20"
      },
      "t_mapping(t_address,t_mapping(t_bytes32,t_uint256))": {
        "encoding": "mapping",
        "key": "t_address",
        "label": "mapping(address => mapping(bytes32 => uint256))",
        "numberOfBytes": "32",
        "value": "t_mapping(t_bytes32,t_uint256)"
      },
      "t_mapping(t_bytes32,t_struct(SchemaInfo)9299_storage)": {
        "encoding": "mapping",
        "key": "t_bytes32",
        "label": "mapping(bytes32 => struct ContentSubscriptionResolver.SchemaInfo)",
        "numberOfBytes": "32",
        "value": "t_struct(SchemaInfo)9299_storage"
      },
      "t_mapping(t_bytes32,t_uint256)": {
        "encoding": "mapping",
        "key": "t_bytes32",
        "label": "mapping(bytes32 => uint256)",
        "numberOfBytes": "32",
        "value": "t_uint256"
      },
      "t_string_storage": {
        "encoding": "bytes",
        "label": "string",
        "numberOfBytes": "32"
      },
      "t_struct(AddressSet)4518_storage": {
        "encoding": "inplace",
        "label": "struct EnumerableSet.AddressSet",
        "members": [
          {
            "astId": 4517,
            "contract": "contracts/resolver/examples/ContentSubscriptionResolver.sol:ContentSubscriptionResolver",
            "label": "_inner",
            "offset": 0,
            "slot": "0",
            "type": "t_struct(Set)4203_storage"
          }
        ],
        "numberOfBytes": "64"
      },
      "t_struct(SchemaInfo)9299_storage": {
        "encoding": "inplace",
        "label": "struct ContentSubscriptionResolver.SchemaInfo",
        "members": [
          {
            "astId": 9290,
            "contract": "contracts/resolver/examples/ContentSubscriptionResolver.sol:ContentSubscriptionResolver",
            "label": "contentCreators",
            "offset": 0,
            "slot": "0",
            "type": "t_struct(AddressSet)4518_storage"
          },
          {
            "astId": 9292,
            "contract": "contracts/resolver/examples/ContentSubscriptionResolver.sol:ContentSubscriptionResolver",
            "label": "multisig",
            "offset": 0,
            "slot": "2",
            "type": "t_address"
          },
          {
            "astId": 9294,
            "contract": "contracts/resolver/examples/ContentSubscriptionResolver.sol:ContentSubscriptionResolver",
            "label": "subscriptionPrice",
            "offset": 0,
            "slot": "3",
            "type": "t_uint256"
          },
          {
            "astId": 9296,
            "contract": "contracts/resolver/examples/ContentSubscriptionResolver.sol:ContentSubscriptionResolver",
            "label": "totalRevenue",
            "offset": 0,
            "slot": "4",
            "type": "t_uint256"
          },
          {
            "astId": 9298,
            "contract": "contracts/resolver/examples/ContentSubscriptionResolver.sol:ContentSubscriptionResolver",
            "label": "splitterContract",
            "offset": 0,
            "slot": "5",
            "type": "t_address"
          }
        ],
        "numberOfBytes": "192"
      },
      "t_struct(Set)4203_storage": {
        "encoding": "inplace",
        "label": "struct EnumerableSet.Set",
        "members": [
          {
            "astId": 4198,
            "contract": "contracts/resolver/examples/ContentSubscriptionResolver.sol:ContentSubscriptionResolver",
            "label": "_values",
            "offset": 0,
            "slot": "0",
            "type": "t_array(t_bytes32)dyn_storage"
          },
          {
            "astId": 4202,
            "contract": "contracts/resolver/examples/ContentSubscriptionResolver.sol:ContentSubscriptionResolver",
            "label": "_indexes",
            "offset": 0,
            "slot": "1",
            "type": "t_mapping(t_bytes32,t_uint256)"
          }
        ],
        "numberOfBytes": "64"
      },
      "t_uint256": {
        "encoding": "inplace",
        "label": "uint256",
        "numberOfBytes": "32"
      }
    }
  }
}