{
  "address": "0x96530784922047AdbAEb0e71a0b21cD64Efb0d62",
  "abi": [
    {
      "inputs": [],
      "stateMutability": "nonpayable",
      "type": "constructor"
    },
    {
      "inputs": [
        {
          "internalType": "uint256",
          "name": "chainid",
          "type": "uint256"
        }
      ],
      "name": "ChainNotSupported",
      "type": "error"
    },
    {
      "anonymous": false,
      "inputs": [
        {
          "indexed": true,
          "internalType": "address",
          "name": "previousOwner",
          "type": "address"
        },
        {
          "indexed": true,
          "internalType": "address",
          "name": "newOwner",
          "type": "address"
        }
      ],
      "name": "OwnershipTransferred",
      "type": "event"
    },
    {
      "inputs": [
        {
          "internalType": "bytes32",
          "name": "schemaUID",
          "type": "bytes32"
        },
        {
          "internalType": "string",
          "name": "schema",
          "type": "string"
        },
        {
          "internalType": "string",
          "name": "schemaName",
          "type": "string"
        },
        {
          "internalType": "string",
          "name": "schemaDescription",
          "type": "string"
        },
        {
          "internalType": "address",
          "name": "resolver",
          "type": "address"
        },
        {
          "internalType": "bool",
          "name": "revocable",
          "type": "bool"
        }
      ],
      "name": "SchemaRegistered",
      "outputs": [],
      "stateMutability": "nonpayable",
      "type": "function"
    },
    {
      "inputs": [
        {
          "internalType": "bytes32",
          "name": "data",
          "type": "bytes32"
        }
      ],
      "name": "bytes32ToString",
      "outputs": [
        {
          "internalType": "string",
          "name": "",
          "type": "string"
        }
      ],
      "stateMutability": "pure",
      "type": "function"
    },
    {
      "inputs": [],
      "name": "owner",
      "outputs": [
        {
          "internalType": "address",
          "name": "",
          "type": "address"
        }
      ],
      "stateMutability": "view",
      "type": "function"
    },
    {
      "inputs": [],
      "name": "renounceOwnership",
      "outputs": [],
      "stateMutability": "nonpayable",
      "type": "function"
    },
    {
      "inputs": [
        {
          "internalType": "uint256",
          "name": "",
          "type": "uint256"
        }
      ],
      "name": "tables",
      "outputs": [
        {
          "internalType": "string",
          "name": "",
          "type": "string"
        }
      ],
      "stateMutability": "view",
      "type": "function"
    },
    {
      "inputs": [
        {
          "internalType": "address",
          "name": "newOwner",
          "type": "address"
        }
      ],
      "name": "transferOwnership",
      "outputs": [],
      "stateMutability": "nonpayable",
      "type": "function"
    }
  ],
  "transactionHash": "0x1565f05f122c27ddee650bc8e3119b86c4f59155fe8b981ce34d18a9a74cd117",
  "args": [],
  "numDeployments": 1,
  "solcInputHash": "cd19f94aa2ec7d4942f920993b8750f6",
  "bytecode": "0x60806040523480156200001157600080fd5b506200001d33620001c5565b6200002762000215565b600160006101000a8154816001600160a01b0302191690836001600160a01b031602179055506002620000906040518060c001604052806089815260200162001f2a60899139604080518082019091526006815265736368656d6160d01b6020820152620003d8565b81546001810183556000928352602090922090910190620000b29082620006ce565b506001546040516361a23d0f60e01b81526001600160a01b03909116906361a23d0f90620000e89030906002906004016200079a565b6000604051808303816000875af115801562000108573d6000803e3d6000fd5b505050506040513d6000823e601f3d908101601f1916820160405262000132919081019062000882565b80516200014891600491602090910190620005c2565b5060036200019c60405180604001604052806006815260200165736368656d6160d01b81525060046000815481106200018557620001856200094b565b90600052602060002001546200041260201b60201c565b81546001810183556000928352602090922090910190620001be9082620006ce565b5062000a3c565b600080546001600160a01b038381166001600160a01b0319831681178455604051919092169283917f8be0079c531659141344cd1fd0a4f28419497f9722a3daafe3b4186f6b6457e09190a35050565b60004660010362000239575073012969f7e3439a9b04025b5a049eb9bad82a8c1290565b46600a036200025b575073fad44bf5b843de943a09d4f3e84949a11d3aa3e690565b4661a4b1036200027e5750739abd75e8640871a5a20d3b4ee6330a04c962affd90565b4661a4ba03620002a15750731a22854c5b1642760a827f20137a67930ae108d290565b46608903620002c35750735c4e6a9e5c1e1bf445a062006faf19ea6c49afea90565b4661013a03620002e657507359ef8bf2d6c102b4c42aef9189e1a9f0abfd652d90565b4660050362000308575073da8ea22d092307874f30a1f277d1388dca0ba97a90565b466101a4036200032b575073c72e8a7be04f2469f8c2db3f1bdf69a7d516abba90565b4662066eed036200034f575073033f69e8d119205089ab15d340f5b797732f646b90565b466201388103620003735750734b48841d4b32c4650e4abc117a03fe8b51f38f6890565b46610c4503620003965750730b9737ab4b3e5303cb67db031b509697e31c02d390565b46617a6903620003b9575073e7f1725e7734ce288f8367e1bb143e90bb3f051290565b60405163264e42cf60e01b815246600482015260240160405180910390fd5b606081620003e6466200043f565b84604051602001620003fb9392919062000993565b604051602081830303815290604052905092915050565b60608262000420466200043f565b6200042b846200043f565b604051602001620003fb93929190620009f9565b606060006200044e83620004d8565b60010190506000816001600160401b0381111562000470576200047062000629565b6040519080825280601f01601f1916602001820160405280156200049b576020820181803683370190505b5090508181016020015b600019016f181899199a1a9b1b9c1cb0b131b232b360811b600a86061a8153600a8504945084620004a557509392505050565b6000807a184f03e93ff9f4daa797ed6e38ed64bf6a1f010000000000000000831062000522577a184f03e93ff9f4daa797ed6e38ed64bf6a1f010000000000000000830492506040015b6d04ee2d6d415b85acef810000000083106200054f576d04ee2d6d415b85acef8100000000830492506020015b662386f26fc1000083106200056e57662386f26fc10000830492506010015b6305f5e100831062000587576305f5e100830492506008015b61271083106200059c57612710830492506004015b60648310620005af576064830492506002015b600a8310620005bc576001015b92915050565b82805482825590600052602060002090810192821562000600579160200282015b8281111562000600578251825591602001919060010190620005e3565b506200060e92915062000612565b5090565b5b808211156200060e576000815560010162000613565b634e487b7160e01b600052604160045260246000fd5b600181811c908216806200065457607f821691505b6020821081036200067557634e487b7160e01b600052602260045260246000fd5b50919050565b601f821115620006c957600081815260208120601f850160051c81016020861015620006a45750805b601f850160051c820191505b81811015620006c557828155600101620006b0565b5050505b505050565b81516001600160401b03811115620006ea57620006ea62000629565b6200070281620006fb84546200063f565b846200067b565b602080601f8311600181146200073a5760008415620007215750858301515b600019600386901b1c1916600185901b178555620006c5565b600085815260208120601f198616915b828110156200076b578886015182559484019460019091019084016200074a565b50858210156200078a5787850151600019600388901b60f8161c191681555b5050505050600190811b01905550565b60006040820160018060a01b0385168352602060408185015281855480845260608601915060059350606081851b8701016000888152848120815b848110156200087257605f198a8503018652828254620007f5816200063f565b808752600182811680156200081357600181146200082d576200085a565b60ff198416898d01528215158d1b89018c0194506200085a565b8688528b8820885b84811015620008525781548b82018f0152908301908d0162000835565b8a018d019550505b50988a019892965050509190910190600101620007d5565b50919a9950505050505050505050565b600060208083850312156200089657600080fd5b82516001600160401b0380821115620008ae57600080fd5b818501915085601f830112620008c357600080fd5b815181811115620008d857620008d862000629565b8060051b604051601f19603f8301168101818110858211171562000900576200090062000629565b6040529182528482019250838101850191888311156200091f57600080fd5b938501935b828510156200093f5784518452938501939285019262000924565b98975050505050505050565b634e487b7160e01b600052603260045260246000fd5b6000815160005b8181101562000984576020818501810151868301520162000968565b50600093019283525090919050565b6c021a922a0aa22902a20a126229609d1b81526000620009b7600d83018662000961565b605f60f81b8152620009cd600182018662000961565b9050600560fb1b8152620009e5600182018562000961565b602960f81b81526001019695505050505050565b600062000a07828662000961565b605f60f81b80825262000a1e600183018762000961565b908152905062000a32600182018562000961565b9695505050505050565b6114de8062000a4c6000396000f3fe608060405234801561001057600080fd5b50600436106100725760003560e01c80638da5cb5b116100505780638da5cb5b146100bd5780639201de55146100e5578063f2fde38b146100f857600080fd5b8063715018a61461007757806371671bf2146100815780637eebe243146100aa575b600080fd5b61007f61010b565b005b61009461008f366004610c85565b61011f565b6040516100a19190610d0c565b60405180910390f35b61007f6100b8366004610e22565b6101cb565b60005460405173ffffffffffffffffffffffffffffffffffffffff90911681526020016100a1565b6100946100f3366004610c85565b61036c565b61007f610106366004610edd565b610592565b61011361064e565b61011d60006106cf565b565b6003818154811061012f57600080fd5b90600052602060002001600091509050805461014a90610ef8565b80601f016020809104026020016040519081016040528092919081815260200182805461017690610ef8565b80156101c35780601f10610198576101008083540402835291602001916101c3565b820191906000526020600020905b8154815290600101906020018083116101a657829003601f168201915b505050505081565b6101d361064e565b61036460046000815481106101ea576101ea610f4b565b906000526020600020015461035f6040518060400160405280600681526020017f736368656d610000000000000000000000000000000000000000000000000000815250600460008154811061024257610242610f4b565b9060005260206000200154604051806080016040528060558152602001611454605591396102776102728d61036c565b610744565b6102808c610744565b61028c6102728b61076d565b61030a8a6102cf576040518060400160405280600581526020017f66616c7365000000000000000000000000000000000000000000000000000000815250610744565b6040518060400160405280600481526020017f7472756500000000000000000000000000000000000000000000000000000000815250610744565b6103138e610744565b61031c8e610744565b6103286102723261076d565b61033461027242610796565b60405160200161034b989796959493929190610f96565b604051602081830303815290604052610854565b610893565b505050505050565b6060600061037c60206002611115565b60ff1667ffffffffffffffff81111561039757610397610d1f565b6040519080825280601f01601f1916602001820160405280156103c1576020820181803683370190505b5060408051808201909152601081527f3031323334353637383961626364656600000000000000000000000000000000602082015290915060005b60208110156105685781825186836020811061041a5761041a610f4b565b6104269291901a611167565b8151811061043657610436610f4b565b01602001517fff00000000000000000000000000000000000000000000000000000000000000168361046983600261117b565b8151811061047957610479610f4b565b60200101907effffffffffffffffffffffffffffffffffffffffffffffffffffffffffffff1916908160001a9053508182518683602081106104bd576104bd610f4b565b6104c99291901a611192565b815181106104d9576104d9610f4b565b01602001517fff00000000000000000000000000000000000000000000000000000000000000168361050c83600261117b565b6105179060016111a6565b8151811061052757610527610f4b565b60200101907effffffffffffffffffffffffffffffffffffffffffffffffffffffffffffff1916908160001a90535080610560816111b9565b9150506103fc565b508160405160200161057a91906111f1565b60405160208183030381529060405292505050919050565b61059a61064e565b73ffffffffffffffffffffffffffffffffffffffff8116610642576040517f08c379a000000000000000000000000000000000000000000000000000000000815260206004820152602660248201527f4f776e61626c653a206e6577206f776e657220697320746865207a65726f206160448201527f646472657373000000000000000000000000000000000000000000000000000060648201526084015b60405180910390fd5b61064b816106cf565b50565b60005473ffffffffffffffffffffffffffffffffffffffff16331461011d576040517f08c379a000000000000000000000000000000000000000000000000000000000815260206004820181905260248201527f4f776e61626c653a2063616c6c6572206973206e6f7420746865206f776e65726044820152606401610639565b6000805473ffffffffffffffffffffffffffffffffffffffff8381167fffffffffffffffffffffffff0000000000000000000000000000000000000000831681178455604051919092169283917f8be0079c531659141344cd1fd0a4f28419497f9722a3daafe3b4186f6b6457e09190a35050565b6060816040516020016107579190611236565b6040516020818303038152906040529050919050565b606061079073ffffffffffffffffffffffffffffffffffffffff8316601461091b565b92915050565b606060006107a383610b65565b600101905060008167ffffffffffffffff8111156107c3576107c3610d1f565b6040519080825280601f01601f1916602001820160405280156107ed576020820181803683370190505b5090508181016020015b7fffffffffffffffffffffffffffffffffffffffffffffffffffffffffffffffff017f3031323334353637383961626364656600000000000000000000000000000000600a86061a8153600a85049450846107f757509392505050565b606060006108628686610c47565b905080848460405160200161087993929190611280565b604051602081830303815290604052915050949350505050565b6001546040517f377af0da00000000000000000000000000000000000000000000000000000000815273ffffffffffffffffffffffffffffffffffffffff9091169063377af0da906108ed9030908690869060040161136a565b600060405180830381600087803b15801561090757600080fd5b505af1158015610364573d6000803e3d6000fd5b6060600061092a83600261117b565b6109359060026111a6565b67ffffffffffffffff81111561094d5761094d610d1f565b6040519080825280601f01601f191660200182016040528015610977576020820181803683370190505b5090507f3000000000000000000000000000000000000000000000000000000000000000816000815181106109ae576109ae610f4b565b60200101907effffffffffffffffffffffffffffffffffffffffffffffffffffffffffffff1916908160001a9053507f780000000000000000000000000000000000000000000000000000000000000081600181518110610a1157610a11610f4b565b60200101907effffffffffffffffffffffffffffffffffffffffffffffffffffffffffffff1916908160001a9053506000610a4d84600261117b565b610a589060016111a6565b90505b6001811115610af5577f303132333435363738396162636465660000000000000000000000000000000085600f1660108110610a9957610a99610f4b565b1a60f81b828281518110610aaf57610aaf610f4b565b60200101907effffffffffffffffffffffffffffffffffffffffffffffffffffffffffffff1916908160001a90535060049490941c93610aee816113a8565b9050610a5b565b508315610b5e576040517f08c379a000000000000000000000000000000000000000000000000000000000815260206004820181905260248201527f537472696e67733a20686578206c656e67746820696e73756666696369656e746044820152606401610639565b9392505050565b6000807a184f03e93ff9f4daa797ed6e38ed64bf6a1f0100000000000000008310610bae577a184f03e93ff9f4daa797ed6e38ed64bf6a1f010000000000000000830492506040015b6d04ee2d6d415b85acef81000000008310610bda576d04ee2d6d415b85acef8100000000830492506020015b662386f26fc100008310610bf857662386f26fc10000830492506010015b6305f5e1008310610c10576305f5e100830492506008015b6127108310610c2457612710830492506004015b60648310610c36576064830492506002015b600a83106107905760010192915050565b606082610c5346610796565b610c5c84610796565b604051602001610c6e939291906113dd565b604051602081830303815290604052905092915050565b600060208284031215610c9757600080fd5b5035919050565b60005b83811015610cb9578181015183820152602001610ca1565b50506000910152565b60008151808452610cda816020860160208601610c9e565b601f017fffffffffffffffffffffffffffffffffffffffffffffffffffffffffffffffe0169290920160200192915050565b602081526000610b5e6020830184610cc2565b7f4e487b7100000000000000000000000000000000000000000000000000000000600052604160045260246000fd5b600082601f830112610d5f57600080fd5b813567ffffffffffffffff80821115610d7a57610d7a610d1f565b604051601f83017fffffffffffffffffffffffffffffffffffffffffffffffffffffffffffffffe0908116603f01168101908282118183101715610dc057610dc0610d1f565b81604052838152866020858801011115610dd957600080fd5b836020870160208301376000602085830101528094505050505092915050565b803573ffffffffffffffffffffffffffffffffffffffff81168114610e1d57600080fd5b919050565b60008060008060008060c08789031215610e3b57600080fd5b86359550602087013567ffffffffffffffff80821115610e5a57600080fd5b610e668a838b01610d4e565b96506040890135915080821115610e7c57600080fd5b610e888a838b01610d4e565b95506060890135915080821115610e9e57600080fd5b50610eab89828a01610d4e565b935050610eba60808801610df9565b915060a08701358015158114610ecf57600080fd5b809150509295509295509295565b600060208284031215610eef57600080fd5b610b5e82610df9565b600181811c90821680610f0c57607f821691505b602082108103610f45577f4e487b7100000000000000000000000000000000000000000000000000000000600052602260045260246000fd5b50919050565b7f4e487b7100000000000000000000000000000000000000000000000000000000600052603260045260246000fd5b60008151610f8c818560208601610c9e565b9290920192915050565b60008951610fa8818460208e01610c9e565b80830190507f2c000000000000000000000000000000000000000000000000000000000000008082528a51610fe4816001850160208f01610c9e565b600192019182018190528951611001816002850160208e01610c9e565b60029201918201819052885161101e816003850160208d01610c9e565b60039201918201528651611039816004840160208b01610c9e565b01611066600482017f2c000000000000000000000000000000000000000000000000000000000000009052565b6110736005820187610f7a565b7f2c00000000000000000000000000000000000000000000000000000000000000815290506110a56001820186610f7a565b7f2c00000000000000000000000000000000000000000000000000000000000000815290506110d76001820185610f7a565b9b9a5050505050505050505050565b7f4e487b7100000000000000000000000000000000000000000000000000000000600052601160045260246000fd5b60ff8181168382160290811690818114611131576111316110e6565b5092915050565b7f4e487b7100000000000000000000000000000000000000000000000000000000600052601260045260246000fd5b60008261117657611176611138565b500490565b8082028115828204841417610790576107906110e6565b6000826111a1576111a1611138565b500690565b80820180821115610790576107906110e6565b60007fffffffffffffffffffffffffffffffffffffffffffffffffffffffffffffffff82036111ea576111ea6110e6565b5060010190565b7f3078000000000000000000000000000000000000000000000000000000000000815260008251611229816002850160208701610c9e565b9190910160020192915050565b60007f2700000000000000000000000000000000000000000000000000000000000000808352835161126f816001860160208801610c9e565b600193019283015250600201919050565b7f494e5345525420494e544f2000000000000000000000000000000000000000008152600084516112b881600c850160208901610c9e565b7f2800000000000000000000000000000000000000000000000000000000000000600c9184019182015284516112f581600d840160208901610c9e565b7f2956414c55455328000000000000000000000000000000000000000000000000600d92909101918201528351611333816015840160208801610c9e565b7f29000000000000000000000000000000000000000000000000000000000000006015929091019182015260160195945050505050565b73ffffffffffffffffffffffffffffffffffffffff8416815282602082015260606040820152600061139f6060830184610cc2565b95945050505050565b6000816113b7576113b76110e6565b507fffffffffffffffffffffffffffffffffffffffffffffffffffffffffffffffff0190565b600084516113ef818460208901610c9e565b80830190507f5f00000000000000000000000000000000000000000000000000000000000000808252855161142b816001850160208a01610c9e565b60019201918201528351611446816002840160208801610c9e565b016002019594505050505056fe736368656d615549442c20736368656d612c207265736f6c7665722c207265766f6361626c652c206e616d652c206465736372697074696f6e2c2063726561746f722c206372656174696f6e54696d657374616d70a26469706673582212209c84101bca908f4793d122eb5990bf814294d8b9b73145b586937643aa9267d664736f6c63430008130033736368656d615549442074657874207072696d617279206b65792c20736368656d6120746578742c207265736f6c76657220746578742c207265766f6361626c6520746578742c206e616d6520746578742c206465736372697074696f6e20746578742c2063726561746f7220746578742c206372656174696f6e54696d657374616d702074657874",
  "devdoc": {
    "kind": "dev",
    "methods": {
      "constructor": {
        "details": "Creates a new SchemaRegistry instance."
      },
      "owner()": {
        "details": "Returns the address of the current owner."
      },
      "renounceOwnership()": {
        "details": "Leaves the contract without owner. It will not be possible to call `onlyOwner` functions. Can only be called by the current owner. NOTE: Renouncing ownership will leave the contract without an owner, thereby disabling any functionality that is only available to the owner."
      },
      "transferOwnership(address)": {
        "details": "Transfers ownership of the contract to a new account (`newOwner`). Can only be called by the current owner."
      }
    },
    "title": "SchemaTablelandIndexer",
    "version": 1
  },
  "userdoc": {
    "errors": {
      "ChainNotSupported(uint256)": [
        {
          "notice": "Current chain does not have a TablelandTables deployment."
        }
      ]
    },
    "kind": "user",
    "methods": {},
    "version": 1
  },
  "storageLayout": {
    "storage": [
      {
        "astId": 396,
        "contract": "contracts/SchemaTablelandIndexer.sol:SchemaTablelandIndexer",
        "label": "_owner",
        "offset": 0,
        "slot": "0",
        "type": "t_address"
      },
      {
        "astId": 5961,
        "contract": "contracts/SchemaTablelandIndexer.sol:SchemaTablelandIndexer",
        "label": "tablelandContract",
        "offset": 0,
        "slot": "1",
        "type": "t_contract(ITablelandTables)4963"
      },
      {
        "astId": 5964,
        "contract": "contracts/SchemaTablelandIndexer.sol:SchemaTablelandIndexer",
        "label": "createTableStatements",
        "offset": 0,
        "slot": "2",
        "type": "t_array(t_string_storage)dyn_storage"
      },
      {
        "astId": 5967,
        "contract": "contracts/SchemaTablelandIndexer.sol:SchemaTablelandIndexer",
        "label": "tables",
        "offset": 0,
        "slot": "3",
        "type": "t_array(t_string_storage)dyn_storage"
      },
      {
        "astId": 5970,
        "contract": "contracts/SchemaTablelandIndexer.sol:SchemaTablelandIndexer",
        "label": "tableIDs",
        "offset": 0,
        "slot": "4",
        "type": "t_array(t_uint256)dyn_storage"
      }
    ],
    "types": {
      "t_address": {
        "encoding": "inplace",
        "label": "address",
        "numberOfBytes": "20"
      },
      "t_array(t_string_storage)dyn_storage": {
        "base": "t_string_storage",
        "encoding": "dynamic_array",
        "label": "string[]",
        "numberOfBytes": "32"
      },
      "t_array(t_uint256)dyn_storage": {
        "base": "t_uint256",
        "encoding": "dynamic_array",
        "label": "uint256[]",
        "numberOfBytes": "32"
      },
      "t_contract(ITablelandTables)4963": {
        "encoding": "inplace",
        "label": "contract ITablelandTables",
        "numberOfBytes": "20"
      },
      "t_string_storage": {
        "encoding": "bytes",
        "label": "string",
        "numberOfBytes": "32"
      },
      "t_uint256": {
        "encoding": "inplace",
        "label": "uint256",
        "numberOfBytes": "32"
      }
    }
  }
}