{
  "address": "0xB953c11b2cad6D915c70C317A5983d1Eeab89cF0",
  "abi": [
    {
      "inputs": [
        {
          "internalType": "contract ISchemaTablelandIndexer",
          "name": "_tableland",
          "type": "address"
        }
      ],
      "stateMutability": "nonpayable",
      "type": "constructor"
    },
    {
      "inputs": [],
      "name": "AlreadyExists",
      "type": "error"
    },
    {
      "inputs": [
        {
          "internalType": "bytes32",
          "name": "uid",
          "type": "bytes32"
        }
      ],
      "name": "getSchema",
      "outputs": [
        {
          "components": [
            {
              "internalType": "bytes32",
              "name": "uid",
              "type": "bytes32"
            },
            {
              "internalType": "contract ISchemaResolver",
              "name": "resolver",
              "type": "address"
            },
            {
              "internalType": "bool",
              "name": "revocable",
              "type": "bool"
            },
            {
              "internalType": "string",
              "name": "schema",
              "type": "string"
            }
          ],
          "internalType": "struct SchemaRecord",
          "name": "",
          "type": "tuple"
        }
      ],
      "stateMutability": "view",
      "type": "function"
    },
    {
      "inputs": [
        {
          "components": [
            {
              "internalType": "string",
              "name": "schema",
              "type": "string"
            },
            {
              "internalType": "string",
              "name": "schemaName",
              "type": "string"
            },
            {
              "internalType": "string",
              "name": "schemaDescription",
              "type": "string"
            },
            {
              "internalType": "string[]",
              "name": "categories",
              "type": "string[]"
            },
            {
              "internalType": "contract ISchemaResolver",
              "name": "schemaResolver",
              "type": "address"
            },
            {
              "internalType": "bool",
              "name": "revocable",
              "type": "bool"
            }
          ],
          "internalType": "struct SchemaRegistrationInput",
          "name": "input",
          "type": "tuple"
        }
      ],
      "name": "register",
      "outputs": [
        {
          "internalType": "bytes32",
          "name": "",
          "type": "bytes32"
        }
      ],
      "stateMutability": "nonpayable",
      "type": "function"
    },
    {
      "inputs": [],
      "name": "version",
      "outputs": [
        {
          "internalType": "string",
          "name": "",
          "type": "string"
        }
      ],
      "stateMutability": "view",
      "type": "function"
    }
  ],
  "transactionHash": "0x3113d91851b6056cce0a317c86f461ed0fc967eb1aedf867f964ff241d376a82",
  "args": [
    "0x86cfb99bcc2D6De00E8a95b88a7557c0C221Fa54"
  ],
  "numDeployments": 1,
  "solcInputHash": "1663970b7101576bbd241d48e0243975",
  "bytecode": "0x60e060405234801561001057600080fd5b50604051610ee2380380610ee283398101604081905261002f916100a3565b6000608081905260a0819052600160c05280546001600160a01b0319166001600160a01b03929092169190911790556100cc565b60006001600160a01b0382165b92915050565b600061007082610063565b61008a81610076565b811461009557600080fd5b50565b805161007081610081565b6000602082840312156100b8576100b8600080fd5b60006100c48484610098565b949350505050565b60805160a05160c051610dea6100f8600039600060fd0152600060d40152600060ab0152610dea6000f3fe608060405234801561001057600080fd5b50600436106100415760003560e01c806354fd4d501461004657806361a4434c14610064578063a2ea7c6e14610084575b600080fd5b61004e6100a4565b60405161005b919061059d565b60405180910390f35b6100776100723660046108c6565b610147565b60405161005b9190610909565b610097610092366004610928565b61028d565b60405161005b91906109ee565b60606100cf7f0000000000000000000000000000000000000000000000000000000000000000610398565b6100f87f0000000000000000000000000000000000000000000000000000000000000000610398565b6101217f0000000000000000000000000000000000000000000000000000000000000000610398565b60405160200161013393929190610a21565b604051602081830303815290604052905090565b60408051608080820183526000808352908401516001600160a01b0316602083015260a084015115159282019290925282516060820152816101888261042c565b600081815260016020526040902054909150156101b85760405163119b4fd360e11b815260040160405180910390fd5b80825260008181526001602081815260409283902085518155908501519181018054938601511515600160a01b026001600160a81b03199094166001600160a01b03909316929092179290921790556060830151839190600282019061021e9082610b3c565b50506000548351604051636c42ce2560e01b81526001600160a01b039092169250636c42ce2591610253918891600401610d00565b600060405180830381600087803b15801561026d57600080fd5b505af1158015610281573d6000803e3d6000fd5b50929695505050505050565b6040805160808101825260008082526020820181905291810191909152606080820152600082815260016020818152604092839020835160808101855281548152928101546001600160a01b03811692840192909252600160a01b90910460ff1615159282019290925260028201805491929160608401919061030f90610a6f565b80601f016020809104026020016040519081016040528092919081815260200182805461033b90610a6f565b80156103885780601f1061035d57610100808354040283529160200191610388565b820191906000526020600020905b81548152906001019060200180831161036b57829003601f168201915b5050505050815250509050919050565b606060006103a58361046e565b600101905060008167ffffffffffffffff8111156103c5576103c56105b5565b6040519080825280601f01601f1916602001820160405280156103ef576020820181803683370190505b5090508181016020015b600019016f181899199a1a9b1b9c1cb0b131b232b360811b600a86061a8153600a85049450846103f9575b509392505050565b6000816060015182602001518360400151426040516020016104519493929190610d70565b604051602081830303815290604052805190602001209050919050565b60008072184f03e93ff9f4daa797ed6e38ed64bf6a1f0160401b83106104ad5772184f03e93ff9f4daa797ed6e38ed64bf6a1f0160401b830492506040015b6d04ee2d6d415b85acef810000000083106104d9576d04ee2d6d415b85acef8100000000830492506020015b662386f26fc1000083106104f757662386f26fc10000830492506010015b6305f5e100831061050f576305f5e100830492506008015b612710831061052357612710830492506004015b60648310610535576064830492506002015b600a8310610541576001015b92915050565b60005b8381101561056257818101518382015260200161054a565b50506000910152565b6000610575825190565b80845260208401935061058c818560208601610547565b601f01601f19169290920192915050565b602080825281016105ae818461056b565b9392505050565b634e487b7160e01b600052604160045260246000fd5b601f19601f830116810181811067ffffffffffffffff821117156105f1576105f16105b5565b6040525050565b600061060360405190565b905061060f82826105cb565b919050565b600067ffffffffffffffff82111561062e5761062e6105b5565b601f19601f83011660200192915050565b82818337506000910152565b600061065e61065984610614565b6105f8565b90508281526020810184848401111561067957610679600080fd5b61042484828561063f565b600082601f83011261069857610698600080fd5b81356106a884826020860161064b565b949350505050565b600067ffffffffffffffff8211156106ca576106ca6105b5565b5060209081020190565b60006106e2610659846106b0565b8381529050602080820190840283018581111561070157610701600080fd5b835b8181101561074257803567ffffffffffffffff81111561072557610725600080fd5b8086016107328982610684565b8552505060209283019201610703565b5050509392505050565b600082601f83011261076057610760600080fd5b81356106a88482602086016106d4565b60006001600160a01b038216610541565b600061054182610770565b61079581610781565b81146107a057600080fd5b50565b80356105418161078c565b801515610795565b8035610541816107ae565b600060c082840312156107d6576107d6600080fd5b6107e060c06105f8565b9050813567ffffffffffffffff8111156107fc576107fc600080fd5b61080884828501610684565b825250602082013567ffffffffffffffff81111561082857610828600080fd5b61083484828501610684565b602083015250604082013567ffffffffffffffff81111561085757610857600080fd5b61086384828501610684565b604083015250606082013567ffffffffffffffff81111561088657610886600080fd5b6108928482850161074c565b60608301525060806108a6848285016107a3565b60808301525060a06108ba848285016107b6565b60a08301525092915050565b6000602082840312156108db576108db600080fd5b813567ffffffffffffffff8111156108f5576108f5600080fd5b6106a8848285016107c1565b805b82525050565b602081016105418284610901565b80610795565b803561054181610917565b60006020828403121561093d5761093d600080fd5b60006106a8848461091d565b60006105416001600160a01b038316610960565b90565b6001600160a01b031690565b600061054182610949565b60006105418261096c565b61090381610977565b801515610903565b805160009060808401906109a78582610901565b5060208301516109ba6020860182610982565b5060408301516109cd604086018261098b565b50606083015184820360608601526109e5828261056b565b95945050505050565b602080825281016105ae8184610993565b6000610a09825190565b610a17818560208601610547565b9290920192915050565b6000610a2d82866109ff565b601760f91b81526001019150610a4382856109ff565b601760f91b815260010191506109e582846109ff565b634e487b7160e01b600052602260045260246000fd5b600281046001821680610a8357607f821691505b602082108103610a9557610a95610a59565b50919050565b600061054161095d8381565b610ab083610a9b565b815460001960089490940293841b1916921b91909117905550565b6000610ad8818484610aa7565b505050565b81811015610af857610af0600082610acb565b600101610add565b5050565b601f821115610ad8576000818152602090206020601f85010481016020851015610b235750805b610b356020601f860104830182610add565b5050505050565b815167ffffffffffffffff811115610b5657610b566105b5565b610b608254610a6f565b610b6b828285610afc565b6020601f831160018114610b9f5760008415610b875750858201515b600019600886021c1981166002860217865550610bf8565b600085815260208120601f198616915b82811015610bcf5788850151825560209485019460019092019101610baf565b86831015610beb5784890151600019601f89166008021c191682555b6001600288020188555050505b505050505050565b60006105ae838361056b565b6000610c16825190565b80845260208401935083602082028501610c308560200190565b8060005b85811015610c655784840389528151610c4d8582610c00565b94506020830160209a909a0199925050600101610c34565b5091979650505050505050565b805160c080845260009190840190610c8a828261056b565b91505060208301518482036020860152610ca4828261056b565b91505060408301518482036040860152610cbe828261056b565b91505060608301518482036060860152610cd88282610c0c565b9150506080830151610ced6080860182610982565b5060a083015161042460a086018261098b565b60408082528101610d118185610c72565b90506105ae6020830184610901565b60006105418260601b90565b600061054182610d20565b610903610d4382610977565b610d2c565b60006105418260f81b90565b600061054182610d48565b610903811515610d54565b80610903565b6000610d7c82876109ff565b9150610d888286610d37565b601482019150610d988285610d5f565b600182019150610da88284610d6a565b5060200194935050505056fea26469706673582212206e6d0828107dd56a94117a2d07303be2f000c8ca7833af7b2c66ef5f2ea9cad364736f6c63430008130033",
  "devdoc": {
    "kind": "dev",
    "methods": {
      "constructor": {
        "details": "Creates a new SchemaRegistry instance."
      },
      "getSchema(bytes32)": {
        "params": {
          "uid": "The UID of the schema to retrieve."
        },
        "returns": {
          "_0": "The schema data members."
        }
      },
      "version()": {
        "returns": {
          "_0": "Semver contract version as a string."
        }
      }
    },
    "title": "SchemaRegistry",
    "version": 1
  },
  "userdoc": {
    "kind": "user",
    "methods": {
      "getSchema(bytes32)": {
        "notice": "Returns an existing schema by UID"
      },
      "version()": {
        "notice": "Returns the full semver contract version."
      }
    },
    "notice": "The global schema registry.",
    "version": 1
  },
  "storageLayout": {
    "storage": [
      {
        "astId": 5507,
        "contract": "contracts/SchemaRegistry.sol:SchemaRegistry",
        "label": "tableland",
        "offset": 0,
        "slot": "0",
        "type": "t_contract(ISchemaTablelandIndexer)8608"
      },
      {
        "astId": 5514,
        "contract": "contracts/SchemaRegistry.sol:SchemaRegistry",
        "label": "_registry",
        "offset": 0,
        "slot": "1",
        "type": "t_mapping(t_bytes32,t_struct(SchemaRecord)5212_storage)"
      }
    ],
    "types": {
      "t_bool": {
        "encoding": "inplace",
        "label": "bool",
        "numberOfBytes": "1"
      },
      "t_bytes32": {
        "encoding": "inplace",
        "label": "bytes32",
        "numberOfBytes": "32"
      },
      "t_contract(ISchemaResolver)8701": {
        "encoding": "inplace",
        "label": "contract ISchemaResolver",
        "numberOfBytes": "20"
      },
      "t_contract(ISchemaTablelandIndexer)8608": {
        "encoding": "inplace",
        "label": "contract ISchemaTablelandIndexer",
        "numberOfBytes": "20"
      },
      "t_mapping(t_bytes32,t_struct(SchemaRecord)5212_storage)": {
        "encoding": "mapping",
        "key": "t_bytes32",
        "label": "mapping(bytes32 => struct SchemaRecord)",
        "numberOfBytes": "32",
        "value": "t_struct(SchemaRecord)5212_storage"
      },
      "t_string_storage": {
        "encoding": "bytes",
        "label": "string",
        "numberOfBytes": "32"
      },
      "t_struct(SchemaRecord)5212_storage": {
        "encoding": "inplace",
        "label": "struct SchemaRecord",
        "members": [
          {
            "astId": 5204,
            "contract": "contracts/SchemaRegistry.sol:SchemaRegistry",
            "label": "uid",
            "offset": 0,
            "slot": "0",
            "type": "t_bytes32"
          },
          {
            "astId": 5207,
            "contract": "contracts/SchemaRegistry.sol:SchemaRegistry",
            "label": "resolver",
            "offset": 0,
            "slot": "1",
            "type": "t_contract(ISchemaResolver)8701"
          },
          {
            "astId": 5209,
            "contract": "contracts/SchemaRegistry.sol:SchemaRegistry",
            "label": "revocable",
            "offset": 20,
            "slot": "1",
            "type": "t_bool"
          },
          {
            "astId": 5211,
            "contract": "contracts/SchemaRegistry.sol:SchemaRegistry",
            "label": "schema",
            "offset": 0,
            "slot": "2",
            "type": "t_string_storage"
          }
        ],
        "numberOfBytes": "96"
      }
    }
  }
}