{
  "address": "0x83a114b8bD851719e961b8919F54bEc48F2f4d7b",
  "abi": [
    {
      "inputs": [
        {
          "internalType": "contract ISchemaTablelandIndexer",
          "name": "_tableland",
          "type": "address"
        }
      ],
      "stateMutability": "nonpayable",
      "type": "constructor"
    },
    {
      "inputs": [],
      "name": "AlreadyExists",
      "type": "error"
    },
    {
      "inputs": [
        {
          "internalType": "bytes32",
          "name": "uid",
          "type": "bytes32"
        }
      ],
      "name": "getSchema",
      "outputs": [
        {
          "components": [
            {
              "internalType": "bytes32",
              "name": "uid",
              "type": "bytes32"
            },
            {
              "internalType": "contract ISchemaResolver",
              "name": "resolver",
              "type": "address"
            },
            {
              "internalType": "bool",
              "name": "revocable",
              "type": "bool"
            },
            {
              "internalType": "string",
              "name": "schema",
              "type": "string"
            }
          ],
          "internalType": "struct SchemaRecord",
          "name": "",
          "type": "tuple"
        }
      ],
      "stateMutability": "view",
      "type": "function"
    },
    {
      "inputs": [
        {
          "internalType": "string",
          "name": "schema",
          "type": "string"
        },
        {
          "internalType": "string",
          "name": "schemaName",
          "type": "string"
        },
        {
          "internalType": "string",
          "name": "schemaDescription",
          "type": "string"
        },
        {
          "internalType": "contract ISchemaResolver",
          "name": "resolver",
          "type": "address"
        },
        {
          "internalType": "bool",
          "name": "revocable",
          "type": "bool"
        }
      ],
      "name": "register",
      "outputs": [
        {
          "internalType": "bytes32",
          "name": "",
          "type": "bytes32"
        }
      ],
      "stateMutability": "nonpayable",
      "type": "function"
    },
    {
      "inputs": [],
      "name": "version",
      "outputs": [
        {
          "internalType": "string",
          "name": "",
          "type": "string"
        }
      ],
      "stateMutability": "view",
      "type": "function"
    }
  ],
  "transactionHash": "0xed562733cab955aae1b9d2c918bfdd8403ab02b2659349c1c767002ea0bc2bef",
  "args": [
    "0x96530784922047AdbAEb0e71a0b21cD64Efb0d62"
  ],
  "numDeployments": 1,
  "solcInputHash": "cd19f94aa2ec7d4942f920993b8750f6",
  "bytecode": "0x60e060405234801561001057600080fd5b50604051610cb4380380610cb483398101604081905261002f91610063565b6000608081905260a0819052600160c05280546001600160a01b0319166001600160a01b0392909216919091179055610093565b60006020828403121561007557600080fd5b81516001600160a01b038116811461008c57600080fd5b9392505050565b60805160a05160c051610bf56100bf600039600060fe0152600060d50152600060ac0152610bf56000f3fe608060405234801561001057600080fd5b50600436106100415760003560e01c806354fd4d501461004657806364ccc13714610064578063a2ea7c6e14610085575b600080fd5b61004e6100a5565b60405161005b919061068f565b60405180910390f35b610077610072366004610783565b610148565b60405190815260200161005b565b610098610093366004610851565b610315565b60405161005b919061086a565b60606100d07f000000000000000000000000000000000000000000000000000000000000000061043e565b6100f97f000000000000000000000000000000000000000000000000000000000000000061043e565b6101227f000000000000000000000000000000000000000000000000000000000000000061043e565b604051602001610134939291906108c3565b604051602081830303815290604052905090565b60408051608081018252600080825273ffffffffffffffffffffffffffffffffffffffff8516602083015283151592820192909252606081018790528161018e826104fc565b600081815260016020526040902054909150156101d7576040517f23369fa600000000000000000000000000000000000000000000000000000000815260040160405180910390fd5b8082526000818152600160208181526040928390208551815590850151918101805493860151151574010000000000000000000000000000000000000000027fffffffffffffffffffffff00000000000000000000000000000000000000000090941673ffffffffffffffffffffffffffffffffffffffff909316929092179290921790556060830151839190600282019061027390826109db565b505060005483516040517f7eebe24300000000000000000000000000000000000000000000000000000000815273ffffffffffffffffffffffffffffffffffffffff9092169250637eebe243916102d791908c908c908c908c908c90600401610af5565b600060405180830381600087803b1580156102f157600080fd5b505af1158015610305573d6000803e3d6000fd5b50929a9950505050505050505050565b60408051608081018252600080825260208201819052918101919091526060808201526000828152600160208181526040928390208351608081018552815481529281015473ffffffffffffffffffffffffffffffffffffffff8116928401929092527401000000000000000000000000000000000000000090910460ff161515928201929092526002820180549192916060840191906103b590610939565b80601f01602080910402602001604051908101604052809291908181526020018280546103e190610939565b801561042e5780601f106104035761010080835404028352916020019161042e565b820191906000526020600020905b81548152906001019060200180831161041157829003601f168201915b5050505050815250509050919050565b6060600061044b8361053e565b600101905060008167ffffffffffffffff81111561046b5761046b6106a9565b6040519080825280601f01601f191660200182016040528015610495576020820181803683370190505b5090508181016020015b7fffffffffffffffffffffffffffffffffffffffffffffffffffffffffffffffff017f3031323334353637383961626364656600000000000000000000000000000000600a86061a8153600a850494508461049f57509392505050565b6000816060015182602001518360400151426040516020016105219493929190610b65565b604051602081830303815290604052805190602001209050919050565b6000807a184f03e93ff9f4daa797ed6e38ed64bf6a1f0100000000000000008310610587577a184f03e93ff9f4daa797ed6e38ed64bf6a1f010000000000000000830492506040015b6d04ee2d6d415b85acef810000000083106105b3576d04ee2d6d415b85acef8100000000830492506020015b662386f26fc1000083106105d157662386f26fc10000830492506010015b6305f5e10083106105e9576305f5e100830492506008015b61271083106105fd57612710830492506004015b6064831061060f576064830492506002015b600a831061061b576001015b92915050565b60005b8381101561063c578181015183820152602001610624565b50506000910152565b6000815180845261065d816020860160208601610621565b601f017fffffffffffffffffffffffffffffffffffffffffffffffffffffffffffffffe0169290920160200192915050565b6020815260006106a26020830184610645565b9392505050565b7f4e487b7100000000000000000000000000000000000000000000000000000000600052604160045260246000fd5b600082601f8301126106e957600080fd5b813567ffffffffffffffff80821115610704576107046106a9565b604051601f83017fffffffffffffffffffffffffffffffffffffffffffffffffffffffffffffffe0908116603f0116810190828211818310171561074a5761074a6106a9565b8160405283815286602085880101111561076357600080fd5b836020870160208301376000602085830101528094505050505092915050565b600080600080600060a0868803121561079b57600080fd5b853567ffffffffffffffff808211156107b357600080fd5b6107bf89838a016106d8565b965060208801359150808211156107d557600080fd5b6107e189838a016106d8565b955060408801359150808211156107f757600080fd5b50610804888289016106d8565b935050606086013573ffffffffffffffffffffffffffffffffffffffff8116811461082e57600080fd5b91506080860135801515811461084357600080fd5b809150509295509295909350565b60006020828403121561086357600080fd5b5035919050565b602081528151602082015273ffffffffffffffffffffffffffffffffffffffff6020830151166040820152604082015115156060820152600060608301516080808401526108bb60a0840182610645565b949350505050565b600084516108d5818460208901610621565b80830190507f2e000000000000000000000000000000000000000000000000000000000000008082528551610911816001850160208a01610621565b6001920191820152835161092c816002840160208801610621565b0160020195945050505050565b600181811c9082168061094d57607f821691505b602082108103610986577f4e487b7100000000000000000000000000000000000000000000000000000000600052602260045260246000fd5b50919050565b601f8211156109d657600081815260208120601f850160051c810160208610156109b35750805b601f850160051c820191505b818110156109d2578281556001016109bf565b5050505b505050565b815167ffffffffffffffff8111156109f5576109f56106a9565b610a0981610a038454610939565b8461098c565b602080601f831160018114610a5c5760008415610a265750858301515b7fffffffffffffffffffffffffffffffffffffffffffffffffffffffffffffffff600386901b1c1916600185901b1785556109d2565b6000858152602081207fffffffffffffffffffffffffffffffffffffffffffffffffffffffffffffffe08616915b82811015610aa957888601518255948401946001909101908401610a8a565b5085821015610ae557878501517fffffffffffffffffffffffffffffffffffffffffffffffffffffffffffffffff600388901b60f8161c191681555b5050505050600190811b01905550565b86815260c060208201526000610b0e60c0830188610645565b8281036040840152610b208188610645565b90508281036060840152610b348187610645565b73ffffffffffffffffffffffffffffffffffffffff959095166080840152505090151560a090910152949350505050565b60008551610b77818460208a01610621565b60609590951b7fffffffffffffffffffffffffffffffffffffffff000000000000000000000000169190940190815291151560f81b601483015260158201526035019291505056fea2646970667358221220388413f0d351f6f3cab35ed6c07ce44c63f64a9e8af64abaa6b30646f8a81d5264736f6c63430008130033",
  "devdoc": {
    "kind": "dev",
    "methods": {
      "constructor": {
        "details": "Creates a new SchemaRegistry instance."
      },
      "getSchema(bytes32)": {
        "params": {
          "uid": "The UID of the schema to retrieve."
        },
        "returns": {
          "_0": "The schema data members."
        }
      },
      "register(string,string,string,address,bool)": {
        "params": {
          "resolver": "An optional schema resolver.",
          "revocable": "Whether the schema allows revocations explicitly.",
          "schema": "The schema data schema."
        },
        "returns": {
          "_0": "The UID of the new schema."
        }
      },
      "version()": {
        "returns": {
          "_0": "Semver contract version as a string."
        }
      }
    },
    "title": "SchemaRegistry",
    "version": 1
  },
  "userdoc": {
    "kind": "user",
    "methods": {
      "getSchema(bytes32)": {
        "notice": "Returns an existing schema by UID"
      },
      "register(string,string,string,address,bool)": {
        "notice": "Submits and reserves a new schema"
      },
      "version()": {
        "notice": "Returns the full semver contract version."
      }
    },
    "notice": "The global schema registry.",
    "version": 1
  },
  "storageLayout": {
    "storage": [
      {
        "astId": 5808,
        "contract": "contracts/SchemaRegistry.sol:SchemaRegistry",
        "label": "tableland",
        "offset": 0,
        "slot": "0",
        "type": "t_contract(ISchemaTablelandIndexer)9445"
      },
      {
        "astId": 5815,
        "contract": "contracts/SchemaRegistry.sol:SchemaRegistry",
        "label": "_registry",
        "offset": 0,
        "slot": "1",
        "type": "t_mapping(t_bytes32,t_struct(SchemaRecord)5522_storage)"
      }
    ],
    "types": {
      "t_bool": {
        "encoding": "inplace",
        "label": "bool",
        "numberOfBytes": "1"
      },
      "t_bytes32": {
        "encoding": "inplace",
        "label": "bytes32",
        "numberOfBytes": "32"
      },
      "t_contract(ISchemaResolver)9538": {
        "encoding": "inplace",
        "label": "contract ISchemaResolver",
        "numberOfBytes": "20"
      },
      "t_contract(ISchemaTablelandIndexer)9445": {
        "encoding": "inplace",
        "label": "contract ISchemaTablelandIndexer",
        "numberOfBytes": "20"
      },
      "t_mapping(t_bytes32,t_struct(SchemaRecord)5522_storage)": {
        "encoding": "mapping",
        "key": "t_bytes32",
        "label": "mapping(bytes32 => struct SchemaRecord)",
        "numberOfBytes": "32",
        "value": "t_struct(SchemaRecord)5522_storage"
      },
      "t_string_storage": {
        "encoding": "bytes",
        "label": "string",
        "numberOfBytes": "32"
      },
      "t_struct(SchemaRecord)5522_storage": {
        "encoding": "inplace",
        "label": "struct SchemaRecord",
        "members": [
          {
            "astId": 5514,
            "contract": "contracts/SchemaRegistry.sol:SchemaRegistry",
            "label": "uid",
            "offset": 0,
            "slot": "0",
            "type": "t_bytes32"
          },
          {
            "astId": 5517,
            "contract": "contracts/SchemaRegistry.sol:SchemaRegistry",
            "label": "resolver",
            "offset": 0,
            "slot": "1",
            "type": "t_contract(ISchemaResolver)9538"
          },
          {
            "astId": 5519,
            "contract": "contracts/SchemaRegistry.sol:SchemaRegistry",
            "label": "revocable",
            "offset": 20,
            "slot": "1",
            "type": "t_bool"
          },
          {
            "astId": 5521,
            "contract": "contracts/SchemaRegistry.sol:SchemaRegistry",
            "label": "schema",
            "offset": 0,
            "slot": "2",
            "type": "t_string_storage"
          }
        ],
        "numberOfBytes": "96"
      }
    }
  }
}