{
  "address": "0xf1461cc5D4332024E401d9d753F9A13F49651507",
  "abi": [
    {
      "inputs": [],
      "stateMutability": "nonpayable",
      "type": "constructor"
    },
    {
      "inputs": [
        {
          "internalType": "uint256",
          "name": "chainid",
          "type": "uint256"
        }
      ],
      "name": "ChainNotSupported",
      "type": "error"
    },
    {
      "anonymous": false,
      "inputs": [
        {
          "indexed": true,
          "internalType": "address",
          "name": "previousOwner",
          "type": "address"
        },
        {
          "indexed": true,
          "internalType": "address",
          "name": "newOwner",
          "type": "address"
        }
      ],
      "name": "OwnershipTransferred",
      "type": "event"
    },
    {
      "inputs": [
        {
          "components": [
            {
              "internalType": "string",
              "name": "schema",
              "type": "string"
            },
            {
              "internalType": "string",
              "name": "schemaName",
              "type": "string"
            },
            {
              "internalType": "string",
              "name": "schemaDescription",
              "type": "string"
            },
            {
              "internalType": "string[]",
              "name": "categories",
              "type": "string[]"
            },
            {
              "internalType": "contract ISchemaResolver",
              "name": "schemaResolver",
              "type": "address"
            },
            {
              "internalType": "bool",
              "name": "revocable",
              "type": "bool"
            }
          ],
          "internalType": "struct SchemaRegistrationInput",
          "name": "input",
          "type": "tuple"
        },
        {
          "internalType": "bytes32",
          "name": "schemaUID",
          "type": "bytes32"
        }
      ],
      "name": "SchemaRegistered",
      "outputs": [],
      "stateMutability": "nonpayable",
      "type": "function"
    },
    {
      "inputs": [
        {
          "internalType": "bytes32",
          "name": "data",
          "type": "bytes32"
        }
      ],
      "name": "bytes32ToString",
      "outputs": [
        {
          "internalType": "string",
          "name": "",
          "type": "string"
        }
      ],
      "stateMutability": "pure",
      "type": "function"
    },
    {
      "inputs": [],
      "name": "owner",
      "outputs": [
        {
          "internalType": "address",
          "name": "",
          "type": "address"
        }
      ],
      "stateMutability": "view",
      "type": "function"
    },
    {
      "inputs": [],
      "name": "renounceOwnership",
      "outputs": [],
      "stateMutability": "nonpayable",
      "type": "function"
    },
    {
      "inputs": [
        {
          "internalType": "uint256",
          "name": "",
          "type": "uint256"
        }
      ],
      "name": "tables",
      "outputs": [
        {
          "internalType": "string",
          "name": "",
          "type": "string"
        }
      ],
      "stateMutability": "view",
      "type": "function"
    },
    {
      "inputs": [
        {
          "internalType": "address",
          "name": "newOwner",
          "type": "address"
        }
      ],
      "name": "transferOwnership",
      "outputs": [],
      "stateMutability": "nonpayable",
      "type": "function"
    }
  ],
  "transactionHash": "0xa65d797886203e29e6347d9f81714c20f9760b33de7f560093a712143f38a58a",
  "args": [],
  "numDeployments": 1,
  "solcInputHash": "5b391c93e8d625bb77c5c72d1262a1f5",
  "bytecode": "0x60806040523480156200001157600080fd5b506200001d33620002c4565b6200002762000314565b600160006101000a8154816001600160a01b0302191690836001600160a01b031602179055506002620000906040518060c0016040528060898152602001620028bb60899139604080518082019091526006815265736368656d6160d01b6020820152620004d7565b81546001810183556000928352602090922090910190620000b29082620007cd565b506002620001256040518060400160405280601d81526020017f736368656d6155494420746578742c2063617465676f7279207465787400000081525060405180604001604052806011815260200170736368656d615f63617465676f7269657360781b815250620004d760201b60201c565b81546001810183556000928352602090922090910190620001479082620007cd565b506001546040516361a23d0f60e01b81526001600160a01b03909116906361a23d0f906200017d90309060029060040162000899565b6000604051808303816000875af11580156200019d573d6000803e3d6000fd5b505050506040513d6000823e601f3d908101601f19168201604052620001c7919081019062000981565b8051620001dd91600691602090910190620006c1565b5060036200023160405180604001604052806006815260200165736368656d6160d01b81525060066000815481106200021a576200021a62000a4a565b90600052602060002001546200051160201b60201c565b81546001810183556000928352602090922090910190620002539082620007cd565b5060036200029b60405180604001604052806011815260200170736368656d615f63617465676f7269657360781b81525060066001815481106200021a576200021a62000a4a565b81546001810183556000928352602090922090910190620002bd9082620007cd565b5062000b3b565b600080546001600160a01b038381166001600160a01b0319831681178455604051919092169283917f8be0079c531659141344cd1fd0a4f28419497f9722a3daafe3b4186f6b6457e09190a35050565b60004660010362000338575073012969f7e3439a9b04025b5a049eb9bad82a8c1290565b46600a036200035a575073fad44bf5b843de943a09d4f3e84949a11d3aa3e690565b4661a4b1036200037d5750739abd75e8640871a5a20d3b4ee6330a04c962affd90565b4661a4ba03620003a05750731a22854c5b1642760a827f20137a67930ae108d290565b46608903620003c25750735c4e6a9e5c1e1bf445a062006faf19ea6c49afea90565b4661013a03620003e557507359ef8bf2d6c102b4c42aef9189e1a9f0abfd652d90565b4660050362000407575073da8ea22d092307874f30a1f277d1388dca0ba97a90565b466101a4036200042a575073c72e8a7be04f2469f8c2db3f1bdf69a7d516abba90565b4662066eed036200044e575073033f69e8d119205089ab15d340f5b797732f646b90565b466201388103620004725750734b48841d4b32c4650e4abc117a03fe8b51f38f6890565b46610c4503620004955750730b9737ab4b3e5303cb67db031b509697e31c02d390565b46617a6903620004b8575073e7f1725e7734ce288f8367e1bb143e90bb3f051290565b60405163264e42cf60e01b815246600482015260240160405180910390fd5b606081620004e5466200053e565b84604051602001620004fa9392919062000a92565b604051602081830303815290604052905092915050565b6060826200051f466200053e565b6200052a846200053e565b604051602001620004fa9392919062000af8565b606060006200054d83620005d7565b60010190506000816001600160401b038111156200056f576200056f62000728565b6040519080825280601f01601f1916602001820160405280156200059a576020820181803683370190505b5090508181016020015b600019016f181899199a1a9b1b9c1cb0b131b232b360811b600a86061a8153600a8504945084620005a457509392505050565b6000807a184f03e93ff9f4daa797ed6e38ed64bf6a1f010000000000000000831062000621577a184f03e93ff9f4daa797ed6e38ed64bf6a1f010000000000000000830492506040015b6d04ee2d6d415b85acef810000000083106200064e576d04ee2d6d415b85acef8100000000830492506020015b662386f26fc1000083106200066d57662386f26fc10000830492506010015b6305f5e100831062000686576305f5e100830492506008015b61271083106200069b57612710830492506004015b60648310620006ae576064830492506002015b600a8310620006bb576001015b92915050565b828054828255906000526020600020908101928215620006ff579160200282015b82811115620006ff578251825591602001919060010190620006e2565b506200070d92915062000711565b5090565b5b808211156200070d576000815560010162000712565b634e487b7160e01b600052604160045260246000fd5b600181811c908216806200075357607f821691505b6020821081036200077457634e487b7160e01b600052602260045260246000fd5b50919050565b601f821115620007c857600081815260208120601f850160051c81016020861015620007a35750805b601f850160051c820191505b81811015620007c457828155600101620007af565b5050505b505050565b81516001600160401b03811115620007e957620007e962000728565b6200080181620007fa84546200073e565b846200077a565b602080601f831160018114620008395760008415620008205750858301515b600019600386901b1c1916600185901b178555620007c4565b600085815260208120601f198616915b828110156200086a5788860151825594840194600190910190840162000849565b5085821015620008895787850151600019600388901b60f8161c191681555b5050505050600190811b01905550565b60006040820160018060a01b0385168352602060408185015281855480845260608601915060059350606081851b8701016000888152848120815b848110156200097157605f198a8503018652828254620008f4816200073e565b808752600182811680156200091257600181146200092c5762000959565b60ff198416898d01528215158d1b89018c01945062000959565b8688528b8820885b84811015620009515781548b82018f0152908301908d0162000934565b8a018d019550505b50988a019892965050509190910190600101620008d4565b50919a9950505050505050505050565b600060208083850312156200099557600080fd5b82516001600160401b0380821115620009ad57600080fd5b818501915085601f830112620009c257600080fd5b815181811115620009d757620009d762000728565b8060051b604051601f19603f83011681018181108582111715620009ff57620009ff62000728565b60405291825284820192508381018501918883111562000a1e57600080fd5b938501935b8285101562000a3e5784518452938501939285019262000a23565b98975050505050505050565b634e487b7160e01b600052603260045260246000fd5b6000815160005b8181101562000a83576020818501810151868301520162000a67565b50600093019283525090919050565b6c021a922a0aa22902a20a126229609d1b8152600062000ab6600d83018662000a60565b605f60f81b815262000acc600182018662000a60565b9050600560fb1b815262000ae4600182018562000a60565b602960f81b81526001019695505050505050565b600062000b06828662000a60565b605f60f81b80825262000b1d600183018762000a60565b908152905062000b31600182018562000a60565b9695505050505050565b611d708062000b4b6000396000f3fe608060405234801561001057600080fd5b50600436106100725760003560e01c80638da5cb5b116100505780638da5cb5b146100bd5780639201de55146100e5578063f2fde38b146100f857600080fd5b80636c42ce2514610077578063715018a61461008c57806371671bf214610094575b600080fd5b61008a61008536600461125a565b61010b565b005b61008a61040f565b6100a76100a236600461135d565b610423565b6040516100b491906113e4565b60405180910390f35b60005460405173ffffffffffffffffffffffffffffffffffffffff90911681526020016100b4565b6100a76100f336600461135d565b6104cf565b61008a6101063660046113f7565b6106f5565b6101136107b1565b606082015151600554620186a09061012c908390611443565b111561013a5761013a610832565b6102dd600660008154811061015157610151611456565b90600052602060002001546102d86040518060400160405280600681526020017f736368656d61000000000000000000000000000000000000000000000000000081525060066000815481106101a9576101a9611456565b9060005260206000200154604051806080016040528060558152602001611ce6605591396101de6101d9896104cf565b610a11565b89516101e990610a11565b6101f96101d98c60800151610a3a565b61027b8c60a00151610240576040518060400160405280600581526020017f66616c7365000000000000000000000000000000000000000000000000000000815250610a11565b6040518060400160405280600481526020017f7472756500000000000000000000000000000000000000000000000000000000815250610a11565b6102888d60200151610a11565b6102958e60400151610a11565b6102a16101d932610a3a565b6102ad6101d942610a63565b6040516020016102c49897969594939291906114a1565b604051602081830303815290604052610b21565b610b60565b60005b8360600151518110156103f2576103e0600660018154811061030457610304611456565b90600052602060002001546102d86040518060400160405280601181526020017f736368656d615f63617465676f72696573000000000000000000000000000000815250600660018154811061035c5761035c611456565b90600052602060002001546040518060400160405280601381526020017f736368656d615549442c2063617465676f7279000000000000000000000000008152506103a96101d98a6104cf565b6103cf8b6060015189815181106103c2576103c2611456565b6020026020010151610a11565b6040516020016102c49291906115f1565b806103ea81611649565b9150506102e0565b5080600560008282546104059190611443565b9091555050505050565b6104176107b1565b6104216000610bf0565b565b6003818154811061043357600080fd5b90600052602060002001600091509050805461044e90611681565b80601f016020809104026020016040519081016040528092919081815260200182805461047a90611681565b80156104c75780601f1061049c576101008083540402835291602001916104c7565b820191906000526020600020905b8154815290600101906020018083116104aa57829003601f168201915b505050505081565b606060006104df602060026116d4565b60ff1667ffffffffffffffff8111156104fa576104fa61102f565b6040519080825280601f01601f191660200182016040528015610524576020820181803683370190505b5060408051808201909152601081527f3031323334353637383961626364656600000000000000000000000000000000602082015290915060005b60208110156106cb5781825186836020811061057d5761057d611456565b6105899291901a611726565b8151811061059957610599611456565b01602001517fff0000000000000000000000000000000000000000000000000000000000000016836105cc83600261173a565b815181106105dc576105dc611456565b60200101907effffffffffffffffffffffffffffffffffffffffffffffffffffffffffffff1916908160001a90535081825186836020811061062057610620611456565b61062c9291901a611751565b8151811061063c5761063c611456565b01602001517fff00000000000000000000000000000000000000000000000000000000000000168361066f83600261173a565b61067a906001611443565b8151811061068a5761068a611456565b60200101907effffffffffffffffffffffffffffffffffffffffffffffffffffffffffffff1916908160001a905350806106c381611649565b91505061055f565b50816040516020016106dd9190611765565b60405160208183030381529060405292505050919050565b6106fd6107b1565b73ffffffffffffffffffffffffffffffffffffffff81166107a5576040517f08c379a000000000000000000000000000000000000000000000000000000000815260206004820152602660248201527f4f776e61626c653a206e6577206f776e657220697320746865207a65726f206160448201527f646472657373000000000000000000000000000000000000000000000000000060648201526084015b60405180910390fd5b6107ae81610bf0565b50565b60005473ffffffffffffffffffffffffffffffffffffffff163314610421576040517f08c379a000000000000000000000000000000000000000000000000000000000815260206004820181905260248201527f4f776e61626c653a2063616c6c6572206973206e6f7420746865206f776e6572604482015260640161079c565b6001546040517f61a23d0f00000000000000000000000000000000000000000000000000000000815273ffffffffffffffffffffffffffffffffffffffff909116906361a23d0f9061088b9030906002906004016117aa565b6000604051808303816000875af11580156108aa573d6000803e3d6000fd5b505050506040513d6000823e601f3d9081017fffffffffffffffffffffffffffffffffffffffffffffffffffffffffffffffe01682016040526108f091908101906118d2565b805161090491600691602090910190610fcf565b5060036109646040518060400160405280600681526020017f736368656d610000000000000000000000000000000000000000000000000000815250600660008154811061095457610954611456565b9060005260206000200154610c65565b8154600181018355600092835260209092209091019061098490826119ae565b5060036109d46040518060400160405280601181526020017f736368656d615f63617465676f72696573000000000000000000000000000000815250600660018154811061095457610954611456565b815460018101835560009283526020909220909101906109f490826119ae565b50600060058190556004805491610a0a83611649565b9190505550565b606081604051602001610a249190611ac8565b6040516020818303038152906040529050919050565b6060610a5d73ffffffffffffffffffffffffffffffffffffffff83166014610ca3565b92915050565b60606000610a7083610eed565b600101905060008167ffffffffffffffff811115610a9057610a9061102f565b6040519080825280601f01601f191660200182016040528015610aba576020820181803683370190505b5090508181016020015b7fffffffffffffffffffffffffffffffffffffffffffffffffffffffffffffffff017f3031323334353637383961626364656600000000000000000000000000000000600a86061a8153600a8504945084610ac457509392505050565b60606000610b2f8686610c65565b9050808484604051602001610b4693929190611b12565b604051602081830303815290604052915050949350505050565b6001546040517f377af0da00000000000000000000000000000000000000000000000000000000815273ffffffffffffffffffffffffffffffffffffffff9091169063377af0da90610bba90309086908690600401611bfc565b600060405180830381600087803b158015610bd457600080fd5b505af1158015610be8573d6000803e3d6000fd5b505050505050565b6000805473ffffffffffffffffffffffffffffffffffffffff8381167fffffffffffffffffffffffff0000000000000000000000000000000000000000831681178455604051919092169283917f8be0079c531659141344cd1fd0a4f28419497f9722a3daafe3b4186f6b6457e09190a35050565b606082610c7146610a63565b610c7a84610a63565b604051602001610c8c93929190611c3a565b604051602081830303815290604052905092915050565b60606000610cb283600261173a565b610cbd906002611443565b67ffffffffffffffff811115610cd557610cd561102f565b6040519080825280601f01601f191660200182016040528015610cff576020820181803683370190505b5090507f300000000000000000000000000000000000000000000000000000000000000081600081518110610d3657610d36611456565b60200101907effffffffffffffffffffffffffffffffffffffffffffffffffffffffffffff1916908160001a9053507f780000000000000000000000000000000000000000000000000000000000000081600181518110610d9957610d99611456565b60200101907effffffffffffffffffffffffffffffffffffffffffffffffffffffffffffff1916908160001a9053506000610dd584600261173a565b610de0906001611443565b90505b6001811115610e7d577f303132333435363738396162636465660000000000000000000000000000000085600f1660108110610e2157610e21611456565b1a60f81b828281518110610e3757610e37611456565b60200101907effffffffffffffffffffffffffffffffffffffffffffffffffffffffffffff1916908160001a90535060049490941c93610e7681611cb0565b9050610de3565b508315610ee6576040517f08c379a000000000000000000000000000000000000000000000000000000000815260206004820181905260248201527f537472696e67733a20686578206c656e67746820696e73756666696369656e74604482015260640161079c565b9392505050565b6000807a184f03e93ff9f4daa797ed6e38ed64bf6a1f0100000000000000008310610f36577a184f03e93ff9f4daa797ed6e38ed64bf6a1f010000000000000000830492506040015b6d04ee2d6d415b85acef81000000008310610f62576d04ee2d6d415b85acef8100000000830492506020015b662386f26fc100008310610f8057662386f26fc10000830492506010015b6305f5e1008310610f98576305f5e100830492506008015b6127108310610fac57612710830492506004015b60648310610fbe576064830492506002015b600a8310610a5d5760010192915050565b82805482825590600052602060002090810192821561100a579160200282015b8281111561100a578251825591602001919060010190610fef565b5061101692915061101a565b5090565b5b80821115611016576000815560010161101b565b7f4e487b7100000000000000000000000000000000000000000000000000000000600052604160045260246000fd5b60405160c0810167ffffffffffffffff811182821017156110815761108161102f565b60405290565b604051601f82017fffffffffffffffffffffffffffffffffffffffffffffffffffffffffffffffe016810167ffffffffffffffff811182821017156110ce576110ce61102f565b604052919050565b600082601f8301126110e757600080fd5b813567ffffffffffffffff8111156111015761110161102f565b61113260207fffffffffffffffffffffffffffffffffffffffffffffffffffffffffffffffe0601f84011601611087565b81815284602083860101111561114757600080fd5b816020850160208301376000918101602001919091529392505050565b600067ffffffffffffffff82111561117e5761117e61102f565b5060051b60200190565b600082601f83011261119957600080fd5b813560206111ae6111a983611164565b611087565b82815260059290921b840181019181810190868411156111cd57600080fd5b8286015b8481101561120d57803567ffffffffffffffff8111156111f15760008081fd5b6111ff8986838b01016110d6565b8452509183019183016111d1565b509695505050505050565b73ffffffffffffffffffffffffffffffffffffffff811681146107ae57600080fd5b803561124581611218565b919050565b8035801515811461124557600080fd5b6000806040838503121561126d57600080fd5b823567ffffffffffffffff8082111561128557600080fd5b9084019060c0828703121561129957600080fd5b6112a161105e565b8235828111156112b057600080fd5b6112bc888286016110d6565b8252506020830135828111156112d157600080fd5b6112dd888286016110d6565b6020830152506040830135828111156112f557600080fd5b611301888286016110d6565b60408301525060608301358281111561131957600080fd5b61132588828601611188565b6060830152506113376080840161123a565b608082015261134860a0840161124a565b60a08201529660209590950135955050505050565b60006020828403121561136f57600080fd5b5035919050565b60005b83811015611391578181015183820152602001611379565b50506000910152565b600081518084526113b2816020860160208601611376565b601f017fffffffffffffffffffffffffffffffffffffffffffffffffffffffffffffffe0169290920160200192915050565b602081526000610ee6602083018461139a565b60006020828403121561140957600080fd5b8135610ee681611218565b7f4e487b7100000000000000000000000000000000000000000000000000000000600052601160045260246000fd5b80820180821115610a5d57610a5d611414565b7f4e487b7100000000000000000000000000000000000000000000000000000000600052603260045260246000fd5b60008151611497818560208601611376565b9290920192915050565b600089516114b3818460208e01611376565b80830190507f2c000000000000000000000000000000000000000000000000000000000000008082528a516114ef816001850160208f01611376565b60019201918201819052895161150c816002850160208e01611376565b600292019182018190528851611529816003850160208d01611376565b60039201918201528651611544816004840160208b01611376565b01611571600482017f2c000000000000000000000000000000000000000000000000000000000000009052565b61157e6005820187611485565b7f2c00000000000000000000000000000000000000000000000000000000000000815290506115b06001820186611485565b7f2c00000000000000000000000000000000000000000000000000000000000000815290506115e26001820185611485565b9b9a5050505050505050505050565b60008351611603818460208801611376565b7f2c00000000000000000000000000000000000000000000000000000000000000908301908152835161163d816001840160208801611376565b01600101949350505050565b60007fffffffffffffffffffffffffffffffffffffffffffffffffffffffffffffffff820361167a5761167a611414565b5060010190565b600181811c9082168061169557607f821691505b6020821081036116ce577f4e487b7100000000000000000000000000000000000000000000000000000000600052602260045260246000fd5b50919050565b60ff81811683821602908116908181146116f0576116f0611414565b5092915050565b7f4e487b7100000000000000000000000000000000000000000000000000000000600052601260045260246000fd5b600082611735576117356116f7565b500490565b8082028115828204841417610a5d57610a5d611414565b600082611760576117606116f7565b500690565b7f307800000000000000000000000000000000000000000000000000000000000081526000825161179d816002850160208701611376565b9190910160020192915050565b60006040820173ffffffffffffffffffffffffffffffffffffffff85168352602060408185015281855480845260608601915060059350606081851b8701016000888152848120815b848110156118c2577fffffffffffffffffffffffffffffffffffffffffffffffffffffffffffffffa08a850301865282825461182e81611681565b808752600182811680156118495760018114611880576118ab565b7fffffffffffffffffffffffffffffffffffffffffffffffffffffffffffffff0084168c8a01528b8315158e1b8a010194506118ab565b8688528b8820885b848110156118a35781548b82018f0152908301908d01611888565b8a018d019550505b50988a0198929650505091909101906001016117f3565b50919a9950505050505050505050565b600060208083850312156118e557600080fd5b825167ffffffffffffffff8111156118fc57600080fd5b8301601f8101851361190d57600080fd5b805161191b6111a982611164565b81815260059190911b8201830190838101908783111561193a57600080fd5b928401925b828410156119585783518252928401929084019061193f565b979650505050505050565b601f8211156119a957600081815260208120601f850160051c8101602086101561198a5750805b601f850160051c820191505b81811015610be857828155600101611996565b505050565b815167ffffffffffffffff8111156119c8576119c861102f565b6119dc816119d68454611681565b84611963565b602080601f831160018114611a2f57600084156119f95750858301515b7fffffffffffffffffffffffffffffffffffffffffffffffffffffffffffffffff600386901b1c1916600185901b178555610be8565b6000858152602081207fffffffffffffffffffffffffffffffffffffffffffffffffffffffffffffffe08616915b82811015611a7c57888601518255948401946001909101908401611a5d565b5085821015611ab857878501517fffffffffffffffffffffffffffffffffffffffffffffffffffffffffffffffff600388901b60f8161c191681555b5050505050600190811b01905550565b60007f27000000000000000000000000000000000000000000000000000000000000008083528351611b01816001860160208801611376565b600193019283015250600201919050565b7f494e5345525420494e544f200000000000000000000000000000000000000000815260008451611b4a81600c850160208901611376565b7f2800000000000000000000000000000000000000000000000000000000000000600c918401918201528451611b8781600d840160208901611376565b7f2956414c55455328000000000000000000000000000000000000000000000000600d92909101918201528351611bc5816015840160208801611376565b7f29000000000000000000000000000000000000000000000000000000000000006015929091019182015260160195945050505050565b73ffffffffffffffffffffffffffffffffffffffff84168152826020820152606060408201526000611c31606083018461139a565b95945050505050565b60008451611c4c818460208901611376565b80830190507f5f000000000000000000000000000000000000000000000000000000000000008082528551611c88816001850160208a01611376565b60019201918201528351611ca3816002840160208801611376565b0160020195945050505050565b600081611cbf57611cbf611414565b507fffffffffffffffffffffffffffffffffffffffffffffffffffffffffffffffff019056fe736368656d615549442c20736368656d612c207265736f6c7665722c207265766f6361626c652c206e616d652c206465736372697074696f6e2c2063726561746f722c206372656174696f6e54696d657374616d70a26469706673582212206889fb2b7a380e44349c6161ac97b76b5685bdadf53fdc61d3fd6d6e41f9a84964736f6c63430008130033736368656d615549442074657874207072696d617279206b65792c20736368656d6120746578742c207265736f6c76657220746578742c207265766f6361626c6520746578742c206e616d6520746578742c206465736372697074696f6e20746578742c2063726561746f7220746578742c206372656174696f6e54696d657374616d702074657874",
  "devdoc": {
    "kind": "dev",
    "methods": {
      "constructor": {
        "details": "Creates a new SchemaRegistry instance."
      },
      "owner()": {
        "details": "Returns the address of the current owner."
      },
      "renounceOwnership()": {
        "details": "Leaves the contract without owner. It will not be possible to call `onlyOwner` functions. Can only be called by the current owner. NOTE: Renouncing ownership will leave the contract without an owner, thereby disabling any functionality that is only available to the owner."
      },
      "transferOwnership(address)": {
        "details": "Transfers ownership of the contract to a new account (`newOwner`). Can only be called by the current owner."
      }
    },
    "title": "SchemaTablelandIndexer",
    "version": 1
  },
  "userdoc": {
    "errors": {
      "ChainNotSupported(uint256)": [
        {
          "notice": "Current chain does not have a TablelandTables deployment."
        }
      ]
    },
    "kind": "user",
    "methods": {},
    "version": 1
  },
  "storageLayout": {
    "storage": [
      {
        "astId": 396,
        "contract": "contracts/tablelandIndexers/SchemaTablelandIndexer.sol:SchemaTablelandIndexer",
        "label": "_owner",
        "offset": 0,
        "slot": "0",
        "type": "t_address"
      },
      {
        "astId": 11139,
        "contract": "contracts/tablelandIndexers/SchemaTablelandIndexer.sol:SchemaTablelandIndexer",
        "label": "tablelandContract",
        "offset": 0,
        "slot": "1",
        "type": "t_contract(ITablelandTables)4963"
      },
      {
        "astId": 11142,
        "contract": "contracts/tablelandIndexers/SchemaTablelandIndexer.sol:SchemaTablelandIndexer",
        "label": "createTableStatements",
        "offset": 0,
        "slot": "2",
        "type": "t_array(t_string_storage)dyn_storage"
      },
      {
        "astId": 11145,
        "contract": "contracts/tablelandIndexers/SchemaTablelandIndexer.sol:SchemaTablelandIndexer",
        "label": "tables",
        "offset": 0,
        "slot": "3",
        "type": "t_array(t_string_storage)dyn_storage"
      },
      {
        "astId": 11147,
        "contract": "contracts/tablelandIndexers/SchemaTablelandIndexer.sol:SchemaTablelandIndexer",
        "label": "tablesUpdates",
        "offset": 0,
        "slot": "4",
        "type": "t_uint256"
      },
      {
        "astId": 11149,
        "contract": "contracts/tablelandIndexers/SchemaTablelandIndexer.sol:SchemaTablelandIndexer",
        "label": "tableRowsCounter",
        "offset": 0,
        "slot": "5",
        "type": "t_uint256"
      },
      {
        "astId": 11152,
        "contract": "contracts/tablelandIndexers/SchemaTablelandIndexer.sol:SchemaTablelandIndexer",
        "label": "tableIDs",
        "offset": 0,
        "slot": "6",
        "type": "t_array(t_uint256)dyn_storage"
      }
    ],
    "types": {
      "t_address": {
        "encoding": "inplace",
        "label": "address",
        "numberOfBytes": "20"
      },
      "t_array(t_string_storage)dyn_storage": {
        "base": "t_string_storage",
        "encoding": "dynamic_array",
        "label": "string[]",
        "numberOfBytes": "32"
      },
      "t_array(t_uint256)dyn_storage": {
        "base": "t_uint256",
        "encoding": "dynamic_array",
        "label": "uint256[]",
        "numberOfBytes": "32"
      },
      "t_contract(ITablelandTables)4963": {
        "encoding": "inplace",
        "label": "contract ITablelandTables",
        "numberOfBytes": "20"
      },
      "t_string_storage": {
        "encoding": "bytes",
        "label": "string",
        "numberOfBytes": "32"
      },
      "t_uint256": {
        "encoding": "inplace",
        "label": "uint256",
        "numberOfBytes": "32"
      }
    }
  }
}