{
  "address": "0xbD1679Cbc71a27e1B68CCaB283218ab18eA0E602",
  "abi": [
    {
      "inputs": [
        {
          "internalType": "address",
          "name": "_implementationAddress",
          "type": "address"
        }
      ],
      "stateMutability": "nonpayable",
      "type": "constructor"
    },
    {
      "anonymous": false,
      "inputs": [
        {
          "indexed": true,
          "internalType": "address",
          "name": "previousOwner",
          "type": "address"
        },
        {
          "indexed": true,
          "internalType": "address",
          "name": "newOwner",
          "type": "address"
        }
      ],
      "name": "OwnershipTransferred",
      "type": "event"
    },
    {
      "inputs": [
        {
          "internalType": "address",
          "name": "_implementationAddress",
          "type": "address"
        }
      ],
      "name": "changeImplementations",
      "outputs": [],
      "stateMutability": "nonpayable",
      "type": "function"
    },
    {
      "inputs": [
        {
          "internalType": "address[]",
          "name": "payees",
          "type": "address[]"
        },
        {
          "internalType": "uint256[]",
          "name": "shares",
          "type": "uint256[]"
        }
      ],
      "name": "createSplitter",
      "outputs": [
        {
          "internalType": "address",
          "name": "splitterClone",
          "type": "address"
        }
      ],
      "stateMutability": "nonpayable",
      "type": "function"
    },
    {
      "inputs": [],
      "name": "implementationAddress",
      "outputs": [
        {
          "internalType": "address",
          "name": "",
          "type": "address"
        }
      ],
      "stateMutability": "view",
      "type": "function"
    },
    {
      "inputs": [],
      "name": "owner",
      "outputs": [
        {
          "internalType": "address",
          "name": "",
          "type": "address"
        }
      ],
      "stateMutability": "view",
      "type": "function"
    },
    {
      "inputs": [],
      "name": "renounceOwnership",
      "outputs": [],
      "stateMutability": "nonpayable",
      "type": "function"
    },
    {
      "inputs": [
        {
          "internalType": "address",
          "name": "newOwner",
          "type": "address"
        }
      ],
      "name": "transferOwnership",
      "outputs": [],
      "stateMutability": "nonpayable",
      "type": "function"
    }
  ],
  "transactionHash": "0xc027b06f7d45e7cf8ab3e673cc7f895c49e4a121080bdfb7a0f30223b279e6c0",
  "args": [
    "0x260569B16d454D793AbA239E35A8e561892B457B"
  ],
  "numDeployments": 1,
  "solcInputHash": "cd19f94aa2ec7d4942f920993b8750f6",
  "bytecode": "0x608060405234801561001057600080fd5b5060405161097738038061097783398101604081905261002f916100ad565b6100383361005d565b600180546001600160a01b0319166001600160a01b03929092169190911790556100dd565b600080546001600160a01b038381166001600160a01b0319831681178455604051919092169283917f8be0079c531659141344cd1fd0a4f28419497f9722a3daafe3b4186f6b6457e09190a35050565b6000602082840312156100bf57600080fd5b81516001600160a01b03811681146100d657600080fd5b9392505050565b61088b806100ec6000396000f3fe608060405234801561001057600080fd5b50600436106100725760003560e01c8063b97a231911610050578063b97a2319146100d7578063f2fde38b146100f7578063f7c25fe21461010a57600080fd5b8063179dd61614610077578063715018a61461008c5780638da5cb5b14610094575b600080fd5b61008a6100853660046105a6565b61011d565b005b61008a61016c565b60005473ffffffffffffffffffffffffffffffffffffffff165b60405173ffffffffffffffffffffffffffffffffffffffff909116815260200160405180910390f35b6001546100ae9073ffffffffffffffffffffffffffffffffffffffff1681565b61008a6101053660046105a6565b610180565b6100ae6101183660046106d5565b61023c565b6101256103c4565b600180547fffffffffffffffffffffffff00000000000000000000000000000000000000001673ffffffffffffffffffffffffffffffffffffffff92909216919091179055565b6101746103c4565b61017e6000610445565b565b6101886103c4565b73ffffffffffffffffffffffffffffffffffffffff8116610230576040517f08c379a000000000000000000000000000000000000000000000000000000000815260206004820152602660248201527f4f776e61626c653a206e6577206f776e657220697320746865207a65726f206160448201527f646472657373000000000000000000000000000000000000000000000000000060648201526084015b60405180910390fd5b61023981610445565b50565b6001546000906102619073ffffffffffffffffffffffffffffffffffffffff166104ba565b905060008173ffffffffffffffffffffffffffffffffffffffff16848460405160240161028f929190610795565b604080517fffffffffffffffffffffffffffffffffffffffffffffffffffffffffffffffe08184030181529181526020820180517bffffffffffffffffffffffffffffffffffffffffffffffffffffffff167f7fbbe46f00000000000000000000000000000000000000000000000000000000179052516103109190610826565b6000604051808303816000865af19150503d806000811461034d576040519150601f19603f3d011682016040523d82523d6000602084013e610352565b606091505b50509050806103bd576040517f08c379a000000000000000000000000000000000000000000000000000000000815260206004820152600f60248201527f6572726f72206465706c6f79696e6700000000000000000000000000000000006044820152606401610227565b5092915050565b60005473ffffffffffffffffffffffffffffffffffffffff16331461017e576040517f08c379a000000000000000000000000000000000000000000000000000000000815260206004820181905260248201527f4f776e61626c653a2063616c6c6572206973206e6f7420746865206f776e65726044820152606401610227565b6000805473ffffffffffffffffffffffffffffffffffffffff8381167fffffffffffffffffffffffff0000000000000000000000000000000000000000831681178455604051919092169283917f8be0079c531659141344cd1fd0a4f28419497f9722a3daafe3b4186f6b6457e09190a35050565b6000763d602d80600a3d3981f3363d3d373d3d3d363d730000008260601b60e81c176000526e5af43d82803e903d91602b57fd5bf38260781b17602052603760096000f0905073ffffffffffffffffffffffffffffffffffffffff811661057d576040517f08c379a000000000000000000000000000000000000000000000000000000000815260206004820152601660248201527f455243313136373a20637265617465206661696c6564000000000000000000006044820152606401610227565b919050565b803573ffffffffffffffffffffffffffffffffffffffff8116811461057d57600080fd5b6000602082840312156105b857600080fd5b6105c182610582565b9392505050565b7f4e487b7100000000000000000000000000000000000000000000000000000000600052604160045260246000fd5b604051601f82017fffffffffffffffffffffffffffffffffffffffffffffffffffffffffffffffe016810167ffffffffffffffff8111828210171561063e5761063e6105c8565b604052919050565b600067ffffffffffffffff821115610660576106606105c8565b5060051b60200190565b600082601f83011261067b57600080fd5b8135602061069061068b83610646565b6105f7565b82815260059290921b840181019181810190868411156106af57600080fd5b8286015b848110156106ca57803583529183019183016106b3565b509695505050505050565b600080604083850312156106e857600080fd5b823567ffffffffffffffff8082111561070057600080fd5b818501915085601f83011261071457600080fd5b8135602061072461068b83610646565b82815260059290921b8401810191818101908984111561074357600080fd5b948201945b838610156107685761075986610582565b82529482019490820190610748565b9650508601359250508082111561077e57600080fd5b5061078b8582860161066a565b9150509250929050565b604080825283519082018190526000906020906060840190828701845b828110156107e457815173ffffffffffffffffffffffffffffffffffffffff16845292840192908401906001016107b2565b5050508381038285015284518082528583019183019060005b81811015610819578351835292840192918401916001016107fd565b5090979650505050505050565b6000825160005b81811015610847576020818601810151858301520161082d565b50600092019182525091905056fea264697066735822122060487657e9eab5667309e7e9a38fc1908fdbf919651c0e386ad8424a910d5a3164736f6c63430008130033",
  "devdoc": {
    "kind": "dev",
    "methods": {
      "owner()": {
        "details": "Returns the address of the current owner."
      },
      "renounceOwnership()": {
        "details": "Leaves the contract without owner. It will not be possible to call `onlyOwner` functions. Can only be called by the current owner. NOTE: Renouncing ownership will leave the contract without an owner, thereby disabling any functionality that is only available to the owner."
      },
      "transferOwnership(address)": {
        "details": "Transfers ownership of the contract to a new account (`newOwner`). Can only be called by the current owner."
      }
    },
    "version": 1
  },
  "userdoc": {
    "kind": "user",
    "methods": {},
    "version": 1
  },
  "storageLayout": {
    "storage": [
      {
        "astId": 396,
        "contract": "contracts/splitter/SplitterFactory.sol:SplitterFactory",
        "label": "_owner",
        "offset": 0,
        "slot": "0",
        "type": "t_address"
      },
      {
        "astId": 12430,
        "contract": "contracts/splitter/SplitterFactory.sol:SplitterFactory",
        "label": "implementationAddress",
        "offset": 0,
        "slot": "1",
        "type": "t_address"
      }
    ],
    "types": {
      "t_address": {
        "encoding": "inplace",
        "label": "address",
        "numberOfBytes": "20"
      }
    }
  }
}