{
  "address": "0x65FEf1033f1563517772D61AF5518461ECdB9619",
  "abi": [
    {
      "inputs": [
        {
          "internalType": "address",
          "name": "_implementationAddress",
          "type": "address"
        }
      ],
      "stateMutability": "nonpayable",
      "type": "constructor"
    },
    {
      "anonymous": false,
      "inputs": [
        {
          "indexed": true,
          "internalType": "address",
          "name": "previousOwner",
          "type": "address"
        },
        {
          "indexed": true,
          "internalType": "address",
          "name": "newOwner",
          "type": "address"
        }
      ],
      "name": "OwnershipTransferred",
      "type": "event"
    },
    {
      "inputs": [
        {
          "internalType": "address",
          "name": "_implementationAddress",
          "type": "address"
        }
      ],
      "name": "changeImplementations",
      "outputs": [],
      "stateMutability": "nonpayable",
      "type": "function"
    },
    {
      "inputs": [
        {
          "internalType": "address[]",
          "name": "payees",
          "type": "address[]"
        },
        {
          "internalType": "uint256[]",
          "name": "shares",
          "type": "uint256[]"
        }
      ],
      "name": "createSplitter",
      "outputs": [
        {
          "internalType": "address",
          "name": "splitterClone",
          "type": "address"
        }
      ],
      "stateMutability": "nonpayable",
      "type": "function"
    },
    {
      "inputs": [],
      "name": "implementationAddress",
      "outputs": [
        {
          "internalType": "address",
          "name": "",
          "type": "address"
        }
      ],
      "stateMutability": "view",
      "type": "function"
    },
    {
      "inputs": [],
      "name": "owner",
      "outputs": [
        {
          "internalType": "address",
          "name": "",
          "type": "address"
        }
      ],
      "stateMutability": "view",
      "type": "function"
    },
    {
      "inputs": [],
      "name": "renounceOwnership",
      "outputs": [],
      "stateMutability": "nonpayable",
      "type": "function"
    },
    {
      "inputs": [
        {
          "internalType": "address",
          "name": "newOwner",
          "type": "address"
        }
      ],
      "name": "transferOwnership",
      "outputs": [],
      "stateMutability": "nonpayable",
      "type": "function"
    }
  ],
  "transactionHash": "0x73c23afaa38ccb77d6624974852d1ee87159d175e0f0a6d273f9c757d3458849",
  "args": [
    "0x3c58DA5da7f931e6D31b0dbFEAD4Fe14bCc1614d"
  ],
  "numDeployments": 1,
  "solcInputHash": "602eda1bdb9961fd18cad8476bd6baf8",
  "bytecode": "0x608060405234801561001057600080fd5b5060405161091338038061091383398101604081905261002f916100e2565b6100383361005d565b600180546001600160a01b0319166001600160a01b039290921691909117905561010b565b600080546001600160a01b038381166001600160a01b0319831681178455604051919092169283917f8be0079c531659141344cd1fd0a4f28419497f9722a3daafe3b4186f6b6457e09190a35050565b60006001600160a01b0382165b92915050565b6100c9816100ad565b81146100d457600080fd5b50565b80516100ba816100c0565b6000602082840312156100f7576100f7600080fd5b600061010384846100d7565b949350505050565b6107f98061011a6000396000f3fe608060405234801561001057600080fd5b50600436106100625760003560e01c8063179dd61614610067578063715018a61461007c5780638da5cb5b14610084578063b97a2319146100a7578063f2fde38b146100ba578063f7c25fe2146100cd575b600080fd5b61007a610075366004610356565b6100e0565b005b61007a61010a565b6000546001600160a01b03165b60405161009e919061038e565b60405180910390f35b600154610091906001600160a01b031681565b61007a6100c8366004610356565b61011e565b6100916100db366004610524565b610161565b6100e8610239565b600180546001600160a01b0319166001600160a01b0392909216919091179055565b610112610239565b61011c6000610263565b565b610126610239565b6001600160a01b0381166101555760405162461bcd60e51b815260040161014c90610596565b60405180910390fd5b61015e81610263565b50565b600154600090610179906001600160a01b03166102b3565b90506000816001600160a01b0316848460405160240161019a92919061068d565b60408051601f198184030181529181526020820180516001600160e01b0316637fbbe46f60e01b179052516101cf91906106f8565b6000604051808303816000865af19150503d806000811461020c576040519150601f19603f3d011682016040523d82523d6000602084013e610211565b606091505b50509050806102325760405162461bcd60e51b815260040161014c90610734565b5092915050565b6000546001600160a01b0316331461011c5760405162461bcd60e51b815260040161014c90610776565b600080546001600160a01b038381166001600160a01b0319831681178455604051919092169283917f8be0079c531659141344cd1fd0a4f28419497f9722a3daafe3b4186f6b6457e09190a35050565b6000763d602d80600a3d3981f3363d3d373d3d3d363d730000008260601b60e81c176000526e5af43d82803e903d91602b57fd5bf38260781b17602052603760096000f090506001600160a01b03811661031f5760405162461bcd60e51b815260040161014c906107b3565b919050565b60006001600160a01b0382165b92915050565b61034081610324565b811461015e57600080fd5b803561033181610337565b60006020828403121561036b5761036b600080fd5b6000610377848461034b565b949350505050565b61038881610324565b82525050565b60208101610331828461037f565b634e487b7160e01b600052604160045260246000fd5b601f19601f830116810181811067ffffffffffffffff821117156103d8576103d861039c565b6040525050565b60006103ea60405190565b905061031f82826103b2565b600067ffffffffffffffff8211156104105761041061039c565b5060209081020190565b600061042d610428846103f6565b6103df565b8381529050602080820190840283018581111561044c5761044c600080fd5b835b818110156104705780610461888261034b565b8452506020928301920161044e565b5050509392505050565b600082601f83011261048e5761048e600080fd5b813561037784826020860161041a565b80610340565b80356103318161049e565b60006104bd610428846103f6565b838152905060208082019084028301858111156104dc576104dc600080fd5b835b8181101561047057806104f188826104a4565b845250602092830192016104de565b600082601f83011261051457610514600080fd5b81356103778482602086016104af565b6000806040838503121561053a5761053a600080fd5b823567ffffffffffffffff81111561055457610554600080fd5b6105608582860161047a565b925050602083013567ffffffffffffffff81111561058057610580600080fd5b61058c85828601610500565b9150509250929050565b6020808252810161033181602681527f4f776e61626c653a206e6577206f776e657220697320746865207a65726f206160208201526564647265737360d01b604082015260600190565b60006105ec838361037f565b505060200190565b60006105fe825190565b80845260209384019383018060005b8381101561063257815161062188826105e0565b97506020830192505060010161060d565b509495945050505050565b80610388565b60006105ec838361063d565b6000610659825190565b80845260209384019383018060005b8381101561063257815161067c8882610643565b975060208301925050600101610668565b6040808252810161069e81856105f4565b90508181036020830152610377818461064f565b60005b838110156106cd5781810151838201526020016106b5565b50506000910152565b60006106e0825190565b6106ee8185602086016106b2565b9290920192915050565b600061070482846106d6565b9392505050565b600f81526000602082016e6572726f72206465706c6f79696e6760881b815291505b5060200190565b602080825281016103318161070b565b60208082527f4f776e61626c653a2063616c6c6572206973206e6f7420746865206f776e65729101908152600061072d565b6020808252810161033181610744565b6016815260006020820175115490cc4c4d8dce8818dc99585d194819985a5b195960521b8152915061072d565b602080825281016103318161078656fea26469706673582212208f5bdabe830b32b64c5a5e1a32567401c1c7a31d1e9b32c8ee7b7435c9a111b664736f6c63430008130033",
  "devdoc": {
    "kind": "dev",
    "methods": {
      "owner()": {
        "details": "Returns the address of the current owner."
      },
      "renounceOwnership()": {
        "details": "Leaves the contract without owner. It will not be possible to call `onlyOwner` functions. Can only be called by the current owner. NOTE: Renouncing ownership will leave the contract without an owner, thereby disabling any functionality that is only available to the owner."
      },
      "transferOwnership(address)": {
        "details": "Transfers ownership of the contract to a new account (`newOwner`). Can only be called by the current owner."
      }
    },
    "version": 1
  },
  "userdoc": {
    "kind": "user",
    "methods": {},
    "version": 1
  },
  "storageLayout": {
    "storage": [
      {
        "astId": 396,
        "contract": "contracts/SubscriptionSplitter/SplitterFactory.sol:SplitterFactory",
        "label": "_owner",
        "offset": 0,
        "slot": "0",
        "type": "t_address"
      },
      {
        "astId": 6563,
        "contract": "contracts/SubscriptionSplitter/SplitterFactory.sol:SplitterFactory",
        "label": "implementationAddress",
        "offset": 0,
        "slot": "1",
        "type": "t_address"
      }
    ],
    "types": {
      "t_address": {
        "encoding": "inplace",
        "label": "address",
        "numberOfBytes": "20"
      }
    }
  }
}