{
  "address": "0x335B3Ba45163b71DEbF8fEc7AD21a053754bF0bd",
  "abi": [
    {
      "inputs": [],
      "stateMutability": "nonpayable",
      "type": "constructor"
    },
    {
      "inputs": [
        {
          "internalType": "uint256",
          "name": "chainid",
          "type": "uint256"
        }
      ],
      "name": "ChainNotSupported",
      "type": "error"
    },
    {
      "anonymous": false,
      "inputs": [
        {
          "indexed": true,
          "internalType": "address",
          "name": "previousOwner",
          "type": "address"
        },
        {
          "indexed": true,
          "internalType": "address",
          "name": "newOwner",
          "type": "address"
        }
      ],
      "name": "OwnershipTransferred",
      "type": "event"
    },
    {
      "inputs": [
        {
          "internalType": "bytes32",
          "name": "schemaUID",
          "type": "bytes32"
        },
        {
          "internalType": "address[]",
          "name": "contentCreators",
          "type": "address[]"
        },
        {
          "internalType": "uint256[]",
          "name": "creatorsShares",
          "type": "uint256[]"
        }
      ],
      "name": "SchemaAdminsInserted",
      "outputs": [],
      "stateMutability": "nonpayable",
      "type": "function"
    },
    {
      "inputs": [
        {
          "internalType": "bytes32",
          "name": "schemaUID",
          "type": "bytes32"
        },
        {
          "internalType": "uint256",
          "name": "monthlySubscriptionPrice",
          "type": "uint256"
        },
        {
          "internalType": "address",
          "name": "splitterContract",
          "type": "address"
        }
      ],
      "name": "SchemaInfoInserted",
      "outputs": [],
      "stateMutability": "nonpayable",
      "type": "function"
    },
    {
      "inputs": [
        {
          "internalType": "bytes32",
          "name": "schemaUID",
          "type": "bytes32"
        },
        {
          "internalType": "uint256",
          "name": "newPrice",
          "type": "uint256"
        }
      ],
      "name": "SchemaPriceUpdated",
      "outputs": [],
      "stateMutability": "nonpayable",
      "type": "function"
    },
    {
      "inputs": [
        {
          "internalType": "bytes32",
          "name": "schemaUID",
          "type": "bytes32"
        }
      ],
      "name": "SchemaRevenueRecordCreated",
      "outputs": [],
      "stateMutability": "nonpayable",
      "type": "function"
    },
    {
      "inputs": [
        {
          "internalType": "bytes32",
          "name": "schemaUID",
          "type": "bytes32"
        },
        {
          "internalType": "uint256",
          "name": "totalClaimed",
          "type": "uint256"
        }
      ],
      "name": "SchemaRevenueUpdated",
      "outputs": [],
      "stateMutability": "nonpayable",
      "type": "function"
    },
    {
      "inputs": [
        {
          "internalType": "bytes32",
          "name": "schemaUID",
          "type": "bytes32"
        },
        {
          "internalType": "address",
          "name": "subscriber",
          "type": "address"
        },
        {
          "internalType": "uint256",
          "name": "subscriptionEndsAt",
          "type": "uint256"
        }
      ],
      "name": "SchemaSubscriptionCreated",
      "outputs": [],
      "stateMutability": "nonpayable",
      "type": "function"
    },
    {
      "inputs": [
        {
          "internalType": "bytes32",
          "name": "schemaUID",
          "type": "bytes32"
        },
        {
          "internalType": "address",
          "name": "subscriber",
          "type": "address"
        },
        {
          "internalType": "uint256",
          "name": "subscriptionEndsAt",
          "type": "uint256"
        }
      ],
      "name": "SchemaSubscriptionUpdated",
      "outputs": [],
      "stateMutability": "nonpayable",
      "type": "function"
    },
    {
      "inputs": [
        {
          "internalType": "bytes32",
          "name": "data",
          "type": "bytes32"
        }
      ],
      "name": "bytes32ToString",
      "outputs": [
        {
          "internalType": "string",
          "name": "",
          "type": "string"
        }
      ],
      "stateMutability": "pure",
      "type": "function"
    },
    {
      "inputs": [
        {
          "internalType": "address",
          "name": "",
          "type": "address"
        },
        {
          "internalType": "address",
          "name": "",
          "type": "address"
        },
        {
          "internalType": "uint256",
          "name": "",
          "type": "uint256"
        },
        {
          "internalType": "bytes",
          "name": "",
          "type": "bytes"
        }
      ],
      "name": "onERC721Received",
      "outputs": [
        {
          "internalType": "bytes4",
          "name": "",
          "type": "bytes4"
        }
      ],
      "stateMutability": "pure",
      "type": "function"
    },
    {
      "inputs": [],
      "name": "owner",
      "outputs": [
        {
          "internalType": "address",
          "name": "",
          "type": "address"
        }
      ],
      "stateMutability": "view",
      "type": "function"
    },
    {
      "inputs": [],
      "name": "renounceOwnership",
      "outputs": [],
      "stateMutability": "nonpayable",
      "type": "function"
    },
    {
      "inputs": [
        {
          "internalType": "uint256",
          "name": "",
          "type": "uint256"
        }
      ],
      "name": "tables",
      "outputs": [
        {
          "internalType": "string",
          "name": "",
          "type": "string"
        }
      ],
      "stateMutability": "view",
      "type": "function"
    },
    {
      "inputs": [
        {
          "internalType": "address",
          "name": "newOwner",
          "type": "address"
        }
      ],
      "name": "transferOwnership",
      "outputs": [],
      "stateMutability": "nonpayable",
      "type": "function"
    }
  ],
  "transactionHash": "0xcf13fc52ef6f2c4d8be8333a64e2646230ec64d1e56127cc8054507fb8fb3959",
  "args": [],
  "numDeployments": 2,
  "solcInputHash": "d31e9c73c386cbc44453233e1ac13d42",
  "bytecode": "0x60806040523480156200001157600080fd5b506200001d3362000422565b6200002762000472565b600160006101000a8154816001600160a01b0302191690836001600160a01b0316021790555060026200008f6040518060800160405280605081526020016200317960509139604080518082019091526005815264067726f75760dc1b602082015262000635565b81546001810183556000928352602090922090910190620000b190826200092b565b506002620000f66040518060600160405280602a81526020016200314f602a913960408051808201909152600781526631b932b0ba37b960c91b602082015262000635565b815460018101835560009283526020909220909101906200011890826200092b565b50600262000162604051806060016040528060388152602001620031c96038913960408051808201909152600c81526b39bab139b1b934b83a34b7b760a11b602082015262000635565b815460018101835560009283526020909220909101906200018490826200092b565b506002620001c96040518060600160405280602d815260200162003201602d9139604080518082019091526007815266726576656e756560c81b602082015262000635565b81546001810183556000928352602090922090910190620001eb90826200092b565b506001546040516361a23d0f60e01b81526001600160a01b03909116906361a23d0f9062000221903090600290600401620009f7565b6000604051808303816000875af115801562000241573d6000803e3d6000fd5b505050506040513d6000823e601f3d908101601f191682016040526200026b919081019062000adf565b805162000281916004916020909101906200081f565b506003620002d460405180604001604052806005815260200164067726f75760dc1b8152506004600081548110620002bd57620002bd62000ba8565b90600052602060002001546200066f60201b60201c565b81546001810183556000928352602090922090910190620002f690826200092b565b506003620003346040518060400160405280600781526020016631b932b0ba37b960c91b8152506004600181548110620002bd57620002bd62000ba8565b815460018101835560009283526020909220909101906200035690826200092b565b506003620003996040518060400160405280600c81526020016b39bab139b1b934b83a34b7b760a11b8152506004600281548110620002bd57620002bd62000ba8565b81546001810183556000928352602090922090910190620003bb90826200092b565b506003620003f960405180604001604052806007815260200166726576656e756560c81b8152506004600381548110620002bd57620002bd62000ba8565b815460018101835560009283526020909220909101906200041b90826200092b565b5062000c99565b600080546001600160a01b038381166001600160a01b0319831681178455604051919092169283917f8be0079c531659141344cd1fd0a4f28419497f9722a3daafe3b4186f6b6457e09190a35050565b60004660010362000496575073012969f7e3439a9b04025b5a049eb9bad82a8c1290565b46600a03620004b8575073fad44bf5b843de943a09d4f3e84949a11d3aa3e690565b4661a4b103620004db5750739abd75e8640871a5a20d3b4ee6330a04c962affd90565b4661a4ba03620004fe5750731a22854c5b1642760a827f20137a67930ae108d290565b46608903620005205750735c4e6a9e5c1e1bf445a062006faf19ea6c49afea90565b4661013a036200054357507359ef8bf2d6c102b4c42aef9189e1a9f0abfd652d90565b4660050362000565575073da8ea22d092307874f30a1f277d1388dca0ba97a90565b466101a40362000588575073c72e8a7be04f2469f8c2db3f1bdf69a7d516abba90565b4662066eed03620005ac575073033f69e8d119205089ab15d340f5b797732f646b90565b466201388103620005d05750734b48841d4b32c4650e4abc117a03fe8b51f38f6890565b46610c4503620005f35750730b9737ab4b3e5303cb67db031b509697e31c02d390565b46617a690362000616575073e7f1725e7734ce288f8367e1bb143e90bb3f051290565b60405163264e42cf60e01b815246600482015260240160405180910390fd5b60608162000643466200069c565b84604051602001620006589392919062000bf0565b604051602081830303815290604052905092915050565b6060826200067d466200069c565b62000688846200069c565b604051602001620006589392919062000c56565b60606000620006ab8362000735565b60010190506000816001600160401b03811115620006cd57620006cd62000886565b6040519080825280601f01601f191660200182016040528015620006f8576020820181803683370190505b5090508181016020015b600019016f181899199a1a9b1b9c1cb0b131b232b360811b600a86061a8153600a85049450846200070257509392505050565b6000807a184f03e93ff9f4daa797ed6e38ed64bf6a1f01000000000000000083106200077f577a184f03e93ff9f4daa797ed6e38ed64bf6a1f010000000000000000830492506040015b6d04ee2d6d415b85acef81000000008310620007ac576d04ee2d6d415b85acef8100000000830492506020015b662386f26fc100008310620007cb57662386f26fc10000830492506010015b6305f5e1008310620007e4576305f5e100830492506008015b6127108310620007f957612710830492506004015b606483106200080c576064830492506002015b600a831062000819576001015b92915050565b8280548282559060005260206000209081019282156200085d579160200282015b828111156200085d57825182559160200191906001019062000840565b506200086b9291506200086f565b5090565b5b808211156200086b576000815560010162000870565b634e487b7160e01b600052604160045260246000fd5b600181811c90821680620008b157607f821691505b602082108103620008d257634e487b7160e01b600052602260045260246000fd5b50919050565b601f8211156200092657600081815260208120601f850160051c81016020861015620009015750805b601f850160051c820191505b8181101562000922578281556001016200090d565b5050505b505050565b81516001600160401b0381111562000947576200094762000886565b6200095f816200095884546200089c565b84620008d8565b602080601f8311600181146200099757600084156200097e5750858301515b600019600386901b1c1916600185901b17855562000922565b600085815260208120601f198616915b82811015620009c857888601518255948401946001909101908401620009a7565b5085821015620009e75787850151600019600388901b60f8161c191681555b5050505050600190811b01905550565b60006040820160018060a01b0385168352602060408185015281855480845260608601915060059350606081851b8701016000888152848120815b8481101562000acf57605f198a850301865282825462000a52816200089c565b8087526001828116801562000a70576001811462000a8a5762000ab7565b60ff198416898d01528215158d1b89018c01945062000ab7565b8688528b8820885b8481101562000aaf5781548b82018f0152908301908d0162000a92565b8a018d019550505b50988a01989296505050919091019060010162000a32565b50919a9950505050505050505050565b6000602080838503121562000af357600080fd5b82516001600160401b038082111562000b0b57600080fd5b818501915085601f83011262000b2057600080fd5b81518181111562000b355762000b3562000886565b8060051b604051601f19603f8301168101818110858211171562000b5d5762000b5d62000886565b60405291825284820192508381018501918883111562000b7c57600080fd5b938501935b8285101562000b9c5784518452938501939285019262000b81565b98975050505050505050565b634e487b7160e01b600052603260045260246000fd5b6000815160005b8181101562000be1576020818501810151868301520162000bc5565b50600093019283525090919050565b6c021a922a0aa22902a20a126229609d1b8152600062000c14600d83018662000bbe565b605f60f81b815262000c2a600182018662000bbe565b9050600560fb1b815262000c42600182018562000bbe565b602960f81b81526001019695505050505050565b600062000c64828662000bbe565b605f60f81b80825262000c7b600183018762000bbe565b908152905062000c8f600182018562000bbe565b9695505050505050565b6124a68062000ca96000396000f3fe608060405234801561001057600080fd5b50600436106100df5760003560e01c80637e6c78bd1161008c5780639201de55116100665780639201de5514610203578063d2ea9ad014610216578063f2fde38b14610229578063f398db321461023c57600080fd5b80637e6c78bd146101b55780638d879e6d146101c85780638da5cb5b146101db57600080fd5b80636e385518116100bd5780636e3855181461017a578063715018a61461018d57806371671bf21461019557600080fd5b8063150b7a02146100e45780631aa7cbe6146101525780632e324b1014610167575b600080fd5b61011c6100f236600461163e565b7f150b7a020000000000000000000000000000000000000000000000000000000095945050505050565b6040517fffffffff0000000000000000000000000000000000000000000000000000000090911681526020015b60405180910390f35b6101656101603660046116d9565b61024f565b005b6101656101753660046116fb565b61033a565b610165610188366004611730565b610424565b610165610511565b6101a86101a3366004611765565b610525565b60405161014991906117ec565b6101656101c336600461190c565b6105d1565b6101656101d63660046116d9565b610703565b60005460405173ffffffffffffffffffffffffffffffffffffffff9091168152602001610149565b6101a8610211366004611765565b6107a1565b6101656102243660046116fb565b6109c7565b6101656102373660046119d7565b610a9d565b61016561024a366004611765565b610b59565b610257610c3c565b610336600460008154811061026e5761026e6119f2565b90600052602060002001546103316040518060400160405280600581526020017f67726f757000000000000000000000000000000000000000000000000000000081525060046000815481106102c6576102c66119f2565b90600052602060002001546102e26102dd87610cbd565b610d7b565b6040516020016102f29190611a21565b60405160208183030381529060405261030d6102dd896107a1565b60405160200161031d9190611a66565b604051602081830303815290604052610da4565b610e1f565b5050565b610342610c3c565b61041f6004600281548110610359576103596119f2565b90600052602060002001546103316040518060400160405280600c81526020017f737562736372697074696f6e000000000000000000000000000000000000000081525060046002815481106103b1576103b16119f2565b9060005260206000200154604051806060016040528060298152602001612413602991396103e16102dd8a6107a1565b6103ed6102dd8a610eaf565b6103f96102dd8a610cbd565b60405160200161040b93929190611aab565b604051602081830303815290604052610ed8565b505050565b61042c610c3c565b600654620186a00361044057610440610f17565b6104f76004600081548110610457576104576119f2565b90600052602060002001546103316040518060400160405280600581526020017f67726f757000000000000000000000000000000000000000000000000000000081525060046000815481106104af576104af6119f2565b906000526020600020015460405180606001604052806035815260200161243c603591396104df6102dd8a6107a1565b6104eb6102dd8a610cbd565b6103f96102dd8a610eaf565b6006805490600061050783611b50565b9190505550505050565b610519610c3c565b61052360006111d6565b565b6003818154811061053557600080fd5b90600052602060002001600091509050805461055090611b88565b80601f016020809104026020016040519081016040528092919081815260200182805461057c90611b88565b80156105c95780601f1061059e576101008083540402835291602001916105c9565b820191906000526020600020905b8154815290600101906020018083116105ac57829003601f168201915b505050505081565b6105d9610c3c565b60005b82518110156106fd576106eb60046001815481106105fc576105fc6119f2565b90600052602060002001546103316040518060400160405280600781526020017f63726561746f72000000000000000000000000000000000000000000000000008152506004600181548110610654576106546119f2565b90600052602060002001546040518060400160405280601b81526020017f736368656d615549442c2061747465737465722c2073686172657300000000008152506106a16102dd8b6107a1565b6106c66102dd8b8a815181106106b9576106b96119f2565b6020026020010151610eaf565b6103f96102dd8b8b815181106106de576106de6119f2565b6020026020010151610cbd565b806106f581611b50565b9150506105dc565b50505050565b61070b610c3c565b6103366004600381548110610722576107226119f2565b90600052602060002001546103316040518060400160405280600781526020017f726576656e756500000000000000000000000000000000000000000000000000815250600460038154811061077a5761077a6119f2565b90600052602060002001546107916102dd87610cbd565b6040516020016102f29190611bdb565b606060006107b160206002611c20565b60ff1667ffffffffffffffff8111156107cc576107cc6117ff565b6040519080825280601f01601f1916602001820160405280156107f6576020820181803683370190505b5060408051808201909152601081527f3031323334353637383961626364656600000000000000000000000000000000602082015290915060005b602081101561099d5781825186836020811061084f5761084f6119f2565b61085b9291901a611c72565b8151811061086b5761086b6119f2565b01602001517fff00000000000000000000000000000000000000000000000000000000000000168361089e836002611c86565b815181106108ae576108ae6119f2565b60200101907effffffffffffffffffffffffffffffffffffffffffffffffffffffffffffff1916908160001a9053508182518683602081106108f2576108f26119f2565b6108fe9291901a611c9d565b8151811061090e5761090e6119f2565b01602001517fff000000000000000000000000000000000000000000000000000000000000001683610941836002611c86565b61094c906001611cb1565b8151811061095c5761095c6119f2565b60200101907effffffffffffffffffffffffffffffffffffffffffffffffffffffffffffff1916908160001a9053508061099581611b50565b915050610831565b50816040516020016109af9190611cc4565b60405160208183030381529060405292505050919050565b6109cf610c3c565b61041f60046002815481106109e6576109e66119f2565b90600052602060002001546103316040518060400160405280600c81526020017f737562736372697074696f6e00000000000000000000000000000000000000008152506004600281548110610a3e57610a3e6119f2565b9060005260206000200154610a556102dd87610cbd565b604051602001610a659190611d09565b604051602081830303815290604052610a806102dd89610eaf565b610a8c6102dd8b6107a1565b60405160200161031d929190611d4e565b610aa5610c3c565b73ffffffffffffffffffffffffffffffffffffffff8116610b4d576040517f08c379a000000000000000000000000000000000000000000000000000000000815260206004820152602660248201527f4f776e61626c653a206e6577206f776e657220697320746865207a65726f206160448201527f646472657373000000000000000000000000000000000000000000000000000060648201526084015b60405180910390fd5b610b56816111d6565b50565b610b61610c3c565b60006103366004600381548110610b7a57610b7a6119f2565b90600052602060002001546103316040518060400160405280600781526020017f726576656e7565000000000000000000000000000000000000000000000000008152506004600381548110610bd257610bd26119f2565b90600052602060002001546040518060400160405280601781526020017f736368656d615549442c20746f74616c436c61696d6564000000000000000000815250610c1f6102dd896107a1565b610c2b6102dd89610cbd565b60405160200161040b929190611dcf565b60005473ffffffffffffffffffffffffffffffffffffffff163314610523576040517f08c379a000000000000000000000000000000000000000000000000000000000815260206004820181905260248201527f4f776e61626c653a2063616c6c6572206973206e6f7420746865206f776e65726044820152606401610b44565b60606000610cca8361124b565b600101905060008167ffffffffffffffff811115610cea57610cea6117ff565b6040519080825280601f01601f191660200182016040528015610d14576020820181803683370190505b5090508181016020015b7fffffffffffffffffffffffffffffffffffffffffffffffffffffffffffffffff017f3031323334353637383961626364656600000000000000000000000000000000600a86061a8153600a8504945084610d1e57509392505050565b606081604051602001610d8e9190611e27565b6040516020818303038152906040529050919050565b60606000610db2868661132d565b60408051602081019091526000815284519192509015610def5783604051602001610ddd9190611e71565b60405160208183030381529060405290505b818582604051602001610e0493929190611eb6565b60405160208183030381529060405292505050949350505050565b6001546040517f377af0da00000000000000000000000000000000000000000000000000000000815273ffffffffffffffffffffffffffffffffffffffff9091169063377af0da90610e7990309086908690600401611f4e565b600060405180830381600087803b158015610e9357600080fd5b505af1158015610ea7573d6000803e3d6000fd5b505050505050565b6060610ed273ffffffffffffffffffffffffffffffffffffffff8316601461136b565b92915050565b60606000610ee6868661132d565b9050808484604051602001610efd93929190611f8c565b604051602081830303815290604052915050949350505050565b6001546040517f61a23d0f00000000000000000000000000000000000000000000000000000000815273ffffffffffffffffffffffffffffffffffffffff909116906361a23d0f90610f70903090600290600401612076565b6000604051808303816000875af1158015610f8f573d6000803e3d6000fd5b505050506040513d6000823e601f3d9081017fffffffffffffffffffffffffffffffffffffffffffffffffffffffffffffffe0168201604052610fd5919081019061219e565b8051610fe9916004916020909101906115b5565b5060036110496040518060400160405280600581526020017f67726f75700000000000000000000000000000000000000000000000000000008152506004600081548110611039576110396119f2565b906000526020600020015461132d565b815460018101835560009283526020909220909101906110699082612275565b5060036110b96040518060400160405280600781526020017f63726561746f72000000000000000000000000000000000000000000000000008152506004600181548110611039576110396119f2565b815460018101835560009283526020909220909101906110d99082612275565b5060036111296040518060400160405280600c81526020017f737562736372697074696f6e00000000000000000000000000000000000000008152506004600281548110611039576110396119f2565b815460018101835560009283526020909220909101906111499082612275565b5060036111996040518060400160405280600781526020017f726576656e7565000000000000000000000000000000000000000000000000008152506004600381548110611039576110396119f2565b815460018101835560009283526020909220909101906111b99082612275565b506000600681905560058054916111cf83611b50565b9190505550565b6000805473ffffffffffffffffffffffffffffffffffffffff8381167fffffffffffffffffffffffff0000000000000000000000000000000000000000831681178455604051919092169283917f8be0079c531659141344cd1fd0a4f28419497f9722a3daafe3b4186f6b6457e09190a35050565b6000807a184f03e93ff9f4daa797ed6e38ed64bf6a1f0100000000000000008310611294577a184f03e93ff9f4daa797ed6e38ed64bf6a1f010000000000000000830492506040015b6d04ee2d6d415b85acef810000000083106112c0576d04ee2d6d415b85acef8100000000830492506020015b662386f26fc1000083106112de57662386f26fc10000830492506010015b6305f5e10083106112f6576305f5e100830492506008015b612710831061130a57612710830492506004015b6064831061131c576064830492506002015b600a8310610ed25760010192915050565b60608261133946610cbd565b61134284610cbd565b6040516020016113549392919061238f565b604051602081830303815290604052905092915050565b6060600061137a836002611c86565b611385906002611cb1565b67ffffffffffffffff81111561139d5761139d6117ff565b6040519080825280601f01601f1916602001820160405280156113c7576020820181803683370190505b5090507f3000000000000000000000000000000000000000000000000000000000000000816000815181106113fe576113fe6119f2565b60200101907effffffffffffffffffffffffffffffffffffffffffffffffffffffffffffff1916908160001a9053507f780000000000000000000000000000000000000000000000000000000000000081600181518110611461576114616119f2565b60200101907effffffffffffffffffffffffffffffffffffffffffffffffffffffffffffff1916908160001a905350600061149d846002611c86565b6114a8906001611cb1565b90505b6001811115611545577f303132333435363738396162636465660000000000000000000000000000000085600f16601081106114e9576114e96119f2565b1a60f81b8282815181106114ff576114ff6119f2565b60200101907effffffffffffffffffffffffffffffffffffffffffffffffffffffffffffff1916908160001a90535060049490941c9361153e816123dd565b90506114ab565b5083156115ae576040517f08c379a000000000000000000000000000000000000000000000000000000000815260206004820181905260248201527f537472696e67733a20686578206c656e67746820696e73756666696369656e746044820152606401610b44565b9392505050565b8280548282559060005260206000209081019282156115f0579160200282015b828111156115f05782518255916020019190600101906115d5565b506115fc929150611600565b5090565b5b808211156115fc5760008155600101611601565b803573ffffffffffffffffffffffffffffffffffffffff8116811461163957600080fd5b919050565b60008060008060006080868803121561165657600080fd5b61165f86611615565b945061166d60208701611615565b935060408601359250606086013567ffffffffffffffff8082111561169157600080fd5b818801915088601f8301126116a557600080fd5b8135818111156116b457600080fd5b8960208285010111156116c657600080fd5b9699959850939650602001949392505050565b600080604083850312156116ec57600080fd5b50508035926020909101359150565b60008060006060848603121561171057600080fd5b8335925061172060208501611615565b9150604084013590509250925092565b60008060006060848603121561174557600080fd5b833592506020840135915061175c60408501611615565b90509250925092565b60006020828403121561177757600080fd5b5035919050565b60005b83811015611799578181015183820152602001611781565b50506000910152565b600081518084526117ba81602086016020860161177e565b601f017fffffffffffffffffffffffffffffffffffffffffffffffffffffffffffffffe0169290920160200192915050565b6020815260006115ae60208301846117a2565b7f4e487b7100000000000000000000000000000000000000000000000000000000600052604160045260246000fd5b604051601f82017fffffffffffffffffffffffffffffffffffffffffffffffffffffffffffffffe016810167ffffffffffffffff81118282101715611875576118756117ff565b604052919050565b600067ffffffffffffffff821115611897576118976117ff565b5060051b60200190565b600082601f8301126118b257600080fd5b813560206118c76118c28361187d565b61182e565b82815260059290921b840181019181810190868411156118e657600080fd5b8286015b8481101561190157803583529183019183016118ea565b509695505050505050565b60008060006060848603121561192157600080fd5b8335925060208085013567ffffffffffffffff8082111561194157600080fd5b818701915087601f83011261195557600080fd5b81356119636118c28261187d565b81815260059190911b8301840190848101908a83111561198257600080fd5b938501935b828510156119a75761199885611615565b82529385019390850190611987565b9650505060408701359250808311156119bf57600080fd5b50506119cd868287016118a1565b9150509250925092565b6000602082840312156119e957600080fd5b6115ae82611615565b7f4e487b7100000000000000000000000000000000000000000000000000000000600052603260045260246000fd5b7f6d6f6e74686c79537562736372697074696f6e50726963653d00000000000000815260008251611a5981601985016020870161177e565b9190910160190192915050565b7f736368656d615549443d00000000000000000000000000000000000000000000815260008251611a9e81600a85016020870161177e565b91909101600a0192915050565b60008451611abd81846020890161177e565b80830190507f2c000000000000000000000000000000000000000000000000000000000000008082528551611af9816001850160208a0161177e565b60019201918201528351611b1481600284016020880161177e565b0160020195945050505050565b7f4e487b7100000000000000000000000000000000000000000000000000000000600052601160045260246000fd5b60007fffffffffffffffffffffffffffffffffffffffffffffffffffffffffffffffff8203611b8157611b81611b21565b5060010190565b600181811c90821680611b9c57607f821691505b602082108103611bd5577f4e487b7100000000000000000000000000000000000000000000000000000000600052602260045260246000fd5b50919050565b7f746f74616c436c61696d65643d00000000000000000000000000000000000000815260008251611c1381600d85016020870161177e565b91909101600d0192915050565b60ff8181168382160290811690818114611c3c57611c3c611b21565b5092915050565b7f4e487b7100000000000000000000000000000000000000000000000000000000600052601260045260246000fd5b600082611c8157611c81611c43565b500490565b8082028115828204841417610ed257610ed2611b21565b600082611cac57611cac611c43565b500690565b80820180821115610ed257610ed2611b21565b7f3078000000000000000000000000000000000000000000000000000000000000815260008251611cfc81600285016020870161177e565b9190910160020192915050565b7f737562736372697074696f6e456e647341743d00000000000000000000000000815260008251611d4181601385016020870161177e565b9190910160130192915050565b7f737562736372696265723d000000000000000000000000000000000000000000815260008351611d8681600b85016020880161177e565b7f616e6420736368656d615549443d000000000000000000000000000000000000600b918401918201528351611dc381601984016020880161177e565b01601901949350505050565b60008351611de181846020880161177e565b7f2c000000000000000000000000000000000000000000000000000000000000009083019081528351611e1b81600184016020880161177e565b01600101949350505050565b60007f27000000000000000000000000000000000000000000000000000000000000008083528351611e6081600186016020880161177e565b600193019283015250600201919050565b7f2057484552452000000000000000000000000000000000000000000000000000815260008251611ea981600785016020870161177e565b9190910160070192915050565b7f5550444154452000000000000000000000000000000000000000000000000000815260008451611eee81600785016020890161177e565b7f20534554200000000000000000000000000000000000000000000000000000006007918401918201528451611f2b81600c84016020890161177e565b8451910190611f4181600c84016020880161177e565b01600c0195945050505050565b73ffffffffffffffffffffffffffffffffffffffff84168152826020820152606060408201526000611f8360608301846117a2565b95945050505050565b7f494e5345525420494e544f200000000000000000000000000000000000000000815260008451611fc481600c85016020890161177e565b7f2800000000000000000000000000000000000000000000000000000000000000600c91840191820152845161200181600d84016020890161177e565b7f2956414c55455328000000000000000000000000000000000000000000000000600d9290910191820152835161203f81601584016020880161177e565b7f29000000000000000000000000000000000000000000000000000000000000006015929091019182015260160195945050505050565b60006040820173ffffffffffffffffffffffffffffffffffffffff85168352602060408185015281855480845260608601915060059350606081851b8701016000888152848120815b8481101561218e577fffffffffffffffffffffffffffffffffffffffffffffffffffffffffffffffa08a85030186528282546120fa81611b88565b80875260018281168015612115576001811461214c57612177565b7fffffffffffffffffffffffffffffffffffffffffffffffffffffffffffffff0084168c8a01528b8315158e1b8a01019450612177565b8688528b8820885b8481101561216f5781548b82018f0152908301908d01612154565b8a018d019550505b50988a0198929650505091909101906001016120bf565b50919a9950505050505050505050565b600060208083850312156121b157600080fd5b825167ffffffffffffffff8111156121c857600080fd5b8301601f810185136121d957600080fd5b80516121e76118c28261187d565b81815260059190911b8201830190838101908783111561220657600080fd5b928401925b828410156122245783518252928401929084019061220b565b979650505050505050565b601f82111561041f57600081815260208120601f850160051c810160208610156122565750805b601f850160051c820191505b81811015610ea757828155600101612262565b815167ffffffffffffffff81111561228f5761228f6117ff565b6122a38161229d8454611b88565b8461222f565b602080601f8311600181146122f657600084156122c05750858301515b7fffffffffffffffffffffffffffffffffffffffffffffffffffffffffffffffff600386901b1c1916600185901b178555610ea7565b6000858152602081207fffffffffffffffffffffffffffffffffffffffffffffffffffffffffffffffe08616915b8281101561234357888601518255948401946001909101908401612324565b508582101561237f57878501517fffffffffffffffffffffffffffffffffffffffffffffffffffffffffffffffff600388901b60f8161c191681555b5050505050600190811b01905550565b600084516123a181846020890161177e565b80830190507f5f000000000000000000000000000000000000000000000000000000000000008082528551611af9816001850160208a0161177e565b6000816123ec576123ec611b21565b507fffffffffffffffffffffffffffffffffffffffffffffffffffffffffffffffff019056fe736368656d615549442c20737562736372696265722c20737562736372697074696f6e456e64734174736368656d615549442c206d6f6e74686c79537562736372697074696f6e50726963652c2073706c6974746572436f6e7472616374a2646970667358221220e07acc5b6c57fba7924efc0b7a04e6fc3f967c300e22c9e3cb40818666c0551764736f6c63430008130033736368656d6155494420746578742c20617474657374657220746578742c207368617265732074657874736368656d615549442074657874207072696d617279206b65792c206d6f6e74686c79537562736372697074696f6e507269636520746578742c2073706c6974746572436f6e74726163742074657874736368656d6155494420746578742c207375627363726962657220746578742c20737562736372697074696f6e456e647341742074657874736368656d615549442074657874207072696d617279206b65792c20746f74616c436c61696d65642074657874",
  "devdoc": {
    "kind": "dev",
    "methods": {
      "owner()": {
        "details": "Returns the address of the current owner."
      },
      "renounceOwnership()": {
        "details": "Leaves the contract without owner. It will not be possible to call `onlyOwner` functions. Can only be called by the current owner. NOTE: Renouncing ownership will leave the contract without an owner, thereby disabling any functionality that is only available to the owner."
      },
      "transferOwnership(address)": {
        "details": "Transfers ownership of the contract to a new account (`newOwner`). Can only be called by the current owner."
      }
    },
    "title": "TAS",
    "version": 1
  },
  "userdoc": {
    "errors": {
      "ChainNotSupported(uint256)": [
        {
          "notice": "Current chain does not have a TablelandTables deployment."
        }
      ]
    },
    "kind": "user",
    "methods": {},
    "notice": "The Tableland Attestation Service protocol.",
    "version": 1
  },
  "storageLayout": {
    "storage": [
      {
        "astId": 396,
        "contract": "contracts/tablelandIndexers/TablelandSubscriptionsIndexer.sol:TablelandSubscriptionsIndexer",
        "label": "_owner",
        "offset": 0,
        "slot": "0",
        "type": "t_address"
      },
      {
        "astId": 12430,
        "contract": "contracts/tablelandIndexers/TablelandSubscriptionsIndexer.sol:TablelandSubscriptionsIndexer",
        "label": "tablelandContract",
        "offset": 0,
        "slot": "1",
        "type": "t_contract(ITablelandTables)4963"
      },
      {
        "astId": 12433,
        "contract": "contracts/tablelandIndexers/TablelandSubscriptionsIndexer.sol:TablelandSubscriptionsIndexer",
        "label": "createTableStatements",
        "offset": 0,
        "slot": "2",
        "type": "t_array(t_string_storage)dyn_storage"
      },
      {
        "astId": 12436,
        "contract": "contracts/tablelandIndexers/TablelandSubscriptionsIndexer.sol:TablelandSubscriptionsIndexer",
        "label": "tables",
        "offset": 0,
        "slot": "3",
        "type": "t_array(t_string_storage)dyn_storage"
      },
      {
        "astId": 12439,
        "contract": "contracts/tablelandIndexers/TablelandSubscriptionsIndexer.sol:TablelandSubscriptionsIndexer",
        "label": "tableIDs",
        "offset": 0,
        "slot": "4",
        "type": "t_array(t_uint256)dyn_storage"
      },
      {
        "astId": 12441,
        "contract": "contracts/tablelandIndexers/TablelandSubscriptionsIndexer.sol:TablelandSubscriptionsIndexer",
        "label": "tablesUpdates",
        "offset": 0,
        "slot": "5",
        "type": "t_uint256"
      },
      {
        "astId": 12443,
        "contract": "contracts/tablelandIndexers/TablelandSubscriptionsIndexer.sol:TablelandSubscriptionsIndexer",
        "label": "tablesRowsCounter",
        "offset": 0,
        "slot": "6",
        "type": "t_uint256"
      }
    ],
    "types": {
      "t_address": {
        "encoding": "inplace",
        "label": "address",
        "numberOfBytes": "20"
      },
      "t_array(t_string_storage)dyn_storage": {
        "base": "t_string_storage",
        "encoding": "dynamic_array",
        "label": "string[]",
        "numberOfBytes": "32"
      },
      "t_array(t_uint256)dyn_storage": {
        "base": "t_uint256",
        "encoding": "dynamic_array",
        "label": "uint256[]",
        "numberOfBytes": "32"
      },
      "t_contract(ITablelandTables)4963": {
        "encoding": "inplace",
        "label": "contract ITablelandTables",
        "numberOfBytes": "20"
      },
      "t_string_storage": {
        "encoding": "bytes",
        "label": "string",
        "numberOfBytes": "32"
      },
      "t_uint256": {
        "encoding": "inplace",
        "label": "uint256",
        "numberOfBytes": "32"
      }
    }
  }
}