{
  "address": "0x70977d11589e28E73dBa2Ea803b6d23e9E205057",
  "abi": [
    {
      "inputs": [],
      "stateMutability": "nonpayable",
      "type": "constructor"
    },
    {
      "inputs": [
        {
          "internalType": "uint256",
          "name": "chainid",
          "type": "uint256"
        }
      ],
      "name": "ChainNotSupported",
      "type": "error"
    },
    {
      "anonymous": false,
      "inputs": [
        {
          "indexed": true,
          "internalType": "address",
          "name": "previousOwner",
          "type": "address"
        },
        {
          "indexed": true,
          "internalType": "address",
          "name": "newOwner",
          "type": "address"
        }
      ],
      "name": "OwnershipTransferred",
      "type": "event"
    },
    {
      "inputs": [
        {
          "internalType": "bytes32",
          "name": "schemaUID",
          "type": "bytes32"
        },
        {
          "internalType": "address[]",
          "name": "contentCreators",
          "type": "address[]"
        },
        {
          "internalType": "uint256[]",
          "name": "creatorsShares",
          "type": "uint256[]"
        }
      ],
      "name": "SchemaAdminsInserted",
      "outputs": [],
      "stateMutability": "nonpayable",
      "type": "function"
    },
    {
      "inputs": [
        {
          "internalType": "bytes32",
          "name": "schemaUID",
          "type": "bytes32"
        },
        {
          "internalType": "uint256",
          "name": "monthlySubscriptionPrice",
          "type": "uint256"
        },
        {
          "internalType": "address",
          "name": "splitterContract",
          "type": "address"
        }
      ],
      "name": "SchemaInfoInserted",
      "outputs": [],
      "stateMutability": "nonpayable",
      "type": "function"
    },
    {
      "inputs": [
        {
          "internalType": "bytes32",
          "name": "schemaUID",
          "type": "bytes32"
        },
        {
          "internalType": "uint256",
          "name": "newPrice",
          "type": "uint256"
        }
      ],
      "name": "SchemaPriceUpdated",
      "outputs": [],
      "stateMutability": "nonpayable",
      "type": "function"
    },
    {
      "inputs": [
        {
          "internalType": "bytes32",
          "name": "schemaUID",
          "type": "bytes32"
        }
      ],
      "name": "SchemaRevenueRecordCreated",
      "outputs": [],
      "stateMutability": "nonpayable",
      "type": "function"
    },
    {
      "inputs": [
        {
          "internalType": "bytes32",
          "name": "schemaUID",
          "type": "bytes32"
        },
        {
          "internalType": "uint256",
          "name": "totalClaimed",
          "type": "uint256"
        }
      ],
      "name": "SchemaRevenueUpdated",
      "outputs": [],
      "stateMutability": "nonpayable",
      "type": "function"
    },
    {
      "inputs": [
        {
          "internalType": "bytes32",
          "name": "schemaUID",
          "type": "bytes32"
        },
        {
          "internalType": "address",
          "name": "subscriber",
          "type": "address"
        },
        {
          "internalType": "uint256",
          "name": "subscriptionEndsAt",
          "type": "uint256"
        }
      ],
      "name": "SchemaSubscriptionCreated",
      "outputs": [],
      "stateMutability": "nonpayable",
      "type": "function"
    },
    {
      "inputs": [
        {
          "internalType": "bytes32",
          "name": "schemaUID",
          "type": "bytes32"
        },
        {
          "internalType": "address",
          "name": "subscriber",
          "type": "address"
        },
        {
          "internalType": "uint256",
          "name": "subscriptionEndsAt",
          "type": "uint256"
        }
      ],
      "name": "SchemaSubscriptionUpdated",
      "outputs": [],
      "stateMutability": "nonpayable",
      "type": "function"
    },
    {
      "inputs": [
        {
          "internalType": "bytes32",
          "name": "data",
          "type": "bytes32"
        }
      ],
      "name": "bytes32ToString",
      "outputs": [
        {
          "internalType": "string",
          "name": "",
          "type": "string"
        }
      ],
      "stateMutability": "pure",
      "type": "function"
    },
    {
      "inputs": [
        {
          "internalType": "address",
          "name": "",
          "type": "address"
        },
        {
          "internalType": "address",
          "name": "",
          "type": "address"
        },
        {
          "internalType": "uint256",
          "name": "",
          "type": "uint256"
        },
        {
          "internalType": "bytes",
          "name": "",
          "type": "bytes"
        }
      ],
      "name": "onERC721Received",
      "outputs": [
        {
          "internalType": "bytes4",
          "name": "",
          "type": "bytes4"
        }
      ],
      "stateMutability": "pure",
      "type": "function"
    },
    {
      "inputs": [],
      "name": "owner",
      "outputs": [
        {
          "internalType": "address",
          "name": "",
          "type": "address"
        }
      ],
      "stateMutability": "view",
      "type": "function"
    },
    {
      "inputs": [],
      "name": "renounceOwnership",
      "outputs": [],
      "stateMutability": "nonpayable",
      "type": "function"
    },
    {
      "inputs": [
        {
          "internalType": "uint256",
          "name": "",
          "type": "uint256"
        }
      ],
      "name": "tables",
      "outputs": [
        {
          "internalType": "string",
          "name": "",
          "type": "string"
        }
      ],
      "stateMutability": "view",
      "type": "function"
    },
    {
      "inputs": [
        {
          "internalType": "address",
          "name": "newOwner",
          "type": "address"
        }
      ],
      "name": "transferOwnership",
      "outputs": [],
      "stateMutability": "nonpayable",
      "type": "function"
    }
  ],
  "transactionHash": "0x54140637e7580690b1fcce5ebec835f7023b64e05ffec130d487947b7a4b079d",
  "args": [],
  "numDeployments": 1,
  "solcInputHash": "271f055c327174593309aa6bb1046f87",
  "bytecode": "0x60806040523480156200001157600080fd5b506200001d3362000422565b6200002762000472565b600160006101000a8154816001600160a01b0302191690836001600160a01b0316021790555060026200008f60405180608001604052806050815260200162002e2760509139604080518082019091526005815264067726f75760dc1b60208201526200063f565b81546001810183556000928352602090922090910190620000b190826200099e565b506002620000f66040518060600160405280602a815260200162002dfd602a913960408051808201909152600781526631b932b0ba37b960c91b60208201526200063f565b815460018101835560009283526020909220909101906200011890826200099e565b5060026200016260405180606001604052806038815260200162002e776038913960408051808201909152600c81526b39bab139b1b934b83a34b7b760a11b60208201526200063f565b815460018101835560009283526020909220909101906200018490826200099e565b506002620001c96040518060600160405280602d815260200162002eaf602d9139604080518082019091526007815266726576656e756560c81b60208201526200063f565b81546001810183556000928352602090922090910190620001eb90826200099e565b506001546040516361a23d0f60e01b81526001600160a01b03909116906361a23d0f906200022190309060029060040162000b97565b6000604051808303816000875af115801562000241573d6000803e3d6000fd5b505050506040513d6000823e601f3d908101601f191682016040526200026b919081019062000cd1565b8051620002819160049160209091019062000829565b506003620002d460405180604001604052806005815260200164067726f75760dc1b8152506004600081548110620002bd57620002bd62000d11565b90600052602060002001546200067a60201b60201c565b81546001810183556000928352602090922090910190620002f690826200099e565b506003620003346040518060400160405280600781526020016631b932b0ba37b960c91b8152506004600181548110620002bd57620002bd62000d11565b815460018101835560009283526020909220909101906200035690826200099e565b506003620003996040518060400160405280600c81526020016b39bab139b1b934b83a34b7b760a11b8152506004600281548110620002bd57620002bd62000d11565b81546001810183556000928352602090922090910190620003bb90826200099e565b506003620003f960405180604001604052806007815260200166726576656e756560c81b8152506004600381548110620002bd57620002bd62000d11565b815460018101835560009283526020909220909101906200041b90826200099e565b5062000e6c565b600080546001600160a01b038381166001600160a01b0319831681178455604051919092169283917f8be0079c531659141344cd1fd0a4f28419497f9722a3daafe3b4186f6b6457e09190a35050565b60004660010362000496575073012969f7e3439a9b04025b5a049eb9bad82a8c1290565b46600a03620004b8575073fad44bf5b843de943a09d4f3e84949a11d3aa3e690565b4661a4b103620004db5750739abd75e8640871a5a20d3b4ee6330a04c962affd90565b4661a4ba03620004fe5750731a22854c5b1642760a827f20137a67930ae108d290565b46608903620005205750735c4e6a9e5c1e1bf445a062006faf19ea6c49afea90565b4661013a036200054357507359ef8bf2d6c102b4c42aef9189e1a9f0abfd652d90565b4662aa36a70362000567575073c50c62498448acc8dbde43da77f8d5d2e2c7597d90565b466101a4036200058a575073c72e8a7be04f2469f8c2db3f1bdf69a7d516abba90565b4662066eed03620005ae575073033f69e8d119205089ab15d340f5b797732f646b90565b466201388103620005d25750734b48841d4b32c4650e4abc117a03fe8b51f38f6890565b466204cb2f03620005f6575073030bcf3d50cad04c2e57391b12740982a930862190565b46617a690362000619575073e7f1725e7734ce288f8367e1bb143e90bb3f051290565b4660405163264e42cf60e01b815260040162000636919062000d2e565b60405180910390fd5b6060816200064d46620006a7565b84604051602001620006629392919062000db8565b60405160208183030381529060405290505b92915050565b6060826200068846620006a7565b6200069384620006a7565b604051602001620006629392919062000e28565b60606000620006b68362000740565b60010190506000816001600160401b03811115620006d857620006d862000890565b6040519080825280601f01601f19166020018201604052801562000703576020820181803683370190505b5090508181016020015b600019016f181899199a1a9b1b9c1cb0b131b232b360811b600a86061a8153600a85049450846200070d57509392505050565b6000807a184f03e93ff9f4daa797ed6e38ed64bf6a1f01000000000000000083106200078a577a184f03e93ff9f4daa797ed6e38ed64bf6a1f010000000000000000830492506040015b6d04ee2d6d415b85acef81000000008310620007b7576d04ee2d6d415b85acef8100000000830492506020015b662386f26fc100008310620007d657662386f26fc10000830492506010015b6305f5e1008310620007ef576305f5e100830492506008015b61271083106200080457612710830492506004015b6064831062000817576064830492506002015b600a8310620006745760010192915050565b82805482825590600052602060002090810192821562000867579160200282015b82811115620008675782518255916020019190600101906200084a565b506200087592915062000879565b5090565b5b808211156200087557600081556001016200087a565b634e487b7160e01b600052604160045260246000fd5b634e487b7160e01b600052602260045260246000fd5b600281046001821680620008d157607f821691505b602082108103620008e657620008e6620008a6565b50919050565b600062000674620008fa8381565b90565b6200090883620008ec565b815460001960089490940293841b1916921b91909117905550565b600062000932818484620008fd565b505050565b8181101562000956576200094d60008262000923565b60010162000937565b5050565b601f82111562000932576000818152602090206020601f85010481016020851015620009835750805b620009976020601f86010483018262000937565b5050505050565b81516001600160401b03811115620009ba57620009ba62000890565b620009c68254620008bc565b620009d38282856200095a565b6020601f83116001811462000a0a5760008415620009f15750858201515b600019600886021c198116600286021786555062000a66565b600085815260208120601f198616915b8281101562000a3c578885015182556020948501946001909201910162000a1a565b8683101562000a595784890151600019601f89166008021c191682555b6001600288020188555050505b505050505050565b60006001600160a01b03821662000674565b62000a8b8162000a6e565b82525050565b6000815462000aa081620008bc565b80855260208501945060018216801562000ac3576001811462000ada5762000b0a565b60ff19831686526020821515028601935062000b0a565b60008581526020902060005b8381101562000b045781548882015260019091019060200162000ae6565b87019450505b50505092915050565b600062000b21838362000a91565b9392505050565b600062000b33825490565b8084526020840193508360208202850162000b548560009081526020902090565b8060005b8581101562000b8a5784840389528162000b73858262000b13565b60209a909a01999450506001918201910162000b58565b5091979650505050505050565b6040810162000ba7828562000a80565b818103602083015262000bbb818462000b28565b949350505050565b601f19601f83011681018181106001600160401b038211171562000beb5762000beb62000890565b6040525050565b600062000bfe60405190565b905062000c0c828262000bc3565b919050565b60006001600160401b0382111562000c2d5762000c2d62000890565b5060209081020190565b805162000674565b600062000c5662000c508462000c11565b62000bf2565b8381529050602080820190840283018581111562000c775762000c77600080fd5b835b8181101562000c9f578062000c8f888262000c37565b8452506020928301920162000c79565b5050509392505050565b600082601f83011262000cbf5762000cbf600080fd5b815162000bbb84826020860162000c3f565b60006020828403121562000ce85762000ce8600080fd5b81516001600160401b0381111562000d035762000d03600080fd5b62000bbb8482850162000ca9565b634e487b7160e01b600052603260045260246000fd5b8062000a8b565b6020810162000674828462000d27565b60005b8381101562000d5b57818101518382015260200162000d41565b50506000910152565b600062000d6f825190565b62000d7f81856020860162000d3e565b9290920192915050565b605f60f81b815260005b5060010190565b600560fb1b8152600062000d93565b602960f81b8152600062000d93565b6c021a922a0aa22902a20a126229609d1b8152600d01600062000ddc828662000d64565b915062000de98262000d89565b915062000df7828562000d64565b915062000e048262000d9a565b915062000e12828462000d64565b915062000e1f8262000da9565b95945050505050565b600062000e36828662000d64565b915062000e438262000d89565b915062000e51828562000d64565b915062000e5e8262000d89565b915062000e1f828462000d64565b611f818062000e7c6000396000f3fe608060405234801561001057600080fd5b50600436106100cf5760003560e01c80637e6c78bd1161008c5780639201de55116100665780639201de55146101ab578063d2ea9ad0146101be578063f2fde38b146101d1578063f398db32146101e457600080fd5b80637e6c78bd1461016c5780638d879e6d1461017f5780638da5cb5b1461019257600080fd5b8063150b7a02146100d45780631aa7cbe6146101095780632e324b101461011e5780636e38551814610131578063715018a61461014457806371671bf21461014c575b600080fd5b6100f36100e2366004611282565b630a85bd0160e11b95945050505050565b6040516101009190611318565b60405180910390f35b61011c610117366004611326565b6101f7565b005b61011c61012c366004611363565b6102ca565b61011c61013f3660046113b3565b6103a3565b61011c610478565b61015f61015a3660046113f9565b61048c565b6040516101009190611478565b61011c61017a366004611605565b610538565b61011c61018d366004611326565b610654565b6000546001600160a01b0316604051610100919061168a565b61015f6101b93660046113f9565b6106dc565b61011c6101cc366004611363565b610895565b61011c6101df366004611698565b61095a565b61011c6101f23660046113f9565b61099d565b6101ff610a6a565b6102c66004600081548110610216576102166116b9565b90600052602060002001546102c160405180604001604052806005815260200164067726f75760dc1b8152506004600081548110610256576102566116b9565b906000526020600020015461027261026d87610a94565b610b27565b60405160200161028291906116f1565b60405160208183030381529060405261029d61026d896106dc565b6040516020016102ad9190611723565b604051602081830303815290604052610b50565b610bcb565b5050565b6102d2610a6a565b61039e60046002815481106102e9576102e96116b9565b90600052602060002001546102c16040518060400160405280600c81526020016b39bab139b1b934b83a34b7b760a11b8152506004600281548110610330576103306116b9565b9060005260206000200154604051806060016040528060298152602001611eee6029913961036061026d8a6106dc565b61036c61026d8a610c35565b61037861026d8a610a94565b60405160200161038a93929190611742565b604051602081830303815290604052610c51565b505050565b6103ab610a6a565b600654620186a0036103bf576103bf610c90565b61045e60046000815481106103d6576103d66116b9565b90600052602060002001546102c160405180604001604052806005815260200164067726f75760dc1b8152506004600081548110610416576104166116b9565b9060005260206000200154604051806060016040528060358152602001611f176035913961044661026d8a6106dc565b61045261026d8a610a94565b61037861026d8a610c35565b6006805490600061046e83611799565b9190505550505050565b610480610a6a565b61048a6000610eb6565b565b6003818154811061049c57600080fd5b9060005260206000200160009150905080546104b7906117c9565b80601f01602080910402602001604051908101604052809291908181526020018280546104e3906117c9565b80156105305780601f1061050557610100808354040283529160200191610530565b820191906000526020600020905b81548152906001019060200180831161051357829003601f168201915b505050505081565b610540610a6a565b60005b825181101561064e5761063c6004600181548110610563576105636116b9565b90600052602060002001546102c16040518060400160405280600781526020016631b932b0ba37b960c91b81525060046001815481106105a5576105a56116b9565b90600052602060002001546040518060400160405280601b81526020017f736368656d615549442c2061747465737465722c2073686172657300000000008152506105f261026d8b6106dc565b61061761026d8b8a8151811061060a5761060a6116b9565b6020026020010151610c35565b61037861026d8b8b8151811061062f5761062f6116b9565b6020026020010151610a94565b8061064681611799565b915050610543565b50505050565b61065c610a6a565b6102c66004600381548110610673576106736116b9565b90600052602060002001546102c160405180604001604052806007815260200166726576656e756560c81b81525060046003815481106106b5576106b56116b9565b90600052602060002001546106cc61026d87610a94565b60405160200161028291906117f5565b606060006106ec60206002611817565b60ff1667ffffffffffffffff81111561070757610707611489565b6040519080825280601f01601f191660200182016040528015610731576020820181803683370190505b5060408051808201909152601081526f181899199a1a9b1b9c1cb0b131b232b360811b602082015290915060005b602081101561086b5781825186836020811061077d5761077d6116b9565b6107899291901a611854565b81518110610799576107996116b9565b01602001516001600160f81b031916836107b4836002611868565b815181106107c4576107c46116b9565b60200101906001600160f81b031916908160001a9053508182518683602081106107f0576107f06116b9565b6107fc9291901a611880565b8151811061080c5761080c6116b9565b01602001516001600160f81b03191683610827836002611868565b610832906001611894565b81518110610842576108426116b9565b60200101906001600160f81b031916908160001a9053508061086381611799565b91505061075f565b508160405160200161087d91906118a7565b60405160208183030381529060405292505050919050565b61089d610a6a565b61039e60046002815481106108b4576108b46116b9565b90600052602060002001546102c16040518060400160405280600c81526020016b39bab139b1b934b83a34b7b760a11b81525060046002815481106108fb576108fb6116b9565b906000526020600020015461091261026d87610a94565b60405160200161092291906118c2565b60405160208183030381529060405261093d61026d89610c35565b61094961026d8b6106dc565b6040516020016102ad9291906118ea565b610962610a6a565b6001600160a01b0381166109915760405162461bcd60e51b81526004016109889061192d565b60405180910390fd5b61099a81610eb6565b50565b6109a5610a6a565b60006102c660046003815481106109be576109be6116b9565b90600052602060002001546102c160405180604001604052806007815260200166726576656e756560c81b8152506004600381548110610a0057610a006116b9565b90600052602060002001546040518060400160405280601781526020017f736368656d615549442c20746f74616c436c61696d6564000000000000000000815250610a4d61026d896106dc565b610a5961026d89610a94565b60405160200161038a929190611977565b6000546001600160a01b0316331461048a5760405162461bcd60e51b8152600401610988906119ce565b60606000610aa183610f06565b600101905060008167ffffffffffffffff811115610ac157610ac1611489565b6040519080825280601f01601f191660200182016040528015610aeb576020820181803683370190505b5090508181016020015b600019016f181899199a1a9b1b9c1cb0b131b232b360811b600a86061a8153600a8504945084610af557509392505050565b606081604051602001610b3a91906119ec565b6040516020818303038152906040529050919050565b60606000610b5e8686610fde565b60408051602081019091526000815284519192509015610b9b5783604051602001610b899190611a25565b60405160208183030381529060405290505b818582604051602001610bb093929190611a44565b60405160208183030381529060405292505050949350505050565b600154604051631bbd786d60e11b81526001600160a01b039091169063377af0da90610bff90309086908690600401611a87565b600060405180830381600087803b158015610c1957600080fd5b505af1158015610c2d573d6000803e3d6000fd5b505050505050565b6060610c4b6001600160a01b038316601461101c565b92915050565b60606000610c5f8686610fde565b9050808484604051602001610c7693929190611ad0565b604051602081830303815290604052915050949350505050565b6001546040516361a23d0f60e01b81526001600160a01b03909116906361a23d0f90610cc3903090600290600401611c1f565b6000604051808303816000875af1158015610ce2573d6000803e3d6000fd5b505050506040513d6000823e601f3d908101601f19168201604052610d0a9190810190611cbf565b8051610d1e9160049160209091019061118f565b506003610d6660405180604001604052806005815260200164067726f75760dc1b8152506004600081548110610d5657610d566116b9565b9060005260206000200154610fde565b81546001810183556000928352602090922090910190610d869082611d95565b506003610dc06040518060400160405280600781526020016631b932b0ba37b960c91b8152506004600181548110610d5657610d566116b9565b81546001810183556000928352602090922090910190610de09082611d95565b506003610e1f6040518060400160405280600c81526020016b39bab139b1b934b83a34b7b760a11b8152506004600281548110610d5657610d566116b9565b81546001810183556000928352602090922090910190610e3f9082611d95565b506003610e7960405180604001604052806007815260200166726576656e756560c81b8152506004600381548110610d5657610d566116b9565b81546001810183556000928352602090922090910190610e999082611d95565b50600060068190556005805491610eaf83611799565b9190505550565b600080546001600160a01b038381166001600160a01b0319831681178455604051919092169283917f8be0079c531659141344cd1fd0a4f28419497f9722a3daafe3b4186f6b6457e09190a35050565b60008072184f03e93ff9f4daa797ed6e38ed64bf6a1f0160401b8310610f455772184f03e93ff9f4daa797ed6e38ed64bf6a1f0160401b830492506040015b6d04ee2d6d415b85acef81000000008310610f71576d04ee2d6d415b85acef8100000000830492506020015b662386f26fc100008310610f8f57662386f26fc10000830492506010015b6305f5e1008310610fa7576305f5e100830492506008015b6127108310610fbb57612710830492506004015b60648310610fcd576064830492506002015b600a8310610c4b5760010192915050565b606082610fea46610a94565b610ff384610a94565b60405160200161100593929190611e66565b604051602081830303815290604052905092915050565b6060600061102b836002611868565b611036906002611894565b67ffffffffffffffff81111561104e5761104e611489565b6040519080825280601f01601f191660200182016040528015611078576020820181803683370190505b509050600360fc1b81600081518110611093576110936116b9565b60200101906001600160f81b031916908160001a905350600f60fb1b816001815181106110c2576110c26116b9565b60200101906001600160f81b031916908160001a90535060006110e6846002611868565b6110f1906001611894565b90505b6001811115611169576f181899199a1a9b1b9c1cb0b131b232b360811b85600f1660108110611125576111256116b9565b1a60f81b82828151811061113b5761113b6116b9565b60200101906001600160f81b031916908160001a90535060049490941c9361116281611e94565b90506110f4565b5083156111885760405162461bcd60e51b815260040161098890611edd565b9392505050565b8280548282559060005260206000209081019282156111ca579160200282015b828111156111ca5782518255916020019190600101906111af565b506111d69291506111da565b5090565b5b808211156111d657600081556001016111db565b60006001600160a01b038216610c4b565b611209816111ef565b811461099a57600080fd5b8035610c4b81611200565b80611209565b8035610c4b8161121f565b60008083601f84011261124557611245600080fd5b50813567ffffffffffffffff81111561126057611260600080fd5b60208301915083600182028301111561127b5761127b600080fd5b9250929050565b60008060008060006080868803121561129d5761129d600080fd5b60006112a98888611214565b95505060206112ba88828901611214565b94505060406112cb88828901611225565b935050606086013567ffffffffffffffff8111156112eb576112eb600080fd5b6112f788828901611230565b92509250509295509295909350565b6001600160e01b031981165b82525050565b60208101610c4b8284611306565b6000806040838503121561133c5761133c600080fd5b60006113488585611225565b925050602061135985828601611225565b9150509250929050565b60008060006060848603121561137b5761137b600080fd5b60006113878686611225565b935050602061139886828701611214565b92505060406113a986828701611225565b9150509250925092565b6000806000606084860312156113cb576113cb600080fd5b60006113d78686611225565b93505060206113e886828701611225565b92505060406113a986828701611214565b60006020828403121561140e5761140e600080fd5b600061141a8484611225565b949350505050565b60005b8381101561143d578181015183820152602001611425565b50506000910152565b6000611450825190565b808452602084019350611467818560208601611422565b601f01601f19169290920192915050565b602080825281016111888184611446565b634e487b7160e01b600052604160045260246000fd5b601f19601f830116810181811067ffffffffffffffff821117156114c5576114c5611489565b6040525050565b60006114d760405190565b90506114e3828261149f565b919050565b600067ffffffffffffffff82111561150257611502611489565b5060209081020190565b600061151f61151a846114e8565b6114cc565b8381529050602080820190840283018581111561153e5761153e600080fd5b835b8181101561156257806115538882611214565b84525060209283019201611540565b5050509392505050565b600082601f83011261158057611580600080fd5b813561141a84826020860161150c565b600061159e61151a846114e8565b838152905060208082019084028301858111156115bd576115bd600080fd5b835b8181101561156257806115d28882611225565b845250602092830192016115bf565b600082601f8301126115f5576115f5600080fd5b813561141a848260208601611590565b60008060006060848603121561161d5761161d600080fd5b60006116298686611225565b935050602084013567ffffffffffffffff81111561164957611649600080fd5b6116558682870161156c565b925050604084013567ffffffffffffffff81111561167557611675600080fd5b6113a9868287016115e1565b611312816111ef565b60208101610c4b8284611681565b6000602082840312156116ad576116ad600080fd5b600061141a8484611214565b634e487b7160e01b600052603260045260246000fd5b60006116d9825190565b6116e7818560208601611422565b9290920192915050565b7f6d6f6e74686c79537562736372697074696f6e50726963653d000000000000008152601901600061118882846116cf565b69736368656d615549443d60b01b8152600a01600061118882846116cf565b600061174e82866116cf565b600b60fa1b8152600101915061176482856116cf565b600b60fa1b8152600101915061177a82846116cf565b95945050505050565b634e487b7160e01b600052601160045260246000fd5b600060001982036117ac576117ac611783565b5060010190565b634e487b7160e01b600052602260045260246000fd5b6002810460018216806117dd57607f821691505b6020821081036117ef576117ef6117b3565b50919050565b6c746f74616c436c61696d65643d60981b8152600d01600061118882846116cf565b60ff91821691908116908282029081169081811461183757611837611783565b5092915050565b634e487b7160e01b600052601260045260246000fd5b6000826118635761186361183e565b500490565b81810280821583820485141761183757611837611783565b60008261188f5761188f61183e565b500690565b80820180821115610c4b57610c4b611783565b61060f60f31b81526000600282015b915061118882846116cf565b72737562736372697074696f6e456e647341743d60681b8152601301600061118882846116cf565b6a737562736372696265723d60a81b8152600b01600061190a82856116cf565b6d616e6420736368656d615549443d60901b8152600e01915061141a82846116cf565b60208082528101610c4b81602681527f4f776e61626c653a206e6577206f776e657220697320746865207a65726f206160208201526564647265737360d01b604082015260600190565b600061198382856116cf565b600b60fa1b8152600101915061141a82846116cf565b60208082527f4f776e61626c653a2063616c6c6572206973206e6f7420746865206f776e6572910190815260005b5060200190565b60208082528101610c4b81611999565b602760f81b815260006117ac565b60006119f7826119de565b9150611a0382846116cf565b9150611188826119de565b660102ba422a922960cd1b815260005b5060070190565b60006118b682611a0e565b6602aa82220aa22960cd1b81526000611a1e565b6000611a4f82611a30565b9150611a5b82866116cf565b6401029a2aa160dd1b81526005019150611a7582856116cf565b915061177a82846116cf565b80611312565b60608101611a958286611681565b611aa26020830185611a81565b818103604083015261177a8184611446565b600560fb1b815260006117ac565b602960f81b815260006117ac565b6b024a729a2a92a1024a72a27960a51b8152600c016000611af182866116cf565b9150611afc82611ab4565b9150611b0882856116cf565b67052ac8298aa8aa6560c31b81526008019150611b2582846116cf565b915061177a82611ac2565b60008154611b3d816117c9565b808552602085019450600182168015611b5d5760018114611b7357611ba1565b60ff198316865260208215150286019350611ba1565b60008581526020902060005b83811015611b9b57815488820152600190910190602001611b7f565b87019450505b50505092915050565b60006111888383611b30565b6000611bc0825490565b80845260208401935083602082028501611be08560009081526020902090565b8060005b85811015611c1257848403895281611bfc8582611baa565b60209a909a019994505060019182019101611be4565b5091979650505050505050565b60408101611c2d8285611681565b818103602083015261141a8184611bb6565b8051610c4b8161121f565b6000611c5861151a846114e8565b83815290506020808201908402830185811115611c7757611c77600080fd5b835b818110156115625780611c8c8882611c3f565b84525060209283019201611c79565b600082601f830112611caf57611caf600080fd5b815161141a848260208601611c4a565b600060208284031215611cd457611cd4600080fd5b815167ffffffffffffffff811115611cee57611cee600080fd5b61141a84828501611c9b565b6000610c4b611d068381565b90565b611d1283611cfa565b815460001960089490940293841b1916921b91909117905550565b600061039e818484611d09565b818110156102c657611d4d600082611d2d565b600101611d3a565b601f82111561039e576000818152602090206020601f85010481016020851015611d7c5750805b611d8e6020601f860104830182611d3a565b5050505050565b815167ffffffffffffffff811115611daf57611daf611489565b611db982546117c9565b611dc4828285611d55565b6020601f831160018114611df85760008415611de05750858201515b600019600886021c1981166002860217865550610c2d565b600085815260208120601f198616915b82811015611e285788850151825560209485019460019092019101611e08565b86831015611e445784890151600019601f89166008021c191682555b600160028802018855505050505050505050565b605f60f81b815260006117ac565b6000611e7282866116cf565b9150611e7d82611e58565b9150611e8982856116cf565b9150611a7582611e58565b600081611ea357611ea3611783565b506000190190565b60208082527f537472696e67733a20686578206c656e67746820696e73756666696369656e74910190815260006119c7565b60208082528101610c4b81611eab56fe736368656d615549442c20737562736372696265722c20737562736372697074696f6e456e64734174736368656d615549442c206d6f6e74686c79537562736372697074696f6e50726963652c2073706c6974746572436f6e7472616374a2646970667358221220f9f6c5db29bf3f0d9e4a008c16b74f4873f3ac438e46919d0bb9eb9ac6ecb50864736f6c63430008130033736368656d6155494420746578742c20617474657374657220746578742c207368617265732074657874736368656d615549442074657874207072696d617279206b65792c206d6f6e74686c79537562736372697074696f6e507269636520746578742c2073706c6974746572436f6e74726163742074657874736368656d6155494420746578742c207375627363726962657220746578742c20737562736372697074696f6e456e647341742074657874736368656d615549442074657874207072696d617279206b65792c20746f74616c436c61696d65642074657874",
  "devdoc": {
    "kind": "dev",
    "methods": {
      "owner()": {
        "details": "Returns the address of the current owner."
      },
      "renounceOwnership()": {
        "details": "Leaves the contract without owner. It will not be possible to call `onlyOwner` functions. Can only be called by the current owner. NOTE: Renouncing ownership will leave the contract without an owner, thereby disabling any functionality that is only available to the owner."
      },
      "transferOwnership(address)": {
        "details": "Transfers ownership of the contract to a new account (`newOwner`). Can only be called by the current owner."
      }
    },
    "title": "TAS",
    "version": 1
  },
  "userdoc": {
    "errors": {
      "ChainNotSupported(uint256)": [
        {
          "notice": "Current chain does not have a TablelandTables deployment."
        }
      ]
    },
    "kind": "user",
    "methods": {},
    "notice": "The Tableland Attestation Service protocol.",
    "version": 1
  },
  "storageLayout": {
    "storage": [
      {
        "astId": 396,
        "contract": "contracts/tablelandIndexers/TablelandSubscriptionsIndexer.sol:TablelandSubscriptionsIndexer",
        "label": "_owner",
        "offset": 0,
        "slot": "0",
        "type": "t_address"
      },
      {
        "astId": 12025,
        "contract": "contracts/tablelandIndexers/TablelandSubscriptionsIndexer.sol:TablelandSubscriptionsIndexer",
        "label": "tablelandContract",
        "offset": 0,
        "slot": "1",
        "type": "t_contract(ITablelandTables)4651"
      },
      {
        "astId": 12028,
        "contract": "contracts/tablelandIndexers/TablelandSubscriptionsIndexer.sol:TablelandSubscriptionsIndexer",
        "label": "createTableStatements",
        "offset": 0,
        "slot": "2",
        "type": "t_array(t_string_storage)dyn_storage"
      },
      {
        "astId": 12031,
        "contract": "contracts/tablelandIndexers/TablelandSubscriptionsIndexer.sol:TablelandSubscriptionsIndexer",
        "label": "tables",
        "offset": 0,
        "slot": "3",
        "type": "t_array(t_string_storage)dyn_storage"
      },
      {
        "astId": 12034,
        "contract": "contracts/tablelandIndexers/TablelandSubscriptionsIndexer.sol:TablelandSubscriptionsIndexer",
        "label": "tableIDs",
        "offset": 0,
        "slot": "4",
        "type": "t_array(t_uint256)dyn_storage"
      },
      {
        "astId": 12036,
        "contract": "contracts/tablelandIndexers/TablelandSubscriptionsIndexer.sol:TablelandSubscriptionsIndexer",
        "label": "tablesUpdates",
        "offset": 0,
        "slot": "5",
        "type": "t_uint256"
      },
      {
        "astId": 12038,
        "contract": "contracts/tablelandIndexers/TablelandSubscriptionsIndexer.sol:TablelandSubscriptionsIndexer",
        "label": "tablesRowsCounter",
        "offset": 0,
        "slot": "6",
        "type": "t_uint256"
      }
    ],
    "types": {
      "t_address": {
        "encoding": "inplace",
        "label": "address",
        "numberOfBytes": "20"
      },
      "t_array(t_string_storage)dyn_storage": {
        "base": "t_string_storage",
        "encoding": "dynamic_array",
        "label": "string[]",
        "numberOfBytes": "32"
      },
      "t_array(t_uint256)dyn_storage": {
        "base": "t_uint256",
        "encoding": "dynamic_array",
        "label": "uint256[]",
        "numberOfBytes": "32"
      },
      "t_contract(ITablelandTables)4651": {
        "encoding": "inplace",
        "label": "contract ITablelandTables",
        "numberOfBytes": "20"
      },
      "t_string_storage": {
        "encoding": "bytes",
        "label": "string",
        "numberOfBytes": "32"
      },
      "t_uint256": {
        "encoding": "inplace",
        "label": "uint256",
        "numberOfBytes": "32"
      }
    }
  }
}