{
  "address": "0xC32c9cE03c097bbcb1e97d85524a7ad234f732fE",
  "abi": [
    {
      "inputs": [],
      "stateMutability": "nonpayable",
      "type": "constructor"
    },
    {
      "inputs": [
        {
          "internalType": "uint256",
          "name": "chainid",
          "type": "uint256"
        }
      ],
      "name": "ChainNotSupported",
      "type": "error"
    },
    {
      "anonymous": false,
      "inputs": [
        {
          "indexed": true,
          "internalType": "address",
          "name": "previousOwner",
          "type": "address"
        },
        {
          "indexed": true,
          "internalType": "address",
          "name": "newOwner",
          "type": "address"
        }
      ],
      "name": "OwnershipTransferred",
      "type": "event"
    },
    {
      "inputs": [
        {
          "internalType": "bytes32",
          "name": "schemaUID",
          "type": "bytes32"
        },
        {
          "internalType": "address[]",
          "name": "contentCreators",
          "type": "address[]"
        },
        {
          "internalType": "uint256[]",
          "name": "creatorsShares",
          "type": "uint256[]"
        }
      ],
      "name": "SchemaAdminsInserted",
      "outputs": [],
      "stateMutability": "nonpayable",
      "type": "function"
    },
    {
      "inputs": [
        {
          "internalType": "bytes32",
          "name": "schemaUID",
          "type": "bytes32"
        },
        {
          "internalType": "uint256",
          "name": "monthlySubscriptionPrice",
          "type": "uint256"
        },
        {
          "internalType": "address",
          "name": "splitterContract",
          "type": "address"
        }
      ],
      "name": "SchemaInfoInserted",
      "outputs": [],
      "stateMutability": "nonpayable",
      "type": "function"
    },
    {
      "inputs": [
        {
          "internalType": "bytes32",
          "name": "schemaUID",
          "type": "bytes32"
        }
      ],
      "name": "SchemaRevenueRecordCreated",
      "outputs": [],
      "stateMutability": "nonpayable",
      "type": "function"
    },
    {
      "inputs": [
        {
          "internalType": "bytes32",
          "name": "schemaUID",
          "type": "bytes32"
        },
        {
          "internalType": "uint256",
          "name": "totalUnclaimed",
          "type": "uint256"
        },
        {
          "internalType": "uint256",
          "name": "totalClaimed",
          "type": "uint256"
        }
      ],
      "name": "SchemaRevenueUpdated",
      "outputs": [],
      "stateMutability": "nonpayable",
      "type": "function"
    },
    {
      "inputs": [
        {
          "internalType": "bytes32",
          "name": "schemaUID",
          "type": "bytes32"
        },
        {
          "internalType": "address",
          "name": "subscriber",
          "type": "address"
        },
        {
          "internalType": "uint256",
          "name": "subscriptionEndsAt",
          "type": "uint256"
        }
      ],
      "name": "SchemaSubscriptionCreated",
      "outputs": [],
      "stateMutability": "nonpayable",
      "type": "function"
    },
    {
      "inputs": [
        {
          "internalType": "bytes32",
          "name": "schemaUID",
          "type": "bytes32"
        },
        {
          "internalType": "address",
          "name": "subscriber",
          "type": "address"
        },
        {
          "internalType": "uint256",
          "name": "subscriptionEndsAt",
          "type": "uint256"
        }
      ],
      "name": "SchemaSubscriptionUpdated",
      "outputs": [],
      "stateMutability": "nonpayable",
      "type": "function"
    },
    {
      "inputs": [
        {
          "internalType": "bytes32",
          "name": "data",
          "type": "bytes32"
        }
      ],
      "name": "bytes32ToString",
      "outputs": [
        {
          "internalType": "string",
          "name": "",
          "type": "string"
        }
      ],
      "stateMutability": "pure",
      "type": "function"
    },
    {
      "inputs": [
        {
          "internalType": "address",
          "name": "",
          "type": "address"
        },
        {
          "internalType": "address",
          "name": "",
          "type": "address"
        },
        {
          "internalType": "uint256",
          "name": "",
          "type": "uint256"
        },
        {
          "internalType": "bytes",
          "name": "",
          "type": "bytes"
        }
      ],
      "name": "onERC721Received",
      "outputs": [
        {
          "internalType": "bytes4",
          "name": "",
          "type": "bytes4"
        }
      ],
      "stateMutability": "pure",
      "type": "function"
    },
    {
      "inputs": [],
      "name": "owner",
      "outputs": [
        {
          "internalType": "address",
          "name": "",
          "type": "address"
        }
      ],
      "stateMutability": "view",
      "type": "function"
    },
    {
      "inputs": [],
      "name": "renounceOwnership",
      "outputs": [],
      "stateMutability": "nonpayable",
      "type": "function"
    },
    {
      "inputs": [
        {
          "internalType": "uint256",
          "name": "",
          "type": "uint256"
        }
      ],
      "name": "tables",
      "outputs": [
        {
          "internalType": "string",
          "name": "",
          "type": "string"
        }
      ],
      "stateMutability": "view",
      "type": "function"
    },
    {
      "inputs": [
        {
          "internalType": "address",
          "name": "newOwner",
          "type": "address"
        }
      ],
      "name": "transferOwnership",
      "outputs": [],
      "stateMutability": "nonpayable",
      "type": "function"
    }
  ],
  "transactionHash": "0x9ad630b83e6d639082fea60288b6d1be3c32e9e238415fee2236a521a53c79f6",
  "args": [],
  "numDeployments": 1,
  "solcInputHash": "87ba016727d438d1ed10dd164bae6c22",
  "bytecode": "0x60806040523480156200001157600080fd5b506200001d3362000422565b6200002762000472565b600160006101000a8154816001600160a01b0302191690836001600160a01b0316021790555060026200008f604051806080016040528060508152602001620030ae60509139604080518082019091526005815264067726f75760dc1b602082015262000635565b81546001810183556000928352602090922090910190620000b190826200092b565b506002620000f66040518060600160405280602a815260200162003084602a913960408051808201909152600781526631b932b0ba37b960c91b602082015262000635565b815460018101835560009283526020909220909101906200011890826200092b565b50600262000162604051806060016040528060388152602001620030fe6038913960408051808201909152600c81526b39bab139b1b934b83a34b7b760a11b602082015262000635565b815460018101835560009283526020909220909101906200018490826200092b565b506002620001c96040518060800160405280604281526020016200304260429139604080518082019091526007815266726576656e756560c81b602082015262000635565b81546001810183556000928352602090922090910190620001eb90826200092b565b506001546040516361a23d0f60e01b81526001600160a01b03909116906361a23d0f9062000221903090600290600401620009f7565b6000604051808303816000875af115801562000241573d6000803e3d6000fd5b505050506040513d6000823e601f3d908101601f191682016040526200026b919081019062000adf565b805162000281916004916020909101906200081f565b506003620002d460405180604001604052806005815260200164067726f75760dc1b8152506004600081548110620002bd57620002bd62000ba8565b90600052602060002001546200066f60201b60201c565b81546001810183556000928352602090922090910190620002f690826200092b565b506003620003346040518060400160405280600781526020016631b932b0ba37b960c91b8152506004600181548110620002bd57620002bd62000ba8565b815460018101835560009283526020909220909101906200035690826200092b565b506003620003996040518060400160405280600c81526020016b39bab139b1b934b83a34b7b760a11b8152506004600281548110620002bd57620002bd62000ba8565b81546001810183556000928352602090922090910190620003bb90826200092b565b506003620003f960405180604001604052806007815260200166726576656e756560c81b8152506004600381548110620002bd57620002bd62000ba8565b815460018101835560009283526020909220909101906200041b90826200092b565b5062000c99565b600080546001600160a01b038381166001600160a01b0319831681178455604051919092169283917f8be0079c531659141344cd1fd0a4f28419497f9722a3daafe3b4186f6b6457e09190a35050565b60004660010362000496575073012969f7e3439a9b04025b5a049eb9bad82a8c1290565b46600a03620004b8575073fad44bf5b843de943a09d4f3e84949a11d3aa3e690565b4661a4b103620004db5750739abd75e8640871a5a20d3b4ee6330a04c962affd90565b4661a4ba03620004fe5750731a22854c5b1642760a827f20137a67930ae108d290565b46608903620005205750735c4e6a9e5c1e1bf445a062006faf19ea6c49afea90565b4661013a036200054357507359ef8bf2d6c102b4c42aef9189e1a9f0abfd652d90565b4660050362000565575073da8ea22d092307874f30a1f277d1388dca0ba97a90565b466101a40362000588575073c72e8a7be04f2469f8c2db3f1bdf69a7d516abba90565b4662066eed03620005ac575073033f69e8d119205089ab15d340f5b797732f646b90565b466201388103620005d05750734b48841d4b32c4650e4abc117a03fe8b51f38f6890565b46610c4503620005f35750730b9737ab4b3e5303cb67db031b509697e31c02d390565b46617a690362000616575073e7f1725e7734ce288f8367e1bb143e90bb3f051290565b60405163264e42cf60e01b815246600482015260240160405180910390fd5b60608162000643466200069c565b84604051602001620006589392919062000bf0565b604051602081830303815290604052905092915050565b6060826200067d466200069c565b62000688846200069c565b604051602001620006589392919062000c56565b60606000620006ab8362000735565b60010190506000816001600160401b03811115620006cd57620006cd62000886565b6040519080825280601f01601f191660200182016040528015620006f8576020820181803683370190505b5090508181016020015b600019016f181899199a1a9b1b9c1cb0b131b232b360811b600a86061a8153600a85049450846200070257509392505050565b6000807a184f03e93ff9f4daa797ed6e38ed64bf6a1f01000000000000000083106200077f577a184f03e93ff9f4daa797ed6e38ed64bf6a1f010000000000000000830492506040015b6d04ee2d6d415b85acef81000000008310620007ac576d04ee2d6d415b85acef8100000000830492506020015b662386f26fc100008310620007cb57662386f26fc10000830492506010015b6305f5e1008310620007e4576305f5e100830492506008015b6127108310620007f957612710830492506004015b606483106200080c576064830492506002015b600a831062000819576001015b92915050565b8280548282559060005260206000209081019282156200085d579160200282015b828111156200085d57825182559160200191906001019062000840565b506200086b9291506200086f565b5090565b5b808211156200086b576000815560010162000870565b634e487b7160e01b600052604160045260246000fd5b600181811c90821680620008b157607f821691505b602082108103620008d257634e487b7160e01b600052602260045260246000fd5b50919050565b601f8211156200092657600081815260208120601f850160051c81016020861015620009015750805b601f850160051c820191505b8181101562000922578281556001016200090d565b5050505b505050565b81516001600160401b0381111562000947576200094762000886565b6200095f816200095884546200089c565b84620008d8565b602080601f8311600181146200099757600084156200097e5750858301515b600019600386901b1c1916600185901b17855562000922565b600085815260208120601f198616915b82811015620009c857888601518255948401946001909101908401620009a7565b5085821015620009e75787850151600019600388901b60f8161c191681555b5050505050600190811b01905550565b60006040820160018060a01b0385168352602060408185015281855480845260608601915060059350606081851b8701016000888152848120815b8481101562000acf57605f198a850301865282825462000a52816200089c565b8087526001828116801562000a70576001811462000a8a5762000ab7565b60ff198416898d01528215158d1b89018c01945062000ab7565b8688528b8820885b8481101562000aaf5781548b82018f0152908301908d0162000a92565b8a018d019550505b50988a01989296505050919091019060010162000a32565b50919a9950505050505050505050565b6000602080838503121562000af357600080fd5b82516001600160401b038082111562000b0b57600080fd5b818501915085601f83011262000b2057600080fd5b81518181111562000b355762000b3562000886565b8060051b604051601f19603f8301168101818110858211171562000b5d5762000b5d62000886565b60405291825284820192508381018501918883111562000b7c57600080fd5b938501935b8285101562000b9c5784518452938501939285019262000b81565b98975050505050505050565b634e487b7160e01b600052603260045260246000fd5b6000815160005b8181101562000be1576020818501810151868301520162000bc5565b50600093019283525090919050565b6c021a922a0aa22902a20a126229609d1b8152600062000c14600d83018662000bbe565b605f60f81b815262000c2a600182018662000bbe565b9050600560fb1b815262000c42600182018562000bbe565b602960f81b81526001019695505050505050565b600062000c64828662000bbe565b605f60f81b80825262000c7b600183018762000bbe565b908152905062000c8f600182018562000bbe565b9695505050505050565b6123998062000ca96000396000f3fe608060405234801561001057600080fd5b50600436106100d45760003560e01c80638da5cb5b11610081578063f2fde38b1161005b578063f2fde38b146101f8578063f398db321461020b578063f52739ab1461021e57600080fd5b80638da5cb5b146101aa5780639201de55146101d2578063d2ea9ad0146101e557600080fd5b8063715018a6116100b2578063715018a61461016f57806371671bf2146101775780637e6c78bd1461019757600080fd5b8063150b7a02146100d95780632e324b10146101475780636e3855181461015c575b600080fd5b6101116100e7366004611561565b7f150b7a020000000000000000000000000000000000000000000000000000000095945050505050565b6040517fffffffff0000000000000000000000000000000000000000000000000000000090911681526020015b60405180910390f35b61015a6101553660046115fc565b610231565b005b61015a61016a366004611631565b610325565b61015a610412565b61018a610185366004611666565b610426565b60405161013e91906116ed565b61015a6101a536600461180d565b6104d2565b60005460405173ffffffffffffffffffffffffffffffffffffffff909116815260200161013e565b61018a6101e0366004611666565b610604565b61015a6101f33660046115fc565b61082a565b61015a6102063660046118d8565b610914565b61015a610219366004611666565b6109d0565b61015a61022c3660046118f3565b610a89565b610239610b5f565b61032060046002815481106102505761025061191f565b906000526020600020015461031b6040518060400160405280600c81526020017f737562736372697074696f6e000000000000000000000000000000000000000081525060046002815481106102a8576102a861191f565b90600052602060002001546040518060600160405280602981526020016122df602991396102dd6102d88a610604565b610be0565b6102e96102d88a610c09565b6102f56102d88a610c32565b6040516020016103079392919061194e565b604051602081830303815290604052610cf0565b610d2f565b505050565b61032d610b5f565b600654620186a00361034157610341610dbf565b6103f860046000815481106103585761035861191f565b906000526020600020015461031b6040518060400160405280600581526020017f67726f757000000000000000000000000000000000000000000000000000000081525060046000815481106103b0576103b061191f565b9060005260206000200154604051806060016040528060358152602001612308603591396103e06102d88a610604565b6103ec6102d88a610c32565b6102f56102d88a610c09565b60068054906000610408836119f3565b9190505550505050565b61041a610b5f565b610424600061107e565b565b6003818154811061043657600080fd5b90600052602060002001600091509050805461045190611a2b565b80601f016020809104026020016040519081016040528092919081815260200182805461047d90611a2b565b80156104ca5780601f1061049f576101008083540402835291602001916104ca565b820191906000526020600020905b8154815290600101906020018083116104ad57829003601f168201915b505050505081565b6104da610b5f565b60005b82518110156105fe576105ec60046001815481106104fd576104fd61191f565b906000526020600020015461031b6040518060400160405280600781526020017f63726561746f720000000000000000000000000000000000000000000000000081525060046001815481106105555761055561191f565b90600052602060002001546040518060400160405280601b81526020017f736368656d615549442c2061747465737465722c2073686172657300000000008152506105a26102d88b610604565b6105c76102d88b8a815181106105ba576105ba61191f565b6020026020010151610c09565b6102f56102d88b8b815181106105df576105df61191f565b6020026020010151610c32565b806105f6816119f3565b9150506104dd565b50505050565b6060600061061460206002611a7e565b60ff1667ffffffffffffffff81111561062f5761062f611700565b6040519080825280601f01601f191660200182016040528015610659576020820181803683370190505b5060408051808201909152601081527f3031323334353637383961626364656600000000000000000000000000000000602082015290915060005b6020811015610800578182518683602081106106b2576106b261191f565b6106be9291901a611ad0565b815181106106ce576106ce61191f565b01602001517fff000000000000000000000000000000000000000000000000000000000000001683610701836002611ae4565b815181106107115761071161191f565b60200101907effffffffffffffffffffffffffffffffffffffffffffffffffffffffffffff1916908160001a9053508182518683602081106107555761075561191f565b6107619291901a611afb565b815181106107715761077161191f565b01602001517fff0000000000000000000000000000000000000000000000000000000000000016836107a4836002611ae4565b6107af906001611b0f565b815181106107bf576107bf61191f565b60200101907effffffffffffffffffffffffffffffffffffffffffffffffffffffffffffff1916908160001a905350806107f8816119f3565b915050610694565b50816040516020016108129190611b22565b60405160208183030381529060405292505050919050565b610832610b5f565b61032060046002815481106108495761084961191f565b906000526020600020015461031b6040518060400160405280600c81526020017f737562736372697074696f6e000000000000000000000000000000000000000081525060046002815481106108a1576108a161191f565b90600052602060002001546108b86102d887610c32565b6040516020016108c89190611b67565b6040516020818303038152906040526108e36102d889610c09565b6108ef6102d88b610604565b604051602001610900929190611bac565b6040516020818303038152906040526110f3565b61091c610b5f565b73ffffffffffffffffffffffffffffffffffffffff81166109c4576040517f08c379a000000000000000000000000000000000000000000000000000000000815260206004820152602660248201527f4f776e61626c653a206e6577206f776e657220697320746865207a65726f206160448201527f646472657373000000000000000000000000000000000000000000000000000060648201526084015b60405180910390fd5b6109cd8161107e565b50565b6109d8610b5f565b6000610a8560046003815481106109f1576109f161191f565b906000526020600020015461031b6040518060400160405280600781526020017f726576656e7565000000000000000000000000000000000000000000000000008152506004600381548110610a4957610a4961191f565b906000526020600020015460405180606001604052806027815260200161233d60279139610a796102d889610604565b6102e96102d889610c32565b5050565b610a91610b5f565b6103206004600381548110610aa857610aa861191f565b906000526020600020015461031b6040518060400160405280600781526020017f726576656e7565000000000000000000000000000000000000000000000000008152506004600381548110610b0057610b0061191f565b9060005260206000200154610b176102d888610c32565b610b236102d888610c32565b604051602001610b34929190611c2d565b604051602081830303815290604052610b4f6102d88a610604565b6040516020016109009190611cae565b60005473ffffffffffffffffffffffffffffffffffffffff163314610424576040517f08c379a000000000000000000000000000000000000000000000000000000000815260206004820181905260248201527f4f776e61626c653a2063616c6c6572206973206e6f7420746865206f776e657260448201526064016109bb565b606081604051602001610bf39190611cf3565b6040516020818303038152906040529050919050565b6060610c2c73ffffffffffffffffffffffffffffffffffffffff8316601461116e565b92915050565b60606000610c3f836113b8565b600101905060008167ffffffffffffffff811115610c5f57610c5f611700565b6040519080825280601f01601f191660200182016040528015610c89576020820181803683370190505b5090508181016020015b7fffffffffffffffffffffffffffffffffffffffffffffffffffffffffffffffff017f3031323334353637383961626364656600000000000000000000000000000000600a86061a8153600a8504945084610c9357509392505050565b60606000610cfe868661149a565b9050808484604051602001610d1593929190611d3d565b604051602081830303815290604052915050949350505050565b6001546040517f377af0da00000000000000000000000000000000000000000000000000000000815273ffffffffffffffffffffffffffffffffffffffff9091169063377af0da90610d8990309086908690600401611e27565b600060405180830381600087803b158015610da357600080fd5b505af1158015610db7573d6000803e3d6000fd5b505050505050565b6001546040517f61a23d0f00000000000000000000000000000000000000000000000000000000815273ffffffffffffffffffffffffffffffffffffffff909116906361a23d0f90610e18903090600290600401611e65565b6000604051808303816000875af1158015610e37573d6000803e3d6000fd5b505050506040513d6000823e601f3d9081017fffffffffffffffffffffffffffffffffffffffffffffffffffffffffffffffe0168201604052610e7d9190810190611f8d565b8051610e91916004916020909101906114d8565b506003610ef16040518060400160405280600581526020017f67726f75700000000000000000000000000000000000000000000000000000008152506004600081548110610ee157610ee161191f565b906000526020600020015461149a565b81546001810183556000928352602090922090910190610f119082612064565b506003610f616040518060400160405280600781526020017f63726561746f72000000000000000000000000000000000000000000000000008152506004600181548110610ee157610ee161191f565b81546001810183556000928352602090922090910190610f819082612064565b506003610fd16040518060400160405280600c81526020017f737562736372697074696f6e00000000000000000000000000000000000000008152506004600281548110610ee157610ee161191f565b81546001810183556000928352602090922090910190610ff19082612064565b5060036110416040518060400160405280600781526020017f726576656e7565000000000000000000000000000000000000000000000000008152506004600381548110610ee157610ee161191f565b815460018101835560009283526020909220909101906110619082612064565b50600060068190556005805491611077836119f3565b9190505550565b6000805473ffffffffffffffffffffffffffffffffffffffff8381167fffffffffffffffffffffffff0000000000000000000000000000000000000000831681178455604051919092169283917f8be0079c531659141344cd1fd0a4f28419497f9722a3daafe3b4186f6b6457e09190a35050565b60606000611101868661149a565b6040805160208101909152600081528451919250901561113e578360405160200161112c919061217e565b60405160208183030381529060405290505b818582604051602001611153939291906121c3565b60405160208183030381529060405292505050949350505050565b6060600061117d836002611ae4565b611188906002611b0f565b67ffffffffffffffff8111156111a0576111a0611700565b6040519080825280601f01601f1916602001820160405280156111ca576020820181803683370190505b5090507f3000000000000000000000000000000000000000000000000000000000000000816000815181106112015761120161191f565b60200101907effffffffffffffffffffffffffffffffffffffffffffffffffffffffffffff1916908160001a9053507f7800000000000000000000000000000000000000000000000000000000000000816001815181106112645761126461191f565b60200101907effffffffffffffffffffffffffffffffffffffffffffffffffffffffffffff1916908160001a90535060006112a0846002611ae4565b6112ab906001611b0f565b90505b6001811115611348577f303132333435363738396162636465660000000000000000000000000000000085600f16601081106112ec576112ec61191f565b1a60f81b8282815181106113025761130261191f565b60200101907effffffffffffffffffffffffffffffffffffffffffffffffffffffffffffff1916908160001a90535060049490941c936113418161225b565b90506112ae565b5083156113b1576040517f08c379a000000000000000000000000000000000000000000000000000000000815260206004820181905260248201527f537472696e67733a20686578206c656e67746820696e73756666696369656e7460448201526064016109bb565b9392505050565b6000807a184f03e93ff9f4daa797ed6e38ed64bf6a1f0100000000000000008310611401577a184f03e93ff9f4daa797ed6e38ed64bf6a1f010000000000000000830492506040015b6d04ee2d6d415b85acef8100000000831061142d576d04ee2d6d415b85acef8100000000830492506020015b662386f26fc10000831061144b57662386f26fc10000830492506010015b6305f5e1008310611463576305f5e100830492506008015b612710831061147757612710830492506004015b60648310611489576064830492506002015b600a8310610c2c5760010192915050565b6060826114a646610c32565b6114af84610c32565b6040516020016114c193929190612290565b604051602081830303815290604052905092915050565b828054828255906000526020600020908101928215611513579160200282015b828111156115135782518255916020019190600101906114f8565b5061151f929150611523565b5090565b5b8082111561151f5760008155600101611524565b803573ffffffffffffffffffffffffffffffffffffffff8116811461155c57600080fd5b919050565b60008060008060006080868803121561157957600080fd5b61158286611538565b945061159060208701611538565b935060408601359250606086013567ffffffffffffffff808211156115b457600080fd5b818801915088601f8301126115c857600080fd5b8135818111156115d757600080fd5b8960208285010111156115e957600080fd5b9699959850939650602001949392505050565b60008060006060848603121561161157600080fd5b8335925061162160208501611538565b9150604084013590509250925092565b60008060006060848603121561164657600080fd5b833592506020840135915061165d60408501611538565b90509250925092565b60006020828403121561167857600080fd5b5035919050565b60005b8381101561169a578181015183820152602001611682565b50506000910152565b600081518084526116bb81602086016020860161167f565b601f017fffffffffffffffffffffffffffffffffffffffffffffffffffffffffffffffe0169290920160200192915050565b6020815260006113b160208301846116a3565b7f4e487b7100000000000000000000000000000000000000000000000000000000600052604160045260246000fd5b604051601f82017fffffffffffffffffffffffffffffffffffffffffffffffffffffffffffffffe016810167ffffffffffffffff8111828210171561177657611776611700565b604052919050565b600067ffffffffffffffff82111561179857611798611700565b5060051b60200190565b600082601f8301126117b357600080fd5b813560206117c86117c38361177e565b61172f565b82815260059290921b840181019181810190868411156117e757600080fd5b8286015b8481101561180257803583529183019183016117eb565b509695505050505050565b60008060006060848603121561182257600080fd5b8335925060208085013567ffffffffffffffff8082111561184257600080fd5b818701915087601f83011261185657600080fd5b81356118646117c38261177e565b81815260059190911b8301840190848101908a83111561188357600080fd5b938501935b828510156118a85761189985611538565b82529385019390850190611888565b9650505060408701359250808311156118c057600080fd5b50506118ce868287016117a2565b9150509250925092565b6000602082840312156118ea57600080fd5b6113b182611538565b60008060006060848603121561190857600080fd5b505081359360208301359350604090920135919050565b7f4e487b7100000000000000000000000000000000000000000000000000000000600052603260045260246000fd5b6000845161196081846020890161167f565b80830190507f2c00000000000000000000000000000000000000000000000000000000000000808252855161199c816001850160208a0161167f565b600192019182015283516119b781600284016020880161167f565b0160020195945050505050565b7f4e487b7100000000000000000000000000000000000000000000000000000000600052601160045260246000fd5b60007fffffffffffffffffffffffffffffffffffffffffffffffffffffffffffffffff8203611a2457611a246119c4565b5060010190565b600181811c90821680611a3f57607f821691505b602082108103611a78577f4e487b7100000000000000000000000000000000000000000000000000000000600052602260045260246000fd5b50919050565b60ff8181168382160290811690818114611a9a57611a9a6119c4565b5092915050565b7f4e487b7100000000000000000000000000000000000000000000000000000000600052601260045260246000fd5b600082611adf57611adf611aa1565b500490565b8082028115828204841417610c2c57610c2c6119c4565b600082611b0a57611b0a611aa1565b500690565b80820180821115610c2c57610c2c6119c4565b7f3078000000000000000000000000000000000000000000000000000000000000815260008251611b5a81600285016020870161167f565b9190910160020192915050565b7f737562736372697074696f6e456e647341743d00000000000000000000000000815260008251611b9f81601385016020870161167f565b9190910160130192915050565b7f737562736372696265723d000000000000000000000000000000000000000000815260008351611be481600b85016020880161167f565b7f616e6420736368656d615549443d000000000000000000000000000000000000600b918401918201528351611c2181601984016020880161167f565b01601901949350505050565b7f746f74616c556e636c61696d65643d0000000000000000000000000000000000815260008351611c6581600f85016020880161167f565b7f202c20746f74616c436c61696d65643d00000000000000000000000000000000600f918401918201528351611ca281601f84016020880161167f565b01601f01949350505050565b7f736368656d615549443d00000000000000000000000000000000000000000000815260008251611ce681600a85016020870161167f565b91909101600a0192915050565b60007f27000000000000000000000000000000000000000000000000000000000000008083528351611d2c81600186016020880161167f565b600193019283015250600201919050565b7f494e5345525420494e544f200000000000000000000000000000000000000000815260008451611d7581600c85016020890161167f565b7f2800000000000000000000000000000000000000000000000000000000000000600c918401918201528451611db281600d84016020890161167f565b7f2956414c55455328000000000000000000000000000000000000000000000000600d92909101918201528351611df081601584016020880161167f565b7f29000000000000000000000000000000000000000000000000000000000000006015929091019182015260160195945050505050565b73ffffffffffffffffffffffffffffffffffffffff84168152826020820152606060408201526000611e5c60608301846116a3565b95945050505050565b60006040820173ffffffffffffffffffffffffffffffffffffffff85168352602060408185015281855480845260608601915060059350606081851b8701016000888152848120815b84811015611f7d577fffffffffffffffffffffffffffffffffffffffffffffffffffffffffffffffa08a8503018652828254611ee981611a2b565b80875260018281168015611f045760018114611f3b57611f66565b7fffffffffffffffffffffffffffffffffffffffffffffffffffffffffffffff0084168c8a01528b8315158e1b8a01019450611f66565b8688528b8820885b84811015611f5e5781548b82018f0152908301908d01611f43565b8a018d019550505b50988a019892965050509190910190600101611eae565b50919a9950505050505050505050565b60006020808385031215611fa057600080fd5b825167ffffffffffffffff811115611fb757600080fd5b8301601f81018513611fc857600080fd5b8051611fd66117c38261177e565b81815260059190911b82018301908381019087831115611ff557600080fd5b928401925b8284101561201357835182529284019290840190611ffa565b979650505050505050565b601f82111561032057600081815260208120601f850160051c810160208610156120455750805b601f850160051c820191505b81811015610db757828155600101612051565b815167ffffffffffffffff81111561207e5761207e611700565b6120928161208c8454611a2b565b8461201e565b602080601f8311600181146120e557600084156120af5750858301515b7fffffffffffffffffffffffffffffffffffffffffffffffffffffffffffffffff600386901b1c1916600185901b178555610db7565b6000858152602081207fffffffffffffffffffffffffffffffffffffffffffffffffffffffffffffffe08616915b8281101561213257888601518255948401946001909101908401612113565b508582101561216e57878501517fffffffffffffffffffffffffffffffffffffffffffffffffffffffffffffffff600388901b60f8161c191681555b5050505050600190811b01905550565b7f20574845524520000000000000000000000000000000000000000000000000008152600082516121b681600785016020870161167f565b9190910160070192915050565b7f55504441544520000000000000000000000000000000000000000000000000008152600084516121fb81600785016020890161167f565b7f2053455420000000000000000000000000000000000000000000000000000000600791840191820152845161223881600c84016020890161167f565b845191019061224e81600c84016020880161167f565b01600c0195945050505050565b60008161226a5761226a6119c4565b507fffffffffffffffffffffffffffffffffffffffffffffffffffffffffffffffff0190565b600084516122a281846020890161167f565b80830190507f5f00000000000000000000000000000000000000000000000000000000000000808252855161199c816001850160208a0161167f56fe736368656d615549442c20737562736372696265722c20737562736372697074696f6e456e64734174736368656d615549442c206d6f6e74686c79537562736372697074696f6e50726963652c2073706c6974746572436f6e7472616374736368656d615549442c20746f74616c556e636c61696d65642c20746f74616c436c61696d6564a2646970667358221220ba614073d865140981104cb2d8c7b88a941697f79b4320c1b0f7ac3e1c081de164736f6c63430008130033736368656d615549442074657874207072696d617279206b65792c20746f74616c556e636c61696d656420746578742c20746f74616c436c61696d65642074657874736368656d6155494420746578742c20617474657374657220746578742c207368617265732074657874736368656d615549442074657874207072696d617279206b65792c206d6f6e74686c79537562736372697074696f6e507269636520746578742c2073706c6974746572436f6e74726163742074657874736368656d6155494420746578742c207375627363726962657220746578742c20737562736372697074696f6e456e647341742074657874",
  "devdoc": {
    "kind": "dev",
    "methods": {
      "owner()": {
        "details": "Returns the address of the current owner."
      },
      "renounceOwnership()": {
        "details": "Leaves the contract without owner. It will not be possible to call `onlyOwner` functions. Can only be called by the current owner. NOTE: Renouncing ownership will leave the contract without an owner, thereby disabling any functionality that is only available to the owner."
      },
      "transferOwnership(address)": {
        "details": "Transfers ownership of the contract to a new account (`newOwner`). Can only be called by the current owner."
      }
    },
    "title": "TAS",
    "version": 1
  },
  "userdoc": {
    "errors": {
      "ChainNotSupported(uint256)": [
        {
          "notice": "Current chain does not have a TablelandTables deployment."
        }
      ]
    },
    "kind": "user",
    "methods": {},
    "notice": "The Tableland Attestation Service protocol.",
    "version": 1
  },
  "storageLayout": {
    "storage": [
      {
        "astId": 396,
        "contract": "contracts/resolver/examples/TablelandSubscriptionsIndexer.sol:TablelandSubscriptionsIndexer",
        "label": "_owner",
        "offset": 0,
        "slot": "0",
        "type": "t_address"
      },
      {
        "astId": 11190,
        "contract": "contracts/resolver/examples/TablelandSubscriptionsIndexer.sol:TablelandSubscriptionsIndexer",
        "label": "tablelandContract",
        "offset": 0,
        "slot": "1",
        "type": "t_contract(ITablelandTables)4963"
      },
      {
        "astId": 11193,
        "contract": "contracts/resolver/examples/TablelandSubscriptionsIndexer.sol:TablelandSubscriptionsIndexer",
        "label": "createTableStatements",
        "offset": 0,
        "slot": "2",
        "type": "t_array(t_string_storage)dyn_storage"
      },
      {
        "astId": 11196,
        "contract": "contracts/resolver/examples/TablelandSubscriptionsIndexer.sol:TablelandSubscriptionsIndexer",
        "label": "tables",
        "offset": 0,
        "slot": "3",
        "type": "t_array(t_string_storage)dyn_storage"
      },
      {
        "astId": 11199,
        "contract": "contracts/resolver/examples/TablelandSubscriptionsIndexer.sol:TablelandSubscriptionsIndexer",
        "label": "tableIDs",
        "offset": 0,
        "slot": "4",
        "type": "t_array(t_uint256)dyn_storage"
      },
      {
        "astId": 11201,
        "contract": "contracts/resolver/examples/TablelandSubscriptionsIndexer.sol:TablelandSubscriptionsIndexer",
        "label": "tablesUpdates",
        "offset": 0,
        "slot": "5",
        "type": "t_uint256"
      },
      {
        "astId": 11203,
        "contract": "contracts/resolver/examples/TablelandSubscriptionsIndexer.sol:TablelandSubscriptionsIndexer",
        "label": "tablesRowsCounter",
        "offset": 0,
        "slot": "6",
        "type": "t_uint256"
      }
    ],
    "types": {
      "t_address": {
        "encoding": "inplace",
        "label": "address",
        "numberOfBytes": "20"
      },
      "t_array(t_string_storage)dyn_storage": {
        "base": "t_string_storage",
        "encoding": "dynamic_array",
        "label": "string[]",
        "numberOfBytes": "32"
      },
      "t_array(t_uint256)dyn_storage": {
        "base": "t_uint256",
        "encoding": "dynamic_array",
        "label": "uint256[]",
        "numberOfBytes": "32"
      },
      "t_contract(ITablelandTables)4963": {
        "encoding": "inplace",
        "label": "contract ITablelandTables",
        "numberOfBytes": "20"
      },
      "t_string_storage": {
        "encoding": "bytes",
        "label": "string",
        "numberOfBytes": "32"
      },
      "t_uint256": {
        "encoding": "inplace",
        "label": "uint256",
        "numberOfBytes": "32"
      }
    }
  }
}