{
  "address": "0x7797761F5dF176c4Df8583f34B656E9f5AF6C740",
  "abi": [
    {
      "inputs": [
        {
          "internalType": "contract ITASIndexer",
          "name": "_tableland",
          "type": "address"
        },
        {
          "internalType": "contract ISchemaRegistry",
          "name": "registry",
          "type": "address"
        }
      ],
      "stateMutability": "nonpayable",
      "type": "constructor"
    },
    {
      "inputs": [],
      "name": "AccessDenied",
      "type": "error"
    },
    {
      "inputs": [],
      "name": "AlreadyRevoked",
      "type": "error"
    },
    {
      "inputs": [],
      "name": "AlreadyRevokedOffchain",
      "type": "error"
    },
    {
      "inputs": [],
      "name": "AlreadyTimestamped",
      "type": "error"
    },
    {
      "inputs": [],
      "name": "DeadlineExpired",
      "type": "error"
    },
    {
      "inputs": [],
      "name": "InsufficientValue",
      "type": "error"
    },
    {
      "inputs": [],
      "name": "InvalidAttestation",
      "type": "error"
    },
    {
      "inputs": [],
      "name": "InvalidAttestations",
      "type": "error"
    },
    {
      "inputs": [],
      "name": "InvalidExpirationTime",
      "type": "error"
    },
    {
      "inputs": [],
      "name": "InvalidLength",
      "type": "error"
    },
    {
      "inputs": [],
      "name": "InvalidNonce",
      "type": "error"
    },
    {
      "inputs": [],
      "name": "InvalidOffset",
      "type": "error"
    },
    {
      "inputs": [],
      "name": "InvalidRegistry",
      "type": "error"
    },
    {
      "inputs": [],
      "name": "InvalidRevocation",
      "type": "error"
    },
    {
      "inputs": [],
      "name": "InvalidRevocations",
      "type": "error"
    },
    {
      "inputs": [],
      "name": "InvalidSchema",
      "type": "error"
    },
    {
      "inputs": [],
      "name": "InvalidShortString",
      "type": "error"
    },
    {
      "inputs": [],
      "name": "InvalidSignature",
      "type": "error"
    },
    {
      "inputs": [],
      "name": "InvalidVerifier",
      "type": "error"
    },
    {
      "inputs": [],
      "name": "Irrevocable",
      "type": "error"
    },
    {
      "inputs": [],
      "name": "NotFound",
      "type": "error"
    },
    {
      "inputs": [],
      "name": "NotPayable",
      "type": "error"
    },
    {
      "inputs": [
        {
          "internalType": "string",
          "name": "str",
          "type": "string"
        }
      ],
      "name": "StringTooLong",
      "type": "error"
    },
    {
      "inputs": [],
      "name": "WrongSchema",
      "type": "error"
    },
    {
      "anonymous": false,
      "inputs": [],
      "name": "EIP712DomainChanged",
      "type": "event"
    },
    {
      "inputs": [
        {
          "components": [
            {
              "internalType": "bytes32",
              "name": "schema",
              "type": "bytes32"
            },
            {
              "components": [
                {
                  "internalType": "address",
                  "name": "recipient",
                  "type": "address"
                },
                {
                  "internalType": "uint64",
                  "name": "expirationTime",
                  "type": "uint64"
                },
                {
                  "internalType": "bool",
                  "name": "revocable",
                  "type": "bool"
                },
                {
                  "internalType": "bytes32",
                  "name": "refUID",
                  "type": "bytes32"
                },
                {
                  "internalType": "bytes",
                  "name": "data",
                  "type": "bytes"
                },
                {
                  "internalType": "uint256",
                  "name": "value",
                  "type": "uint256"
                }
              ],
              "internalType": "struct AttestationRequestData",
              "name": "data",
              "type": "tuple"
            }
          ],
          "internalType": "struct AttestationRequest",
          "name": "request",
          "type": "tuple"
        }
      ],
      "name": "attest",
      "outputs": [
        {
          "internalType": "bytes32",
          "name": "",
          "type": "bytes32"
        }
      ],
      "stateMutability": "payable",
      "type": "function"
    },
    {
      "inputs": [
        {
          "components": [
            {
              "internalType": "bytes32",
              "name": "schema",
              "type": "bytes32"
            },
            {
              "components": [
                {
                  "internalType": "address",
                  "name": "recipient",
                  "type": "address"
                },
                {
                  "internalType": "uint64",
                  "name": "expirationTime",
                  "type": "uint64"
                },
                {
                  "internalType": "bool",
                  "name": "revocable",
                  "type": "bool"
                },
                {
                  "internalType": "bytes32",
                  "name": "refUID",
                  "type": "bytes32"
                },
                {
                  "internalType": "bytes",
                  "name": "data",
                  "type": "bytes"
                },
                {
                  "internalType": "uint256",
                  "name": "value",
                  "type": "uint256"
                }
              ],
              "internalType": "struct AttestationRequestData",
              "name": "data",
              "type": "tuple"
            },
            {
              "components": [
                {
                  "internalType": "uint8",
                  "name": "v",
                  "type": "uint8"
                },
                {
                  "internalType": "bytes32",
                  "name": "r",
                  "type": "bytes32"
                },
                {
                  "internalType": "bytes32",
                  "name": "s",
                  "type": "bytes32"
                }
              ],
              "internalType": "struct Signature",
              "name": "signature",
              "type": "tuple"
            },
            {
              "internalType": "address",
              "name": "attester",
              "type": "address"
            },
            {
              "internalType": "uint64",
              "name": "deadline",
              "type": "uint64"
            }
          ],
          "internalType": "struct DelegatedAttestationRequest",
          "name": "delegatedRequest",
          "type": "tuple"
        }
      ],
      "name": "attestByDelegation",
      "outputs": [
        {
          "internalType": "bytes32",
          "name": "",
          "type": "bytes32"
        }
      ],
      "stateMutability": "payable",
      "type": "function"
    },
    {
      "inputs": [],
      "name": "eip712Domain",
      "outputs": [
        {
          "internalType": "bytes1",
          "name": "fields",
          "type": "bytes1"
        },
        {
          "internalType": "string",
          "name": "name",
          "type": "string"
        },
        {
          "internalType": "string",
          "name": "version",
          "type": "string"
        },
        {
          "internalType": "uint256",
          "name": "chainId",
          "type": "uint256"
        },
        {
          "internalType": "address",
          "name": "verifyingContract",
          "type": "address"
        },
        {
          "internalType": "bytes32",
          "name": "salt",
          "type": "bytes32"
        },
        {
          "internalType": "uint256[]",
          "name": "extensions",
          "type": "uint256[]"
        }
      ],
      "stateMutability": "view",
      "type": "function"
    },
    {
      "inputs": [],
      "name": "getAttestTypeHash",
      "outputs": [
        {
          "internalType": "bytes32",
          "name": "",
          "type": "bytes32"
        }
      ],
      "stateMutability": "pure",
      "type": "function"
    },
    {
      "inputs": [
        {
          "internalType": "bytes32",
          "name": "uid",
          "type": "bytes32"
        }
      ],
      "name": "getAttestation",
      "outputs": [
        {
          "components": [
            {
              "internalType": "bytes32",
              "name": "uid",
              "type": "bytes32"
            },
            {
              "internalType": "bytes32",
              "name": "schema",
              "type": "bytes32"
            },
            {
              "internalType": "uint64",
              "name": "time",
              "type": "uint64"
            },
            {
              "internalType": "uint64",
              "name": "expirationTime",
              "type": "uint64"
            },
            {
              "internalType": "uint64",
              "name": "revocationTime",
              "type": "uint64"
            },
            {
              "internalType": "bytes32",
              "name": "refUID",
              "type": "bytes32"
            },
            {
              "internalType": "address",
              "name": "recipient",
              "type": "address"
            },
            {
              "internalType": "address",
              "name": "attester",
              "type": "address"
            },
            {
              "internalType": "bool",
              "name": "revocable",
              "type": "bool"
            },
            {
              "internalType": "bytes",
              "name": "data",
              "type": "bytes"
            }
          ],
          "internalType": "struct Attestation",
          "name": "",
          "type": "tuple"
        }
      ],
      "stateMutability": "view",
      "type": "function"
    },
    {
      "inputs": [],
      "name": "getDomainSeparator",
      "outputs": [
        {
          "internalType": "bytes32",
          "name": "",
          "type": "bytes32"
        }
      ],
      "stateMutability": "view",
      "type": "function"
    },
    {
      "inputs": [],
      "name": "getName",
      "outputs": [
        {
          "internalType": "string",
          "name": "",
          "type": "string"
        }
      ],
      "stateMutability": "view",
      "type": "function"
    },
    {
      "inputs": [
        {
          "internalType": "address",
          "name": "account",
          "type": "address"
        }
      ],
      "name": "getNonce",
      "outputs": [
        {
          "internalType": "uint256",
          "name": "",
          "type": "uint256"
        }
      ],
      "stateMutability": "view",
      "type": "function"
    },
    {
      "inputs": [],
      "name": "getRevokeTypeHash",
      "outputs": [
        {
          "internalType": "bytes32",
          "name": "",
          "type": "bytes32"
        }
      ],
      "stateMutability": "pure",
      "type": "function"
    },
    {
      "inputs": [],
      "name": "getSchemaRegistry",
      "outputs": [
        {
          "internalType": "contract ISchemaRegistry",
          "name": "",
          "type": "address"
        }
      ],
      "stateMutability": "view",
      "type": "function"
    },
    {
      "inputs": [],
      "name": "getTime",
      "outputs": [
        {
          "internalType": "uint256",
          "name": "",
          "type": "uint256"
        }
      ],
      "stateMutability": "view",
      "type": "function"
    },
    {
      "inputs": [
        {
          "internalType": "uint256",
          "name": "newNonce",
          "type": "uint256"
        }
      ],
      "name": "increaseNonce",
      "outputs": [],
      "stateMutability": "nonpayable",
      "type": "function"
    },
    {
      "inputs": [
        {
          "internalType": "bytes32",
          "name": "uid",
          "type": "bytes32"
        }
      ],
      "name": "isAttestationValid",
      "outputs": [
        {
          "internalType": "bool",
          "name": "",
          "type": "bool"
        }
      ],
      "stateMutability": "view",
      "type": "function"
    },
    {
      "inputs": [
        {
          "components": [
            {
              "internalType": "bytes32",
              "name": "schema",
              "type": "bytes32"
            },
            {
              "components": [
                {
                  "internalType": "address",
                  "name": "recipient",
                  "type": "address"
                },
                {
                  "internalType": "uint64",
                  "name": "expirationTime",
                  "type": "uint64"
                },
                {
                  "internalType": "bool",
                  "name": "revocable",
                  "type": "bool"
                },
                {
                  "internalType": "bytes32",
                  "name": "refUID",
                  "type": "bytes32"
                },
                {
                  "internalType": "bytes",
                  "name": "data",
                  "type": "bytes"
                },
                {
                  "internalType": "uint256",
                  "name": "value",
                  "type": "uint256"
                }
              ],
              "internalType": "struct AttestationRequestData[]",
              "name": "data",
              "type": "tuple[]"
            }
          ],
          "internalType": "struct MultiAttestationRequest[]",
          "name": "multiRequests",
          "type": "tuple[]"
        }
      ],
      "name": "multiAttest",
      "outputs": [
        {
          "internalType": "bytes32[]",
          "name": "",
          "type": "bytes32[]"
        }
      ],
      "stateMutability": "payable",
      "type": "function"
    },
    {
      "inputs": [
        {
          "components": [
            {
              "internalType": "bytes32",
              "name": "schema",
              "type": "bytes32"
            },
            {
              "components": [
                {
                  "internalType": "address",
                  "name": "recipient",
                  "type": "address"
                },
                {
                  "internalType": "uint64",
                  "name": "expirationTime",
                  "type": "uint64"
                },
                {
                  "internalType": "bool",
                  "name": "revocable",
                  "type": "bool"
                },
                {
                  "internalType": "bytes32",
                  "name": "refUID",
                  "type": "bytes32"
                },
                {
                  "internalType": "bytes",
                  "name": "data",
                  "type": "bytes"
                },
                {
                  "internalType": "uint256",
                  "name": "value",
                  "type": "uint256"
                }
              ],
              "internalType": "struct AttestationRequestData[]",
              "name": "data",
              "type": "tuple[]"
            },
            {
              "components": [
                {
                  "internalType": "uint8",
                  "name": "v",
                  "type": "uint8"
                },
                {
                  "internalType": "bytes32",
                  "name": "r",
                  "type": "bytes32"
                },
                {
                  "internalType": "bytes32",
                  "name": "s",
                  "type": "bytes32"
                }
              ],
              "internalType": "struct Signature[]",
              "name": "signatures",
              "type": "tuple[]"
            },
            {
              "internalType": "address",
              "name": "attester",
              "type": "address"
            },
            {
              "internalType": "uint64",
              "name": "deadline",
              "type": "uint64"
            }
          ],
          "internalType": "struct MultiDelegatedAttestationRequest[]",
          "name": "multiDelegatedRequests",
          "type": "tuple[]"
        }
      ],
      "name": "multiAttestByDelegation",
      "outputs": [
        {
          "internalType": "bytes32[]",
          "name": "",
          "type": "bytes32[]"
        }
      ],
      "stateMutability": "payable",
      "type": "function"
    },
    {
      "inputs": [
        {
          "components": [
            {
              "internalType": "bytes32",
              "name": "schema",
              "type": "bytes32"
            },
            {
              "components": [
                {
                  "internalType": "bytes32",
                  "name": "uid",
                  "type": "bytes32"
                },
                {
                  "internalType": "uint256",
                  "name": "value",
                  "type": "uint256"
                }
              ],
              "internalType": "struct RevocationRequestData[]",
              "name": "data",
              "type": "tuple[]"
            }
          ],
          "internalType": "struct MultiRevocationRequest[]",
          "name": "multiRequests",
          "type": "tuple[]"
        }
      ],
      "name": "multiRevoke",
      "outputs": [],
      "stateMutability": "payable",
      "type": "function"
    },
    {
      "inputs": [
        {
          "components": [
            {
              "internalType": "bytes32",
              "name": "schema",
              "type": "bytes32"
            },
            {
              "components": [
                {
                  "internalType": "bytes32",
                  "name": "uid",
                  "type": "bytes32"
                },
                {
                  "internalType": "uint256",
                  "name": "value",
                  "type": "uint256"
                }
              ],
              "internalType": "struct RevocationRequestData[]",
              "name": "data",
              "type": "tuple[]"
            },
            {
              "components": [
                {
                  "internalType": "uint8",
                  "name": "v",
                  "type": "uint8"
                },
                {
                  "internalType": "bytes32",
                  "name": "r",
                  "type": "bytes32"
                },
                {
                  "internalType": "bytes32",
                  "name": "s",
                  "type": "bytes32"
                }
              ],
              "internalType": "struct Signature[]",
              "name": "signatures",
              "type": "tuple[]"
            },
            {
              "internalType": "address",
              "name": "revoker",
              "type": "address"
            },
            {
              "internalType": "uint64",
              "name": "deadline",
              "type": "uint64"
            }
          ],
          "internalType": "struct MultiDelegatedRevocationRequest[]",
          "name": "multiDelegatedRequests",
          "type": "tuple[]"
        }
      ],
      "name": "multiRevokeByDelegation",
      "outputs": [],
      "stateMutability": "payable",
      "type": "function"
    },
    {
      "inputs": [
        {
          "internalType": "bytes32[]",
          "name": "data",
          "type": "bytes32[]"
        }
      ],
      "name": "multiRevokeOffchain",
      "outputs": [
        {
          "internalType": "uint64",
          "name": "",
          "type": "uint64"
        }
      ],
      "stateMutability": "nonpayable",
      "type": "function"
    },
    {
      "inputs": [
        {
          "internalType": "bytes32[]",
          "name": "data",
          "type": "bytes32[]"
        }
      ],
      "name": "multiTimestamp",
      "outputs": [
        {
          "internalType": "uint64",
          "name": "",
          "type": "uint64"
        }
      ],
      "stateMutability": "nonpayable",
      "type": "function"
    },
    {
      "inputs": [
        {
          "components": [
            {
              "internalType": "bytes32",
              "name": "schema",
              "type": "bytes32"
            },
            {
              "components": [
                {
                  "internalType": "bytes32",
                  "name": "uid",
                  "type": "bytes32"
                },
                {
                  "internalType": "uint256",
                  "name": "value",
                  "type": "uint256"
                }
              ],
              "internalType": "struct RevocationRequestData",
              "name": "data",
              "type": "tuple"
            }
          ],
          "internalType": "struct RevocationRequest",
          "name": "request",
          "type": "tuple"
        }
      ],
      "name": "revoke",
      "outputs": [],
      "stateMutability": "payable",
      "type": "function"
    },
    {
      "inputs": [
        {
          "components": [
            {
              "internalType": "bytes32",
              "name": "schema",
              "type": "bytes32"
            },
            {
              "components": [
                {
                  "internalType": "bytes32",
                  "name": "uid",
                  "type": "bytes32"
                },
                {
                  "internalType": "uint256",
                  "name": "value",
                  "type": "uint256"
                }
              ],
              "internalType": "struct RevocationRequestData",
              "name": "data",
              "type": "tuple"
            },
            {
              "components": [
                {
                  "internalType": "uint8",
                  "name": "v",
                  "type": "uint8"
                },
                {
                  "internalType": "bytes32",
                  "name": "r",
                  "type": "bytes32"
                },
                {
                  "internalType": "bytes32",
                  "name": "s",
                  "type": "bytes32"
                }
              ],
              "internalType": "struct Signature",
              "name": "signature",
              "type": "tuple"
            },
            {
              "internalType": "address",
              "name": "revoker",
              "type": "address"
            },
            {
              "internalType": "uint64",
              "name": "deadline",
              "type": "uint64"
            }
          ],
          "internalType": "struct DelegatedRevocationRequest",
          "name": "delegatedRequest",
          "type": "tuple"
        }
      ],
      "name": "revokeByDelegation",
      "outputs": [],
      "stateMutability": "payable",
      "type": "function"
    },
    {
      "inputs": [
        {
          "internalType": "bytes32",
          "name": "data",
          "type": "bytes32"
        }
      ],
      "name": "revokeOffchain",
      "outputs": [
        {
          "internalType": "uint64",
          "name": "",
          "type": "uint64"
        }
      ],
      "stateMutability": "nonpayable",
      "type": "function"
    },
    {
      "inputs": [
        {
          "internalType": "bytes32",
          "name": "data",
          "type": "bytes32"
        }
      ],
      "name": "timestamp",
      "outputs": [
        {
          "internalType": "uint64",
          "name": "",
          "type": "uint64"
        }
      ],
      "stateMutability": "nonpayable",
      "type": "function"
    },
    {
      "inputs": [],
      "name": "version",
      "outputs": [
        {
          "internalType": "string",
          "name": "",
          "type": "string"
        }
      ],
      "stateMutability": "view",
      "type": "function"
    }
  ],
  "transactionHash": "0xbfba66b82248e344c513c363514d8fa90fcffb64025b7231871c48e60e1047fd",
  "args": [
    "0x2287157ac01B3FB7B54fc95b1d324d7289858F64",
    "0xCE6461EB5C794B00136f4ce32125d6ba6cCae87e"
  ],
  "numDeployments": 1,
  "solcInputHash": "87ba016727d438d1ed10dd164bae6c22",
  "bytecode": "0x6101e06040523480156200001257600080fd5b5060405162004c3338038062004c33833981016040819052620000359162000240565b604080518082018252600381526254415360e81b60208083019190915282518084019093526005835264302e302e3160d81b908301526000608081905260a0819052600160c0529091908290829062000090908390620001a2565b61018052620000a1816001620001a2565b6101a052815160208084019190912061014052815190820120610160524661010052620001326101405161016051604080517f8b73c3c69bb8fe3d512ecc4cf759cc79239f7b179b0ffacaa9a75d522b39400f60208201529081019290925260608201524660808201523060a082015260009060c00160405160208183030381529060405280519060200120905090565b60e0525050306101205260026200014a838262000324565b5050506001600160a01b03811662000175576040516311a1e69760e01b815260040160405180910390fd5b6001600160a01b039081166101c052600480546001600160a01b0319169290911691909117905562000465565b6000602083511015620001c257620001ba83620001db565b9050620001d5565b81620001cf848262000324565b5060ff90505b92915050565b600080829050601f8151111562000212578260405163305a27a960e01b8152600401620002099190620003f0565b60405180910390fd5b80516200021f8262000440565b179392505050565b6001600160a01b03811681146200023d57600080fd5b50565b600080604083850312156200025457600080fd5b8251620002618162000227565b6020840151909250620002748162000227565b809150509250929050565b634e487b7160e01b600052604160045260246000fd5b600181811c90821680620002aa57607f821691505b602082108103620002cb57634e487b7160e01b600052602260045260246000fd5b50919050565b601f8211156200031f57600081815260208120601f850160051c81016020861015620002fa5750805b601f850160051c820191505b818110156200031b5782815560010162000306565b5050505b505050565b81516001600160401b038111156200034057620003406200027f565b620003588162000351845462000295565b84620002d1565b602080601f831160018114620003905760008415620003775750858301515b600019600386901b1c1916600185901b1785556200031b565b600085815260208120601f198616915b82811015620003c157888601518255948401946001909101908401620003a0565b5085821015620003e05787850151600019600388901b60f8161c191681555b5050505050600190811b01905550565b600060208083528351808285015260005b818110156200041f5785810183015185820160400152820162000401565b506000604082860101526040601f19601f8301168501019250505092915050565b80516020808301519190811015620002cb5760001960209190910360031b1b16919050565b60805160a05160c05160e05161010051610120516101405161016051610180516101a0516101c051614739620004fa600039600081816104b90152818161145f0152611dcf01526000610c1901526000610bef015260006128770152600061284f015260006127aa015260006127d4015260006127fe01526000610b3d01526000610b1401526000610aeb01526147396000f3fe60806040526004361061018b5760003560e01c806379f7573a116100d6578063cf190f341161007f578063ed24911d11610059578063ed24911d1461047d578063f10b5cc814610492578063f17325e7146104e357600080fd5b8063cf190f34146103fe578063e30bb5631461041e578063e71ff3651461045d57600080fd5b8063a3112a64116100b0578063a3112a641461038b578063a6d4dbc7146103b8578063b83010d3146103cb57600080fd5b806379f7573a1461033057806384b0196e14610350578063954115251461037857600080fd5b806344adc90e116101385780634d003070116101125780634d003070146102de57806354fd4d50146102fe578063557ed1ba1461031357600080fd5b806344adc90e1461029857806346926267146102b85780634cb7e9e5146102cb57600080fd5b806317d7de7c1161016957806317d7de7c146102205780632d0335ab146102425780633c0427151461028557600080fd5b80630eabf6601461019057806312b11a17146101a557806313893f61146101e7575b600080fd5b6101a361019e366004613666565b6104f6565b005b3480156101b157600080fd5b507ff83bb2b0ede93a840239f7e701a54d9bc35f03701f51ae153d601c6947ff3d3f5b6040519081526020015b60405180910390f35b3480156101f357600080fd5b50610207610202366004613666565b61066f565b60405167ffffffffffffffff90911681526020016101de565b34801561022c57600080fd5b506102356106b4565b6040516101de91906136f8565b34801561024e57600080fd5b506101d461025d366004613744565b73ffffffffffffffffffffffffffffffffffffffff1660009081526003602052604090205490565b6101d4610293366004613761565b610746565b6102ab6102a6366004613666565b61082b565b6040516101de919061379c565b6101a36102c63660046137e0565b61098e565b6101a36102d9366004613666565b610a12565b3480156102ea57600080fd5b506102076102f93660046137f8565b610ad7565b34801561030a57600080fd5b50610235610ae4565b34801561031f57600080fd5b504267ffffffffffffffff166101d4565b34801561033c57600080fd5b506101a361034b3660046137f8565b610b87565b34801561035c57600080fd5b50610365610be1565b6040516101de979695949392919061384c565b6102ab610386366004613666565b610c85565b34801561039757600080fd5b506103ab6103a63660046137f8565b610eda565b6040516101de91906139bc565b6101a36103c63660046139cf565b61109d565b3480156103d757600080fd5b507f2d4116d8c9824e4c316453e5c2843a1885580374159ce8768603c49085ef424c6101d4565b34801561040a57600080fd5b506102076104193660046137f8565b611142565b34801561042a57600080fd5b5061044d6104393660046137f8565b600090815260056020526040902054151590565b60405190151581526020016101de565b34801561046957600080fd5b50610207610478366004613666565b611150565b34801561048957600080fd5b506101d4611188565b34801561049e57600080fd5b5060405173ffffffffffffffffffffffffffffffffffffffff7f00000000000000000000000000000000000000000000000000000000000000001681526020016101de565b6101d46104f13660046139e2565b611197565b348160005b818110156106685760001982018114600086868481811061051e5761051e613a1d565b90506020028101906105309190613a4c565b61053990613cc4565b602081015180519192509080158061055657508260400151518114155b1561058d576040517f947d5a8400000000000000000000000000000000000000000000000000000000815260040160405180910390fd5b60005b81811015610631576106296040518060a00160405280866000015181526020018584815181106105c2576105c2613a1d565b60200260200101518152602001866040015184815181106105e5576105e5613a1d565b60200260200101518152602001866060015173ffffffffffffffffffffffffffffffffffffffff168152602001866080015167ffffffffffffffff16815250611237565b600101610590565b5061064783600001518385606001518a88611416565b6106519088613dbf565b9650505050506106618160010190565b90506104fb565b5050505050565b60004282825b818110156106a8576106a03387878481811061069357610693613a1d565b9050602002013585611a60565b600101610675565b50909150505b92915050565b6060600280546106c390613df9565b80601f01602080910402602001604051908101604052809291908181526020018280546106ef90613df9565b801561073c5780601f106107115761010080835404028352916020019161073c565b820191906000526020600020905b81548152906001019060200180831161071f57829003601f168201915b5050505050905090565b600061075961075483613f4a565b611bb5565b604080516001808252818301909252600091816020015b6040805160c081018252600080825260208083018290529282018190526060808301829052608083015260a082015282526000199092019101816107705790505090506107c06020840184613fc5565b6107c990613ff9565b816000815181106107dc576107dc613a1d565b60209081029190910101526108058335826107fd60c0870160a08801613744565b346001611d29565b6020015160008151811061081b5761081b613a1d565b6020026020010151915050919050565b60608160008167ffffffffffffffff81111561084957610849613a8a565b60405190808252806020026020018201604052801561087c57816020015b60608152602001906001900390816108675790505b509050600034815b848110156109785760001985018114368989848181106108a6576108a6613a1d565b90506020028101906108b89190614005565b90506108c76020820182614039565b9050600003610902576040517f947d5a8400000000000000000000000000000000000000000000000000000000815260040160405180910390fd5b600061092782356109166020850185614039565b61091f916140a1565b338887611d29565b80519091506109369086613dbf565b9450806020015187858151811061094f5761094f613a1d565b6020026020010181905250806020015151860195505050506109718160010190565b9050610884565b506109838383612437565b979650505050505050565b604080516001808252818301909252600091816020015b60408051808201909152600080825260208201528152602001906001900390816109a55790505090506109e036839003830160208401614115565b816000815181106109f3576109f3613a1d565b6020908102919091010152610a0d82358233346001611416565b505050565b348160005b81811015610668576000198201811436868684818110610a3957610a39613a1d565b9050602002810190610a4b9190614005565b9050610ab88135610a5f6020840184614131565b808060200260200160405190810160405280939291908181526020016000905b82821015610aab57610a9c60408302860136819003810190614115565b81526020019060010190610a7f565b5050505050338886611416565b610ac29086613dbf565b94505050610ad08160010190565b9050610a17565b6000426106ae8382612521565b6060610b0f7f0000000000000000000000000000000000000000000000000000000000000000612645565b610b387f0000000000000000000000000000000000000000000000000000000000000000612645565b610b617f0000000000000000000000000000000000000000000000000000000000000000612645565b604051602001610b7393929190614199565b604051602081830303815290604052905090565b336000908152600360205260409020548111610bcf576040517f756688fe00000000000000000000000000000000000000000000000000000000815260040160405180910390fd5b33600090815260036020526040902055565b600060608082808083610c147f0000000000000000000000000000000000000000000000000000000000000000836126e5565b610c3f7f000000000000000000000000000000000000000000000000000000000000000060016126e5565b604080516000808252602082019092527f0f000000000000000000000000000000000000000000000000000000000000009b939a50919850469750309650945092509050565b60608160008167ffffffffffffffff811115610ca357610ca3613a8a565b604051908082528060200260200182016040528015610cd657816020015b6060815260200190600190039081610cc15790505b509050600034815b84811015610978576000198501811436898984818110610d0057610d00613a1d565b9050602002810190610d129190613a4c565b9050366000610d246020840184614039565b909250905080801580610d455750610d3f604085018561420f565b90508114155b15610d7c576040517f947d5a8400000000000000000000000000000000000000000000000000000000815260040160405180910390fd5b60005b81811015610e5d57610e556040518060a0016040528087600001358152602001868685818110610db157610db1613a1d565b9050602002810190610dc39190613fc5565b610dcc90613ff9565b8152602001610dde604089018961420f565b85818110610dee57610dee613a1d565b905060600201803603810190610e049190614276565b8152602001610e196080890160608a01613744565b73ffffffffffffffffffffffffffffffffffffffff168152602001610e4460a0890160808a01614292565b67ffffffffffffffff169052611bb5565b600101610d7f565b506000610e868535610e6f85876140a1565b610e7f6080890160608a01613744565b8b8a611d29565b8051909150610e959089613dbf565b975080602001518a8881518110610eae57610eae613a1d565b602002602001018190525080602001515189019850505050505050610ed38160010190565b9050610cde565b604080516101408101825260008082526020820181905291810182905260608082018390526080820183905260a0820183905260c0820183905260e0820183905261010082019290925261012081019190915260008281526005602081815260409283902083516101408101855281548152600182015492810192909252600281015467ffffffffffffffff808216958401959095526801000000000000000081048516606084015270010000000000000000000000000000000090049093166080820152600383015460a0820152600483015473ffffffffffffffffffffffffffffffffffffffff90811660c08301529183015491821660e08201527401000000000000000000000000000000000000000090910460ff1615156101008201526006820180549192916101208401919061101490613df9565b80601f016020809104026020016040519081016040528092919081815260200182805461104090613df9565b801561108d5780601f106110625761010080835404028352916020019161108d565b820191906000526020600020905b81548152906001019060200180831161107057829003601f168201915b5050505050815250509050919050565b6110b46110af368390038301836142ad565b611237565b604080516001808252818301909252600091816020015b60408051808201909152600080825260208201528152602001906001900390816110cb57905050905061110636839003830160208401614115565b8160008151811061111957611119613a1d565b6020908102919091010152610a0d82358261113a60e0860160c08701613744565b346001611416565b6000426106ae338483611a60565b60004282825b818110156106a85761118086868381811061117357611173613a1d565b9050602002013584612521565b600101611156565b6000611192612790565b905090565b604080516001808252818301909252600091829190816020015b6040805160c081018252600080825260208083018290529282018190526060808301829052608083015260a082015282526000199092019101816111b15790505090506112016020840184613fc5565b61120a90613ff9565b8160008151811061121d5761121d613a1d565b602090810291909101015261080583358233346001611d29565b608081015167ffffffffffffffff161580159061126c57504267ffffffffffffffff16816080015167ffffffffffffffff1611155b156112a3576040517f1ab7da6b00000000000000000000000000000000000000000000000000000000815260040160405180910390fd5b60208181015160408084015160608086015173ffffffffffffffffffffffffffffffffffffffff1660009081526003865283812080546001810190915587518651878901516080808c015189517f2d4116d8c9824e4c316453e5c2843a1885580374159ce8768603c49085ef424c9c81019c909c52988b01939093529489015287019290925260a0860182905267ffffffffffffffff90931660c086015292939092919061136a9060e0015b604051602081830303815290604052805190602001206128c8565b90506113e08560600151828560200151866040015187600001516040516020016113cc93929190928352602083019190915260f81b7fff0000000000000000000000000000000000000000000000000000000000000016604082015260410190565b604051602081830303815290604052612910565b610668576040517f8baa579f00000000000000000000000000000000000000000000000000000000815260040160405180910390fd5b6040517fa2ea7c6e00000000000000000000000000000000000000000000000000000000815260048101869052600090819073ffffffffffffffffffffffffffffffffffffffff7f0000000000000000000000000000000000000000000000000000000000000000169063a2ea7c6e90602401600060405180830381865afa1580156114a6573d6000803e3d6000fd5b505050506040513d6000823e601f3d908101601f191682016040526114ce919081019061431b565b8051909150611509576040517fbf37b20e00000000000000000000000000000000000000000000000000000000815260040160405180910390fd5b855160008167ffffffffffffffff81111561152657611526613a8a565b6040519080825280602002602001820160405280156115a757816020015b60408051610140810182526000808252602080830182905292820181905260608083018290526080830182905260a0830182905260c0830182905260e0830182905261010083019190915261012082015282526000199092019101816115445790505b50905060008267ffffffffffffffff8111156115c5576115c5613a8a565b6040519080825280602002602001820160405280156115ee578160200160208202803683370190505b50905060005b83811015611a425760008a828151811061161057611610613a1d565b6020908102919091018101518051600090815260059092526040909120805491925090611669576040517fc5723b5100000000000000000000000000000000000000000000000000000000815260040160405180910390fd5b8c8160010154146116a6576040517fbf37b20e00000000000000000000000000000000000000000000000000000000815260040160405180910390fd5b600581015473ffffffffffffffffffffffffffffffffffffffff8c81169116146116fc576040517f4ca8886700000000000000000000000000000000000000000000000000000000815260040160405180910390fd5b600581015474010000000000000000000000000000000000000000900460ff16611752576040517f157bd4c300000000000000000000000000000000000000000000000000000000815260040160405180910390fd5b6002810154700100000000000000000000000000000000900467ffffffffffffffff16156117ac576040517f905e710700000000000000000000000000000000000000000000000000000000815260040160405180910390fd5b426002820180547fffffffffffffffff0000000000000000ffffffffffffffffffffffffffffffff811670010000000000000000000000000000000067ffffffffffffffff948516810291821793849055604080516101408101825287548152600188015460208201529386169286169290921791830191909152680100000000000000008304841660608301529091049091166080820152600382015460a0820152600482015473ffffffffffffffffffffffffffffffffffffffff90811660c0830152600583015490811660e083015274010000000000000000000000000000000000000000900460ff16151561010082015260068201805483916101208401916118b890613df9565b80601f01602080910402602001604051908101604052809291908181526020018280546118e490613df9565b80156119315780601f1061190657610100808354040283529160200191611931565b820191906000526020600020905b81548152906001019060200180831161191457829003601f168201915b50505050508152505085848151811061194c5761194c613a1d565b6020026020010181905250816020015184848151811061196e5761196e613a1d565b602090810291909101015260048054825460028401546040517f956652350000000000000000000000000000000000000000000000000000000081529384019190915273ffffffffffffffffffffffffffffffffffffffff8e8116602485015270010000000000000000000000000000000090910467ffffffffffffffff1660448401521690639566523590606401600060405180830381600087803b158015611a1757600080fd5b505af1158015611a2b573d6000803e3d6000fd5b505050505050611a3b8160010190565b90506115f4565b50611a5284838360018b8b61298b565b9a9950505050505050505050565b73ffffffffffffffffffffffffffffffffffffffff83166000908152600760209081526040808320858452918290529091205467ffffffffffffffff1615611ad4576040517fec9d6eeb00000000000000000000000000000000000000000000000000000000815260040160405180910390fd5b6000838152602082905260409081902080547fffffffffffffffffffffffffffffffffffffffffffffffff00000000000000001667ffffffffffffffff85169081179091556004805492517f7a99dcd900000000000000000000000000000000000000000000000000000000815273ffffffffffffffffffffffffffffffffffffffff8881169282019290925260248101879052604481019290925290911690637a99dcd990606401600060405180830381600087803b158015611b9757600080fd5b505af1158015611bab573d6000803e3d6000fd5b5050505050505050565b608081015167ffffffffffffffff1615801590611bea57504267ffffffffffffffff16816080015167ffffffffffffffff1611155b15611c21576040517f1ab7da6b00000000000000000000000000000000000000000000000000000000815260040160405180910390fd5b60208082015160408084015160608086015173ffffffffffffffffffffffffffffffffffffffff16600090815260038652838120805460018101909155875186518789015187890151958901516080808b01518051908d012060a08c0151918e01519a519b9c999b969a979961136a9961134f997ff83bb2b0ede93a840239f7e701a54d9bc35f03701f51ae153d601c6947ff3d3f99919594928e9201998a5260208a019890985273ffffffffffffffffffffffffffffffffffffffff96909616604089015267ffffffffffffffff9485166060890152921515608088015260a087019190915260c086015260e0850152610100840191909152166101208201526101400190565b60408051808201909152600081526060602082015284516040805180820190915260008152606060208201528167ffffffffffffffff811115611d6e57611d6e613a8a565b604051908082528060200260200182016040528015611d97578160200160208202803683370190505b5060208201526040517fa2ea7c6e000000000000000000000000000000000000000000000000000000008152600481018990526000907f000000000000000000000000000000000000000000000000000000000000000073ffffffffffffffffffffffffffffffffffffffff169063a2ea7c6e90602401600060405180830381865afa158015611e2b573d6000803e3d6000fd5b505050506040513d6000823e601f3d908101601f19168201604052611e53919081019061431b565b8051909150611e8e576040517fbf37b20e00000000000000000000000000000000000000000000000000000000815260040160405180910390fd5b60008367ffffffffffffffff811115611ea957611ea9613a8a565b604051908082528060200260200182016040528015611f2a57816020015b60408051610140810182526000808252602080830182905292820181905260608083018290526080830182905260a0830182905260c0830182905260e083018290526101008301919091526101208201528252600019909201910181611ec75790505b50905060008467ffffffffffffffff811115611f4857611f48613a8a565b604051908082528060200260200182016040528015611f71578160200160208202803683370190505b50905060005b858110156124165760008b8281518110611f9357611f93613a1d565b60200260200101519050600067ffffffffffffffff16816020015167ffffffffffffffff1614158015611fde57504267ffffffffffffffff16816020015167ffffffffffffffff1611155b15612015576040517f08e8b93700000000000000000000000000000000000000000000000000000000815260040160405180910390fd5b8460400151158015612028575080604001515b1561205f576040517f157bd4c300000000000000000000000000000000000000000000000000000000815260040160405180910390fd5b60006040518061014001604052806000801b81526020018f81526020016120834290565b67ffffffffffffffff168152602001836020015167ffffffffffffffff168152602001600067ffffffffffffffff16815260200183606001518152602001836000015173ffffffffffffffffffffffffffffffffffffffff1681526020018d73ffffffffffffffffffffffffffffffffffffffff16815260200183604001511515815260200183608001518152509050600080600090505b6121258382612d7a565b600081815260056020526040902054909250156121445760010161211b565b81835260008281526005602081815260409283902086518155908601516001820155918501516002830180546060880151608089015167ffffffffffffffff908116700100000000000000000000000000000000027fffffffffffffffff0000000000000000ffffffffffffffffffffffffffffffff92821668010000000000000000027fffffffffffffffffffffffffffffffff000000000000000000000000000000009094169190951617919091171691909117905560a0850151600383015560c085015160048301805473ffffffffffffffffffffffffffffffffffffffff9283167fffffffffffffffffffffffff000000000000000000000000000000000000000090911617905560e08601519183018054610100880151151574010000000000000000000000000000000000000000027fffffffffffffffffffffff000000000000000000000000000000000000000000909116939092169290921717905561012084015184919060068201906122c09082614439565b505050606084015115612317576060840151600090815260056020526040902054612317576040517fc5723b5100000000000000000000000000000000000000000000000000000000815260040160405180910390fd5b8287868151811061232a5761232a613a1d565b60200260200101819052508360a0015186868151811061234c5761234c613a1d565b602002602001018181525050818960200151868151811061236f5761236f613a1d565b6020908102919091010152600480546040517fa560756d00000000000000000000000000000000000000000000000000000000815273ffffffffffffffffffffffffffffffffffffffff9091169163a560756d916123cf918791016139bc565b600060405180830381600087803b1580156123e957600080fd5b505af11580156123fd573d6000803e3d6000fd5b505050505050505061240f8160010190565b9050611f77565b5061242683838360008c8c61298b565b845250919998505050505050505050565b606060008267ffffffffffffffff81111561245457612454613a8a565b60405190808252806020026020018201604052801561247d578160200160208202803683370190505b508451909150600090815b818110156125165760008782815181106124a4576124a4613a1d565b6020026020010151905060008151905060005b81811015612502578281815181106124d1576124d1613a1d565b60200260200101518787815181106124eb576124eb613a1d565b6020908102919091010152600195860195016124b7565b50505061250f8160010190565b9050612488565b509195945050505050565b60008281526006602052604090205467ffffffffffffffff1615612571576040517f2e26794600000000000000000000000000000000000000000000000000000000815260040160405180910390fd5b6000828152600660205260409081902080547fffffffffffffffffffffffffffffffffffffffffffffffff00000000000000001667ffffffffffffffff84169081179091556004805492517fd7d20545000000000000000000000000000000000000000000000000000000008152908101859052602481019190915273ffffffffffffffffffffffffffffffffffffffff9091169063d7d2054590604401600060405180830381600087803b15801561262957600080fd5b505af115801561263d573d6000803e3d6000fd5b505050505050565b6060600061265283612dd9565b600101905060008167ffffffffffffffff81111561267257612672613a8a565b6040519080825280601f01601f19166020018201604052801561269c576020820181803683370190505b5090508181016020015b600019017f3031323334353637383961626364656600000000000000000000000000000000600a86061a8153600a85049450846126a657509392505050565b606060ff83146126ff576126f883612ebb565b90506106ae565b81805461270b90613df9565b80601f016020809104026020016040519081016040528092919081815260200182805461273790613df9565b80156127845780601f1061275957610100808354040283529160200191612784565b820191906000526020600020905b81548152906001019060200180831161276757829003601f168201915b505050505090506106ae565b60003073ffffffffffffffffffffffffffffffffffffffff7f0000000000000000000000000000000000000000000000000000000000000000161480156127f657507f000000000000000000000000000000000000000000000000000000000000000046145b1561282057507f000000000000000000000000000000000000000000000000000000000000000090565b611192604080517f8b73c3c69bb8fe3d512ecc4cf759cc79239f7b179b0ffacaa9a75d522b39400f60208201527f0000000000000000000000000000000000000000000000000000000000000000918101919091527f000000000000000000000000000000000000000000000000000000000000000060608201524660808201523060a082015260009060c00160405160208183030381529060405280519060200120905090565b60006106ae6128d5612790565b836040517f19010000000000000000000000000000000000000000000000000000000000008152600281019290925260228201526042902090565b600080600061291f8585612efa565b90925090506000816004811115612938576129386144f9565b14801561297057508573ffffffffffffffffffffffffffffffffffffffff168273ffffffffffffffffffffffffffffffffffffffff16145b806129815750612981868686612f3f565b9695505050505050565b845160009060018190036129e3576129db88886000815181106129b0576129b0613a1d565b6020026020010151886000815181106129cb576129cb613a1d565b602002602001015188888861307e565b915050612981565b602088015173ffffffffffffffffffffffffffffffffffffffff8116612a845760005b82811015612a6957878181518110612a2057612a20613a1d565b6020026020010151600014612a61576040517f1574f9f300000000000000000000000000000000000000000000000000000000815260040160405180910390fd5b600101612a06565b508315612a7957612a798561339d565b600092505050612981565b6000808273ffffffffffffffffffffffffffffffffffffffff1663ce46e0466040518163ffffffff1660e01b8152600401602060405180830381865afa158015612ad2573d6000803e3d6000fd5b505050506040513d601f19601f82011682018060405250810190612af69190614528565b905060005b84811015612bb35760008a8281518110612b1757612b17613a1d565b6020026020010151905080600003612b2f5750612bab565b82612b66576040517f1574f9f300000000000000000000000000000000000000000000000000000000815260040160405180910390fd5b88811115612ba0576040517f1101129400000000000000000000000000000000000000000000000000000000815260040160405180910390fd5b978890039792909201915b600101612afb565b508715612c8e576040517f88e5b2d900000000000000000000000000000000000000000000000000000000815273ffffffffffffffffffffffffffffffffffffffff8416906388e5b2d9908490612c10908e908e90600401614545565b60206040518083038185885af1158015612c2e573d6000803e3d6000fd5b50505050506040513d601f19601f82011682018060405250810190612c539190614528565b612c89576040517fbf2f3a8b00000000000000000000000000000000000000000000000000000000815260040160405180910390fd5b612d5d565b6040517f91db0b7e00000000000000000000000000000000000000000000000000000000815273ffffffffffffffffffffffffffffffffffffffff8416906391db0b7e908490612ce4908e908e90600401614545565b60206040518083038185885af1158015612d02573d6000803e3d6000fd5b50505050506040513d601f19601f82011682018060405250810190612d279190614528565b612d5d576040517fe8bee83900000000000000000000000000000000000000000000000000000000815260040160405180910390fd5b8515612d6c57612d6c8761339d565b509998505050505050505050565b60208083015160c084015160e0850151604080870151606088015161010089015160a08a01516101208b01519451600099612dbb99989796918c91016145d9565b60405160208183030381529060405280519060200120905092915050565b6000807a184f03e93ff9f4daa797ed6e38ed64bf6a1f0100000000000000008310612e22577a184f03e93ff9f4daa797ed6e38ed64bf6a1f010000000000000000830492506040015b6d04ee2d6d415b85acef81000000008310612e4e576d04ee2d6d415b85acef8100000000830492506020015b662386f26fc100008310612e6c57662386f26fc10000830492506010015b6305f5e1008310612e84576305f5e100830492506008015b6127108310612e9857612710830492506004015b60648310612eaa576064830492506002015b600a83106106ae5760010192915050565b60606000612ec8836133b0565b604080516020808252818301909252919250600091906020820181803683375050509182525060208101929092525090565b6000808251604103612f305760208301516040840151606085015160001a612f24878285856133f1565b94509450505050612f38565b506000905060025b9250929050565b60008060008573ffffffffffffffffffffffffffffffffffffffff16631626ba7e60e01b8686604051602401612f769291906146b7565b60408051601f198184030181529181526020820180517bffffffffffffffffffffffffffffffffffffffffffffffffffffffff167fffffffff00000000000000000000000000000000000000000000000000000000909416939093179092529051612fe191906146d8565b600060405180830381855afa9150503d806000811461301c576040519150601f19603f3d011682016040523d82523d6000602084013e613021565b606091505b509150915081801561303557506020815110155b8015612981575080517f1626ba7e000000000000000000000000000000000000000000000000000000009061307390830160209081019084016146ea565b149695505050505050565b602086015160009073ffffffffffffffffffffffffffffffffffffffff81166130f25785156130d9576040517f1574f9f300000000000000000000000000000000000000000000000000000000815260040160405180910390fd5b82156130e8576130e88461339d565b6000915050612981565b85156131dd578073ffffffffffffffffffffffffffffffffffffffff1663ce46e0466040518163ffffffff1660e01b8152600401602060405180830381865afa158015613143573d6000803e3d6000fd5b505050506040513d601f19601f820116820180604052508101906131679190614528565b61319d576040517f1574f9f300000000000000000000000000000000000000000000000000000000815260040160405180910390fd5b838611156131d7576040517f1101129400000000000000000000000000000000000000000000000000000000815260040160405180910390fd5b85840393505b84156132b5576040517fe49617e100000000000000000000000000000000000000000000000000000000815273ffffffffffffffffffffffffffffffffffffffff82169063e49617e1908890613237908b906004016139bc565b60206040518083038185885af1158015613255573d6000803e3d6000fd5b50505050506040513d601f19601f8201168201806040525081019061327a9190614528565b6132b0576040517fccf3bb2700000000000000000000000000000000000000000000000000000000815260040160405180910390fd5b613382565b6040517fe60c350500000000000000000000000000000000000000000000000000000000815273ffffffffffffffffffffffffffffffffffffffff82169063e60c3505908890613309908b906004016139bc565b60206040518083038185885af1158015613327573d6000803e3d6000fd5b50505050506040513d601f19601f8201168201806040525081019061334c9190614528565b613382576040517fbd8ba84d00000000000000000000000000000000000000000000000000000000815260040160405180910390fd5b8215613391576133918461339d565b50939695505050505050565b80156133ad576133ad33826134c2565b50565b600060ff8216601f8111156106ae576040517fb3512b0c00000000000000000000000000000000000000000000000000000000815260040160405180910390fd5b6000807f7fffffffffffffffffffffffffffffff5d576e7357a4501ddfe92f46681b20a083111561342857506000905060036134b9565b6040805160008082526020820180845289905260ff881692820192909252606081018690526080810185905260019060a0016020604051602081039080840390855afa15801561347c573d6000803e3d6000fd5b5050604051601f19015191505073ffffffffffffffffffffffffffffffffffffffff81166134b2576000600192509250506134b9565b9150600090505b94509492505050565b80471015613531576040517f08c379a000000000000000000000000000000000000000000000000000000000815260206004820152601d60248201527f416464726573733a20696e73756666696369656e742062616c616e636500000060448201526064015b60405180910390fd5b60008273ffffffffffffffffffffffffffffffffffffffff168260405160006040518083038185875af1925050503d806000811461358b576040519150601f19603f3d011682016040523d82523d6000602084013e613590565b606091505b5050905080610a0d576040517f08c379a000000000000000000000000000000000000000000000000000000000815260206004820152603a60248201527f416464726573733a20756e61626c6520746f2073656e642076616c75652c207260448201527f6563697069656e74206d617920686176652072657665727465640000000000006064820152608401613528565b60008083601f84011261363357600080fd5b50813567ffffffffffffffff81111561364b57600080fd5b6020830191508360208260051b8501011115612f3857600080fd5b6000806020838503121561367957600080fd5b823567ffffffffffffffff81111561369057600080fd5b61369c85828601613621565b90969095509350505050565b60005b838110156136c35781810151838201526020016136ab565b50506000910152565b600081518084526136e48160208601602086016136a8565b601f01601f19169290920160200192915050565b60208152600061370b60208301846136cc565b9392505050565b73ffffffffffffffffffffffffffffffffffffffff811681146133ad57600080fd5b803561373f81613712565b919050565b60006020828403121561375657600080fd5b813561370b81613712565b60006020828403121561377357600080fd5b813567ffffffffffffffff81111561378a57600080fd5b820160e0818503121561370b57600080fd5b6020808252825182820181905260009190848201906040850190845b818110156137d4578351835292840192918401916001016137b8565b50909695505050505050565b6000606082840312156137f257600080fd5b50919050565b60006020828403121561380a57600080fd5b5035919050565b600081518084526020808501945080840160005b8381101561384157815187529582019590820190600101613825565b509495945050505050565b7fff000000000000000000000000000000000000000000000000000000000000008816815260e06020820152600061388760e08301896136cc565b828103604084015261389981896136cc565b905086606084015273ffffffffffffffffffffffffffffffffffffffff861660808401528460a084015282810360c0840152611a528185613811565b600061014082518452602083015160208501526040830151613903604086018267ffffffffffffffff169052565b50606083015161391f606086018267ffffffffffffffff169052565b50608083015161393b608086018267ffffffffffffffff169052565b5060a083015160a085015260c083015161396d60c086018273ffffffffffffffffffffffffffffffffffffffff169052565b5060e083015161399560e086018273ffffffffffffffffffffffffffffffffffffffff169052565b506101008381015115159085015261012080840151818601839052612981838701826136cc565b60208152600061370b60208301846138d5565b600061010082840312156137f257600080fd5b6000602082840312156139f457600080fd5b813567ffffffffffffffff811115613a0b57600080fd5b82016040818503121561370b57600080fd5b7f4e487b7100000000000000000000000000000000000000000000000000000000600052603260045260246000fd5b600082357fffffffffffffffffffffffffffffffffffffffffffffffffffffffffffffff61833603018112613a8057600080fd5b9190910192915050565b7f4e487b7100000000000000000000000000000000000000000000000000000000600052604160045260246000fd5b60405160a0810167ffffffffffffffff81118282101715613adc57613adc613a8a565b60405290565b60405160c0810167ffffffffffffffff81118282101715613adc57613adc613a8a565b6040516080810167ffffffffffffffff81118282101715613adc57613adc613a8a565b604051601f8201601f1916810167ffffffffffffffff81118282101715613b5157613b51613a8a565b604052919050565b600067ffffffffffffffff821115613b7357613b73613a8a565b5060051b60200190565b600060408284031215613b8f57600080fd5b6040516040810181811067ffffffffffffffff82111715613bb257613bb2613a8a565b604052823581526020928301359281019290925250919050565b600060608284031215613bde57600080fd5b6040516060810181811067ffffffffffffffff82111715613c0157613c01613a8a565b604052905080823560ff81168114613c1857600080fd5b8082525060208301356020820152604083013560408201525092915050565b600082601f830112613c4857600080fd5b81356020613c5d613c5883613b59565b613b28565b82815260609283028501820192828201919087851115613c7c57600080fd5b8387015b85811015613c9f57613c928982613bcc565b8452928401928101613c80565b5090979650505050505050565b803567ffffffffffffffff8116811461373f57600080fd5b600060a08236031215613cd657600080fd5b613cde613ab9565b8235815260208084013567ffffffffffffffff80821115613cfe57600080fd5b9085019036601f830112613d1157600080fd5b8135613d1f613c5882613b59565b81815260069190911b83018401908481019036831115613d3e57600080fd5b938501935b82851015613d6757613d553686613b7d565b82528582019150604085019450613d43565b80868801525050506040860135925080831115613d8357600080fd5b5050613d9136828601613c37565b604083015250613da360608401613734565b6060820152613db460808401613cac565b608082015292915050565b818103818111156106ae577f4e487b7100000000000000000000000000000000000000000000000000000000600052601160045260246000fd5b600181811c90821680613e0d57607f821691505b6020821081036137f2577f4e487b7100000000000000000000000000000000000000000000000000000000600052602260045260246000fd5b80151581146133ad57600080fd5b600067ffffffffffffffff821115613e6e57613e6e613a8a565b50601f01601f191660200190565b600060c08284031215613e8e57600080fd5b613e96613ae2565b90508135613ea381613712565b81526020613eb2838201613cac565b818301526040830135613ec481613e46565b604083015260608381013590830152608083013567ffffffffffffffff811115613eed57600080fd5b8301601f81018513613efe57600080fd5b8035613f0c613c5882613e54565b8181528684838501011115613f2057600080fd5b818484018583013760008483830101528060808601525050505060a082013560a082015292915050565b600060e08236031215613f5c57600080fd5b613f64613ab9565b82358152602083013567ffffffffffffffff811115613f8257600080fd5b613f8e36828601613e7c565b602083015250613fa13660408501613bcc565b604082015260a0830135613fb481613712565b6060820152613db460c08401613cac565b600082357fffffffffffffffffffffffffffffffffffffffffffffffffffffffffffffff41833603018112613a8057600080fd5b60006106ae3683613e7c565b600082357fffffffffffffffffffffffffffffffffffffffffffffffffffffffffffffffc1833603018112613a8057600080fd5b60008083357fffffffffffffffffffffffffffffffffffffffffffffffffffffffffffffffe184360301811261406e57600080fd5b83018035915067ffffffffffffffff82111561408957600080fd5b6020019150600581901b3603821315612f3857600080fd5b60006140af613c5884613b59565b80848252602080830192508560051b8501368111156140cd57600080fd5b855b8181101561410957803567ffffffffffffffff8111156140ef5760008081fd5b6140fb36828a01613e7c565b8652509382019382016140cf565b50919695505050505050565b60006040828403121561412757600080fd5b61370b8383613b7d565b60008083357fffffffffffffffffffffffffffffffffffffffffffffffffffffffffffffffe184360301811261416657600080fd5b83018035915067ffffffffffffffff82111561418157600080fd5b6020019150600681901b3603821315612f3857600080fd5b600084516141ab8184602089016136a8565b80830190507f2e0000000000000000000000000000000000000000000000000000000000000080825285516141e7816001850160208a016136a8565b600192019182015283516142028160028401602088016136a8565b0160020195945050505050565b60008083357fffffffffffffffffffffffffffffffffffffffffffffffffffffffffffffffe184360301811261424457600080fd5b83018035915067ffffffffffffffff82111561425f57600080fd5b6020019150606081023603821315612f3857600080fd5b60006060828403121561428857600080fd5b61370b8383613bcc565b6000602082840312156142a457600080fd5b61370b82613cac565b600061010082840312156142c057600080fd5b6142c8613ab9565b823581526142d98460208501613b7d565b60208201526142eb8460608501613bcc565b604082015260c08301356142fe81613712565b606082015261430f60e08401613cac565b60808201529392505050565b6000602080838503121561432e57600080fd5b825167ffffffffffffffff8082111561434657600080fd5b908401906080828703121561435a57600080fd5b614362613b05565b825181528383015161437381613712565b81850152604083015161438581613e46565b604082015260608301518281111561439c57600080fd5b80840193505086601f8401126143b157600080fd5b825191506143c1613c5883613e54565b82815287858486010111156143d557600080fd5b6143e4838683018787016136a8565b60608201529695505050505050565b601f821115610a0d57600081815260208120601f850160051c8101602086101561441a5750805b601f850160051c820191505b8181101561263d57828155600101614426565b815167ffffffffffffffff81111561445357614453613a8a565b614467816144618454613df9565b846143f3565b602080601f83116001811461449c57600084156144845750858301515b600019600386901b1c1916600185901b17855561263d565b600085815260208120601f198616915b828110156144cb578886015182559484019460019091019084016144ac565b50858210156144e95787850151600019600388901b60f8161c191681555b5050505050600190811b01905550565b7f4e487b7100000000000000000000000000000000000000000000000000000000600052602160045260246000fd5b60006020828403121561453a57600080fd5b815161370b81613e46565b6000604082016040835280855180835260608501915060608160051b8601019250602080880160005b838110156145ba577fffffffffffffffffffffffffffffffffffffffffffffffffffffffffffffffa08887030185526145a88683516138d5565b9550938201939082019060010161456e565b5050858403818701525050506145d08185613811565b95945050505050565b89815260007fffffffffffffffffffffffffffffffffffffffff000000000000000000000000808b60601b166020840152808a60601b166034840152507fffffffffffffffff000000000000000000000000000000000000000000000000808960c01b166048840152808860c01b1660508401525085151560f81b605883015284605983015283516146728160798501602088016136a8565b80830190507fffffffff000000000000000000000000000000000000000000000000000000008460e01b166079820152607d81019150509a9950505050505050505050565b8281526040602082015260006146d060408301846136cc565b949350505050565b60008251613a808184602087016136a8565b6000602082840312156146fc57600080fd5b505191905056fea26469706673582212203769516c11b9b27b9009cc9dffa138bf9ab9edd6c638bfcca1613dc7e7a9efdf64736f6c63430008130033",
  "devdoc": {
    "events": {
      "EIP712DomainChanged()": {
        "details": "MAY be emitted to signal that the domain could have changed."
      }
    },
    "kind": "dev",
    "methods": {
      "attest((bytes32,(address,uint64,bool,bytes32,bytes,uint256)))": {
        "params": {
          "request": "The arguments of the attestation request."
        },
        "returns": {
          "_0": "The UID of the new attestation. Example:     attest({         schema: \"0facc36681cbe2456019c1b0d1e7bedd6d1d40f6f324bf3dd3a4cef2999200a0\",         data: {             recipient: \"0xdEADBeAFdeAdbEafdeadbeafDeAdbEAFdeadbeaf\",             expirationTime: 0,             revocable: true,             refUID: \"0x0000000000000000000000000000000000000000000000000000000000000000\",             data: \"0xF00D\",             value: 0         }     })"
        }
      },
      "attestByDelegation((bytes32,(address,uint64,bool,bytes32,bytes,uint256),(uint8,bytes32,bytes32),address,uint64))": {
        "params": {
          "delegatedRequest": "The arguments of the delegated attestation request."
        },
        "returns": {
          "_0": "The UID of the new attestation. Example:     attestByDelegation({         schema: '0x8e72f5bc0a8d4be6aa98360baa889040c50a0e51f32dbf0baa5199bd93472ebc',         data: {             recipient: '0xf39Fd6e51aad88F6F4ce6aB8827279cffFb92266',             expirationTime: 1673891048,             revocable: true,             refUID: '0x0000000000000000000000000000000000000000000000000000000000000000',             data: '0x1234',             value: 0         },         signature: {             v: 28,             r: '0x148c...b25b',             s: '0x5a72...be22'         },         attester: '0xc5E8740aD971409492b1A63Db8d83025e0Fc427e',         deadline: 1673891048     })"
        }
      },
      "constructor": {
        "details": "Creates a new TAS instance.",
        "params": {
          "registry": "The address of the global schema registry."
        }
      },
      "eip712Domain()": {
        "details": "See {EIP-5267}. _Available since v4.9._"
      },
      "getAttestTypeHash()": {
        "returns": {
          "_0": "The EIP712 type hash for the attest function."
        }
      },
      "getAttestation(bytes32)": {
        "params": {
          "uid": "The UID of the attestation to retrieve."
        },
        "returns": {
          "_0": "The attestation data members."
        }
      },
      "getDomainSeparator()": {
        "returns": {
          "_0": "The domain separator used in the encoding of the signatures for attest, and revoke."
        }
      },
      "getName()": {
        "returns": {
          "_0": "The EIP712 name."
        }
      },
      "getNonce(address)": {
        "params": {
          "account": "The requested account."
        },
        "returns": {
          "_0": "The current nonce."
        }
      },
      "getRevokeTypeHash()": {
        "returns": {
          "_0": "The EIP712 type hash for the revoke function."
        }
      },
      "getSchemaRegistry()": {
        "returns": {
          "_0": "The address of the global schema registry."
        }
      },
      "increaseNonce(uint256)": {
        "params": {
          "newNonce": "The (higher) new value."
        }
      },
      "isAttestationValid(bytes32)": {
        "params": {
          "uid": "The UID of the attestation to retrieve."
        },
        "returns": {
          "_0": "Whether an attestation exists."
        }
      },
      "multiAttest((bytes32,(address,uint64,bool,bytes32,bytes,uint256)[])[])": {
        "params": {
          "multiRequests": "The arguments of the multi attestation requests. The requests should be grouped by distinct     schema ids to benefit from the best batching optimization."
        },
        "returns": {
          "_0": "The UIDs of the new attestations. Example:     multiAttest([{         schema: '0x33e9094830a5cba5554d1954310e4fbed2ef5f859ec1404619adea4207f391fd',         data: [{             recipient: '0xdEADBeAFdeAdbEafdeadbeafDeAdbEAFdeadbeaf',             expirationTime: 1673891048,             revocable: true,             refUID: '0x0000000000000000000000000000000000000000000000000000000000000000',             data: '0x1234',             value: 1000         },         {             recipient: '0xf39Fd6e51aad88F6F4ce6aB8827279cffFb92266',             expirationTime: 0,             revocable: false,             refUID: '0x480df4a039efc31b11bfdf491b383ca138b6bde160988222a2a3509c02cee174',             data: '0x00',             value: 0         }],     },     {         schema: '0x5ac273ce41e3c8bfa383efe7c03e54c5f0bff29c9f11ef6ffa930fc84ca32425',         data: [{             recipient: '0xdEADBeAFdeAdbEafdeadbeafDeAdbEAFdeadbeaf',             expirationTime: 0,             revocable: true,             refUID: '0x75bf2ed8dca25a8190c50c52db136664de25b2449535839008ccfdab469b214f',             data: '0x12345678',             value: 0         },     }])"
        }
      },
      "multiAttestByDelegation((bytes32,(address,uint64,bool,bytes32,bytes,uint256)[],(uint8,bytes32,bytes32)[],address,uint64)[])": {
        "params": {
          "multiDelegatedRequests": "The arguments of the delegated multi attestation requests. The requests should be     grouped by distinct schema ids to benefit from the best batching optimization."
        },
        "returns": {
          "_0": "The UIDs of the new attestations. Example:     multiAttestByDelegation([{         schema: '0x8e72f5bc0a8d4be6aa98360baa889040c50a0e51f32dbf0baa5199bd93472ebc',         data: [{             recipient: '0xf39Fd6e51aad88F6F4ce6aB8827279cffFb92266',             expirationTime: 1673891048,             revocable: true,             refUID: '0x0000000000000000000000000000000000000000000000000000000000000000',             data: '0x1234',             value: 0         },         {             recipient: '0xdEADBeAFdeAdbEafdeadbeafDeAdbEAFdeadbeaf',             expirationTime: 0,             revocable: false,             refUID: '0x0000000000000000000000000000000000000000000000000000000000000000',             data: '0x00',             value: 0         }],         signatures: [{             v: 28,             r: '0x148c...b25b',             s: '0x5a72...be22'         },         {             v: 28,             r: '0x487s...67bb',             s: '0x12ad...2366'         }],         attester: '0x1D86495b2A7B524D747d2839b3C645Bed32e8CF4',         deadline: 1673891048     }])"
        }
      },
      "multiRevoke((bytes32,(bytes32,uint256)[])[])": {
        "params": {
          "multiRequests": "The arguments of the multi revocation requests. The requests should be grouped by distinct     schema ids to benefit from the best batching optimization. Example:     multiRevoke([{         schema: '0x8e72f5bc0a8d4be6aa98360baa889040c50a0e51f32dbf0baa5199bd93472ebc',         data: [{             uid: '0x211296a1ca0d7f9f2cfebf0daaa575bea9b20e968d81aef4e743d699c6ac4b25',             value: 1000         },         {             uid: '0xe160ac1bd3606a287b4d53d5d1d6da5895f65b4b4bab6d93aaf5046e48167ade',             value: 0         }],     },     {         schema: '0x5ac273ce41e3c8bfa383efe7c03e54c5f0bff29c9f11ef6ffa930fc84ca32425',         data: [{             uid: '0x053d42abce1fd7c8fcddfae21845ad34dae287b2c326220b03ba241bc5a8f019',             value: 0         },     }])"
        }
      },
      "multiRevokeByDelegation((bytes32,(bytes32,uint256)[],(uint8,bytes32,bytes32)[],address,uint64)[])": {
        "params": {
          "multiDelegatedRequests": "The arguments of the delegated multi revocation attestation requests. The requests     should be grouped by distinct schema ids to benefit from the best batching optimization. Example:     multiRevokeByDelegation([{         schema: '0x8e72f5bc0a8d4be6aa98360baa889040c50a0e51f32dbf0baa5199bd93472ebc',         data: [{             uid: '0x211296a1ca0d7f9f2cfebf0daaa575bea9b20e968d81aef4e743d699c6ac4b25',             value: 1000         },         {             uid: '0xe160ac1bd3606a287b4d53d5d1d6da5895f65b4b4bab6d93aaf5046e48167ade',             value: 0         }],         signatures: [{             v: 28,             r: '0x148c...b25b',             s: '0x5a72...be22'         },         {             v: 28,             r: '0x487s...67bb',             s: '0x12ad...2366'         }],         revoker: '0x244934dd3e31bE2c81f84ECf0b3E6329F5381992',         deadline: 1673891048     }])"
        }
      },
      "multiRevokeOffchain(bytes32[])": {
        "params": {
          "data": "The data to timestamp."
        },
        "returns": {
          "_0": "The timestamp the data was revoked with."
        }
      },
      "multiTimestamp(bytes32[])": {
        "params": {
          "data": "The data to timestamp."
        },
        "returns": {
          "_0": "The timestamp the data was timestamped with."
        }
      },
      "revoke((bytes32,(bytes32,uint256)))": {
        "params": {
          "request": "The arguments of the revocation request. Example:     revoke({         schema: '0x8e72f5bc0a8d4be6aa98360baa889040c50a0e51f32dbf0baa5199bd93472ebc',         data: {             uid: '0x101032e487642ee04ee17049f99a70590c735b8614079fc9275f9dd57c00966d',             value: 0         }     })"
        }
      },
      "revokeByDelegation((bytes32,(bytes32,uint256),(uint8,bytes32,bytes32),address,uint64))": {
        "params": {
          "delegatedRequest": "The arguments of the delegated revocation request. Example:     revokeByDelegation({         schema: '0x8e72f5bc0a8d4be6aa98360baa889040c50a0e51f32dbf0baa5199bd93472ebc',         data: {             uid: '0xcbbc12102578c642a0f7b34fe7111e41afa25683b6cd7b5a14caf90fa14d24ba',             value: 0         },         signature: {             v: 27,             r: '0xb593...7142',             s: '0x0f5b...2cce'         },         revoker: '0x244934dd3e31bE2c81f84ECf0b3E6329F5381992',         deadline: 1673891048     })"
        }
      },
      "revokeOffchain(bytes32)": {
        "params": {
          "data": "The data to timestamp."
        },
        "returns": {
          "_0": "The timestamp the data was revoked with."
        }
      },
      "timestamp(bytes32)": {
        "params": {
          "data": "The data to timestamp."
        },
        "returns": {
          "_0": "The timestamp the data was timestamped with."
        }
      },
      "version()": {
        "returns": {
          "_0": "Semver contract version as a string."
        }
      }
    },
    "title": "TAS",
    "version": 1
  },
  "userdoc": {
    "kind": "user",
    "methods": {
      "attest((bytes32,(address,uint64,bool,bytes32,bytes,uint256)))": {
        "notice": "Attests to a specific schema."
      },
      "attestByDelegation((bytes32,(address,uint64,bool,bytes32,bytes,uint256),(uint8,bytes32,bytes32),address,uint64))": {
        "notice": "Attests to a specific schema via the provided ECDSA signature."
      },
      "getAttestTypeHash()": {
        "notice": "Returns the EIP712 type hash for the attest function."
      },
      "getAttestation(bytes32)": {
        "notice": "Returns an existing attestation by UID."
      },
      "getDomainSeparator()": {
        "notice": "Returns the domain separator used in the encoding of the signatures for attest, and revoke."
      },
      "getName()": {
        "notice": "Returns the EIP712 name."
      },
      "getNonce(address)": {
        "notice": "Returns the current nonce per-account."
      },
      "getRevokeTypeHash()": {
        "notice": "Returns the EIP712 type hash for the revoke function."
      },
      "getSchemaRegistry()": {
        "notice": "Returns the address of the global schema registry."
      },
      "increaseNonce(uint256)": {
        "notice": "Provides users an option to invalidate nonces by increasing their nonces to (higher) new values."
      },
      "isAttestationValid(bytes32)": {
        "notice": "Checks whether an attestation exists."
      },
      "multiAttest((bytes32,(address,uint64,bool,bytes32,bytes,uint256)[])[])": {
        "notice": "Attests to multiple schemas."
      },
      "multiAttestByDelegation((bytes32,(address,uint64,bool,bytes32,bytes,uint256)[],(uint8,bytes32,bytes32)[],address,uint64)[])": {
        "notice": "Attests to multiple schemas using via provided ECDSA signatures."
      },
      "multiRevoke((bytes32,(bytes32,uint256)[])[])": {
        "notice": "Revokes existing attestations to multiple schemas."
      },
      "multiRevokeByDelegation((bytes32,(bytes32,uint256)[],(uint8,bytes32,bytes32)[],address,uint64)[])": {
        "notice": "Revokes existing attestations to multiple schemas via provided ECDSA signatures."
      },
      "multiRevokeOffchain(bytes32[])": {
        "notice": "Revokes the specified multiple bytes32 data."
      },
      "multiTimestamp(bytes32[])": {
        "notice": "Timestamps the specified multiple bytes32 data."
      },
      "revoke((bytes32,(bytes32,uint256)))": {
        "notice": "Revokes an existing attestation to a specific schema."
      },
      "revokeByDelegation((bytes32,(bytes32,uint256),(uint8,bytes32,bytes32),address,uint64))": {
        "notice": "Revokes an existing attestation to a specific schema via the provided ECDSA signature."
      },
      "revokeOffchain(bytes32)": {
        "notice": "Revokes the specified bytes32 data."
      },
      "timestamp(bytes32)": {
        "notice": "Timestamps the specified bytes32 data."
      },
      "version()": {
        "notice": "Returns the full semver contract version."
      }
    },
    "notice": "The Tableland Attestation Service protocol.",
    "version": 1
  },
  "storageLayout": {
    "storage": [
      {
        "astId": 2603,
        "contract": "contracts/TAS.sol:TAS",
        "label": "_nameFallback",
        "offset": 0,
        "slot": "0",
        "type": "t_string_storage"
      },
      {
        "astId": 2605,
        "contract": "contracts/TAS.sol:TAS",
        "label": "_versionFallback",
        "offset": 0,
        "slot": "1",
        "type": "t_string_storage"
      },
      {
        "astId": 9130,
        "contract": "contracts/TAS.sol:TAS",
        "label": "_name",
        "offset": 0,
        "slot": "2",
        "type": "t_string_storage"
      },
      {
        "astId": 9134,
        "contract": "contracts/TAS.sol:TAS",
        "label": "_nonces",
        "offset": 0,
        "slot": "3",
        "type": "t_mapping(t_address,t_uint256)"
      },
      {
        "astId": 6366,
        "contract": "contracts/TAS.sol:TAS",
        "label": "tableland",
        "offset": 0,
        "slot": "4",
        "type": "t_contract(ITASIndexer)9482"
      },
      {
        "astId": 6371,
        "contract": "contracts/TAS.sol:TAS",
        "label": "_db",
        "offset": 0,
        "slot": "5",
        "type": "t_mapping(t_bytes32,t_struct(Attestation)5492_storage)"
      },
      {
        "astId": 6375,
        "contract": "contracts/TAS.sol:TAS",
        "label": "_timestamps",
        "offset": 0,
        "slot": "6",
        "type": "t_mapping(t_bytes32,t_uint64)"
      },
      {
        "astId": 6381,
        "contract": "contracts/TAS.sol:TAS",
        "label": "_revocationsOffchain",
        "offset": 0,
        "slot": "7",
        "type": "t_mapping(t_address,t_mapping(t_bytes32,t_uint64))"
      }
    ],
    "types": {
      "t_address": {
        "encoding": "inplace",
        "label": "address",
        "numberOfBytes": "20"
      },
      "t_bool": {
        "encoding": "inplace",
        "label": "bool",
        "numberOfBytes": "1"
      },
      "t_bytes32": {
        "encoding": "inplace",
        "label": "bytes32",
        "numberOfBytes": "32"
      },
      "t_bytes_storage": {
        "encoding": "bytes",
        "label": "bytes",
        "numberOfBytes": "32"
      },
      "t_contract(ITASIndexer)9482": {
        "encoding": "inplace",
        "label": "contract ITASIndexer",
        "numberOfBytes": "20"
      },
      "t_mapping(t_address,t_mapping(t_bytes32,t_uint64))": {
        "encoding": "mapping",
        "key": "t_address",
        "label": "mapping(address => mapping(bytes32 => uint64))",
        "numberOfBytes": "32",
        "value": "t_mapping(t_bytes32,t_uint64)"
      },
      "t_mapping(t_address,t_uint256)": {
        "encoding": "mapping",
        "key": "t_address",
        "label": "mapping(address => uint256)",
        "numberOfBytes": "32",
        "value": "t_uint256"
      },
      "t_mapping(t_bytes32,t_struct(Attestation)5492_storage)": {
        "encoding": "mapping",
        "key": "t_bytes32",
        "label": "mapping(bytes32 => struct Attestation)",
        "numberOfBytes": "32",
        "value": "t_struct(Attestation)5492_storage"
      },
      "t_mapping(t_bytes32,t_uint64)": {
        "encoding": "mapping",
        "key": "t_bytes32",
        "label": "mapping(bytes32 => uint64)",
        "numberOfBytes": "32",
        "value": "t_uint64"
      },
      "t_string_storage": {
        "encoding": "bytes",
        "label": "string",
        "numberOfBytes": "32"
      },
      "t_struct(Attestation)5492_storage": {
        "encoding": "inplace",
        "label": "struct Attestation",
        "members": [
          {
            "astId": 5473,
            "contract": "contracts/TAS.sol:TAS",
            "label": "uid",
            "offset": 0,
            "slot": "0",
            "type": "t_bytes32"
          },
          {
            "astId": 5475,
            "contract": "contracts/TAS.sol:TAS",
            "label": "schema",
            "offset": 0,
            "slot": "1",
            "type": "t_bytes32"
          },
          {
            "astId": 5477,
            "contract": "contracts/TAS.sol:TAS",
            "label": "time",
            "offset": 0,
            "slot": "2",
            "type": "t_uint64"
          },
          {
            "astId": 5479,
            "contract": "contracts/TAS.sol:TAS",
            "label": "expirationTime",
            "offset": 8,
            "slot": "2",
            "type": "t_uint64"
          },
          {
            "astId": 5481,
            "contract": "contracts/TAS.sol:TAS",
            "label": "revocationTime",
            "offset": 16,
            "slot": "2",
            "type": "t_uint64"
          },
          {
            "astId": 5483,
            "contract": "contracts/TAS.sol:TAS",
            "label": "refUID",
            "offset": 0,
            "slot": "3",
            "type": "t_bytes32"
          },
          {
            "astId": 5485,
            "contract": "contracts/TAS.sol:TAS",
            "label": "recipient",
            "offset": 0,
            "slot": "4",
            "type": "t_address"
          },
          {
            "astId": 5487,
            "contract": "contracts/TAS.sol:TAS",
            "label": "attester",
            "offset": 0,
            "slot": "5",
            "type": "t_address"
          },
          {
            "astId": 5489,
            "contract": "contracts/TAS.sol:TAS",
            "label": "revocable",
            "offset": 20,
            "slot": "5",
            "type": "t_bool"
          },
          {
            "astId": 5491,
            "contract": "contracts/TAS.sol:TAS",
            "label": "data",
            "offset": 0,
            "slot": "6",
            "type": "t_bytes_storage"
          }
        ],
        "numberOfBytes": "224"
      },
      "t_uint256": {
        "encoding": "inplace",
        "label": "uint256",
        "numberOfBytes": "32"
      },
      "t_uint64": {
        "encoding": "inplace",
        "label": "uint64",
        "numberOfBytes": "8"
      }
    }
  }
}