{
  "address": "0x2d6F736382bb1272E2b289F260b7fBB7E96Aa624",
  "abi": [
    {
      "inputs": [],
      "stateMutability": "nonpayable",
      "type": "constructor"
    },
    {
      "inputs": [
        {
          "internalType": "uint256",
          "name": "chainid",
          "type": "uint256"
        }
      ],
      "name": "ChainNotSupported",
      "type": "error"
    },
    {
      "anonymous": false,
      "inputs": [
        {
          "indexed": true,
          "internalType": "address",
          "name": "previousOwner",
          "type": "address"
        },
        {
          "indexed": true,
          "internalType": "address",
          "name": "newOwner",
          "type": "address"
        }
      ],
      "name": "OwnershipTransferred",
      "type": "event"
    },
    {
      "inputs": [
        {
          "components": [
            {
              "internalType": "bytes32",
              "name": "uid",
              "type": "bytes32"
            },
            {
              "internalType": "bytes32",
              "name": "schema",
              "type": "bytes32"
            },
            {
              "internalType": "uint64",
              "name": "time",
              "type": "uint64"
            },
            {
              "internalType": "uint64",
              "name": "expirationTime",
              "type": "uint64"
            },
            {
              "internalType": "uint64",
              "name": "revocationTime",
              "type": "uint64"
            },
            {
              "internalType": "bytes32",
              "name": "refUID",
              "type": "bytes32"
            },
            {
              "internalType": "address",
              "name": "recipient",
              "type": "address"
            },
            {
              "internalType": "address",
              "name": "attester",
              "type": "address"
            },
            {
              "internalType": "bool",
              "name": "revocable",
              "type": "bool"
            },
            {
              "internalType": "bytes",
              "name": "data",
              "type": "bytes"
            }
          ],
          "internalType": "struct Attestation",
          "name": "attestation",
          "type": "tuple"
        }
      ],
      "name": "AttestationInserted",
      "outputs": [],
      "stateMutability": "nonpayable",
      "type": "function"
    },
    {
      "inputs": [
        {
          "internalType": "bytes32",
          "name": "uid",
          "type": "bytes32"
        },
        {
          "internalType": "address",
          "name": "revoker",
          "type": "address"
        },
        {
          "internalType": "uint256",
          "name": "revocationTime",
          "type": "uint256"
        }
      ],
      "name": "AttestationRevokedUpdate",
      "outputs": [],
      "stateMutability": "nonpayable",
      "type": "function"
    },
    {
      "inputs": [
        {
          "internalType": "bytes32",
          "name": "uid",
          "type": "bytes32"
        },
        {
          "internalType": "bool",
          "name": "revocable",
          "type": "bool"
        }
      ],
      "name": "RevocationInfoInserted",
      "outputs": [],
      "stateMutability": "nonpayable",
      "type": "function"
    },
    {
      "inputs": [
        {
          "internalType": "address",
          "name": "revoker",
          "type": "address"
        },
        {
          "internalType": "bytes32",
          "name": "uid",
          "type": "bytes32"
        },
        {
          "internalType": "uint256",
          "name": "time",
          "type": "uint256"
        }
      ],
      "name": "RevokedOffChain",
      "outputs": [],
      "stateMutability": "nonpayable",
      "type": "function"
    },
    {
      "inputs": [
        {
          "internalType": "bytes32",
          "name": "uid",
          "type": "bytes32"
        },
        {
          "internalType": "uint256",
          "name": "time",
          "type": "uint256"
        }
      ],
      "name": "Timestamped",
      "outputs": [],
      "stateMutability": "nonpayable",
      "type": "function"
    },
    {
      "inputs": [
        {
          "internalType": "bytes32",
          "name": "data",
          "type": "bytes32"
        }
      ],
      "name": "bytes32ToString",
      "outputs": [
        {
          "internalType": "string",
          "name": "",
          "type": "string"
        }
      ],
      "stateMutability": "pure",
      "type": "function"
    },
    {
      "inputs": [
        {
          "internalType": "bytes",
          "name": "data",
          "type": "bytes"
        }
      ],
      "name": "bytesToString",
      "outputs": [
        {
          "internalType": "string",
          "name": "",
          "type": "string"
        }
      ],
      "stateMutability": "pure",
      "type": "function"
    },
    {
      "inputs": [
        {
          "internalType": "address",
          "name": "",
          "type": "address"
        },
        {
          "internalType": "address",
          "name": "",
          "type": "address"
        },
        {
          "internalType": "uint256",
          "name": "",
          "type": "uint256"
        },
        {
          "internalType": "bytes",
          "name": "",
          "type": "bytes"
        }
      ],
      "name": "onERC721Received",
      "outputs": [
        {
          "internalType": "bytes4",
          "name": "",
          "type": "bytes4"
        }
      ],
      "stateMutability": "pure",
      "type": "function"
    },
    {
      "inputs": [],
      "name": "owner",
      "outputs": [
        {
          "internalType": "address",
          "name": "",
          "type": "address"
        }
      ],
      "stateMutability": "view",
      "type": "function"
    },
    {
      "inputs": [],
      "name": "renounceOwnership",
      "outputs": [],
      "stateMutability": "nonpayable",
      "type": "function"
    },
    {
      "inputs": [
        {
          "internalType": "uint256",
          "name": "",
          "type": "uint256"
        }
      ],
      "name": "tables",
      "outputs": [
        {
          "internalType": "string",
          "name": "",
          "type": "string"
        }
      ],
      "stateMutability": "view",
      "type": "function"
    },
    {
      "inputs": [],
      "name": "tablesUpdates",
      "outputs": [
        {
          "internalType": "uint256",
          "name": "",
          "type": "uint256"
        }
      ],
      "stateMutability": "view",
      "type": "function"
    },
    {
      "inputs": [
        {
          "internalType": "address",
          "name": "newOwner",
          "type": "address"
        }
      ],
      "name": "transferOwnership",
      "outputs": [],
      "stateMutability": "nonpayable",
      "type": "function"
    }
  ],
  "transactionHash": "0xe45ea6599ef4a90e7d988ceb341f2da81719b65635bba3f280faf9efb3652d7e",
  "args": [],
  "numDeployments": 2,
  "solcInputHash": "d31e9c73c386cbc44453233e1ac13d42",
  "bytecode": "0x60806040523480156200001157600080fd5b506200001d336200047c565b62000027620004cc565b600160006101000a8154816001600160a01b0302191690836001600160a01b031602179055506002620000956040518060c0016040528060888152602001620038416088913960408051808201909152600b81526a30ba3a32b9ba30ba34b7b760a91b60208201526200068f565b81546001810183556000928352602090922090910190620000b7908262000985565b506002620000ff604051806080016040528060478152602001620038c96047913960408051808201909152600a8152693932bb37b1b0ba34b7b760b11b60208201526200068f565b8154600181018355600092835260209092209091019062000121908262000985565b506002620001956040518060400160405280601c81526020017f75696420746578742c2074696d657374616d70656441742074657874000000008152506040518060400160405280601281526020017106f6666436861696e5f74696d657374616d760741b8152506200068f60201b60201c565b81546001810183556000928352602090922090910190620001b7908262000985565b506002620002086040518060600160405280602681526020016200381b6026913960408051808201909152601381527237b33321b430b4b72fb932bb37b1b0ba34b7b760691b60208201526200068f565b815460018101835560009283526020909220909101906200022a908262000985565b506001546040516361a23d0f60e01b81526001600160a01b03909116906361a23d0f906200026090309060029060040162000a51565b6000604051808303816000875af115801562000280573d6000803e3d6000fd5b505050506040513d6000823e601f3d908101601f19168201604052620002aa919081019062000b39565b8051620002c09160049160209091019062000879565b506003620003196040518060400160405280600b81526020016a30ba3a32b9ba30ba34b7b760a91b815250600460008154811062000302576200030262000c02565b9060005260206000200154620006c960201b60201c565b815460018101835560009283526020909220909101906200033b908262000985565b5060036200037c6040518060400160405280600a8152602001693932bb37b1b0ba34b7b760b11b815250600460018154811062000302576200030262000c02565b815460018101835560009283526020909220909101906200039e908262000985565b506003620003e76040518060400160405280601281526020017106f6666436861696e5f74696d657374616d760741b815250600460028154811062000302576200030262000c02565b8154600181018355600092835260209092209091019062000409908262000985565b506003620004536040518060400160405280601381526020017237b33321b430b4b72fb932bb37b1b0ba34b7b760691b815250600460038154811062000302576200030262000c02565b8154600181018355600092835260209092209091019062000475908262000985565b5062000cf3565b600080546001600160a01b038381166001600160a01b0319831681178455604051919092169283917f8be0079c531659141344cd1fd0a4f28419497f9722a3daafe3b4186f6b6457e09190a35050565b600046600103620004f0575073012969f7e3439a9b04025b5a049eb9bad82a8c1290565b46600a0362000512575073fad44bf5b843de943a09d4f3e84949a11d3aa3e690565b4661a4b103620005355750739abd75e8640871a5a20d3b4ee6330a04c962affd90565b4661a4ba03620005585750731a22854c5b1642760a827f20137a67930ae108d290565b466089036200057a5750735c4e6a9e5c1e1bf445a062006faf19ea6c49afea90565b4661013a036200059d57507359ef8bf2d6c102b4c42aef9189e1a9f0abfd652d90565b46600503620005bf575073da8ea22d092307874f30a1f277d1388dca0ba97a90565b466101a403620005e2575073c72e8a7be04f2469f8c2db3f1bdf69a7d516abba90565b4662066eed0362000606575073033f69e8d119205089ab15d340f5b797732f646b90565b4662013881036200062a5750734b48841d4b32c4650e4abc117a03fe8b51f38f6890565b46610c45036200064d5750730b9737ab4b3e5303cb67db031b509697e31c02d390565b46617a690362000670575073e7f1725e7734ce288f8367e1bb143e90bb3f051290565b60405163264e42cf60e01b815246600482015260240160405180910390fd5b6060816200069d46620006f6565b84604051602001620006b29392919062000c4a565b604051602081830303815290604052905092915050565b606082620006d746620006f6565b620006e284620006f6565b604051602001620006b29392919062000cb0565b6060600062000705836200078f565b60010190506000816001600160401b03811115620007275762000727620008e0565b6040519080825280601f01601f19166020018201604052801562000752576020820181803683370190505b5090508181016020015b600019016f181899199a1a9b1b9c1cb0b131b232b360811b600a86061a8153600a85049450846200075c57509392505050565b6000807a184f03e93ff9f4daa797ed6e38ed64bf6a1f0100000000000000008310620007d9577a184f03e93ff9f4daa797ed6e38ed64bf6a1f010000000000000000830492506040015b6d04ee2d6d415b85acef8100000000831062000806576d04ee2d6d415b85acef8100000000830492506020015b662386f26fc1000083106200082557662386f26fc10000830492506010015b6305f5e10083106200083e576305f5e100830492506008015b61271083106200085357612710830492506004015b6064831062000866576064830492506002015b600a831062000873576001015b92915050565b828054828255906000526020600020908101928215620008b7579160200282015b82811115620008b75782518255916020019190600101906200089a565b50620008c5929150620008c9565b5090565b5b80821115620008c55760008155600101620008ca565b634e487b7160e01b600052604160045260246000fd5b600181811c908216806200090b57607f821691505b6020821081036200092c57634e487b7160e01b600052602260045260246000fd5b50919050565b601f8211156200098057600081815260208120601f850160051c810160208610156200095b5750805b601f850160051c820191505b818110156200097c5782815560010162000967565b5050505b505050565b81516001600160401b03811115620009a157620009a1620008e0565b620009b981620009b28454620008f6565b8462000932565b602080601f831160018114620009f15760008415620009d85750858301515b600019600386901b1c1916600185901b1785556200097c565b600085815260208120601f198616915b8281101562000a225788860151825594840194600190910190840162000a01565b508582101562000a415787850151600019600388901b60f8161c191681555b5050505050600190811b01905550565b60006040820160018060a01b0385168352602060408185015281855480845260608601915060059350606081851b8701016000888152848120815b8481101562000b2957605f198a850301865282825462000aac81620008f6565b8087526001828116801562000aca576001811462000ae45762000b11565b60ff198416898d01528215158d1b89018c01945062000b11565b8688528b8820885b8481101562000b095781548b82018f0152908301908d0162000aec565b8a018d019550505b50988a01989296505050919091019060010162000a8c565b50919a9950505050505050505050565b6000602080838503121562000b4d57600080fd5b82516001600160401b038082111562000b6557600080fd5b818501915085601f83011262000b7a57600080fd5b81518181111562000b8f5762000b8f620008e0565b8060051b604051601f19603f8301168101818110858211171562000bb75762000bb7620008e0565b60405291825284820192508381018501918883111562000bd657600080fd5b938501935b8285101562000bf65784518452938501939285019262000bdb565b98975050505050505050565b634e487b7160e01b600052603260045260246000fd5b6000815160005b8181101562000c3b576020818501810151868301520162000c1f565b50600093019283525090919050565b6c021a922a0aa22902a20a126229609d1b8152600062000c6e600d83018662000c18565b605f60f81b815262000c84600182018662000c18565b9050600560fb1b815262000c9c600182018562000c18565b602960f81b81526001019695505050505050565b600062000cbe828662000c18565b605f60f81b80825262000cd5600183018762000c18565b908152905062000ce9600182018562000c18565b9695505050505050565b612b188062000d036000396000f3fe608060405234801561001057600080fd5b50600436106100df5760003560e01c80638da5cb5b1161008c578063a560756d11610066578063a560756d14610207578063ac2d13e71461021a578063d7d205451461022d578063f2fde38b1461024057600080fd5b80638da5cb5b146101b95780639201de55146101e157806395665235146101f457600080fd5b806371671bf2116100bd57806371671bf21461017c5780637a99dcd91461018f57806389cdc830146101a257600080fd5b8063150b7a02146100e457806339614e4f14610152578063715018a614610172575b600080fd5b61011c6100f2366004611a69565b7f150b7a020000000000000000000000000000000000000000000000000000000095945050505050565b6040517fffffffff0000000000000000000000000000000000000000000000000000000090911681526020015b60405180910390f35b610165610160366004611c3a565b610253565b6040516101499190611ce5565b61017a610484565b005b61016561018a366004611cf8565b610498565b61017a61019d366004611d11565b610544565b6101ab60055481565b604051908152602001610149565b60005460405173ffffffffffffffffffffffffffffffffffffffff9091168152602001610149565b6101656101ef366004611cf8565b610655565b61017a610202366004611d44565b610851565b61017a610215366004611da1565b61093b565b61017a610228366004611e98565b610b45565b61017a61023b366004611ec4565b610cc8565b61017a61024e366004611ee6565b610da9565b60606000825160026102659190611f30565b67ffffffffffffffff81111561027d5761027d611b04565b6040519080825280601f01601f1916602001820160405280156102a7576020820181803683370190505b5060408051808201909152601081527f3031323334353637383961626364656600000000000000000000000000000000602082015290915060005b845181101561045a5781825186838151811061030057610300611f47565b0160200151610312919060f81c611fa5565b8151811061032257610322611f47565b01602001517fff000000000000000000000000000000000000000000000000000000000000001683610355836002611f30565b8151811061036557610365611f47565b60200101907effffffffffffffffffffffffffffffffffffffffffffffffffffffffffffff1916908160001a9053508182518683815181106103a9576103a9611f47565b01602001516103bb919060f81c611fb9565b815181106103cb576103cb611f47565b01602001517fff0000000000000000000000000000000000000000000000000000000000000016836103fe836002611f30565b610409906001611fcd565b8151811061041957610419611f47565b60200101907effffffffffffffffffffffffffffffffffffffffffffffffffffffffffffff1916908160001a9053508061045281611fe0565b9150506102e2565b508160405160200161046c9190612034565b60405160208183030381529060405292505050919050565b61048c610e60565b6104966000610ee1565b565b600381815481106104a857600080fd5b9060005260206000200160009150905080546104c390612079565b80601f01602080910402602001604051908101604052809291908181526020018280546104ef90612079565b801561053c5780601f106105115761010080835404028352916020019161053c565b820191906000526020600020905b81548152906001019060200180831161051f57829003601f168201915b505050505081565b61054c610e60565b610650600460038154811061056357610563611f47565b906000526020600020015461064b6040518060400160405280601381526020017f6f6666436861696e5f7265766f636174696f6e0000000000000000000000000081525060046003815481106105bb576105bb611f47565b90600052602060002001546040518060400160405280601781526020017f7265766f6b65722c207569642c207265766f6b6564417400000000000000000081525061060d6106088a610f56565b610f7f565b6106196106088a610655565b6106256106088a610fa8565b604051602001610637939291906120cc565b604051602081830303815290604052611066565b6110a5565b505050565b6060600061066560206002612142565b60ff1667ffffffffffffffff81111561068057610680611b04565b6040519080825280601f01601f1916602001820160405280156106aa576020820181803683370190505b5060408051808201909152601081527f3031323334353637383961626364656600000000000000000000000000000000602082015290915060005b602081101561045a5781825186836020811061070357610703611f47565b61070f9291901a611fa5565b8151811061071f5761071f611f47565b01602001517fff000000000000000000000000000000000000000000000000000000000000001683610752836002611f30565b8151811061076257610762611f47565b60200101907effffffffffffffffffffffffffffffffffffffffffffffffffffffffffffff1916908160001a9053508182518683602081106107a6576107a6611f47565b6107b29291901a611fb9565b815181106107c2576107c2611f47565b01602001517fff0000000000000000000000000000000000000000000000000000000000000016836107f5836002611f30565b610800906001611fcd565b8151811061081057610810611f47565b60200101907effffffffffffffffffffffffffffffffffffffffffffffffffffffffffffff1916908160001a9053508061084981611fe0565b9150506106e5565b610859610e60565b610650600460018154811061087057610870611f47565b906000526020600020015461064b6040518060400160405280600a81526020017f7265766f636174696f6e0000000000000000000000000000000000000000000081525060046001815481106108c8576108c8611f47565b90600052602060002001546108df61060888610f56565b6108eb61060888610fa8565b6040516020016108fc929190612165565b6040516020818303038152906040526109176106088a610655565b60405160200161092791906121e6565b604051602081830303815290604052611135565b610943610e60565b6000610953826101200151610253565b9050610400610961826111b0565b11156109ce576040517f08c379a000000000000000000000000000000000000000000000000000000000815260206004820152601460248201527f5461626c656c616e64206c696d69746174696f6e00000000000000000000000060448201526064015b60405180910390fd5b600654620186a0036109e2576109e26113b7565b610b1960046000815481106109f9576109f9611f47565b906000526020600020015461064b6040518060400160405280600b81526020017f6174746573746174696f6e0000000000000000000000000000000000000000008152506004600081548110610a5157610a51611f47565b9060005260206000200154604051806080016040528060548152602001612a6860549139610a856106088960000151610655565b610a956106088a60200151610655565b610aaf6106088b6040015167ffffffffffffffff16610fa8565b610ac96106088c6060015167ffffffffffffffff16610fa8565b610ad96106088d60a00151610655565b610ae96106088e60c00151610f56565b610af96106088f60e00151610f56565b610b028e610f7f565b60405160200161063798979695949392919061222b565b60068054906000610b2983611fe0565b9190505550610b418260000151836101000151610b45565b5050565b610b4d610e60565b610b416004600181548110610b6457610b64611f47565b906000526020600020015461064b6040518060400160405280600a81526020017f7265766f636174696f6e000000000000000000000000000000000000000000008152506004600181548110610bbc57610bbc611f47565b9060005260206000200154604051806060016040528060278152602001612abc60279139610bec61060889610655565b610c2a6040518060400160405280600181526020017f3000000000000000000000000000000000000000000000000000000000000000815250610f7f565b610c376106086000610f56565b610cb58a610c7a576040518060400160405280600581526020017f66616c7365000000000000000000000000000000000000000000000000000000815250610f7f565b6040518060400160405280600481526020017f7472756500000000000000000000000000000000000000000000000000000000815250610f7f565b604051602001610637949392919061237b565b610cd0610e60565b610b416004600281548110610ce757610ce7611f47565b906000526020600020015461064b6040518060400160405280601281526020017f6f6666436861696e5f74696d657374616d7000000000000000000000000000008152506004600281548110610d3f57610d3f611f47565b90600052602060002001546040518060400160405280601281526020017f7569642c2074696d657374616d70656441740000000000000000000000000000815250610d8c61060889610655565b610d9861060889610fa8565b60405160200161063792919061240f565b610db1610e60565b73ffffffffffffffffffffffffffffffffffffffff8116610e54576040517f08c379a000000000000000000000000000000000000000000000000000000000815260206004820152602660248201527f4f776e61626c653a206e6577206f776e657220697320746865207a65726f206160448201527f646472657373000000000000000000000000000000000000000000000000000060648201526084016109c5565b610e5d81610ee1565b50565b60005473ffffffffffffffffffffffffffffffffffffffff163314610496576040517f08c379a000000000000000000000000000000000000000000000000000000000815260206004820181905260248201527f4f776e61626c653a2063616c6c6572206973206e6f7420746865206f776e657260448201526064016109c5565b6000805473ffffffffffffffffffffffffffffffffffffffff8381167fffffffffffffffffffffffff0000000000000000000000000000000000000000831681178455604051919092169283917f8be0079c531659141344cd1fd0a4f28419497f9722a3daafe3b4186f6b6457e09190a35050565b6060610f7973ffffffffffffffffffffffffffffffffffffffff83166014611676565b92915050565b606081604051602001610f929190612467565b6040516020818303038152906040529050919050565b60606000610fb5836118c0565b600101905060008167ffffffffffffffff811115610fd557610fd5611b04565b6040519080825280601f01601f191660200182016040528015610fff576020820181803683370190505b5090508181016020015b7fffffffffffffffffffffffffffffffffffffffffffffffffffffffffffffffff017f3031323334353637383961626364656600000000000000000000000000000000600a86061a8153600a850494508461100957509392505050565b6060600061107486866119a2565b905080848460405160200161108b939291906124b1565b604051602081830303815290604052915050949350505050565b6001546040517f377af0da00000000000000000000000000000000000000000000000000000000815273ffffffffffffffffffffffffffffffffffffffff9091169063377af0da906110ff9030908690869060040161259b565b600060405180830381600087803b15801561111957600080fd5b505af115801561112d573d6000803e3d6000fd5b505050505050565b6060600061114386866119a2565b60408051602081019091526000815284519192509015611180578360405160200161116e91906125d9565b60405160208183030381529060405290505b8185826040516020016111959392919061261e565b60405160208183030381529060405292505050949350505050565b8051600090819081905b808210156113ae5760008583815181106111d6576111d6611f47565b01602001517fff000000000000000000000000000000000000000000000000000000000000001690507f800000000000000000000000000000000000000000000000000000000000000081101561123957611232600184611fcd565b925061139b565b7fe0000000000000000000000000000000000000000000000000000000000000007fff000000000000000000000000000000000000000000000000000000000000008216101561128e57611232600284611fcd565b7ff0000000000000000000000000000000000000000000000000000000000000007fff00000000000000000000000000000000000000000000000000000000000000821610156112e357611232600384611fcd565b7ff8000000000000000000000000000000000000000000000000000000000000007fff000000000000000000000000000000000000000000000000000000000000008216101561133857611232600484611fcd565b7ffc000000000000000000000000000000000000000000000000000000000000007fff000000000000000000000000000000000000000000000000000000000000008216101561138d57611232600584611fcd565b611398600684611fcd565b92505b50826113a681611fe0565b9350506111ba565b50909392505050565b6001546040517f61a23d0f00000000000000000000000000000000000000000000000000000000815273ffffffffffffffffffffffffffffffffffffffff909116906361a23d0f906114109030906002906004016126b6565b6000604051808303816000875af115801561142f573d6000803e3d6000fd5b505050506040513d6000823e601f3d9081017fffffffffffffffffffffffffffffffffffffffffffffffffffffffffffffffe016820160405261147591908101906127de565b8051611489916004916020909101906119e0565b5060036114e96040518060400160405280600b81526020017f6174746573746174696f6e00000000000000000000000000000000000000000081525060046000815481106114d9576114d9611f47565b90600052602060002001546119a2565b8154600181018355600092835260209092209091019061150990826128ca565b5060036115596040518060400160405280600a81526020017f7265766f636174696f6e0000000000000000000000000000000000000000000081525060046001815481106114d9576114d9611f47565b8154600181018355600092835260209092209091019061157990826128ca565b5060036115c96040518060400160405280601281526020017f6f6666436861696e5f74696d657374616d70000000000000000000000000000081525060046002815481106114d9576114d9611f47565b815460018101835560009283526020909220909101906115e990826128ca565b5060036116396040518060400160405280601381526020017f6f6666436861696e5f7265766f636174696f6e0000000000000000000000000081525060046003815481106114d9576114d9611f47565b8154600181018355600092835260209092209091019061165990826128ca565b5060006006819055600580549161166f83611fe0565b9190505550565b60606000611685836002611f30565b611690906002611fcd565b67ffffffffffffffff8111156116a8576116a8611b04565b6040519080825280601f01601f1916602001820160405280156116d2576020820181803683370190505b5090507f30000000000000000000000000000000000000000000000000000000000000008160008151811061170957611709611f47565b60200101907effffffffffffffffffffffffffffffffffffffffffffffffffffffffffffff1916908160001a9053507f78000000000000000000000000000000000000000000000000000000000000008160018151811061176c5761176c611f47565b60200101907effffffffffffffffffffffffffffffffffffffffffffffffffffffffffffff1916908160001a90535060006117a8846002611f30565b6117b3906001611fcd565b90505b6001811115611850577f303132333435363738396162636465660000000000000000000000000000000085600f16601081106117f4576117f4611f47565b1a60f81b82828151811061180a5761180a611f47565b60200101907effffffffffffffffffffffffffffffffffffffffffffffffffffffffffffff1916908160001a90535060049490941c93611849816129e4565b90506117b6565b5083156118b9576040517f08c379a000000000000000000000000000000000000000000000000000000000815260206004820181905260248201527f537472696e67733a20686578206c656e67746820696e73756666696369656e7460448201526064016109c5565b9392505050565b6000807a184f03e93ff9f4daa797ed6e38ed64bf6a1f0100000000000000008310611909577a184f03e93ff9f4daa797ed6e38ed64bf6a1f010000000000000000830492506040015b6d04ee2d6d415b85acef81000000008310611935576d04ee2d6d415b85acef8100000000830492506020015b662386f26fc10000831061195357662386f26fc10000830492506010015b6305f5e100831061196b576305f5e100830492506008015b612710831061197f57612710830492506004015b60648310611991576064830492506002015b600a8310610f795760010192915050565b6060826119ae46610fa8565b6119b784610fa8565b6040516020016119c993929190612a19565b604051602081830303815290604052905092915050565b828054828255906000526020600020908101928215611a1b579160200282015b82811115611a1b578251825591602001919060010190611a00565b50611a27929150611a2b565b5090565b5b80821115611a275760008155600101611a2c565b803573ffffffffffffffffffffffffffffffffffffffff81168114611a6457600080fd5b919050565b600080600080600060808688031215611a8157600080fd5b611a8a86611a40565b9450611a9860208701611a40565b935060408601359250606086013567ffffffffffffffff80821115611abc57600080fd5b818801915088601f830112611ad057600080fd5b813581811115611adf57600080fd5b896020828501011115611af157600080fd5b9699959850939650602001949392505050565b7f4e487b7100000000000000000000000000000000000000000000000000000000600052604160045260246000fd5b604051610140810167ffffffffffffffff81118282101715611b5757611b57611b04565b60405290565b604051601f82017fffffffffffffffffffffffffffffffffffffffffffffffffffffffffffffffe016810167ffffffffffffffff81118282101715611ba457611ba4611b04565b604052919050565b600082601f830112611bbd57600080fd5b813567ffffffffffffffff811115611bd757611bd7611b04565b611c0860207fffffffffffffffffffffffffffffffffffffffffffffffffffffffffffffffe0601f84011601611b5d565b818152846020838601011115611c1d57600080fd5b816020850160208301376000918101602001919091529392505050565b600060208284031215611c4c57600080fd5b813567ffffffffffffffff811115611c6357600080fd5b611c6f84828501611bac565b949350505050565b60005b83811015611c92578181015183820152602001611c7a565b50506000910152565b60008151808452611cb3816020860160208601611c77565b601f017fffffffffffffffffffffffffffffffffffffffffffffffffffffffffffffffe0169290920160200192915050565b6020815260006118b96020830184611c9b565b600060208284031215611d0a57600080fd5b5035919050565b600080600060608486031215611d2657600080fd5b611d2f84611a40565b95602085013595506040909401359392505050565b600080600060608486031215611d5957600080fd5b83359250611d6960208501611a40565b9150604084013590509250925092565b803567ffffffffffffffff81168114611a6457600080fd5b80358015158114611a6457600080fd5b600060208284031215611db357600080fd5b813567ffffffffffffffff80821115611dcb57600080fd5b908301906101408286031215611de057600080fd5b611de8611b33565b8235815260208301356020820152611e0260408401611d79565b6040820152611e1360608401611d79565b6060820152611e2460808401611d79565b608082015260a083013560a0820152611e3f60c08401611a40565b60c0820152611e5060e08401611a40565b60e0820152610100611e63818501611d91565b908201526101208381013583811115611e7b57600080fd5b611e8788828701611bac565b918301919091525095945050505050565b60008060408385031215611eab57600080fd5b82359150611ebb60208401611d91565b90509250929050565b60008060408385031215611ed757600080fd5b50508035926020909101359150565b600060208284031215611ef857600080fd5b6118b982611a40565b7f4e487b7100000000000000000000000000000000000000000000000000000000600052601160045260246000fd5b8082028115828204841417610f7957610f79611f01565b7f4e487b7100000000000000000000000000000000000000000000000000000000600052603260045260246000fd5b7f4e487b7100000000000000000000000000000000000000000000000000000000600052601260045260246000fd5b600082611fb457611fb4611f76565b500490565b600082611fc857611fc8611f76565b500690565b80820180821115610f7957610f79611f01565b60007fffffffffffffffffffffffffffffffffffffffffffffffffffffffffffffffff820361201157612011611f01565b5060010190565b6000815161202a818560208601611c77565b9290920192915050565b7f307800000000000000000000000000000000000000000000000000000000000081526000825161206c816002850160208701611c77565b9190910160020192915050565b600181811c9082168061208d57607f821691505b6020821081036120c6577f4e487b7100000000000000000000000000000000000000000000000000000000600052602260045260246000fd5b50919050565b600084516120de818460208901611c77565b80830190507f2c00000000000000000000000000000000000000000000000000000000000000808252855161211a816001850160208a01611c77565b60019201918201528351612135816002840160208801611c77565b0160020195945050505050565b60ff818116838216029081169081811461215e5761215e611f01565b5092915050565b7f7265766f6b65723d00000000000000000000000000000000000000000000000081526000835161219d816008850160208801611c77565b7f2c207265766f636174696f6e54696d653d00000000000000000000000000000060089184019182015283516121da816019840160208801611c77565b01601901949350505050565b7f7569643d0000000000000000000000000000000000000000000000000000000081526000825161221e816004850160208701611c77565b9190910160040192915050565b6000895161223d818460208e01611c77565b80830190507f2c000000000000000000000000000000000000000000000000000000000000008082528a51612279816001850160208f01611c77565b600192019182018190528951612296816002850160208e01611c77565b6002920191820181905288516122b3816003850160208d01611c77565b600392019182015286516122ce816004840160208b01611c77565b016122fb600482017f2c000000000000000000000000000000000000000000000000000000000000009052565b6123086005820187612018565b7f2c000000000000000000000000000000000000000000000000000000000000008152905061233a6001820186612018565b7f2c000000000000000000000000000000000000000000000000000000000000008152905061236c6001820185612018565b9b9a5050505050505050505050565b6000855161238d818460208a01611c77565b80830190507f2c0000000000000000000000000000000000000000000000000000000000000080825286516123c9816001850160208b01611c77565b6001920191820181905285516123e6816002850160208a01611c77565b60029201918201528351612401816003840160208801611c77565b016003019695505050505050565b60008351612421818460208801611c77565b7f2c00000000000000000000000000000000000000000000000000000000000000908301908152835161245b816001840160208801611c77565b01600101949350505050565b60007f270000000000000000000000000000000000000000000000000000000000000080835283516124a0816001860160208801611c77565b600193019283015250600201919050565b7f494e5345525420494e544f2000000000000000000000000000000000000000008152600084516124e981600c850160208901611c77565b7f2800000000000000000000000000000000000000000000000000000000000000600c91840191820152845161252681600d840160208901611c77565b7f2956414c55455328000000000000000000000000000000000000000000000000600d92909101918201528351612564816015840160208801611c77565b7f29000000000000000000000000000000000000000000000000000000000000006015929091019182015260160195945050505050565b73ffffffffffffffffffffffffffffffffffffffff841681528260208201526060604082015260006125d06060830184611c9b565b95945050505050565b7f2057484552452000000000000000000000000000000000000000000000000000815260008251612611816007850160208701611c77565b9190910160070192915050565b7f5550444154452000000000000000000000000000000000000000000000000000815260008451612656816007850160208901611c77565b7f2053455420000000000000000000000000000000000000000000000000000000600791840191820152845161269381600c840160208901611c77565b84519101906126a981600c840160208801611c77565b01600c0195945050505050565b60006040820173ffffffffffffffffffffffffffffffffffffffff85168352602060408185015281855480845260608601915060059350606081851b8701016000888152848120815b848110156127ce577fffffffffffffffffffffffffffffffffffffffffffffffffffffffffffffffa08a850301865282825461273a81612079565b80875260018281168015612755576001811461278c576127b7565b7fffffffffffffffffffffffffffffffffffffffffffffffffffffffffffffff0084168c8a01528b8315158e1b8a010194506127b7565b8688528b8820885b848110156127af5781548b82018f0152908301908d01612794565b8a018d019550505b50988a0198929650505091909101906001016126ff565b50919a9950505050505050505050565b600060208083850312156127f157600080fd5b825167ffffffffffffffff8082111561280957600080fd5b818501915085601f83011261281d57600080fd5b81518181111561282f5761282f611b04565b8060051b9150612840848301611b5d565b818152918301840191848101908884111561285a57600080fd5b938501935b838510156128785784518252938501939085019061285f565b98975050505050505050565b601f82111561065057600081815260208120601f850160051c810160208610156128ab5750805b601f850160051c820191505b8181101561112d578281556001016128b7565b815167ffffffffffffffff8111156128e4576128e4611b04565b6128f8816128f28454612079565b84612884565b602080601f83116001811461294b57600084156129155750858301515b7fffffffffffffffffffffffffffffffffffffffffffffffffffffffffffffffff600386901b1c1916600185901b17855561112d565b6000858152602081207fffffffffffffffffffffffffffffffffffffffffffffffffffffffffffffffe08616915b8281101561299857888601518255948401946001909101908401612979565b50858210156129d457878501517fffffffffffffffffffffffffffffffffffffffffffffffffffffffffffffffff600388901b60f8161c191681555b5050505050600190811b01905550565b6000816129f3576129f3611f01565b507fffffffffffffffffffffffffffffffffffffffffffffffffffffffffffffffff0190565b60008451612a2b818460208901611c77565b80830190507f5f00000000000000000000000000000000000000000000000000000000000000808252855161211a816001850160208a01611c7756fe7569642c20736368656d615549442c206372656174696f6e54696d657374616d702c2065787069726174696f6e54696d652c207265665549442c20726563697069656e742c2061747465737465722c20646174617569642c207265766f636174696f6e54696d652c207265766f6b65722c207265766f6361626c65a2646970667358221220de3be17e2e9ceae8cabdb5a9eaad7b2f161f0e3165fd00901faa4d8e2d3d2fb464736f6c634300081300337265766f6b657220746578742c2075696420746578742c207265766f6b6564417420746578747569642074657874207072696d617279206b65792c20736368656d6155494420746578742c206372656174696f6e54696d657374616d7020746578742c2065787069726174696f6e54696d6520746578742c2072656655494420746578742c20726563697069656e7420746578742c20617474657374657220746578742c206461746120746578747569642074657874207072696d617279206b65792c207265766f636174696f6e54696d6520746578742c207265766f6b657220746578742c207265766f6361626c652074657874",
  "devdoc": {
    "kind": "dev",
    "methods": {
      "owner()": {
        "details": "Returns the address of the current owner."
      },
      "renounceOwnership()": {
        "details": "Leaves the contract without owner. It will not be possible to call `onlyOwner` functions. Can only be called by the current owner. NOTE: Renouncing ownership will leave the contract without an owner, thereby disabling any functionality that is only available to the owner."
      },
      "transferOwnership(address)": {
        "details": "Transfers ownership of the contract to a new account (`newOwner`). Can only be called by the current owner."
      }
    },
    "title": "TAS",
    "version": 1
  },
  "userdoc": {
    "errors": {
      "ChainNotSupported(uint256)": [
        {
          "notice": "Current chain does not have a TablelandTables deployment."
        }
      ]
    },
    "kind": "user",
    "methods": {},
    "notice": "The Tableland Attestation Service protocol.",
    "version": 1
  },
  "storageLayout": {
    "storage": [
      {
        "astId": 396,
        "contract": "contracts/tablelandIndexers/TASIndexer.sol:TASIndexer",
        "label": "_owner",
        "offset": 0,
        "slot": "0",
        "type": "t_address"
      },
      {
        "astId": 11559,
        "contract": "contracts/tablelandIndexers/TASIndexer.sol:TASIndexer",
        "label": "tablelandContract",
        "offset": 0,
        "slot": "1",
        "type": "t_contract(ITablelandTables)4963"
      },
      {
        "astId": 11562,
        "contract": "contracts/tablelandIndexers/TASIndexer.sol:TASIndexer",
        "label": "createTableStatements",
        "offset": 0,
        "slot": "2",
        "type": "t_array(t_string_storage)dyn_storage"
      },
      {
        "astId": 11565,
        "contract": "contracts/tablelandIndexers/TASIndexer.sol:TASIndexer",
        "label": "tables",
        "offset": 0,
        "slot": "3",
        "type": "t_array(t_string_storage)dyn_storage"
      },
      {
        "astId": 11568,
        "contract": "contracts/tablelandIndexers/TASIndexer.sol:TASIndexer",
        "label": "tableIDs",
        "offset": 0,
        "slot": "4",
        "type": "t_array(t_uint256)dyn_storage"
      },
      {
        "astId": 11570,
        "contract": "contracts/tablelandIndexers/TASIndexer.sol:TASIndexer",
        "label": "tablesUpdates",
        "offset": 0,
        "slot": "5",
        "type": "t_uint256"
      },
      {
        "astId": 11572,
        "contract": "contracts/tablelandIndexers/TASIndexer.sol:TASIndexer",
        "label": "tablesRowsCounter",
        "offset": 0,
        "slot": "6",
        "type": "t_uint256"
      }
    ],
    "types": {
      "t_address": {
        "encoding": "inplace",
        "label": "address",
        "numberOfBytes": "20"
      },
      "t_array(t_string_storage)dyn_storage": {
        "base": "t_string_storage",
        "encoding": "dynamic_array",
        "label": "string[]",
        "numberOfBytes": "32"
      },
      "t_array(t_uint256)dyn_storage": {
        "base": "t_uint256",
        "encoding": "dynamic_array",
        "label": "uint256[]",
        "numberOfBytes": "32"
      },
      "t_contract(ITablelandTables)4963": {
        "encoding": "inplace",
        "label": "contract ITablelandTables",
        "numberOfBytes": "20"
      },
      "t_string_storage": {
        "encoding": "bytes",
        "label": "string",
        "numberOfBytes": "32"
      },
      "t_uint256": {
        "encoding": "inplace",
        "label": "uint256",
        "numberOfBytes": "32"
      }
    }
  }
}