{
  "address": "0x4f811dEB6BF1abE7D7423C95153Ad27cbDF3458E",
  "abi": [
    {
      "inputs": [
        {
          "internalType": "contract ITAS",
          "name": "tas",
          "type": "address"
        },
        {
          "internalType": "address",
          "name": "_splitterFactory",
          "type": "address"
        },
        {
          "internalType": "contract ISchemaRegistry",
          "name": "_schemaRegistry",
          "type": "address"
        },
        {
          "internalType": "contract ITablelandSubscriptionsIndexer",
          "name": "_tableland",
          "type": "address"
        }
      ],
      "stateMutability": "nonpayable",
      "type": "constructor"
    },
    {
      "inputs": [],
      "name": "AccessDenied",
      "type": "error"
    },
    {
      "inputs": [],
      "name": "InsufficientValue",
      "type": "error"
    },
    {
      "inputs": [],
      "name": "InvalidLength",
      "type": "error"
    },
    {
      "inputs": [],
      "name": "InvalidTAS",
      "type": "error"
    },
    {
      "inputs": [],
      "name": "NotPayable",
      "type": "error"
    },
    {
      "inputs": [
        {
          "components": [
            {
              "internalType": "bytes32",
              "name": "uid",
              "type": "bytes32"
            },
            {
              "internalType": "bytes32",
              "name": "schema",
              "type": "bytes32"
            },
            {
              "internalType": "uint64",
              "name": "time",
              "type": "uint64"
            },
            {
              "internalType": "uint64",
              "name": "expirationTime",
              "type": "uint64"
            },
            {
              "internalType": "uint64",
              "name": "revocationTime",
              "type": "uint64"
            },
            {
              "internalType": "bytes32",
              "name": "refUID",
              "type": "bytes32"
            },
            {
              "internalType": "address",
              "name": "recipient",
              "type": "address"
            },
            {
              "internalType": "address",
              "name": "attester",
              "type": "address"
            },
            {
              "internalType": "bool",
              "name": "revocable",
              "type": "bool"
            },
            {
              "internalType": "bytes",
              "name": "data",
              "type": "bytes"
            }
          ],
          "internalType": "struct Attestation",
          "name": "attestation",
          "type": "tuple"
        }
      ],
      "name": "attest",
      "outputs": [
        {
          "internalType": "bool",
          "name": "",
          "type": "bool"
        }
      ],
      "stateMutability": "payable",
      "type": "function"
    },
    {
      "inputs": [
        {
          "internalType": "bytes32",
          "name": "data",
          "type": "bytes32"
        }
      ],
      "name": "bytes32ToString",
      "outputs": [
        {
          "internalType": "string",
          "name": "",
          "type": "string"
        }
      ],
      "stateMutability": "pure",
      "type": "function"
    },
    {
      "inputs": [
        {
          "internalType": "address",
          "name": "sender",
          "type": "address"
        },
        {
          "internalType": "bytes32",
          "name": "schemaUID",
          "type": "bytes32"
        }
      ],
      "name": "hasAccess",
      "outputs": [
        {
          "internalType": "bool",
          "name": "",
          "type": "bool"
        }
      ],
      "stateMutability": "view",
      "type": "function"
    },
    {
      "inputs": [],
      "name": "isPayable",
      "outputs": [
        {
          "internalType": "bool",
          "name": "",
          "type": "bool"
        }
      ],
      "stateMutability": "pure",
      "type": "function"
    },
    {
      "inputs": [
        {
          "components": [
            {
              "internalType": "bytes32",
              "name": "uid",
              "type": "bytes32"
            },
            {
              "internalType": "bytes32",
              "name": "schema",
              "type": "bytes32"
            },
            {
              "internalType": "uint64",
              "name": "time",
              "type": "uint64"
            },
            {
              "internalType": "uint64",
              "name": "expirationTime",
              "type": "uint64"
            },
            {
              "internalType": "uint64",
              "name": "revocationTime",
              "type": "uint64"
            },
            {
              "internalType": "bytes32",
              "name": "refUID",
              "type": "bytes32"
            },
            {
              "internalType": "address",
              "name": "recipient",
              "type": "address"
            },
            {
              "internalType": "address",
              "name": "attester",
              "type": "address"
            },
            {
              "internalType": "bool",
              "name": "revocable",
              "type": "bool"
            },
            {
              "internalType": "bytes",
              "name": "data",
              "type": "bytes"
            }
          ],
          "internalType": "struct Attestation[]",
          "name": "attestations",
          "type": "tuple[]"
        },
        {
          "internalType": "uint256[]",
          "name": "values",
          "type": "uint256[]"
        }
      ],
      "name": "multiAttest",
      "outputs": [
        {
          "internalType": "bool",
          "name": "",
          "type": "bool"
        }
      ],
      "stateMutability": "payable",
      "type": "function"
    },
    {
      "inputs": [
        {
          "components": [
            {
              "internalType": "bytes32",
              "name": "uid",
              "type": "bytes32"
            },
            {
              "internalType": "bytes32",
              "name": "schema",
              "type": "bytes32"
            },
            {
              "internalType": "uint64",
              "name": "time",
              "type": "uint64"
            },
            {
              "internalType": "uint64",
              "name": "expirationTime",
              "type": "uint64"
            },
            {
              "internalType": "uint64",
              "name": "revocationTime",
              "type": "uint64"
            },
            {
              "internalType": "bytes32",
              "name": "refUID",
              "type": "bytes32"
            },
            {
              "internalType": "address",
              "name": "recipient",
              "type": "address"
            },
            {
              "internalType": "address",
              "name": "attester",
              "type": "address"
            },
            {
              "internalType": "bool",
              "name": "revocable",
              "type": "bool"
            },
            {
              "internalType": "bytes",
              "name": "data",
              "type": "bytes"
            }
          ],
          "internalType": "struct Attestation[]",
          "name": "attestations",
          "type": "tuple[]"
        },
        {
          "internalType": "uint256[]",
          "name": "values",
          "type": "uint256[]"
        }
      ],
      "name": "multiRevoke",
      "outputs": [
        {
          "internalType": "bool",
          "name": "",
          "type": "bool"
        }
      ],
      "stateMutability": "payable",
      "type": "function"
    },
    {
      "inputs": [
        {
          "internalType": "address[]",
          "name": "contentCreators",
          "type": "address[]"
        },
        {
          "internalType": "uint256[]",
          "name": "creatorsShares",
          "type": "uint256[]"
        },
        {
          "internalType": "uint256",
          "name": "monthlySubscriptionPrice",
          "type": "uint256"
        },
        {
          "components": [
            {
              "internalType": "string",
              "name": "schema",
              "type": "string"
            },
            {
              "internalType": "string",
              "name": "schemaName",
              "type": "string"
            },
            {
              "internalType": "string",
              "name": "schemaDescription",
              "type": "string"
            },
            {
              "internalType": "string[]",
              "name": "categories",
              "type": "string[]"
            },
            {
              "internalType": "contract ISchemaResolver",
              "name": "schemaResolver",
              "type": "address"
            },
            {
              "internalType": "bool",
              "name": "revocable",
              "type": "bool"
            }
          ],
          "internalType": "struct SchemaRegistrationInput",
          "name": "input",
          "type": "tuple"
        }
      ],
      "name": "registerSubscriptionSchema",
      "outputs": [],
      "stateMutability": "nonpayable",
      "type": "function"
    },
    {
      "inputs": [
        {
          "components": [
            {
              "internalType": "bytes32",
              "name": "uid",
              "type": "bytes32"
            },
            {
              "internalType": "bytes32",
              "name": "schema",
              "type": "bytes32"
            },
            {
              "internalType": "uint64",
              "name": "time",
              "type": "uint64"
            },
            {
              "internalType": "uint64",
              "name": "expirationTime",
              "type": "uint64"
            },
            {
              "internalType": "uint64",
              "name": "revocationTime",
              "type": "uint64"
            },
            {
              "internalType": "bytes32",
              "name": "refUID",
              "type": "bytes32"
            },
            {
              "internalType": "address",
              "name": "recipient",
              "type": "address"
            },
            {
              "internalType": "address",
              "name": "attester",
              "type": "address"
            },
            {
              "internalType": "bool",
              "name": "revocable",
              "type": "bool"
            },
            {
              "internalType": "bytes",
              "name": "data",
              "type": "bytes"
            }
          ],
          "internalType": "struct Attestation",
          "name": "attestation",
          "type": "tuple"
        }
      ],
      "name": "revoke",
      "outputs": [
        {
          "internalType": "bool",
          "name": "",
          "type": "bool"
        }
      ],
      "stateMutability": "payable",
      "type": "function"
    },
    {
      "inputs": [],
      "name": "splitterFactory",
      "outputs": [
        {
          "internalType": "address",
          "name": "",
          "type": "address"
        }
      ],
      "stateMutability": "view",
      "type": "function"
    },
    {
      "inputs": [
        {
          "internalType": "bytes32",
          "name": "schemaUID",
          "type": "bytes32"
        },
        {
          "internalType": "uint256",
          "name": "months",
          "type": "uint256"
        }
      ],
      "name": "subscribe",
      "outputs": [],
      "stateMutability": "payable",
      "type": "function"
    },
    {
      "inputs": [
        {
          "internalType": "bytes32",
          "name": "schemaUID",
          "type": "bytes32"
        },
        {
          "internalType": "uint256",
          "name": "newPrice",
          "type": "uint256"
        }
      ],
      "name": "updatePrice",
      "outputs": [],
      "stateMutability": "nonpayable",
      "type": "function"
    },
    {
      "inputs": [
        {
          "internalType": "address",
          "name": "",
          "type": "address"
        },
        {
          "internalType": "bytes32",
          "name": "",
          "type": "bytes32"
        }
      ],
      "name": "userSubscriptions",
      "outputs": [
        {
          "internalType": "uint256",
          "name": "",
          "type": "uint256"
        }
      ],
      "stateMutability": "view",
      "type": "function"
    },
    {
      "inputs": [],
      "name": "version",
      "outputs": [
        {
          "internalType": "string",
          "name": "",
          "type": "string"
        }
      ],
      "stateMutability": "view",
      "type": "function"
    },
    {
      "stateMutability": "payable",
      "type": "receive"
    }
  ],
  "transactionHash": "0xa47fa861ba62bf1784a02e10953af42524f4ae582aaa23accc0b9de75b8fc7b3",
  "args": [
    "0x98f49F16Bc77bAa51e6c9f938BFc111462e1f90D",
    "0x2d70e8Dd3C680CD8D0A857034e080ADE6Bb7220E",
    "0x45fbe0eDF2eeE718656B05eE224Db62055Cfa10D",
    "0x00ea5E35D2aEECfDc14A92fC49e45ac9E453eE91"
  ],
  "numDeployments": 3,
  "solcInputHash": "40806d3c7a739011afc9f4da7aaf3d6d",
  "bytecode": "0x62278d00600055610140604052600e6101009081526d1cdd1c9a5b99c81a9cdbdb90d25160921b61012052600190620000399082620001a0565b503480156200004757600080fd5b5060405162002729380380620027298339810160408190526200006a9162000285565b6000608081905260a052600160c052836001600160a01b038116620000a25760405163120d8e6b60e21b815260040160405180910390fd5b6001600160a01b0390811660e052600580546001600160a01b03199081163017909155600480549483169482169490941790935560078054948216948416949094179093556006805491909316911617905550620002ed565b634e487b7160e01b600052604160045260246000fd5b600181811c908216806200012657607f821691505b6020821081036200014757634e487b7160e01b600052602260045260246000fd5b50919050565b601f8211156200019b57600081815260208120601f850160051c81016020861015620001765750805b601f850160051c820191505b81811015620001975782815560010162000182565b5050505b505050565b81516001600160401b03811115620001bc57620001bc620000fb565b620001d481620001cd845462000111565b846200014d565b602080601f8311600181146200020c5760008415620001f35750858301515b600019600386901b1c1916600185901b17855562000197565b600085815260208120601f198616915b828110156200023d578886015182559484019460019091019084016200021c565b50858210156200025c5787850151600019600388901b60f8161c191681555b5050505050600190811b01905550565b6001600160a01b03811681146200028257600080fd5b50565b600080600080608085870312156200029c57600080fd5b8451620002a9816200026c565b6020860151909450620002bc816200026c565b6040860151909350620002cf816200026c565b6060860151909250620002e2816200026c565b939692955090935050565b60805160a05160c05160e0516124026200032760003960006113ab0152600061088e015260006108650152600061083c01526124026000f3fe6080604052600436106100d65760003560e01c806388e5b2d91161007f578063af74974611610059578063af74974614610250578063ce46e04614610270578063e49617e114610284578063e60c35051461029757600080fd5b806388e5b2d91461020a57806391db0b7e1461021d5780639201de551461023057600080fd5b80635f704f3e116100b05780635f704f3e14610174578063773a6c3b146101945780637d294e62146101da57600080fd5b80630778f0ac146100e457806354fd4d50146100f75780635608d9e51461012257600080fd5b366100df57005b005b600080fd5b6100dd6100f2366004611913565b6102aa565b34801561010357600080fd5b5061010c610835565b60405161011991906119a3565b60405180910390f35b34801561012e57600080fd5b5060075461014f9073ffffffffffffffffffffffffffffffffffffffff1681565b60405173ffffffffffffffffffffffffffffffffffffffff9091168152602001610119565b34801561018057600080fd5b506100dd61018f366004611913565b6108d8565b3480156101a057600080fd5b506101cc6101af3660046119db565b600360209081526000928352604080842090915290825290205481565b604051908152602001610119565b3480156101e657600080fd5b506101fa6101f53660046119db565b6109bd565b6040519015158152602001610119565b6101fa610218366004611a53565b610a17565b6101fa61022b366004611a53565b610b18565b34801561023c57600080fd5b5061010c61024b366004611abf565b610c09565b34801561025c57600080fd5b506100dd61026b366004611e12565b610e2f565b34801561027c57600080fd5b5060016101fa565b6101fa610292366004611f02565b6110da565b6101fa6102a5366004611f02565b6110ef565b60008111610319576040517f08c379a000000000000000000000000000000000000000000000000000000000815260206004820152601860248201527f6d696e2031206d6f6e746820737562736372697074696f6e000000000000000060448201526064015b60405180910390fd5b6000828152600260205260409020600301543490610338908390611f74565b1461039f576040517f08c379a000000000000000000000000000000000000000000000000000000000815260206004820152600f60248201527f496e636f72726563742076616c756500000000000000000000000000000000006044820152606401610310565b60008281526002602052604090206005015473ffffffffffffffffffffffffffffffffffffffff1661042d576040517f08c379a000000000000000000000000000000000000000000000000000000000815260206004820152600b60248201527f6e6f6e20657869737465640000000000000000000000000000000000000000006044820152606401610310565b3360009081526003602090815260408083208584529091528120548154909190610458908490611f74565b9050816000036105215761046c4282611f8b565b6006546040517f2e324b10000000000000000000000000000000000000000000000000000000008152600481018790523360248201526044810183905291925073ffffffffffffffffffffffffffffffffffffffff1690632e324b1090606401600060405180830381600087803b1580156104e657600080fd5b505af11580156104fa573d6000803e3d6000fd5b50503360009081526003602090815260408083208984529091529020839055506106a69050565b428211156105ec576105338183611f8b565b3360008181526003602090815260408083208984529091529081902083905560065490517fd2ea9ad00000000000000000000000000000000000000000000000000000000081526004810188905260248101929092526044820183905291935073ffffffffffffffffffffffffffffffffffffffff9091169063d2ea9ad090606401600060405180830381600087803b1580156105cf57600080fd5b505af11580156105e3573d6000803e3d6000fd5b505050506106a6565b6105f64282611f8b565b6006546040517fd2ea9ad0000000000000000000000000000000000000000000000000000000008152600481018790523360248201526044810183905291925073ffffffffffffffffffffffffffffffffffffffff169063d2ea9ad090606401600060405180830381600087803b15801561067057600080fd5b505af1158015610684573d6000803e3d6000fd5b5050336000908152600360209081526040808320898452909152902083905550505b600084815260026020526040812060040180543492906106c7908490611f8b565b90915550506000848152600260205260409020600501546106fe9073ffffffffffffffffffffffffffffffffffffffff1634611103565b600084815260026020908152604091829020600501548251600481526024810190935290820180517bffffffffffffffffffffffffffffffffffffffffffffffffffffffff167fe4fc6b6d0000000000000000000000000000000000000000000000000000000017905261078a9173ffffffffffffffffffffffffffffffffffffffff90911690611262565b506006546000858152600260205260409081902060049081015491517f8d879e6d00000000000000000000000000000000000000000000000000000000815273ffffffffffffffffffffffffffffffffffffffff90931692638d879e6d926107fd92899201918252602082015260400190565b600060405180830381600087803b15801561081757600080fd5b505af115801561082b573d6000803e3d6000fd5b5050505050505050565b60606108607f00000000000000000000000000000000000000000000000000000000000000006112a6565b6108897f00000000000000000000000000000000000000000000000000000000000000006112a6565b6108b27f00000000000000000000000000000000000000000000000000000000000000006112a6565b6040516020016108c493929190611f9e565b604051602081830303815290604052905090565b6000828152600260208190526040909120015473ffffffffffffffffffffffffffffffffffffffff16331461090c57600080fd5b6000811161091957600080fd5b6000828152600260205260409081902060030182905560065490517f1aa7cbe6000000000000000000000000000000000000000000000000000000008152600481018490526024810183905273ffffffffffffffffffffffffffffffffffffffff90911690631aa7cbe690604401600060405180830381600087803b1580156109a157600080fd5b505af11580156109b5573d6000803e3d6000fd5b505050505050565b73ffffffffffffffffffffffffffffffffffffffff82166000908152600360209081526040808320848452909152812054421080610a0e57506000828152600260205260409020610a0e9084611364565b90505b92915050565b6000610a21611393565b83828114610a5b576040517f947d5a8400000000000000000000000000000000000000000000000000000000815260040160405180910390fd5b3460005b82811015610b08576000868683818110610a7b57610a7b612014565b90506020020135905082811115610abe576040517f1101129400000000000000000000000000000000000000000000000000000000815260040160405180910390fd5b610aeb898984818110610ad357610ad3612014565b9050602002810190610ae59190612043565b50600090565b610afc576000945050505050610b10565b90910390600101610a5f565b506001925050505b949350505050565b6000610b22611393565b83828114610b5c576040517f947d5a8400000000000000000000000000000000000000000000000000000000815260040160405180910390fd5b3460005b82811015610b08576000868683818110610b7c57610b7c612014565b90506020020135905082811115610bbf576040517f1101129400000000000000000000000000000000000000000000000000000000815260040160405180910390fd5b610bec898984818110610bd457610bd4612014565b9050602002810190610be69190612043565b82611404565b610bfd576000945050505050610b10565b90910390600101610b60565b60606000610c1960206002612081565b60ff1667ffffffffffffffff811115610c3457610c34611ad8565b6040519080825280601f01601f191660200182016040528015610c5e576020820181803683370190505b5060408051808201909152601081527f3031323334353637383961626364656600000000000000000000000000000000602082015290915060005b6020811015610e0557818251868360208110610cb757610cb7612014565b610cc39291901a6120d3565b81518110610cd357610cd3612014565b01602001517fff000000000000000000000000000000000000000000000000000000000000001683610d06836002611f74565b81518110610d1657610d16612014565b60200101907effffffffffffffffffffffffffffffffffffffffffffffffffffffffffffff1916908160001a905350818251868360208110610d5a57610d5a612014565b610d669291901a6120e7565b81518110610d7657610d76612014565b01602001517fff000000000000000000000000000000000000000000000000000000000000001683610da9836002611f74565b610db4906001611f8b565b81518110610dc457610dc4612014565b60200101907effffffffffffffffffffffffffffffffffffffffffffffffffffffffffffff1916908160001a90535080610dfd816120fb565b915050610c99565b5081604051602001610e179190612133565b60405160208183030381529060405292505050919050565b60008211610e3c57600080fd5b6000610e4782611455565b6000818152600260205260409020909150610e628686611501565b6005820180547fffffffffffffffffffffffff00000000000000000000000000000000000000001673ffffffffffffffffffffffffffffffffffffffff929092169190911790556003810184905560005b8651811015610efe57610eeb878281518110610ed157610ed1612014565b6020026020010151836000016115c890919063ffffffff16565b5080610ef6816120fb565b915050610eb3565b506002810180547fffffffffffffffffffffffff0000000000000000000000000000000000000000163217905560065460058201546040517f6e385518000000000000000000000000000000000000000000000000000000008152600481018590526024810187905273ffffffffffffffffffffffffffffffffffffffff9182166044820152911690636e38551890606401600060405180830381600087803b158015610faa57600080fd5b505af1158015610fbe573d6000803e3d6000fd5b50506006546040517f7e6c78bd00000000000000000000000000000000000000000000000000000000815273ffffffffffffffffffffffffffffffffffffffff9091169250637e6c78bd915061101c9085908a908a906004016121f9565b600060405180830381600087803b15801561103657600080fd5b505af115801561104a573d6000803e3d6000fd5b50506006546040517ff398db320000000000000000000000000000000000000000000000000000000081526004810186905273ffffffffffffffffffffffffffffffffffffffff909116925063f398db329150602401600060405180830381600087803b1580156110ba57600080fd5b505af11580156110ce573d6000803e3d6000fd5b50505050505050505050565b60006110e4611393565b60005b90505b919050565b60006110f9611393565b6110e78234611404565b8047101561116d576040517f08c379a000000000000000000000000000000000000000000000000000000000815260206004820152601d60248201527f416464726573733a20696e73756666696369656e742062616c616e63650000006044820152606401610310565b60008273ffffffffffffffffffffffffffffffffffffffff168260405160006040518083038185875af1925050503d80600081146111c7576040519150601f19603f3d011682016040523d82523d6000602084013e6111cc565b606091505b505090508061125d576040517f08c379a000000000000000000000000000000000000000000000000000000000815260206004820152603a60248201527f416464726573733a20756e61626c6520746f2073656e642076616c75652c207260448201527f6563697069656e74206d617920686176652072657665727465640000000000006064820152608401610310565b505050565b6060610a0e838360006040518060400160405280601e81526020017f416464726573733a206c6f772d6c6576656c2063616c6c206661696c656400008152506115ea565b606060006112b383611703565b600101905060008167ffffffffffffffff8111156112d3576112d3611ad8565b6040519080825280601f01601f1916602001820160405280156112fd576020820181803683370190505b5090508181016020015b7fffffffffffffffffffffffffffffffffffffffffffffffffffffffffffffffff017f3031323334353637383961626364656600000000000000000000000000000000600a86061a8153600a850494508461130757509392505050565b73ffffffffffffffffffffffffffffffffffffffff811660009081526001830160205260408120541515610a0e565b3373ffffffffffffffffffffffffffffffffffffffff7f00000000000000000000000000000000000000000000000000000000000000001614611402576040517f4ca8886700000000000000000000000000000000000000000000000000000000815260040160405180910390fd5b565b600080611418610100850160e0860161222e565b6020808601356000818152600290925260409091209192509061143b9083611364565b61144a57600092505050610a11565b506001949350505050565b60055473ffffffffffffffffffffffffffffffffffffffff9081166080830152600060a08301819052600480546040517f61a4434c000000000000000000000000000000000000000000000000000000008152929316916361a4434c916114be9186910161224b565b6020604051808303816000875af11580156114dd573d6000803e3d6000fd5b505050506040513d601f19601f820116820180604052508101906110e79190612356565b60075460405160009182916115b29173ffffffffffffffffffffffffffffffffffffffff1690611537908790879060240161236f565b604080517fffffffffffffffffffffffffffffffffffffffffffffffffffffffffffffffe08184030181529190526020810180517bffffffffffffffffffffffffffffffffffffffffffffffffffffffff167ff7c25fe200000000000000000000000000000000000000000000000000000000179052611262565b905080806020019051810190610b10919061239d565b6000610a0e8373ffffffffffffffffffffffffffffffffffffffff84166117e5565b60608247101561167c576040517f08c379a000000000000000000000000000000000000000000000000000000000815260206004820152602660248201527f416464726573733a20696e73756666696369656e742062616c616e636520666f60448201527f722063616c6c00000000000000000000000000000000000000000000000000006064820152608401610310565b6000808673ffffffffffffffffffffffffffffffffffffffff1685876040516116a591906123ba565b60006040518083038185875af1925050503d80600081146116e2576040519150601f19603f3d011682016040523d82523d6000602084013e6116e7565b606091505b50915091506116f887838387611834565b979650505050505050565b6000807a184f03e93ff9f4daa797ed6e38ed64bf6a1f010000000000000000831061174c577a184f03e93ff9f4daa797ed6e38ed64bf6a1f010000000000000000830492506040015b6d04ee2d6d415b85acef81000000008310611778576d04ee2d6d415b85acef8100000000830492506020015b662386f26fc10000831061179657662386f26fc10000830492506010015b6305f5e10083106117ae576305f5e100830492506008015b61271083106117c257612710830492506004015b606483106117d4576064830492506002015b600a8310610a115760010192915050565b600081815260018301602052604081205461182c57508154600181810184556000848152602080822090930184905584548482528286019093526040902091909155610a11565b506000610a11565b606083156118ca5782516000036118c35773ffffffffffffffffffffffffffffffffffffffff85163b6118c3576040517f08c379a000000000000000000000000000000000000000000000000000000000815260206004820152601d60248201527f416464726573733a2063616c6c20746f206e6f6e2d636f6e74726163740000006044820152606401610310565b5081610b10565b610b1083838151156118df5781518083602001fd5b806040517f08c379a000000000000000000000000000000000000000000000000000000000815260040161031091906119a3565b6000806040838503121561192657600080fd5b50508035926020909101359150565b60005b83811015611950578181015183820152602001611938565b50506000910152565b60008151808452611971816020860160208601611935565b601f017fffffffffffffffffffffffffffffffffffffffffffffffffffffffffffffffe0169290920160200192915050565b602081526000610a0e6020830184611959565b73ffffffffffffffffffffffffffffffffffffffff811681146119d857600080fd5b50565b600080604083850312156119ee57600080fd5b82356119f9816119b6565b946020939093013593505050565b60008083601f840112611a1957600080fd5b50813567ffffffffffffffff811115611a3157600080fd5b6020830191508360208260051b8501011115611a4c57600080fd5b9250929050565b60008060008060408587031215611a6957600080fd5b843567ffffffffffffffff80821115611a8157600080fd5b611a8d88838901611a07565b90965094506020870135915080821115611aa657600080fd5b50611ab387828801611a07565b95989497509550505050565b600060208284031215611ad157600080fd5b5035919050565b7f4e487b7100000000000000000000000000000000000000000000000000000000600052604160045260246000fd5b60405160c0810167ffffffffffffffff81118282101715611b2a57611b2a611ad8565b60405290565b604051601f82017fffffffffffffffffffffffffffffffffffffffffffffffffffffffffffffffe016810167ffffffffffffffff81118282101715611b7757611b77611ad8565b604052919050565b600067ffffffffffffffff821115611b9957611b99611ad8565b5060051b60200190565b600082601f830112611bb457600080fd5b81356020611bc9611bc483611b7f565b611b30565b82815260059290921b84018101918181019086841115611be857600080fd5b8286015b84811015611c035780358352918301918301611bec565b509695505050505050565b600082601f830112611c1f57600080fd5b813567ffffffffffffffff811115611c3957611c39611ad8565b611c6a60207fffffffffffffffffffffffffffffffffffffffffffffffffffffffffffffffe0601f84011601611b30565b818152846020838601011115611c7f57600080fd5b816020850160208301376000918101602001919091529392505050565b600082601f830112611cad57600080fd5b81356020611cbd611bc483611b7f565b82815260059290921b84018101918181019086841115611cdc57600080fd5b8286015b84811015611c0357803567ffffffffffffffff811115611d005760008081fd5b611d0e8986838b0101611c0e565b845250918301918301611ce0565b80356110ea816119b6565b803580151581146110ea57600080fd5b600060c08284031215611d4957600080fd5b611d51611b07565b9050813567ffffffffffffffff80821115611d6b57600080fd5b611d7785838601611c0e565b83526020840135915080821115611d8d57600080fd5b611d9985838601611c0e565b60208401526040840135915080821115611db257600080fd5b611dbe85838601611c0e565b60408401526060840135915080821115611dd757600080fd5b50611de484828501611c9c565b606083015250611df660808301611d1c565b6080820152611e0760a08301611d27565b60a082015292915050565b60008060008060808587031215611e2857600080fd5b843567ffffffffffffffff80821115611e4057600080fd5b818701915087601f830112611e5457600080fd5b81356020611e64611bc483611b7f565b82815260059290921b8401810191818101908b841115611e8357600080fd5b948201945b83861015611eaa578535611e9b816119b6565b82529482019490820190611e88565b98505088013592505080821115611ec057600080fd5b611ecc88838901611ba3565b9450604087013593506060870135915080821115611ee957600080fd5b50611ef687828801611d37565b91505092959194509250565b600060208284031215611f1457600080fd5b813567ffffffffffffffff811115611f2b57600080fd5b82016101408185031215611f3e57600080fd5b9392505050565b7f4e487b7100000000000000000000000000000000000000000000000000000000600052601160045260246000fd5b8082028115828204841417610a1157610a11611f45565b80820180821115610a1157610a11611f45565b60008451611fb0818460208901611935565b80830190507f2e000000000000000000000000000000000000000000000000000000000000008082528551611fec816001850160208a01611935565b60019201918201528351612007816002840160208801611935565b0160020195945050505050565b7f4e487b7100000000000000000000000000000000000000000000000000000000600052603260045260246000fd5b600082357ffffffffffffffffffffffffffffffffffffffffffffffffffffffffffffffec183360301811261207757600080fd5b9190910192915050565b60ff818116838216029081169081811461209d5761209d611f45565b5092915050565b7f4e487b7100000000000000000000000000000000000000000000000000000000600052601260045260246000fd5b6000826120e2576120e26120a4565b500490565b6000826120f6576120f66120a4565b500690565b60007fffffffffffffffffffffffffffffffffffffffffffffffffffffffffffffffff820361212c5761212c611f45565b5060010190565b7f307800000000000000000000000000000000000000000000000000000000000081526000825161216b816002850160208701611935565b9190910160020192915050565b600081518084526020808501945080840160005b838110156121be57815173ffffffffffffffffffffffffffffffffffffffff168752958201959082019060010161218c565b509495945050505050565b600081518084526020808501945080840160005b838110156121be578151875295820195908201906001016121dd565b8381526060602082015260006122126060830185612178565b828103604084015261222481856121c9565b9695505050505050565b60006020828403121561224057600080fd5b8135611f3e816119b6565b60006020808352835160c08285015261226760e0850182611959565b9050818501517fffffffffffffffffffffffffffffffffffffffffffffffffffffffffffffffe0808684030160408701526122a28383611959565b925060408701519150808684030160608701526122bf8383611959565b60608801518782038301608089015280518083529194508501925084840190600581901b8501860160005b828110156123165784878303018452612304828751611959565b958801959388019391506001016122ea565b5060808a015173ffffffffffffffffffffffffffffffffffffffff811660a08b0152965060a08a015180151560c08b015296509998505050505050505050565b60006020828403121561236857600080fd5b5051919050565b6040815260006123826040830185612178565b828103602084015261239481856121c9565b95945050505050565b6000602082840312156123af57600080fd5b8151611f3e816119b6565b6000825161207781846020870161193556fea26469706673582212201b1b79d2a08de48376f56a4e94c50ab55985fd24a13719ed4a62fc3b7303275e64736f6c63430008130033",
  "devdoc": {
    "kind": "dev",
    "methods": {
      "attest((bytes32,bytes32,uint64,uint64,uint64,bytes32,address,address,bool,bytes))": {
        "params": {
          "attestation": "The new attestation."
        },
        "returns": {
          "_0": "Whether the attestation is valid."
        }
      },
      "isPayable()": {
        "returns": {
          "_0": "True, indicating that the contract can accept payments."
        }
      },
      "multiAttest((bytes32,bytes32,uint64,uint64,uint64,bytes32,address,address,bool,bytes)[],uint256[])": {
        "params": {
          "attestations": "The new attestations.",
          "values": "Explicit ETH amounts which were sent with each attestation."
        },
        "returns": {
          "_0": "Whether all the attestations are valid."
        }
      },
      "multiRevoke((bytes32,bytes32,uint64,uint64,uint64,bytes32,address,address,bool,bytes)[],uint256[])": {
        "params": {
          "attestations": "The existing attestations to be revoked.",
          "values": "Explicit ETH amounts which were sent with each revocation."
        },
        "returns": {
          "_0": "Whether the attestations can be revoked."
        }
      },
      "revoke((bytes32,bytes32,uint64,uint64,uint64,bytes32,address,address,bool,bytes))": {
        "params": {
          "attestation": "The existing attestation to be revoked."
        },
        "returns": {
          "_0": "Whether the attestation can be revoked."
        }
      },
      "subscribe(bytes32,uint256)": {
        "details": "Mint tokens for encrypted attestations.",
        "params": {
          "schemaUID": "The UID of the schema for which tokens are being minted."
        }
      },
      "version()": {
        "returns": {
          "_0": "Semver contract version as a string."
        }
      }
    },
    "title": "ContentSubscriptionResolver",
    "version": 1
  },
  "userdoc": {
    "kind": "user",
    "methods": {
      "attest((bytes32,bytes32,uint64,uint64,uint64,bytes32,address,address,bool,bytes))": {
        "notice": "Processes an attestation and verifies whether it's valid."
      },
      "isPayable()": {
        "notice": "Indicates whether the contract is designed to handle incoming payments."
      },
      "multiAttest((bytes32,bytes32,uint64,uint64,uint64,bytes32,address,address,bool,bytes)[],uint256[])": {
        "notice": "Processes multiple attestations and verifies whether they are valid."
      },
      "multiRevoke((bytes32,bytes32,uint64,uint64,uint64,bytes32,address,address,bool,bytes)[],uint256[])": {
        "notice": "Processes revocation of multiple attestation and verifies they can be revoked."
      },
      "revoke((bytes32,bytes32,uint64,uint64,uint64,bytes32,address,address,bool,bytes))": {
        "notice": "Processes an attestation revocation and verifies if it can be revoked."
      },
      "version()": {
        "notice": "Returns the full semver contract version."
      }
    },
    "notice": "A schema resolver subcription to content example",
    "version": 1
  },
  "storageLayout": {
    "storage": [
      {
        "astId": 9907,
        "contract": "contracts/resolver/examples/ContentSubscriptionResolver.sol:ContentSubscriptionResolver",
        "label": "ONE_MONTH",
        "offset": 0,
        "slot": "0",
        "type": "t_uint256"
      },
      {
        "astId": 9922,
        "contract": "contracts/resolver/examples/ContentSubscriptionResolver.sol:ContentSubscriptionResolver",
        "label": "schema",
        "offset": 0,
        "slot": "1",
        "type": "t_string_storage"
      },
      {
        "astId": 9927,
        "contract": "contracts/resolver/examples/ContentSubscriptionResolver.sol:ContentSubscriptionResolver",
        "label": "schemas",
        "offset": 0,
        "slot": "2",
        "type": "t_mapping(t_bytes32,t_struct(SchemaInfo)9919_storage)"
      },
      {
        "astId": 9933,
        "contract": "contracts/resolver/examples/ContentSubscriptionResolver.sol:ContentSubscriptionResolver",
        "label": "userSubscriptions",
        "offset": 0,
        "slot": "3",
        "type": "t_mapping(t_address,t_mapping(t_bytes32,t_uint256))"
      },
      {
        "astId": 9936,
        "contract": "contracts/resolver/examples/ContentSubscriptionResolver.sol:ContentSubscriptionResolver",
        "label": "schemaRegistry",
        "offset": 0,
        "slot": "4",
        "type": "t_contract(ISchemaRegistry)5556"
      },
      {
        "astId": 9939,
        "contract": "contracts/resolver/examples/ContentSubscriptionResolver.sol:ContentSubscriptionResolver",
        "label": "schemaResolver",
        "offset": 0,
        "slot": "5",
        "type": "t_contract(ISchemaResolver)9007"
      },
      {
        "astId": 9942,
        "contract": "contracts/resolver/examples/ContentSubscriptionResolver.sol:ContentSubscriptionResolver",
        "label": "tableland",
        "offset": 0,
        "slot": "6",
        "type": "t_contract(ITablelandSubscriptionsIndexer)10627"
      },
      {
        "astId": 9944,
        "contract": "contracts/resolver/examples/ContentSubscriptionResolver.sol:ContentSubscriptionResolver",
        "label": "revocable",
        "offset": 20,
        "slot": "6",
        "type": "t_bool"
      },
      {
        "astId": 9946,
        "contract": "contracts/resolver/examples/ContentSubscriptionResolver.sol:ContentSubscriptionResolver",
        "label": "splitterFactory",
        "offset": 0,
        "slot": "7",
        "type": "t_address"
      }
    ],
    "types": {
      "t_address": {
        "encoding": "inplace",
        "label": "address",
        "numberOfBytes": "20"
      },
      "t_array(t_bytes32)dyn_storage": {
        "base": "t_bytes32",
        "encoding": "dynamic_array",
        "label": "bytes32[]",
        "numberOfBytes": "32"
      },
      "t_bool": {
        "encoding": "inplace",
        "label": "bool",
        "numberOfBytes": "1"
      },
      "t_bytes32": {
        "encoding": "inplace",
        "label": "bytes32",
        "numberOfBytes": "32"
      },
      "t_contract(ISchemaRegistry)5556": {
        "encoding": "inplace",
        "label": "contract ISchemaRegistry",
        "numberOfBytes": "20"
      },
      "t_contract(ISchemaResolver)9007": {
        "encoding": "inplace",
        "label": "contract ISchemaResolver",
        "numberOfBytes": "20"
      },
      "t_contract(ITablelandSubscriptionsIndexer)10627": {
        "encoding": "inplace",
        "label": "contract ITablelandSubscriptionsIndexer",
        "numberOfBytes": "20"
      },
      "t_mapping(t_address,t_mapping(t_bytes32,t_uint256))": {
        "encoding": "mapping",
        "key": "t_address",
        "label": "mapping(address => mapping(bytes32 => uint256))",
        "numberOfBytes": "32",
        "value": "t_mapping(t_bytes32,t_uint256)"
      },
      "t_mapping(t_bytes32,t_struct(SchemaInfo)9919_storage)": {
        "encoding": "mapping",
        "key": "t_bytes32",
        "label": "mapping(bytes32 => struct ContentSubscriptionResolver.SchemaInfo)",
        "numberOfBytes": "32",
        "value": "t_struct(SchemaInfo)9919_storage"
      },
      "t_mapping(t_bytes32,t_uint256)": {
        "encoding": "mapping",
        "key": "t_bytes32",
        "label": "mapping(bytes32 => uint256)",
        "numberOfBytes": "32",
        "value": "t_uint256"
      },
      "t_string_storage": {
        "encoding": "bytes",
        "label": "string",
        "numberOfBytes": "32"
      },
      "t_struct(AddressSet)4518_storage": {
        "encoding": "inplace",
        "label": "struct EnumerableSet.AddressSet",
        "members": [
          {
            "astId": 4517,
            "contract": "contracts/resolver/examples/ContentSubscriptionResolver.sol:ContentSubscriptionResolver",
            "label": "_inner",
            "offset": 0,
            "slot": "0",
            "type": "t_struct(Set)4203_storage"
          }
        ],
        "numberOfBytes": "64"
      },
      "t_struct(SchemaInfo)9919_storage": {
        "encoding": "inplace",
        "label": "struct ContentSubscriptionResolver.SchemaInfo",
        "members": [
          {
            "astId": 9910,
            "contract": "contracts/resolver/examples/ContentSubscriptionResolver.sol:ContentSubscriptionResolver",
            "label": "contentCreators",
            "offset": 0,
            "slot": "0",
            "type": "t_struct(AddressSet)4518_storage"
          },
          {
            "astId": 9912,
            "contract": "contracts/resolver/examples/ContentSubscriptionResolver.sol:ContentSubscriptionResolver",
            "label": "multisig",
            "offset": 0,
            "slot": "2",
            "type": "t_address"
          },
          {
            "astId": 9914,
            "contract": "contracts/resolver/examples/ContentSubscriptionResolver.sol:ContentSubscriptionResolver",
            "label": "subscriptionPrice",
            "offset": 0,
            "slot": "3",
            "type": "t_uint256"
          },
          {
            "astId": 9916,
            "contract": "contracts/resolver/examples/ContentSubscriptionResolver.sol:ContentSubscriptionResolver",
            "label": "totalRevenue",
            "offset": 0,
            "slot": "4",
            "type": "t_uint256"
          },
          {
            "astId": 9918,
            "contract": "contracts/resolver/examples/ContentSubscriptionResolver.sol:ContentSubscriptionResolver",
            "label": "splitterContract",
            "offset": 0,
            "slot": "5",
            "type": "t_address"
          }
        ],
        "numberOfBytes": "192"
      },
      "t_struct(Set)4203_storage": {
        "encoding": "inplace",
        "label": "struct EnumerableSet.Set",
        "members": [
          {
            "astId": 4198,
            "contract": "contracts/resolver/examples/ContentSubscriptionResolver.sol:ContentSubscriptionResolver",
            "label": "_values",
            "offset": 0,
            "slot": "0",
            "type": "t_array(t_bytes32)dyn_storage"
          },
          {
            "astId": 4202,
            "contract": "contracts/resolver/examples/ContentSubscriptionResolver.sol:ContentSubscriptionResolver",
            "label": "_indexes",
            "offset": 0,
            "slot": "1",
            "type": "t_mapping(t_bytes32,t_uint256)"
          }
        ],
        "numberOfBytes": "64"
      },
      "t_uint256": {
        "encoding": "inplace",
        "label": "uint256",
        "numberOfBytes": "32"
      }
    }
  }
}