{
  "address": "0x45fbe0eDF2eeE718656B05eE224Db62055Cfa10D",
  "abi": [
    {
      "inputs": [
        {
          "internalType": "contract ISchemaTablelandIndexer",
          "name": "_tableland",
          "type": "address"
        }
      ],
      "stateMutability": "nonpayable",
      "type": "constructor"
    },
    {
      "inputs": [],
      "name": "AlreadyExists",
      "type": "error"
    },
    {
      "inputs": [
        {
          "internalType": "bytes32",
          "name": "uid",
          "type": "bytes32"
        }
      ],
      "name": "getSchema",
      "outputs": [
        {
          "components": [
            {
              "internalType": "bytes32",
              "name": "uid",
              "type": "bytes32"
            },
            {
              "internalType": "contract ISchemaResolver",
              "name": "resolver",
              "type": "address"
            },
            {
              "internalType": "bool",
              "name": "revocable",
              "type": "bool"
            },
            {
              "internalType": "string",
              "name": "schema",
              "type": "string"
            }
          ],
          "internalType": "struct SchemaRecord",
          "name": "",
          "type": "tuple"
        }
      ],
      "stateMutability": "view",
      "type": "function"
    },
    {
      "inputs": [
        {
          "components": [
            {
              "internalType": "string",
              "name": "schema",
              "type": "string"
            },
            {
              "internalType": "string",
              "name": "schemaName",
              "type": "string"
            },
            {
              "internalType": "string",
              "name": "schemaDescription",
              "type": "string"
            },
            {
              "internalType": "string[]",
              "name": "categories",
              "type": "string[]"
            },
            {
              "internalType": "contract ISchemaResolver",
              "name": "schemaResolver",
              "type": "address"
            },
            {
              "internalType": "bool",
              "name": "revocable",
              "type": "bool"
            }
          ],
          "internalType": "struct SchemaRegistrationInput",
          "name": "input",
          "type": "tuple"
        }
      ],
      "name": "register",
      "outputs": [
        {
          "internalType": "bytes32",
          "name": "",
          "type": "bytes32"
        }
      ],
      "stateMutability": "nonpayable",
      "type": "function"
    },
    {
      "inputs": [],
      "name": "version",
      "outputs": [
        {
          "internalType": "string",
          "name": "",
          "type": "string"
        }
      ],
      "stateMutability": "view",
      "type": "function"
    }
  ],
  "transactionHash": "0x82e8d47db5df486e6a58b4abb3cdb399058b3369c2c1db4218d0fd1c2e4c2cc0",
  "args": [
    "0xe0E5713CFaf4CDEf0035723100f9a544E70fea30"
  ],
  "numDeployments": 1,
  "solcInputHash": "9072156d7f3fde666d0df55fca30b6d3",
  "bytecode": "0x60e060405234801561001057600080fd5b50604051610ece380380610ece83398101604081905261002f91610063565b6000608081905260a0819052600160c05280546001600160a01b0319166001600160a01b0392909216919091179055610093565b60006020828403121561007557600080fd5b81516001600160a01b038116811461008c57600080fd5b9392505050565b60805160a05160c051610e0f6100bf600039600060fe0152600060d50152600060ac0152610e0f6000f3fe608060405234801561001057600080fd5b50600436106100415760003560e01c806354fd4d501461004657806361a4434c14610064578063a2ea7c6e14610085575b600080fd5b61004e6100a5565b60405161005b919061068a565b60405180910390f35b6100776100723660046108b1565b610148565b60405190815260200161005b565b6100986100933660046109ac565b610310565b60405161005b91906109c5565b60606100d07f0000000000000000000000000000000000000000000000000000000000000000610439565b6100f97f0000000000000000000000000000000000000000000000000000000000000000610439565b6101227f0000000000000000000000000000000000000000000000000000000000000000610439565b60405160200161013493929190610a1e565b604051602081830303815290604052905090565b604080516080808201835260008083529084015173ffffffffffffffffffffffffffffffffffffffff16602083015260a08401511515928201929092528251606082015281610196826104f7565b600081815260016020526040902054909150156101df576040517f23369fa600000000000000000000000000000000000000000000000000000000815260040160405180910390fd5b8082526000818152600160208181526040928390208551815590850151918101805493860151151574010000000000000000000000000000000000000000027fffffffffffffffffffffff00000000000000000000000000000000000000000090941673ffffffffffffffffffffffffffffffffffffffff909316929092179290921790556060830151839190600282019061027b9082610b36565b505060005483516040517f6c42ce2500000000000000000000000000000000000000000000000000000000815273ffffffffffffffffffffffffffffffffffffffff9092169250636c42ce25916102d6918891600401610c50565b600060405180830381600087803b1580156102f057600080fd5b505af1158015610304573d6000803e3d6000fd5b50929695505050505050565b60408051608081018252600080825260208201819052918101919091526060808201526000828152600160208181526040928390208351608081018552815481529281015473ffffffffffffffffffffffffffffffffffffffff8116928401929092527401000000000000000000000000000000000000000090910460ff161515928201929092526002820180549192916060840191906103b090610a94565b80601f01602080910402602001604051908101604052809291908181526020018280546103dc90610a94565b80156104295780601f106103fe57610100808354040283529160200191610429565b820191906000526020600020905b81548152906001019060200180831161040c57829003601f168201915b5050505050815250509050919050565b6060600061044683610539565b600101905060008167ffffffffffffffff811115610466576104666106a4565b6040519080825280601f01601f191660200182016040528015610490576020820181803683370190505b5090508181016020015b7fffffffffffffffffffffffffffffffffffffffffffffffffffffffffffffffff017f3031323334353637383961626364656600000000000000000000000000000000600a86061a8153600a850494508461049a57509392505050565b60008160600151826020015183604001514260405160200161051c9493929190610d7f565b604051602081830303815290604052805190602001209050919050565b6000807a184f03e93ff9f4daa797ed6e38ed64bf6a1f0100000000000000008310610582577a184f03e93ff9f4daa797ed6e38ed64bf6a1f010000000000000000830492506040015b6d04ee2d6d415b85acef810000000083106105ae576d04ee2d6d415b85acef8100000000830492506020015b662386f26fc1000083106105cc57662386f26fc10000830492506010015b6305f5e10083106105e4576305f5e100830492506008015b61271083106105f857612710830492506004015b6064831061060a576064830492506002015b600a8310610616576001015b92915050565b60005b8381101561063757818101518382015260200161061f565b50506000910152565b6000815180845261065881602086016020860161061c565b601f017fffffffffffffffffffffffffffffffffffffffffffffffffffffffffffffffe0169290920160200192915050565b60208152600061069d6020830184610640565b9392505050565b7f4e487b7100000000000000000000000000000000000000000000000000000000600052604160045260246000fd5b60405160c0810167ffffffffffffffff811182821017156106f6576106f66106a4565b60405290565b604051601f82017fffffffffffffffffffffffffffffffffffffffffffffffffffffffffffffffe016810167ffffffffffffffff81118282101715610743576107436106a4565b604052919050565b600082601f83011261075c57600080fd5b813567ffffffffffffffff811115610776576107766106a4565b6107a760207fffffffffffffffffffffffffffffffffffffffffffffffffffffffffffffffe0601f840116016106fc565b8181528460208386010111156107bc57600080fd5b816020850160208301376000918101602001919091529392505050565b600082601f8301126107ea57600080fd5b8135602067ffffffffffffffff80831115610807576108076106a4565b8260051b6108168382016106fc565b938452858101830193838101908886111561083057600080fd5b84880192505b8583101561086c5782358481111561084e5760008081fd5b61085c8a87838c010161074b565b8352509184019190840190610836565b98975050505050505050565b803573ffffffffffffffffffffffffffffffffffffffff8116811461089c57600080fd5b919050565b8035801515811461089c57600080fd5b6000602082840312156108c357600080fd5b813567ffffffffffffffff808211156108db57600080fd5b9083019060c082860312156108ef57600080fd5b6108f76106d3565b82358281111561090657600080fd5b6109128782860161074b565b82525060208301358281111561092757600080fd5b6109338782860161074b565b60208301525060408301358281111561094b57600080fd5b6109578782860161074b565b60408301525060608301358281111561096f57600080fd5b61097b878286016107d9565b60608301525061098d60808401610878565b608082015261099e60a084016108a1565b60a082015295945050505050565b6000602082840312156109be57600080fd5b5035919050565b602081528151602082015273ffffffffffffffffffffffffffffffffffffffff602083015116604082015260408201511515606082015260006060830151608080840152610a1660a0840182610640565b949350505050565b60008451610a3081846020890161061c565b80830190507f2e000000000000000000000000000000000000000000000000000000000000008082528551610a6c816001850160208a0161061c565b60019201918201528351610a8781600284016020880161061c565b0160020195945050505050565b600181811c90821680610aa857607f821691505b602082108103610ae1577f4e487b7100000000000000000000000000000000000000000000000000000000600052602260045260246000fd5b50919050565b601f821115610b3157600081815260208120601f850160051c81016020861015610b0e5750805b601f850160051c820191505b81811015610b2d57828155600101610b1a565b5050505b505050565b815167ffffffffffffffff811115610b5057610b506106a4565b610b6481610b5e8454610a94565b84610ae7565b602080601f831160018114610bb75760008415610b815750858301515b7fffffffffffffffffffffffffffffffffffffffffffffffffffffffffffffffff600386901b1c1916600185901b178555610b2d565b6000858152602081207fffffffffffffffffffffffffffffffffffffffffffffffffffffffffffffffe08616915b82811015610c0457888601518255948401946001909101908401610be5565b5085821015610c4057878501517fffffffffffffffffffffffffffffffffffffffffffffffffffffffffffffffff600388901b60f8161c191681555b5050505050600190811b01905550565b604081526000835160c06040840152610c6d610100840182610640565b90506020808601517fffffffffffffffffffffffffffffffffffffffffffffffffffffffffffffffc080868503016060870152610caa8483610640565b93506040880151915080868503016080870152610cc78483610640565b606089015187820390920160a08801528151808252909450908301915082840190600581901b8501840160005b82811015610d40577fffffffffffffffffffffffffffffffffffffffffffffffffffffffffffffffe0878303018452610d2e828651610640565b94860194938601939150600101610cf4565b5060808a015173ffffffffffffffffffffffffffffffffffffffff1660c089015260a090990151151560e0880152505050909201929092525090919050565b60008551610d91818460208a0161061c565b60609590951b7fffffffffffffffffffffffffffffffffffffffff000000000000000000000000169190940190815291151560f81b601483015260158201526035019291505056fea2646970667358221220999a42fee05c9784eac6963f1a23e5a713ca332c67daf41bc03e257bbe072fa064736f6c63430008130033",
  "devdoc": {
    "kind": "dev",
    "methods": {
      "constructor": {
        "details": "Creates a new SchemaRegistry instance."
      },
      "getSchema(bytes32)": {
        "params": {
          "uid": "The UID of the schema to retrieve."
        },
        "returns": {
          "_0": "The schema data members."
        }
      },
      "version()": {
        "returns": {
          "_0": "Semver contract version as a string."
        }
      }
    },
    "title": "SchemaRegistry",
    "version": 1
  },
  "userdoc": {
    "kind": "user",
    "methods": {
      "getSchema(bytes32)": {
        "notice": "Returns an existing schema by UID"
      },
      "version()": {
        "notice": "Returns the full semver contract version."
      }
    },
    "notice": "The global schema registry.",
    "version": 1
  },
  "storageLayout": {
    "storage": [
      {
        "astId": 5815,
        "contract": "contracts/SchemaRegistry.sol:SchemaRegistry",
        "label": "tableland",
        "offset": 0,
        "slot": "0",
        "type": "t_contract(ISchemaTablelandIndexer)8914"
      },
      {
        "astId": 5822,
        "contract": "contracts/SchemaRegistry.sol:SchemaRegistry",
        "label": "_registry",
        "offset": 0,
        "slot": "1",
        "type": "t_mapping(t_bytes32,t_struct(SchemaRecord)5522_storage)"
      }
    ],
    "types": {
      "t_bool": {
        "encoding": "inplace",
        "label": "bool",
        "numberOfBytes": "1"
      },
      "t_bytes32": {
        "encoding": "inplace",
        "label": "bytes32",
        "numberOfBytes": "32"
      },
      "t_contract(ISchemaResolver)9007": {
        "encoding": "inplace",
        "label": "contract ISchemaResolver",
        "numberOfBytes": "20"
      },
      "t_contract(ISchemaTablelandIndexer)8914": {
        "encoding": "inplace",
        "label": "contract ISchemaTablelandIndexer",
        "numberOfBytes": "20"
      },
      "t_mapping(t_bytes32,t_struct(SchemaRecord)5522_storage)": {
        "encoding": "mapping",
        "key": "t_bytes32",
        "label": "mapping(bytes32 => struct SchemaRecord)",
        "numberOfBytes": "32",
        "value": "t_struct(SchemaRecord)5522_storage"
      },
      "t_string_storage": {
        "encoding": "bytes",
        "label": "string",
        "numberOfBytes": "32"
      },
      "t_struct(SchemaRecord)5522_storage": {
        "encoding": "inplace",
        "label": "struct SchemaRecord",
        "members": [
          {
            "astId": 5514,
            "contract": "contracts/SchemaRegistry.sol:SchemaRegistry",
            "label": "uid",
            "offset": 0,
            "slot": "0",
            "type": "t_bytes32"
          },
          {
            "astId": 5517,
            "contract": "contracts/SchemaRegistry.sol:SchemaRegistry",
            "label": "resolver",
            "offset": 0,
            "slot": "1",
            "type": "t_contract(ISchemaResolver)9007"
          },
          {
            "astId": 5519,
            "contract": "contracts/SchemaRegistry.sol:SchemaRegistry",
            "label": "revocable",
            "offset": 20,
            "slot": "1",
            "type": "t_bool"
          },
          {
            "astId": 5521,
            "contract": "contracts/SchemaRegistry.sol:SchemaRegistry",
            "label": "schema",
            "offset": 0,
            "slot": "2",
            "type": "t_string_storage"
          }
        ],
        "numberOfBytes": "96"
      }
    }
  }
}